{
  "contractName": "DegisToken",
  "abi": [
    {
      "inputs": [],
      "stateMutability": "nonpayable",
      "type": "constructor"
    },
    {
      "anonymous": false,
      "inputs": [
        {
          "indexed": true,
          "internalType": "address",
          "name": "owner",
          "type": "address"
        },
        {
          "indexed": true,
          "internalType": "address",
          "name": "spender",
          "type": "address"
        },
        {
          "indexed": false,
          "internalType": "uint256",
          "name": "value",
          "type": "uint256"
        }
      ],
      "name": "Approval",
      "type": "event"
    },
    {
      "anonymous": false,
      "inputs": [
        {
          "indexed": false,
          "internalType": "address",
          "name": "_newBurner",
          "type": "address"
        }
      ],
      "name": "BurnerAdded",
      "type": "event"
    },
    {
      "anonymous": false,
      "inputs": [
        {
          "indexed": false,
          "internalType": "address",
          "name": "_oldBurner",
          "type": "address"
        }
      ],
      "name": "BurnerRemoved",
      "type": "event"
    },
    {
      "anonymous": false,
      "inputs": [
        {
          "indexed": true,
          "internalType": "address",
          "name": "_owner",
          "type": "address"
        },
        {
          "indexed": false,
          "internalType": "uint256",
          "name": "_blockNumber",
          "type": "uint256"
        }
      ],
      "name": "CloseOwnerMint",
      "type": "event"
    },
    {
      "anonymous": false,
      "inputs": [
        {
          "indexed": false,
          "internalType": "address",
          "name": "_account",
          "type": "address"
        },
        {
          "indexed": false,
          "internalType": "uint256",
          "name": "_amount",
          "type": "uint256"
        }
      ],
      "name": "MintByOwner",
      "type": "event"
    },
    {
      "anonymous": false,
      "inputs": [
        {
          "indexed": false,
          "internalType": "address",
          "name": "_newMinter",
          "type": "address"
        }
      ],
      "name": "MinterAdded",
      "type": "event"
    },
    {
      "anonymous": false,
      "inputs": [
        {
          "indexed": false,
          "internalType": "address",
          "name": "_oldMinter",
          "type": "address"
        }
      ],
      "name": "MinterRemoved",
      "type": "event"
    },
    {
      "anonymous": false,
      "inputs": [
        {
          "indexed": true,
          "internalType": "address",
          "name": "_oldOwner",
          "type": "address"
        },
        {
          "indexed": true,
          "internalType": "address",
          "name": "_newOwner",
          "type": "address"
        }
      ],
      "name": "OwnerChanged",
      "type": "event"
    },
    {
      "anonymous": false,
      "inputs": [
        {
          "indexed": true,
          "internalType": "address",
          "name": "_oldOwner",
          "type": "address"
        }
      ],
      "name": "ReleaseOwnership",
      "type": "event"
    },
    {
      "anonymous": false,
      "inputs": [
        {
          "indexed": true,
          "internalType": "address",
          "name": "from",
          "type": "address"
        },
        {
          "indexed": true,
          "internalType": "address",
          "name": "to",
          "type": "address"
        },
        {
          "indexed": false,
          "internalType": "uint256",
          "name": "value",
          "type": "uint256"
        }
      ],
      "name": "Transfer",
      "type": "event"
    },
    {
      "inputs": [],
      "name": "DEGIS_CAP",
      "outputs": [
        {
          "internalType": "uint256",
          "name": "",
          "type": "uint256"
        }
      ],
      "stateMutability": "view",
      "type": "function"
    },
    {
      "inputs": [],
      "name": "DOMAIN_SEPARATOR",
      "outputs": [
        {
          "internalType": "bytes32",
          "name": "",
          "type": "bytes32"
        }
      ],
      "stateMutability": "view",
      "type": "function"
    },
    {
      "inputs": [
        {
          "internalType": "address",
          "name": "owner",
          "type": "address"
        },
        {
          "internalType": "address",
          "name": "spender",
          "type": "address"
        }
      ],
      "name": "allowance",
      "outputs": [
        {
          "internalType": "uint256",
          "name": "",
          "type": "uint256"
        }
      ],
      "stateMutability": "view",
      "type": "function"
    },
    {
      "inputs": [
        {
          "internalType": "address",
          "name": "spender",
          "type": "address"
        },
        {
          "internalType": "uint256",
          "name": "amount",
          "type": "uint256"
        }
      ],
      "name": "approve",
      "outputs": [
        {
          "internalType": "bool",
          "name": "",
          "type": "bool"
        }
      ],
      "stateMutability": "nonpayable",
      "type": "function"
    },
    {
      "inputs": [
        {
          "internalType": "address",
          "name": "account",
          "type": "address"
        }
      ],
      "name": "balanceOf",
      "outputs": [
        {
          "internalType": "uint256",
          "name": "",
          "type": "uint256"
        }
      ],
      "stateMutability": "view",
      "type": "function"
    },
    {
      "inputs": [
        {
          "internalType": "uint256",
          "name": "",
          "type": "uint256"
        }
      ],
      "name": "burnerList",
      "outputs": [
        {
          "internalType": "address",
          "name": "",
          "type": "address"
        }
      ],
      "stateMutability": "view",
      "type": "function"
    },
    {
      "inputs": [],
      "name": "decimals",
      "outputs": [
        {
          "internalType": "uint8",
          "name": "",
          "type": "uint8"
        }
      ],
      "stateMutability": "view",
      "type": "function"
    },
    {
      "inputs": [
        {
          "internalType": "address",
          "name": "spender",
          "type": "address"
        },
        {
          "internalType": "uint256",
          "name": "subtractedValue",
          "type": "uint256"
        }
      ],
      "name": "decreaseAllowance",
      "outputs": [
        {
          "internalType": "bool",
          "name": "",
          "type": "bool"
        }
      ],
      "stateMutability": "nonpayable",
      "type": "function"
    },
    {
      "inputs": [
        {
          "internalType": "address",
          "name": "spender",
          "type": "address"
        },
        {
          "internalType": "uint256",
          "name": "addedValue",
          "type": "uint256"
        }
      ],
      "name": "increaseAllowance",
      "outputs": [
        {
          "internalType": "bool",
          "name": "",
          "type": "bool"
        }
      ],
      "stateMutability": "nonpayable",
      "type": "function"
    },
    {
      "inputs": [
        {
          "internalType": "uint256",
          "name": "",
          "type": "uint256"
        }
      ],
      "name": "minterList",
      "outputs": [
        {
          "internalType": "address",
          "name": "",
          "type": "address"
        }
      ],
      "stateMutability": "view",
      "type": "function"
    },
    {
      "inputs": [],
      "name": "name",
      "outputs": [
        {
          "internalType": "string",
          "name": "",
          "type": "string"
        }
      ],
      "stateMutability": "view",
      "type": "function"
    },
    {
      "inputs": [
        {
          "internalType": "address",
          "name": "owner",
          "type": "address"
        }
      ],
      "name": "nonces",
      "outputs": [
        {
          "internalType": "uint256",
          "name": "",
          "type": "uint256"
        }
      ],
      "stateMutability": "view",
      "type": "function"
    },
    {
      "inputs": [],
      "name": "owner",
      "outputs": [
        {
          "internalType": "address",
          "name": "",
          "type": "address"
        }
      ],
      "stateMutability": "view",
      "type": "function"
    },
    {
      "inputs": [],
      "name": "ownerMintEnabled",
      "outputs": [
        {
          "internalType": "bool",
          "name": "",
          "type": "bool"
        }
      ],
      "stateMutability": "view",
      "type": "function"
    },
    {
      "inputs": [
        {
          "internalType": "address",
          "name": "owner",
          "type": "address"
        },
        {
          "internalType": "address",
          "name": "spender",
          "type": "address"
        },
        {
          "internalType": "uint256",
          "name": "value",
          "type": "uint256"
        },
        {
          "internalType": "uint256",
          "name": "deadline",
          "type": "uint256"
        },
        {
          "internalType": "uint8",
          "name": "v",
          "type": "uint8"
        },
        {
          "internalType": "bytes32",
          "name": "r",
          "type": "bytes32"
        },
        {
          "internalType": "bytes32",
          "name": "s",
          "type": "bytes32"
        }
      ],
      "name": "permit",
      "outputs": [],
      "stateMutability": "nonpayable",
      "type": "function"
    },
    {
      "inputs": [],
      "name": "symbol",
      "outputs": [
        {
          "internalType": "string",
          "name": "",
          "type": "string"
        }
      ],
      "stateMutability": "view",
      "type": "function"
    },
    {
      "inputs": [],
      "name": "totalSupply",
      "outputs": [
        {
          "internalType": "uint256",
          "name": "",
          "type": "uint256"
        }
      ],
      "stateMutability": "view",
      "type": "function"
    },
    {
      "inputs": [
        {
          "internalType": "address",
          "name": "recipient",
          "type": "address"
        },
        {
          "internalType": "uint256",
          "name": "amount",
          "type": "uint256"
        }
      ],
      "name": "transfer",
      "outputs": [
        {
          "internalType": "bool",
          "name": "",
          "type": "bool"
        }
      ],
      "stateMutability": "nonpayable",
      "type": "function"
    },
    {
      "inputs": [
        {
          "internalType": "address",
          "name": "sender",
          "type": "address"
        },
        {
          "internalType": "address",
          "name": "recipient",
          "type": "address"
        },
        {
          "internalType": "uint256",
          "name": "amount",
          "type": "uint256"
        }
      ],
      "name": "transferFrom",
      "outputs": [
        {
          "internalType": "bool",
          "name": "",
          "type": "bool"
        }
      ],
      "stateMutability": "nonpayable",
      "type": "function"
    },
    {
      "inputs": [],
      "name": "cap",
      "outputs": [
        {
          "internalType": "uint256",
          "name": "",
          "type": "uint256"
        }
      ],
      "stateMutability": "pure",
      "type": "function"
    },
    {
      "inputs": [],
      "name": "closeOwnerMint",
      "outputs": [],
      "stateMutability": "nonpayable",
      "type": "function"
    },
    {
      "inputs": [
        {
          "internalType": "address",
          "name": "_newMinter",
          "type": "address"
        }
      ],
      "name": "addMinter",
      "outputs": [],
      "stateMutability": "nonpayable",
      "type": "function"
    },
    {
      "inputs": [
        {
          "internalType": "address",
          "name": "_oldMinter",
          "type": "address"
        }
      ],
      "name": "removeMinter",
      "outputs": [],
      "stateMutability": "nonpayable",
      "type": "function"
    },
    {
      "inputs": [
        {
          "internalType": "address",
          "name": "_newBurner",
          "type": "address"
        }
      ],
      "name": "addBurner",
      "outputs": [],
      "stateMutability": "nonpayable",
      "type": "function"
    },
    {
      "inputs": [
        {
          "internalType": "address",
          "name": "_oldBurner",
          "type": "address"
        }
      ],
      "name": "removeBurner",
      "outputs": [],
      "stateMutability": "nonpayable",
      "type": "function"
    },
    {
      "inputs": [
        {
          "internalType": "address",
          "name": "_newOwner",
          "type": "address"
        }
      ],
      "name": "passOwnership",
      "outputs": [],
      "stateMutability": "nonpayable",
      "type": "function"
    },
    {
      "inputs": [],
      "name": "releaseOwnership",
      "outputs": [],
      "stateMutability": "nonpayable",
      "type": "function"
    },
    {
      "inputs": [
        {
          "internalType": "address",
          "name": "_account",
          "type": "address"
        },
        {
          "internalType": "uint256",
          "name": "_amount",
          "type": "uint256"
        }
      ],
      "name": "mint",
      "outputs": [],
      "stateMutability": "nonpayable",
      "type": "function"
    },
    {
      "inputs": [
        {
          "internalType": "address",
          "name": "_account",
          "type": "address"
        },
        {
          "internalType": "uint256",
          "name": "_amount",
          "type": "uint256"
        }
      ],
      "name": "mintByOwner",
      "outputs": [],
      "stateMutability": "nonpayable",
      "type": "function"
    },
    {
      "inputs": [
        {
          "internalType": "address",
          "name": "_account",
          "type": "address"
        },
        {
          "internalType": "uint256",
          "name": "_amount",
          "type": "uint256"
        }
      ],
      "name": "burn",
      "outputs": [],
      "stateMutability": "nonpayable",
      "type": "function"
    }
  ],
  "bytecode": "0x6101406040527f6e71edae12b1b97f4d1f60370fef10105fa2faae0126114a169c64845d6126c9610120908152503480156200003a57600080fd5b506040518060400160405280600a81526020017f4465676973546f6b656e00000000000000000000000000000000000000000000815250806040518060400160405280600181526020017f31000000000000000000000000000000000000000000000000000000000000008152506040518060400160405280600a81526020017f4465676973546f6b656e000000000000000000000000000000000000000000008152506040518060400160405280600581526020017f444547495300000000000000000000000000000000000000000000000000000081525081600390805190602001906200012c92919062000264565b5080600490805190602001906200014592919062000264565b50505060008280519060200120905060008280519060200120905060007f8b73c3c69bb8fe3d512ecc4cf759cc79239f7b179b0ffacaa9a75d522b39400f90508260c081815250508160e081815250504660a08181525050620001b08184846200022860201b60201c565b6080818152505080610100818152505050505050505033600660006101000a81548173ffffffffffffffffffffffffffffffffffffffff021916908373ffffffffffffffffffffffffffffffffffffffff1602179055506001600b60006101000a81548160ff02191690831515021790555062000451565b60008383834630604051602001620002459594939291906200038f565b6040516020818303038152906040528051906020012090509392505050565b82805462000272906200041b565b90600052602060002090601f016020900481019282620002965760008555620002e2565b82601f10620002b157805160ff1916838001178555620002e2565b82800160010185558215620002e2579182015b82811115620002e1578251825591602001919060010190620002c4565b5b509050620002f19190620002f5565b5090565b5b8082111562000310576000816000905550600101620002f6565b5090565b6000819050919050565b620003298162000314565b82525050565b6000819050919050565b62000344816200032f565b82525050565b600073ffffffffffffffffffffffffffffffffffffffff82169050919050565b600062000377826200034a565b9050919050565b62000389816200036a565b82525050565b600060a082019050620003a660008301886200031e565b620003b560208301876200031e565b620003c460408301866200031e565b620003d3606083018562000339565b620003e260808301846200037e565b9695505050505050565b7f4e487b7100000000000000000000000000000000000000000000000000000000600052602260045260246000fd5b600060028204905060018216806200043457607f821691505b602082108114156200044b576200044a620003ec565b5b50919050565b60805160a05160c05160e0516101005161012051613dc2620004a160003960006118bc015260006123300152600061237201526000612351015260006122dd015260006123050152613dc26000f3fe608060405234801561001057600080fd5b50600436106101da5760003560e01c80636250ed9b11610104578063a457c2d7116100a2578063d85633ec11610071578063d85633ec14610569578063dd62ed3e14610573578063e15709e4146105a3578063f44637ba146105c1576101da565b8063a457c2d7146104bd578063a9059cbb146104ed578063abd8e23d1461051d578063d505accf1461054d576101da565b80638da5cb5b116100de5780638da5cb5b1461044957806395d89b4114610467578063983b2d56146104855780639dc29fac146104a1576101da565b80636250ed9b146103cb57806370a08231146103e95780637ecebe0014610419576101da565b80633092afd51161017c5780633644e5151161014b5780633644e51514610345578063395093511461036357806340c10f1914610393578063620996df146103af576101da565b80633092afd5146102d1578063313ce567146102ed5780633542aee21461030b578063355274ea14610327576101da565b806318160ddd116101b857806318160ddd146102495780631f673b5e1461026757806323b872dd14610271578063279ad7ab146102a1576101da565b806302846858146101df57806306fdde03146101fb578063095ea7b314610219575b600080fd5b6101f960048036038101906101f491906129f6565b6105dd565b005b6102036108fd565b6040516102109190612abc565b60405180910390f35b610233600480360381019061022e9190612b14565b61098f565b6040516102409190612b6f565b60405180910390f35b6102516109ad565b60405161025e9190612b99565b60405180910390f35b61026f6109b7565b005b61028b60048036038101906102869190612bb4565b610ad4565b6040516102989190612b6f565b60405180910390f35b6102bb60048036038101906102b69190612c07565b610bcc565b6040516102c89190612c43565b60405180910390f35b6102eb60048036038101906102e691906129f6565b610c0b565b005b6102f5610f2b565b6040516103029190612c7a565b60405180910390f35b61032560048036038101906103209190612b14565b610f34565b005b61032f611069565b60405161033c9190612b99565b60405180910390f35b61034d61107d565b60405161035a9190612cae565b60405180910390f35b61037d60048036038101906103789190612b14565b61108c565b60405161038a9190612b6f565b60405180910390f35b6103ad60048036038101906103a89190612b14565b611138565b005b6103c960048036038101906103c491906129f6565b611239565b005b6103d3611367565b6040516103e09190612b6f565b60405180910390f35b61040360048036038101906103fe91906129f6565b61137a565b6040516104109190612b99565b60405180910390f35b610433600480360381019061042e91906129f6565b6113c2565b6040516104409190612b99565b60405180910390f35b610451611412565b60405161045e9190612c43565b60405180910390f35b61046f611438565b60405161047c9190612abc565b60405180910390f35b61049f600480360381019061049a91906129f6565b6114ca565b005b6104bb60048036038101906104b69190612b14565b61168a565b005b6104d760048036038101906104d29190612b14565b61172d565b6040516104e49190612b6f565b60405180910390f35b61050760048036038101906105029190612b14565b611818565b6040516105149190612b6f565b60405180910390f35b61053760048036038101906105329190612c07565b611836565b6040516105449190612c43565b60405180910390f35b61056760048036038101906105629190612d21565b611875565b005b6105716119b7565b005b61058d60048036038101906105889190612dc3565b611ace565b60405161059a9190612b99565b60405180910390f35b6105ab611b55565b6040516105b89190612b99565b60405180910390f35b6105db60048036038101906105d691906129f6565b611b65565b005b600660009054906101000a900473ffffffffffffffffffffffffffffffffffffffff1673ffffffffffffffffffffffffffffffffffffffff163373ffffffffffffffffffffffffffffffffffffffff161461066d576040517f08c379a000000000000000000000000000000000000000000000000000000000815260040161066490612e75565b60405180910390fd5b60011515600860008373ffffffffffffffffffffffffffffffffffffffff1673ffffffffffffffffffffffffffffffffffffffff16815260200190815260200160002060009054906101000a900460ff16151514610700576040517f08c379a00000000000000000000000000000000000000000000000000000000081526004016106f790612ee1565b60405180910390fd5b6000600980549050905060005b818110156108c1578273ffffffffffffffffffffffffffffffffffffffff16600982815481106107405761073f612f01565b5b9060005260206000200160009054906101000a900473ffffffffffffffffffffffffffffffffffffffff1673ffffffffffffffffffffffffffffffffffffffff1614156108a85760008190505b60018361079a9190612f5f565b81101561085b5760096001826107b09190612f93565b815481106107c1576107c0612f01565b5b9060005260206000200160009054906101000a900473ffffffffffffffffffffffffffffffffffffffff1660098281548110610800576107ff612f01565b5b9060005260206000200160006101000a81548173ffffffffffffffffffffffffffffffffffffffff021916908373ffffffffffffffffffffffffffffffffffffffff160217905550808061085390612fe9565b91505061078d565b50600980548061086e5761086d613032565b5b6001900381819060005260206000200160006101000a81549073ffffffffffffffffffffffffffffffffffffffff021916905590556108ad565b6108ae565b5b80806108b990612fe9565b91505061070d565b507f90eabbc0c667db2a5029ed6bc0f5fe9f356d11684a4ca9fcfaec0e53f12b9c8e826040516108f19190612c43565b60405180910390a15050565b60606003805461090c90613090565b80601f016020809104026020016040519081016040528092919081815260200182805461093890613090565b80156109855780601f1061095a57610100808354040283529160200191610985565b820191906000526020600020905b81548152906001019060200180831161096857829003601f168201915b5050505050905090565b60006109a361099c611d25565b8484611d2d565b6001905092915050565b6000600254905090565b600660009054906101000a900473ffffffffffffffffffffffffffffffffffffffff1673ffffffffffffffffffffffffffffffffffffffff163373ffffffffffffffffffffffffffffffffffffffff1614610a47576040517f08c379a0000000000000000000000000000000000000000000000000000000008152600401610a3e90612e75565b60405180910390fd5b6000600b60006101000a81548160ff021916908315150217905550600660009054906101000a900473ffffffffffffffffffffffffffffffffffffffff1673ffffffffffffffffffffffffffffffffffffffff167fa8bcfb88bfde722985fab2c8216e877bc4d1c3302896c978881b39a895338f7b43604051610aca9190612b99565b60405180910390a2565b6000610ae1848484611ef8565b6000600160008673ffffffffffffffffffffffffffffffffffffffff1673ffffffffffffffffffffffffffffffffffffffff1681526020019081526020016000206000610b2c611d25565b73ffffffffffffffffffffffffffffffffffffffff1673ffffffffffffffffffffffffffffffffffffffff16815260200190815260200160002054905082811015610bac576040517f08c379a0000000000000000000000000000000000000000000000000000000008152600401610ba390613134565b60405180910390fd5b610bc085610bb8611d25565b858403611d2d565b60019150509392505050565b60078181548110610bdc57600080fd5b906000526020600020016000915054906101000a900473ffffffffffffffffffffffffffffffffffffffff1681565b600660009054906101000a900473ffffffffffffffffffffffffffffffffffffffff1673ffffffffffffffffffffffffffffffffffffffff163373ffffffffffffffffffffffffffffffffffffffff1614610c9b576040517f08c379a0000000000000000000000000000000000000000000000000000000008152600401610c9290612e75565b60405180910390fd5b60011515600860008373ffffffffffffffffffffffffffffffffffffffff1673ffffffffffffffffffffffffffffffffffffffff16815260200190815260200160002060009054906101000a900460ff16151514610d2e576040517f08c379a0000000000000000000000000000000000000000000000000000000008152600401610d25906131a0565b60405180910390fd5b6000600780549050905060005b81811015610eef578273ffffffffffffffffffffffffffffffffffffffff1660078281548110610d6e57610d6d612f01565b5b9060005260206000200160009054906101000a900473ffffffffffffffffffffffffffffffffffffffff1673ffffffffffffffffffffffffffffffffffffffff161415610ed65760008190505b600183610dc89190612f5f565b811015610e89576007600182610dde9190612f93565b81548110610def57610dee612f01565b5b9060005260206000200160009054906101000a900473ffffffffffffffffffffffffffffffffffffffff1660078281548110610e2e57610e2d612f01565b5b9060005260206000200160006101000a81548173ffffffffffffffffffffffffffffffffffffffff021916908373ffffffffffffffffffffffffffffffffffffffff1602179055508080610e8190612fe9565b915050610dbb565b506007805480610e9c57610e9b613032565b5b6001900381819060005260206000200160006101000a81549073ffffffffffffffffffffffffffffffffffffffff02191690559055610edb565b610edc565b5b8080610ee790612fe9565b915050610d3b565b507fe94479a9f7e1952cc78f2d6baab678adc1b772d936c6583def489e524cb6669282604051610f1f9190612c43565b60405180910390a15050565b60006012905090565b600660009054906101000a900473ffffffffffffffffffffffffffffffffffffffff1673ffffffffffffffffffffffffffffffffffffffff163373ffffffffffffffffffffffffffffffffffffffff1614610fc4576040517f08c379a0000000000000000000000000000000000000000000000000000000008152600401610fbb90612e75565b60405180910390fd5b80610fcd611069565b81610fd66109ad565b610fe09190612f93565b1115611021576040517f08c379a000000000000000000000000000000000000000000000000000000000815260040161101890613232565b60405180910390fd5b61102b8383612179565b7fbfa26a581be175e9b5994742c96f70b3f64fd28f242ad54aa26ac9df857566f5838360405161105c929190613252565b60405180910390a1505050565b60006b033b2e3c9fd0803ce8000000905090565b60006110876122d9565b905090565b600061112e611099611d25565b8484600160006110a7611d25565b73ffffffffffffffffffffffffffffffffffffffff1673ffffffffffffffffffffffffffffffffffffffff16815260200190815260200160002060008873ffffffffffffffffffffffffffffffffffffffff1673ffffffffffffffffffffffffffffffffffffffff168152602001908152602001600020546111299190612f93565b611d2d565b6001905092915050565b80611141611069565b8161114a6109ad565b6111549190612f93565b1115611195576040517f08c379a000000000000000000000000000000000000000000000000000000000815260040161118c90613232565b60405180910390fd5b3360011515600860008373ffffffffffffffffffffffffffffffffffffffff1673ffffffffffffffffffffffffffffffffffffffff16815260200190815260200160002060009054906101000a900460ff16151514611229576040517f08c379a0000000000000000000000000000000000000000000000000000000008152600401611220906132ed565b60405180910390fd5b6112338484612179565b50505050565b600660009054906101000a900473ffffffffffffffffffffffffffffffffffffffff1673ffffffffffffffffffffffffffffffffffffffff163373ffffffffffffffffffffffffffffffffffffffff16146112c9576040517f08c379a00000000000000000000000000000000000000000000000000000000081526004016112c090612e75565b60405180910390fd5b80600660006101000a81548173ffffffffffffffffffffffffffffffffffffffff021916908373ffffffffffffffffffffffffffffffffffffffff1602179055508073ffffffffffffffffffffffffffffffffffffffff163373ffffffffffffffffffffffffffffffffffffffff167fb532073b38c83145e3e5135377a08bf9aab55bc0fd7c1179cd4fb995d2a5159c60405160405180910390a350565b600b60009054906101000a900460ff1681565b60008060008373ffffffffffffffffffffffffffffffffffffffff1673ffffffffffffffffffffffffffffffffffffffff168152602001908152602001600020549050919050565b600061140b600560008473ffffffffffffffffffffffffffffffffffffffff1673ffffffffffffffffffffffffffffffffffffffff16815260200190815260200160002061239c565b9050919050565b600660009054906101000a900473ffffffffffffffffffffffffffffffffffffffff1681565b60606004805461144790613090565b80601f016020809104026020016040519081016040528092919081815260200182805461147390613090565b80156114c05780601f10611495576101008083540402835291602001916114c0565b820191906000526020600020905b8154815290600101906020018083116114a357829003601f168201915b5050505050905090565b600660009054906101000a900473ffffffffffffffffffffffffffffffffffffffff1673ffffffffffffffffffffffffffffffffffffffff163373ffffffffffffffffffffffffffffffffffffffff161461155a576040517f08c379a000000000000000000000000000000000000000000000000000000000815260040161155190612e75565b60405180910390fd5b60001515600860008373ffffffffffffffffffffffffffffffffffffffff1673ffffffffffffffffffffffffffffffffffffffff16815260200190815260200160002060009054906101000a900460ff161515146115ed576040517f08c379a00000000000000000000000000000000000000000000000000000000081526004016115e490613359565b60405180910390fd5b6007819080600181540180825580915050600190039060005260206000200160009091909190916101000a81548173ffffffffffffffffffffffffffffffffffffffff021916908373ffffffffffffffffffffffffffffffffffffffff1602179055507f6ae172837ea30b801fbfcdd4108aa1d5bf8ff775444fd70256b44e6bf3dfc3f68160405161167f9190612c43565b60405180910390a150565b3360011515600a60008373ffffffffffffffffffffffffffffffffffffffff1673ffffffffffffffffffffffffffffffffffffffff16815260200190815260200160002060009054906101000a900460ff1615151461171e576040517f08c379a0000000000000000000000000000000000000000000000000000000008152600401611715906132ed565b60405180910390fd5b61172883836123aa565b505050565b6000806001600061173c611d25565b73ffffffffffffffffffffffffffffffffffffffff1673ffffffffffffffffffffffffffffffffffffffff16815260200190815260200160002060008573ffffffffffffffffffffffffffffffffffffffff1673ffffffffffffffffffffffffffffffffffffffff168152602001908152602001600020549050828110156117f9576040517f08c379a00000000000000000000000000000000000000000000000000000000081526004016117f0906133eb565b60405180910390fd5b61180d611804611d25565b85858403611d2d565b600191505092915050565b600061182c611825611d25565b8484611ef8565b6001905092915050565b6009818154811061184657600080fd5b906000526020600020016000915054906101000a900473ffffffffffffffffffffffffffffffffffffffff1681565b834211156118b8576040517f08c379a00000000000000000000000000000000000000000000000000000000081526004016118af90613457565b60405180910390fd5b60007f00000000000000000000000000000000000000000000000000000000000000008888886118e78c612581565b896040516020016118fd96959493929190613477565b6040516020818303038152906040528051906020012090506000611920826125df565b90506000611930828787876125f9565b90508973ffffffffffffffffffffffffffffffffffffffff168173ffffffffffffffffffffffffffffffffffffffff16146119a0576040517f08c379a000000000000000000000000000000000000000000000000000000000815260040161199790613524565b60405180910390fd5b6119ab8a8a8a611d2d565b50505050505050505050565b600660009054906101000a900473ffffffffffffffffffffffffffffffffffffffff1673ffffffffffffffffffffffffffffffffffffffff163373ffffffffffffffffffffffffffffffffffffffff1614611a47576040517f08c379a0000000000000000000000000000000000000000000000000000000008152600401611a3e90612e75565b60405180910390fd5b6000600660006101000a81548173ffffffffffffffffffffffffffffffffffffffff021916908373ffffffffffffffffffffffffffffffffffffffff1602179055503373ffffffffffffffffffffffffffffffffffffffff167f304f6683eb447bb2735a3ff9e8cb4fc95da891f1ccdf933f2583f0222d26718260405160405180910390a2565b6000600160008473ffffffffffffffffffffffffffffffffffffffff1673ffffffffffffffffffffffffffffffffffffffff16815260200190815260200160002060008373ffffffffffffffffffffffffffffffffffffffff1673ffffffffffffffffffffffffffffffffffffffff16815260200190815260200160002054905092915050565b6b033b2e3c9fd0803ce800000081565b600660009054906101000a900473ffffffffffffffffffffffffffffffffffffffff1673ffffffffffffffffffffffffffffffffffffffff163373ffffffffffffffffffffffffffffffffffffffff1614611bf5576040517f08c379a0000000000000000000000000000000000000000000000000000000008152600401611bec90612e75565b60405180910390fd5b60001515600a60008373ffffffffffffffffffffffffffffffffffffffff1673ffffffffffffffffffffffffffffffffffffffff16815260200190815260200160002060009054906101000a900460ff16151514611c88576040517f08c379a0000000000000000000000000000000000000000000000000000000008152600401611c7f90613590565b60405180910390fd5b6009819080600181540180825580915050600190039060005260206000200160009091909190916101000a81548173ffffffffffffffffffffffffffffffffffffffff021916908373ffffffffffffffffffffffffffffffffffffffff1602179055507f86e57fd2b90329052917118de7c3f521f400d439b9650deaa906a25b08b9456081604051611d1a9190612c43565b60405180910390a150565b600033905090565b600073ffffffffffffffffffffffffffffffffffffffff168373ffffffffffffffffffffffffffffffffffffffff161415611d9d576040517f08c379a0000000000000000000000000000000000000000000000000000000008152600401611d9490613622565b60405180910390fd5b600073ffffffffffffffffffffffffffffffffffffffff168273ffffffffffffffffffffffffffffffffffffffff161415611e0d576040517f08c379a0000000000000000000000000000000000000000000000000000000008152600401611e04906136b4565b60405180910390fd5b80600160008573ffffffffffffffffffffffffffffffffffffffff1673ffffffffffffffffffffffffffffffffffffffff16815260200190815260200160002060008473ffffffffffffffffffffffffffffffffffffffff1673ffffffffffffffffffffffffffffffffffffffff168152602001908152602001600020819055508173ffffffffffffffffffffffffffffffffffffffff168373ffffffffffffffffffffffffffffffffffffffff167f8c5be1e5ebec7d5bd14f71427d1e84f3dd0314c0f7b2291e5b200ac8c7c3b92583604051611eeb9190612b99565b60405180910390a3505050565b600073ffffffffffffffffffffffffffffffffffffffff168373ffffffffffffffffffffffffffffffffffffffff161415611f68576040517f08c379a0000000000000000000000000000000000000000000000000000000008152600401611f5f90613746565b60405180910390fd5b600073ffffffffffffffffffffffffffffffffffffffff168273ffffffffffffffffffffffffffffffffffffffff161415611fd8576040517f08c379a0000000000000000000000000000000000000000000000000000000008152600401611fcf906137d8565b60405180910390fd5b611fe3838383612624565b60008060008573ffffffffffffffffffffffffffffffffffffffff1673ffffffffffffffffffffffffffffffffffffffff16815260200190815260200160002054905081811015612069576040517f08c379a00000000000000000000000000000000000000000000000000000000081526004016120609061386a565b60405180910390fd5b8181036000808673ffffffffffffffffffffffffffffffffffffffff1673ffffffffffffffffffffffffffffffffffffffff16815260200190815260200160002081905550816000808573ffffffffffffffffffffffffffffffffffffffff1673ffffffffffffffffffffffffffffffffffffffff16815260200190815260200160002060008282546120fc9190612f93565b925050819055508273ffffffffffffffffffffffffffffffffffffffff168473ffffffffffffffffffffffffffffffffffffffff167fddf252ad1be2c89b69c2b068fc378daa952ba7f163c4a11628f55a4df523b3ef846040516121609190612b99565b60405180910390a3612173848484612629565b50505050565b600073ffffffffffffffffffffffffffffffffffffffff168273ffffffffffffffffffffffffffffffffffffffff1614156121e9576040517f08c379a00000000000000000000000000000000000000000000000000000000081526004016121e0906138d6565b60405180910390fd5b6121f560008383612624565b80600260008282546122079190612f93565b92505081905550806000808473ffffffffffffffffffffffffffffffffffffffff1673ffffffffffffffffffffffffffffffffffffffff168152602001908152602001600020600082825461225c9190612f93565b925050819055508173ffffffffffffffffffffffffffffffffffffffff16600073ffffffffffffffffffffffffffffffffffffffff167fddf252ad1be2c89b69c2b068fc378daa952ba7f163c4a11628f55a4df523b3ef836040516122c19190612b99565b60405180910390a36122d560008383612629565b5050565b60007f000000000000000000000000000000000000000000000000000000000000000046141561232b577f00000000000000000000000000000000000000000000000000000000000000009050612399565b6123967f00000000000000000000000000000000000000000000000000000000000000007f00000000000000000000000000000000000000000000000000000000000000007f000000000000000000000000000000000000000000000000000000000000000061262e565b90505b90565b600081600001549050919050565b600073ffffffffffffffffffffffffffffffffffffffff168273ffffffffffffffffffffffffffffffffffffffff16141561241a576040517f08c379a000000000000000000000000000000000000000000000000000000000815260040161241190613968565b60405180910390fd5b61242682600083612624565b60008060008473ffffffffffffffffffffffffffffffffffffffff1673ffffffffffffffffffffffffffffffffffffffff168152602001908152602001600020549050818110156124ac576040517f08c379a00000000000000000000000000000000000000000000000000000000081526004016124a3906139fa565b60405180910390fd5b8181036000808573ffffffffffffffffffffffffffffffffffffffff1673ffffffffffffffffffffffffffffffffffffffff1681526020019081526020016000208190555081600260008282546125039190612f5f565b92505081905550600073ffffffffffffffffffffffffffffffffffffffff168373ffffffffffffffffffffffffffffffffffffffff167fddf252ad1be2c89b69c2b068fc378daa952ba7f163c4a11628f55a4df523b3ef846040516125689190612b99565b60405180910390a361257c83600084612629565b505050565b600080600560008473ffffffffffffffffffffffffffffffffffffffff1673ffffffffffffffffffffffffffffffffffffffff16815260200190815260200160002090506125ce8161239c565b91506125d981612668565b50919050565b60006125f26125ec6122d9565b8361267e565b9050919050565b600080600061260a878787876126b1565b91509150612617816127be565b8192505050949350505050565b505050565b505050565b60008383834630604051602001612649959493929190613a1a565b6040516020818303038152906040528051906020012090509392505050565b6001816000016000828254019250508190555050565b60008282604051602001612693929190613ae5565b60405160208183030381529060405280519060200120905092915050565b6000807f7fffffffffffffffffffffffffffffff5d576e7357a4501ddfe92f46681b20a08360001c11156126ec5760006003915091506127b5565b601b8560ff16141580156127045750601c8560ff1614155b156127165760006004915091506127b5565b60006001878787876040516000815260200160405260405161273b9493929190613b1c565b6020604051602081039080840390855afa15801561275d573d6000803e3d6000fd5b505050602060405103519050600073ffffffffffffffffffffffffffffffffffffffff168173ffffffffffffffffffffffffffffffffffffffff1614156127ac576000600192509250506127b5565b80600092509250505b94509492505050565b600060048111156127d2576127d1613b61565b5b8160048111156127e5576127e4613b61565b5b14156127f057612990565b6001600481111561280457612803613b61565b5b81600481111561281757612816613b61565b5b1415612858576040517f08c379a000000000000000000000000000000000000000000000000000000000815260040161284f90613bdc565b60405180910390fd5b6002600481111561286c5761286b613b61565b5b81600481111561287f5761287e613b61565b5b14156128c0576040517f08c379a00000000000000000000000000000000000000000000000000000000081526004016128b790613c48565b60405180910390fd5b600360048111156128d4576128d3613b61565b5b8160048111156128e7576128e6613b61565b5b1415612928576040517f08c379a000000000000000000000000000000000000000000000000000000000815260040161291f90613cda565b60405180910390fd5b60048081111561293b5761293a613b61565b5b81600481111561294e5761294d613b61565b5b141561298f576040517f08c379a000000000000000000000000000000000000000000000000000000000815260040161298690613d6c565b60405180910390fd5b5b50565b600080fd5b600073ffffffffffffffffffffffffffffffffffffffff82169050919050565b60006129c382612998565b9050919050565b6129d3816129b8565b81146129de57600080fd5b50565b6000813590506129f0816129ca565b92915050565b600060208284031215612a0c57612a0b612993565b5b6000612a1a848285016129e1565b91505092915050565b600081519050919050565b600082825260208201905092915050565b60005b83811015612a5d578082015181840152602081019050612a42565b83811115612a6c576000848401525b50505050565b6000601f19601f8301169050919050565b6000612a8e82612a23565b612a988185612a2e565b9350612aa8818560208601612a3f565b612ab181612a72565b840191505092915050565b60006020820190508181036000830152612ad68184612a83565b905092915050565b6000819050919050565b612af181612ade565b8114612afc57600080fd5b50565b600081359050612b0e81612ae8565b92915050565b60008060408385031215612b2b57612b2a612993565b5b6000612b39858286016129e1565b9250506020612b4a85828601612aff565b9150509250929050565b60008115159050919050565b612b6981612b54565b82525050565b6000602082019050612b846000830184612b60565b92915050565b612b9381612ade565b82525050565b6000602082019050612bae6000830184612b8a565b92915050565b600080600060608486031215612bcd57612bcc612993565b5b6000612bdb868287016129e1565b9350506020612bec868287016129e1565b9250506040612bfd86828701612aff565b9150509250925092565b600060208284031215612c1d57612c1c612993565b5b6000612c2b84828501612aff565b91505092915050565b612c3d816129b8565b82525050565b6000602082019050612c586000830184612c34565b92915050565b600060ff82169050919050565b612c7481612c5e565b82525050565b6000602082019050612c8f6000830184612c6b565b92915050565b6000819050919050565b612ca881612c95565b82525050565b6000602082019050612cc36000830184612c9f565b92915050565b612cd281612c5e565b8114612cdd57600080fd5b50565b600081359050612cef81612cc9565b92915050565b612cfe81612c95565b8114612d0957600080fd5b50565b600081359050612d1b81612cf5565b92915050565b600080600080600080600060e0888a031215612d4057612d3f612993565b5b6000612d4e8a828b016129e1565b9750506020612d5f8a828b016129e1565b9650506040612d708a828b01612aff565b9550506060612d818a828b01612aff565b9450506080612d928a828b01612ce0565b93505060a0612da38a828b01612d0c565b92505060c0612db48a828b01612d0c565b91505092959891949750929550565b60008060408385031215612dda57612dd9612993565b5b6000612de8858286016129e1565b9250506020612df9858286016129e1565b9150509250929050565b7f4f6e6c7920746865206f776e65722063616e2063616c6c20746869732066756e60008201527f6369746f6e000000000000000000000000000000000000000000000000000000602082015250565b6000612e5f602583612a2e565b9150612e6a82612e03565b604082019050919050565b60006020820190508181036000830152612e8e81612e52565b9050919050565b7f546869732061646472657373206973206e6f742061206275726e657200000000600082015250565b6000612ecb601c83612a2e565b9150612ed682612e95565b602082019050919050565b60006020820190508181036000830152612efa81612ebe565b9050919050565b7f4e487b7100000000000000000000000000000000000000000000000000000000600052603260045260246000fd5b7f4e487b7100000000000000000000000000000000000000000000000000000000600052601160045260246000fd5b6000612f6a82612ade565b9150612f7583612ade565b925082821015612f8857612f87612f30565b5b828203905092915050565b6000612f9e82612ade565b9150612fa983612ade565b9250827fffffffffffffffffffffffffffffffffffffffffffffffffffffffffffffffff03821115612fde57612fdd612f30565b5b828201905092915050565b6000612ff482612ade565b91507fffffffffffffffffffffffffffffffffffffffffffffffffffffffffffffffff82141561302757613026612f30565b5b600182019050919050565b7f4e487b7100000000000000000000000000000000000000000000000000000000600052603160045260246000fd5b7f4e487b7100000000000000000000000000000000000000000000000000000000600052602260045260246000fd5b600060028204905060018216806130a857607f821691505b602082108114156130bc576130bb613061565b5b50919050565b7f45524332303a207472616e7366657220616d6f756e742065786365656473206160008201527f6c6c6f77616e6365000000000000000000000000000000000000000000000000602082015250565b600061311e602883612a2e565b9150613129826130c2565b604082019050919050565b6000602082019050818103600083015261314d81613111565b9050919050565b7f546869732061646472657373206973206e6f742061206d696e74657200000000600082015250565b600061318a601c83612a2e565b915061319582613154565b602082019050919050565b600060208201905081810360008301526131b98161317d565b9050919050565b7f4465676973546f6b656e2065786365656473207468652063617020283130302060008201527f6d696c6c696f6e29000000000000000000000000000000000000000000000000602082015250565b600061321c602883612a2e565b9150613227826131c0565b604082019050919050565b6000602082019050818103600083015261324b8161320f565b9050919050565b60006040820190506132676000830185612c34565b6132746020830184612b8a565b9392505050565b7f4f6e6c7920746865206164647265737320696e20746865206d696e746572206c60008201527f6973742063616e2063616c6c20746869732066756e6374696f6e000000000000602082015250565b60006132d7603a83612a2e565b91506132e28261327b565b604082019050919050565b60006020820190508181036000830152613306816132ca565b9050919050565b7f54686973206164647265737320697320616c72656164792061206d696e746572600082015250565b6000613343602083612a2e565b915061334e8261330d565b602082019050919050565b6000602082019050818103600083015261337281613336565b9050919050565b7f45524332303a2064656372656173656420616c6c6f77616e63652062656c6f7760008201527f207a65726f000000000000000000000000000000000000000000000000000000602082015250565b60006133d5602583612a2e565b91506133e082613379565b604082019050919050565b60006020820190508181036000830152613404816133c8565b9050919050565b7f45524332305065726d69743a206578706972656420646561646c696e65000000600082015250565b6000613441601d83612a2e565b915061344c8261340b565b602082019050919050565b6000602082019050818103600083015261347081613434565b9050919050565b600060c08201905061348c6000830189612c9f565b6134996020830188612c34565b6134a66040830187612c34565b6134b36060830186612b8a565b6134c06080830185612b8a565b6134cd60a0830184612b8a565b979650505050505050565b7f45524332305065726d69743a20696e76616c6964207369676e61747572650000600082015250565b600061350e601e83612a2e565b9150613519826134d8565b602082019050919050565b6000602082019050818103600083015261353d81613501565b9050919050565b7f54686973206164647265737320697320616c72656164792061206275726e6572600082015250565b600061357a602083612a2e565b915061358582613544565b602082019050919050565b600060208201905081810360008301526135a98161356d565b9050919050565b7f45524332303a20617070726f76652066726f6d20746865207a65726f2061646460008201527f7265737300000000000000000000000000000000000000000000000000000000602082015250565b600061360c602483612a2e565b9150613617826135b0565b604082019050919050565b6000602082019050818103600083015261363b816135ff565b9050919050565b7f45524332303a20617070726f766520746f20746865207a65726f20616464726560008201527f7373000000000000000000000000000000000000000000000000000000000000602082015250565b600061369e602283612a2e565b91506136a982613642565b604082019050919050565b600060208201905081810360008301526136cd81613691565b9050919050565b7f45524332303a207472616e736665722066726f6d20746865207a65726f20616460008201527f6472657373000000000000000000000000000000000000000000000000000000602082015250565b6000613730602583612a2e565b915061373b826136d4565b604082019050919050565b6000602082019050818103600083015261375f81613723565b9050919050565b7f45524332303a207472616e7366657220746f20746865207a65726f206164647260008201527f6573730000000000000000000000000000000000000000000000000000000000602082015250565b60006137c2602383612a2e565b91506137cd82613766565b604082019050919050565b600060208201905081810360008301526137f1816137b5565b9050919050565b7f45524332303a207472616e7366657220616d6f756e742065786365656473206260008201527f616c616e63650000000000000000000000000000000000000000000000000000602082015250565b6000613854602683612a2e565b915061385f826137f8565b604082019050919050565b6000602082019050818103600083015261388381613847565b9050919050565b7f45524332303a206d696e7420746f20746865207a65726f206164647265737300600082015250565b60006138c0601f83612a2e565b91506138cb8261388a565b602082019050919050565b600060208201905081810360008301526138ef816138b3565b9050919050565b7f45524332303a206275726e2066726f6d20746865207a65726f2061646472657360008201527f7300000000000000000000000000000000000000000000000000000000000000602082015250565b6000613952602183612a2e565b915061395d826138f6565b604082019050919050565b6000602082019050818103600083015261398181613945565b9050919050565b7f45524332303a206275726e20616d6f756e7420657863656564732062616c616e60008201527f6365000000000000000000000000000000000000000000000000000000000000602082015250565b60006139e4602283612a2e565b91506139ef82613988565b604082019050919050565b60006020820190508181036000830152613a13816139d7565b9050919050565b600060a082019050613a2f6000830188612c9f565b613a3c6020830187612c9f565b613a496040830186612c9f565b613a566060830185612b8a565b613a636080830184612c34565b9695505050505050565b600081905092915050565b7f1901000000000000000000000000000000000000000000000000000000000000600082015250565b6000613aae600283613a6d565b9150613ab982613a78565b600282019050919050565b6000819050919050565b613adf613ada82612c95565b613ac4565b82525050565b6000613af082613aa1565b9150613afc8285613ace565b602082019150613b0c8284613ace565b6020820191508190509392505050565b6000608082019050613b316000830187612c9f565b613b3e6020830186612c6b565b613b4b6040830185612c9f565b613b586060830184612c9f565b95945050505050565b7f4e487b7100000000000000000000000000000000000000000000000000000000600052602160045260246000fd5b7f45434453413a20696e76616c6964207369676e61747572650000000000000000600082015250565b6000613bc6601883612a2e565b9150613bd182613b90565b602082019050919050565b60006020820190508181036000830152613bf581613bb9565b9050919050565b7f45434453413a20696e76616c6964207369676e6174757265206c656e67746800600082015250565b6000613c32601f83612a2e565b9150613c3d82613bfc565b602082019050919050565b60006020820190508181036000830152613c6181613c25565b9050919050565b7f45434453413a20696e76616c6964207369676e6174757265202773272076616c60008201527f7565000000000000000000000000000000000000000000000000000000000000602082015250565b6000613cc4602283612a2e565b9150613ccf82613c68565b604082019050919050565b60006020820190508181036000830152613cf381613cb7565b9050919050565b7f45434453413a20696e76616c6964207369676e6174757265202776272076616c60008201527f7565000000000000000000000000000000000000000000000000000000000000602082015250565b6000613d56602283612a2e565b9150613d6182613cfa565b604082019050919050565b60006020820190508181036000830152613d8581613d49565b905091905056fea2646970667358221220cdf4acf4d9684e04c1c769a963ec170d7e42c4a6e18527dd1ac6477c09ea570564736f6c63430008090033",
  "immutableReferences": {
    "3040": [
      {
        "length": 32,
        "start": 6332
      }
    ],
    "5756": [
      {
        "length": 32,
        "start": 8965
      }
    ],
    "5758": [
      {
        "length": 32,
        "start": 8925
      }
    ],
    "5760": [
      {
        "length": 32,
        "start": 9041
      }
    ],
    "5762": [
      {
        "length": 32,
        "start": 9074
      }
    ],
    "5764": [
      {
        "length": 32,
        "start": 9008
      }
    ]
  },
  "source": "// SPDX-License-Identifier: MIT\npragma solidity 0.8.9;\n\nimport \"@openzeppelin/contracts/token/ERC20/extensions/draft-ERC20Permit.sol\";\nimport \"./interfaces/IDegisToken.sol\";\n\n/**@title  Degis Token\n * @notice DegisToken inherits from ERC20Votes which contains the ERC20 Permit.\n *         DegisToken can use the permit function rather than approve + transferFrom.\n *\n *         DegisToken has an owner, a minter and a burner.\n *         When lauched on mainnet, the owner may be removed or tranferred to a multisig.\n *         By default, the owner & minter account will be the one that deploys the contract.\n *         The minter may(and should) later be passed to InsurancePool.\n *         The burner may(and should) later be passed to EmergencyPool.\n */\ncontract DegisToken is ERC20Permit, IDegisToken {\n    address public owner;\n\n    address[] public minterList;\n    mapping(address => bool) isMinter;\n\n    address[] public burnerList;\n    mapping(address => bool) isBurner;\n\n    uint256 public constant DEGIS_CAP = 10e8 ether;\n\n    bool public ownerMintEnabled; // Whether enable the owner to mint\n\n    /**\n     * @notice Use ERC20 + ERC20Permit constructor and set the owner, minter and burner\n     */\n    constructor() ERC20(\"DegisToken\", \"DEGIS\") ERC20Permit(\"DegisToken\") {\n        owner = msg.sender;\n        // At the beginning, owner can mint tokens to the lock degis contract\n        ownerMintEnabled = true;\n    }\n\n    // Only the owner can call some functions\n    modifier onlyOwner() {\n        require(msg.sender == owner, \"Only the owner can call this funciton\");\n        _;\n    }\n\n    // Degis toke has a hard cap of 100 million\n    modifier notExceedCap(uint256 _amount) {\n        require(\n            totalSupply() + _amount <= cap(),\n            \"DegisToken exceeds the cap (100 million)\"\n        );\n        _;\n    }\n\n    // Check if the msg.sender is in the minter list\n    modifier inMinterList(address _sender) {\n        require(\n            isMinter[_sender] == true,\n            \"Only the address in the minter list can call this function\"\n        );\n        _;\n    }\n\n    // Check if the msg.sender is in the burner list\n    modifier inBurnerList(address _sender) {\n        require(\n            isBurner[_sender] == true,\n            \"Only the address in the minter list can call this function\"\n        );\n        _;\n    }\n\n    /**\n     * @dev Returns the cap on the token's total supply.\n     */\n    function cap() public pure returns (uint256) {\n        return DEGIS_CAP;\n    }\n\n    /**\n     * @notice Owner will not be able to mint tokens, used when investor tokens are minted\n     */\n    function closeOwnerMint() public onlyOwner {\n        ownerMintEnabled = false;\n        emit CloseOwnerMint(owner, block.number);\n    }\n\n    /**\n     * @notice Add a new minter into the list\n     * @param _newMinter Address of the new minter\n     */\n    function addMinter(address _newMinter) public onlyOwner {\n        require(\n            isMinter[_newMinter] == false,\n            \"This address is already a minter\"\n        );\n        minterList.push(_newMinter);\n\n        emit MinterAdded(_newMinter);\n    }\n\n    /**\n     * @notice Remove a minter from the list\n     * @param _oldMinter Address of the minter to be removed\n     */\n    function removeMinter(address _oldMinter) public onlyOwner {\n        require(isMinter[_oldMinter] == true, \"This address is not a minter\");\n\n        uint256 length = minterList.length;\n        for (uint256 i = 0; i < length; i++) {\n            if (minterList[i] == _oldMinter) {\n                for (uint256 j = i; j < length - 1; j++) {\n                    minterList[j] = minterList[j + 1];\n                }\n                minterList.pop();\n            } else continue;\n        }\n\n        emit MinterRemoved(_oldMinter);\n    }\n\n    /**\n     * @notice Add a new burner into the list\n     * @param _newBurner Address of the new burner\n     */\n    function addBurner(address _newBurner) public onlyOwner {\n        require(\n            isBurner[_newBurner] == false,\n            \"This address is already a burner\"\n        );\n        burnerList.push(_newBurner);\n\n        emit BurnerAdded(_newBurner);\n    }\n\n    /**\n     * @notice Remove a minter from the list\n     * @param _oldBurner Address of the minter to be removed\n     */\n    function removeBurner(address _oldBurner) public onlyOwner {\n        require(isMinter[_oldBurner] == true, \"This address is not a burner\");\n\n        uint256 length = burnerList.length;\n        for (uint256 i = 0; i < length; i++) {\n            if (burnerList[i] == _oldBurner) {\n                for (uint256 j = i; j < length - 1; j++) {\n                    burnerList[j] = burnerList[j + 1];\n                }\n                burnerList.pop();\n            } else continue;\n        }\n\n        emit BurnerRemoved(_oldBurner);\n    }\n\n    /**\n     * @notice Pass the owner role to a new address, only the owner can change the owner\n     * @param _newOwner New owner's address\n     */\n    function passOwnership(address _newOwner) public onlyOwner {\n        owner = _newOwner;\n        emit OwnerChanged(msg.sender, _newOwner);\n    }\n\n    /**\n     * @notice Release the ownership to zero address, can never get back !\n     */\n    function releaseOwnership() public onlyOwner {\n        owner = address(0);\n        emit ReleaseOwnership(msg.sender);\n    }\n\n    /**\n     * @notice Mint tokens\n     * @param _account Receiver's address\n     * @param _amount Amount to be minted\n     */\n    function mint(address _account, uint256 _amount)\n        public\n        notExceedCap(_amount)\n        inMinterList(msg.sender)\n    {\n        _mint(_account, _amount); // ERC20 method with an event\n    }\n\n    /**\n     * @notice Mint tokens by the owner\n     * @param _account Receiver's address (Should be the lockDegis contract)\n     * @param _amount Amount to be minted\n     */\n    function mintByOwner(address _account, uint256 _amount)\n        public\n        onlyOwner\n        notExceedCap(_amount)\n    {\n        _mint(_account, _amount);\n\n        emit MintByOwner(_account, _amount);\n    }\n\n    /**\n     * @notice Burn tokens\n     * @param _account address\n     * @param _amount amount to be burned\n     */\n    function burn(address _account, uint256 _amount)\n        public\n        inBurnerList(msg.sender)\n    {\n        _burn(_account, _amount);\n    }\n}\n",
  "sourcePath": "/Volumes/Store/src/Degis-Contracts-1/contracts/DegisToken.sol",
  "compiler": {
    "name": "solc",
    "version": "0.8.9+commit.e5eed63a.Emscripten.clang"
  },
  "schemaVersion": "3.4.3",
  "updatedAt": "2021-11-24T15:28:52.427Z",
  "networkType": "ethereum",
  "devdoc": {
    "kind": "dev",
    "methods": {
      "DOMAIN_SEPARATOR()": {
        "details": "See {IERC20Permit-DOMAIN_SEPARATOR}."
      },
      "addBurner(address)": {
        "params": {
          "_newBurner": "Address of the new burner"
        }
      },
      "addMinter(address)": {
        "params": {
          "_newMinter": "Address of the new minter"
        }
      },
      "allowance(address,address)": {
        "details": "See {IERC20-allowance}."
      },
      "approve(address,uint256)": {
        "details": "See {IERC20-approve}. Requirements: - `spender` cannot be the zero address."
      },
      "balanceOf(address)": {
        "details": "See {IERC20-balanceOf}."
      },
      "burn(address,uint256)": {
        "params": {
          "_account": "address",
          "_amount": "amount to be burned"
        }
      },
      "cap()": {
        "details": "Returns the cap on the token's total supply."
      },
      "decimals()": {
        "details": "Returns the number of decimals used to get its user representation. For example, if `decimals` equals `2`, a balance of `505` tokens should be displayed to a user as `5.05` (`505 / 10 ** 2`). Tokens usually opt for a value of 18, imitating the relationship between Ether and Wei. This is the value {ERC20} uses, unless this function is overridden; NOTE: This information is only used for _display_ purposes: it in no way affects any of the arithmetic of the contract, including {IERC20-balanceOf} and {IERC20-transfer}."
      },
      "decreaseAllowance(address,uint256)": {
        "details": "Atomically decreases the allowance granted to `spender` by the caller. This is an alternative to {approve} that can be used as a mitigation for problems described in {IERC20-approve}. Emits an {Approval} event indicating the updated allowance. Requirements: - `spender` cannot be the zero address. - `spender` must have allowance for the caller of at least `subtractedValue`."
      },
      "increaseAllowance(address,uint256)": {
        "details": "Atomically increases the allowance granted to `spender` by the caller. This is an alternative to {approve} that can be used as a mitigation for problems described in {IERC20-approve}. Emits an {Approval} event indicating the updated allowance. Requirements: - `spender` cannot be the zero address."
      },
      "mint(address,uint256)": {
        "params": {
          "_account": "Receiver's address",
          "_amount": "Amount to be minted"
        }
      },
      "mintByOwner(address,uint256)": {
        "params": {
          "_account": "Receiver's address (Should be the lockDegis contract)",
          "_amount": "Amount to be minted"
        }
      },
      "name()": {
        "details": "Returns the name of the token."
      },
      "nonces(address)": {
        "details": "See {IERC20Permit-nonces}."
      },
      "passOwnership(address)": {
        "params": {
          "_newOwner": "New owner's address"
        }
      },
      "permit(address,address,uint256,uint256,uint8,bytes32,bytes32)": {
        "details": "See {IERC20Permit-permit}."
      },
      "removeBurner(address)": {
        "params": {
          "_oldBurner": "Address of the minter to be removed"
        }
      },
      "removeMinter(address)": {
        "params": {
          "_oldMinter": "Address of the minter to be removed"
        }
      },
      "symbol()": {
        "details": "Returns the symbol of the token, usually a shorter version of the name."
      },
      "totalSupply()": {
        "details": "See {IERC20-totalSupply}."
      },
      "transfer(address,uint256)": {
        "details": "See {IERC20-transfer}. Requirements: - `recipient` cannot be the zero address. - the caller must have a balance of at least `amount`."
      },
      "transferFrom(address,address,uint256)": {
        "details": "See {IERC20-transferFrom}. Emits an {Approval} event indicating the updated allowance. This is not required by the EIP. See the note at the beginning of {ERC20}. Requirements: - `sender` and `recipient` cannot be the zero address. - `sender` must have a balance of at least `amount`. - the caller must have allowance for ``sender``'s tokens of at least `amount`."
      }
    },
    "title": "Degis Token",
    "version": 1
  },
  "userdoc": {
    "kind": "user",
    "methods": {
      "addBurner(address)": {
        "notice": "Add a new burner into the list"
      },
      "addMinter(address)": {
        "notice": "Add a new minter into the list"
      },
      "burn(address,uint256)": {
        "notice": "Burn tokens"
      },
      "closeOwnerMint()": {
        "notice": "Owner will not be able to mint tokens, used when investor tokens are minted"
      },
      "constructor": {
        "notice": "Use ERC20 + ERC20Permit constructor and set the owner, minter and burner"
      },
      "mint(address,uint256)": {
        "notice": "Mint tokens"
      },
      "mintByOwner(address,uint256)": {
        "notice": "Mint tokens by the owner"
      },
      "passOwnership(address)": {
        "notice": "Pass the owner role to a new address, only the owner can change the owner"
      },
      "releaseOwnership()": {
        "notice": "Release the ownership to zero address, can never get back !"
      },
      "removeBurner(address)": {
        "notice": "Remove a minter from the list"
      },
      "removeMinter(address)": {
        "notice": "Remove a minter from the list"
      }
    },
    "notice": "DegisToken inherits from ERC20Votes which contains the ERC20 Permit.         DegisToken can use the permit function rather than approve + transferFrom.         DegisToken has an owner, a minter and a burner.         When lauched on mainnet, the owner may be removed or tranferred to a multisig.         By default, the owner & minter account will be the one that deploys the contract.         The minter may(and should) later be passed to InsurancePool.         The burner may(and should) later be passed to EmergencyPool.",
    "version": 1
  }
}