{
  "contractName": "EmergencyPool",
  "abi": [
    {
      "inputs": [
        {
          "internalType": "address",
          "name": "_usdcAddress",
          "type": "address"
        }
      ],
      "stateMutability": "nonpayable",
      "type": "constructor"
    },
    {
      "anonymous": false,
      "inputs": [
        {
          "indexed": true,
          "internalType": "address",
          "name": "userAddress",
          "type": "address"
        },
        {
          "indexed": false,
          "internalType": "uint256",
          "name": "amount",
          "type": "uint256"
        }
      ],
      "name": "Deposit",
      "type": "event"
    },
    {
      "anonymous": false,
      "inputs": [
        {
          "indexed": false,
          "internalType": "address",
          "name": "_newOwner",
          "type": "address"
        }
      ],
      "name": "OwnershipTransferred",
      "type": "event"
    },
    {
      "anonymous": false,
      "inputs": [
        {
          "indexed": true,
          "internalType": "address",
          "name": "userAddress",
          "type": "address"
        },
        {
          "indexed": false,
          "internalType": "uint256",
          "name": "amount",
          "type": "uint256"
        }
      ],
      "name": "Withdraw",
      "type": "event"
    },
    {
      "inputs": [],
      "name": "USDC_TOKEN",
      "outputs": [
        {
          "internalType": "contract IERC20",
          "name": "",
          "type": "address"
        }
      ],
      "stateMutability": "view",
      "type": "function",
      "constant": true
    },
    {
      "inputs": [],
      "name": "name",
      "outputs": [
        {
          "internalType": "string",
          "name": "",
          "type": "string"
        }
      ],
      "stateMutability": "view",
      "type": "function",
      "constant": true
    },
    {
      "inputs": [],
      "name": "owner",
      "outputs": [
        {
          "internalType": "address",
          "name": "",
          "type": "address"
        }
      ],
      "stateMutability": "view",
      "type": "function",
      "constant": true
    },
    {
      "inputs": [
        {
          "internalType": "address",
          "name": "_newOwner",
          "type": "address"
        }
      ],
      "name": "transferOwnerShip",
      "outputs": [],
      "stateMutability": "nonpayable",
      "type": "function"
    },
    {
      "inputs": [
        {
          "internalType": "address",
          "name": "_userAddress",
          "type": "address"
        },
        {
          "internalType": "uint256",
          "name": "_amount",
          "type": "uint256"
        }
      ],
      "name": "deposit",
      "outputs": [],
      "stateMutability": "nonpayable",
      "type": "function"
    },
    {
      "inputs": [
        {
          "internalType": "address",
          "name": "_userAddress",
          "type": "address"
        },
        {
          "internalType": "uint256",
          "name": "_amount",
          "type": "uint256"
        }
      ],
      "name": "emergencyWithdraw",
      "outputs": [],
      "stateMutability": "nonpayable",
      "type": "function"
    }
  ],
  "bytecode": "0x60806040526040518060400160405280601481526020017f446567697320456d657267656e637920506f6f6c00000000000000000000000081525060019080519060200190620000519291906200010d565b503480156200005f57600080fd5b506040516200140a3803806200140a833981810160405281019062000085919062000227565b80600260006101000a81548173ffffffffffffffffffffffffffffffffffffffff021916908373ffffffffffffffffffffffffffffffffffffffff160217905550336000806101000a81548173ffffffffffffffffffffffffffffffffffffffff021916908373ffffffffffffffffffffffffffffffffffffffff16021790555050620002be565b8280546200011b9062000288565b90600052602060002090601f0160209004810192826200013f57600085556200018b565b82601f106200015a57805160ff19168380011785556200018b565b828001600101855582156200018b579182015b828111156200018a5782518255916020019190600101906200016d565b5b5090506200019a91906200019e565b5090565b5b80821115620001b95760008160009055506001016200019f565b5090565b600080fd5b600073ffffffffffffffffffffffffffffffffffffffff82169050919050565b6000620001ef82620001c2565b9050919050565b6200020181620001e2565b81146200020d57600080fd5b50565b6000815190506200022181620001f6565b92915050565b60006020828403121562000240576200023f620001bd565b5b6000620002508482850162000210565b91505092915050565b7f4e487b7100000000000000000000000000000000000000000000000000000000600052602260045260246000fd5b60006002820490506001821680620002a157607f821691505b60208210811415620002b857620002b762000259565b5b50919050565b61113c80620002ce6000396000f3fe608060405234801561001057600080fd5b50600436106100625760003560e01c806306fdde031461006757806347e7ef24146100855780638863dd1a146100a15780638da5cb5b146100bd57806395ccea67146100db578063fa569274146100f7575b600080fd5b61006f610115565b60405161007c9190610a2a565b60405180910390f35b61009f600480360381019061009a9190610ae5565b6101a3565b005b6100bb60048036038101906100b69190610b25565b610242565b005b6100c561034a565b6040516100d29190610b61565b60405180910390f35b6100f560048036038101906100f09190610ae5565b61036e565b005b6100ff61054b565b60405161010c9190610bdb565b60405180910390f35b6001805461012290610c25565b80601f016020809104026020016040519081016040528092919081815260200182805461014e90610c25565b801561019b5780601f106101705761010080835404028352916020019161019b565b820191906000526020600020905b81548152906001019060200180831161017e57829003601f168201915b505050505081565b600081116101e6576040517f08c379a00000000000000000000000000000000000000000000000000000000081526004016101dd90610ca3565b60405180910390fd5b6101f08282610571565b8173ffffffffffffffffffffffffffffffffffffffff167fe1fffcc4923d04b559f4d29a8bfc6cda04eb5b0d3c460751c2402c5c5cc9109c826040516102369190610cd2565b60405180910390a25050565b60008054906101000a900473ffffffffffffffffffffffffffffffffffffffff1673ffffffffffffffffffffffffffffffffffffffff163373ffffffffffffffffffffffffffffffffffffffff16146102d0576040517f08c379a00000000000000000000000000000000000000000000000000000000081526004016102c790610d5f565b60405180910390fd5b806000806101000a81548173ffffffffffffffffffffffffffffffffffffffff021916908373ffffffffffffffffffffffffffffffffffffffff1602179055507f04dba622d284ed0014ee4b9a6a68386be1a4c08a4913ae272de89199cc6861638160405161033f9190610b61565b60405180910390a150565b60008054906101000a900473ffffffffffffffffffffffffffffffffffffffff1681565b60008054906101000a900473ffffffffffffffffffffffffffffffffffffffff1673ffffffffffffffffffffffffffffffffffffffff163373ffffffffffffffffffffffffffffffffffffffff16146103fc576040517f08c379a00000000000000000000000000000000000000000000000000000000081526004016103f390610d5f565b60405180910390fd5b6000600260009054906101000a900473ffffffffffffffffffffffffffffffffffffffff1673ffffffffffffffffffffffffffffffffffffffff166370a08231306040518263ffffffff1660e01b81526004016104599190610b61565b60206040518083038186803b15801561047157600080fd5b505afa158015610485573d6000803e3d6000fd5b505050506040513d601f19601f820116820180604052508101906104a99190610d94565b9050808211156104ee576040517f08c379a00000000000000000000000000000000000000000000000000000000081526004016104e590610e33565b60405180910390fd5b6104f883836105c4565b8273ffffffffffffffffffffffffffffffffffffffff167f884edad9ce6fa2440d8a54cc123490eb96d2768479d49ff9c7366125a94243648360405161053e9190610cd2565b60405180910390a2505050565b600260009054906101000a900473ffffffffffffffffffffffffffffffffffffffff1681565b6105c0823083600260009054906101000a900473ffffffffffffffffffffffffffffffffffffffff1673ffffffffffffffffffffffffffffffffffffffff16610615909392919063ffffffff16565b5050565b6106118282600260009054906101000a900473ffffffffffffffffffffffffffffffffffffffff1673ffffffffffffffffffffffffffffffffffffffff1661069e9092919063ffffffff16565b5050565b610698846323b872dd60e01b85858560405160240161063693929190610e53565b604051602081830303815290604052907bffffffffffffffffffffffffffffffffffffffffffffffffffffffff19166020820180517bffffffffffffffffffffffffffffffffffffffffffffffffffffffff8381831617835250505050610724565b50505050565b61071f8363a9059cbb60e01b84846040516024016106bd929190610e8a565b604051602081830303815290604052907bffffffffffffffffffffffffffffffffffffffffffffffffffffffff19166020820180517bffffffffffffffffffffffffffffffffffffffffffffffffffffffff8381831617835250505050610724565b505050565b6000610786826040518060400160405280602081526020017f5361666545524332303a206c6f772d6c6576656c2063616c6c206661696c65648152508573ffffffffffffffffffffffffffffffffffffffff166107eb9092919063ffffffff16565b90506000815111156107e657808060200190518101906107a69190610eeb565b6107e5576040517f08c379a00000000000000000000000000000000000000000000000000000000081526004016107dc90610f8a565b60405180910390fd5b5b505050565b60606107fa8484600085610803565b90509392505050565b606082471015610848576040517f08c379a000000000000000000000000000000000000000000000000000000000815260040161083f9061101c565b60405180910390fd5b61085185610917565b610890576040517f08c379a000000000000000000000000000000000000000000000000000000000815260040161088790611088565b60405180910390fd5b6000808673ffffffffffffffffffffffffffffffffffffffff1685876040516108b991906110ef565b60006040518083038185875af1925050503d80600081146108f6576040519150601f19603f3d011682016040523d82523d6000602084013e6108fb565b606091505b509150915061090b82828661092a565b92505050949350505050565b600080823b905060008111915050919050565b6060831561093a5782905061098a565b60008351111561094d5782518084602001fd5b816040517f08c379a00000000000000000000000000000000000000000000000000000000081526004016109819190610a2a565b60405180910390fd5b9392505050565b600081519050919050565b600082825260208201905092915050565b60005b838110156109cb5780820151818401526020810190506109b0565b838111156109da576000848401525b50505050565b6000601f19601f8301169050919050565b60006109fc82610991565b610a06818561099c565b9350610a168185602086016109ad565b610a1f816109e0565b840191505092915050565b60006020820190508181036000830152610a4481846109f1565b905092915050565b600080fd5b600073ffffffffffffffffffffffffffffffffffffffff82169050919050565b6000610a7c82610a51565b9050919050565b610a8c81610a71565b8114610a9757600080fd5b50565b600081359050610aa981610a83565b92915050565b6000819050919050565b610ac281610aaf565b8114610acd57600080fd5b50565b600081359050610adf81610ab9565b92915050565b60008060408385031215610afc57610afb610a4c565b5b6000610b0a85828601610a9a565b9250506020610b1b85828601610ad0565b9150509250929050565b600060208284031215610b3b57610b3a610a4c565b5b6000610b4984828501610a9a565b91505092915050565b610b5b81610a71565b82525050565b6000602082019050610b766000830184610b52565b92915050565b6000819050919050565b6000610ba1610b9c610b9784610a51565b610b7c565b610a51565b9050919050565b6000610bb382610b86565b9050919050565b6000610bc582610ba8565b9050919050565b610bd581610bba565b82525050565b6000602082019050610bf06000830184610bcc565b92915050565b7f4e487b7100000000000000000000000000000000000000000000000000000000600052602260045260246000fd5b60006002820490506001821680610c3d57607f821691505b60208210811415610c5157610c50610bf6565b5b50919050565b7f506c65617365206465706f73697420736f6d652066756e647300000000000000600082015250565b6000610c8d60198361099c565b9150610c9882610c57565b602082019050919050565b60006020820190508181036000830152610cbc81610c80565b9050919050565b610ccc81610aaf565b82525050565b6000602082019050610ce76000830184610cc3565b92915050565b7f4f6e6c7920746865206f776e65722063616e2063616c6c20746869732066756e60008201527f6374696f6e000000000000000000000000000000000000000000000000000000602082015250565b6000610d4960258361099c565b9150610d5482610ced565b604082019050919050565b60006020820190508181036000830152610d7881610d3c565b9050919050565b600081519050610d8e81610ab9565b92915050565b600060208284031215610daa57610da9610a4c565b5b6000610db884828501610d7f565b91505092915050565b7f6e6f7420656e6f7567682062616c616e636520746f20626520756e6c6f636b6560008201527f6400000000000000000000000000000000000000000000000000000000000000602082015250565b6000610e1d60218361099c565b9150610e2882610dc1565b604082019050919050565b60006020820190508181036000830152610e4c81610e10565b9050919050565b6000606082019050610e686000830186610b52565b610e756020830185610b52565b610e826040830184610cc3565b949350505050565b6000604082019050610e9f6000830185610b52565b610eac6020830184610cc3565b9392505050565b60008115159050919050565b610ec881610eb3565b8114610ed357600080fd5b50565b600081519050610ee581610ebf565b92915050565b600060208284031215610f0157610f00610a4c565b5b6000610f0f84828501610ed6565b91505092915050565b7f5361666545524332303a204552433230206f7065726174696f6e20646964206e60008201527f6f74207375636365656400000000000000000000000000000000000000000000602082015250565b6000610f74602a8361099c565b9150610f7f82610f18565b604082019050919050565b60006020820190508181036000830152610fa381610f67565b9050919050565b7f416464726573733a20696e73756666696369656e742062616c616e636520666f60008201527f722063616c6c0000000000000000000000000000000000000000000000000000602082015250565b600061100660268361099c565b915061101182610faa565b604082019050919050565b6000602082019050818103600083015261103581610ff9565b9050919050565b7f416464726573733a2063616c6c20746f206e6f6e2d636f6e7472616374000000600082015250565b6000611072601d8361099c565b915061107d8261103c565b602082019050919050565b600060208201905081810360008301526110a181611065565b9050919050565b600081519050919050565b600081905092915050565b60006110c9826110a8565b6110d381856110b3565b93506110e38185602086016109ad565b80840191505092915050565b60006110fb82846110be565b91508190509291505056fea2646970667358221220efedf81ce3964e502cc6eb4764d6483b85d377a3cba09cf208563bf43625421164736f6c63430008090033",
  "immutableReferences": {},
  "source": "// SPDX-License-Identifier: MIT\npragma solidity 0.8.9;\n\nimport \"@openzeppelin/contracts/token/ERC20/utils/SafeERC20.sol\";\nimport \"./interfaces/IEmergencyPool.sol\";\n\n/**\n * @title  Emergency Pool\n * @notice Emergency pool in degis will keep a reserve vault for emergency usage.\n *         The asset comes from part of the product's income (currently 10%).\n *         Users can also stake funds into this contract manually.\n *         The owner has the right to withdraw funds from emergency pool and it would be passed to community governance.\n */\ncontract EmergencyPool is IEmergencyPool {\n    address public owner;\n\n    using SafeERC20 for IERC20;\n\n    string public name = \"Degis Emergency Pool\";\n\n    // This is the address of USDC (maybe usd-anything).\n    IERC20 public USDC_TOKEN;\n\n    event OwnershipTransferred(address _newOwner);\n\n    constructor(address _usdcAddress) {\n        USDC_TOKEN = IERC20(_usdcAddress);\n        owner = msg.sender;\n    }\n\n    /**\n     * @notice Only the owner can call some functions\n     */\n    modifier onlyOwner() {\n        require(msg.sender == owner, \"Only the owner can call this function\");\n        _;\n    }\n\n    /**\n     * @notice Transfer the ownership to a new owner\n     * @param _newOwner New owner address\n     */\n    function transferOwnerShip(address _newOwner) external onlyOwner {\n        owner = _newOwner;\n        emit OwnershipTransferred(_newOwner);\n    }\n\n    /**\n     * @notice Manually stake into the pool\n     * @param _userAddress User's address\n     * @param _amount The amount that the user want to stake\n     */\n    function deposit(address _userAddress, uint256 _amount) external {\n        require(_amount > 0, \"Please deposit some funds\");\n\n        _deposit(_userAddress, _amount);\n        emit Deposit(_userAddress, _amount);\n    }\n\n    /**\n     * @notice Withdraw the asset when emergency (only by the owner)\n     * @dev The ownership need to be transferred to another contract in the future\n     * @param _userAddress User's address\n     * @param _amount The amount that the user want to unstake\n     */\n    function emergencyWithdraw(address _userAddress, uint256 _amount)\n        external\n        onlyOwner\n    {\n        uint256 balance = IERC20(USDC_TOKEN).balanceOf(address(this));\n        require(_amount <= balance, \"not enough balance to be unlocked\");\n\n        _withdraw(_userAddress, _amount);\n        emit Withdraw(_userAddress, _amount);\n    }\n\n    /**\n     * @notice Finish the deposit process\n     * @param _userAddress Address of the user who deposits\n     * @param _amount The amount he deposits\n     */\n    function _deposit(address _userAddress, uint256 _amount) internal {\n        USDC_TOKEN.safeTransferFrom(_userAddress, address(this), _amount);\n    }\n\n    /**\n     * @notice Finish the withdraw action, only when meeting the conditions\n     * @param _userAddress Address of the user who withdraws\n     * @param _amount The amount he withdraws\n     */\n    function _withdraw(address _userAddress, uint256 _amount) internal {\n        USDC_TOKEN.safeTransfer(_userAddress, _amount);\n    }\n}\n",
  "sourcePath": "/Volumes/Store/src/Degis-Contracts-1/contracts/EmergencyPool.sol",
  "compiler": {
    "name": "solc",
    "version": "0.8.9+commit.e5eed63a.Emscripten.clang"
  },
  "schemaVersion": "3.4.3",
  "updatedAt": "2021-11-24T15:28:52.563Z",
  "networkType": "ethereum",
  "devdoc": {
    "kind": "dev",
    "methods": {
      "deposit(address,uint256)": {
        "params": {
          "_amount": "The amount that the user want to stake",
          "_userAddress": "User's address"
        }
      },
      "emergencyWithdraw(address,uint256)": {
        "details": "The ownership need to be transferred to another contract in the future",
        "params": {
          "_amount": "The amount that the user want to unstake",
          "_userAddress": "User's address"
        }
      },
      "transferOwnerShip(address)": {
        "params": {
          "_newOwner": "New owner address"
        }
      }
    },
    "title": "Emergency Pool",
    "version": 1
  },
  "userdoc": {
    "kind": "user",
    "methods": {
      "deposit(address,uint256)": {
        "notice": "Manually stake into the pool"
      },
      "emergencyWithdraw(address,uint256)": {
        "notice": "Withdraw the asset when emergency (only by the owner)"
      },
      "transferOwnerShip(address)": {
        "notice": "Transfer the ownership to a new owner"
      }
    },
    "notice": "Emergency pool in degis will keep a reserve vault for emergency usage.         The asset comes from part of the product's income (currently 10%).         Users can also stake funds into this contract manually.         The owner has the right to withdraw funds from emergency pool and it would be passed to community governance.",
    "version": 1
  }
}