{
  "contractName": "EmergencyPool",
  "abi": [
    {
      "inputs": [],
      "stateMutability": "nonpayable",
      "type": "constructor"
    },
    {
      "anonymous": false,
      "inputs": [
        {
          "indexed": false,
          "internalType": "address",
          "name": "usdAddress",
          "type": "address"
        },
        {
          "indexed": true,
          "internalType": "address",
          "name": "userAddress",
          "type": "address"
        },
        {
          "indexed": false,
          "internalType": "uint256",
          "name": "amount",
          "type": "uint256"
        }
      ],
      "name": "Deposit",
      "type": "event"
    },
    {
      "anonymous": false,
      "inputs": [
        {
          "indexed": false,
          "internalType": "address",
          "name": "_newOwner",
          "type": "address"
        }
      ],
      "name": "OwnershipTransferred",
      "type": "event"
    },
    {
      "anonymous": false,
      "inputs": [
        {
          "indexed": false,
          "internalType": "address",
          "name": "usdAddress",
          "type": "address"
        },
        {
          "indexed": true,
          "internalType": "address",
          "name": "userAddress",
          "type": "address"
        },
        {
          "indexed": false,
          "internalType": "uint256",
          "name": "amount",
          "type": "uint256"
        }
      ],
      "name": "Withdraw",
      "type": "event"
    },
    {
      "inputs": [],
      "name": "name",
      "outputs": [
        {
          "internalType": "string",
          "name": "",
          "type": "string"
        }
      ],
      "stateMutability": "view",
      "type": "function",
      "constant": true
    },
    {
      "inputs": [],
      "name": "owner",
      "outputs": [
        {
          "internalType": "address",
          "name": "",
          "type": "address"
        }
      ],
      "stateMutability": "view",
      "type": "function",
      "constant": true
    },
    {
      "inputs": [
        {
          "internalType": "address",
          "name": "_newOwner",
          "type": "address"
        }
      ],
      "name": "transferOwnerShip",
      "outputs": [],
      "stateMutability": "nonpayable",
      "type": "function"
    },
    {
      "inputs": [
        {
          "internalType": "address",
          "name": "_usdAddress",
          "type": "address"
        },
        {
          "internalType": "address",
          "name": "_userAddress",
          "type": "address"
        },
        {
          "internalType": "uint256",
          "name": "_amount",
          "type": "uint256"
        }
      ],
      "name": "deposit",
      "outputs": [],
      "stateMutability": "nonpayable",
      "type": "function"
    },
    {
      "inputs": [
        {
          "internalType": "address",
          "name": "_usdAddress",
          "type": "address"
        },
        {
          "internalType": "address",
          "name": "_userAddress",
          "type": "address"
        },
        {
          "internalType": "uint256",
          "name": "_amount",
          "type": "uint256"
        }
      ],
      "name": "emergencyWithdraw",
      "outputs": [],
      "stateMutability": "nonpayable",
      "type": "function"
    }
  ],
  "bytecode": "0x60806040526040518060400160405280601481526020017f446567697320456d657267656e637920506f6f6c0000000000000000000000008152506001908051906020019062000051929190620000a6565b503480156200005f57600080fd5b50336000806101000a81548173ffffffffffffffffffffffffffffffffffffffff021916908373ffffffffffffffffffffffffffffffffffffffff160217905550620001bb565b828054620000b49062000185565b90600052602060002090601f016020900481019282620000d8576000855562000124565b82601f10620000f357805160ff191683800117855562000124565b8280016001018555821562000124579182015b828111156200012357825182559160200191906001019062000106565b5b50905062000133919062000137565b5090565b5b808211156200015257600081600090555060010162000138565b5090565b7f4e487b7100000000000000000000000000000000000000000000000000000000600052602260045260246000fd5b600060028204905060018216806200019e57607f821691505b60208210811415620001b557620001b462000156565b5b50919050565b610fef80620001cb6000396000f3fe608060405234801561001057600080fd5b50600436106100575760003560e01c806306fdde031461005c5780638340f5491461007a5780638863dd1a146100965780638da5cb5b146100b2578063e63ea408146100d0575b600080fd5b6100646100ec565b604051610071919061095f565b60405180910390f35b610094600480360381019061008f9190610a1a565b61017a565b005b6100b060048036038101906100ab9190610a6d565b61023f565b005b6100ba610347565b6040516100c79190610aa9565b60405180910390f35b6100ea60048036038101906100e59190610a1a565b61036b565b005b600180546100f990610af3565b80601f016020809104026020016040519081016040528092919081815260200182805461012590610af3565b80156101725780601f1061014757610100808354040283529160200191610172565b820191906000526020600020905b81548152906001019060200180831161015557829003601f168201915b505050505081565b600081116101bd576040517f08c379a00000000000000000000000000000000000000000000000000000000081526004016101b490610b71565b60405180910390fd5b6101ea8230838673ffffffffffffffffffffffffffffffffffffffff1661054a909392919063ffffffff16565b8173ffffffffffffffffffffffffffffffffffffffff167f5548c837ab068cf56a2c2479df0882a4922fd203edb7517321831d95078c5f628483604051610232929190610ba0565b60405180910390a2505050565b60008054906101000a900473ffffffffffffffffffffffffffffffffffffffff1673ffffffffffffffffffffffffffffffffffffffff163373ffffffffffffffffffffffffffffffffffffffff16146102cd576040517f08c379a00000000000000000000000000000000000000000000000000000000081526004016102c490610c3b565b60405180910390fd5b806000806101000a81548173ffffffffffffffffffffffffffffffffffffffff021916908373ffffffffffffffffffffffffffffffffffffffff1602179055507f04dba622d284ed0014ee4b9a6a68386be1a4c08a4913ae272de89199cc6861638160405161033c9190610aa9565b60405180910390a150565b60008054906101000a900473ffffffffffffffffffffffffffffffffffffffff1681565b60008054906101000a900473ffffffffffffffffffffffffffffffffffffffff1673ffffffffffffffffffffffffffffffffffffffff163373ffffffffffffffffffffffffffffffffffffffff16146103f9576040517f08c379a00000000000000000000000000000000000000000000000000000000081526004016103f090610c3b565b60405180910390fd5b60008373ffffffffffffffffffffffffffffffffffffffff166370a08231306040518263ffffffff1660e01b81526004016104349190610aa9565b60206040518083038186803b15801561044c57600080fd5b505afa158015610460573d6000803e3d6000fd5b505050506040513d601f19601f820116820180604052508101906104849190610c70565b9050808211156104c9576040517f08c379a00000000000000000000000000000000000000000000000000000000081526004016104c090610d0f565b60405180910390fd5b6104f483838673ffffffffffffffffffffffffffffffffffffffff166105d39092919063ffffffff16565b8273ffffffffffffffffffffffffffffffffffffffff167f9b1bfa7fa9ee420a16e124f794c35ac9f90472acc99140eb2f6447c714cad8eb858460405161053c929190610ba0565b60405180910390a250505050565b6105cd846323b872dd60e01b85858560405160240161056b93929190610d2f565b604051602081830303815290604052907bffffffffffffffffffffffffffffffffffffffffffffffffffffffff19166020820180517bffffffffffffffffffffffffffffffffffffffffffffffffffffffff8381831617835250505050610659565b50505050565b6106548363a9059cbb60e01b84846040516024016105f2929190610ba0565b604051602081830303815290604052907bffffffffffffffffffffffffffffffffffffffffffffffffffffffff19166020820180517bffffffffffffffffffffffffffffffffffffffffffffffffffffffff8381831617835250505050610659565b505050565b60006106bb826040518060400160405280602081526020017f5361666545524332303a206c6f772d6c6576656c2063616c6c206661696c65648152508573ffffffffffffffffffffffffffffffffffffffff166107209092919063ffffffff16565b905060008151111561071b57808060200190518101906106db9190610d9e565b61071a576040517f08c379a000000000000000000000000000000000000000000000000000000000815260040161071190610e3d565b60405180910390fd5b5b505050565b606061072f8484600085610738565b90509392505050565b60608247101561077d576040517f08c379a000000000000000000000000000000000000000000000000000000000815260040161077490610ecf565b60405180910390fd5b6107868561084c565b6107c5576040517f08c379a00000000000000000000000000000000000000000000000000000000081526004016107bc90610f3b565b60405180910390fd5b6000808673ffffffffffffffffffffffffffffffffffffffff1685876040516107ee9190610fa2565b60006040518083038185875af1925050503d806000811461082b576040519150601f19603f3d011682016040523d82523d6000602084013e610830565b606091505b509150915061084082828661085f565b92505050949350505050565b600080823b905060008111915050919050565b6060831561086f578290506108bf565b6000835111156108825782518084602001fd5b816040517f08c379a00000000000000000000000000000000000000000000000000000000081526004016108b6919061095f565b60405180910390fd5b9392505050565b600081519050919050565b600082825260208201905092915050565b60005b838110156109005780820151818401526020810190506108e5565b8381111561090f576000848401525b50505050565b6000601f19601f8301169050919050565b6000610931826108c6565b61093b81856108d1565b935061094b8185602086016108e2565b61095481610915565b840191505092915050565b600060208201905081810360008301526109798184610926565b905092915050565b600080fd5b600073ffffffffffffffffffffffffffffffffffffffff82169050919050565b60006109b182610986565b9050919050565b6109c1816109a6565b81146109cc57600080fd5b50565b6000813590506109de816109b8565b92915050565b6000819050919050565b6109f7816109e4565b8114610a0257600080fd5b50565b600081359050610a14816109ee565b92915050565b600080600060608486031215610a3357610a32610981565b5b6000610a41868287016109cf565b9350506020610a52868287016109cf565b9250506040610a6386828701610a05565b9150509250925092565b600060208284031215610a8357610a82610981565b5b6000610a91848285016109cf565b91505092915050565b610aa3816109a6565b82525050565b6000602082019050610abe6000830184610a9a565b92915050565b7f4e487b7100000000000000000000000000000000000000000000000000000000600052602260045260246000fd5b60006002820490506001821680610b0b57607f821691505b60208210811415610b1f57610b1e610ac4565b5b50919050565b7f506c65617365206465706f73697420736f6d652066756e647300000000000000600082015250565b6000610b5b6019836108d1565b9150610b6682610b25565b602082019050919050565b60006020820190508181036000830152610b8a81610b4e565b9050919050565b610b9a816109e4565b82525050565b6000604082019050610bb56000830185610a9a565b610bc26020830184610b91565b9392505050565b7f4f6e6c7920746865206f776e65722063616e2063616c6c20746869732066756e60008201527f6374696f6e000000000000000000000000000000000000000000000000000000602082015250565b6000610c256025836108d1565b9150610c3082610bc9565b604082019050919050565b60006020820190508181036000830152610c5481610c18565b9050919050565b600081519050610c6a816109ee565b92915050565b600060208284031215610c8657610c85610981565b5b6000610c9484828501610c5b565b91505092915050565b7f6e6f7420656e6f7567682062616c616e636520746f20626520756e6c6f636b6560008201527f6400000000000000000000000000000000000000000000000000000000000000602082015250565b6000610cf96021836108d1565b9150610d0482610c9d565b604082019050919050565b60006020820190508181036000830152610d2881610cec565b9050919050565b6000606082019050610d446000830186610a9a565b610d516020830185610a9a565b610d5e6040830184610b91565b949350505050565b60008115159050919050565b610d7b81610d66565b8114610d8657600080fd5b50565b600081519050610d9881610d72565b92915050565b600060208284031215610db457610db3610981565b5b6000610dc284828501610d89565b91505092915050565b7f5361666545524332303a204552433230206f7065726174696f6e20646964206e60008201527f6f74207375636365656400000000000000000000000000000000000000000000602082015250565b6000610e27602a836108d1565b9150610e3282610dcb565b604082019050919050565b60006020820190508181036000830152610e5681610e1a565b9050919050565b7f416464726573733a20696e73756666696369656e742062616c616e636520666f60008201527f722063616c6c0000000000000000000000000000000000000000000000000000602082015250565b6000610eb96026836108d1565b9150610ec482610e5d565b604082019050919050565b60006020820190508181036000830152610ee881610eac565b9050919050565b7f416464726573733a2063616c6c20746f206e6f6e2d636f6e7472616374000000600082015250565b6000610f25601d836108d1565b9150610f3082610eef565b602082019050919050565b60006020820190508181036000830152610f5481610f18565b9050919050565b600081519050919050565b600081905092915050565b6000610f7c82610f5b565b610f868185610f66565b9350610f968185602086016108e2565b80840191505092915050565b6000610fae8284610f71565b91508190509291505056fea2646970667358221220eb0e0b524237f1562ae2643cf3c43d3ec93b5ab1cf96ea2397c657e3cb36793064736f6c63430008090033",
  "immutableReferences": {},
  "source": "// SPDX-License-Identifier: MIT\npragma solidity 0.8.9;\n\nimport \"@openzeppelin/contracts/token/ERC20/utils/SafeERC20.sol\";\nimport \"./interfaces/IEmergencyPool.sol\";\n\n/**\n * @title  Emergency Pool\n * @notice Emergency pool in degis will keep a reserve vault for emergency usage.\n *         The asset comes from part of the product's income (currently 10%).\n *         Users can also stake funds into this contract manually.\n *         The owner has the right to withdraw funds from emergency pool and it would be passed to community governance.\n */\ncontract EmergencyPool is IEmergencyPool {\n    address public owner;\n\n    using SafeERC20 for IERC20;\n\n    string public name = \"Degis Emergency Pool\";\n\n    constructor() {\n        owner = msg.sender;\n    }\n\n    /**\n     * @notice Only the owner can call some functions\n     */\n    modifier onlyOwner() {\n        require(msg.sender == owner, \"Only the owner can call this function\");\n        _;\n    }\n\n    /**\n     * @notice Transfer the ownership to a new owner\n     * @param _newOwner New owner address\n     */\n    function transferOwnerShip(address _newOwner) external onlyOwner {\n        owner = _newOwner;\n        emit OwnershipTransferred(_newOwner);\n    }\n\n    /**\n     * @notice Manually stake into the pool\n     * @param _userAddress User's address\n     * @param _amount The amount that the user want to stake\n     */\n    function deposit(\n        address _usdAddress,\n        address _userAddress,\n        uint256 _amount\n    ) external {\n        require(_amount > 0, \"Please deposit some funds\");\n\n        IERC20(_usdAddress).safeTransferFrom(\n            _userAddress,\n            address(this),\n            _amount\n        );\n\n        emit Deposit(_usdAddress, _userAddress, _amount);\n    }\n\n    /**\n     * @notice Withdraw the asset when emergency (only by the owner)\n     * @dev The ownership need to be transferred to another contract in the future\n     * @param _userAddress User's address\n     * @param _amount The amount that the user want to unstake\n     */\n    function emergencyWithdraw(\n        address _usdAddress,\n        address _userAddress,\n        uint256 _amount\n    ) external onlyOwner {\n        uint256 balance = IERC20(_usdAddress).balanceOf(address(this));\n        require(_amount <= balance, \"not enough balance to be unlocked\");\n\n        IERC20(_usdAddress).safeTransfer(_userAddress, _amount);\n        emit Withdraw(_usdAddress, _userAddress, _amount);\n    }\n}\n",
  "sourcePath": "/Volumes/Store/src/Degis-Contracts-1/contracts/EmergencyPool.sol",
  "compiler": {
    "name": "solc",
    "version": "0.8.9+commit.e5eed63a.Emscripten.clang"
  },
  "schemaVersion": "3.4.3",
  "updatedAt": "2021-12-05T14:41:39.712Z",
  "networkType": "ethereum",
  "devdoc": {
    "kind": "dev",
    "methods": {
      "deposit(address,address,uint256)": {
        "params": {
          "_amount": "The amount that the user want to stake",
          "_userAddress": "User's address"
        }
      },
      "emergencyWithdraw(address,address,uint256)": {
        "details": "The ownership need to be transferred to another contract in the future",
        "params": {
          "_amount": "The amount that the user want to unstake",
          "_userAddress": "User's address"
        }
      },
      "transferOwnerShip(address)": {
        "params": {
          "_newOwner": "New owner address"
        }
      }
    },
    "title": "Emergency Pool",
    "version": 1
  },
  "userdoc": {
    "kind": "user",
    "methods": {
      "deposit(address,address,uint256)": {
        "notice": "Manually stake into the pool"
      },
      "emergencyWithdraw(address,address,uint256)": {
        "notice": "Withdraw the asset when emergency (only by the owner)"
      },
      "transferOwnerShip(address)": {
        "notice": "Transfer the ownership to a new owner"
      }
    },
    "notice": "Emergency pool in degis will keep a reserve vault for emergency usage.         The asset comes from part of the product's income (currently 10%).         Users can also stake funds into this contract manually.         The owner has the right to withdraw funds from emergency pool and it would be passed to community governance.",
    "version": 1
  }
}