{
  "contractName": "FarmingPool",
  "abi": [
    {
      "inputs": [
        {
          "internalType": "address",
          "name": "_degis",
          "type": "address"
        }
      ],
      "stateMutability": "nonpayable",
      "type": "constructor"
    },
    {
      "inputs": [
        {
          "internalType": "address",
          "name": "_lpToken",
          "type": "address"
        }
      ],
      "name": "AlreadyInPool",
      "type": "error"
    },
    {
      "anonymous": false,
      "inputs": [
        {
          "indexed": false,
          "internalType": "address",
          "name": "_staker",
          "type": "address"
        },
        {
          "indexed": false,
          "internalType": "address",
          "name": "_rewardReceiver",
          "type": "address"
        },
        {
          "indexed": false,
          "internalType": "uint256",
          "name": "_poolId",
          "type": "uint256"
        },
        {
          "indexed": false,
          "internalType": "uint256",
          "name": "_pendingReward",
          "type": "uint256"
        }
      ],
      "name": "Harvest",
      "type": "event"
    },
    {
      "anonymous": false,
      "inputs": [
        {
          "indexed": false,
          "internalType": "address",
          "name": "_lpToken",
          "type": "address"
        }
      ],
      "name": "NewPoolAdded",
      "type": "event"
    },
    {
      "anonymous": false,
      "inputs": [
        {
          "indexed": false,
          "internalType": "uint256",
          "name": "_poolId",
          "type": "uint256"
        },
        {
          "indexed": false,
          "internalType": "uint256",
          "name": "_blockNumber",
          "type": "uint256"
        }
      ],
      "name": "RestartFarmingPool",
      "type": "event"
    },
    {
      "anonymous": false,
      "inputs": [
        {
          "indexed": false,
          "internalType": "address",
          "name": "_staker",
          "type": "address"
        },
        {
          "indexed": false,
          "internalType": "uint256",
          "name": "_poolId",
          "type": "uint256"
        },
        {
          "indexed": false,
          "internalType": "uint256",
          "name": "_amount",
          "type": "uint256"
        }
      ],
      "name": "Stake",
      "type": "event"
    },
    {
      "anonymous": false,
      "inputs": [
        {
          "indexed": false,
          "internalType": "uint256",
          "name": "_poolId",
          "type": "uint256"
        },
        {
          "indexed": false,
          "internalType": "uint256",
          "name": "_blockNumber",
          "type": "uint256"
        }
      ],
      "name": "StopFarmingPool",
      "type": "event"
    },
    {
      "anonymous": false,
      "inputs": [
        {
          "indexed": false,
          "internalType": "address",
          "name": "_staker",
          "type": "address"
        },
        {
          "indexed": false,
          "internalType": "uint256",
          "name": "_poolId",
          "type": "uint256"
        },
        {
          "indexed": false,
          "internalType": "uint256",
          "name": "_amount",
          "type": "uint256"
        }
      ],
      "name": "Withdraw",
      "type": "event"
    },
    {
      "inputs": [],
      "name": "_nextPoolId",
      "outputs": [
        {
          "internalType": "uint256",
          "name": "",
          "type": "uint256"
        }
      ],
      "stateMutability": "view",
      "type": "function",
      "constant": true
    },
    {
      "inputs": [],
      "name": "degis",
      "outputs": [
        {
          "internalType": "contract IDegisToken",
          "name": "",
          "type": "address"
        }
      ],
      "stateMutability": "view",
      "type": "function",
      "constant": true
    },
    {
      "inputs": [
        {
          "internalType": "uint256",
          "name": "",
          "type": "uint256"
        }
      ],
      "name": "isFarming",
      "outputs": [
        {
          "internalType": "bool",
          "name": "",
          "type": "bool"
        }
      ],
      "stateMutability": "view",
      "type": "function",
      "constant": true
    },
    {
      "inputs": [],
      "name": "owner",
      "outputs": [
        {
          "internalType": "address",
          "name": "",
          "type": "address"
        }
      ],
      "stateMutability": "view",
      "type": "function",
      "constant": true
    },
    {
      "inputs": [
        {
          "internalType": "uint256",
          "name": "",
          "type": "uint256"
        }
      ],
      "name": "poolList",
      "outputs": [
        {
          "internalType": "address",
          "name": "lpToken",
          "type": "address"
        },
        {
          "internalType": "uint256",
          "name": "degisPerBlock",
          "type": "uint256"
        },
        {
          "internalType": "uint256",
          "name": "lastRewardBlock",
          "type": "uint256"
        },
        {
          "internalType": "uint256",
          "name": "accDegisPerShare",
          "type": "uint256"
        }
      ],
      "stateMutability": "view",
      "type": "function",
      "constant": true
    },
    {
      "inputs": [
        {
          "internalType": "address",
          "name": "",
          "type": "address"
        }
      ],
      "name": "poolMapping",
      "outputs": [
        {
          "internalType": "uint256",
          "name": "",
          "type": "uint256"
        }
      ],
      "stateMutability": "view",
      "type": "function",
      "constant": true
    },
    {
      "inputs": [],
      "name": "startBlock",
      "outputs": [
        {
          "internalType": "uint256",
          "name": "",
          "type": "uint256"
        }
      ],
      "stateMutability": "view",
      "type": "function",
      "constant": true
    },
    {
      "inputs": [
        {
          "internalType": "uint256",
          "name": "",
          "type": "uint256"
        },
        {
          "internalType": "address",
          "name": "",
          "type": "address"
        }
      ],
      "name": "userInfo",
      "outputs": [
        {
          "internalType": "uint256",
          "name": "rewardDebt",
          "type": "uint256"
        },
        {
          "internalType": "uint256",
          "name": "stakingBalance",
          "type": "uint256"
        }
      ],
      "stateMutability": "view",
      "type": "function",
      "constant": true
    },
    {
      "inputs": [
        {
          "internalType": "uint256",
          "name": "_poolId",
          "type": "uint256"
        },
        {
          "internalType": "address",
          "name": "_userAddress",
          "type": "address"
        }
      ],
      "name": "pendingDegis",
      "outputs": [
        {
          "internalType": "uint256",
          "name": "",
          "type": "uint256"
        }
      ],
      "stateMutability": "view",
      "type": "function",
      "constant": true
    },
    {
      "inputs": [],
      "name": "getPoolList",
      "outputs": [
        {
          "components": [
            {
              "internalType": "address",
              "name": "lpToken",
              "type": "address"
            },
            {
              "internalType": "uint256",
              "name": "degisPerBlock",
              "type": "uint256"
            },
            {
              "internalType": "uint256",
              "name": "lastRewardBlock",
              "type": "uint256"
            },
            {
              "internalType": "uint256",
              "name": "accDegisPerShare",
              "type": "uint256"
            }
          ],
          "internalType": "struct FarmingPool.PoolInfo[]",
          "name": "",
          "type": "tuple[]"
        }
      ],
      "stateMutability": "view",
      "type": "function",
      "constant": true
    },
    {
      "inputs": [
        {
          "internalType": "uint256",
          "name": "_poolId",
          "type": "uint256"
        },
        {
          "internalType": "address",
          "name": "_userAddress",
          "type": "address"
        }
      ],
      "name": "getUserBalance",
      "outputs": [
        {
          "internalType": "uint256",
          "name": "_balance",
          "type": "uint256"
        }
      ],
      "stateMutability": "view",
      "type": "function",
      "constant": true
    },
    {
      "inputs": [
        {
          "internalType": "uint256",
          "name": "_startBlock",
          "type": "uint256"
        }
      ],
      "name": "setStartBlock",
      "outputs": [],
      "stateMutability": "nonpayable",
      "type": "function"
    },
    {
      "inputs": [
        {
          "internalType": "address",
          "name": "_lpToken",
          "type": "address"
        },
        {
          "internalType": "uint256",
          "name": "_degisPerBlock",
          "type": "uint256"
        },
        {
          "internalType": "bool",
          "name": "_withUpdate",
          "type": "bool"
        }
      ],
      "name": "add",
      "outputs": [],
      "stateMutability": "nonpayable",
      "type": "function"
    },
    {
      "inputs": [
        {
          "internalType": "uint256",
          "name": "_poolId",
          "type": "uint256"
        },
        {
          "internalType": "uint256",
          "name": "_degisPerBlock",
          "type": "uint256"
        },
        {
          "internalType": "bool",
          "name": "_withUpdate",
          "type": "bool"
        }
      ],
      "name": "setDegisReward",
      "outputs": [],
      "stateMutability": "nonpayable",
      "type": "function"
    },
    {
      "inputs": [
        {
          "internalType": "uint256",
          "name": "_poolId",
          "type": "uint256"
        },
        {
          "internalType": "uint256",
          "name": "_amount",
          "type": "uint256"
        }
      ],
      "name": "stake",
      "outputs": [],
      "stateMutability": "nonpayable",
      "type": "function"
    },
    {
      "inputs": [
        {
          "internalType": "uint256",
          "name": "_poolId",
          "type": "uint256"
        },
        {
          "internalType": "uint256",
          "name": "_amount",
          "type": "uint256"
        }
      ],
      "name": "withdraw",
      "outputs": [],
      "stateMutability": "nonpayable",
      "type": "function"
    },
    {
      "inputs": [
        {
          "internalType": "uint256",
          "name": "_poolId",
          "type": "uint256"
        }
      ],
      "name": "updatePool",
      "outputs": [],
      "stateMutability": "nonpayable",
      "type": "function"
    },
    {
      "inputs": [
        {
          "internalType": "uint256",
          "name": "_poolId",
          "type": "uint256"
        },
        {
          "internalType": "address",
          "name": "_to",
          "type": "address"
        }
      ],
      "name": "harvest",
      "outputs": [],
      "stateMutability": "nonpayable",
      "type": "function"
    },
    {
      "inputs": [],
      "name": "massUpdatePools",
      "outputs": [],
      "stateMutability": "nonpayable",
      "type": "function"
    }
  ],
  "bytecode": "0x60806040523480156200001157600080fd5b5060405162002a3338038062002a33833981810160405281019062000037919062000131565b80600660006101000a81548173ffffffffffffffffffffffffffffffffffffffff021916908373ffffffffffffffffffffffffffffffffffffffff160217905550336000806101000a81548173ffffffffffffffffffffffffffffffffffffffff021916908373ffffffffffffffffffffffffffffffffffffffff16021790555060006001819055505062000163565b600080fd5b600073ffffffffffffffffffffffffffffffffffffffff82169050919050565b6000620000f982620000cc565b9050919050565b6200010b81620000ec565b81146200011757600080fd5b50565b6000815190506200012b8162000100565b92915050565b6000602082840312156200014a5762000149620000c7565b5b60006200015a848285016200011a565b91505092915050565b6128c080620001736000396000f3fe608060405234801561001057600080fd5b50600436106101215760003560e01c8063630b5ba1116100ad578063cdfb6cf311610071578063cdfb6cf3146102f8578063d13f67bc14610328578063d41dcbea14610358578063f35e4a6e14610376578063f3c30c0a1461039257610121565b8063630b5ba1146102535780637b0472f01461025d5780638da5cb5b1461027957806393f1a40b14610297578063a06ddcb3146102c857610121565b80632a48235b116100f45780632a48235b1461019a5780632c678a3e146101cd578063441a3e70146101fd57806348cd4cb11461021957806351eb05a61461023757610121565b80630dec23121461012657806317fb77de1461014257806318fccc761461016057806329fd20071461017c575b600080fd5b610140600480360381019061013b9190611c4a565b6103ae565b005b61014a610647565b6040516101579190611cac565b60405180910390f35b61017a60048036038101906101759190611cc7565b61064d565b005b61018461083f565b6040516101919190611d66565b60405180910390f35b6101b460048036038101906101af9190611d81565b610865565b6040516101c49493929190611dbd565b60405180910390f35b6101e760048036038101906101e29190611e02565b6108c5565b6040516101f49190611cac565b60405180910390f35b61021760048036038101906102129190611e2f565b6108dd565b005b610221610aa0565b60405161022e9190611cac565b60405180910390f35b610251600480360381019061024c9190611d81565b610aa6565b005b61025b610c95565b005b61027760048036038101906102729190611e2f565b610cfd565b005b610281610e89565b60405161028e9190611e6f565b60405180910390f35b6102b160048036038101906102ac9190611cc7565b610ead565b6040516102bf929190611e8a565b60405180910390f35b6102e260048036038101906102dd9190611d81565b610ede565b6040516102ef9190611ec2565b60405180910390f35b610312600480360381019061030d9190611cc7565b610efe565b60405161031f9190611cac565b60405180910390f35b610342600480360381019061033d9190611cc7565b610f5c565b60405161034f9190611cac565b60405180910390f35b6103606111cb565b60405161036d9190611fff565b60405180910390f35b610390600480360381019061038b9190611d81565b61129e565b005b6103ac60048036038101906103a79190612021565b611336565b005b60008054906101000a900473ffffffffffffffffffffffffffffffffffffffff1673ffffffffffffffffffffffffffffffffffffffff163373ffffffffffffffffffffffffffffffffffffffff161461043c576040517f08c379a0000000000000000000000000000000000000000000000000000000008152600401610433906120f7565b60405180910390fd5b600061044784611579565b9050801561048c57836040517fac7195c00000000000000000000000000000000000000000000000000000000081526004016104839190611e6f565b60405180910390fd5b811561049b5761049a610c95565b5b600060075443116104ae576007546104b0565b435b9050600460405180608001604052808773ffffffffffffffffffffffffffffffffffffffff1681526020018681526020018381526020016000815250908060018154018082558091505060019003906000526020600020906004020160009091909190915060008201518160000160006101000a81548173ffffffffffffffffffffffffffffffffffffffff021916908373ffffffffffffffffffffffffffffffffffffffff1602179055506020820151816001015560408201518160020155606082015181600301555050600154600260008773ffffffffffffffffffffffffffffffffffffffff1673ffffffffffffffffffffffffffffffffffffffff16815260200190815260200160002081905550600160036000600154815260200190815260200160002060006101000a81548160ff02191690831515021790555060018060008282546106029190612146565b925050819055507ff816b5143086c89d103a0683286be86c2b741e83ebfa75135aae606e2f5c6e53856040516106389190611e6f565b60405180910390a15050505050565b60015481565b61065682610aa6565b60006004838154811061066c5761066b61219c565b5b90600052602060002090600402016040518060800160405290816000820160009054906101000a900473ffffffffffffffffffffffffffffffffffffffff1673ffffffffffffffffffffffffffffffffffffffff1673ffffffffffffffffffffffffffffffffffffffff1681526020016001820154815260200160028201548152602001600382015481525050905060006005600085815260200190815260200160002060003373ffffffffffffffffffffffffffffffffffffffff1673ffffffffffffffffffffffffffffffffffffffff168152602001908152602001600020905060008160000154670de0b6b3a76400008460600151846001015461077391906121cb565b61077d9190612254565b6107879190612285565b90508260600151826001015461079d91906121cb565b8260000181905550600081146107fb576107fa8482600660009054906101000a900473ffffffffffffffffffffffffffffffffffffffff1673ffffffffffffffffffffffffffffffffffffffff166115db9092919063ffffffff16565b5b7fdec9257d126f56798a34ce7ca0ffedeaa9a024543946f79c3b5038035ba32a1e3385878460405161083094939291906122b9565b60405180910390a15050505050565b600660009054906101000a900473ffffffffffffffffffffffffffffffffffffffff1681565b6004818154811061087557600080fd5b90600052602060002090600402016000915090508060000160009054906101000a900473ffffffffffffffffffffffffffffffffffffffff16908060010154908060020154908060030154905084565b60026020528060005260406000206000915090505481565b6000600483815481106108f3576108f261219c565b5b9060005260206000209060040201905060006005600085815260200190815260200160002060003373ffffffffffffffffffffffffffffffffffffffff1673ffffffffffffffffffffffffffffffffffffffff1681526020019081526020016000209050828160010154101561099e576040517f08c379a00000000000000000000000000000000000000000000000000000000081526004016109959061234a565b60405180910390fd5b6109a784610aa6565b60008160000154836003015483600101546109c291906121cb565b6109cc9190612285565b90506109d83382611661565b838260010160008282546109ec9190612285565b9250508190555082600301548260010154610a0791906121cb565b8260000181905550610a5e33858560000160009054906101000a900473ffffffffffffffffffffffffffffffffffffffff1673ffffffffffffffffffffffffffffffffffffffff166115db9092919063ffffffff16565b7ff279e6a1f5e320cca91135676d9cb6e44ca8a08c0b88342bcdb1144f6511b568338686604051610a919392919061236a565b60405180910390a15050505050565b60075481565b600060048281548110610abc57610abb61219c565b5b9060005260206000209060040201905080600201544311610add5750610c92565b60008160000160009054906101000a900473ffffffffffffffffffffffffffffffffffffffff1673ffffffffffffffffffffffffffffffffffffffff166370a08231306040518263ffffffff1660e01b8152600401610b3c9190611e6f565b60206040518083038186803b158015610b5457600080fd5b505afa158015610b68573d6000803e3d6000fd5b505050506040513d601f19601f82011682018060405250810190610b8c91906123b6565b90506000811415610ba7574382600201819055505050610c92565b6000826002015443610bb99190612285565b90506000836001015482610bcd91906121cb565b9050600660009054906101000a900473ffffffffffffffffffffffffffffffffffffffff1673ffffffffffffffffffffffffffffffffffffffff166340c10f1930836040518363ffffffff1660e01b8152600401610c2c9291906123e3565b600060405180830381600087803b158015610c4657600080fd5b505af1158015610c5a573d6000803e3d6000fd5b505050508281610c6a9190612254565b846003016000828254610c7d9190612146565b92505081905550438460020181905550505050505b50565b6000600480549050905060005b81811015610cf957600015156003600083815260200190815260200160002060009054906101000a900460ff1615151415610cdc57610ce6565b610ce581610aa6565b5b8080610cf19061240c565b915050610ca2565b5050565b600060048381548110610d1357610d1261219c565b5b9060005260206000209060040201905060006005600085815260200190815260200160002060003373ffffffffffffffffffffffffffffffffffffffff1673ffffffffffffffffffffffffffffffffffffffff1681526020019081526020016000209050610d8084610aa6565b600081600101541115610dc0576000816000015483600301548360010154610da891906121cb565b610db29190612285565b9050610dbe3382611661565b505b610e113330858560000160009054906101000a900473ffffffffffffffffffffffffffffffffffffffff1673ffffffffffffffffffffffffffffffffffffffff16611883909392919063ffffffff16565b82816001016000828254610e259190612146565b9250508190555081600301548160010154610e4091906121cb565b81600001819055507f5af417134f72a9d41143ace85b0a26dce6f550f894f2cbc1eeee8810603d91b6338585604051610e7b9392919061236a565b60405180910390a150505050565b60008054906101000a900473ffffffffffffffffffffffffffffffffffffffff1681565b6005602052816000526040600020602052806000526040600020600091509150508060000154908060010154905082565b60036020528060005260406000206000915054906101000a900460ff1681565b60006005600084815260200190815260200160002060008373ffffffffffffffffffffffffffffffffffffffff1673ffffffffffffffffffffffffffffffffffffffff16815260200190815260200160002060010154905092915050565b600081600073ffffffffffffffffffffffffffffffffffffffff168173ffffffffffffffffffffffffffffffffffffffff161415610fcf576040517f08c379a0000000000000000000000000000000000000000000000000000000008152600401610fc6906124c7565b60405180910390fd5b600060048581548110610fe557610fe461219c565b5b90600052602060002090600402019050806002015443101561100b5760009250506111c4565b60006005600087815260200190815260200160002060008673ffffffffffffffffffffffffffffffffffffffff1673ffffffffffffffffffffffffffffffffffffffff168152602001908152602001600020905060008260000160009054906101000a900473ffffffffffffffffffffffffffffffffffffffff1673ffffffffffffffffffffffffffffffffffffffff166370a08231876040518263ffffffff1660e01b81526004016110be9190611e6f565b60206040518083038186803b1580156110d657600080fd5b505afa1580156110ea573d6000803e3d6000fd5b505050506040513d601f19601f8201168201806040525081019061110e91906123b6565b905060008360030154905060008211156111bb5760008460020154436111349190612285565b9050600081866001015461114891906121cb565b905083670de0b6b3a76400008261115f91906121cb565b6111699190612254565b836111749190612146565b925060008560000154670de0b6b3a764000085886001015461119691906121cb565b6111a09190612254565b6111aa9190612285565b9050809850505050505050506111c4565b60009550505050505b5092915050565b60606004805480602002602001604051908101604052809291908181526020016000905b8282101561129557838290600052602060002090600402016040518060800160405290816000820160009054906101000a900473ffffffffffffffffffffffffffffffffffffffff1673ffffffffffffffffffffffffffffffffffffffff1673ffffffffffffffffffffffffffffffffffffffff1681526020016001820154815260200160028201548152602001600382015481525050815260200190600101906111ef565b50505050905090565b60008054906101000a900473ffffffffffffffffffffffffffffffffffffffff1673ffffffffffffffffffffffffffffffffffffffff163373ffffffffffffffffffffffffffffffffffffffff161461132c576040517f08c379a0000000000000000000000000000000000000000000000000000000008152600401611323906120f7565b60405180910390fd5b8060078190555050565b60008054906101000a900473ffffffffffffffffffffffffffffffffffffffff1673ffffffffffffffffffffffffffffffffffffffff163373ffffffffffffffffffffffffffffffffffffffff16146113c4576040517f08c379a00000000000000000000000000000000000000000000000000000000081526004016113bb906120f7565b60405180910390fd5b6000600484815481106113da576113d961219c565b5b906000526020600020906004020160020154141561142d576040517f08c379a000000000000000000000000000000000000000000000000000000000815260040161142490612559565b60405180910390fd5b801561143c5761143b610c95565b5b600015156003600085815260200190815260200160002060009054906101000a900460ff1615151480156114705750600082115b156114db5760016003600085815260200190815260200160002060006101000a81548160ff0219169083151502179055507ff8e91eae4b15c98725305987a69db94bae83b5d11ced334a69fc66ffe30811a283436040516114d2929190611e8a565b60405180910390a15b600082141561154a5760006003600085815260200190815260200160002060006101000a81548160ff0219169083151502179055507fdf8caa5de973699f38324e775ca304db91c9af29f29a149b5ed5597ff518731f8343604051611541929190611e8a565b60405180910390a15b816004848154811061155f5761155e61219c565b5b906000526020600020906004020160010181905550505050565b600080600260008473ffffffffffffffffffffffffffffffffffffffff1673ffffffffffffffffffffffffffffffffffffffff16815260200190815260200160002054905060008114156115d057600091506115d5565b600191505b50919050565b61165c8363a9059cbb60e01b84846040516024016115fa9291906123e3565b604051602081830303815290604052907bffffffffffffffffffffffffffffffffffffffffffffffffffffffff19166020820180517bffffffffffffffffffffffffffffffffffffffffffffffffffffffff838183161783525050505061190c565b505050565b6000600660009054906101000a900473ffffffffffffffffffffffffffffffffffffffff1673ffffffffffffffffffffffffffffffffffffffff166370a08231306040518263ffffffff1660e01b81526004016116be9190611e6f565b60206040518083038186803b1580156116d657600080fd5b505afa1580156116ea573d6000803e3d6000fd5b505050506040513d601f19601f8201168201806040525081019061170e91906123b6565b9050808211156117cd57600660009054906101000a900473ffffffffffffffffffffffffffffffffffffffff1673ffffffffffffffffffffffffffffffffffffffff1663a9059cbb84836040518363ffffffff1660e01b81526004016117759291906123e3565b602060405180830381600087803b15801561178f57600080fd5b505af11580156117a3573d6000803e3d6000fd5b505050506040513d601f19601f820116820180604052508101906117c7919061258e565b5061187e565b600660009054906101000a900473ffffffffffffffffffffffffffffffffffffffff1673ffffffffffffffffffffffffffffffffffffffff1663a9059cbb84846040518363ffffffff1660e01b815260040161182a9291906123e3565b602060405180830381600087803b15801561184457600080fd5b505af1158015611858573d6000803e3d6000fd5b505050506040513d601f19601f8201168201806040525081019061187c919061258e565b505b505050565b611906846323b872dd60e01b8585856040516024016118a4939291906125bb565b604051602081830303815290604052907bffffffffffffffffffffffffffffffffffffffffffffffffffffffff19166020820180517bffffffffffffffffffffffffffffffffffffffffffffffffffffffff838183161783525050505061190c565b50505050565b600061196e826040518060400160405280602081526020017f5361666545524332303a206c6f772d6c6576656c2063616c6c206661696c65648152508573ffffffffffffffffffffffffffffffffffffffff166119d39092919063ffffffff16565b90506000815111156119ce578080602001905181019061198e919061258e565b6119cd576040517f08c379a00000000000000000000000000000000000000000000000000000000081526004016119c490612664565b60405180910390fd5b5b505050565b60606119e284846000856119eb565b90509392505050565b606082471015611a30576040517f08c379a0000000000000000000000000000000000000000000000000000000008152600401611a27906126f6565b60405180910390fd5b611a3985611aff565b611a78576040517f08c379a0000000000000000000000000000000000000000000000000000000008152600401611a6f90612762565b60405180910390fd5b6000808673ffffffffffffffffffffffffffffffffffffffff168587604051611aa191906127fc565b60006040518083038185875af1925050503d8060008114611ade576040519150601f19603f3d011682016040523d82523d6000602084013e611ae3565b606091505b5091509150611af3828286611b12565b92505050949350505050565b600080823b905060008111915050919050565b60608315611b2257829050611b72565b600083511115611b355782518084602001fd5b816040517f08c379a0000000000000000000000000000000000000000000000000000000008152600401611b699190612868565b60405180910390fd5b9392505050565b600080fd5b600073ffffffffffffffffffffffffffffffffffffffff82169050919050565b6000611ba982611b7e565b9050919050565b611bb981611b9e565b8114611bc457600080fd5b50565b600081359050611bd681611bb0565b92915050565b6000819050919050565b611bef81611bdc565b8114611bfa57600080fd5b50565b600081359050611c0c81611be6565b92915050565b60008115159050919050565b611c2781611c12565b8114611c3257600080fd5b50565b600081359050611c4481611c1e565b92915050565b600080600060608486031215611c6357611c62611b79565b5b6000611c7186828701611bc7565b9350506020611c8286828701611bfd565b9250506040611c9386828701611c35565b9150509250925092565b611ca681611bdc565b82525050565b6000602082019050611cc16000830184611c9d565b92915050565b60008060408385031215611cde57611cdd611b79565b5b6000611cec85828601611bfd565b9250506020611cfd85828601611bc7565b9150509250929050565b6000819050919050565b6000611d2c611d27611d2284611b7e565b611d07565b611b7e565b9050919050565b6000611d3e82611d11565b9050919050565b6000611d5082611d33565b9050919050565b611d6081611d45565b82525050565b6000602082019050611d7b6000830184611d57565b92915050565b600060208284031215611d9757611d96611b79565b5b6000611da584828501611bfd565b91505092915050565b611db781611b9e565b82525050565b6000608082019050611dd26000830187611dae565b611ddf6020830186611c9d565b611dec6040830185611c9d565b611df96060830184611c9d565b95945050505050565b600060208284031215611e1857611e17611b79565b5b6000611e2684828501611bc7565b91505092915050565b60008060408385031215611e4657611e45611b79565b5b6000611e5485828601611bfd565b9250506020611e6585828601611bfd565b9150509250929050565b6000602082019050611e846000830184611dae565b92915050565b6000604082019050611e9f6000830185611c9d565b611eac6020830184611c9d565b9392505050565b611ebc81611c12565b82525050565b6000602082019050611ed76000830184611eb3565b92915050565b600081519050919050565b600082825260208201905092915050565b6000819050602082019050919050565b611f1281611b9e565b82525050565b611f2181611bdc565b82525050565b608082016000820151611f3d6000850182611f09565b506020820151611f506020850182611f18565b506040820151611f636040850182611f18565b506060820151611f766060850182611f18565b50505050565b6000611f888383611f27565b60808301905092915050565b6000602082019050919050565b6000611fac82611edd565b611fb68185611ee8565b9350611fc183611ef9565b8060005b83811015611ff2578151611fd98882611f7c565b9750611fe483611f94565b925050600181019050611fc5565b5085935050505092915050565b600060208201905081810360008301526120198184611fa1565b905092915050565b60008060006060848603121561203a57612039611b79565b5b600061204886828701611bfd565b935050602061205986828701611bfd565b925050604061206a86828701611c35565b9150509250925092565b600082825260208201905092915050565b7f4f6e6c7920746865206f776e65722063616e2063616c6c20746869732066756e60008201527f6374696f6e000000000000000000000000000000000000000000000000000000602082015250565b60006120e1602583612074565b91506120ec82612085565b604082019050919050565b60006020820190508181036000830152612110816120d4565b9050919050565b7f4e487b7100000000000000000000000000000000000000000000000000000000600052601160045260246000fd5b600061215182611bdc565b915061215c83611bdc565b9250827fffffffffffffffffffffffffffffffffffffffffffffffffffffffffffffffff0382111561219157612190612117565b5b828201905092915050565b7f4e487b7100000000000000000000000000000000000000000000000000000000600052603260045260246000fd5b60006121d682611bdc565b91506121e183611bdc565b9250817fffffffffffffffffffffffffffffffffffffffffffffffffffffffffffffffff048311821515161561221a57612219612117565b5b828202905092915050565b7f4e487b7100000000000000000000000000000000000000000000000000000000600052601260045260246000fd5b600061225f82611bdc565b915061226a83611bdc565b92508261227a57612279612225565b5b828204905092915050565b600061229082611bdc565b915061229b83611bdc565b9250828210156122ae576122ad612117565b5b828203905092915050565b60006080820190506122ce6000830187611dae565b6122db6020830186611dae565b6122e86040830185611c9d565b6122f56060830184611c9d565b95945050505050565b7f6e6f7420656e6f7567682062616c616e63650000000000000000000000000000600082015250565b6000612334601283612074565b915061233f826122fe565b602082019050919050565b6000602082019050818103600083015261236381612327565b9050919050565b600060608201905061237f6000830186611dae565b61238c6020830185611c9d565b6123996040830184611c9d565b949350505050565b6000815190506123b081611be6565b92915050565b6000602082840312156123cc576123cb611b79565b5b60006123da848285016123a1565b91505092915050565b60006040820190506123f86000830185611dae565b6124056020830184611c9d565b9392505050565b600061241782611bdc565b91507fffffffffffffffffffffffffffffffffffffffffffffffffffffffffffffffff82141561244a57612449612117565b5b600182019050919050565b7f74686520616464726573732063616e206e6f74206265207a65726f206164647260008201527f6573730000000000000000000000000000000000000000000000000000000000602082015250565b60006124b1602383612074565b91506124bc82612455565b604082019050919050565b600060208201905081810360008301526124e0816124a4565b9050919050565b7f6e6f207375636820706f6f6c2c20796f757220706f6f6c4964206d617920626560008201527f2077726f6e670000000000000000000000000000000000000000000000000000602082015250565b6000612543602683612074565b915061254e826124e7565b604082019050919050565b6000602082019050818103600083015261257281612536565b9050919050565b60008151905061258881611c1e565b92915050565b6000602082840312156125a4576125a3611b79565b5b60006125b284828501612579565b91505092915050565b60006060820190506125d06000830186611dae565b6125dd6020830185611dae565b6125ea6040830184611c9d565b949350505050565b7f5361666545524332303a204552433230206f7065726174696f6e20646964206e60008201527f6f74207375636365656400000000000000000000000000000000000000000000602082015250565b600061264e602a83612074565b9150612659826125f2565b604082019050919050565b6000602082019050818103600083015261267d81612641565b9050919050565b7f416464726573733a20696e73756666696369656e742062616c616e636520666f60008201527f722063616c6c0000000000000000000000000000000000000000000000000000602082015250565b60006126e0602683612074565b91506126eb82612684565b604082019050919050565b6000602082019050818103600083015261270f816126d3565b9050919050565b7f416464726573733a2063616c6c20746f206e6f6e2d636f6e7472616374000000600082015250565b600061274c601d83612074565b915061275782612716565b602082019050919050565b6000602082019050818103600083015261277b8161273f565b9050919050565b600081519050919050565b600081905092915050565b60005b838110156127b657808201518184015260208101905061279b565b838111156127c5576000848401525b50505050565b60006127d682612782565b6127e0818561278d565b93506127f0818560208601612798565b80840191505092915050565b600061280882846127cb565b915081905092915050565b600081519050919050565b6000601f19601f8301169050919050565b600061283a82612813565b6128448185612074565b9350612854818560208601612798565b61285d8161281e565b840191505092915050565b60006020820190508181036000830152612882818461282f565b90509291505056fea264697066735822122039f9d16afdae02ea0f8c9645dc2b6f32eec0d3a187dc51ef381a96e611494a9364736f6c63430008090033",
  "immutableReferences": {},
  "source": "// SPDX-License-Identifier: MIT\npragma solidity 0.8.9;\n\nimport \"@openzeppelin/contracts/token/ERC20/IERC20.sol\";\nimport \"@openzeppelin/contracts/token/ERC20/utils/SafeERC20.sol\";\nimport \"./interfaces/ILPToken.sol\";\nimport \"./interfaces/IDegisToken.sol\";\nimport \"./interfaces/IFarmingPool.sol\";\n\n/**\n * @title  Farming Pool\n * @notice Thank you, MasterChef\n */\n\ncontract FarmingPool is IFarmingPool {\n    using SafeERC20 for IERC20;\n    using SafeERC20 for IDegisToken;\n\n    address public owner;\n\n    // PoolId starts from 0\n    uint256 public _nextPoolId;\n\n    struct PoolInfo {\n        address lpToken;\n        uint256 degisPerBlock;\n        uint256 lastRewardBlock;\n        uint256 accDegisPerShare;\n    }\n    mapping(address => uint256) public poolMapping; // lptoken => poolId\n\n    mapping(uint256 => bool) public isFarming; // poolId => alreadyFarming\n\n    PoolInfo[] public poolList;\n\n    struct UserInfo {\n        uint256 rewardDebt; // degis reward debt\n        uint256 stakingBalance; // the amount of a user's staking in the pool\n    }\n    // poolId => userAddress => userInfo\n    mapping(uint256 => mapping(address => UserInfo)) public userInfo;\n\n    // The reward token is degis\n    IDegisToken public degis;\n\n    uint256 public startBlock; // Farming starts from a certain block number\n\n    constructor(address _degis) {\n        degis = IDegisToken(_degis);\n\n        owner = msg.sender;\n\n        _nextPoolId = 0;\n    }\n\n    // ---------------------------------------------------------------------------------------- //\n    // ************************************** Modifiers *************************************** //\n    // ---------------------------------------------------------------------------------------- //\n\n    modifier onlyOwner() {\n        require(msg.sender == owner, \"Only the owner can call this function\");\n        _;\n    }\n\n    /**\n     * @notice The address can not be zero\n     */\n    modifier notZeroAddress(address _address) {\n        require(_address != address(0), \"the address can not be zero address\");\n        _;\n    }\n\n    // ---------------------------------------------------------------------------------------- //\n    // *********************************** View Functions ************************************* //\n    // ---------------------------------------------------------------------------------------- //\n\n    /**\n     * @notice Check the amount of pending degis reward\n     * @param _poolId PoolId of this farming pool\n     * @param _userAddress User address\n     * @return pendingDegisAmount Amount of pending degis\n     */\n    function pendingDegis(uint256 _poolId, address _userAddress)\n        public\n        view\n        notZeroAddress(_userAddress)\n        returns (uint256)\n    {\n        PoolInfo storage poolInfo = poolList[_poolId];\n\n        if (block.number < poolInfo.lastRewardBlock) return 0;\n\n        UserInfo storage user = userInfo[_poolId][_userAddress];\n\n        uint256 lp_balance = IERC20(poolInfo.lpToken).balanceOf(_userAddress);\n\n        uint256 accDegisPerShare = poolInfo.accDegisPerShare;\n\n        if (lp_balance > 0) {\n            // Deigs amount given to this pool\n            uint256 blocks = block.number - poolInfo.lastRewardBlock;\n            uint256 degisReward = poolInfo.degisPerBlock * blocks;\n\n            // Update accDegisPerShare\n            accDegisPerShare += (degisReward * 1e18) / lp_balance;\n\n            uint256 pending = ((user.stakingBalance * accDegisPerShare) /\n                1e18) - user.rewardDebt;\n            return pending;\n        } else {\n            return 0;\n        }\n    }\n\n    /**\n     * @notice Get the total pool list\n     */\n    function getPoolList() external view returns (PoolInfo[] memory) {\n        return poolList;\n    }\n\n    /**\n     * @notice Get user balance\n     * @param _poolId Id of the pool\n     * @param _userAddress Address of the user\n     * @return _balance User's balance (lpToken)\n     */\n    function getUserBalance(uint256 _poolId, address _userAddress)\n        external\n        view\n        returns (uint256 _balance)\n    {\n        return userInfo[_poolId][_userAddress].stakingBalance;\n    }\n\n    // ---------------------------------------------------------------------------------------- //\n    // ************************************* Set Functions ************************************ //\n    // ---------------------------------------------------------------------------------------- //\n\n    /**\n     * @notice Set the start block number\n     * @param _startBlock New start block number\n     */\n    function setStartBlock(uint256 _startBlock) external onlyOwner {\n        startBlock = _startBlock;\n    }\n\n    // ---------------------------------------------------------------------------------------- //\n    // *********************************** Main Functions ************************************* //\n    // ---------------------------------------------------------------------------------------- //\n\n    /**\n     * @notice Add a new lp to the pool. Can only be called by the owner.\n     * @param _lpToken LP token address\n     * @param _degisPerBlock Reward distribution per block for this new pool\n     * @param _withUpdate Whether update all pools' status\n     */\n    function add(\n        address _lpToken,\n        uint256 _degisPerBlock,\n        bool _withUpdate\n    ) public onlyOwner {\n        // Check if already exists\n        bool isInPool = _alreadyInPool(_lpToken);\n\n        if (isInPool) {\n            revert AlreadyInPool(_lpToken);\n        }\n\n        if (_withUpdate) {\n            massUpdatePools();\n        }\n\n        uint256 lastRewardBlock = block.number > startBlock\n            ? block.number\n            : startBlock;\n\n        // Push this new pool into the list\n        poolList.push(\n            PoolInfo({\n                lpToken: _lpToken,\n                degisPerBlock: _degisPerBlock,\n                lastRewardBlock: lastRewardBlock,\n                accDegisPerShare: 0\n            })\n        );\n\n        // Store the poolId and set the farming status to true\n        poolMapping[_lpToken] = _nextPoolId;\n        isFarming[_nextPoolId] = true;\n\n        _nextPoolId += 1;\n\n        emit NewPoolAdded(_lpToken);\n    }\n\n    /**\n     * @notice Update the degisPerBlock for a specific pool (set to 0 to stop farming)\n     * @param _poolId Id of the farming pool\n     * @param _degisPerBlock New reward amount per block\n     * @param _withUpdate Whether update all the pool\n     */\n    function setDegisReward(\n        uint256 _poolId,\n        uint256 _degisPerBlock,\n        bool _withUpdate\n    ) public onlyOwner {\n        // Ensure there already exists this pool\n        require(\n            poolList[_poolId].lastRewardBlock != 0,\n            \"no such pool, your poolId may be wrong\"\n        );\n        if (_withUpdate) {\n            massUpdatePools();\n        }\n\n        if (isFarming[_poolId] == false && _degisPerBlock > 0) {\n            isFarming[_poolId] = true;\n            emit RestartFarmingPool(_poolId, block.number);\n        }\n\n        if (_degisPerBlock == 0) {\n            isFarming[_poolId] = false;\n            emit StopFarmingPool(_poolId, block.number);\n        }\n        poolList[_poolId].degisPerBlock = _degisPerBlock;\n    }\n\n    /**\n     * @notice Stake LP token into the farming pool\n     * @param _poolId Id of the farming pool\n     * @param _amount Staking amount\n     */\n    function stake(uint256 _poolId, uint256 _amount) public {\n        PoolInfo storage pool = poolList[_poolId];\n        UserInfo storage user = userInfo[_poolId][msg.sender];\n\n        // Must update first!!\n        updatePool(_poolId);\n\n        if (user.stakingBalance > 0) {\n            uint256 pending = user.stakingBalance *\n                pool.accDegisPerShare -\n                user.rewardDebt;\n\n            safeDegisTransfer(msg.sender, pending);\n        }\n\n        // Approve\n        IERC20(pool.lpToken).safeTransferFrom(\n            address(msg.sender),\n            address(this),\n            _amount\n        );\n\n        user.stakingBalance += _amount;\n        user.rewardDebt = user.stakingBalance * pool.accDegisPerShare;\n\n        emit Stake(msg.sender, _poolId, _amount);\n    }\n\n    /**\n     * @notice Withdraw lptoken from the pool\n     * @param _poolId Id of the farming pool\n     * @param _amount Amount of lp tokens to withdraw\n     */\n    function withdraw(uint256 _poolId, uint256 _amount) public {\n        PoolInfo storage pool = poolList[_poolId];\n        UserInfo storage user = userInfo[_poolId][msg.sender];\n\n        require(user.stakingBalance >= _amount, \"not enough balance\");\n\n        updatePool(_poolId);\n\n        uint256 pending = user.stakingBalance *\n            pool.accDegisPerShare -\n            user.rewardDebt;\n\n        safeDegisTransfer(msg.sender, pending);\n\n        user.stakingBalance -= _amount;\n        user.rewardDebt = user.stakingBalance * pool.accDegisPerShare;\n\n        IERC20(pool.lpToken).safeTransfer(address(msg.sender), _amount);\n\n        emit Withdraw(msg.sender, _poolId, _amount);\n    }\n\n    /**\n     * @notice Update the pool's reward status\n     * @param _poolId Id of the farming pool\n     */\n    function updatePool(uint256 _poolId) public {\n        PoolInfo storage pool = poolList[_poolId];\n        if (block.number <= pool.lastRewardBlock) {\n            return;\n        }\n        uint256 lpSupply = IERC20(pool.lpToken).balanceOf(address(this));\n        if (lpSupply == 0) {\n            pool.lastRewardBlock = block.number;\n            return;\n        }\n        uint256 blocks = block.number - pool.lastRewardBlock;\n        uint256 degisReward = blocks * pool.degisPerBlock;\n\n        // Don't forget to set the farming pool as minter\n        degis.mint(address(this), degisReward);\n\n        pool.accDegisPerShare += degisReward / lpSupply;\n        pool.lastRewardBlock = block.number;\n    }\n\n    /**\n     * @notice Harvest the degis reward and can be sent to another address\n     * @param _poolId: Id of the farming pool\n     * @param _to Receiver of degis rewards.\n     */\n    function harvest(uint256 _poolId, address _to) public {\n        updatePool(_poolId);\n        PoolInfo memory pool = poolList[_poolId];\n        UserInfo storage user = userInfo[_poolId][msg.sender];\n\n        uint256 pendingReward = (user.stakingBalance * pool.accDegisPerShare) /\n            (1e18) -\n            user.rewardDebt;\n\n        // Effects\n        user.rewardDebt = user.stakingBalance * pool.accDegisPerShare;\n\n        // Interactions\n        if (pendingReward != 0) {\n            degis.safeTransfer(_to, pendingReward);\n        }\n\n        emit Harvest(msg.sender, _to, _poolId, pendingReward);\n    }\n\n    /**\n     * @notice Update all farming pools (except for those stopped ones)\n     */\n    function massUpdatePools() public {\n        uint256 length = poolList.length;\n        for (uint256 poolId = 0; poolId < length; poolId++) {\n            if (isFarming[poolId] == false) continue;\n            else updatePool(poolId);\n        }\n    }\n\n    // ---------------------------------------------------------------------------------------- //\n    // ********************************** Internal Functions ********************************** //\n    // ---------------------------------------------------------------------------------------- //\n\n    /**\n     * @notice Check if a lptoken has been added into the pool before\n     * @param _lpTokenAddress LP token address\n     * @return _isInPool Wether this lp already in pool\n     */\n    function _alreadyInPool(address _lpTokenAddress)\n        internal\n        view\n        returns (bool _isInPool)\n    {\n        uint256 poolId = poolMapping[_lpTokenAddress];\n        // Never been added\n        if (poolId == 0) _isInPool = false;\n        else _isInPool = true;\n    }\n\n    /**\n     * @notice Safe degis transfer (check if the pool has enough DEGIS token)\n     * @param _to User's address\n     * @param _amount Amount to transfer\n     */\n    function safeDegisTransfer(address _to, uint256 _amount) internal {\n        uint256 DegisBalance = degis.balanceOf(address(this));\n        if (_amount > DegisBalance) {\n            degis.transfer(_to, DegisBalance);\n        } else {\n            degis.transfer(_to, _amount);\n        }\n    }\n}\n",
  "sourcePath": "/Volumes/Store/src/Degis-Contracts-1/contracts/FarmingPool.sol",
  "compiler": {
    "name": "solc",
    "version": "0.8.9+commit.e5eed63a.Emscripten.clang"
  },
  "schemaVersion": "3.4.3",
  "updatedAt": "2021-12-02T14:46:26.614Z",
  "networkType": "ethereum",
  "devdoc": {
    "kind": "dev",
    "methods": {
      "add(address,uint256,bool)": {
        "params": {
          "_degisPerBlock": "Reward distribution per block for this new pool",
          "_lpToken": "LP token address",
          "_withUpdate": "Whether update all pools' status"
        }
      },
      "getUserBalance(uint256,address)": {
        "params": {
          "_poolId": "Id of the pool",
          "_userAddress": "Address of the user"
        },
        "returns": {
          "_balance": "User's balance (lpToken)"
        }
      },
      "harvest(uint256,address)": {
        "params": {
          "_poolId": ": Id of the farming pool",
          "_to": "Receiver of degis rewards."
        }
      },
      "pendingDegis(uint256,address)": {
        "params": {
          "_poolId": "PoolId of this farming pool",
          "_userAddress": "User address"
        },
        "returns": {
          "_0": "pendingDegisAmount Amount of pending degis"
        }
      },
      "setDegisReward(uint256,uint256,bool)": {
        "params": {
          "_degisPerBlock": "New reward amount per block",
          "_poolId": "Id of the farming pool",
          "_withUpdate": "Whether update all the pool"
        }
      },
      "setStartBlock(uint256)": {
        "params": {
          "_startBlock": "New start block number"
        }
      },
      "stake(uint256,uint256)": {
        "params": {
          "_amount": "Staking amount",
          "_poolId": "Id of the farming pool"
        }
      },
      "updatePool(uint256)": {
        "params": {
          "_poolId": "Id of the farming pool"
        }
      },
      "withdraw(uint256,uint256)": {
        "params": {
          "_amount": "Amount of lp tokens to withdraw",
          "_poolId": "Id of the farming pool"
        }
      }
    },
    "title": "Farming Pool",
    "version": 1
  },
  "userdoc": {
    "kind": "user",
    "methods": {
      "add(address,uint256,bool)": {
        "notice": "Add a new lp to the pool. Can only be called by the owner."
      },
      "getPoolList()": {
        "notice": "Get the total pool list"
      },
      "getUserBalance(uint256,address)": {
        "notice": "Get user balance"
      },
      "harvest(uint256,address)": {
        "notice": "Harvest the degis reward and can be sent to another address"
      },
      "massUpdatePools()": {
        "notice": "Update all farming pools (except for those stopped ones)"
      },
      "pendingDegis(uint256,address)": {
        "notice": "Check the amount of pending degis reward"
      },
      "setDegisReward(uint256,uint256,bool)": {
        "notice": "Update the degisPerBlock for a specific pool (set to 0 to stop farming)"
      },
      "setStartBlock(uint256)": {
        "notice": "Set the start block number"
      },
      "stake(uint256,uint256)": {
        "notice": "Stake LP token into the farming pool"
      },
      "updatePool(uint256)": {
        "notice": "Update the pool's reward status"
      },
      "withdraw(uint256,uint256)": {
        "notice": "Withdraw lptoken from the pool"
      }
    },
    "notice": "Thank you, MasterChef",
    "version": 1
  }
}