{
  "contractName": "FarmingPool",
  "abi": [
    {
      "inputs": [
        {
          "internalType": "address",
          "name": "_degis",
          "type": "address"
        }
      ],
      "stateMutability": "nonpayable",
      "type": "constructor"
    },
    {
      "inputs": [
        {
          "internalType": "address",
          "name": "_lpToken",
          "type": "address"
        }
      ],
      "name": "AlreadyInPool",
      "type": "error"
    },
    {
      "anonymous": false,
      "inputs": [
        {
          "indexed": false,
          "internalType": "address",
          "name": "_staker",
          "type": "address"
        },
        {
          "indexed": false,
          "internalType": "address",
          "name": "_rewardReceiver",
          "type": "address"
        },
        {
          "indexed": false,
          "internalType": "uint256",
          "name": "_poolId",
          "type": "uint256"
        },
        {
          "indexed": false,
          "internalType": "uint256",
          "name": "_pendingReward",
          "type": "uint256"
        }
      ],
      "name": "Harvest",
      "type": "event"
    },
    {
      "anonymous": false,
      "inputs": [
        {
          "indexed": false,
          "internalType": "address",
          "name": "_lpToken",
          "type": "address"
        }
      ],
      "name": "NewPoolAdded",
      "type": "event"
    },
    {
      "anonymous": false,
      "inputs": [
        {
          "indexed": false,
          "internalType": "uint256",
          "name": "_poolId",
          "type": "uint256"
        }
      ],
      "name": "PoolUpdated",
      "type": "event"
    },
    {
      "anonymous": false,
      "inputs": [
        {
          "indexed": false,
          "internalType": "uint256",
          "name": "_poolId",
          "type": "uint256"
        },
        {
          "indexed": false,
          "internalType": "uint256",
          "name": "_blockNumber",
          "type": "uint256"
        }
      ],
      "name": "RestartFarmingPool",
      "type": "event"
    },
    {
      "anonymous": false,
      "inputs": [
        {
          "indexed": false,
          "internalType": "address",
          "name": "_staker",
          "type": "address"
        },
        {
          "indexed": false,
          "internalType": "uint256",
          "name": "_poolId",
          "type": "uint256"
        },
        {
          "indexed": false,
          "internalType": "uint256",
          "name": "_amount",
          "type": "uint256"
        }
      ],
      "name": "Stake",
      "type": "event"
    },
    {
      "anonymous": false,
      "inputs": [
        {
          "indexed": false,
          "internalType": "uint256",
          "name": "_poolId",
          "type": "uint256"
        },
        {
          "indexed": false,
          "internalType": "uint256",
          "name": "_blockNumber",
          "type": "uint256"
        }
      ],
      "name": "StopFarmingPool",
      "type": "event"
    },
    {
      "anonymous": false,
      "inputs": [
        {
          "indexed": false,
          "internalType": "address",
          "name": "_staker",
          "type": "address"
        },
        {
          "indexed": false,
          "internalType": "uint256",
          "name": "_poolId",
          "type": "uint256"
        },
        {
          "indexed": false,
          "internalType": "uint256",
          "name": "_amount",
          "type": "uint256"
        }
      ],
      "name": "Withdraw",
      "type": "event"
    },
    {
      "inputs": [],
      "name": "_nextPoolId",
      "outputs": [
        {
          "internalType": "uint256",
          "name": "",
          "type": "uint256"
        }
      ],
      "stateMutability": "view",
      "type": "function",
      "constant": true
    },
    {
      "inputs": [],
      "name": "degis",
      "outputs": [
        {
          "internalType": "contract IDegisToken",
          "name": "",
          "type": "address"
        }
      ],
      "stateMutability": "view",
      "type": "function",
      "constant": true
    },
    {
      "inputs": [
        {
          "internalType": "uint256",
          "name": "",
          "type": "uint256"
        }
      ],
      "name": "isFarming",
      "outputs": [
        {
          "internalType": "bool",
          "name": "",
          "type": "bool"
        }
      ],
      "stateMutability": "view",
      "type": "function",
      "constant": true
    },
    {
      "inputs": [],
      "name": "owner",
      "outputs": [
        {
          "internalType": "address",
          "name": "",
          "type": "address"
        }
      ],
      "stateMutability": "view",
      "type": "function",
      "constant": true
    },
    {
      "inputs": [
        {
          "internalType": "uint256",
          "name": "",
          "type": "uint256"
        }
      ],
      "name": "poolList",
      "outputs": [
        {
          "internalType": "address",
          "name": "lpToken",
          "type": "address"
        },
        {
          "internalType": "uint256",
          "name": "degisPerBlock",
          "type": "uint256"
        },
        {
          "internalType": "uint256",
          "name": "lastRewardBlock",
          "type": "uint256"
        },
        {
          "internalType": "uint256",
          "name": "accDegisPerShare",
          "type": "uint256"
        }
      ],
      "stateMutability": "view",
      "type": "function",
      "constant": true
    },
    {
      "inputs": [
        {
          "internalType": "address",
          "name": "",
          "type": "address"
        }
      ],
      "name": "poolMapping",
      "outputs": [
        {
          "internalType": "uint256",
          "name": "",
          "type": "uint256"
        }
      ],
      "stateMutability": "view",
      "type": "function",
      "constant": true
    },
    {
      "inputs": [],
      "name": "startBlock",
      "outputs": [
        {
          "internalType": "uint256",
          "name": "",
          "type": "uint256"
        }
      ],
      "stateMutability": "view",
      "type": "function",
      "constant": true
    },
    {
      "inputs": [
        {
          "internalType": "uint256",
          "name": "",
          "type": "uint256"
        },
        {
          "internalType": "address",
          "name": "",
          "type": "address"
        }
      ],
      "name": "userInfo",
      "outputs": [
        {
          "internalType": "uint256",
          "name": "rewardDebt",
          "type": "uint256"
        },
        {
          "internalType": "uint256",
          "name": "stakingBalance",
          "type": "uint256"
        }
      ],
      "stateMutability": "view",
      "type": "function",
      "constant": true
    },
    {
      "inputs": [
        {
          "internalType": "uint256",
          "name": "_poolId",
          "type": "uint256"
        },
        {
          "internalType": "address",
          "name": "_userAddress",
          "type": "address"
        }
      ],
      "name": "pendingDegis",
      "outputs": [
        {
          "internalType": "uint256",
          "name": "",
          "type": "uint256"
        }
      ],
      "stateMutability": "view",
      "type": "function",
      "constant": true
    },
    {
      "inputs": [],
      "name": "getPoolList",
      "outputs": [
        {
          "components": [
            {
              "internalType": "address",
              "name": "lpToken",
              "type": "address"
            },
            {
              "internalType": "uint256",
              "name": "degisPerBlock",
              "type": "uint256"
            },
            {
              "internalType": "uint256",
              "name": "lastRewardBlock",
              "type": "uint256"
            },
            {
              "internalType": "uint256",
              "name": "accDegisPerShare",
              "type": "uint256"
            }
          ],
          "internalType": "struct FarmingPool.PoolInfo[]",
          "name": "",
          "type": "tuple[]"
        }
      ],
      "stateMutability": "view",
      "type": "function",
      "constant": true
    },
    {
      "inputs": [
        {
          "internalType": "uint256",
          "name": "_poolId",
          "type": "uint256"
        },
        {
          "internalType": "address",
          "name": "_userAddress",
          "type": "address"
        }
      ],
      "name": "getUserBalance",
      "outputs": [
        {
          "internalType": "uint256",
          "name": "_balance",
          "type": "uint256"
        }
      ],
      "stateMutability": "view",
      "type": "function",
      "constant": true
    },
    {
      "inputs": [
        {
          "internalType": "uint256",
          "name": "_startBlock",
          "type": "uint256"
        }
      ],
      "name": "setStartBlock",
      "outputs": [],
      "stateMutability": "nonpayable",
      "type": "function"
    },
    {
      "inputs": [
        {
          "internalType": "address",
          "name": "_lpToken",
          "type": "address"
        },
        {
          "internalType": "uint256",
          "name": "_degisPerBlock",
          "type": "uint256"
        },
        {
          "internalType": "bool",
          "name": "_withUpdate",
          "type": "bool"
        }
      ],
      "name": "add",
      "outputs": [],
      "stateMutability": "nonpayable",
      "type": "function"
    },
    {
      "inputs": [
        {
          "internalType": "uint256",
          "name": "_poolId",
          "type": "uint256"
        },
        {
          "internalType": "uint256",
          "name": "_degisPerBlock",
          "type": "uint256"
        },
        {
          "internalType": "bool",
          "name": "_withUpdate",
          "type": "bool"
        }
      ],
      "name": "setDegisReward",
      "outputs": [],
      "stateMutability": "nonpayable",
      "type": "function"
    },
    {
      "inputs": [
        {
          "internalType": "uint256",
          "name": "_poolId",
          "type": "uint256"
        },
        {
          "internalType": "uint256",
          "name": "_amount",
          "type": "uint256"
        }
      ],
      "name": "stake",
      "outputs": [],
      "stateMutability": "nonpayable",
      "type": "function"
    },
    {
      "inputs": [
        {
          "internalType": "uint256",
          "name": "_poolId",
          "type": "uint256"
        },
        {
          "internalType": "uint256",
          "name": "_amount",
          "type": "uint256"
        }
      ],
      "name": "withdraw",
      "outputs": [],
      "stateMutability": "nonpayable",
      "type": "function"
    },
    {
      "inputs": [
        {
          "internalType": "uint256",
          "name": "_poolId",
          "type": "uint256"
        }
      ],
      "name": "updatePool",
      "outputs": [],
      "stateMutability": "nonpayable",
      "type": "function"
    },
    {
      "inputs": [
        {
          "internalType": "uint256",
          "name": "_poolId",
          "type": "uint256"
        },
        {
          "internalType": "address",
          "name": "_to",
          "type": "address"
        }
      ],
      "name": "harvest",
      "outputs": [],
      "stateMutability": "nonpayable",
      "type": "function"
    },
    {
      "inputs": [],
      "name": "massUpdatePools",
      "outputs": [],
      "stateMutability": "nonpayable",
      "type": "function"
    }
  ],
  "bytecode": "0x60806040523480156200001157600080fd5b5060405162002c1a38038062002c1a8339818101604052810190620000379190620001fd565b80600660006101000a81548173ffffffffffffffffffffffffffffffffffffffff021916908373ffffffffffffffffffffffffffffffffffffffff160217905550336000806101000a81548173ffffffffffffffffffffffffffffffffffffffff021916908373ffffffffffffffffffffffffffffffffffffffff1602179055506001808190555060026040518060800160405280600073ffffffffffffffffffffffffffffffffffffffff16815260200160008152602001600081526020016000815250908060018154018082558091505060019003906000526020600020906004020160009091909190915060008201518160000160006101000a81548173ffffffffffffffffffffffffffffffffffffffff021916908373ffffffffffffffffffffffffffffffffffffffff1602179055506020820151816001015560408201518160020155606082015181600301555050506200022f565b600080fd5b600073ffffffffffffffffffffffffffffffffffffffff82169050919050565b6000620001c58262000198565b9050919050565b620001d781620001b8565b8114620001e357600080fd5b50565b600081519050620001f781620001cc565b92915050565b60006020828403121562000216576200021562000193565b5b60006200022684828501620001e6565b91505092915050565b6129db806200023f6000396000f3fe608060405234801561001057600080fd5b50600436106101215760003560e01c8063630b5ba1116100ad578063cdfb6cf311610071578063cdfb6cf3146102f8578063d13f67bc14610328578063d41dcbea14610358578063f35e4a6e14610376578063f3c30c0a1461039257610121565b8063630b5ba1146102535780637b0472f01461025d5780638da5cb5b1461027957806393f1a40b14610297578063a06ddcb3146102c857610121565b80632a48235b116100f45780632a48235b1461019a5780632c678a3e146101cd578063441a3e70146101fd57806348cd4cb11461021957806351eb05a61461023757610121565b80630dec23121461012657806317fb77de1461014257806318fccc761461016057806329fd20071461017c575b600080fd5b610140600480360381019061013b9190611d65565b6103ae565b005b61014a6106b9565b6040516101579190611dc7565b60405180910390f35b61017a60048036038101906101759190611de2565b6106bf565b005b6101846108c4565b6040516101919190611e81565b60405180910390f35b6101b460048036038101906101af9190611e9c565b6108ea565b6040516101c49493929190611ed8565b60405180910390f35b6101e760048036038101906101e29190611f1d565b61094a565b6040516101f49190611dc7565b60405180910390f35b61021760048036038101906102129190611f4a565b610962565b005b610221610b4b565b60405161022e9190611dc7565b60405180910390f35b610251600480360381019061024c9190611e9c565b610b51565b005b61025b610d8a565b005b61027760048036038101906102729190611f4a565b610df2565b005b610281610fa4565b60405161028e9190611f8a565b60405180910390f35b6102b160048036038101906102ac9190611de2565b610fc8565b6040516102bf929190611fa5565b60405180910390f35b6102e260048036038101906102dd9190611e9c565b610ff9565b6040516102ef9190611fdd565b60405180910390f35b610312600480360381019061030d9190611de2565b611019565b60405161031f9190611dc7565b60405180910390f35b610342600480360381019061033d9190611de2565b611077565b60405161034f9190611dc7565b60405180910390f35b6103606112e6565b60405161036d919061211a565b60405180910390f35b610390600480360381019061038b9190611e9c565b6113b9565b005b6103ac60048036038101906103a7919061213c565b611451565b005b82600073ffffffffffffffffffffffffffffffffffffffff168173ffffffffffffffffffffffffffffffffffffffff16141561041f576040517f08c379a000000000000000000000000000000000000000000000000000000000815260040161041690612212565b60405180910390fd5b60008054906101000a900473ffffffffffffffffffffffffffffffffffffffff1673ffffffffffffffffffffffffffffffffffffffff163373ffffffffffffffffffffffffffffffffffffffff16146104ad576040517f08c379a00000000000000000000000000000000000000000000000000000000081526004016104a4906122a4565b60405180910390fd5b60006104b885611694565b905080156104fd57846040517fac7195c00000000000000000000000000000000000000000000000000000000081526004016104f49190611f8a565b60405180910390fd5b821561050c5761050b610d8a565b5b6000600754431161051f57600754610521565b435b9050600260405180608001604052808873ffffffffffffffffffffffffffffffffffffffff1681526020018781526020018381526020016000815250908060018154018082558091505060019003906000526020600020906004020160009091909190915060008201518160000160006101000a81548173ffffffffffffffffffffffffffffffffffffffff021916908373ffffffffffffffffffffffffffffffffffffffff1602179055506020820151816001015560408201518160020155606082015181600301555050600154600360008873ffffffffffffffffffffffffffffffffffffffff1673ffffffffffffffffffffffffffffffffffffffff16815260200190815260200160002081905550600160046000600154815260200190815260200160002060006101000a81548160ff021916908315150217905550600180600082825461067391906122f3565b925050819055507ff816b5143086c89d103a0683286be86c2b741e83ebfa75135aae606e2f5c6e53866040516106a99190611f8a565b60405180910390a1505050505050565b60015481565b6106c882610b51565b6000600283815481106106de576106dd612349565b5b90600052602060002090600402016040518060800160405290816000820160009054906101000a900473ffffffffffffffffffffffffffffffffffffffff1673ffffffffffffffffffffffffffffffffffffffff1673ffffffffffffffffffffffffffffffffffffffff1681526020016001820154815260200160028201548152602001600382015481525050905060006005600085815260200190815260200160002060003373ffffffffffffffffffffffffffffffffffffffff1673ffffffffffffffffffffffffffffffffffffffff168152602001908152602001600020905060008160000154670de0b6b3a7640000846060015184600101546107e59190612378565b6107ef9190612401565b6107f99190612432565b9050670de0b6b3a7640000836060015183600101546108189190612378565b6108229190612401565b8260000181905550600081146108805761087f8482600660009054906101000a900473ffffffffffffffffffffffffffffffffffffffff1673ffffffffffffffffffffffffffffffffffffffff166116f69092919063ffffffff16565b5b7fdec9257d126f56798a34ce7ca0ffedeaa9a024543946f79c3b5038035ba32a1e338587846040516108b59493929190612466565b60405180910390a15050505050565b600660009054906101000a900473ffffffffffffffffffffffffffffffffffffffff1681565b600281815481106108fa57600080fd5b90600052602060002090600402016000915090508060000160009054906101000a900473ffffffffffffffffffffffffffffffffffffffff16908060010154908060020154908060030154905084565b60036020528060005260406000206000915090505481565b60006002838154811061097857610977612349565b5b9060005260206000209060040201905060006005600085815260200190815260200160002060003373ffffffffffffffffffffffffffffffffffffffff1673ffffffffffffffffffffffffffffffffffffffff16815260200190815260200160002090508281600101541015610a23576040517f08c379a0000000000000000000000000000000000000000000000000000000008152600401610a1a906124f7565b60405180910390fd5b610a2c84610b51565b60008160000154670de0b6b3a764000084600301548460010154610a509190612378565b610a5a9190612401565b610a649190612432565b9050610a70338261177c565b83826001016000828254610a849190612432565b92505081905550670de0b6b3a764000083600301548360010154610aa89190612378565b610ab29190612401565b8260000181905550610b0933858560000160009054906101000a900473ffffffffffffffffffffffffffffffffffffffff1673ffffffffffffffffffffffffffffffffffffffff166116f69092919063ffffffff16565b7ff279e6a1f5e320cca91135676d9cb6e44ca8a08c0b88342bcdb1144f6511b568338686604051610b3c93929190612517565b60405180910390a15050505050565b60075481565b600060028281548110610b6757610b66612349565b5b9060005260206000209060040201905080600201544311610b885750610d87565b60008160000160009054906101000a900473ffffffffffffffffffffffffffffffffffffffff1673ffffffffffffffffffffffffffffffffffffffff166370a08231306040518263ffffffff1660e01b8152600401610be79190611f8a565b60206040518083038186803b158015610bff57600080fd5b505afa158015610c13573d6000803e3d6000fd5b505050506040513d601f19601f82011682018060405250810190610c379190612563565b90506000811415610c52574382600201819055505050610d87565b6000826002015443610c649190612432565b90506000836001015482610c789190612378565b9050600660009054906101000a900473ffffffffffffffffffffffffffffffffffffffff1673ffffffffffffffffffffffffffffffffffffffff166340c10f1930836040518363ffffffff1660e01b8152600401610cd7929190612590565b600060405180830381600087803b158015610cf157600080fd5b505af1158015610d05573d6000803e3d6000fd5b5050505082670de0b6b3a764000082610d1e9190612378565b610d289190612401565b846003016000828254610d3b91906122f3565b925050819055504384600201819055507f141d729c29cc848b27c53f7dbe9f9542cedc4ed2efa7bd2aeb2a4bdce06a407f85604051610d7a9190611dc7565b60405180910390a1505050505b50565b6000600280549050905060005b81811015610dee57600015156004600083815260200190815260200160002060009054906101000a900460ff1615151415610dd157610ddb565b610dda81610b51565b5b8080610de6906125b9565b915050610d97565b5050565b600060028381548110610e0857610e07612349565b5b9060005260206000209060040201905060006005600085815260200190815260200160002060003373ffffffffffffffffffffffffffffffffffffffff1673ffffffffffffffffffffffffffffffffffffffff1681526020019081526020016000209050610e7584610b51565b600081600101541115610ec85760008160000154670de0b6b3a764000084600301548460010154610ea69190612378565b610eb09190612401565b610eba9190612432565b9050610ec6338261177c565b505b610f193330858560000160009054906101000a900473ffffffffffffffffffffffffffffffffffffffff1673ffffffffffffffffffffffffffffffffffffffff1661199e909392919063ffffffff16565b82816001016000828254610f2d91906122f3565b92505081905550670de0b6b3a764000082600301548260010154610f519190612378565b610f5b9190612401565b81600001819055507f5af417134f72a9d41143ace85b0a26dce6f550f894f2cbc1eeee8810603d91b6338585604051610f9693929190612517565b60405180910390a150505050565b60008054906101000a900473ffffffffffffffffffffffffffffffffffffffff1681565b6005602052816000526040600020602052806000526040600020600091509150508060000154908060010154905082565b60046020528060005260406000206000915054906101000a900460ff1681565b60006005600084815260200190815260200160002060008373ffffffffffffffffffffffffffffffffffffffff1673ffffffffffffffffffffffffffffffffffffffff16815260200190815260200160002060010154905092915050565b600081600073ffffffffffffffffffffffffffffffffffffffff168173ffffffffffffffffffffffffffffffffffffffff1614156110ea576040517f08c379a00000000000000000000000000000000000000000000000000000000081526004016110e190612212565b60405180910390fd5b600060028581548110611100576110ff612349565b5b9060005260206000209060040201905080600201544310156111265760009250506112df565b60006005600087815260200190815260200160002060008673ffffffffffffffffffffffffffffffffffffffff1673ffffffffffffffffffffffffffffffffffffffff168152602001908152602001600020905060008260000160009054906101000a900473ffffffffffffffffffffffffffffffffffffffff1673ffffffffffffffffffffffffffffffffffffffff166370a08231306040518263ffffffff1660e01b81526004016111d99190611f8a565b60206040518083038186803b1580156111f157600080fd5b505afa158015611205573d6000803e3d6000fd5b505050506040513d601f19601f820116820180604052508101906112299190612563565b905060008360030154905060008211156112d657600084600201544361124f9190612432565b905060008186600101546112639190612378565b905083670de0b6b3a76400008261127a9190612378565b6112849190612401565b8361128f91906122f3565b925060008560000154670de0b6b3a76400008588600101546112b19190612378565b6112bb9190612401565b6112c59190612432565b9050809850505050505050506112df565b60009550505050505b5092915050565b60606002805480602002602001604051908101604052809291908181526020016000905b828210156113b057838290600052602060002090600402016040518060800160405290816000820160009054906101000a900473ffffffffffffffffffffffffffffffffffffffff1673ffffffffffffffffffffffffffffffffffffffff1673ffffffffffffffffffffffffffffffffffffffff16815260200160018201548152602001600282015481526020016003820154815250508152602001906001019061130a565b50505050905090565b60008054906101000a900473ffffffffffffffffffffffffffffffffffffffff1673ffffffffffffffffffffffffffffffffffffffff163373ffffffffffffffffffffffffffffffffffffffff1614611447576040517f08c379a000000000000000000000000000000000000000000000000000000000815260040161143e906122a4565b60405180910390fd5b8060078190555050565b60008054906101000a900473ffffffffffffffffffffffffffffffffffffffff1673ffffffffffffffffffffffffffffffffffffffff163373ffffffffffffffffffffffffffffffffffffffff16146114df576040517f08c379a00000000000000000000000000000000000000000000000000000000081526004016114d6906122a4565b60405180910390fd5b6000600284815481106114f5576114f4612349565b5b9060005260206000209060040201600201541415611548576040517f08c379a000000000000000000000000000000000000000000000000000000000815260040161153f90612674565b60405180910390fd5b801561155757611556610d8a565b5b600015156004600085815260200190815260200160002060009054906101000a900460ff16151514801561158b5750600082115b156115f65760016004600085815260200190815260200160002060006101000a81548160ff0219169083151502179055507ff8e91eae4b15c98725305987a69db94bae83b5d11ced334a69fc66ffe30811a283436040516115ed929190611fa5565b60405180910390a15b60008214156116655760006004600085815260200190815260200160002060006101000a81548160ff0219169083151502179055507fdf8caa5de973699f38324e775ca304db91c9af29f29a149b5ed5597ff518731f834360405161165c929190611fa5565b60405180910390a15b816002848154811061167a57611679612349565b5b906000526020600020906004020160010181905550505050565b600080600360008473ffffffffffffffffffffffffffffffffffffffff1673ffffffffffffffffffffffffffffffffffffffff16815260200190815260200160002054905060008114156116eb57600091506116f0565b600191505b50919050565b6117778363a9059cbb60e01b8484604051602401611715929190612590565b604051602081830303815290604052907bffffffffffffffffffffffffffffffffffffffffffffffffffffffff19166020820180517bffffffffffffffffffffffffffffffffffffffffffffffffffffffff8381831617835250505050611a27565b505050565b6000600660009054906101000a900473ffffffffffffffffffffffffffffffffffffffff1673ffffffffffffffffffffffffffffffffffffffff166370a08231306040518263ffffffff1660e01b81526004016117d99190611f8a565b60206040518083038186803b1580156117f157600080fd5b505afa158015611805573d6000803e3d6000fd5b505050506040513d601f19601f820116820180604052508101906118299190612563565b9050808211156118e857600660009054906101000a900473ffffffffffffffffffffffffffffffffffffffff1673ffffffffffffffffffffffffffffffffffffffff1663a9059cbb84836040518363ffffffff1660e01b8152600401611890929190612590565b602060405180830381600087803b1580156118aa57600080fd5b505af11580156118be573d6000803e3d6000fd5b505050506040513d601f19601f820116820180604052508101906118e291906126a9565b50611999565b600660009054906101000a900473ffffffffffffffffffffffffffffffffffffffff1673ffffffffffffffffffffffffffffffffffffffff1663a9059cbb84846040518363ffffffff1660e01b8152600401611945929190612590565b602060405180830381600087803b15801561195f57600080fd5b505af1158015611973573d6000803e3d6000fd5b505050506040513d601f19601f8201168201806040525081019061199791906126a9565b505b505050565b611a21846323b872dd60e01b8585856040516024016119bf939291906126d6565b604051602081830303815290604052907bffffffffffffffffffffffffffffffffffffffffffffffffffffffff19166020820180517bffffffffffffffffffffffffffffffffffffffffffffffffffffffff8381831617835250505050611a27565b50505050565b6000611a89826040518060400160405280602081526020017f5361666545524332303a206c6f772d6c6576656c2063616c6c206661696c65648152508573ffffffffffffffffffffffffffffffffffffffff16611aee9092919063ffffffff16565b9050600081511115611ae95780806020019051810190611aa991906126a9565b611ae8576040517f08c379a0000000000000000000000000000000000000000000000000000000008152600401611adf9061277f565b60405180910390fd5b5b505050565b6060611afd8484600085611b06565b90509392505050565b606082471015611b4b576040517f08c379a0000000000000000000000000000000000000000000000000000000008152600401611b4290612811565b60405180910390fd5b611b5485611c1a565b611b93576040517f08c379a0000000000000000000000000000000000000000000000000000000008152600401611b8a9061287d565b60405180910390fd5b6000808673ffffffffffffffffffffffffffffffffffffffff168587604051611bbc9190612917565b60006040518083038185875af1925050503d8060008114611bf9576040519150601f19603f3d011682016040523d82523d6000602084013e611bfe565b606091505b5091509150611c0e828286611c2d565b92505050949350505050565b600080823b905060008111915050919050565b60608315611c3d57829050611c8d565b600083511115611c505782518084602001fd5b816040517f08c379a0000000000000000000000000000000000000000000000000000000008152600401611c849190612983565b60405180910390fd5b9392505050565b600080fd5b600073ffffffffffffffffffffffffffffffffffffffff82169050919050565b6000611cc482611c99565b9050919050565b611cd481611cb9565b8114611cdf57600080fd5b50565b600081359050611cf181611ccb565b92915050565b6000819050919050565b611d0a81611cf7565b8114611d1557600080fd5b50565b600081359050611d2781611d01565b92915050565b60008115159050919050565b611d4281611d2d565b8114611d4d57600080fd5b50565b600081359050611d5f81611d39565b92915050565b600080600060608486031215611d7e57611d7d611c94565b5b6000611d8c86828701611ce2565b9350506020611d9d86828701611d18565b9250506040611dae86828701611d50565b9150509250925092565b611dc181611cf7565b82525050565b6000602082019050611ddc6000830184611db8565b92915050565b60008060408385031215611df957611df8611c94565b5b6000611e0785828601611d18565b9250506020611e1885828601611ce2565b9150509250929050565b6000819050919050565b6000611e47611e42611e3d84611c99565b611e22565b611c99565b9050919050565b6000611e5982611e2c565b9050919050565b6000611e6b82611e4e565b9050919050565b611e7b81611e60565b82525050565b6000602082019050611e966000830184611e72565b92915050565b600060208284031215611eb257611eb1611c94565b5b6000611ec084828501611d18565b91505092915050565b611ed281611cb9565b82525050565b6000608082019050611eed6000830187611ec9565b611efa6020830186611db8565b611f076040830185611db8565b611f146060830184611db8565b95945050505050565b600060208284031215611f3357611f32611c94565b5b6000611f4184828501611ce2565b91505092915050565b60008060408385031215611f6157611f60611c94565b5b6000611f6f85828601611d18565b9250506020611f8085828601611d18565b9150509250929050565b6000602082019050611f9f6000830184611ec9565b92915050565b6000604082019050611fba6000830185611db8565b611fc76020830184611db8565b9392505050565b611fd781611d2d565b82525050565b6000602082019050611ff26000830184611fce565b92915050565b600081519050919050565b600082825260208201905092915050565b6000819050602082019050919050565b61202d81611cb9565b82525050565b61203c81611cf7565b82525050565b6080820160008201516120586000850182612024565b50602082015161206b6020850182612033565b50604082015161207e6040850182612033565b5060608201516120916060850182612033565b50505050565b60006120a38383612042565b60808301905092915050565b6000602082019050919050565b60006120c782611ff8565b6120d18185612003565b93506120dc83612014565b8060005b8381101561210d5781516120f48882612097565b97506120ff836120af565b9250506001810190506120e0565b5085935050505092915050565b6000602082019050818103600083015261213481846120bc565b905092915050565b60008060006060848603121561215557612154611c94565b5b600061216386828701611d18565b935050602061217486828701611d18565b925050604061218586828701611d50565b9150509250925092565b600082825260208201905092915050565b7f74686520616464726573732063616e206e6f74206265207a65726f206164647260008201527f6573730000000000000000000000000000000000000000000000000000000000602082015250565b60006121fc60238361218f565b9150612207826121a0565b604082019050919050565b6000602082019050818103600083015261222b816121ef565b9050919050565b7f4f6e6c7920746865206f776e65722063616e2063616c6c20746869732066756e60008201527f6374696f6e000000000000000000000000000000000000000000000000000000602082015250565b600061228e60258361218f565b915061229982612232565b604082019050919050565b600060208201905081810360008301526122bd81612281565b9050919050565b7f4e487b7100000000000000000000000000000000000000000000000000000000600052601160045260246000fd5b60006122fe82611cf7565b915061230983611cf7565b9250827fffffffffffffffffffffffffffffffffffffffffffffffffffffffffffffffff0382111561233e5761233d6122c4565b5b828201905092915050565b7f4e487b7100000000000000000000000000000000000000000000000000000000600052603260045260246000fd5b600061238382611cf7565b915061238e83611cf7565b9250817fffffffffffffffffffffffffffffffffffffffffffffffffffffffffffffffff04831182151516156123c7576123c66122c4565b5b828202905092915050565b7f4e487b7100000000000000000000000000000000000000000000000000000000600052601260045260246000fd5b600061240c82611cf7565b915061241783611cf7565b925082612427576124266123d2565b5b828204905092915050565b600061243d82611cf7565b915061244883611cf7565b92508282101561245b5761245a6122c4565b5b828203905092915050565b600060808201905061247b6000830187611ec9565b6124886020830186611ec9565b6124956040830185611db8565b6124a26060830184611db8565b95945050505050565b7f6e6f7420656e6f7567682062616c616e63650000000000000000000000000000600082015250565b60006124e160128361218f565b91506124ec826124ab565b602082019050919050565b60006020820190508181036000830152612510816124d4565b9050919050565b600060608201905061252c6000830186611ec9565b6125396020830185611db8565b6125466040830184611db8565b949350505050565b60008151905061255d81611d01565b92915050565b60006020828403121561257957612578611c94565b5b60006125878482850161254e565b91505092915050565b60006040820190506125a56000830185611ec9565b6125b26020830184611db8565b9392505050565b60006125c482611cf7565b91507fffffffffffffffffffffffffffffffffffffffffffffffffffffffffffffffff8214156125f7576125f66122c4565b5b600182019050919050565b7f6e6f207375636820706f6f6c2c20796f757220706f6f6c4964206d617920626560008201527f2077726f6e670000000000000000000000000000000000000000000000000000602082015250565b600061265e60268361218f565b915061266982612602565b604082019050919050565b6000602082019050818103600083015261268d81612651565b9050919050565b6000815190506126a381611d39565b92915050565b6000602082840312156126bf576126be611c94565b5b60006126cd84828501612694565b91505092915050565b60006060820190506126eb6000830186611ec9565b6126f86020830185611ec9565b6127056040830184611db8565b949350505050565b7f5361666545524332303a204552433230206f7065726174696f6e20646964206e60008201527f6f74207375636365656400000000000000000000000000000000000000000000602082015250565b6000612769602a8361218f565b91506127748261270d565b604082019050919050565b600060208201905081810360008301526127988161275c565b9050919050565b7f416464726573733a20696e73756666696369656e742062616c616e636520666f60008201527f722063616c6c0000000000000000000000000000000000000000000000000000602082015250565b60006127fb60268361218f565b91506128068261279f565b604082019050919050565b6000602082019050818103600083015261282a816127ee565b9050919050565b7f416464726573733a2063616c6c20746f206e6f6e2d636f6e7472616374000000600082015250565b6000612867601d8361218f565b915061287282612831565b602082019050919050565b600060208201905081810360008301526128968161285a565b9050919050565b600081519050919050565b600081905092915050565b60005b838110156128d15780820151818401526020810190506128b6565b838111156128e0576000848401525b50505050565b60006128f18261289d565b6128fb81856128a8565b935061290b8185602086016128b3565b80840191505092915050565b600061292382846128e6565b915081905092915050565b600081519050919050565b6000601f19601f8301169050919050565b60006129558261292e565b61295f818561218f565b935061296f8185602086016128b3565b61297881612939565b840191505092915050565b6000602082019050818103600083015261299d818461294a565b90509291505056fea264697066735822122013a7c36de950cb2d22ce6ddc2cac6c16ecfe73ff570f1a2989aefa2c7304c8ed64736f6c63430008090033",
  "immutableReferences": {},
  "source": "// SPDX-License-Identifier: MIT\npragma solidity 0.8.9;\n\nimport \"@openzeppelin/contracts/token/ERC20/IERC20.sol\";\nimport \"@openzeppelin/contracts/token/ERC20/utils/SafeERC20.sol\";\nimport \"prb-math/contracts/PRBMathUD60x18.sol\";\nimport \"./interfaces/ILPToken.sol\";\nimport \"./interfaces/IDegisToken.sol\";\nimport \"./interfaces/IFarmingPool.sol\";\n\n/**\n * @title  Farming Pool\n * @notice This contract is similar to MasterChef\n * @dev    The pool id starts from 1 not 0\n */\n\ncontract FarmingPool is IFarmingPool {\n    using PRBMathUD60x18 for uint256;\n    using SafeERC20 for IERC20;\n    using SafeERC20 for IDegisToken;\n\n    address public owner;\n\n    // PoolId starts from 1\n    uint256 public _nextPoolId;\n\n    struct PoolInfo {\n        address lpToken;\n        uint256 degisPerBlock;\n        uint256 lastRewardBlock;\n        uint256 accDegisPerShare;\n    }\n    PoolInfo[] public poolList;\n\n    mapping(address => uint256) public poolMapping; // lptoken => poolId\n\n    mapping(uint256 => bool) public isFarming; // poolId => alreadyFarming\n\n    struct UserInfo {\n        uint256 rewardDebt; // degis reward debt\n        uint256 stakingBalance; // the amount of a user's staking in the pool\n    }\n    // poolId => userAddress => userInfo\n    mapping(uint256 => mapping(address => UserInfo)) public userInfo;\n\n    // The reward token is degis\n    IDegisToken public degis;\n\n    uint256 public startBlock; // Farming starts from a certain block number\n\n    constructor(address _degis) {\n        degis = IDegisToken(_degis);\n\n        owner = msg.sender;\n\n        // Start from 1\n        _nextPoolId = 1;\n\n        // Manually fit the poolList[0] to avoid potential misleading\n        poolList.push(\n            PoolInfo({\n                lpToken: address(0),\n                degisPerBlock: 0,\n                lastRewardBlock: 0,\n                accDegisPerShare: 0\n            })\n        );\n    }\n\n    // ---------------------------------------------------------------------------------------- //\n    // ************************************** Modifiers *************************************** //\n    // ---------------------------------------------------------------------------------------- //\n\n    modifier onlyOwner() {\n        require(msg.sender == owner, \"Only the owner can call this function\");\n        _;\n    }\n\n    /**\n     * @notice The address can not be zero\n     */\n    modifier notZeroAddress(address _address) {\n        require(_address != address(0), \"the address can not be zero address\");\n        _;\n    }\n\n    // ---------------------------------------------------------------------------------------- //\n    // *********************************** View Functions ************************************* //\n    // ---------------------------------------------------------------------------------------- //\n\n    /**\n     * @notice Check the amount of pending degis reward\n     * @param _poolId PoolId of this farming pool\n     * @param _userAddress User address\n     * @return pendingDegisAmount Amount of pending degis\n     */\n    function pendingDegis(uint256 _poolId, address _userAddress)\n        public\n        view\n        notZeroAddress(_userAddress)\n        returns (uint256)\n    {\n        PoolInfo storage poolInfo = poolList[_poolId];\n\n        if (block.number < poolInfo.lastRewardBlock) return 0;\n\n        UserInfo storage user = userInfo[_poolId][_userAddress];\n\n        uint256 lp_balance = IERC20(poolInfo.lpToken).balanceOf(address(this));\n\n        uint256 accDegisPerShare = poolInfo.accDegisPerShare;\n\n        if (lp_balance > 0) {\n            // Deigs amount given to this pool\n            uint256 blocks = block.number - poolInfo.lastRewardBlock;\n            uint256 degisReward = poolInfo.degisPerBlock * blocks;\n\n            // Update accDegisPerShare\n            accDegisPerShare += (degisReward * 1e18) / lp_balance;\n\n            uint256 pending = ((user.stakingBalance * accDegisPerShare) /\n                1e18) - user.rewardDebt;\n            return pending;\n        } else {\n            return 0;\n        }\n    }\n\n    /**\n     * @notice Get the total pool list\n     */\n    function getPoolList() external view returns (PoolInfo[] memory) {\n        return poolList;\n    }\n\n    /**\n     * @notice Get user balance\n     * @param _poolId Id of the pool\n     * @param _userAddress Address of the user\n     * @return _balance User's balance (lpToken)\n     */\n    function getUserBalance(uint256 _poolId, address _userAddress)\n        external\n        view\n        returns (uint256 _balance)\n    {\n        return userInfo[_poolId][_userAddress].stakingBalance;\n    }\n\n    // ---------------------------------------------------------------------------------------- //\n    // ************************************* Set Functions ************************************ //\n    // ---------------------------------------------------------------------------------------- //\n\n    /**\n     * @notice Set the start block number\n     * @param _startBlock New start block number\n     */\n    function setStartBlock(uint256 _startBlock) external onlyOwner {\n        startBlock = _startBlock;\n    }\n\n    // ---------------------------------------------------------------------------------------- //\n    // *********************************** Main Functions ************************************* //\n    // ---------------------------------------------------------------------------------------- //\n\n    /**\n     * @notice Add a new lp to the pool. Can only be called by the owner.\n     * @param _lpToken LP token address\n     * @param _degisPerBlock Reward distribution per block for this new pool\n     * @param _withUpdate Whether update all pools' status\n     */\n    function add(\n        address _lpToken,\n        uint256 _degisPerBlock,\n        bool _withUpdate\n    ) public notZeroAddress(_lpToken) onlyOwner {\n        // Check if already exists, if the poolId is 0, that means not in the pool\n        bool isInPool = _alreadyInPool(_lpToken);\n\n        // Maybe better to use require, I just want to test this form\n        if (isInPool) {\n            revert AlreadyInPool(_lpToken);\n        }\n\n        if (_withUpdate) {\n            massUpdatePools();\n        }\n\n        uint256 lastRewardBlock = block.number > startBlock\n            ? block.number\n            : startBlock;\n\n        // Push this new pool into the list\n        poolList.push(\n            PoolInfo({\n                lpToken: _lpToken,\n                degisPerBlock: _degisPerBlock,\n                lastRewardBlock: lastRewardBlock,\n                accDegisPerShare: 0\n            })\n        );\n\n        // Store the poolId and set the farming status to true\n        poolMapping[_lpToken] = _nextPoolId;\n        isFarming[_nextPoolId] = true;\n\n        _nextPoolId += 1;\n\n        emit NewPoolAdded(_lpToken);\n    }\n\n    /**\n     * @notice Update the degisPerBlock for a specific pool (set to 0 to stop farming)\n     * @param _poolId Id of the farming pool\n     * @param _degisPerBlock New reward amount per block\n     * @param _withUpdate Whether update all the pool\n     */\n    function setDegisReward(\n        uint256 _poolId,\n        uint256 _degisPerBlock,\n        bool _withUpdate\n    ) public onlyOwner {\n        // Ensure there already exists this pool\n        require(\n            poolList[_poolId].lastRewardBlock != 0,\n            \"no such pool, your poolId may be wrong\"\n        );\n        if (_withUpdate) {\n            massUpdatePools();\n        }\n\n        if (isFarming[_poolId] == false && _degisPerBlock > 0) {\n            isFarming[_poolId] = true;\n            emit RestartFarmingPool(_poolId, block.number);\n        }\n\n        if (_degisPerBlock == 0) {\n            isFarming[_poolId] = false;\n            emit StopFarmingPool(_poolId, block.number);\n        }\n        poolList[_poolId].degisPerBlock = _degisPerBlock;\n    }\n\n    /**\n     * @notice Stake LP token into the farming pool\n     * @param _poolId Id of the farming pool\n     * @param _amount Staking amount\n     */\n    function stake(uint256 _poolId, uint256 _amount) public {\n        PoolInfo storage pool = poolList[_poolId];\n        UserInfo storage user = userInfo[_poolId][msg.sender];\n\n        // Must update first!!\n        updatePool(_poolId);\n\n        if (user.stakingBalance > 0) {\n            uint256 pending = (user.stakingBalance * pool.accDegisPerShare) /\n                1e18 -\n                user.rewardDebt;\n\n            safeDegisTransfer(msg.sender, pending);\n        }\n\n        // Approve\n        IERC20(pool.lpToken).safeTransferFrom(\n            address(msg.sender),\n            address(this),\n            _amount\n        );\n\n        user.stakingBalance += _amount;\n        user.rewardDebt = (user.stakingBalance * pool.accDegisPerShare) / 1e18;\n\n        emit Stake(msg.sender, _poolId, _amount);\n    }\n\n    /**\n     * @notice Withdraw lptoken from the pool\n     * @param _poolId Id of the farming pool\n     * @param _amount Amount of lp tokens to withdraw\n     */\n    function withdraw(uint256 _poolId, uint256 _amount) public {\n        PoolInfo storage pool = poolList[_poolId];\n        UserInfo storage user = userInfo[_poolId][msg.sender];\n\n        require(user.stakingBalance >= _amount, \"not enough balance\");\n\n        updatePool(_poolId);\n\n        uint256 pending = (user.stakingBalance * pool.accDegisPerShare) /\n            1e18 -\n            user.rewardDebt;\n\n        safeDegisTransfer(msg.sender, pending);\n\n        user.stakingBalance -= _amount;\n        user.rewardDebt = (user.stakingBalance * pool.accDegisPerShare) / 1e18;\n\n        IERC20(pool.lpToken).safeTransfer(address(msg.sender), _amount);\n\n        emit Withdraw(msg.sender, _poolId, _amount);\n    }\n\n    /**\n     * @notice Update the pool's reward status\n     * @param _poolId Id of the farming pool\n     */\n    function updatePool(uint256 _poolId) public {\n        PoolInfo storage pool = poolList[_poolId];\n        if (block.number <= pool.lastRewardBlock) {\n            return;\n        }\n\n        uint256 lpSupply = IERC20(pool.lpToken).balanceOf(address(this));\n        if (lpSupply == 0) {\n            pool.lastRewardBlock = block.number;\n            return;\n        }\n\n        uint256 blocks = block.number - pool.lastRewardBlock;\n        uint256 degisReward = blocks * pool.degisPerBlock;\n\n        // Don't forget to set the farming pool as minter\n        degis.mint(address(this), degisReward);\n\n        pool.accDegisPerShare += (degisReward * 1e18) / lpSupply;\n        pool.lastRewardBlock = block.number;\n\n        emit PoolUpdated(_poolId);\n    }\n\n    /**\n     * @notice Harvest the degis reward and can be sent to another address\n     * @param _poolId: Id of the farming pool\n     * @param _to Receiver of degis rewards.\n     */\n    function harvest(uint256 _poolId, address _to) public {\n        updatePool(_poolId);\n        PoolInfo memory pool = poolList[_poolId];\n        UserInfo storage user = userInfo[_poolId][msg.sender];\n\n        uint256 pendingReward = (user.stakingBalance * pool.accDegisPerShare) /\n            (1e18) -\n            user.rewardDebt;\n\n        // Effects\n        user.rewardDebt = (user.stakingBalance * pool.accDegisPerShare) / 1e18;\n\n        // Interactions\n        if (pendingReward != 0) {\n            degis.safeTransfer(_to, pendingReward);\n        }\n\n        emit Harvest(msg.sender, _to, _poolId, pendingReward);\n    }\n\n    /**\n     * @notice Update all farming pools (except for those stopped ones)\n     */\n    function massUpdatePools() public {\n        uint256 length = poolList.length;\n        for (uint256 poolId = 0; poolId < length; poolId++) {\n            if (isFarming[poolId] == false) continue;\n            else updatePool(poolId);\n        }\n    }\n\n    // ---------------------------------------------------------------------------------------- //\n    // ********************************** Internal Functions ********************************** //\n    // ---------------------------------------------------------------------------------------- //\n\n    /**\n     * @notice Check if a lptoken has been added into the pool before\n     * @dev This can be written as a modifier, I just want to test the error form\n     * @param _lpTokenAddress LP token address\n     * @return _isInPool Wether this lp already in pool\n     */\n    function _alreadyInPool(address _lpTokenAddress)\n        internal\n        view\n        returns (bool _isInPool)\n    {\n        uint256 poolId = poolMapping[_lpTokenAddress];\n        // Never been added\n        if (poolId == 0) _isInPool = false;\n        else _isInPool = true;\n    }\n\n    /**\n     * @notice Safe degis transfer (check if the pool has enough DEGIS token)\n     * @param _to User's address\n     * @param _amount Amount to transfer\n     */\n    function safeDegisTransfer(address _to, uint256 _amount) internal {\n        uint256 DegisBalance = degis.balanceOf(address(this));\n        if (_amount > DegisBalance) {\n            degis.transfer(_to, DegisBalance);\n        } else {\n            degis.transfer(_to, _amount);\n        }\n    }\n\n    /**\n     * @notice Do division via PRBMath\n     * @dev    E.g. doDiv(1, 1) = 1e18  doDiv(1, 10) = 1e17 doDiv(10, 1) = 1e19\n     */\n    function _doDiv(uint256 x, uint256 y) internal pure returns (uint256) {\n        return PRBMathUD60x18.div(x, y);\n    }\n\n    /**\n     * @notice Do multiplication via PRBMath\n     * @dev    E.g. doMul(1, 1) = 1e18  doMul(2, 5) = 1e19\n     */\n    function _doMul(uint256 x, uint256 y) internal pure returns (uint256) {\n        return PRBMathUD60x18.mul(x, y);\n    }\n}\n",
  "sourcePath": "/Volumes/Store/src/Degis-Contracts-1/contracts/FarmingPool.sol",
  "compiler": {
    "name": "solc",
    "version": "0.8.9+commit.e5eed63a.Emscripten.clang"
  },
  "schemaVersion": "3.4.3",
  "updatedAt": "2021-12-05T18:07:37.553Z",
  "networkType": "ethereum",
  "devdoc": {
    "details": "The pool id starts from 1 not 0",
    "kind": "dev",
    "methods": {
      "add(address,uint256,bool)": {
        "params": {
          "_degisPerBlock": "Reward distribution per block for this new pool",
          "_lpToken": "LP token address",
          "_withUpdate": "Whether update all pools' status"
        }
      },
      "getUserBalance(uint256,address)": {
        "params": {
          "_poolId": "Id of the pool",
          "_userAddress": "Address of the user"
        },
        "returns": {
          "_balance": "User's balance (lpToken)"
        }
      },
      "harvest(uint256,address)": {
        "params": {
          "_poolId": ": Id of the farming pool",
          "_to": "Receiver of degis rewards."
        }
      },
      "pendingDegis(uint256,address)": {
        "params": {
          "_poolId": "PoolId of this farming pool",
          "_userAddress": "User address"
        },
        "returns": {
          "_0": "pendingDegisAmount Amount of pending degis"
        }
      },
      "setDegisReward(uint256,uint256,bool)": {
        "params": {
          "_degisPerBlock": "New reward amount per block",
          "_poolId": "Id of the farming pool",
          "_withUpdate": "Whether update all the pool"
        }
      },
      "setStartBlock(uint256)": {
        "params": {
          "_startBlock": "New start block number"
        }
      },
      "stake(uint256,uint256)": {
        "params": {
          "_amount": "Staking amount",
          "_poolId": "Id of the farming pool"
        }
      },
      "updatePool(uint256)": {
        "params": {
          "_poolId": "Id of the farming pool"
        }
      },
      "withdraw(uint256,uint256)": {
        "params": {
          "_amount": "Amount of lp tokens to withdraw",
          "_poolId": "Id of the farming pool"
        }
      }
    },
    "title": "Farming Pool",
    "version": 1
  },
  "userdoc": {
    "kind": "user",
    "methods": {
      "add(address,uint256,bool)": {
        "notice": "Add a new lp to the pool. Can only be called by the owner."
      },
      "getPoolList()": {
        "notice": "Get the total pool list"
      },
      "getUserBalance(uint256,address)": {
        "notice": "Get user balance"
      },
      "harvest(uint256,address)": {
        "notice": "Harvest the degis reward and can be sent to another address"
      },
      "massUpdatePools()": {
        "notice": "Update all farming pools (except for those stopped ones)"
      },
      "pendingDegis(uint256,address)": {
        "notice": "Check the amount of pending degis reward"
      },
      "setDegisReward(uint256,uint256,bool)": {
        "notice": "Update the degisPerBlock for a specific pool (set to 0 to stop farming)"
      },
      "setStartBlock(uint256)": {
        "notice": "Set the start block number"
      },
      "stake(uint256,uint256)": {
        "notice": "Stake LP token into the farming pool"
      },
      "updatePool(uint256)": {
        "notice": "Update the pool's reward status"
      },
      "withdraw(uint256,uint256)": {
        "notice": "Withdraw lptoken from the pool"
      }
    },
    "notice": "This contract is similar to MasterChef",
    "version": 1
  }
}