{
  "contractName": "FarmingPool",
  "abi": [
    {
      "inputs": [
        {
          "internalType": "address",
          "name": "_degis",
          "type": "address"
        }
      ],
      "stateMutability": "nonpayable",
      "type": "constructor"
    },
    {
      "inputs": [
        {
          "internalType": "address",
          "name": "_lpToken",
          "type": "address"
        }
      ],
      "name": "AlreadyInPool",
      "type": "error"
    },
    {
      "anonymous": false,
      "inputs": [
        {
          "indexed": false,
          "internalType": "address",
          "name": "_staker",
          "type": "address"
        },
        {
          "indexed": false,
          "internalType": "address",
          "name": "_rewardReceiver",
          "type": "address"
        },
        {
          "indexed": false,
          "internalType": "uint256",
          "name": "_poolId",
          "type": "uint256"
        },
        {
          "indexed": false,
          "internalType": "uint256",
          "name": "_pendingReward",
          "type": "uint256"
        }
      ],
      "name": "Harvest",
      "type": "event"
    },
    {
      "anonymous": false,
      "inputs": [
        {
          "indexed": false,
          "internalType": "address",
          "name": "_lpToken",
          "type": "address"
        }
      ],
      "name": "NewPoolAdded",
      "type": "event"
    },
    {
      "anonymous": false,
      "inputs": [
        {
          "indexed": false,
          "internalType": "uint256",
          "name": "_poolId",
          "type": "uint256"
        },
        {
          "indexed": false,
          "internalType": "uint256",
          "name": "_blockNumber",
          "type": "uint256"
        }
      ],
      "name": "RestartFarmingPool",
      "type": "event"
    },
    {
      "anonymous": false,
      "inputs": [
        {
          "indexed": false,
          "internalType": "address",
          "name": "_staker",
          "type": "address"
        },
        {
          "indexed": false,
          "internalType": "uint256",
          "name": "_poolId",
          "type": "uint256"
        },
        {
          "indexed": false,
          "internalType": "uint256",
          "name": "_amount",
          "type": "uint256"
        }
      ],
      "name": "Stake",
      "type": "event"
    },
    {
      "anonymous": false,
      "inputs": [
        {
          "indexed": false,
          "internalType": "uint256",
          "name": "_poolId",
          "type": "uint256"
        },
        {
          "indexed": false,
          "internalType": "uint256",
          "name": "_blockNumber",
          "type": "uint256"
        }
      ],
      "name": "StopFarmingPool",
      "type": "event"
    },
    {
      "anonymous": false,
      "inputs": [
        {
          "indexed": false,
          "internalType": "address",
          "name": "_staker",
          "type": "address"
        },
        {
          "indexed": false,
          "internalType": "uint256",
          "name": "_poolId",
          "type": "uint256"
        },
        {
          "indexed": false,
          "internalType": "uint256",
          "name": "_amount",
          "type": "uint256"
        }
      ],
      "name": "Withdraw",
      "type": "event"
    },
    {
      "inputs": [],
      "name": "_nextPoolId",
      "outputs": [
        {
          "internalType": "uint256",
          "name": "",
          "type": "uint256"
        }
      ],
      "stateMutability": "view",
      "type": "function",
      "constant": true
    },
    {
      "inputs": [],
      "name": "degis",
      "outputs": [
        {
          "internalType": "contract IDegisToken",
          "name": "",
          "type": "address"
        }
      ],
      "stateMutability": "view",
      "type": "function",
      "constant": true
    },
    {
      "inputs": [
        {
          "internalType": "uint256",
          "name": "",
          "type": "uint256"
        }
      ],
      "name": "isFarming",
      "outputs": [
        {
          "internalType": "bool",
          "name": "",
          "type": "bool"
        }
      ],
      "stateMutability": "view",
      "type": "function",
      "constant": true
    },
    {
      "inputs": [],
      "name": "owner",
      "outputs": [
        {
          "internalType": "address",
          "name": "",
          "type": "address"
        }
      ],
      "stateMutability": "view",
      "type": "function",
      "constant": true
    },
    {
      "inputs": [
        {
          "internalType": "uint256",
          "name": "",
          "type": "uint256"
        }
      ],
      "name": "poolList",
      "outputs": [
        {
          "internalType": "address",
          "name": "lpToken",
          "type": "address"
        },
        {
          "internalType": "uint256",
          "name": "degisPerBlock",
          "type": "uint256"
        },
        {
          "internalType": "uint256",
          "name": "lastRewardBlock",
          "type": "uint256"
        },
        {
          "internalType": "uint256",
          "name": "accDegisPerShare",
          "type": "uint256"
        }
      ],
      "stateMutability": "view",
      "type": "function",
      "constant": true
    },
    {
      "inputs": [
        {
          "internalType": "address",
          "name": "",
          "type": "address"
        }
      ],
      "name": "poolMapping",
      "outputs": [
        {
          "internalType": "uint256",
          "name": "",
          "type": "uint256"
        }
      ],
      "stateMutability": "view",
      "type": "function",
      "constant": true
    },
    {
      "inputs": [],
      "name": "startBlock",
      "outputs": [
        {
          "internalType": "uint256",
          "name": "",
          "type": "uint256"
        }
      ],
      "stateMutability": "view",
      "type": "function",
      "constant": true
    },
    {
      "inputs": [
        {
          "internalType": "uint256",
          "name": "_poolId",
          "type": "uint256"
        },
        {
          "internalType": "address",
          "name": "_userAddress",
          "type": "address"
        }
      ],
      "name": "pendingDegis",
      "outputs": [
        {
          "internalType": "uint256",
          "name": "",
          "type": "uint256"
        }
      ],
      "stateMutability": "view",
      "type": "function",
      "constant": true
    },
    {
      "inputs": [],
      "name": "getPoolList",
      "outputs": [
        {
          "components": [
            {
              "internalType": "address",
              "name": "lpToken",
              "type": "address"
            },
            {
              "internalType": "uint256",
              "name": "degisPerBlock",
              "type": "uint256"
            },
            {
              "internalType": "uint256",
              "name": "lastRewardBlock",
              "type": "uint256"
            },
            {
              "internalType": "uint256",
              "name": "accDegisPerShare",
              "type": "uint256"
            }
          ],
          "internalType": "struct FarmingPool.PoolInfo[]",
          "name": "",
          "type": "tuple[]"
        }
      ],
      "stateMutability": "view",
      "type": "function",
      "constant": true
    },
    {
      "inputs": [
        {
          "internalType": "uint256",
          "name": "_startBlock",
          "type": "uint256"
        }
      ],
      "name": "setStartBlock",
      "outputs": [],
      "stateMutability": "nonpayable",
      "type": "function"
    },
    {
      "inputs": [
        {
          "internalType": "address",
          "name": "_lpToken",
          "type": "address"
        },
        {
          "internalType": "uint256",
          "name": "_degisPerBlock",
          "type": "uint256"
        },
        {
          "internalType": "bool",
          "name": "_withUpdate",
          "type": "bool"
        }
      ],
      "name": "add",
      "outputs": [],
      "stateMutability": "nonpayable",
      "type": "function"
    },
    {
      "inputs": [
        {
          "internalType": "uint256",
          "name": "_poolId",
          "type": "uint256"
        },
        {
          "internalType": "uint256",
          "name": "_degisPerBlock",
          "type": "uint256"
        },
        {
          "internalType": "bool",
          "name": "_withUpdate",
          "type": "bool"
        }
      ],
      "name": "setDegisReward",
      "outputs": [],
      "stateMutability": "nonpayable",
      "type": "function"
    },
    {
      "inputs": [
        {
          "internalType": "uint256",
          "name": "_poolId",
          "type": "uint256"
        },
        {
          "internalType": "uint256",
          "name": "_amount",
          "type": "uint256"
        }
      ],
      "name": "stake",
      "outputs": [],
      "stateMutability": "nonpayable",
      "type": "function"
    },
    {
      "inputs": [
        {
          "internalType": "uint256",
          "name": "_poolId",
          "type": "uint256"
        },
        {
          "internalType": "uint256",
          "name": "_amount",
          "type": "uint256"
        }
      ],
      "name": "withdraw",
      "outputs": [],
      "stateMutability": "nonpayable",
      "type": "function"
    },
    {
      "inputs": [
        {
          "internalType": "uint256",
          "name": "_poolId",
          "type": "uint256"
        }
      ],
      "name": "updatePool",
      "outputs": [],
      "stateMutability": "nonpayable",
      "type": "function"
    },
    {
      "inputs": [
        {
          "internalType": "uint256",
          "name": "_poolId",
          "type": "uint256"
        },
        {
          "internalType": "address",
          "name": "_to",
          "type": "address"
        }
      ],
      "name": "harvest",
      "outputs": [],
      "stateMutability": "nonpayable",
      "type": "function"
    },
    {
      "inputs": [],
      "name": "massUpdatePools",
      "outputs": [],
      "stateMutability": "nonpayable",
      "type": "function"
    }
  ],
  "bytecode": "0x60806040523480156200001157600080fd5b506040516200292c3803806200292c833981810160405281019062000037919062000130565b80600660006101000a81548173ffffffffffffffffffffffffffffffffffffffff021916908373ffffffffffffffffffffffffffffffffffffffff160217905550336000806101000a81548173ffffffffffffffffffffffffffffffffffffffff021916908373ffffffffffffffffffffffffffffffffffffffff160217905550600180819055505062000162565b600080fd5b600073ffffffffffffffffffffffffffffffffffffffff82169050919050565b6000620000f882620000cb565b9050919050565b6200010a81620000eb565b81146200011657600080fd5b50565b6000815190506200012a81620000ff565b92915050565b600060208284031215620001495762000148620000c6565b5b6000620001598482850162000119565b91505092915050565b6127ba80620001726000396000f3fe608060405234801561001057600080fd5b506004361061010b5760003560e01c806351eb05a6116100a2578063a06ddcb311610071578063a06ddcb314610281578063d13f67bc146102b1578063d41dcbea146102e1578063f35e4a6e146102ff578063f3c30c0a1461031b5761010b565b806351eb05a614610221578063630b5ba11461023d5780637b0472f0146102475780638da5cb5b146102635761010b565b80632a48235b116100de5780632a48235b146101845780632c678a3e146101b7578063441a3e70146101e757806348cd4cb1146102035761010b565b80630dec23121461011057806317fb77de1461012c57806318fccc761461014a57806329fd200714610166575b600080fd5b61012a60048036038101906101259190611b44565b610337565b005b6101346105d0565b6040516101419190611ba6565b60405180910390f35b610164600480360381019061015f9190611bc1565b6105d6565b005b61016e6107c8565b60405161017b9190611c60565b60405180910390f35b61019e60048036038101906101999190611c7b565b6107ee565b6040516101ae9493929190611cb7565b60405180910390f35b6101d160048036038101906101cc9190611cfc565b61084e565b6040516101de9190611ba6565b60405180910390f35b61020160048036038101906101fc9190611d29565b610866565b005b61020b610a29565b6040516102189190611ba6565b60405180910390f35b61023b60048036038101906102369190611c7b565b610a2f565b005b610245610c1e565b005b610261600480360381019061025c9190611d29565b610c86565b005b61026b610e12565b6040516102789190611d69565b60405180910390f35b61029b60048036038101906102969190611c7b565b610e36565b6040516102a89190611d93565b60405180910390f35b6102cb60048036038101906102c69190611bc1565b610e56565b6040516102d89190611ba6565b60405180910390f35b6102e96110c5565b6040516102f69190611ed0565b60405180910390f35b61031960048036038101906103149190611c7b565b611198565b005b61033560048036038101906103309190611ef2565b611230565b005b60008054906101000a900473ffffffffffffffffffffffffffffffffffffffff1673ffffffffffffffffffffffffffffffffffffffff163373ffffffffffffffffffffffffffffffffffffffff16146103c5576040517f08c379a00000000000000000000000000000000000000000000000000000000081526004016103bc90611fc8565b60405180910390fd5b60006103d084611473565b9050801561041557836040517fac7195c000000000000000000000000000000000000000000000000000000000815260040161040c9190611d69565b60405180910390fd5b811561042457610423610c1e565b5b6000600754431161043757600754610439565b435b9050600460405180608001604052808773ffffffffffffffffffffffffffffffffffffffff1681526020018681526020018381526020016000815250908060018154018082558091505060019003906000526020600020906004020160009091909190915060008201518160000160006101000a81548173ffffffffffffffffffffffffffffffffffffffff021916908373ffffffffffffffffffffffffffffffffffffffff1602179055506020820151816001015560408201518160020155606082015181600301555050600154600260008773ffffffffffffffffffffffffffffffffffffffff1673ffffffffffffffffffffffffffffffffffffffff16815260200190815260200160002081905550600160036000600154815260200190815260200160002060006101000a81548160ff021916908315150217905550600180600082825461058b9190612017565b925050819055507ff816b5143086c89d103a0683286be86c2b741e83ebfa75135aae606e2f5c6e53856040516105c19190611d69565b60405180910390a15050505050565b60015481565b6105df82610a2f565b6000600483815481106105f5576105f461206d565b5b90600052602060002090600402016040518060800160405290816000820160009054906101000a900473ffffffffffffffffffffffffffffffffffffffff1673ffffffffffffffffffffffffffffffffffffffff1673ffffffffffffffffffffffffffffffffffffffff1681526020016001820154815260200160028201548152602001600382015481525050905060006005600085815260200190815260200160002060003373ffffffffffffffffffffffffffffffffffffffff1673ffffffffffffffffffffffffffffffffffffffff168152602001908152602001600020905060008160000154670de0b6b3a7640000846060015184600101546106fc919061209c565b6107069190612125565b6107109190612156565b905082606001518260010154610726919061209c565b826000018190555060008114610784576107838482600660009054906101000a900473ffffffffffffffffffffffffffffffffffffffff1673ffffffffffffffffffffffffffffffffffffffff166114d59092919063ffffffff16565b5b7fdec9257d126f56798a34ce7ca0ffedeaa9a024543946f79c3b5038035ba32a1e338587846040516107b9949392919061218a565b60405180910390a15050505050565b600660009054906101000a900473ffffffffffffffffffffffffffffffffffffffff1681565b600481815481106107fe57600080fd5b90600052602060002090600402016000915090508060000160009054906101000a900473ffffffffffffffffffffffffffffffffffffffff16908060010154908060020154908060030154905084565b60026020528060005260406000206000915090505481565b60006004838154811061087c5761087b61206d565b5b9060005260206000209060040201905060006005600085815260200190815260200160002060003373ffffffffffffffffffffffffffffffffffffffff1673ffffffffffffffffffffffffffffffffffffffff16815260200190815260200160002090508281600101541015610927576040517f08c379a000000000000000000000000000000000000000000000000000000000815260040161091e9061221b565b60405180910390fd5b61093084610a2f565b600081600001548360030154836001015461094b919061209c565b6109559190612156565b9050610961338261155b565b838260010160008282546109759190612156565b9250508190555082600301548260010154610990919061209c565b82600001819055506109e733858560000160009054906101000a900473ffffffffffffffffffffffffffffffffffffffff1673ffffffffffffffffffffffffffffffffffffffff166114d59092919063ffffffff16565b7ff279e6a1f5e320cca91135676d9cb6e44ca8a08c0b88342bcdb1144f6511b568338686604051610a1a9392919061223b565b60405180910390a15050505050565b60075481565b600060048281548110610a4557610a4461206d565b5b9060005260206000209060040201905080600201544311610a665750610c1b565b60008160000160009054906101000a900473ffffffffffffffffffffffffffffffffffffffff1673ffffffffffffffffffffffffffffffffffffffff166370a08231306040518263ffffffff1660e01b8152600401610ac59190611d69565b60206040518083038186803b158015610add57600080fd5b505afa158015610af1573d6000803e3d6000fd5b505050506040513d601f19601f82011682018060405250810190610b159190612287565b90506000811415610b30574382600201819055505050610c1b565b6000826002015443610b429190612156565b90506000836001015482610b56919061209c565b9050600660009054906101000a900473ffffffffffffffffffffffffffffffffffffffff1673ffffffffffffffffffffffffffffffffffffffff166340c10f1930836040518363ffffffff1660e01b8152600401610bb59291906122b4565b600060405180830381600087803b158015610bcf57600080fd5b505af1158015610be3573d6000803e3d6000fd5b505050508281610bf39190612125565b846003016000828254610c069190612017565b92505081905550438460020181905550505050505b50565b6000600480549050905060005b81811015610c8257600015156003600083815260200190815260200160002060009054906101000a900460ff1615151415610c6557610c6f565b610c6e81610a2f565b5b8080610c7a906122dd565b915050610c2b565b5050565b600060048381548110610c9c57610c9b61206d565b5b9060005260206000209060040201905060006005600085815260200190815260200160002060003373ffffffffffffffffffffffffffffffffffffffff1673ffffffffffffffffffffffffffffffffffffffff1681526020019081526020016000209050610d0984610a2f565b600081600101541115610d49576000816000015483600301548360010154610d31919061209c565b610d3b9190612156565b9050610d47338261155b565b505b610d9a3330858560000160009054906101000a900473ffffffffffffffffffffffffffffffffffffffff1673ffffffffffffffffffffffffffffffffffffffff1661177d909392919063ffffffff16565b82816001016000828254610dae9190612017565b9250508190555081600301548160010154610dc9919061209c565b81600001819055507f5af417134f72a9d41143ace85b0a26dce6f550f894f2cbc1eeee8810603d91b6338585604051610e049392919061223b565b60405180910390a150505050565b60008054906101000a900473ffffffffffffffffffffffffffffffffffffffff1681565b60036020528060005260406000206000915054906101000a900460ff1681565b600081600073ffffffffffffffffffffffffffffffffffffffff168173ffffffffffffffffffffffffffffffffffffffff161415610ec9576040517f08c379a0000000000000000000000000000000000000000000000000000000008152600401610ec090612398565b60405180910390fd5b600060048581548110610edf57610ede61206d565b5b906000526020600020906004020190508060020154431015610f055760009250506110be565b60006005600087815260200190815260200160002060008673ffffffffffffffffffffffffffffffffffffffff1673ffffffffffffffffffffffffffffffffffffffff168152602001908152602001600020905060008260000160009054906101000a900473ffffffffffffffffffffffffffffffffffffffff1673ffffffffffffffffffffffffffffffffffffffff166370a08231876040518263ffffffff1660e01b8152600401610fb89190611d69565b60206040518083038186803b158015610fd057600080fd5b505afa158015610fe4573d6000803e3d6000fd5b505050506040513d601f19601f820116820180604052508101906110089190612287565b905060008360030154905060008211156110b557600084600201544361102e9190612156565b90506000818660010154611042919061209c565b905083670de0b6b3a764000082611059919061209c565b6110639190612125565b8361106e9190612017565b925060008560000154670de0b6b3a7640000858860010154611090919061209c565b61109a9190612125565b6110a49190612156565b9050809850505050505050506110be565b60009550505050505b5092915050565b60606004805480602002602001604051908101604052809291908181526020016000905b8282101561118f57838290600052602060002090600402016040518060800160405290816000820160009054906101000a900473ffffffffffffffffffffffffffffffffffffffff1673ffffffffffffffffffffffffffffffffffffffff1673ffffffffffffffffffffffffffffffffffffffff1681526020016001820154815260200160028201548152602001600382015481525050815260200190600101906110e9565b50505050905090565b60008054906101000a900473ffffffffffffffffffffffffffffffffffffffff1673ffffffffffffffffffffffffffffffffffffffff163373ffffffffffffffffffffffffffffffffffffffff1614611226576040517f08c379a000000000000000000000000000000000000000000000000000000000815260040161121d90611fc8565b60405180910390fd5b8060078190555050565b60008054906101000a900473ffffffffffffffffffffffffffffffffffffffff1673ffffffffffffffffffffffffffffffffffffffff163373ffffffffffffffffffffffffffffffffffffffff16146112be576040517f08c379a00000000000000000000000000000000000000000000000000000000081526004016112b590611fc8565b60405180910390fd5b6000600484815481106112d4576112d361206d565b5b9060005260206000209060040201600201541415611327576040517f08c379a000000000000000000000000000000000000000000000000000000000815260040161131e9061242a565b60405180910390fd5b801561133657611335610c1e565b5b600015156003600085815260200190815260200160002060009054906101000a900460ff16151514801561136a5750600082115b156113d55760016003600085815260200190815260200160002060006101000a81548160ff0219169083151502179055507ff8e91eae4b15c98725305987a69db94bae83b5d11ced334a69fc66ffe30811a283436040516113cc92919061244a565b60405180910390a15b60008214156114445760006003600085815260200190815260200160002060006101000a81548160ff0219169083151502179055507fdf8caa5de973699f38324e775ca304db91c9af29f29a149b5ed5597ff518731f834360405161143b92919061244a565b60405180910390a15b81600484815481106114595761145861206d565b5b906000526020600020906004020160010181905550505050565b600080600260008473ffffffffffffffffffffffffffffffffffffffff1673ffffffffffffffffffffffffffffffffffffffff16815260200190815260200160002054905060008114156114ca57600091506114cf565b600191505b50919050565b6115568363a9059cbb60e01b84846040516024016114f49291906122b4565b604051602081830303815290604052907bffffffffffffffffffffffffffffffffffffffffffffffffffffffff19166020820180517bffffffffffffffffffffffffffffffffffffffffffffffffffffffff8381831617835250505050611806565b505050565b6000600660009054906101000a900473ffffffffffffffffffffffffffffffffffffffff1673ffffffffffffffffffffffffffffffffffffffff166370a08231306040518263ffffffff1660e01b81526004016115b89190611d69565b60206040518083038186803b1580156115d057600080fd5b505afa1580156115e4573d6000803e3d6000fd5b505050506040513d601f19601f820116820180604052508101906116089190612287565b9050808211156116c757600660009054906101000a900473ffffffffffffffffffffffffffffffffffffffff1673ffffffffffffffffffffffffffffffffffffffff1663a9059cbb84836040518363ffffffff1660e01b815260040161166f9291906122b4565b602060405180830381600087803b15801561168957600080fd5b505af115801561169d573d6000803e3d6000fd5b505050506040513d601f19601f820116820180604052508101906116c19190612488565b50611778565b600660009054906101000a900473ffffffffffffffffffffffffffffffffffffffff1673ffffffffffffffffffffffffffffffffffffffff1663a9059cbb84846040518363ffffffff1660e01b81526004016117249291906122b4565b602060405180830381600087803b15801561173e57600080fd5b505af1158015611752573d6000803e3d6000fd5b505050506040513d601f19601f820116820180604052508101906117769190612488565b505b505050565b611800846323b872dd60e01b85858560405160240161179e939291906124b5565b604051602081830303815290604052907bffffffffffffffffffffffffffffffffffffffffffffffffffffffff19166020820180517bffffffffffffffffffffffffffffffffffffffffffffffffffffffff8381831617835250505050611806565b50505050565b6000611868826040518060400160405280602081526020017f5361666545524332303a206c6f772d6c6576656c2063616c6c206661696c65648152508573ffffffffffffffffffffffffffffffffffffffff166118cd9092919063ffffffff16565b90506000815111156118c857808060200190518101906118889190612488565b6118c7576040517f08c379a00000000000000000000000000000000000000000000000000000000081526004016118be9061255e565b60405180910390fd5b5b505050565b60606118dc84846000856118e5565b90509392505050565b60608247101561192a576040517f08c379a0000000000000000000000000000000000000000000000000000000008152600401611921906125f0565b60405180910390fd5b611933856119f9565b611972576040517f08c379a00000000000000000000000000000000000000000000000000000000081526004016119699061265c565b60405180910390fd5b6000808673ffffffffffffffffffffffffffffffffffffffff16858760405161199b91906126f6565b60006040518083038185875af1925050503d80600081146119d8576040519150601f19603f3d011682016040523d82523d6000602084013e6119dd565b606091505b50915091506119ed828286611a0c565b92505050949350505050565b600080823b905060008111915050919050565b60608315611a1c57829050611a6c565b600083511115611a2f5782518084602001fd5b816040517f08c379a0000000000000000000000000000000000000000000000000000000008152600401611a639190612762565b60405180910390fd5b9392505050565b600080fd5b600073ffffffffffffffffffffffffffffffffffffffff82169050919050565b6000611aa382611a78565b9050919050565b611ab381611a98565b8114611abe57600080fd5b50565b600081359050611ad081611aaa565b92915050565b6000819050919050565b611ae981611ad6565b8114611af457600080fd5b50565b600081359050611b0681611ae0565b92915050565b60008115159050919050565b611b2181611b0c565b8114611b2c57600080fd5b50565b600081359050611b3e81611b18565b92915050565b600080600060608486031215611b5d57611b5c611a73565b5b6000611b6b86828701611ac1565b9350506020611b7c86828701611af7565b9250506040611b8d86828701611b2f565b9150509250925092565b611ba081611ad6565b82525050565b6000602082019050611bbb6000830184611b97565b92915050565b60008060408385031215611bd857611bd7611a73565b5b6000611be685828601611af7565b9250506020611bf785828601611ac1565b9150509250929050565b6000819050919050565b6000611c26611c21611c1c84611a78565b611c01565b611a78565b9050919050565b6000611c3882611c0b565b9050919050565b6000611c4a82611c2d565b9050919050565b611c5a81611c3f565b82525050565b6000602082019050611c756000830184611c51565b92915050565b600060208284031215611c9157611c90611a73565b5b6000611c9f84828501611af7565b91505092915050565b611cb181611a98565b82525050565b6000608082019050611ccc6000830187611ca8565b611cd96020830186611b97565b611ce66040830185611b97565b611cf36060830184611b97565b95945050505050565b600060208284031215611d1257611d11611a73565b5b6000611d2084828501611ac1565b91505092915050565b60008060408385031215611d4057611d3f611a73565b5b6000611d4e85828601611af7565b9250506020611d5f85828601611af7565b9150509250929050565b6000602082019050611d7e6000830184611ca8565b92915050565b611d8d81611b0c565b82525050565b6000602082019050611da86000830184611d84565b92915050565b600081519050919050565b600082825260208201905092915050565b6000819050602082019050919050565b611de381611a98565b82525050565b611df281611ad6565b82525050565b608082016000820151611e0e6000850182611dda565b506020820151611e216020850182611de9565b506040820151611e346040850182611de9565b506060820151611e476060850182611de9565b50505050565b6000611e598383611df8565b60808301905092915050565b6000602082019050919050565b6000611e7d82611dae565b611e878185611db9565b9350611e9283611dca565b8060005b83811015611ec3578151611eaa8882611e4d565b9750611eb583611e65565b925050600181019050611e96565b5085935050505092915050565b60006020820190508181036000830152611eea8184611e72565b905092915050565b600080600060608486031215611f0b57611f0a611a73565b5b6000611f1986828701611af7565b9350506020611f2a86828701611af7565b9250506040611f3b86828701611b2f565b9150509250925092565b600082825260208201905092915050565b7f4f6e6c7920746865206f776e65722063616e2063616c6c20746869732066756e60008201527f6374696f6e000000000000000000000000000000000000000000000000000000602082015250565b6000611fb2602583611f45565b9150611fbd82611f56565b604082019050919050565b60006020820190508181036000830152611fe181611fa5565b9050919050565b7f4e487b7100000000000000000000000000000000000000000000000000000000600052601160045260246000fd5b600061202282611ad6565b915061202d83611ad6565b9250827fffffffffffffffffffffffffffffffffffffffffffffffffffffffffffffffff0382111561206257612061611fe8565b5b828201905092915050565b7f4e487b7100000000000000000000000000000000000000000000000000000000600052603260045260246000fd5b60006120a782611ad6565b91506120b283611ad6565b9250817fffffffffffffffffffffffffffffffffffffffffffffffffffffffffffffffff04831182151516156120eb576120ea611fe8565b5b828202905092915050565b7f4e487b7100000000000000000000000000000000000000000000000000000000600052601260045260246000fd5b600061213082611ad6565b915061213b83611ad6565b92508261214b5761214a6120f6565b5b828204905092915050565b600061216182611ad6565b915061216c83611ad6565b92508282101561217f5761217e611fe8565b5b828203905092915050565b600060808201905061219f6000830187611ca8565b6121ac6020830186611ca8565b6121b96040830185611b97565b6121c66060830184611b97565b95945050505050565b7f6e6f7420656e6f7567682062616c616e63650000000000000000000000000000600082015250565b6000612205601283611f45565b9150612210826121cf565b602082019050919050565b60006020820190508181036000830152612234816121f8565b9050919050565b60006060820190506122506000830186611ca8565b61225d6020830185611b97565b61226a6040830184611b97565b949350505050565b60008151905061228181611ae0565b92915050565b60006020828403121561229d5761229c611a73565b5b60006122ab84828501612272565b91505092915050565b60006040820190506122c96000830185611ca8565b6122d66020830184611b97565b9392505050565b60006122e882611ad6565b91507fffffffffffffffffffffffffffffffffffffffffffffffffffffffffffffffff82141561231b5761231a611fe8565b5b600182019050919050565b7f74686520616464726573732063616e206e6f74206265207a65726f206164647260008201527f6573730000000000000000000000000000000000000000000000000000000000602082015250565b6000612382602383611f45565b915061238d82612326565b604082019050919050565b600060208201905081810360008301526123b181612375565b9050919050565b7f6e6f207375636820706f6f6c2c20796f757220706f6f6c4964206d617920626560008201527f2077726f6e670000000000000000000000000000000000000000000000000000602082015250565b6000612414602683611f45565b915061241f826123b8565b604082019050919050565b6000602082019050818103600083015261244381612407565b9050919050565b600060408201905061245f6000830185611b97565b61246c6020830184611b97565b9392505050565b60008151905061248281611b18565b92915050565b60006020828403121561249e5761249d611a73565b5b60006124ac84828501612473565b91505092915050565b60006060820190506124ca6000830186611ca8565b6124d76020830185611ca8565b6124e46040830184611b97565b949350505050565b7f5361666545524332303a204552433230206f7065726174696f6e20646964206e60008201527f6f74207375636365656400000000000000000000000000000000000000000000602082015250565b6000612548602a83611f45565b9150612553826124ec565b604082019050919050565b600060208201905081810360008301526125778161253b565b9050919050565b7f416464726573733a20696e73756666696369656e742062616c616e636520666f60008201527f722063616c6c0000000000000000000000000000000000000000000000000000602082015250565b60006125da602683611f45565b91506125e58261257e565b604082019050919050565b60006020820190508181036000830152612609816125cd565b9050919050565b7f416464726573733a2063616c6c20746f206e6f6e2d636f6e7472616374000000600082015250565b6000612646601d83611f45565b915061265182612610565b602082019050919050565b6000602082019050818103600083015261267581612639565b9050919050565b600081519050919050565b600081905092915050565b60005b838110156126b0578082015181840152602081019050612695565b838111156126bf576000848401525b50505050565b60006126d08261267c565b6126da8185612687565b93506126ea818560208601612692565b80840191505092915050565b600061270282846126c5565b915081905092915050565b600081519050919050565b6000601f19601f8301169050919050565b60006127348261270d565b61273e8185611f45565b935061274e818560208601612692565b61275781612718565b840191505092915050565b6000602082019050818103600083015261277c8184612729565b90509291505056fea26469706673582212209427fcd7c6aa6d139d4002b1ea8b0fc8c2f83d42be807bfd2df8e5e981650cb864736f6c63430008090033",
  "immutableReferences": {},
  "source": "// SPDX-License-Identifier: MIT\npragma solidity 0.8.9;\n\nimport \"@openzeppelin/contracts/token/ERC20/IERC20.sol\";\nimport \"@openzeppelin/contracts/token/ERC20/utils/SafeERC20.sol\";\nimport \"./interfaces/ILPToken.sol\";\nimport \"./interfaces/IDegisToken.sol\";\nimport \"./interfaces/IFarmingPool.sol\";\n\n/**\n * @title  Farming Pool\n * @notice Thank you, MasterChef, yyds.\n */\n\ncontract FarmingPool is IFarmingPool {\n    using SafeERC20 for IERC20;\n    using SafeERC20 for IDegisToken;\n\n    address public owner;\n\n    // PoolId starts from 1, zero means not in the farm\n    uint256 public _nextPoolId;\n\n    struct PoolInfo {\n        address lpToken;\n        uint256 degisPerBlock;\n        uint256 lastRewardBlock;\n        uint256 accDegisPerShare;\n    }\n    mapping(address => uint256) public poolMapping; // lptoken => poolId\n\n    mapping(uint256 => bool) public isFarming; // poolId => alreadyFarming\n\n    PoolInfo[] public poolList;\n\n    struct UserInfo {\n        uint256 rewardDebt; // degis reward debt\n        uint256 stakingBalance; // the amount of a user's staking in the pool\n    }\n    // poolId => userAddress => userInfo\n    mapping(uint256 => mapping(address => UserInfo)) userInfo;\n\n    // The reward token is degis\n    IDegisToken public degis;\n\n    uint256 public startBlock; // Farming starts from a certain block number\n\n    constructor(address _degis) {\n        degis = IDegisToken(_degis);\n\n        owner = msg.sender;\n\n        _nextPoolId = 1;\n    }\n\n    // ---------------------------------------------------------------------------------------- //\n    // ************************************** Modifiers *************************************** //\n    // ---------------------------------------------------------------------------------------- //\n\n    modifier onlyOwner() {\n        require(msg.sender == owner, \"Only the owner can call this function\");\n        _;\n    }\n\n    /**\n     * @notice The address can not be zero\n     */\n    modifier notZeroAddress(address _address) {\n        require(_address != address(0), \"the address can not be zero address\");\n        _;\n    }\n\n    // ---------------------------------------------------------------------------------------- //\n    // *********************************** View Functions ************************************* //\n    // ---------------------------------------------------------------------------------------- //\n\n    /**\n     * @notice Check the amount of pending degis reward\n     * @param _poolId PoolId of this farming pool\n     * @param _userAddress User address\n     * @return pendingDegisAmount Amount of pending degis\n     */\n    function pendingDegis(uint256 _poolId, address _userAddress)\n        public\n        view\n        notZeroAddress(_userAddress)\n        returns (uint256)\n    {\n        PoolInfo storage poolInfo = poolList[_poolId];\n\n        if (block.number < poolInfo.lastRewardBlock) return 0;\n\n        UserInfo storage user = userInfo[_poolId][_userAddress];\n\n        uint256 lp_balance = IERC20(poolInfo.lpToken).balanceOf(_userAddress);\n\n        uint256 accDegisPerShare = poolInfo.accDegisPerShare;\n\n        if (lp_balance > 0) {\n            // Deigs amount given to this pool\n            uint256 blocks = block.number - poolInfo.lastRewardBlock;\n            uint256 degisReward = poolInfo.degisPerBlock * blocks;\n\n            // Update accDegisPerShare\n            accDegisPerShare += (degisReward * 1e18) / lp_balance;\n\n            uint256 pending = ((user.stakingBalance * accDegisPerShare) /\n                1e18) - user.rewardDebt;\n            return pending;\n        } else {\n            return 0;\n        }\n    }\n\n    /**\n     * @notice Get the total pool list\n     */\n    function getPoolList() external view returns (PoolInfo[] memory) {\n        return poolList;\n    }\n\n    // ---------------------------------------------------------------------------------------- //\n    // ************************************* Set Functions ************************************ //\n    // ---------------------------------------------------------------------------------------- //\n\n    /**\n     * @notice Set the start block number\n     * @param _startBlock New start block number\n     */\n    function setStartBlock(uint256 _startBlock) external onlyOwner {\n        startBlock = _startBlock;\n    }\n\n    // ---------------------------------------------------------------------------------------- //\n    // *********************************** Main Functions ************************************* //\n    // ---------------------------------------------------------------------------------------- //\n\n    /**\n     * @notice Add a new lp to the pool. Can only be called by the owner.\n     * @param _lpToken LP token address\n     * @param _degisPerBlock Reward distribution per block for this new pool\n     * @param _withUpdate Whether update all pools' status\n     */\n    function add(\n        address _lpToken,\n        uint256 _degisPerBlock,\n        bool _withUpdate\n    ) public onlyOwner {\n        // Check if already exists\n        bool isInPool = _alreadyInPool(_lpToken);\n\n        if (isInPool) {\n            revert AlreadyInPool(_lpToken);\n        }\n\n        if (_withUpdate) {\n            massUpdatePools();\n        }\n\n        uint256 lastRewardBlock = block.number > startBlock\n            ? block.number\n            : startBlock;\n\n        // Push this new pool into the list\n        poolList.push(\n            PoolInfo({\n                lpToken: _lpToken,\n                degisPerBlock: _degisPerBlock,\n                lastRewardBlock: lastRewardBlock,\n                accDegisPerShare: 0\n            })\n        );\n\n        // Store the poolId and set the farming status to true\n        poolMapping[_lpToken] = _nextPoolId;\n        isFarming[_nextPoolId] = true;\n\n        _nextPoolId += 1;\n\n        emit NewPoolAdded(_lpToken);\n    }\n\n    /**\n     * @notice Update the degisPerBlock for a specific pool (set to 0 to stop farming)\n     * @param _poolId Id of the farming pool\n     * @param _degisPerBlock New reward amount per block\n     * @param _withUpdate Whether update all the pool\n     */\n    function setDegisReward(\n        uint256 _poolId,\n        uint256 _degisPerBlock,\n        bool _withUpdate\n    ) public onlyOwner {\n        // Ensure there already exists this pool\n        require(\n            poolList[_poolId].lastRewardBlock != 0,\n            \"no such pool, your poolId may be wrong\"\n        );\n        if (_withUpdate) {\n            massUpdatePools();\n        }\n\n        if (isFarming[_poolId] == false && _degisPerBlock > 0) {\n            isFarming[_poolId] = true;\n            emit RestartFarmingPool(_poolId, block.number);\n        }\n\n        if (_degisPerBlock == 0) {\n            isFarming[_poolId] = false;\n            emit StopFarmingPool(_poolId, block.number);\n        }\n        poolList[_poolId].degisPerBlock = _degisPerBlock;\n    }\n\n    /**\n     * @notice Stake LP token into the farming pool\n     * @param _poolId Id of the farming pool\n     * @param _amount Staking amount\n     */\n    function stake(uint256 _poolId, uint256 _amount) public {\n        PoolInfo storage pool = poolList[_poolId];\n        UserInfo storage user = userInfo[_poolId][msg.sender];\n\n        // Must update first!!\n        updatePool(_poolId);\n\n        if (user.stakingBalance > 0) {\n            uint256 pending = user.stakingBalance *\n                pool.accDegisPerShare -\n                user.rewardDebt;\n\n            safeDegisTransfer(msg.sender, pending);\n        }\n\n        // Approve\n        IERC20(pool.lpToken).safeTransferFrom(\n            address(msg.sender),\n            address(this),\n            _amount\n        );\n\n        user.stakingBalance += _amount;\n        user.rewardDebt = user.stakingBalance * pool.accDegisPerShare;\n\n        emit Stake(msg.sender, _poolId, _amount);\n    }\n\n    /**\n     * @notice Withdraw lptoken from the pool\n     * @param _poolId Id of the farming pool\n     * @param _amount Amount of lp tokens to withdraw\n     */\n    function withdraw(uint256 _poolId, uint256 _amount) public {\n        PoolInfo storage pool = poolList[_poolId];\n        UserInfo storage user = userInfo[_poolId][msg.sender];\n\n        require(user.stakingBalance >= _amount, \"not enough balance\");\n\n        updatePool(_poolId);\n\n        uint256 pending = user.stakingBalance *\n            pool.accDegisPerShare -\n            user.rewardDebt;\n\n        safeDegisTransfer(msg.sender, pending);\n\n        user.stakingBalance -= _amount;\n        user.rewardDebt = user.stakingBalance * pool.accDegisPerShare;\n\n        IERC20(pool.lpToken).safeTransfer(address(msg.sender), _amount);\n\n        emit Withdraw(msg.sender, _poolId, _amount);\n    }\n\n    /**\n     * @notice Update the pool's reward status\n     * @param _poolId Id of the farming pool\n     */\n    function updatePool(uint256 _poolId) public {\n        PoolInfo storage pool = poolList[_poolId];\n        if (block.number <= pool.lastRewardBlock) {\n            return;\n        }\n        uint256 lpSupply = IERC20(pool.lpToken).balanceOf(address(this));\n        if (lpSupply == 0) {\n            pool.lastRewardBlock = block.number;\n            return;\n        }\n        uint256 blocks = block.number - pool.lastRewardBlock;\n        uint256 degisReward = blocks * pool.degisPerBlock;\n\n        // Don't forget to set the farming pool as minter\n        degis.mint(address(this), degisReward);\n\n        pool.accDegisPerShare += degisReward / lpSupply;\n        pool.lastRewardBlock = block.number;\n    }\n\n    /**\n     * @notice Harvest the degis reward and can be sent to another address\n     * @param _poolId: Id of the farming pool\n     * @param _to Receiver of degis rewards.\n     */\n    function harvest(uint256 _poolId, address _to) public {\n        updatePool(_poolId);\n        PoolInfo memory pool = poolList[_poolId];\n        UserInfo storage user = userInfo[_poolId][msg.sender];\n\n        uint256 pendingReward = (user.stakingBalance * pool.accDegisPerShare) /\n            (1e18) -\n            user.rewardDebt;\n\n        // Effects\n        user.rewardDebt = user.stakingBalance * pool.accDegisPerShare;\n\n        // Interactions\n        if (pendingReward != 0) {\n            degis.safeTransfer(_to, pendingReward);\n        }\n\n        emit Harvest(msg.sender, _to, _poolId, pendingReward);\n    }\n\n    /**\n     * @notice Update all farming pools (except for those stopped ones)\n     */\n    function massUpdatePools() public {\n        uint256 length = poolList.length;\n        for (uint256 poolId = 0; poolId < length; poolId++) {\n            if (isFarming[poolId] == false) continue;\n            else updatePool(poolId);\n        }\n    }\n\n    // ---------------------------------------------------------------------------------------- //\n    // ********************************** Internal Functions ********************************** //\n    // ---------------------------------------------------------------------------------------- //\n\n    /**\n     * @notice Check if a lptoken has been added into the pool before\n     * @param _lpTokenAddress LP token address\n     * @return _isInPool Wether this lp already in pool\n     */\n    function _alreadyInPool(address _lpTokenAddress)\n        internal\n        view\n        returns (bool _isInPool)\n    {\n        uint256 poolId = poolMapping[_lpTokenAddress];\n        // Never been added\n        if (poolId == 0) _isInPool = false;\n        else _isInPool = true;\n    }\n\n    /**\n     * @notice Safe degis transfer (check if the pool has enough DEGIS token)\n     * @param _to User's address\n     * @param _amount Amount to transfer\n     */\n    function safeDegisTransfer(address _to, uint256 _amount) internal {\n        uint256 DegisBalance = degis.balanceOf(address(this));\n        if (_amount > DegisBalance) {\n            degis.transfer(_to, DegisBalance);\n        } else {\n            degis.transfer(_to, _amount);\n        }\n    }\n}\n",
  "sourcePath": "/Volumes/Store/src/Degis-Contracts-1/contracts/FarmingPool.sol",
  "compiler": {
    "name": "solc",
    "version": "0.8.9+commit.e5eed63a.Emscripten.clang"
  },
  "schemaVersion": "3.4.3",
  "updatedAt": "2021-12-02T08:25:59.964Z",
  "networkType": "ethereum",
  "devdoc": {
    "kind": "dev",
    "methods": {
      "add(address,uint256,bool)": {
        "params": {
          "_degisPerBlock": "Reward distribution per block for this new pool",
          "_lpToken": "LP token address",
          "_withUpdate": "Whether update all pools' status"
        }
      },
      "harvest(uint256,address)": {
        "params": {
          "_poolId": ": Id of the farming pool",
          "_to": "Receiver of degis rewards."
        }
      },
      "pendingDegis(uint256,address)": {
        "params": {
          "_poolId": "PoolId of this farming pool",
          "_userAddress": "User address"
        },
        "returns": {
          "_0": "pendingDegisAmount Amount of pending degis"
        }
      },
      "setDegisReward(uint256,uint256,bool)": {
        "params": {
          "_degisPerBlock": "New reward amount per block",
          "_poolId": "Id of the farming pool",
          "_withUpdate": "Whether update all the pool"
        }
      },
      "setStartBlock(uint256)": {
        "params": {
          "_startBlock": "New start block number"
        }
      },
      "stake(uint256,uint256)": {
        "params": {
          "_amount": "Staking amount",
          "_poolId": "Id of the farming pool"
        }
      },
      "updatePool(uint256)": {
        "params": {
          "_poolId": "Id of the farming pool"
        }
      },
      "withdraw(uint256,uint256)": {
        "params": {
          "_amount": "Amount of lp tokens to withdraw",
          "_poolId": "Id of the farming pool"
        }
      }
    },
    "title": "Farming Pool",
    "version": 1
  },
  "userdoc": {
    "kind": "user",
    "methods": {
      "add(address,uint256,bool)": {
        "notice": "Add a new lp to the pool. Can only be called by the owner."
      },
      "getPoolList()": {
        "notice": "Get the total pool list"
      },
      "harvest(uint256,address)": {
        "notice": "Harvest the degis reward and can be sent to another address"
      },
      "massUpdatePools()": {
        "notice": "Update all farming pools (except for those stopped ones)"
      },
      "pendingDegis(uint256,address)": {
        "notice": "Check the amount of pending degis reward"
      },
      "setDegisReward(uint256,uint256,bool)": {
        "notice": "Update the degisPerBlock for a specific pool (set to 0 to stop farming)"
      },
      "setStartBlock(uint256)": {
        "notice": "Set the start block number"
      },
      "stake(uint256,uint256)": {
        "notice": "Stake LP token into the farming pool"
      },
      "updatePool(uint256)": {
        "notice": "Update the pool's reward status"
      },
      "withdraw(uint256,uint256)": {
        "notice": "Withdraw lptoken from the pool"
      }
    },
    "notice": "Thank you, MasterChef, yyds.",
    "version": 1
  }
}