{
  "contractName": "FarmingPool",
  "abi": [
    {
      "inputs": [
        {
          "internalType": "address",
          "name": "_degis",
          "type": "address"
        }
      ],
      "stateMutability": "nonpayable",
      "type": "constructor"
    },
    {
      "inputs": [
        {
          "internalType": "address",
          "name": "_lpToken",
          "type": "address"
        }
      ],
      "name": "AlreadyInPool",
      "type": "error"
    },
    {
      "anonymous": false,
      "inputs": [
        {
          "indexed": false,
          "internalType": "address",
          "name": "_staker",
          "type": "address"
        },
        {
          "indexed": false,
          "internalType": "address",
          "name": "_rewardReceiver",
          "type": "address"
        },
        {
          "indexed": false,
          "internalType": "uint256",
          "name": "_poolId",
          "type": "uint256"
        },
        {
          "indexed": false,
          "internalType": "uint256",
          "name": "_pendingReward",
          "type": "uint256"
        }
      ],
      "name": "Harvest",
      "type": "event"
    },
    {
      "anonymous": false,
      "inputs": [
        {
          "indexed": false,
          "internalType": "address",
          "name": "_lpToken",
          "type": "address"
        }
      ],
      "name": "NewPoolAdded",
      "type": "event"
    },
    {
      "anonymous": false,
      "inputs": [
        {
          "indexed": false,
          "internalType": "uint256",
          "name": "_poolId",
          "type": "uint256"
        },
        {
          "indexed": false,
          "internalType": "uint256",
          "name": "_blockNumber",
          "type": "uint256"
        }
      ],
      "name": "RestartFarmingPool",
      "type": "event"
    },
    {
      "anonymous": false,
      "inputs": [
        {
          "indexed": false,
          "internalType": "address",
          "name": "_staker",
          "type": "address"
        },
        {
          "indexed": false,
          "internalType": "uint256",
          "name": "_poolId",
          "type": "uint256"
        },
        {
          "indexed": false,
          "internalType": "uint256",
          "name": "_amount",
          "type": "uint256"
        }
      ],
      "name": "Stake",
      "type": "event"
    },
    {
      "anonymous": false,
      "inputs": [
        {
          "indexed": false,
          "internalType": "uint256",
          "name": "_poolId",
          "type": "uint256"
        },
        {
          "indexed": false,
          "internalType": "uint256",
          "name": "_blockNumber",
          "type": "uint256"
        }
      ],
      "name": "StopFarmingPool",
      "type": "event"
    },
    {
      "anonymous": false,
      "inputs": [
        {
          "indexed": false,
          "internalType": "address",
          "name": "_staker",
          "type": "address"
        },
        {
          "indexed": false,
          "internalType": "uint256",
          "name": "_poolId",
          "type": "uint256"
        },
        {
          "indexed": false,
          "internalType": "uint256",
          "name": "_amount",
          "type": "uint256"
        }
      ],
      "name": "Withdraw",
      "type": "event"
    },
    {
      "inputs": [],
      "name": "_nextPoolId",
      "outputs": [
        {
          "internalType": "uint256",
          "name": "",
          "type": "uint256"
        }
      ],
      "stateMutability": "view",
      "type": "function",
      "constant": true
    },
    {
      "inputs": [],
      "name": "owner",
      "outputs": [
        {
          "internalType": "address",
          "name": "",
          "type": "address"
        }
      ],
      "stateMutability": "view",
      "type": "function",
      "constant": true
    },
    {
      "inputs": [],
      "name": "startBlock",
      "outputs": [
        {
          "internalType": "uint256",
          "name": "",
          "type": "uint256"
        }
      ],
      "stateMutability": "view",
      "type": "function",
      "constant": true
    },
    {
      "inputs": [
        {
          "internalType": "uint256",
          "name": "_poolId",
          "type": "uint256"
        },
        {
          "internalType": "address",
          "name": "_userAddress",
          "type": "address"
        }
      ],
      "name": "pendingDegis",
      "outputs": [
        {
          "internalType": "uint256",
          "name": "",
          "type": "uint256"
        }
      ],
      "stateMutability": "view",
      "type": "function",
      "constant": true
    },
    {
      "inputs": [
        {
          "internalType": "uint256",
          "name": "_startBlock",
          "type": "uint256"
        }
      ],
      "name": "setStartBlock",
      "outputs": [],
      "stateMutability": "nonpayable",
      "type": "function"
    },
    {
      "inputs": [
        {
          "internalType": "address",
          "name": "_lpToken",
          "type": "address"
        },
        {
          "internalType": "uint256",
          "name": "_degisPerBlock",
          "type": "uint256"
        },
        {
          "internalType": "bool",
          "name": "_withUpdate",
          "type": "bool"
        }
      ],
      "name": "add",
      "outputs": [],
      "stateMutability": "nonpayable",
      "type": "function"
    },
    {
      "inputs": [
        {
          "internalType": "uint256",
          "name": "_poolId",
          "type": "uint256"
        },
        {
          "internalType": "uint256",
          "name": "_degisPerBlock",
          "type": "uint256"
        },
        {
          "internalType": "bool",
          "name": "_withUpdate",
          "type": "bool"
        }
      ],
      "name": "setDegisReward",
      "outputs": [],
      "stateMutability": "nonpayable",
      "type": "function"
    },
    {
      "inputs": [
        {
          "internalType": "uint256",
          "name": "_poolId",
          "type": "uint256"
        },
        {
          "internalType": "uint256",
          "name": "_amount",
          "type": "uint256"
        }
      ],
      "name": "stake",
      "outputs": [],
      "stateMutability": "nonpayable",
      "type": "function"
    },
    {
      "inputs": [
        {
          "internalType": "uint256",
          "name": "_poolId",
          "type": "uint256"
        },
        {
          "internalType": "uint256",
          "name": "_amount",
          "type": "uint256"
        }
      ],
      "name": "withdraw",
      "outputs": [],
      "stateMutability": "nonpayable",
      "type": "function"
    },
    {
      "inputs": [
        {
          "internalType": "uint256",
          "name": "_poolId",
          "type": "uint256"
        }
      ],
      "name": "updatePool",
      "outputs": [],
      "stateMutability": "nonpayable",
      "type": "function"
    },
    {
      "inputs": [
        {
          "internalType": "uint256",
          "name": "_poolId",
          "type": "uint256"
        },
        {
          "internalType": "address",
          "name": "_to",
          "type": "address"
        }
      ],
      "name": "harvest",
      "outputs": [],
      "stateMutability": "nonpayable",
      "type": "function"
    },
    {
      "inputs": [],
      "name": "massUpdatePools",
      "outputs": [],
      "stateMutability": "nonpayable",
      "type": "function"
    }
  ],
  "bytecode": "0x60806040523480156200001157600080fd5b50604051620023db380380620023db8339818101604052810190620000379190620000f0565b80600660006101000a81548173ffffffffffffffffffffffffffffffffffffffff021916908373ffffffffffffffffffffffffffffffffffffffff160217905550600180819055505062000122565b600080fd5b600073ffffffffffffffffffffffffffffffffffffffff82169050919050565b6000620000b8826200008b565b9050919050565b620000ca81620000ab565b8114620000d657600080fd5b50565b600081519050620000ea81620000bf565b92915050565b60006020828403121562000109576200010862000086565b5b60006200011984828501620000d9565b91505092915050565b6122a980620001326000396000f3fe608060405234801561001057600080fd5b50600436106100b45760003560e01c8063630b5ba111610071578063630b5ba1146101655780637b0472f01461016f5780638da5cb5b1461018b578063d13f67bc146101a9578063f35e4a6e146101d9578063f3c30c0a146101f5576100b4565b80630dec2312146100b957806317fb77de146100d557806318fccc76146100f3578063441a3e701461010f57806348cd4cb11461012b57806351eb05a614610149575b600080fd5b6100d360048036038101906100ce919061188d565b610211565b005b6100dd6104aa565b6040516100ea91906118ef565b60405180910390f35b61010d6004803603810190610108919061190a565b6104b0565b005b6101296004803603810190610124919061194a565b6106a2565b005b610133610865565b60405161014091906118ef565b60405180910390f35b610163600480360381019061015e919061198a565b61086b565b005b61016d610a5a565b005b6101896004803603810190610184919061194a565b610ac2565b005b610193610c4e565b6040516101a091906119c6565b60405180910390f35b6101c360048036038101906101be919061190a565b610c72565b6040516101d091906118ef565b60405180910390f35b6101f360048036038101906101ee919061198a565b610ee1565b005b61020f600480360381019061020a91906119e1565b610f79565b005b60008054906101000a900473ffffffffffffffffffffffffffffffffffffffff1673ffffffffffffffffffffffffffffffffffffffff163373ffffffffffffffffffffffffffffffffffffffff161461029f576040517f08c379a000000000000000000000000000000000000000000000000000000000815260040161029690611ab7565b60405180910390fd5b60006102aa846111bc565b905080156102ef57836040517fac7195c00000000000000000000000000000000000000000000000000000000081526004016102e691906119c6565b60405180910390fd5b81156102fe576102fd610a5a565b5b6000600754431161031157600754610313565b435b9050600460405180608001604052808773ffffffffffffffffffffffffffffffffffffffff1681526020018681526020018381526020016000815250908060018154018082558091505060019003906000526020600020906004020160009091909190915060008201518160000160006101000a81548173ffffffffffffffffffffffffffffffffffffffff021916908373ffffffffffffffffffffffffffffffffffffffff1602179055506020820151816001015560408201518160020155606082015181600301555050600154600260008773ffffffffffffffffffffffffffffffffffffffff1673ffffffffffffffffffffffffffffffffffffffff16815260200190815260200160002081905550600160036000600154815260200190815260200160002060006101000a81548160ff02191690831515021790555060018060008282546104659190611b06565b925050819055507ff816b5143086c89d103a0683286be86c2b741e83ebfa75135aae606e2f5c6e538560405161049b91906119c6565b60405180910390a15050505050565b60015481565b6104b98261086b565b6000600483815481106104cf576104ce611b5c565b5b90600052602060002090600402016040518060800160405290816000820160009054906101000a900473ffffffffffffffffffffffffffffffffffffffff1673ffffffffffffffffffffffffffffffffffffffff1673ffffffffffffffffffffffffffffffffffffffff1681526020016001820154815260200160028201548152602001600382015481525050905060006005600085815260200190815260200160002060003373ffffffffffffffffffffffffffffffffffffffff1673ffffffffffffffffffffffffffffffffffffffff168152602001908152602001600020905060008160000154670de0b6b3a7640000846060015184600101546105d69190611b8b565b6105e09190611c14565b6105ea9190611c45565b9050826060015182600101546106009190611b8b565b82600001819055506000811461065e5761065d8482600660009054906101000a900473ffffffffffffffffffffffffffffffffffffffff1673ffffffffffffffffffffffffffffffffffffffff1661121e9092919063ffffffff16565b5b7fdec9257d126f56798a34ce7ca0ffedeaa9a024543946f79c3b5038035ba32a1e338587846040516106939493929190611c79565b60405180910390a15050505050565b6000600483815481106106b8576106b7611b5c565b5b9060005260206000209060040201905060006005600085815260200190815260200160002060003373ffffffffffffffffffffffffffffffffffffffff1673ffffffffffffffffffffffffffffffffffffffff16815260200190815260200160002090508281600101541015610763576040517f08c379a000000000000000000000000000000000000000000000000000000000815260040161075a90611d0a565b60405180910390fd5b61076c8461086b565b60008160000154836003015483600101546107879190611b8b565b6107919190611c45565b905061079d33826112a4565b838260010160008282546107b19190611c45565b92505081905550826003015482600101546107cc9190611b8b565b826000018190555061082333858560000160009054906101000a900473ffffffffffffffffffffffffffffffffffffffff1673ffffffffffffffffffffffffffffffffffffffff1661121e9092919063ffffffff16565b7ff279e6a1f5e320cca91135676d9cb6e44ca8a08c0b88342bcdb1144f6511b56833868660405161085693929190611d2a565b60405180910390a15050505050565b60075481565b60006004828154811061088157610880611b5c565b5b90600052602060002090600402019050806002015443116108a25750610a57565b60008160000160009054906101000a900473ffffffffffffffffffffffffffffffffffffffff1673ffffffffffffffffffffffffffffffffffffffff166370a08231306040518263ffffffff1660e01b815260040161090191906119c6565b60206040518083038186803b15801561091957600080fd5b505afa15801561092d573d6000803e3d6000fd5b505050506040513d601f19601f820116820180604052508101906109519190611d76565b9050600081141561096c574382600201819055505050610a57565b600082600201544361097e9190611c45565b905060008360010154826109929190611b8b565b9050600660009054906101000a900473ffffffffffffffffffffffffffffffffffffffff1673ffffffffffffffffffffffffffffffffffffffff166340c10f1930836040518363ffffffff1660e01b81526004016109f1929190611da3565b600060405180830381600087803b158015610a0b57600080fd5b505af1158015610a1f573d6000803e3d6000fd5b505050508281610a2f9190611c14565b846003016000828254610a429190611b06565b92505081905550438460020181905550505050505b50565b6000600480549050905060005b81811015610abe57600015156003600083815260200190815260200160002060009054906101000a900460ff1615151415610aa157610aab565b610aaa8161086b565b5b8080610ab690611dcc565b915050610a67565b5050565b600060048381548110610ad857610ad7611b5c565b5b9060005260206000209060040201905060006005600085815260200190815260200160002060003373ffffffffffffffffffffffffffffffffffffffff1673ffffffffffffffffffffffffffffffffffffffff1681526020019081526020016000209050610b458461086b565b600081600101541115610b85576000816000015483600301548360010154610b6d9190611b8b565b610b779190611c45565b9050610b8333826112a4565b505b610bd63330858560000160009054906101000a900473ffffffffffffffffffffffffffffffffffffffff1673ffffffffffffffffffffffffffffffffffffffff166114c6909392919063ffffffff16565b82816001016000828254610bea9190611b06565b9250508190555081600301548160010154610c059190611b8b565b81600001819055507f5af417134f72a9d41143ace85b0a26dce6f550f894f2cbc1eeee8810603d91b6338585604051610c4093929190611d2a565b60405180910390a150505050565b60008054906101000a900473ffffffffffffffffffffffffffffffffffffffff1681565b600081600073ffffffffffffffffffffffffffffffffffffffff168173ffffffffffffffffffffffffffffffffffffffff161415610ce5576040517f08c379a0000000000000000000000000000000000000000000000000000000008152600401610cdc90611e87565b60405180910390fd5b600060048581548110610cfb57610cfa611b5c565b5b906000526020600020906004020190508060020154431015610d21576000925050610eda565b60006005600087815260200190815260200160002060008673ffffffffffffffffffffffffffffffffffffffff1673ffffffffffffffffffffffffffffffffffffffff168152602001908152602001600020905060008260000160009054906101000a900473ffffffffffffffffffffffffffffffffffffffff1673ffffffffffffffffffffffffffffffffffffffff166370a08231876040518263ffffffff1660e01b8152600401610dd491906119c6565b60206040518083038186803b158015610dec57600080fd5b505afa158015610e00573d6000803e3d6000fd5b505050506040513d601f19601f82011682018060405250810190610e249190611d76565b90506000836003015490506000821115610ed1576000846002015443610e4a9190611c45565b90506000818660010154610e5e9190611b8b565b905083670de0b6b3a764000082610e759190611b8b565b610e7f9190611c14565b83610e8a9190611b06565b925060008560000154670de0b6b3a7640000858860010154610eac9190611b8b565b610eb69190611c14565b610ec09190611c45565b905080985050505050505050610eda565b60009550505050505b5092915050565b60008054906101000a900473ffffffffffffffffffffffffffffffffffffffff1673ffffffffffffffffffffffffffffffffffffffff163373ffffffffffffffffffffffffffffffffffffffff1614610f6f576040517f08c379a0000000000000000000000000000000000000000000000000000000008152600401610f6690611ab7565b60405180910390fd5b8060078190555050565b60008054906101000a900473ffffffffffffffffffffffffffffffffffffffff1673ffffffffffffffffffffffffffffffffffffffff163373ffffffffffffffffffffffffffffffffffffffff1614611007576040517f08c379a0000000000000000000000000000000000000000000000000000000008152600401610ffe90611ab7565b60405180910390fd5b60006004848154811061101d5761101c611b5c565b5b9060005260206000209060040201600201541415611070576040517f08c379a000000000000000000000000000000000000000000000000000000000815260040161106790611f19565b60405180910390fd5b801561107f5761107e610a5a565b5b600015156003600085815260200190815260200160002060009054906101000a900460ff1615151480156110b35750600082115b1561111e5760016003600085815260200190815260200160002060006101000a81548160ff0219169083151502179055507ff8e91eae4b15c98725305987a69db94bae83b5d11ced334a69fc66ffe30811a28343604051611115929190611f39565b60405180910390a15b600082141561118d5760006003600085815260200190815260200160002060006101000a81548160ff0219169083151502179055507fdf8caa5de973699f38324e775ca304db91c9af29f29a149b5ed5597ff518731f8343604051611184929190611f39565b60405180910390a15b81600484815481106111a2576111a1611b5c565b5b906000526020600020906004020160010181905550505050565b600080600260008473ffffffffffffffffffffffffffffffffffffffff1673ffffffffffffffffffffffffffffffffffffffff16815260200190815260200160002054905060008114156112135760009150611218565b600191505b50919050565b61129f8363a9059cbb60e01b848460405160240161123d929190611da3565b604051602081830303815290604052907bffffffffffffffffffffffffffffffffffffffffffffffffffffffff19166020820180517bffffffffffffffffffffffffffffffffffffffffffffffffffffffff838183161783525050505061154f565b505050565b6000600660009054906101000a900473ffffffffffffffffffffffffffffffffffffffff1673ffffffffffffffffffffffffffffffffffffffff166370a08231306040518263ffffffff1660e01b815260040161130191906119c6565b60206040518083038186803b15801561131957600080fd5b505afa15801561132d573d6000803e3d6000fd5b505050506040513d601f19601f820116820180604052508101906113519190611d76565b90508082111561141057600660009054906101000a900473ffffffffffffffffffffffffffffffffffffffff1673ffffffffffffffffffffffffffffffffffffffff1663a9059cbb84836040518363ffffffff1660e01b81526004016113b8929190611da3565b602060405180830381600087803b1580156113d257600080fd5b505af11580156113e6573d6000803e3d6000fd5b505050506040513d601f19601f8201168201806040525081019061140a9190611f77565b506114c1565b600660009054906101000a900473ffffffffffffffffffffffffffffffffffffffff1673ffffffffffffffffffffffffffffffffffffffff1663a9059cbb84846040518363ffffffff1660e01b815260040161146d929190611da3565b602060405180830381600087803b15801561148757600080fd5b505af115801561149b573d6000803e3d6000fd5b505050506040513d601f19601f820116820180604052508101906114bf9190611f77565b505b505050565b611549846323b872dd60e01b8585856040516024016114e793929190611fa4565b604051602081830303815290604052907bffffffffffffffffffffffffffffffffffffffffffffffffffffffff19166020820180517bffffffffffffffffffffffffffffffffffffffffffffffffffffffff838183161783525050505061154f565b50505050565b60006115b1826040518060400160405280602081526020017f5361666545524332303a206c6f772d6c6576656c2063616c6c206661696c65648152508573ffffffffffffffffffffffffffffffffffffffff166116169092919063ffffffff16565b905060008151111561161157808060200190518101906115d19190611f77565b611610576040517f08c379a00000000000000000000000000000000000000000000000000000000081526004016116079061204d565b60405180910390fd5b5b505050565b6060611625848460008561162e565b90509392505050565b606082471015611673576040517f08c379a000000000000000000000000000000000000000000000000000000000815260040161166a906120df565b60405180910390fd5b61167c85611742565b6116bb576040517f08c379a00000000000000000000000000000000000000000000000000000000081526004016116b29061214b565b60405180910390fd5b6000808673ffffffffffffffffffffffffffffffffffffffff1685876040516116e491906121e5565b60006040518083038185875af1925050503d8060008114611721576040519150601f19603f3d011682016040523d82523d6000602084013e611726565b606091505b5091509150611736828286611755565b92505050949350505050565b600080823b905060008111915050919050565b60608315611765578290506117b5565b6000835111156117785782518084602001fd5b816040517f08c379a00000000000000000000000000000000000000000000000000000000081526004016117ac9190612251565b60405180910390fd5b9392505050565b600080fd5b600073ffffffffffffffffffffffffffffffffffffffff82169050919050565b60006117ec826117c1565b9050919050565b6117fc816117e1565b811461180757600080fd5b50565b600081359050611819816117f3565b92915050565b6000819050919050565b6118328161181f565b811461183d57600080fd5b50565b60008135905061184f81611829565b92915050565b60008115159050919050565b61186a81611855565b811461187557600080fd5b50565b60008135905061188781611861565b92915050565b6000806000606084860312156118a6576118a56117bc565b5b60006118b48682870161180a565b93505060206118c586828701611840565b92505060406118d686828701611878565b9150509250925092565b6118e98161181f565b82525050565b600060208201905061190460008301846118e0565b92915050565b60008060408385031215611921576119206117bc565b5b600061192f85828601611840565b92505060206119408582860161180a565b9150509250929050565b60008060408385031215611961576119606117bc565b5b600061196f85828601611840565b925050602061198085828601611840565b9150509250929050565b6000602082840312156119a05761199f6117bc565b5b60006119ae84828501611840565b91505092915050565b6119c0816117e1565b82525050565b60006020820190506119db60008301846119b7565b92915050565b6000806000606084860312156119fa576119f96117bc565b5b6000611a0886828701611840565b9350506020611a1986828701611840565b9250506040611a2a86828701611878565b9150509250925092565b600082825260208201905092915050565b7f4f6e6c7920746865206f776e65722063616e2063616c6c20746869732066756e60008201527f6374696f6e000000000000000000000000000000000000000000000000000000602082015250565b6000611aa1602583611a34565b9150611aac82611a45565b604082019050919050565b60006020820190508181036000830152611ad081611a94565b9050919050565b7f4e487b7100000000000000000000000000000000000000000000000000000000600052601160045260246000fd5b6000611b118261181f565b9150611b1c8361181f565b9250827fffffffffffffffffffffffffffffffffffffffffffffffffffffffffffffffff03821115611b5157611b50611ad7565b5b828201905092915050565b7f4e487b7100000000000000000000000000000000000000000000000000000000600052603260045260246000fd5b6000611b968261181f565b9150611ba18361181f565b9250817fffffffffffffffffffffffffffffffffffffffffffffffffffffffffffffffff0483118215151615611bda57611bd9611ad7565b5b828202905092915050565b7f4e487b7100000000000000000000000000000000000000000000000000000000600052601260045260246000fd5b6000611c1f8261181f565b9150611c2a8361181f565b925082611c3a57611c39611be5565b5b828204905092915050565b6000611c508261181f565b9150611c5b8361181f565b925082821015611c6e57611c6d611ad7565b5b828203905092915050565b6000608082019050611c8e60008301876119b7565b611c9b60208301866119b7565b611ca860408301856118e0565b611cb560608301846118e0565b95945050505050565b7f6e6f7420656e6f7567682062616c616e63650000000000000000000000000000600082015250565b6000611cf4601283611a34565b9150611cff82611cbe565b602082019050919050565b60006020820190508181036000830152611d2381611ce7565b9050919050565b6000606082019050611d3f60008301866119b7565b611d4c60208301856118e0565b611d5960408301846118e0565b949350505050565b600081519050611d7081611829565b92915050565b600060208284031215611d8c57611d8b6117bc565b5b6000611d9a84828501611d61565b91505092915050565b6000604082019050611db860008301856119b7565b611dc560208301846118e0565b9392505050565b6000611dd78261181f565b91507fffffffffffffffffffffffffffffffffffffffffffffffffffffffffffffffff821415611e0a57611e09611ad7565b5b600182019050919050565b7f74686520616464726573732063616e206e6f74206265207a65726f206164647260008201527f6573730000000000000000000000000000000000000000000000000000000000602082015250565b6000611e71602383611a34565b9150611e7c82611e15565b604082019050919050565b60006020820190508181036000830152611ea081611e64565b9050919050565b7f6e6f207375636820706f6f6c2c20796f757220706f6f6c4964206d617920626560008201527f2077726f6e670000000000000000000000000000000000000000000000000000602082015250565b6000611f03602683611a34565b9150611f0e82611ea7565b604082019050919050565b60006020820190508181036000830152611f3281611ef6565b9050919050565b6000604082019050611f4e60008301856118e0565b611f5b60208301846118e0565b9392505050565b600081519050611f7181611861565b92915050565b600060208284031215611f8d57611f8c6117bc565b5b6000611f9b84828501611f62565b91505092915050565b6000606082019050611fb960008301866119b7565b611fc660208301856119b7565b611fd360408301846118e0565b949350505050565b7f5361666545524332303a204552433230206f7065726174696f6e20646964206e60008201527f6f74207375636365656400000000000000000000000000000000000000000000602082015250565b6000612037602a83611a34565b915061204282611fdb565b604082019050919050565b600060208201905081810360008301526120668161202a565b9050919050565b7f416464726573733a20696e73756666696369656e742062616c616e636520666f60008201527f722063616c6c0000000000000000000000000000000000000000000000000000602082015250565b60006120c9602683611a34565b91506120d48261206d565b604082019050919050565b600060208201905081810360008301526120f8816120bc565b9050919050565b7f416464726573733a2063616c6c20746f206e6f6e2d636f6e7472616374000000600082015250565b6000612135601d83611a34565b9150612140826120ff565b602082019050919050565b6000602082019050818103600083015261216481612128565b9050919050565b600081519050919050565b600081905092915050565b60005b8381101561219f578082015181840152602081019050612184565b838111156121ae576000848401525b50505050565b60006121bf8261216b565b6121c98185612176565b93506121d9818560208601612181565b80840191505092915050565b60006121f182846121b4565b915081905092915050565b600081519050919050565b6000601f19601f8301169050919050565b6000612223826121fc565b61222d8185611a34565b935061223d818560208601612181565b61224681612207565b840191505092915050565b6000602082019050818103600083015261226b8184612218565b90509291505056fea2646970667358221220dd57eda3caf5154ab0974418f39156e8eb35a80fed1d4259bc27e856f6ca525f64736f6c63430008090033",
  "immutableReferences": {},
  "source": "// SPDX-License-Identifier: MIT\npragma solidity 0.8.9;\n\nimport \"@openzeppelin/contracts/token/ERC20/IERC20.sol\";\nimport \"@openzeppelin/contracts/token/ERC20/utils/SafeERC20.sol\";\nimport \"./interfaces/ILPToken.sol\";\nimport \"./interfaces/IDegisToken.sol\";\nimport \"./interfaces/IFarmingPool.sol\";\n\n/**\n * @title  Farming Pool\n * @notice Thank you, MasterChef, yyds.\n */\n\ncontract FarmingPool is IFarmingPool {\n    using SafeERC20 for IERC20;\n    using SafeERC20 for IDegisToken;\n\n    address public owner;\n\n    // poolId starts from 1, zero means not in the farm\n    uint256 public _nextPoolId;\n\n    struct PoolInfo {\n        IERC20 lpToken;\n        uint256 degisPerBlock;\n        uint256 lastRewardBlock;\n        uint256 accDegisPerShare;\n    }\n    mapping(address => uint256) poolMapping; // lptoken => poolId\n    mapping(uint256 => bool) isFarming; // poolId => alreadyFarming\n    PoolInfo[] poolList;\n\n    struct UserInfo {\n        uint256 rewardDebt; // degis reward debt\n        uint256 stakingBalance; // the amount of a user's staking in the pool\n    }\n    // poolId => userAddress => userInfo\n    mapping(uint256 => mapping(address => UserInfo)) userInfo;\n\n    // The reward token is degis\n    IDegisToken degis;\n\n    uint256 public startBlock; // Farming starts from a certain block number\n\n    constructor(address _degis) {\n        degis = IDegisToken(_degis);\n\n        _nextPoolId = 1;\n    }\n\n    // ---------------------------------------------------------------------------------------- //\n    // ************************************** Modifiers *************************************** //\n    // ---------------------------------------------------------------------------------------- //\n    modifier onlyOwner() {\n        require(msg.sender == owner, \"Only the owner can call this function\");\n        _;\n    }\n\n    /**\n     * @notice The address can not be zero\n     */\n    modifier notZeroAddress(address _address) {\n        require(_address != address(0), \"the address can not be zero address\");\n        _;\n    }\n\n    // ---------------------------------------------------------------------------------------- //\n    // *********************************** View Functions ************************************* //\n    // ---------------------------------------------------------------------------------------- //\n\n    /**\n     * @notice Check the amount of pending degis reward\n     * @param _poolId: PoolId of this farming pool\n     * @param _userAddress: User address\n     */\n    function pendingDegis(uint256 _poolId, address _userAddress)\n        public\n        view\n        notZeroAddress(_userAddress)\n        returns (uint256)\n    {\n        PoolInfo storage poolInfo = poolList[_poolId];\n\n        if (block.number < poolInfo.lastRewardBlock) return 0;\n\n        UserInfo storage user = userInfo[_poolId][_userAddress];\n\n        uint256 lp_balance = poolInfo.lpToken.balanceOf(_userAddress);\n\n        uint256 accDegisPerShare = poolInfo.accDegisPerShare;\n\n        if (lp_balance > 0) {\n            // Deigs amount given to this pool\n            uint256 blocks = block.number - poolInfo.lastRewardBlock;\n            uint256 degisReward = poolInfo.degisPerBlock * blocks;\n\n            // Update accDegisPerShare\n            accDegisPerShare += (degisReward * 1e18) / lp_balance;\n\n            uint256 pending = ((user.stakingBalance * accDegisPerShare) /\n                1e18) - user.rewardDebt;\n            return pending;\n        } else {\n            return 0;\n        }\n    }\n\n    // ---------------------------------------------------------------------------------------- //\n    // ************************************* Set Functions ************************************ //\n    // ---------------------------------------------------------------------------------------- //\n\n    /**\n     * @notice Set the start block number\n     * @param _startBlock New start block number\n     */\n    function setStartBlock(uint256 _startBlock) external onlyOwner {\n        startBlock = _startBlock;\n    }\n\n    // ---------------------------------------------------------------------------------------- //\n    // *********************************** Main Functions ************************************* //\n    // ---------------------------------------------------------------------------------------- //\n\n    /**\n     * @notice Add a new lp to the pool. Can only be called by the owner.\n     * @param _lpToken: LP token address\n     * @param _degisPerBlock: Reward distribution per block for this new pool\n     * @param _withUpdate: Whether update all pools' status\n     */\n    function add(\n        address _lpToken,\n        uint256 _degisPerBlock,\n        bool _withUpdate\n    ) public onlyOwner {\n        // Check if already exists\n        bool isInPool = _alreadyInPool(_lpToken);\n\n        if (isInPool) {\n            revert AlreadyInPool(_lpToken);\n        }\n\n        if (_withUpdate) {\n            massUpdatePools();\n        }\n\n        uint256 lastRewardBlock = block.number > startBlock\n            ? block.number\n            : startBlock;\n\n        poolList.push(\n            PoolInfo({\n                lpToken: IERC20(_lpToken),\n                degisPerBlock: _degisPerBlock,\n                lastRewardBlock: lastRewardBlock,\n                accDegisPerShare: 0\n            })\n        );\n\n        // Store the poolId and set the farming status to true\n        poolMapping[_lpToken] = _nextPoolId;\n        isFarming[_nextPoolId] = true;\n\n        _nextPoolId += 1;\n\n        emit NewPoolAdded(_lpToken);\n    }\n\n    /**\n     * @notice Update the degisPerBlock for a specific pool (set to 0 to stop farming)\n     * @param _poolId: Id of the farming pool\n     * @param _degisPerBlock: New reward amount per block\n     * @param _withUpdate: Whether update all the pool\n     */\n    function setDegisReward(\n        uint256 _poolId,\n        uint256 _degisPerBlock,\n        bool _withUpdate\n    ) public onlyOwner {\n        // Ensure there already exists this pool\n        require(\n            poolList[_poolId].lastRewardBlock != 0,\n            \"no such pool, your poolId may be wrong\"\n        );\n        if (_withUpdate) {\n            massUpdatePools();\n        }\n\n        if (isFarming[_poolId] == false && _degisPerBlock > 0) {\n            isFarming[_poolId] = true;\n            emit RestartFarmingPool(_poolId, block.number);\n        }\n\n        if (_degisPerBlock == 0) {\n            isFarming[_poolId] = false;\n            emit StopFarmingPool(_poolId, block.number);\n        }\n        poolList[_poolId].degisPerBlock = _degisPerBlock;\n    }\n\n    /**\n     * @notice Stake LP token into the farming pool\n     * @param _poolId: Id of the farming pool\n     * @param _amount: Staking amount\n     */\n    function stake(uint256 _poolId, uint256 _amount) public {\n        PoolInfo storage pool = poolList[_poolId];\n        UserInfo storage user = userInfo[_poolId][msg.sender];\n\n        // Must update first!!\n        updatePool(_poolId);\n\n        if (user.stakingBalance > 0) {\n            uint256 pending = user.stakingBalance *\n                pool.accDegisPerShare -\n                user.rewardDebt;\n\n            safeDegisTransfer(msg.sender, pending);\n        }\n\n        pool.lpToken.safeTransferFrom(\n            address(msg.sender),\n            address(this),\n            _amount\n        );\n\n        user.stakingBalance += _amount;\n        user.rewardDebt = user.stakingBalance * pool.accDegisPerShare;\n\n        emit Stake(msg.sender, _poolId, _amount);\n    }\n\n    /**\n     * @notice Withdraw lptoken from the pool\n     * @notice _poolId: Id of the farming pool\n     * @notice _amount: Amount of lp tokens to withdraw\n     */\n    function withdraw(uint256 _poolId, uint256 _amount) public {\n        PoolInfo storage pool = poolList[_poolId];\n        UserInfo storage user = userInfo[_poolId][msg.sender];\n\n        require(user.stakingBalance >= _amount, \"not enough balance\");\n\n        updatePool(_poolId);\n\n        uint256 pending = user.stakingBalance *\n            pool.accDegisPerShare -\n            user.rewardDebt;\n\n        safeDegisTransfer(msg.sender, pending);\n\n        user.stakingBalance -= _amount;\n        user.rewardDebt = user.stakingBalance * pool.accDegisPerShare;\n\n        pool.lpToken.safeTransfer(address(msg.sender), _amount);\n\n        emit Withdraw(msg.sender, _poolId, _amount);\n    }\n\n    /**\n     * @notice Update the pool's reward status\n     * @param _poolId: Id of the farming pool\n     */\n    function updatePool(uint256 _poolId) public {\n        PoolInfo storage pool = poolList[_poolId];\n        if (block.number <= pool.lastRewardBlock) {\n            return;\n        }\n        uint256 lpSupply = pool.lpToken.balanceOf(address(this));\n        if (lpSupply == 0) {\n            pool.lastRewardBlock = block.number;\n            return;\n        }\n        uint256 blocks = block.number - pool.lastRewardBlock;\n        uint256 degisReward = blocks * pool.degisPerBlock;\n\n        // Don't forget to set the farming pool as minter\n        degis.mint(address(this), degisReward);\n\n        pool.accDegisPerShare += degisReward / lpSupply;\n        pool.lastRewardBlock = block.number;\n    }\n\n    /**\n     * @notice Harvest the degis reward and can be sent to another address\n     * @param _poolId: Id of the farming pool\n     * @param _to Receiver of degis rewards.\n     */\n    function harvest(uint256 _poolId, address _to) public {\n        updatePool(_poolId);\n        PoolInfo memory pool = poolList[_poolId];\n        UserInfo storage user = userInfo[_poolId][msg.sender];\n\n        uint256 pendingReward = (user.stakingBalance * pool.accDegisPerShare) /\n            (1e18) -\n            user.rewardDebt;\n\n        // Effects\n        user.rewardDebt = user.stakingBalance * pool.accDegisPerShare;\n\n        // Interactions\n        if (pendingReward != 0) {\n            degis.safeTransfer(_to, pendingReward);\n        }\n\n        emit Harvest(msg.sender, _to, _poolId, pendingReward);\n    }\n\n    /**\n     * @notice Safe degis transfer (check if the pool has enough DEGIS token)\n     * @param _to User's address\n     * @param _amount Amount to transfer\n     */\n    function safeDegisTransfer(address _to, uint256 _amount) internal {\n        uint256 DegisBalance = degis.balanceOf(address(this));\n        if (_amount > DegisBalance) {\n            degis.transfer(_to, DegisBalance);\n        } else {\n            degis.transfer(_to, _amount);\n        }\n    }\n\n    /**\n     * @notice Update all farming pools (except for those stopped ones)\n     */\n    function massUpdatePools() public {\n        uint256 length = poolList.length;\n        for (uint256 poolId = 0; poolId < length; poolId++) {\n            if (isFarming[poolId] == false) continue;\n            else updatePool(poolId);\n        }\n    }\n\n    /**\n     * @notice Check if a lptoken has been added into the pool before\n     * @param _lpTokenAddress LP token address\n     * @return _isInPool Wether this lp already in pool\n     */\n    function _alreadyInPool(address _lpTokenAddress)\n        internal\n        view\n        returns (bool _isInPool)\n    {\n        uint256 poolId = poolMapping[_lpTokenAddress];\n        // Never been added\n        if (poolId == 0) _isInPool = false;\n        else _isInPool = true;\n    }\n}\n",
  "sourcePath": "/Volumes/Store/src/Degis-Contracts-1/contracts/FarmingPool.sol",
  "compiler": {
    "name": "solc",
    "version": "0.8.9+commit.e5eed63a.Emscripten.clang"
  },
  "schemaVersion": "3.4.3",
  "updatedAt": "2021-11-29T11:46:59.741Z",
  "networkType": "ethereum",
  "devdoc": {
    "kind": "dev",
    "methods": {
      "add(address,uint256,bool)": {
        "params": {
          "_degisPerBlock": ": Reward distribution per block for this new pool",
          "_lpToken": ": LP token address",
          "_withUpdate": ": Whether update all pools' status"
        }
      },
      "harvest(uint256,address)": {
        "params": {
          "_poolId": ": Id of the farming pool",
          "_to": "Receiver of degis rewards."
        }
      },
      "pendingDegis(uint256,address)": {
        "params": {
          "_poolId": ": PoolId of this farming pool",
          "_userAddress": ": User address"
        }
      },
      "setDegisReward(uint256,uint256,bool)": {
        "params": {
          "_degisPerBlock": ": New reward amount per block",
          "_poolId": ": Id of the farming pool",
          "_withUpdate": ": Whether update all the pool"
        }
      },
      "setStartBlock(uint256)": {
        "params": {
          "_startBlock": "New start block number"
        }
      },
      "stake(uint256,uint256)": {
        "params": {
          "_amount": ": Staking amount",
          "_poolId": ": Id of the farming pool"
        }
      },
      "updatePool(uint256)": {
        "params": {
          "_poolId": ": Id of the farming pool"
        }
      }
    },
    "title": "Farming Pool",
    "version": 1
  },
  "userdoc": {
    "kind": "user",
    "methods": {
      "add(address,uint256,bool)": {
        "notice": "Add a new lp to the pool. Can only be called by the owner."
      },
      "harvest(uint256,address)": {
        "notice": "Harvest the degis reward and can be sent to another address"
      },
      "massUpdatePools()": {
        "notice": "Update all farming pools (except for those stopped ones)"
      },
      "pendingDegis(uint256,address)": {
        "notice": "Check the amount of pending degis reward"
      },
      "setDegisReward(uint256,uint256,bool)": {
        "notice": "Update the degisPerBlock for a specific pool (set to 0 to stop farming)"
      },
      "setStartBlock(uint256)": {
        "notice": "Set the start block number"
      },
      "stake(uint256,uint256)": {
        "notice": "Stake LP token into the farming pool"
      },
      "updatePool(uint256)": {
        "notice": "Update the pool's reward status"
      },
      "withdraw(uint256,uint256)": {
        "notice": "Withdraw lptoken from the pool_poolId: Id of the farming pool_amount: Amount of lp tokens to withdraw"
      }
    },
    "notice": "Thank you, MasterChef, yyds.",
    "version": 1
  }
}