{
  "contractName": "FarmingPool",
  "abi": [
    {
      "inputs": [
        {
          "internalType": "address",
          "name": "_degis",
          "type": "address"
        }
      ],
      "stateMutability": "nonpayable",
      "type": "constructor"
    },
    {
      "inputs": [
        {
          "internalType": "address",
          "name": "_lpToken",
          "type": "address"
        }
      ],
      "name": "AlreadyInPool",
      "type": "error"
    },
    {
      "anonymous": false,
      "inputs": [
        {
          "indexed": false,
          "internalType": "address",
          "name": "_staker",
          "type": "address"
        },
        {
          "indexed": false,
          "internalType": "address",
          "name": "_rewardReceiver",
          "type": "address"
        },
        {
          "indexed": false,
          "internalType": "uint256",
          "name": "_poolId",
          "type": "uint256"
        },
        {
          "indexed": false,
          "internalType": "uint256",
          "name": "_pendingReward",
          "type": "uint256"
        }
      ],
      "name": "Harvest",
      "type": "event"
    },
    {
      "anonymous": false,
      "inputs": [
        {
          "indexed": false,
          "internalType": "address",
          "name": "_lpToken",
          "type": "address"
        }
      ],
      "name": "NewPoolAdded",
      "type": "event"
    },
    {
      "anonymous": false,
      "inputs": [
        {
          "indexed": false,
          "internalType": "uint256",
          "name": "_poolId",
          "type": "uint256"
        }
      ],
      "name": "PoolUpdated",
      "type": "event"
    },
    {
      "anonymous": false,
      "inputs": [
        {
          "indexed": false,
          "internalType": "uint256",
          "name": "_poolId",
          "type": "uint256"
        },
        {
          "indexed": false,
          "internalType": "uint256",
          "name": "_blockNumber",
          "type": "uint256"
        }
      ],
      "name": "RestartFarmingPool",
      "type": "event"
    },
    {
      "anonymous": false,
      "inputs": [
        {
          "indexed": false,
          "internalType": "address",
          "name": "_staker",
          "type": "address"
        },
        {
          "indexed": false,
          "internalType": "uint256",
          "name": "_poolId",
          "type": "uint256"
        },
        {
          "indexed": false,
          "internalType": "uint256",
          "name": "_amount",
          "type": "uint256"
        }
      ],
      "name": "Stake",
      "type": "event"
    },
    {
      "anonymous": false,
      "inputs": [
        {
          "indexed": false,
          "internalType": "uint256",
          "name": "_poolId",
          "type": "uint256"
        },
        {
          "indexed": false,
          "internalType": "uint256",
          "name": "_blockNumber",
          "type": "uint256"
        }
      ],
      "name": "StopFarmingPool",
      "type": "event"
    },
    {
      "anonymous": false,
      "inputs": [
        {
          "indexed": false,
          "internalType": "address",
          "name": "_staker",
          "type": "address"
        },
        {
          "indexed": false,
          "internalType": "uint256",
          "name": "_poolId",
          "type": "uint256"
        },
        {
          "indexed": false,
          "internalType": "uint256",
          "name": "_amount",
          "type": "uint256"
        }
      ],
      "name": "Withdraw",
      "type": "event"
    },
    {
      "inputs": [],
      "name": "_nextPoolId",
      "outputs": [
        {
          "internalType": "uint256",
          "name": "",
          "type": "uint256"
        }
      ],
      "stateMutability": "view",
      "type": "function"
    },
    {
      "inputs": [],
      "name": "degis",
      "outputs": [
        {
          "internalType": "contract IDegisToken",
          "name": "",
          "type": "address"
        }
      ],
      "stateMutability": "view",
      "type": "function"
    },
    {
      "inputs": [],
      "name": "owner",
      "outputs": [
        {
          "internalType": "address",
          "name": "",
          "type": "address"
        }
      ],
      "stateMutability": "view",
      "type": "function"
    },
    {
      "inputs": [
        {
          "internalType": "uint256",
          "name": "",
          "type": "uint256"
        }
      ],
      "name": "poolList",
      "outputs": [
        {
          "internalType": "address",
          "name": "lpToken",
          "type": "address"
        },
        {
          "internalType": "uint256",
          "name": "degisPerBlock",
          "type": "uint256"
        },
        {
          "internalType": "uint256",
          "name": "lastRewardBlock",
          "type": "uint256"
        },
        {
          "internalType": "uint256",
          "name": "accDegisPerShare",
          "type": "uint256"
        }
      ],
      "stateMutability": "view",
      "type": "function"
    },
    {
      "inputs": [],
      "name": "startBlock",
      "outputs": [
        {
          "internalType": "uint256",
          "name": "",
          "type": "uint256"
        }
      ],
      "stateMutability": "view",
      "type": "function"
    },
    {
      "inputs": [
        {
          "internalType": "uint256",
          "name": "",
          "type": "uint256"
        },
        {
          "internalType": "address",
          "name": "",
          "type": "address"
        }
      ],
      "name": "userInfo",
      "outputs": [
        {
          "internalType": "uint256",
          "name": "rewardDebt",
          "type": "uint256"
        },
        {
          "internalType": "uint256",
          "name": "stakingBalance",
          "type": "uint256"
        }
      ],
      "stateMutability": "view",
      "type": "function"
    },
    {
      "inputs": [
        {
          "internalType": "uint256",
          "name": "_poolId",
          "type": "uint256"
        },
        {
          "internalType": "address",
          "name": "_userAddress",
          "type": "address"
        }
      ],
      "name": "pendingDegis",
      "outputs": [
        {
          "internalType": "uint256",
          "name": "",
          "type": "uint256"
        }
      ],
      "stateMutability": "view",
      "type": "function"
    },
    {
      "inputs": [],
      "name": "getPoolList",
      "outputs": [
        {
          "components": [
            {
              "internalType": "address",
              "name": "lpToken",
              "type": "address"
            },
            {
              "internalType": "uint256",
              "name": "degisPerBlock",
              "type": "uint256"
            },
            {
              "internalType": "uint256",
              "name": "lastRewardBlock",
              "type": "uint256"
            },
            {
              "internalType": "uint256",
              "name": "accDegisPerShare",
              "type": "uint256"
            }
          ],
          "internalType": "struct FarmingPool.PoolInfo[]",
          "name": "",
          "type": "tuple[]"
        }
      ],
      "stateMutability": "view",
      "type": "function"
    },
    {
      "inputs": [
        {
          "internalType": "uint256",
          "name": "_poolId",
          "type": "uint256"
        },
        {
          "internalType": "address",
          "name": "_userAddress",
          "type": "address"
        }
      ],
      "name": "getUserBalance",
      "outputs": [
        {
          "internalType": "uint256",
          "name": "_balance",
          "type": "uint256"
        }
      ],
      "stateMutability": "view",
      "type": "function"
    },
    {
      "inputs": [
        {
          "internalType": "uint256",
          "name": "_startBlock",
          "type": "uint256"
        }
      ],
      "name": "setStartBlock",
      "outputs": [],
      "stateMutability": "nonpayable",
      "type": "function"
    },
    {
      "inputs": [
        {
          "internalType": "address",
          "name": "_lpToken",
          "type": "address"
        },
        {
          "internalType": "uint256",
          "name": "_degisPerBlock",
          "type": "uint256"
        },
        {
          "internalType": "bool",
          "name": "_withUpdate",
          "type": "bool"
        }
      ],
      "name": "add",
      "outputs": [],
      "stateMutability": "nonpayable",
      "type": "function"
    },
    {
      "inputs": [
        {
          "internalType": "uint256",
          "name": "_poolId",
          "type": "uint256"
        },
        {
          "internalType": "uint256",
          "name": "_degisPerBlock",
          "type": "uint256"
        },
        {
          "internalType": "bool",
          "name": "_withUpdate",
          "type": "bool"
        }
      ],
      "name": "setDegisReward",
      "outputs": [],
      "stateMutability": "nonpayable",
      "type": "function"
    },
    {
      "inputs": [
        {
          "internalType": "uint256",
          "name": "_poolId",
          "type": "uint256"
        },
        {
          "internalType": "uint256",
          "name": "_amount",
          "type": "uint256"
        }
      ],
      "name": "stake",
      "outputs": [],
      "stateMutability": "nonpayable",
      "type": "function"
    },
    {
      "inputs": [
        {
          "internalType": "uint256",
          "name": "_poolId",
          "type": "uint256"
        },
        {
          "internalType": "uint256",
          "name": "_amount",
          "type": "uint256"
        }
      ],
      "name": "withdraw",
      "outputs": [],
      "stateMutability": "nonpayable",
      "type": "function"
    },
    {
      "inputs": [
        {
          "internalType": "uint256",
          "name": "_poolId",
          "type": "uint256"
        }
      ],
      "name": "updatePool",
      "outputs": [],
      "stateMutability": "nonpayable",
      "type": "function"
    },
    {
      "inputs": [
        {
          "internalType": "uint256",
          "name": "_poolId",
          "type": "uint256"
        },
        {
          "internalType": "address",
          "name": "_to",
          "type": "address"
        }
      ],
      "name": "harvest",
      "outputs": [],
      "stateMutability": "nonpayable",
      "type": "function"
    },
    {
      "inputs": [],
      "name": "massUpdatePools",
      "outputs": [],
      "stateMutability": "nonpayable",
      "type": "function"
    }
  ],
  "bytecode": "0x60806040523480156200001157600080fd5b5060405162002aa338038062002aa38339818101604052810190620000379190620001fd565b80600660006101000a81548173ffffffffffffffffffffffffffffffffffffffff021916908373ffffffffffffffffffffffffffffffffffffffff160217905550336000806101000a81548173ffffffffffffffffffffffffffffffffffffffff021916908373ffffffffffffffffffffffffffffffffffffffff1602179055506001808190555060026040518060800160405280600073ffffffffffffffffffffffffffffffffffffffff16815260200160008152602001600081526020016000815250908060018154018082558091505060019003906000526020600020906004020160009091909190915060008201518160000160006101000a81548173ffffffffffffffffffffffffffffffffffffffff021916908373ffffffffffffffffffffffffffffffffffffffff1602179055506020820151816001015560408201518160020155606082015181600301555050506200022f565b600080fd5b600073ffffffffffffffffffffffffffffffffffffffff82169050919050565b6000620001c58262000198565b9050919050565b620001d781620001b8565b8114620001e357600080fd5b50565b600081519050620001f781620001cc565b92915050565b60006020828403121562000216576200021562000193565b5b60006200022684828501620001e6565b91505092915050565b612864806200023f6000396000f3fe608060405234801561001057600080fd5b506004361061010b5760003560e01c8063630b5ba1116100a2578063cdfb6cf311610071578063cdfb6cf314610282578063d13f67bc146102b2578063d41dcbea146102e2578063f35e4a6e14610300578063f3c30c0a1461031c5761010b565b8063630b5ba11461020d5780637b0472f0146102175780638da5cb5b1461023357806393f1a40b146102515761010b565b80632a48235b116100de5780632a48235b14610184578063441a3e70146101b757806348cd4cb1146101d357806351eb05a6146101f15761010b565b80630dec23121461011057806317fb77de1461012c57806318fccc761461014a57806329fd200714610166575b600080fd5b61012a60048036038101906101259190611c45565b610338565b005b610134610643565b6040516101419190611ca7565b60405180910390f35b610164600480360381019061015f9190611cc2565b610649565b005b61016e61083b565b60405161017b9190611d61565b60405180910390f35b61019e60048036038101906101999190611d7c565b610861565b6040516101ae9493929190611db8565b60405180910390f35b6101d160048036038101906101cc9190611dfd565b6108c1565b005b6101db610a84565b6040516101e89190611ca7565b60405180910390f35b61020b60048036038101906102069190611d7c565b610a8a565b005b610215610cb0565b005b610231600480360381019061022c9190611dfd565b610d18565b005b61023b610ea4565b6040516102489190611e3d565b60405180910390f35b61026b60048036038101906102669190611cc2565b610ec8565b604051610279929190611e58565b60405180910390f35b61029c60048036038101906102979190611cc2565b610ef9565b6040516102a99190611ca7565b60405180910390f35b6102cc60048036038101906102c79190611cc2565b610f57565b6040516102d99190611ca7565b60405180910390f35b6102ea6111c6565b6040516102f79190611fa3565b60405180910390f35b61031a60048036038101906103159190611d7c565b611299565b005b61033660048036038101906103319190611fc5565b611331565b005b82600073ffffffffffffffffffffffffffffffffffffffff168173ffffffffffffffffffffffffffffffffffffffff1614156103a9576040517f08c379a00000000000000000000000000000000000000000000000000000000081526004016103a09061209b565b60405180910390fd5b60008054906101000a900473ffffffffffffffffffffffffffffffffffffffff1673ffffffffffffffffffffffffffffffffffffffff163373ffffffffffffffffffffffffffffffffffffffff1614610437576040517f08c379a000000000000000000000000000000000000000000000000000000000815260040161042e9061212d565b60405180910390fd5b600061044285611574565b9050801561048757846040517fac7195c000000000000000000000000000000000000000000000000000000000815260040161047e9190611e3d565b60405180910390fd5b821561049657610495610cb0565b5b600060075443116104a9576007546104ab565b435b9050600260405180608001604052808873ffffffffffffffffffffffffffffffffffffffff1681526020018781526020018381526020016000815250908060018154018082558091505060019003906000526020600020906004020160009091909190915060008201518160000160006101000a81548173ffffffffffffffffffffffffffffffffffffffff021916908373ffffffffffffffffffffffffffffffffffffffff1602179055506020820151816001015560408201518160020155606082015181600301555050600154600360008873ffffffffffffffffffffffffffffffffffffffff1673ffffffffffffffffffffffffffffffffffffffff16815260200190815260200160002081905550600160046000600154815260200190815260200160002060006101000a81548160ff02191690831515021790555060018060008282546105fd919061217c565b925050819055507ff816b5143086c89d103a0683286be86c2b741e83ebfa75135aae606e2f5c6e53866040516106339190611e3d565b60405180910390a1505050505050565b60015481565b61065282610a8a565b600060028381548110610668576106676121d2565b5b90600052602060002090600402016040518060800160405290816000820160009054906101000a900473ffffffffffffffffffffffffffffffffffffffff1673ffffffffffffffffffffffffffffffffffffffff1673ffffffffffffffffffffffffffffffffffffffff1681526020016001820154815260200160028201548152602001600382015481525050905060006005600085815260200190815260200160002060003373ffffffffffffffffffffffffffffffffffffffff1673ffffffffffffffffffffffffffffffffffffffff168152602001908152602001600020905060008160000154670de0b6b3a76400008460600151846001015461076f9190612201565b610779919061228a565b61078391906122bb565b9050826060015182600101546107999190612201565b8260000181905550600081146107f7576107f68482600660009054906101000a900473ffffffffffffffffffffffffffffffffffffffff1673ffffffffffffffffffffffffffffffffffffffff166115d69092919063ffffffff16565b5b7fdec9257d126f56798a34ce7ca0ffedeaa9a024543946f79c3b5038035ba32a1e3385878460405161082c94939291906122ef565b60405180910390a15050505050565b600660009054906101000a900473ffffffffffffffffffffffffffffffffffffffff1681565b6002818154811061087157600080fd5b90600052602060002090600402016000915090508060000160009054906101000a900473ffffffffffffffffffffffffffffffffffffffff16908060010154908060020154908060030154905084565b6000600283815481106108d7576108d66121d2565b5b9060005260206000209060040201905060006005600085815260200190815260200160002060003373ffffffffffffffffffffffffffffffffffffffff1673ffffffffffffffffffffffffffffffffffffffff16815260200190815260200160002090508281600101541015610982576040517f08c379a000000000000000000000000000000000000000000000000000000000815260040161097990612380565b60405180910390fd5b61098b84610a8a565b60008160000154836003015483600101546109a69190612201565b6109b091906122bb565b90506109bc338261165c565b838260010160008282546109d091906122bb565b92505081905550826003015482600101546109eb9190612201565b8260000181905550610a4233858560000160009054906101000a900473ffffffffffffffffffffffffffffffffffffffff1673ffffffffffffffffffffffffffffffffffffffff166115d69092919063ffffffff16565b7ff279e6a1f5e320cca91135676d9cb6e44ca8a08c0b88342bcdb1144f6511b568338686604051610a75939291906123a0565b60405180910390a15050505050565b60075481565b600060028281548110610aa057610a9f6121d2565b5b9060005260206000209060040201905080600201544311610ac15750610cad565b60008160000160009054906101000a900473ffffffffffffffffffffffffffffffffffffffff1673ffffffffffffffffffffffffffffffffffffffff166370a08231306040518263ffffffff1660e01b8152600401610b209190611e3d565b60206040518083038186803b158015610b3857600080fd5b505afa158015610b4c573d6000803e3d6000fd5b505050506040513d601f19601f82011682018060405250810190610b7091906123ec565b90506000811415610b8b574382600201819055505050610cad565b6000826002015443610b9d91906122bb565b90506000836001015482610bb19190612201565b9050600660009054906101000a900473ffffffffffffffffffffffffffffffffffffffff1673ffffffffffffffffffffffffffffffffffffffff166340c10f1930836040518363ffffffff1660e01b8152600401610c10929190612419565b600060405180830381600087803b158015610c2a57600080fd5b505af1158015610c3e573d6000803e3d6000fd5b505050508281610c4e919061228a565b846003016000828254610c61919061217c565b925050819055504384600201819055507f141d729c29cc848b27c53f7dbe9f9542cedc4ed2efa7bd2aeb2a4bdce06a407f85604051610ca09190611ca7565b60405180910390a1505050505b50565b6000600280549050905060005b81811015610d1457600015156004600083815260200190815260200160002060009054906101000a900460ff1615151415610cf757610d01565b610d0081610a8a565b5b8080610d0c90612442565b915050610cbd565b5050565b600060028381548110610d2e57610d2d6121d2565b5b9060005260206000209060040201905060006005600085815260200190815260200160002060003373ffffffffffffffffffffffffffffffffffffffff1673ffffffffffffffffffffffffffffffffffffffff1681526020019081526020016000209050610d9b84610a8a565b600081600101541115610ddb576000816000015483600301548360010154610dc39190612201565b610dcd91906122bb565b9050610dd9338261165c565b505b610e2c3330858560000160009054906101000a900473ffffffffffffffffffffffffffffffffffffffff1673ffffffffffffffffffffffffffffffffffffffff1661187e909392919063ffffffff16565b82816001016000828254610e40919061217c565b9250508190555081600301548160010154610e5b9190612201565b81600001819055507f5af417134f72a9d41143ace85b0a26dce6f550f894f2cbc1eeee8810603d91b6338585604051610e96939291906123a0565b60405180910390a150505050565b60008054906101000a900473ffffffffffffffffffffffffffffffffffffffff1681565b6005602052816000526040600020602052806000526040600020600091509150508060000154908060010154905082565b60006005600084815260200190815260200160002060008373ffffffffffffffffffffffffffffffffffffffff1673ffffffffffffffffffffffffffffffffffffffff16815260200190815260200160002060010154905092915050565b600081600073ffffffffffffffffffffffffffffffffffffffff168173ffffffffffffffffffffffffffffffffffffffff161415610fca576040517f08c379a0000000000000000000000000000000000000000000000000000000008152600401610fc19061209b565b60405180910390fd5b600060028581548110610fe057610fdf6121d2565b5b9060005260206000209060040201905080600201544310156110065760009250506111bf565b60006005600087815260200190815260200160002060008673ffffffffffffffffffffffffffffffffffffffff1673ffffffffffffffffffffffffffffffffffffffff168152602001908152602001600020905060008260000160009054906101000a900473ffffffffffffffffffffffffffffffffffffffff1673ffffffffffffffffffffffffffffffffffffffff166370a08231876040518263ffffffff1660e01b81526004016110b99190611e3d565b60206040518083038186803b1580156110d157600080fd5b505afa1580156110e5573d6000803e3d6000fd5b505050506040513d601f19601f8201168201806040525081019061110991906123ec565b905060008360030154905060008211156111b657600084600201544361112f91906122bb565b905060008186600101546111439190612201565b905083670de0b6b3a76400008261115a9190612201565b611164919061228a565b8361116f919061217c565b925060008560000154670de0b6b3a76400008588600101546111919190612201565b61119b919061228a565b6111a591906122bb565b9050809850505050505050506111bf565b60009550505050505b5092915050565b60606002805480602002602001604051908101604052809291908181526020016000905b8282101561129057838290600052602060002090600402016040518060800160405290816000820160009054906101000a900473ffffffffffffffffffffffffffffffffffffffff1673ffffffffffffffffffffffffffffffffffffffff1673ffffffffffffffffffffffffffffffffffffffff1681526020016001820154815260200160028201548152602001600382015481525050815260200190600101906111ea565b50505050905090565b60008054906101000a900473ffffffffffffffffffffffffffffffffffffffff1673ffffffffffffffffffffffffffffffffffffffff163373ffffffffffffffffffffffffffffffffffffffff1614611327576040517f08c379a000000000000000000000000000000000000000000000000000000000815260040161131e9061212d565b60405180910390fd5b8060078190555050565b60008054906101000a900473ffffffffffffffffffffffffffffffffffffffff1673ffffffffffffffffffffffffffffffffffffffff163373ffffffffffffffffffffffffffffffffffffffff16146113bf576040517f08c379a00000000000000000000000000000000000000000000000000000000081526004016113b69061212d565b60405180910390fd5b6000600284815481106113d5576113d46121d2565b5b9060005260206000209060040201600201541415611428576040517f08c379a000000000000000000000000000000000000000000000000000000000815260040161141f906124fd565b60405180910390fd5b801561143757611436610cb0565b5b600015156004600085815260200190815260200160002060009054906101000a900460ff16151514801561146b5750600082115b156114d65760016004600085815260200190815260200160002060006101000a81548160ff0219169083151502179055507ff8e91eae4b15c98725305987a69db94bae83b5d11ced334a69fc66ffe30811a283436040516114cd929190611e58565b60405180910390a15b60008214156115455760006004600085815260200190815260200160002060006101000a81548160ff0219169083151502179055507fdf8caa5de973699f38324e775ca304db91c9af29f29a149b5ed5597ff518731f834360405161153c929190611e58565b60405180910390a15b816002848154811061155a576115596121d2565b5b906000526020600020906004020160010181905550505050565b600080600360008473ffffffffffffffffffffffffffffffffffffffff1673ffffffffffffffffffffffffffffffffffffffff16815260200190815260200160002054905060008114156115cb57600091506115d0565b600191505b50919050565b6116578363a9059cbb60e01b84846040516024016115f5929190612419565b604051602081830303815290604052907bffffffffffffffffffffffffffffffffffffffffffffffffffffffff19166020820180517bffffffffffffffffffffffffffffffffffffffffffffffffffffffff8381831617835250505050611907565b505050565b6000600660009054906101000a900473ffffffffffffffffffffffffffffffffffffffff1673ffffffffffffffffffffffffffffffffffffffff166370a08231306040518263ffffffff1660e01b81526004016116b99190611e3d565b60206040518083038186803b1580156116d157600080fd5b505afa1580156116e5573d6000803e3d6000fd5b505050506040513d601f19601f8201168201806040525081019061170991906123ec565b9050808211156117c857600660009054906101000a900473ffffffffffffffffffffffffffffffffffffffff1673ffffffffffffffffffffffffffffffffffffffff1663a9059cbb84836040518363ffffffff1660e01b8152600401611770929190612419565b602060405180830381600087803b15801561178a57600080fd5b505af115801561179e573d6000803e3d6000fd5b505050506040513d601f19601f820116820180604052508101906117c29190612532565b50611879565b600660009054906101000a900473ffffffffffffffffffffffffffffffffffffffff1673ffffffffffffffffffffffffffffffffffffffff1663a9059cbb84846040518363ffffffff1660e01b8152600401611825929190612419565b602060405180830381600087803b15801561183f57600080fd5b505af1158015611853573d6000803e3d6000fd5b505050506040513d601f19601f820116820180604052508101906118779190612532565b505b505050565b611901846323b872dd60e01b85858560405160240161189f9392919061255f565b604051602081830303815290604052907bffffffffffffffffffffffffffffffffffffffffffffffffffffffff19166020820180517bffffffffffffffffffffffffffffffffffffffffffffffffffffffff8381831617835250505050611907565b50505050565b6000611969826040518060400160405280602081526020017f5361666545524332303a206c6f772d6c6576656c2063616c6c206661696c65648152508573ffffffffffffffffffffffffffffffffffffffff166119ce9092919063ffffffff16565b90506000815111156119c957808060200190518101906119899190612532565b6119c8576040517f08c379a00000000000000000000000000000000000000000000000000000000081526004016119bf90612608565b60405180910390fd5b5b505050565b60606119dd84846000856119e6565b90509392505050565b606082471015611a2b576040517f08c379a0000000000000000000000000000000000000000000000000000000008152600401611a229061269a565b60405180910390fd5b611a3485611afa565b611a73576040517f08c379a0000000000000000000000000000000000000000000000000000000008152600401611a6a90612706565b60405180910390fd5b6000808673ffffffffffffffffffffffffffffffffffffffff168587604051611a9c91906127a0565b60006040518083038185875af1925050503d8060008114611ad9576040519150601f19603f3d011682016040523d82523d6000602084013e611ade565b606091505b5091509150611aee828286611b0d565b92505050949350505050565b600080823b905060008111915050919050565b60608315611b1d57829050611b6d565b600083511115611b305782518084602001fd5b816040517f08c379a0000000000000000000000000000000000000000000000000000000008152600401611b64919061280c565b60405180910390fd5b9392505050565b600080fd5b600073ffffffffffffffffffffffffffffffffffffffff82169050919050565b6000611ba482611b79565b9050919050565b611bb481611b99565b8114611bbf57600080fd5b50565b600081359050611bd181611bab565b92915050565b6000819050919050565b611bea81611bd7565b8114611bf557600080fd5b50565b600081359050611c0781611be1565b92915050565b60008115159050919050565b611c2281611c0d565b8114611c2d57600080fd5b50565b600081359050611c3f81611c19565b92915050565b600080600060608486031215611c5e57611c5d611b74565b5b6000611c6c86828701611bc2565b9350506020611c7d86828701611bf8565b9250506040611c8e86828701611c30565b9150509250925092565b611ca181611bd7565b82525050565b6000602082019050611cbc6000830184611c98565b92915050565b60008060408385031215611cd957611cd8611b74565b5b6000611ce785828601611bf8565b9250506020611cf885828601611bc2565b9150509250929050565b6000819050919050565b6000611d27611d22611d1d84611b79565b611d02565b611b79565b9050919050565b6000611d3982611d0c565b9050919050565b6000611d4b82611d2e565b9050919050565b611d5b81611d40565b82525050565b6000602082019050611d766000830184611d52565b92915050565b600060208284031215611d9257611d91611b74565b5b6000611da084828501611bf8565b91505092915050565b611db281611b99565b82525050565b6000608082019050611dcd6000830187611da9565b611dda6020830186611c98565b611de76040830185611c98565b611df46060830184611c98565b95945050505050565b60008060408385031215611e1457611e13611b74565b5b6000611e2285828601611bf8565b9250506020611e3385828601611bf8565b9150509250929050565b6000602082019050611e526000830184611da9565b92915050565b6000604082019050611e6d6000830185611c98565b611e7a6020830184611c98565b9392505050565b600081519050919050565b600082825260208201905092915050565b6000819050602082019050919050565b611eb681611b99565b82525050565b611ec581611bd7565b82525050565b608082016000820151611ee16000850182611ead565b506020820151611ef46020850182611ebc565b506040820151611f076040850182611ebc565b506060820151611f1a6060850182611ebc565b50505050565b6000611f2c8383611ecb565b60808301905092915050565b6000602082019050919050565b6000611f5082611e81565b611f5a8185611e8c565b9350611f6583611e9d565b8060005b83811015611f96578151611f7d8882611f20565b9750611f8883611f38565b925050600181019050611f69565b5085935050505092915050565b60006020820190508181036000830152611fbd8184611f45565b905092915050565b600080600060608486031215611fde57611fdd611b74565b5b6000611fec86828701611bf8565b9350506020611ffd86828701611bf8565b925050604061200e86828701611c30565b9150509250925092565b600082825260208201905092915050565b7f74686520616464726573732063616e206e6f74206265207a65726f206164647260008201527f6573730000000000000000000000000000000000000000000000000000000000602082015250565b6000612085602383612018565b915061209082612029565b604082019050919050565b600060208201905081810360008301526120b481612078565b9050919050565b7f4f6e6c7920746865206f776e65722063616e2063616c6c20746869732066756e60008201527f6374696f6e000000000000000000000000000000000000000000000000000000602082015250565b6000612117602583612018565b9150612122826120bb565b604082019050919050565b600060208201905081810360008301526121468161210a565b9050919050565b7f4e487b7100000000000000000000000000000000000000000000000000000000600052601160045260246000fd5b600061218782611bd7565b915061219283611bd7565b9250827fffffffffffffffffffffffffffffffffffffffffffffffffffffffffffffffff038211156121c7576121c661214d565b5b828201905092915050565b7f4e487b7100000000000000000000000000000000000000000000000000000000600052603260045260246000fd5b600061220c82611bd7565b915061221783611bd7565b9250817fffffffffffffffffffffffffffffffffffffffffffffffffffffffffffffffff04831182151516156122505761224f61214d565b5b828202905092915050565b7f4e487b7100000000000000000000000000000000000000000000000000000000600052601260045260246000fd5b600061229582611bd7565b91506122a083611bd7565b9250826122b0576122af61225b565b5b828204905092915050565b60006122c682611bd7565b91506122d183611bd7565b9250828210156122e4576122e361214d565b5b828203905092915050565b60006080820190506123046000830187611da9565b6123116020830186611da9565b61231e6040830185611c98565b61232b6060830184611c98565b95945050505050565b7f6e6f7420656e6f7567682062616c616e63650000000000000000000000000000600082015250565b600061236a601283612018565b915061237582612334565b602082019050919050565b600060208201905081810360008301526123998161235d565b9050919050565b60006060820190506123b56000830186611da9565b6123c26020830185611c98565b6123cf6040830184611c98565b949350505050565b6000815190506123e681611be1565b92915050565b60006020828403121561240257612401611b74565b5b6000612410848285016123d7565b91505092915050565b600060408201905061242e6000830185611da9565b61243b6020830184611c98565b9392505050565b600061244d82611bd7565b91507fffffffffffffffffffffffffffffffffffffffffffffffffffffffffffffffff8214156124805761247f61214d565b5b600182019050919050565b7f6e6f207375636820706f6f6c2c20796f757220706f6f6c4964206d617920626560008201527f2077726f6e670000000000000000000000000000000000000000000000000000602082015250565b60006124e7602683612018565b91506124f28261248b565b604082019050919050565b60006020820190508181036000830152612516816124da565b9050919050565b60008151905061252c81611c19565b92915050565b60006020828403121561254857612547611b74565b5b60006125568482850161251d565b91505092915050565b60006060820190506125746000830186611da9565b6125816020830185611da9565b61258e6040830184611c98565b949350505050565b7f5361666545524332303a204552433230206f7065726174696f6e20646964206e60008201527f6f74207375636365656400000000000000000000000000000000000000000000602082015250565b60006125f2602a83612018565b91506125fd82612596565b604082019050919050565b60006020820190508181036000830152612621816125e5565b9050919050565b7f416464726573733a20696e73756666696369656e742062616c616e636520666f60008201527f722063616c6c0000000000000000000000000000000000000000000000000000602082015250565b6000612684602683612018565b915061268f82612628565b604082019050919050565b600060208201905081810360008301526126b381612677565b9050919050565b7f416464726573733a2063616c6c20746f206e6f6e2d636f6e7472616374000000600082015250565b60006126f0601d83612018565b91506126fb826126ba565b602082019050919050565b6000602082019050818103600083015261271f816126e3565b9050919050565b600081519050919050565b600081905092915050565b60005b8381101561275a57808201518184015260208101905061273f565b83811115612769576000848401525b50505050565b600061277a82612726565b6127848185612731565b935061279481856020860161273c565b80840191505092915050565b60006127ac828461276f565b915081905092915050565b600081519050919050565b6000601f19601f8301169050919050565b60006127de826127b7565b6127e88185612018565b93506127f881856020860161273c565b612801816127c2565b840191505092915050565b6000602082019050818103600083015261282681846127d3565b90509291505056fea2646970667358221220c6d30f291a71cb5495eb5d0d7baa5cb26836d04d6d338410ded29d19e0910ec064736f6c63430008090033",
  "immutableReferences": {},
  "source": "// SPDX-License-Identifier: MIT\npragma solidity 0.8.9;\n\nimport \"@openzeppelin/contracts/token/ERC20/IERC20.sol\";\nimport \"@openzeppelin/contracts/token/ERC20/utils/SafeERC20.sol\";\nimport \"./interfaces/ILPToken.sol\";\nimport \"./interfaces/IDegisToken.sol\";\nimport \"./interfaces/IFarmingPool.sol\";\n\n/**\n * @title  Farming Pool\n * @notice This contract is similar to MasterChef\n * @dev    The pool id starts from 1 not 0!\n */\n\ncontract FarmingPool is IFarmingPool {\n    using SafeERC20 for IERC20;\n    using SafeERC20 for IDegisToken;\n\n    address public owner;\n\n    // PoolId starts from 1\n    uint256 public _nextPoolId;\n\n    struct PoolInfo {\n        address lpToken;\n        uint256 degisPerBlock;\n        uint256 lastRewardBlock;\n        uint256 accDegisPerShare;\n    }\n    PoolInfo[] public poolList;\n\n    mapping(address => uint256) poolMapping; // lptoken => poolId\n\n    mapping(uint256 => bool) isFarming; // poolId => alreadyFarming\n\n    struct UserInfo {\n        uint256 rewardDebt; // degis reward debt\n        uint256 stakingBalance; // the amount of a user's staking in the pool\n    }\n    // poolId => userAddress => userInfo\n    mapping(uint256 => mapping(address => UserInfo)) public userInfo;\n\n    // The reward token is degis\n    IDegisToken public degis;\n\n    uint256 public startBlock; // Farming starts from a certain block number\n\n    constructor(address _degis) {\n        degis = IDegisToken(_degis);\n\n        owner = msg.sender;\n\n        // Start from 1\n        _nextPoolId = 1;\n\n        // Manually fit the poolList[0] to avoid potential misleading\n        poolList.push(\n            PoolInfo({\n                lpToken: address(0),\n                degisPerBlock: 0,\n                lastRewardBlock: 0,\n                accDegisPerShare: 0\n            })\n        );\n    }\n\n    // ---------------------------------------------------------------------------------------- //\n    // ************************************** Modifiers *************************************** //\n    // ---------------------------------------------------------------------------------------- //\n\n    modifier onlyOwner() {\n        require(msg.sender == owner, \"Only the owner can call this function\");\n        _;\n    }\n\n    /**\n     * @notice The address can not be zero\n     */\n    modifier notZeroAddress(address _address) {\n        require(_address != address(0), \"the address can not be zero address\");\n        _;\n    }\n\n    // ---------------------------------------------------------------------------------------- //\n    // *********************************** View Functions ************************************* //\n    // ---------------------------------------------------------------------------------------- //\n\n    /**\n     * @notice Check the amount of pending degis reward\n     * @param _poolId PoolId of this farming pool\n     * @param _userAddress User address\n     * @return pendingDegisAmount Amount of pending degis\n     */\n    function pendingDegis(uint256 _poolId, address _userAddress)\n        public\n        view\n        notZeroAddress(_userAddress)\n        returns (uint256)\n    {\n        PoolInfo storage poolInfo = poolList[_poolId];\n\n        if (block.number < poolInfo.lastRewardBlock) return 0;\n\n        UserInfo storage user = userInfo[_poolId][_userAddress];\n\n        uint256 lp_balance = IERC20(poolInfo.lpToken).balanceOf(_userAddress);\n\n        uint256 accDegisPerShare = poolInfo.accDegisPerShare;\n\n        if (lp_balance > 0) {\n            // Deigs amount given to this pool\n            uint256 blocks = block.number - poolInfo.lastRewardBlock;\n            uint256 degisReward = poolInfo.degisPerBlock * blocks;\n\n            // Update accDegisPerShare\n            accDegisPerShare += (degisReward * 1e18) / lp_balance;\n\n            uint256 pending = ((user.stakingBalance * accDegisPerShare) /\n                1e18) - user.rewardDebt;\n            return pending;\n        } else {\n            return 0;\n        }\n    }\n\n    /**\n     * @notice Get the total pool list\n     */\n    function getPoolList() external view returns (PoolInfo[] memory) {\n        return poolList;\n    }\n\n    /**\n     * @notice Get user balance\n     * @param _poolId Id of the pool\n     * @param _userAddress Address of the user\n     * @return _balance User's balance (lpToken)\n     */\n    function getUserBalance(uint256 _poolId, address _userAddress)\n        external\n        view\n        returns (uint256 _balance)\n    {\n        return userInfo[_poolId][_userAddress].stakingBalance;\n    }\n\n    // ---------------------------------------------------------------------------------------- //\n    // ************************************* Set Functions ************************************ //\n    // ---------------------------------------------------------------------------------------- //\n\n    /**\n     * @notice Set the start block number\n     * @param _startBlock New start block number\n     */\n    function setStartBlock(uint256 _startBlock) external onlyOwner {\n        startBlock = _startBlock;\n    }\n\n    // ---------------------------------------------------------------------------------------- //\n    // *********************************** Main Functions ************************************* //\n    // ---------------------------------------------------------------------------------------- //\n\n    /**\n     * @notice Add a new lp to the pool. Can only be called by the owner.\n     * @param _lpToken LP token address\n     * @param _degisPerBlock Reward distribution per block for this new pool\n     * @param _withUpdate Whether update all pools' status\n     */\n    function add(\n        address _lpToken,\n        uint256 _degisPerBlock,\n        bool _withUpdate\n    ) public notZeroAddress(_lpToken) onlyOwner {\n        // Check if already exists, if the poolId is 0, that means not in the pool\n        bool isInPool = _alreadyInPool(_lpToken);\n\n        // Maybe better to use require, I just want to test this form\n        if (isInPool) {\n            revert AlreadyInPool(_lpToken);\n        }\n\n        if (_withUpdate) {\n            massUpdatePools();\n        }\n\n        uint256 lastRewardBlock = block.number > startBlock\n            ? block.number\n            : startBlock;\n\n        // Push this new pool into the list\n        poolList.push(\n            PoolInfo({\n                lpToken: _lpToken,\n                degisPerBlock: _degisPerBlock,\n                lastRewardBlock: lastRewardBlock,\n                accDegisPerShare: 0\n            })\n        );\n\n        // Store the poolId and set the farming status to true\n        poolMapping[_lpToken] = _nextPoolId;\n        isFarming[_nextPoolId] = true;\n\n        _nextPoolId += 1;\n\n        emit NewPoolAdded(_lpToken);\n    }\n\n    /**\n     * @notice Update the degisPerBlock for a specific pool (set to 0 to stop farming)\n     * @param _poolId Id of the farming pool\n     * @param _degisPerBlock New reward amount per block\n     * @param _withUpdate Whether update all the pool\n     */\n    function setDegisReward(\n        uint256 _poolId,\n        uint256 _degisPerBlock,\n        bool _withUpdate\n    ) public onlyOwner {\n        // Ensure there already exists this pool\n        require(\n            poolList[_poolId].lastRewardBlock != 0,\n            \"no such pool, your poolId may be wrong\"\n        );\n        if (_withUpdate) {\n            massUpdatePools();\n        }\n\n        if (isFarming[_poolId] == false && _degisPerBlock > 0) {\n            isFarming[_poolId] = true;\n            emit RestartFarmingPool(_poolId, block.number);\n        }\n\n        if (_degisPerBlock == 0) {\n            isFarming[_poolId] = false;\n            emit StopFarmingPool(_poolId, block.number);\n        }\n        poolList[_poolId].degisPerBlock = _degisPerBlock;\n    }\n\n    /**\n     * @notice Stake LP token into the farming pool\n     * @param _poolId Id of the farming pool\n     * @param _amount Staking amount\n     */\n    function stake(uint256 _poolId, uint256 _amount) public {\n        PoolInfo storage pool = poolList[_poolId];\n        UserInfo storage user = userInfo[_poolId][msg.sender];\n\n        // Must update first!!\n        updatePool(_poolId);\n\n        if (user.stakingBalance > 0) {\n            uint256 pending = user.stakingBalance *\n                pool.accDegisPerShare -\n                user.rewardDebt;\n\n            safeDegisTransfer(msg.sender, pending);\n        }\n\n        // Approve\n        IERC20(pool.lpToken).safeTransferFrom(\n            address(msg.sender),\n            address(this),\n            _amount\n        );\n\n        user.stakingBalance += _amount;\n        user.rewardDebt = user.stakingBalance * pool.accDegisPerShare;\n\n        emit Stake(msg.sender, _poolId, _amount);\n    }\n\n    /**\n     * @notice Withdraw lptoken from the pool\n     * @param _poolId Id of the farming pool\n     * @param _amount Amount of lp tokens to withdraw\n     */\n    function withdraw(uint256 _poolId, uint256 _amount) public {\n        PoolInfo storage pool = poolList[_poolId];\n        UserInfo storage user = userInfo[_poolId][msg.sender];\n\n        require(user.stakingBalance >= _amount, \"not enough balance\");\n\n        updatePool(_poolId);\n\n        uint256 pending = user.stakingBalance *\n            pool.accDegisPerShare -\n            user.rewardDebt;\n\n        safeDegisTransfer(msg.sender, pending);\n\n        user.stakingBalance -= _amount;\n        user.rewardDebt = user.stakingBalance * pool.accDegisPerShare;\n\n        IERC20(pool.lpToken).safeTransfer(address(msg.sender), _amount);\n\n        emit Withdraw(msg.sender, _poolId, _amount);\n    }\n\n    /**\n     * @notice Update the pool's reward status\n     * @param _poolId Id of the farming pool\n     */\n    function updatePool(uint256 _poolId) public {\n        PoolInfo storage pool = poolList[_poolId];\n        if (block.number <= pool.lastRewardBlock) {\n            return;\n        }\n        uint256 lpSupply = IERC20(pool.lpToken).balanceOf(address(this));\n        if (lpSupply == 0) {\n            pool.lastRewardBlock = block.number;\n            return;\n        }\n        uint256 blocks = block.number - pool.lastRewardBlock;\n        uint256 degisReward = blocks * pool.degisPerBlock;\n\n        // Don't forget to set the farming pool as minter\n        degis.mint(address(this), degisReward);\n\n        pool.accDegisPerShare += degisReward / lpSupply;\n        pool.lastRewardBlock = block.number;\n\n        emit PoolUpdated(_poolId);\n    }\n\n    /**\n     * @notice Harvest the degis reward and can be sent to another address\n     * @param _poolId: Id of the farming pool\n     * @param _to Receiver of degis rewards.\n     */\n    function harvest(uint256 _poolId, address _to) public {\n        updatePool(_poolId);\n        PoolInfo memory pool = poolList[_poolId];\n        UserInfo storage user = userInfo[_poolId][msg.sender];\n\n        uint256 pendingReward = (user.stakingBalance * pool.accDegisPerShare) /\n            (1e18) -\n            user.rewardDebt;\n\n        // Effects\n        user.rewardDebt = user.stakingBalance * pool.accDegisPerShare;\n\n        // Interactions\n        if (pendingReward != 0) {\n            degis.safeTransfer(_to, pendingReward);\n        }\n\n        emit Harvest(msg.sender, _to, _poolId, pendingReward);\n    }\n\n    /**\n     * @notice Update all farming pools (except for those stopped ones)\n     */\n    function massUpdatePools() public {\n        uint256 length = poolList.length;\n        for (uint256 poolId = 0; poolId < length; poolId++) {\n            if (isFarming[poolId] == false) continue;\n            else updatePool(poolId);\n        }\n    }\n\n    // ---------------------------------------------------------------------------------------- //\n    // ********************************** Internal Functions ********************************** //\n    // ---------------------------------------------------------------------------------------- //\n\n    /**\n     * @notice Check if a lptoken has been added into the pool before\n     * @dev This can be written as a modifier, I just want to test the error form\n     * @param _lpTokenAddress LP token address\n     * @return _isInPool Wether this lp already in pool\n     */\n    function _alreadyInPool(address _lpTokenAddress)\n        internal\n        view\n        returns (bool _isInPool)\n    {\n        uint256 poolId = poolMapping[_lpTokenAddress];\n        // Never been added\n        if (poolId == 0) _isInPool = false;\n        else _isInPool = true;\n    }\n\n    /**\n     * @notice Safe degis transfer (check if the pool has enough DEGIS token)\n     * @param _to User's address\n     * @param _amount Amount to transfer\n     */\n    function safeDegisTransfer(address _to, uint256 _amount) internal {\n        uint256 DegisBalance = degis.balanceOf(address(this));\n        if (_amount > DegisBalance) {\n            degis.transfer(_to, DegisBalance);\n        } else {\n            degis.transfer(_to, _amount);\n        }\n    }\n}\n",
  "sourcePath": "D:\\src\\Degis-Contracts-1\\contracts\\FarmingPool.sol",
  "compiler": {
    "name": "solc",
    "version": "0.8.9+commit.e5eed63a.Emscripten.clang"
  },
  "schemaVersion": "3.4.3",
  "updatedAt": "2021-12-02T17:43:33.774Z",
  "devdoc": {
    "details": "The pool id starts from 1 not 0!",
    "kind": "dev",
    "methods": {
      "add(address,uint256,bool)": {
        "params": {
          "_degisPerBlock": "Reward distribution per block for this new pool",
          "_lpToken": "LP token address",
          "_withUpdate": "Whether update all pools' status"
        }
      },
      "getUserBalance(uint256,address)": {
        "params": {
          "_poolId": "Id of the pool",
          "_userAddress": "Address of the user"
        },
        "returns": {
          "_balance": "User's balance (lpToken)"
        }
      },
      "harvest(uint256,address)": {
        "params": {
          "_poolId": ": Id of the farming pool",
          "_to": "Receiver of degis rewards."
        }
      },
      "pendingDegis(uint256,address)": {
        "params": {
          "_poolId": "PoolId of this farming pool",
          "_userAddress": "User address"
        },
        "returns": {
          "_0": "pendingDegisAmount Amount of pending degis"
        }
      },
      "setDegisReward(uint256,uint256,bool)": {
        "params": {
          "_degisPerBlock": "New reward amount per block",
          "_poolId": "Id of the farming pool",
          "_withUpdate": "Whether update all the pool"
        }
      },
      "setStartBlock(uint256)": {
        "params": {
          "_startBlock": "New start block number"
        }
      },
      "stake(uint256,uint256)": {
        "params": {
          "_amount": "Staking amount",
          "_poolId": "Id of the farming pool"
        }
      },
      "updatePool(uint256)": {
        "params": {
          "_poolId": "Id of the farming pool"
        }
      },
      "withdraw(uint256,uint256)": {
        "params": {
          "_amount": "Amount of lp tokens to withdraw",
          "_poolId": "Id of the farming pool"
        }
      }
    },
    "title": "Farming Pool",
    "version": 1
  },
  "userdoc": {
    "kind": "user",
    "methods": {
      "add(address,uint256,bool)": {
        "notice": "Add a new lp to the pool. Can only be called by the owner."
      },
      "getPoolList()": {
        "notice": "Get the total pool list"
      },
      "getUserBalance(uint256,address)": {
        "notice": "Get user balance"
      },
      "harvest(uint256,address)": {
        "notice": "Harvest the degis reward and can be sent to another address"
      },
      "massUpdatePools()": {
        "notice": "Update all farming pools (except for those stopped ones)"
      },
      "pendingDegis(uint256,address)": {
        "notice": "Check the amount of pending degis reward"
      },
      "setDegisReward(uint256,uint256,bool)": {
        "notice": "Update the degisPerBlock for a specific pool (set to 0 to stop farming)"
      },
      "setStartBlock(uint256)": {
        "notice": "Set the start block number"
      },
      "stake(uint256,uint256)": {
        "notice": "Stake LP token into the farming pool"
      },
      "updatePool(uint256)": {
        "notice": "Update the pool's reward status"
      },
      "withdraw(uint256,uint256)": {
        "notice": "Withdraw lptoken from the pool"
      }
    },
    "notice": "This contract is similar to MasterChef",
    "version": 1
  }
}