{
  "contractName": "FDPolicyToken",
  "abi": [
    {
      "inputs": [],
      "stateMutability": "nonpayable",
      "type": "constructor"
    },
    {
      "anonymous": false,
      "inputs": [
        {
          "indexed": true,
          "internalType": "address",
          "name": "owner",
          "type": "address"
        },
        {
          "indexed": true,
          "internalType": "address",
          "name": "approved",
          "type": "address"
        },
        {
          "indexed": true,
          "internalType": "uint256",
          "name": "tokenId",
          "type": "uint256"
        }
      ],
      "name": "Approval",
      "type": "event"
    },
    {
      "anonymous": false,
      "inputs": [
        {
          "indexed": true,
          "internalType": "address",
          "name": "owner",
          "type": "address"
        },
        {
          "indexed": true,
          "internalType": "address",
          "name": "operator",
          "type": "address"
        },
        {
          "indexed": false,
          "internalType": "bool",
          "name": "approved",
          "type": "bool"
        }
      ],
      "name": "ApprovalForAll",
      "type": "event"
    },
    {
      "anonymous": false,
      "inputs": [
        {
          "indexed": true,
          "internalType": "address",
          "name": "previousOwner",
          "type": "address"
        },
        {
          "indexed": true,
          "internalType": "address",
          "name": "newOwner",
          "type": "address"
        }
      ],
      "name": "OwnershipTransferred",
      "type": "event"
    },
    {
      "anonymous": false,
      "inputs": [
        {
          "indexed": true,
          "internalType": "address",
          "name": "from",
          "type": "address"
        },
        {
          "indexed": true,
          "internalType": "address",
          "name": "to",
          "type": "address"
        },
        {
          "indexed": true,
          "internalType": "uint256",
          "name": "tokenId",
          "type": "uint256"
        }
      ],
      "name": "Transfer",
      "type": "event"
    },
    {
      "inputs": [],
      "name": "_nextId",
      "outputs": [
        {
          "internalType": "uint256",
          "name": "",
          "type": "uint256"
        }
      ],
      "stateMutability": "view",
      "type": "function",
      "constant": true
    },
    {
      "inputs": [
        {
          "internalType": "address",
          "name": "to",
          "type": "address"
        },
        {
          "internalType": "uint256",
          "name": "tokenId",
          "type": "uint256"
        }
      ],
      "name": "approve",
      "outputs": [],
      "stateMutability": "nonpayable",
      "type": "function"
    },
    {
      "inputs": [
        {
          "internalType": "address",
          "name": "owner",
          "type": "address"
        }
      ],
      "name": "balanceOf",
      "outputs": [
        {
          "internalType": "uint256",
          "name": "",
          "type": "uint256"
        }
      ],
      "stateMutability": "view",
      "type": "function",
      "constant": true
    },
    {
      "inputs": [
        {
          "internalType": "uint256",
          "name": "tokenId",
          "type": "uint256"
        }
      ],
      "name": "getApproved",
      "outputs": [
        {
          "internalType": "address",
          "name": "",
          "type": "address"
        }
      ],
      "stateMutability": "view",
      "type": "function",
      "constant": true
    },
    {
      "inputs": [
        {
          "internalType": "address",
          "name": "owner",
          "type": "address"
        },
        {
          "internalType": "address",
          "name": "operator",
          "type": "address"
        }
      ],
      "name": "isApprovedForAll",
      "outputs": [
        {
          "internalType": "bool",
          "name": "",
          "type": "bool"
        }
      ],
      "stateMutability": "view",
      "type": "function",
      "constant": true
    },
    {
      "inputs": [],
      "name": "name",
      "outputs": [
        {
          "internalType": "string",
          "name": "",
          "type": "string"
        }
      ],
      "stateMutability": "view",
      "type": "function",
      "constant": true
    },
    {
      "inputs": [],
      "name": "owner",
      "outputs": [
        {
          "internalType": "address",
          "name": "",
          "type": "address"
        }
      ],
      "stateMutability": "view",
      "type": "function",
      "constant": true
    },
    {
      "inputs": [
        {
          "internalType": "uint256",
          "name": "tokenId",
          "type": "uint256"
        }
      ],
      "name": "ownerOf",
      "outputs": [
        {
          "internalType": "address",
          "name": "",
          "type": "address"
        }
      ],
      "stateMutability": "view",
      "type": "function",
      "constant": true
    },
    {
      "inputs": [],
      "name": "renounceOwnership",
      "outputs": [],
      "stateMutability": "nonpayable",
      "type": "function"
    },
    {
      "inputs": [
        {
          "internalType": "address",
          "name": "from",
          "type": "address"
        },
        {
          "internalType": "address",
          "name": "to",
          "type": "address"
        },
        {
          "internalType": "uint256",
          "name": "tokenId",
          "type": "uint256"
        }
      ],
      "name": "safeTransferFrom",
      "outputs": [],
      "stateMutability": "nonpayable",
      "type": "function"
    },
    {
      "inputs": [
        {
          "internalType": "address",
          "name": "from",
          "type": "address"
        },
        {
          "internalType": "address",
          "name": "to",
          "type": "address"
        },
        {
          "internalType": "uint256",
          "name": "tokenId",
          "type": "uint256"
        },
        {
          "internalType": "bytes",
          "name": "_data",
          "type": "bytes"
        }
      ],
      "name": "safeTransferFrom",
      "outputs": [],
      "stateMutability": "nonpayable",
      "type": "function"
    },
    {
      "inputs": [
        {
          "internalType": "address",
          "name": "operator",
          "type": "address"
        },
        {
          "internalType": "bool",
          "name": "approved",
          "type": "bool"
        }
      ],
      "name": "setApprovalForAll",
      "outputs": [],
      "stateMutability": "nonpayable",
      "type": "function"
    },
    {
      "inputs": [
        {
          "internalType": "bytes4",
          "name": "interfaceId",
          "type": "bytes4"
        }
      ],
      "name": "supportsInterface",
      "outputs": [
        {
          "internalType": "bool",
          "name": "",
          "type": "bool"
        }
      ],
      "stateMutability": "view",
      "type": "function",
      "constant": true
    },
    {
      "inputs": [],
      "name": "symbol",
      "outputs": [
        {
          "internalType": "string",
          "name": "",
          "type": "string"
        }
      ],
      "stateMutability": "view",
      "type": "function",
      "constant": true
    },
    {
      "inputs": [
        {
          "internalType": "uint256",
          "name": "index",
          "type": "uint256"
        }
      ],
      "name": "tokenByIndex",
      "outputs": [
        {
          "internalType": "uint256",
          "name": "",
          "type": "uint256"
        }
      ],
      "stateMutability": "view",
      "type": "function",
      "constant": true
    },
    {
      "inputs": [
        {
          "internalType": "address",
          "name": "owner",
          "type": "address"
        },
        {
          "internalType": "uint256",
          "name": "index",
          "type": "uint256"
        }
      ],
      "name": "tokenOfOwnerByIndex",
      "outputs": [
        {
          "internalType": "uint256",
          "name": "",
          "type": "uint256"
        }
      ],
      "stateMutability": "view",
      "type": "function",
      "constant": true
    },
    {
      "inputs": [],
      "name": "totalSupply",
      "outputs": [
        {
          "internalType": "uint256",
          "name": "",
          "type": "uint256"
        }
      ],
      "stateMutability": "view",
      "type": "function",
      "constant": true
    },
    {
      "inputs": [
        {
          "internalType": "address",
          "name": "from",
          "type": "address"
        },
        {
          "internalType": "address",
          "name": "to",
          "type": "address"
        },
        {
          "internalType": "uint256",
          "name": "tokenId",
          "type": "uint256"
        }
      ],
      "name": "transferFrom",
      "outputs": [],
      "stateMutability": "nonpayable",
      "type": "function"
    },
    {
      "inputs": [
        {
          "internalType": "address",
          "name": "newOwner",
          "type": "address"
        }
      ],
      "name": "transferOwnership",
      "outputs": [],
      "stateMutability": "nonpayable",
      "type": "function"
    },
    {
      "inputs": [],
      "name": "getNextId",
      "outputs": [
        {
          "internalType": "uint256",
          "name": "",
          "type": "uint256"
        }
      ],
      "stateMutability": "view",
      "type": "function",
      "constant": true
    },
    {
      "inputs": [
        {
          "internalType": "uint256",
          "name": "_tokenId",
          "type": "uint256"
        }
      ],
      "name": "tokenURI",
      "outputs": [
        {
          "internalType": "string",
          "name": "",
          "type": "string"
        }
      ],
      "stateMutability": "view",
      "type": "function",
      "constant": true
    },
    {
      "inputs": [
        {
          "internalType": "address",
          "name": "_policyFlow",
          "type": "address"
        }
      ],
      "name": "updatePolicyFlow",
      "outputs": [],
      "stateMutability": "nonpayable",
      "type": "function"
    },
    {
      "inputs": [
        {
          "internalType": "address",
          "name": "_to",
          "type": "address"
        }
      ],
      "name": "mintPolicyToken",
      "outputs": [],
      "stateMutability": "nonpayable",
      "type": "function"
    },
    {
      "inputs": [
        {
          "internalType": "address",
          "name": "_from",
          "type": "address"
        },
        {
          "internalType": "address",
          "name": "_to",
          "type": "address"
        },
        {
          "internalType": "uint256",
          "name": "_tokenId",
          "type": "uint256"
        }
      ],
      "name": "transferOwner",
      "outputs": [],
      "stateMutability": "nonpayable",
      "type": "function"
    },
    {
      "inputs": [
        {
          "internalType": "uint256",
          "name": "_tokenId",
          "type": "uint256"
        }
      ],
      "name": "getTokenURI",
      "outputs": [
        {
          "internalType": "string",
          "name": "",
          "type": "string"
        }
      ],
      "stateMutability": "view",
      "type": "function",
      "constant": true
    }
  ],
  "bytecode": "0x60806040523480156200001157600080fd5b506040518060400160405280601d81526020017f44656769735f466c6967687444656c61795f506f6c696379546f6b656e0000008152506040518060400160405280600b81526020017f44454749535f46445f5054000000000000000000000000000000000000000000815250816000908051906020019062000096929190620001ae565b508060019080519060200190620000af929190620001ae565b505050620000d2620000c6620000e060201b60201c565b620000e860201b60201c565b6001600c81905550620002c3565b600033905090565b6000600a60009054906101000a900473ffffffffffffffffffffffffffffffffffffffff16905081600a60006101000a81548173ffffffffffffffffffffffffffffffffffffffff021916908373ffffffffffffffffffffffffffffffffffffffff1602179055508173ffffffffffffffffffffffffffffffffffffffff168173ffffffffffffffffffffffffffffffffffffffff167f8be0079c531659141344cd1fd0a4f28419497f9722a3daafe3b4186f6b6457e060405160405180910390a35050565b828054620001bc906200028d565b90600052602060002090601f016020900481019282620001e057600085556200022c565b82601f10620001fb57805160ff19168380011785556200022c565b828001600101855582156200022c579182015b828111156200022b5782518255916020019190600101906200020e565b5b5090506200023b91906200023f565b5090565b5b808211156200025a57600081600090555060010162000240565b5090565b7f4e487b7100000000000000000000000000000000000000000000000000000000600052602260045260246000fd5b60006002820490506001821680620002a657607f821691505b60208210811415620002bd57620002bc6200025e565b5b50919050565b6142a580620002d36000396000f3fe608060405234801561001057600080fd5b50600436106101735760003560e01c806370a08231116100de578063b88d4fde11610097578063c87b56dd11610071578063c87b56dd14610448578063e985e9c514610478578063f2f2fff5146104a8578063f2fde38b146104c657610173565b8063b88d4fde146103f2578063b918e5e21461040e578063bc9683261461042a57610173565b806370a0823114610344578063715018a6146103745780638da5cb5b1461037e57806395d89b411461039c5780639b16b417146103ba578063a22cb465146103d657610173565b806323b872dd1161013057806323b872dd1461024c5780632f745c59146102685780633bb3a24d1461029857806342842e0e146102c85780634f6ccce7146102e45780636352211e1461031457610173565b806301ffc9a71461017857806306fdde03146101a8578063081812fc146101c6578063095ea7b3146101f6578063161b5e461461021257806318160ddd1461022e575b600080fd5b610192600480360381019061018d91906126e7565b6104e2565b60405161019f919061272f565b60405180910390f35b6101b061055c565b6040516101bd91906127e3565b60405180910390f35b6101e060048036038101906101db919061283b565b6105ee565b6040516101ed91906128a9565b60405180910390f35b610210600480360381019061020b91906128f0565b610673565b005b61022c60048036038101906102279190612930565b61078b565b005b61023661082c565b6040516102439190612992565b60405180910390f35b61026660048036038101906102619190612930565b610839565b005b610282600480360381019061027d91906128f0565b610899565b60405161028f9190612992565b60405180910390f35b6102b260048036038101906102ad919061283b565b61093e565b6040516102bf91906127e3565b60405180910390f35b6102e260048036038101906102dd9190612930565b610a9c565b005b6102fe60048036038101906102f9919061283b565b610abc565b60405161030b9190612992565b60405180910390f35b61032e6004803603810190610329919061283b565b610b2d565b60405161033b91906128a9565b60405180910390f35b61035e600480360381019061035991906129ad565b610bdf565b60405161036b9190612992565b60405180910390f35b61037c610c97565b005b610386610d1f565b60405161039391906128a9565b60405180910390f35b6103a4610d49565b6040516103b191906127e3565b60405180910390f35b6103d460048036038101906103cf91906129ad565b610ddb565b005b6103f060048036038101906103eb9190612a06565b610e9b565b005b61040c60048036038101906104079190612b7b565b61101c565b005b610428600480360381019061042391906129ad565b61107e565b005b610432611174565b60405161043f9190612992565b60405180910390f35b610462600480360381019061045d919061283b565b61117e565b60405161046f91906127e3565b60405180910390f35b610492600480360381019061048d9190612bfe565b6111d4565b60405161049f919061272f565b60405180910390f35b6104b0611268565b6040516104bd9190612992565b60405180910390f35b6104e060048036038101906104db91906129ad565b61126e565b005b60007f780e9d63000000000000000000000000000000000000000000000000000000007bffffffffffffffffffffffffffffffffffffffffffffffffffffffff1916827bffffffffffffffffffffffffffffffffffffffffffffffffffffffff19161480610555575061055482611366565b5b9050919050565b60606000805461056b90612c6d565b80601f016020809104026020016040519081016040528092919081815260200182805461059790612c6d565b80156105e45780601f106105b9576101008083540402835291602001916105e4565b820191906000526020600020905b8154815290600101906020018083116105c757829003601f168201915b5050505050905090565b60006105f982611448565b610638576040517f08c379a000000000000000000000000000000000000000000000000000000000815260040161062f90612d11565b60405180910390fd5b6004600083815260200190815260200160002060009054906101000a900473ffffffffffffffffffffffffffffffffffffffff169050919050565b600061067e82610b2d565b90508073ffffffffffffffffffffffffffffffffffffffff168373ffffffffffffffffffffffffffffffffffffffff1614156106ef576040517f08c379a00000000000000000000000000000000000000000000000000000000081526004016106e690612da3565b60405180910390fd5b8073ffffffffffffffffffffffffffffffffffffffff1661070e6114b4565b73ffffffffffffffffffffffffffffffffffffffff16148061073d575061073c816107376114b4565b6111d4565b5b61077c576040517f08c379a000000000000000000000000000000000000000000000000000000000815260040161077390612e35565b60405180910390fd5b61078683836114bc565b505050565b610796838383610839565b600b60009054906101000a900473ffffffffffffffffffffffffffffffffffffffff1673ffffffffffffffffffffffffffffffffffffffff16638e34ce358285856040518463ffffffff1660e01b81526004016107f593929190612e55565b600060405180830381600087803b15801561080f57600080fd5b505af1158015610823573d6000803e3d6000fd5b50505050505050565b6000600880549050905090565b61084a6108446114b4565b82611575565b610889576040517f08c379a000000000000000000000000000000000000000000000000000000000815260040161088090612efe565b60405180910390fd5b610894838383611653565b505050565b60006108a483610bdf565b82106108e5576040517f08c379a00000000000000000000000000000000000000000000000000000000081526004016108dc90612f90565b60405180910390fd5b600660008473ffffffffffffffffffffffffffffffffffffffff1673ffffffffffffffffffffffffffffffffffffffff168152602001908152602001600020600083815260200190815260200160002054905092915050565b60606000600b60009054906101000a900473ffffffffffffffffffffffffffffffffffffffff1673ffffffffffffffffffffffffffffffffffffffff16636b0edde9846040518263ffffffff1660e01b815260040161099d9190612992565b60006040518083038186803b1580156109b557600080fd5b505afa1580156109c9573d6000803e3d6000fd5b505050506040513d6000823e3d601f19601f820116820180604052508101906109f291906131fd565b9050610a94604051806101400160405280836000015181526020018360600151815260200183604001518152602001836020015173ffffffffffffffffffffffffffffffffffffffff168152602001836080015181526020018360a0015181526020018360c0015181526020018360e00151815260200183610100015181526020018361012001516004811115610a8c57610a8b613246565b5b8152506118af565b915050919050565b610ab78383836040518060200160405280600081525061101c565b505050565b6000610ac661082c565b8210610b07576040517f08c379a0000000000000000000000000000000000000000000000000000000008152600401610afe906132e7565b60405180910390fd5b60088281548110610b1b57610b1a613307565b5b90600052602060002001549050919050565b6000806002600084815260200190815260200160002060009054906101000a900473ffffffffffffffffffffffffffffffffffffffff169050600073ffffffffffffffffffffffffffffffffffffffff168173ffffffffffffffffffffffffffffffffffffffff161415610bd6576040517f08c379a0000000000000000000000000000000000000000000000000000000008152600401610bcd906133a8565b60405180910390fd5b80915050919050565b60008073ffffffffffffffffffffffffffffffffffffffff168273ffffffffffffffffffffffffffffffffffffffff161415610c50576040517f08c379a0000000000000000000000000000000000000000000000000000000008152600401610c479061343a565b60405180910390fd5b600360008373ffffffffffffffffffffffffffffffffffffffff1673ffffffffffffffffffffffffffffffffffffffff168152602001908152602001600020549050919050565b610c9f6114b4565b73ffffffffffffffffffffffffffffffffffffffff16610cbd610d1f565b73ffffffffffffffffffffffffffffffffffffffff1614610d13576040517f08c379a0000000000000000000000000000000000000000000000000000000008152600401610d0a906134a6565b60405180910390fd5b610d1d6000611988565b565b6000600a60009054906101000a900473ffffffffffffffffffffffffffffffffffffffff16905090565b606060018054610d5890612c6d565b80601f0160208091040260200160405190810160405280929190818152602001828054610d8490612c6d565b8015610dd15780601f10610da657610100808354040283529160200191610dd1565b820191906000526020600020905b815481529060010190602001808311610db457829003601f168201915b5050505050905090565b610de36114b4565b73ffffffffffffffffffffffffffffffffffffffff16610e01610d1f565b73ffffffffffffffffffffffffffffffffffffffff1614610e57576040517f08c379a0000000000000000000000000000000000000000000000000000000008152600401610e4e906134a6565b60405180910390fd5b80600b60006101000a81548173ffffffffffffffffffffffffffffffffffffffff021916908373ffffffffffffffffffffffffffffffffffffffff16021790555050565b610ea36114b4565b73ffffffffffffffffffffffffffffffffffffffff168273ffffffffffffffffffffffffffffffffffffffff161415610f11576040517f08c379a0000000000000000000000000000000000000000000000000000000008152600401610f0890613512565b60405180910390fd5b8060056000610f1e6114b4565b73ffffffffffffffffffffffffffffffffffffffff1673ffffffffffffffffffffffffffffffffffffffff16815260200190815260200160002060008473ffffffffffffffffffffffffffffffffffffffff1673ffffffffffffffffffffffffffffffffffffffff16815260200190815260200160002060006101000a81548160ff0219169083151502179055508173ffffffffffffffffffffffffffffffffffffffff16610fcb6114b4565b73ffffffffffffffffffffffffffffffffffffffff167f17307eab39ab6107e8899845ad3d59bd9653f200f220920489ca2b5937696c3183604051611010919061272f565b60405180910390a35050565b61102d6110276114b4565b83611575565b61106c576040517f08c379a000000000000000000000000000000000000000000000000000000000815260040161106390612efe565b60405180910390fd5b61107884848484611a4e565b50505050565b611086610d1f565b73ffffffffffffffffffffffffffffffffffffffff163373ffffffffffffffffffffffffffffffffffffffff16148061110c5750600b60009054906101000a900473ffffffffffffffffffffffffffffffffffffffff1673ffffffffffffffffffffffffffffffffffffffff163373ffffffffffffffffffffffffffffffffffffffff16145b61114b576040517f08c379a00000000000000000000000000000000000000000000000000000000081526004016111429061357e565b60405180910390fd5b6000600c6000815480929190611160906135cd565b9190505590506111708282611aaa565b5050565b6000600c54905090565b6060600c5482106111c4576040517f08c379a00000000000000000000000000000000000000000000000000000000081526004016111bb90613662565b60405180910390fd5b6111cd8261093e565b9050919050565b6000600560008473ffffffffffffffffffffffffffffffffffffffff1673ffffffffffffffffffffffffffffffffffffffff16815260200190815260200160002060008373ffffffffffffffffffffffffffffffffffffffff1673ffffffffffffffffffffffffffffffffffffffff16815260200190815260200160002060009054906101000a900460ff16905092915050565b600c5481565b6112766114b4565b73ffffffffffffffffffffffffffffffffffffffff16611294610d1f565b73ffffffffffffffffffffffffffffffffffffffff16146112ea576040517f08c379a00000000000000000000000000000000000000000000000000000000081526004016112e1906134a6565b60405180910390fd5b600073ffffffffffffffffffffffffffffffffffffffff168173ffffffffffffffffffffffffffffffffffffffff16141561135a576040517f08c379a0000000000000000000000000000000000000000000000000000000008152600401611351906136f4565b60405180910390fd5b61136381611988565b50565b60007f80ac58cd000000000000000000000000000000000000000000000000000000007bffffffffffffffffffffffffffffffffffffffffffffffffffffffff1916827bffffffffffffffffffffffffffffffffffffffffffffffffffffffff1916148061143157507f5b5e139f000000000000000000000000000000000000000000000000000000007bffffffffffffffffffffffffffffffffffffffffffffffffffffffff1916827bffffffffffffffffffffffffffffffffffffffffffffffffffffffff1916145b80611441575061144082611c78565b5b9050919050565b60008073ffffffffffffffffffffffffffffffffffffffff166002600084815260200190815260200160002060009054906101000a900473ffffffffffffffffffffffffffffffffffffffff1673ffffffffffffffffffffffffffffffffffffffff1614159050919050565b600033905090565b816004600083815260200190815260200160002060006101000a81548173ffffffffffffffffffffffffffffffffffffffff021916908373ffffffffffffffffffffffffffffffffffffffff160217905550808273ffffffffffffffffffffffffffffffffffffffff1661152f83610b2d565b73ffffffffffffffffffffffffffffffffffffffff167f8c5be1e5ebec7d5bd14f71427d1e84f3dd0314c0f7b2291e5b200ac8c7c3b92560405160405180910390a45050565b600061158082611448565b6115bf576040517f08c379a00000000000000000000000000000000000000000000000000000000081526004016115b690613786565b60405180910390fd5b60006115ca83610b2d565b90508073ffffffffffffffffffffffffffffffffffffffff168473ffffffffffffffffffffffffffffffffffffffff16148061163957508373ffffffffffffffffffffffffffffffffffffffff16611621846105ee565b73ffffffffffffffffffffffffffffffffffffffff16145b8061164a575061164981856111d4565b5b91505092915050565b8273ffffffffffffffffffffffffffffffffffffffff1661167382610b2d565b73ffffffffffffffffffffffffffffffffffffffff16146116c9576040517f08c379a00000000000000000000000000000000000000000000000000000000081526004016116c090613818565b60405180910390fd5b600073ffffffffffffffffffffffffffffffffffffffff168273ffffffffffffffffffffffffffffffffffffffff161415611739576040517f08c379a0000000000000000000000000000000000000000000000000000000008152600401611730906138aa565b60405180910390fd5b611744838383611ce2565b61174f6000826114bc565b6001600360008573ffffffffffffffffffffffffffffffffffffffff1673ffffffffffffffffffffffffffffffffffffffff168152602001908152602001600020600082825461179f91906138ca565b925050819055506001600360008473ffffffffffffffffffffffffffffffffffffffff1673ffffffffffffffffffffffffffffffffffffffff16815260200190815260200160002060008282546117f691906138fe565b92505081905550816002600083815260200190815260200160002060006101000a81548173ffffffffffffffffffffffffffffffffffffffff021916908373ffffffffffffffffffffffffffffffffffffffff160217905550808273ffffffffffffffffffffffffffffffffffffffff168473ffffffffffffffffffffffffffffffffffffffff167fddf252ad1be2c89b69c2b068fc378daa952ba7f163c4a11628f55a4df523b3ef60405160405180910390a4505050565b6060600082610120015190506118c88360000151611df6565b83602001516118da8560400151611df6565b6118e78660600151611f57565b611907670de0b6b3a764000088608001516119029190613983565b611df6565b611927670de0b6b3a76400008960a001516119229190613983565b611df6565b6119348960c00151611df6565b6119418a60e00151611df6565b61194f8b6101000151611df6565b6119588a611df6565b6040516020016119719a99989796959493929190613d80565b604051602081830303815290604052915050919050565b6000600a60009054906101000a900473ffffffffffffffffffffffffffffffffffffffff16905081600a60006101000a81548173ffffffffffffffffffffffffffffffffffffffff021916908373ffffffffffffffffffffffffffffffffffffffff1602179055508173ffffffffffffffffffffffffffffffffffffffff168173ffffffffffffffffffffffffffffffffffffffff167f8be0079c531659141344cd1fd0a4f28419497f9722a3daafe3b4186f6b6457e060405160405180910390a35050565b611a59848484611653565b611a6584848484611f8a565b611aa4576040517f08c379a0000000000000000000000000000000000000000000000000000000008152600401611a9b90613f44565b60405180910390fd5b50505050565b600073ffffffffffffffffffffffffffffffffffffffff168273ffffffffffffffffffffffffffffffffffffffff161415611b1a576040517f08c379a0000000000000000000000000000000000000000000000000000000008152600401611b1190613fb0565b60405180910390fd5b611b2381611448565b15611b63576040517f08c379a0000000000000000000000000000000000000000000000000000000008152600401611b5a9061401c565b60405180910390fd5b611b6f60008383611ce2565b6001600360008473ffffffffffffffffffffffffffffffffffffffff1673ffffffffffffffffffffffffffffffffffffffff1681526020019081526020016000206000828254611bbf91906138fe565b92505081905550816002600083815260200190815260200160002060006101000a81548173ffffffffffffffffffffffffffffffffffffffff021916908373ffffffffffffffffffffffffffffffffffffffff160217905550808273ffffffffffffffffffffffffffffffffffffffff16600073ffffffffffffffffffffffffffffffffffffffff167fddf252ad1be2c89b69c2b068fc378daa952ba7f163c4a11628f55a4df523b3ef60405160405180910390a45050565b60007f01ffc9a7000000000000000000000000000000000000000000000000000000007bffffffffffffffffffffffffffffffffffffffffffffffffffffffff1916827bffffffffffffffffffffffffffffffffffffffffffffffffffffffff1916149050919050565b611ced838383612121565b600073ffffffffffffffffffffffffffffffffffffffff168373ffffffffffffffffffffffffffffffffffffffff161415611d3057611d2b81612126565b611d6f565b8173ffffffffffffffffffffffffffffffffffffffff168373ffffffffffffffffffffffffffffffffffffffff1614611d6e57611d6d838261216f565b5b5b600073ffffffffffffffffffffffffffffffffffffffff168273ffffffffffffffffffffffffffffffffffffffff161415611db257611dad816122dc565b611df1565b8273ffffffffffffffffffffffffffffffffffffffff168273ffffffffffffffffffffffffffffffffffffffff1614611df057611def82826123ad565b5b5b505050565b60606000821415611e3e576040518060400160405280600181526020017f30000000000000000000000000000000000000000000000000000000000000008152509050611f52565b600082905060005b60008214611e70578080611e59906135cd565b915050600a82611e699190613983565b9150611e46565b60008167ffffffffffffffff811115611e8c57611e8b612a50565b5b6040519080825280601f01601f191660200182016040528015611ebe5781602001600182028036833780820191505090505b5090505b60008514611f4b57600182611ed791906138ca565b9150600a85611ee6919061403c565b6030611ef291906138fe565b60f81b818381518110611f0857611f07613307565b5b60200101907effffffffffffffffffffffffffffffffffffffffffffffffffffffffffffff1916908160001a905350600a85611f449190613983565b9450611ec2565b8093505050505b919050565b6060611f8360148373ffffffffffffffffffffffffffffffffffffffff1661242c90919063ffffffff16565b9050919050565b6000611fab8473ffffffffffffffffffffffffffffffffffffffff16612668565b15612114578373ffffffffffffffffffffffffffffffffffffffff1663150b7a02611fd46114b4565b8786866040518563ffffffff1660e01b8152600401611ff694939291906140c2565b602060405180830381600087803b15801561201057600080fd5b505af192505050801561204157506040513d601f19601f8201168201806040525081019061203e9190614123565b60015b6120c4573d8060008114612071576040519150601f19603f3d011682016040523d82523d6000602084013e612076565b606091505b506000815114156120bc576040517f08c379a00000000000000000000000000000000000000000000000000000000081526004016120b390613f44565b60405180910390fd5b805181602001fd5b63150b7a0260e01b7bffffffffffffffffffffffffffffffffffffffffffffffffffffffff1916817bffffffffffffffffffffffffffffffffffffffffffffffffffffffff191614915050612119565b600190505b949350505050565b505050565b6008805490506009600083815260200190815260200160002081905550600881908060018154018082558091505060019003906000526020600020016000909190919091505550565b6000600161217c84610bdf565b61218691906138ca565b905060006007600084815260200190815260200160002054905081811461226b576000600660008673ffffffffffffffffffffffffffffffffffffffff1673ffffffffffffffffffffffffffffffffffffffff168152602001908152602001600020600084815260200190815260200160002054905080600660008773ffffffffffffffffffffffffffffffffffffffff1673ffffffffffffffffffffffffffffffffffffffff168152602001908152602001600020600084815260200190815260200160002081905550816007600083815260200190815260200160002081905550505b6007600084815260200190815260200160002060009055600660008573ffffffffffffffffffffffffffffffffffffffff1673ffffffffffffffffffffffffffffffffffffffff16815260200190815260200160002060008381526020019081526020016000206000905550505050565b600060016008805490506122f091906138ca565b90506000600960008481526020019081526020016000205490506000600883815481106123205761231f613307565b5b90600052602060002001549050806008838154811061234257612341613307565b5b90600052602060002001819055508160096000838152602001908152602001600020819055506009600085815260200190815260200160002060009055600880548061239157612390614150565b5b6001900381819060005260206000200160009055905550505050565b60006123b883610bdf565b905081600660008573ffffffffffffffffffffffffffffffffffffffff1673ffffffffffffffffffffffffffffffffffffffff168152602001908152602001600020600083815260200190815260200160002081905550806007600084815260200190815260200160002081905550505050565b60606000600283600261243f919061417f565b61244991906138fe565b67ffffffffffffffff81111561246257612461612a50565b5b6040519080825280601f01601f1916602001820160405280156124945781602001600182028036833780820191505090505b5090507f3000000000000000000000000000000000000000000000000000000000000000816000815181106124cc576124cb613307565b5b60200101907effffffffffffffffffffffffffffffffffffffffffffffffffffffffffffff1916908160001a9053507f7800000000000000000000000000000000000000000000000000000000000000816001815181106125305761252f613307565b5b60200101907effffffffffffffffffffffffffffffffffffffffffffffffffffffffffffff1916908160001a90535060006001846002612570919061417f565b61257a91906138fe565b90505b600181111561261a577f3031323334353637383961626364656600000000000000000000000000000000600f8616601081106125bc576125bb613307565b5b1a60f81b8282815181106125d3576125d2613307565b5b60200101907effffffffffffffffffffffffffffffffffffffffffffffffffffffffffffff1916908160001a905350600485901c945080612613906141d9565b905061257d565b506000841461265e576040517f08c379a00000000000000000000000000000000000000000000000000000000081526004016126559061424f565b60405180910390fd5b8091505092915050565b600080823b905060008111915050919050565b6000604051905090565b600080fd5b600080fd5b60007fffffffff0000000000000000000000000000000000000000000000000000000082169050919050565b6126c48161268f565b81146126cf57600080fd5b50565b6000813590506126e1816126bb565b92915050565b6000602082840312156126fd576126fc612685565b5b600061270b848285016126d2565b91505092915050565b60008115159050919050565b61272981612714565b82525050565b60006020820190506127446000830184612720565b92915050565b600081519050919050565b600082825260208201905092915050565b60005b83811015612784578082015181840152602081019050612769565b83811115612793576000848401525b50505050565b6000601f19601f8301169050919050565b60006127b58261274a565b6127bf8185612755565b93506127cf818560208601612766565b6127d881612799565b840191505092915050565b600060208201905081810360008301526127fd81846127aa565b905092915050565b6000819050919050565b61281881612805565b811461282357600080fd5b50565b6000813590506128358161280f565b92915050565b60006020828403121561285157612850612685565b5b600061285f84828501612826565b91505092915050565b600073ffffffffffffffffffffffffffffffffffffffff82169050919050565b600061289382612868565b9050919050565b6128a381612888565b82525050565b60006020820190506128be600083018461289a565b92915050565b6128cd81612888565b81146128d857600080fd5b50565b6000813590506128ea816128c4565b92915050565b6000806040838503121561290757612906612685565b5b6000612915858286016128db565b925050602061292685828601612826565b9150509250929050565b60008060006060848603121561294957612948612685565b5b6000612957868287016128db565b9350506020612968868287016128db565b925050604061297986828701612826565b9150509250925092565b61298c81612805565b82525050565b60006020820190506129a76000830184612983565b92915050565b6000602082840312156129c3576129c2612685565b5b60006129d1848285016128db565b91505092915050565b6129e381612714565b81146129ee57600080fd5b50565b600081359050612a00816129da565b92915050565b60008060408385031215612a1d57612a1c612685565b5b6000612a2b858286016128db565b9250506020612a3c858286016129f1565b9150509250929050565b600080fd5b600080fd5b7f4e487b7100000000000000000000000000000000000000000000000000000000600052604160045260246000fd5b612a8882612799565b810181811067ffffffffffffffff82111715612aa757612aa6612a50565b5b80604052505050565b6000612aba61267b565b9050612ac68282612a7f565b919050565b600067ffffffffffffffff821115612ae657612ae5612a50565b5b612aef82612799565b9050602081019050919050565b82818337600083830152505050565b6000612b1e612b1984612acb565b612ab0565b905082815260208101848484011115612b3a57612b39612a4b565b5b612b45848285612afc565b509392505050565b600082601f830112612b6257612b61612a46565b5b8135612b72848260208601612b0b565b91505092915050565b60008060008060808587031215612b9557612b94612685565b5b6000612ba3878288016128db565b9450506020612bb4878288016128db565b9350506040612bc587828801612826565b925050606085013567ffffffffffffffff811115612be657612be561268a565b5b612bf287828801612b4d565b91505092959194509250565b60008060408385031215612c1557612c14612685565b5b6000612c23858286016128db565b9250506020612c34858286016128db565b9150509250929050565b7f4e487b7100000000000000000000000000000000000000000000000000000000600052602260045260246000fd5b60006002820490506001821680612c8557607f821691505b60208210811415612c9957612c98612c3e565b5b50919050565b7f4552433732313a20617070726f76656420717565727920666f72206e6f6e657860008201527f697374656e7420746f6b656e0000000000000000000000000000000000000000602082015250565b6000612cfb602c83612755565b9150612d0682612c9f565b604082019050919050565b60006020820190508181036000830152612d2a81612cee565b9050919050565b7f4552433732313a20617070726f76616c20746f2063757272656e74206f776e6560008201527f7200000000000000000000000000000000000000000000000000000000000000602082015250565b6000612d8d602183612755565b9150612d9882612d31565b604082019050919050565b60006020820190508181036000830152612dbc81612d80565b9050919050565b7f4552433732313a20617070726f76652063616c6c6572206973206e6f74206f7760008201527f6e6572206e6f7220617070726f76656420666f7220616c6c0000000000000000602082015250565b6000612e1f603883612755565b9150612e2a82612dc3565b604082019050919050565b60006020820190508181036000830152612e4e81612e12565b9050919050565b6000606082019050612e6a6000830186612983565b612e77602083018561289a565b612e84604083018461289a565b949350505050565b7f4552433732313a207472616e736665722063616c6c6572206973206e6f74206f60008201527f776e6572206e6f7220617070726f766564000000000000000000000000000000602082015250565b6000612ee8603183612755565b9150612ef382612e8c565b604082019050919050565b60006020820190508181036000830152612f1781612edb565b9050919050565b7f455243373231456e756d657261626c653a206f776e657220696e646578206f7560008201527f74206f6620626f756e6473000000000000000000000000000000000000000000602082015250565b6000612f7a602b83612755565b9150612f8582612f1e565b604082019050919050565b60006020820190508181036000830152612fa981612f6d565b9050919050565b600080fd5b600080fd5b600081519050612fc98161280f565b92915050565b600081519050612fde816128c4565b92915050565b600067ffffffffffffffff821115612fff57612ffe612a50565b5b61300882612799565b9050602081019050919050565b600061302861302384612fe4565b612ab0565b90508281526020810184848401111561304457613043612a4b565b5b61304f848285612766565b509392505050565b600082601f83011261306c5761306b612a46565b5b815161307c848260208601613015565b91505092915050565b6005811061309257600080fd5b50565b6000815190506130a481613085565b92915050565b6000815190506130b9816129da565b92915050565b600061018082840312156130d6576130d5612fb0565b5b6130e1610180612ab0565b905060006130f184828501612fba565b600083015250602061310584828501612fcf565b602083015250604061311984828501612fba565b604083015250606082015167ffffffffffffffff81111561313d5761313c612fb5565b5b61314984828501613057565b606083015250608061315d84828501612fba565b60808301525060a061317184828501612fba565b60a08301525060c061318584828501612fba565b60c08301525060e061319984828501612fba565b60e0830152506101006131ae84828501612fba565b610100830152506101206131c484828501613095565b610120830152506101406131da848285016130aa565b610140830152506101606131f084828501612fba565b6101608301525092915050565b60006020828403121561321357613212612685565b5b600082015167ffffffffffffffff8111156132315761323061268a565b5b61323d848285016130bf565b91505092915050565b7f4e487b7100000000000000000000000000000000000000000000000000000000600052602160045260246000fd5b7f455243373231456e756d657261626c653a20676c6f62616c20696e646578206f60008201527f7574206f6620626f756e64730000000000000000000000000000000000000000602082015250565b60006132d1602c83612755565b91506132dc82613275565b604082019050919050565b60006020820190508181036000830152613300816132c4565b9050919050565b7f4e487b7100000000000000000000000000000000000000000000000000000000600052603260045260246000fd5b7f4552433732313a206f776e657220717565727920666f72206e6f6e657869737460008201527f656e7420746f6b656e0000000000000000000000000000000000000000000000602082015250565b6000613392602983612755565b915061339d82613336565b604082019050919050565b600060208201905081810360008301526133c181613385565b9050919050565b7f4552433732313a2062616c616e636520717565727920666f7220746865207a6560008201527f726f206164647265737300000000000000000000000000000000000000000000602082015250565b6000613424602a83612755565b915061342f826133c8565b604082019050919050565b6000602082019050818103600083015261345381613417565b9050919050565b7f4f776e61626c653a2063616c6c6572206973206e6f7420746865206f776e6572600082015250565b6000613490602083612755565b915061349b8261345a565b602082019050919050565b600060208201905081810360008301526134bf81613483565b9050919050565b7f4552433732313a20617070726f766520746f2063616c6c657200000000000000600082015250565b60006134fc601983612755565b9150613507826134c6565b602082019050919050565b6000602082019050818103600083015261352b816134ef565b9050919050565b7f6f6e6c7920746865206f776e6572206f722074686520706f6c696379666c6f77600082015250565b6000613568602083612755565b915061357382613532565b602082019050919050565b600060208201905081810360008301526135978161355b565b9050919050565b7f4e487b7100000000000000000000000000000000000000000000000000000000600052601160045260246000fd5b60006135d882612805565b91507fffffffffffffffffffffffffffffffffffffffffffffffffffffffffffffffff82141561360b5761360a61359e565b5b600182019050919050565b7f6572726f722c20746f6b656e496420746f6f206c617267652100000000000000600082015250565b600061364c601983612755565b915061365782613616565b602082019050919050565b6000602082019050818103600083015261367b8161363f565b9050919050565b7f4f776e61626c653a206e6577206f776e657220697320746865207a65726f206160008201527f6464726573730000000000000000000000000000000000000000000000000000602082015250565b60006136de602683612755565b91506136e982613682565b604082019050919050565b6000602082019050818103600083015261370d816136d1565b9050919050565b7f4552433732313a206f70657261746f7220717565727920666f72206e6f6e657860008201527f697374656e7420746f6b656e0000000000000000000000000000000000000000602082015250565b6000613770602c83612755565b915061377b82613714565b604082019050919050565b6000602082019050818103600083015261379f81613763565b9050919050565b7f4552433732313a207472616e73666572206f6620746f6b656e2074686174206960008201527f73206e6f74206f776e0000000000000000000000000000000000000000000000602082015250565b6000613802602983612755565b915061380d826137a6565b604082019050919050565b60006020820190508181036000830152613831816137f5565b9050919050565b7f4552433732313a207472616e7366657220746f20746865207a65726f2061646460008201527f7265737300000000000000000000000000000000000000000000000000000000602082015250565b6000613894602483612755565b915061389f82613838565b604082019050919050565b600060208201905081810360008301526138c381613887565b9050919050565b60006138d582612805565b91506138e083612805565b9250828210156138f3576138f261359e565b5b828203905092915050565b600061390982612805565b915061391483612805565b9250827fffffffffffffffffffffffffffffffffffffffffffffffffffffffffffffffff038211156139495761394861359e565b5b828201905092915050565b7f4e487b7100000000000000000000000000000000000000000000000000000000600052601260045260246000fd5b600061398e82612805565b915061399983612805565b9250826139a9576139a8613954565b5b828204905092915050565b600081905092915050565b7f50726f6475637449643a20000000000000000000000000000000000000000000600082015250565b60006139f5600b836139b4565b9150613a00826139bf565b600b82019050919050565b6000613a168261274a565b613a2081856139b4565b9350613a30818560208601612766565b80840191505092915050565b7f2c20000000000000000000000000000000000000000000000000000000000000600082015250565b6000613a726002836139b4565b9150613a7d82613a3c565b600282019050919050565b7f466c696768744e756d6265723a20000000000000000000000000000000000000600082015250565b6000613abe600e836139b4565b9150613ac982613a88565b600e82019050919050565b7f506f6c69637949643a2000000000000000000000000000000000000000000000600082015250565b6000613b0a600a836139b4565b9150613b1582613ad4565b600a82019050919050565b7f4275796572416464726573733a20000000000000000000000000000000000000600082015250565b6000613b56600e836139b4565b9150613b6182613b20565b600e82019050919050565b7f5072656d69756d3a200000000000000000000000000000000000000000000000600082015250565b6000613ba26009836139b4565b9150613bad82613b6c565b600982019050919050565b7f5061796f66663a20000000000000000000000000000000000000000000000000600082015250565b6000613bee6008836139b4565b9150613bf982613bb8565b600882019050919050565b7f5075726368617365446174653a20000000000000000000000000000000000000600082015250565b6000613c3a600e836139b4565b9150613c4582613c04565b600e82019050919050565b7f446570617274757265446174653a000000000000000000000000000000000000600082015250565b6000613c86600e836139b4565b9150613c9182613c50565b600e82019050919050565b7f4c616e64696e67446174653a2000000000000000000000000000000000000000600082015250565b6000613cd2600d836139b4565b9150613cdd82613c9c565b600d82019050919050565b7f506f6c6963795374617475733a20000000000000000000000000000000000000600082015250565b6000613d1e600e836139b4565b9150613d2982613ce8565b600e82019050919050565b7f2e00000000000000000000000000000000000000000000000000000000000000600082015250565b6000613d6a6001836139b4565b9150613d7582613d34565b600182019050919050565b6000613d8b826139e8565b9150613d97828d613a0b565b9150613da282613a65565b9150613dad82613ab1565b9150613db9828c613a0b565b9150613dc482613afd565b9150613dd0828b613a0b565b9150613ddb82613a65565b9150613de682613b49565b9150613df2828a613a0b565b9150613dfd82613b95565b9150613e098289613a0b565b9150613e1482613a65565b9150613e1f82613be1565b9150613e2b8288613a0b565b9150613e3682613a65565b9150613e4182613c2d565b9150613e4d8287613a0b565b9150613e5882613a65565b9150613e6382613c79565b9150613e6f8286613a0b565b9150613e7a82613a65565b9150613e8582613cc5565b9150613e918285613a0b565b9150613e9c82613a65565b9150613ea782613d11565b9150613eb38284613a0b565b9150613ebe82613d5d565b91508190509b9a5050505050505050505050565b7f4552433732313a207472616e7366657220746f206e6f6e20455243373231526560008201527f63656976657220696d706c656d656e7465720000000000000000000000000000602082015250565b6000613f2e603283612755565b9150613f3982613ed2565b604082019050919050565b60006020820190508181036000830152613f5d81613f21565b9050919050565b7f4552433732313a206d696e7420746f20746865207a65726f2061646472657373600082015250565b6000613f9a602083612755565b9150613fa582613f64565b602082019050919050565b60006020820190508181036000830152613fc981613f8d565b9050919050565b7f4552433732313a20746f6b656e20616c7265616479206d696e74656400000000600082015250565b6000614006601c83612755565b915061401182613fd0565b602082019050919050565b6000602082019050818103600083015261403581613ff9565b9050919050565b600061404782612805565b915061405283612805565b92508261406257614061613954565b5b828206905092915050565b600081519050919050565b600082825260208201905092915050565b60006140948261406d565b61409e8185614078565b93506140ae818560208601612766565b6140b781612799565b840191505092915050565b60006080820190506140d7600083018761289a565b6140e4602083018661289a565b6140f16040830185612983565b81810360608301526141038184614089565b905095945050505050565b60008151905061411d816126bb565b92915050565b60006020828403121561413957614138612685565b5b60006141478482850161410e565b91505092915050565b7f4e487b7100000000000000000000000000000000000000000000000000000000600052603160045260246000fd5b600061418a82612805565b915061419583612805565b9250817fffffffffffffffffffffffffffffffffffffffffffffffffffffffffffffffff04831182151516156141ce576141cd61359e565b5b828202905092915050565b60006141e482612805565b915060008214156141f8576141f761359e565b5b600182039050919050565b7f537472696e67733a20686578206c656e67746820696e73756666696369656e74600082015250565b6000614239602083612755565b915061424482614203565b602082019050919050565b600060208201905081810360008301526142688161422c565b905091905056fea26469706673582212205cced3dfb6df80ad8ca534116ca231e3c5649597557eb64bb96db5dafdc4b5db64736f6c63430008090033",
  "immutableReferences": {},
  "source": "// SPDX-License-Identifier: MIT\npragma solidity 0.8.9;\n\nimport \"@openzeppelin/contracts/token/ERC721/extensions/ERC721Enumerable.sol\";\nimport \"@openzeppelin/contracts/access/Ownable.sol\";\nimport \"@openzeppelin/contracts/utils/Strings.sol\";\nimport \"./interfaces/IPolicyFlow.sol\";\nimport \"./interfaces/IFDPolicyToken.sol\";\n\n/**\n * @title  Policy Token for flight delay\n * @notice ERC721 policy token\n *         Can get a long string form of the tokenURI\n *         When the ownership is transferred, it will update the status in policyFlow\n */\ncontract FDPolicyToken is ERC721Enumerable, Ownable, IFDPolicyToken {\n    using Strings for uint256;\n\n    // PolicyFlow contract interface\n    IPolicyFlow policyFlow;\n\n    uint256 public _nextId;\n\n    // ---------------------------------------------------------------------------------------- //\n    // ************************************* Constructor ************************************** //\n    // ---------------------------------------------------------------------------------------- //\n\n    constructor() ERC721(\"Degis_FlightDelay_PolicyToken\", \"DEGIS_FD_PT\") {\n        _nextId = 1;\n    }\n\n    // ---------------------------------------------------------------------------------------- //\n    // ************************************ View Functions ************************************ //\n    // ---------------------------------------------------------------------------------------- //\n\n    /**\n     * @notice Get the next token Id of PolicyToken\n     *         The current max token Id is (_nextId - 1)\n     * @return Next token Id\n     */\n    function getNextId() public view returns (uint256) {\n        return _nextId;\n    }\n\n    /**\n     * @notice Get the tokenURI of a policy\n     * @param _tokenId Token Id of the policy token\n     * @return The tokenURI in string form\n     */\n    function tokenURI(uint256 _tokenId)\n        public\n        view\n        override(ERC721, IFDPolicyToken)\n        returns (string memory)\n    {\n        require(_tokenId < _nextId, \"error, tokenId too large!\");\n        return getTokenURI(_tokenId);\n    }\n\n    // ---------------------------------------------------------------------------------------- //\n    // ************************************ Owner Functions *********************************** //\n    // ---------------------------------------------------------------------------------------- //\n\n    /**\n       @notice Update the policyFlow address if it has been updated\n       @param _policyFlow New policyFlow contract address\n     */\n    function updatePolicyFlow(address _policyFlow) external onlyOwner {\n        policyFlow = IPolicyFlow(_policyFlow);\n    }\n\n    /**\n     * @notice Mint a new policy token to an address (test function, removed after online)\n     * @param _to The receiver address\n     */\n    function mintPolicyToken(address _to) public {\n        require(\n            msg.sender == owner() || msg.sender == address(policyFlow),\n            \"only the owner or the policyflow\"\n        );\n        uint256 tokenId = _nextId++;\n        _mint(_to, tokenId);\n    }\n\n    // ---------------------------------------------------------------------------------------- //\n    // *********************************** Main Functions ************************************* //\n    // ---------------------------------------------------------------------------------------- //\n\n    /**\n     * @notice Transfer the owner of a policy token and update the information in policyFlow\n     * @dev Need approval and is prepared for secondary market\n     * @param _from The original owner of the policy\n     * @param _to The new owner of the policy\n     * @param _tokenId Token id of the policy\n     */\n    function transferOwner(\n        address _from,\n        address _to,\n        uint256 _tokenId\n    ) public {\n        transferFrom(_from, _to, _tokenId);\n        policyFlow.policyOwnerTransfer(_tokenId, _from, _to);\n    }\n\n    /**\n     * @notice Get the tokenURI, the metadata is from policyFlow contract\n     * @param _tokenId Token Id of the policy token\n     */\n    function getTokenURI(uint256 _tokenId) public view returns (string memory) {\n        PolicyInfo memory info = policyFlow.getPolicyInfoById(_tokenId);\n\n        return\n            constructTokenURI(\n                PolicyTokenURIParam(\n                    info.productId,\n                    info.flightNumber,\n                    info.policyId,\n                    info.buyerAddress,\n                    info.premium,\n                    info.payoff,\n                    info.purchaseDate,\n                    info.departureDate,\n                    info.landingDate,\n                    uint256(info.status)\n                )\n            );\n    }\n\n    // ---------------------------------------------------------------------------------------- //\n    // *********************************** Internal Functions ********************************* //\n    // ---------------------------------------------------------------------------------------- //\n\n    /**\n     * @notice Construct the metadata of a specific policy token\n     */\n\n    function constructTokenURI(PolicyTokenURIParam memory _params)\n        internal\n        pure\n        returns (string memory)\n    {\n        uint256 status = uint256(_params.status);\n        return\n            string(\n                abi.encodePacked(\n                    \"ProductId: \",\n                    _params.productId.toString(),\n                    \", \",\n                    \"FlightNumber: \",\n                    _params.flightNumber,\n                    \"PolicyId: \",\n                    _params.policyId.toString(),\n                    \", \",\n                    \"BuyerAddress: \",\n                    addressToString(_params.owner),\n                    \"Premium: \",\n                    (_params.premium / 10**18).toString(),\n                    \", \",\n                    \"Payoff: \",\n                    (_params.payoff / 10**18).toString(),\n                    \", \",\n                    \"PurchaseDate: \",\n                    _params.purchaseDate.toString(),\n                    \", \",\n                    \"DepartureDate:\",\n                    _params.departureDate.toString(),\n                    \", \",\n                    \"LandingDate: \",\n                    _params.landingDate.toString(),\n                    \", \",\n                    \"PolicyStatus: \",\n                    status.toString(),\n                    \".\"\n                )\n            );\n    }\n\n    /**\n     * @notice Bytes to string (not human-readable form)\n     * @param _bytes Input bytes\n     * @return stringBytes String form of the bytes\n     */\n    function byToString(bytes32 _bytes) internal pure returns (string memory) {\n        return (uint256(_bytes)).toHexString(32);\n    }\n\n    /**\n     * @notice Transfer address to string (not change the content)\n     * @param _addr Input address\n     * @return stringAddress String form of the address\n     */\n    function addressToString(address _addr)\n        internal\n        pure\n        returns (string memory)\n    {\n        return (uint256(uint160(_addr))).toHexString(20);\n    }\n}\n",
  "sourcePath": "/Volumes/Store/src/Degis-Contracts-1/contracts/FDPolicyToken.sol",
  "compiler": {
    "name": "solc",
    "version": "0.8.9+commit.e5eed63a.Emscripten.clang"
  },
  "schemaVersion": "3.4.3",
  "updatedAt": "2021-12-05T14:41:22.937Z",
  "networkType": "ethereum",
  "devdoc": {
    "kind": "dev",
    "methods": {
      "approve(address,uint256)": {
        "details": "See {IERC721-approve}."
      },
      "balanceOf(address)": {
        "details": "See {IERC721-balanceOf}."
      },
      "getApproved(uint256)": {
        "details": "See {IERC721-getApproved}."
      },
      "getNextId()": {
        "returns": {
          "_0": "Next token Id"
        }
      },
      "getTokenURI(uint256)": {
        "params": {
          "_tokenId": "Token Id of the policy token"
        }
      },
      "isApprovedForAll(address,address)": {
        "details": "See {IERC721-isApprovedForAll}."
      },
      "mintPolicyToken(address)": {
        "params": {
          "_to": "The receiver address"
        }
      },
      "name()": {
        "details": "See {IERC721Metadata-name}."
      },
      "owner()": {
        "details": "Returns the address of the current owner."
      },
      "ownerOf(uint256)": {
        "details": "See {IERC721-ownerOf}."
      },
      "renounceOwnership()": {
        "details": "Leaves the contract without owner. It will not be possible to call `onlyOwner` functions anymore. Can only be called by the current owner. NOTE: Renouncing ownership will leave the contract without an owner, thereby removing any functionality that is only available to the owner."
      },
      "safeTransferFrom(address,address,uint256)": {
        "details": "See {IERC721-safeTransferFrom}."
      },
      "safeTransferFrom(address,address,uint256,bytes)": {
        "details": "See {IERC721-safeTransferFrom}."
      },
      "setApprovalForAll(address,bool)": {
        "details": "See {IERC721-setApprovalForAll}."
      },
      "supportsInterface(bytes4)": {
        "details": "See {IERC165-supportsInterface}."
      },
      "symbol()": {
        "details": "See {IERC721Metadata-symbol}."
      },
      "tokenByIndex(uint256)": {
        "details": "See {IERC721Enumerable-tokenByIndex}."
      },
      "tokenOfOwnerByIndex(address,uint256)": {
        "details": "See {IERC721Enumerable-tokenOfOwnerByIndex}."
      },
      "tokenURI(uint256)": {
        "params": {
          "_tokenId": "Token Id of the policy token"
        },
        "returns": {
          "_0": "The tokenURI in string form"
        }
      },
      "totalSupply()": {
        "details": "See {IERC721Enumerable-totalSupply}."
      },
      "transferFrom(address,address,uint256)": {
        "details": "See {IERC721-transferFrom}."
      },
      "transferOwner(address,address,uint256)": {
        "details": "Need approval and is prepared for secondary market",
        "params": {
          "_from": "The original owner of the policy",
          "_to": "The new owner of the policy",
          "_tokenId": "Token id of the policy"
        }
      },
      "transferOwnership(address)": {
        "details": "Transfers ownership of the contract to a new account (`newOwner`). Can only be called by the current owner."
      },
      "updatePolicyFlow(address)": {
        "params": {
          "_policyFlow": "New policyFlow contract address"
        }
      }
    },
    "title": "Policy Token for flight delay",
    "version": 1
  },
  "userdoc": {
    "kind": "user",
    "methods": {
      "getNextId()": {
        "notice": "Get the next token Id of PolicyToken         The current max token Id is (_nextId - 1)"
      },
      "getTokenURI(uint256)": {
        "notice": "Get the tokenURI, the metadata is from policyFlow contract"
      },
      "mintPolicyToken(address)": {
        "notice": "Mint a new policy token to an address (test function, removed after online)"
      },
      "tokenURI(uint256)": {
        "notice": "Get the tokenURI of a policy"
      },
      "transferOwner(address,address,uint256)": {
        "notice": "Transfer the owner of a policy token and update the information in policyFlow"
      },
      "updatePolicyFlow(address)": {
        "notice": "Update the policyFlow address if it has been updated"
      }
    },
    "notice": "ERC721 policy token         Can get a long string form of the tokenURI         When the ownership is transferred, it will update the status in policyFlow",
    "version": 1
  }
}