{
  "contractName": "FixedMath",
  "abi": [
    {
      "inputs": [
        {
          "internalType": "uint256",
          "name": "_numerator",
          "type": "uint256"
        },
        {
          "internalType": "uint256",
          "name": "_denominator",
          "type": "uint256"
        }
      ],
      "name": "calcFactor",
      "outputs": [
        {
          "components": [
            {
              "internalType": "uint224",
              "name": "_x",
              "type": "uint224"
            }
          ],
          "internalType": "struct FixedPoint.uq112x112",
          "name": "",
          "type": "tuple"
        }
      ],
      "stateMutability": "pure",
      "type": "function"
    }
  ],
  "bytecode": "0x6107e7610053600b82828239805160001a607314610046577f4e487b7100000000000000000000000000000000000000000000000000000000600052600060045260246000fd5b30600052607381538281f3fe73000000000000000000000000000000000000000030146080604052600436106100355760003560e01c806373d53ab41461003a575b600080fd5b610054600480360381019061004f919061049f565b61006a565b60405161006191906105d3565b60405180910390f35b610072610459565b61007c8383610084565b905092915050565b61008c610459565b600082116100cf576040517f08c379a00000000000000000000000000000000000000000000000000000000081526004016100c690610573565b60405180910390fd5b600083141561010d57604051806020016040528060007bffffffffffffffffffffffffffffffffffffffffffffffffffffffff168152509050610285565b71ffffffffffffffffffffffffffffffffffff801683116101d557600082607060ff1685901b61013d91906105ff565b90507bffffffffffffffffffffffffffffffffffffffffffffffffffffffff80168111156101a0576040517f08c379a0000000000000000000000000000000000000000000000000000000008152600401610197906105b3565b60405180910390fd5b6040518060200160405280827bffffffffffffffffffffffffffffffffffffffffffffffffffffffff16815250915050610285565b60006101f1846e0100000000000000000000000000008561028b565b90507bffffffffffffffffffffffffffffffffffffffffffffffffffffffff8016811115610254576040517f08c379a000000000000000000000000000000000000000000000000000000000815260040161024b906105b3565b60405180910390fd5b6040518060200160405280827bffffffffffffffffffffffffffffffffffffffffffffffffffffffff168152509150505b92915050565b600080600061029a8686610308565b91509150600084806102af576102ae6106c5565b5b8688099050828111156102cc576001826102c99190610630565b91505b808303925060008214156102f05784836102e691906105ff565b9350505050610301565b6102fb838387610362565b93505050505b9392505050565b60008060007fffffffffffffffffffffffffffffffffffffffffffffffffffffffffffffffff8061033c5761033b6106c5565b5b8486099050838502925082810391508281101561035a576001820391505b509250929050565b60008183106103a6576040517f08c379a000000000000000000000000000000000000000000000000000000000815260040161039d90610593565b60405180910390fd5b60006001831901831690508083816103c1576103c06106c5565b5b0492508085816103d4576103d36106c5565b5b0494506001816001831901816103ed576103ec6106c5565b5b04018402850194506000600190508084026002038102905080840260020381029050808402600203810290508084026002038102905080840260020381029050808402600203810290508084026002038102905080840260020381029050808602925050509392505050565b604051806020016040528060007bffffffffffffffffffffffffffffffffffffffffffffffffffffffff1681525090565b6000813590506104998161079a565b92915050565b600080604083850312156104b6576104b56106f4565b5b60006104c48582860161048a565b92505060206104d58582860161048a565b9150509250929050565b60006104ec6026836105ee565b91506104f7826106f9565b604082019050919050565b600061050f601a836105ee565b915061051a82610748565b602082019050919050565b6000610532601e836105ee565b915061053d82610771565b602082019050919050565b60208201600082015161055e6000850182610564565b50505050565b61056d81610664565b82525050565b6000602082019050818103600083015261058c816104df565b9050919050565b600060208201905081810360008301526105ac81610502565b9050919050565b600060208201905081810360008301526105cc81610525565b9050919050565b60006020820190506105e86000830184610548565b92915050565b600082825260208201905092915050565b600061060a8261068c565b91506106158361068c565b925082610625576106246106c5565b5b828204905092915050565b600061063b8261068c565b91506106468361068c565b92508282101561065957610658610696565b5b828203905092915050565b60007bffffffffffffffffffffffffffffffffffffffffffffffffffffffff82169050919050565b6000819050919050565b7f4e487b7100000000000000000000000000000000000000000000000000000000600052601160045260246000fd5b7f4e487b7100000000000000000000000000000000000000000000000000000000600052601260045260246000fd5b600080fd5b7f4669786564506f696e743a3a6672616374696f6e3a206469766973696f6e206260008201527f79207a65726f0000000000000000000000000000000000000000000000000000602082015250565b7f46756c6c4d6174683a2046554c4c4449565f4f564552464c4f57000000000000600082015250565b7f4669786564506f696e743a3a6672616374696f6e3a206f766572666c6f770000600082015250565b6107a38161068c565b81146107ae57600080fd5b5056fea26469706673582212205334f6b192dd4310e9f40e9f116d94a81406b90f700831396688ee76d09b042564736f6c63430008050033",
  "immutableReferences": {},
  "source": "// SPDX-License-Identifier: MIT\r\npragma solidity ^0.8.0;\r\n\r\nimport \"@uniswap/lib/contracts/libraries/FixedPoint.sol\";\r\nimport \"@openzeppelin/contracts/utils/math/SafeMath.sol\";\r\n\r\nlibrary FixedMath {\r\n    using FixedPoint for *;\r\n\r\n    /**\r\n     * @notice calculate the fixed point form of collateral factor\r\n     * @param _numerator: the factor input\r\n     * @param _denominator: 100, the divider\r\n     */\r\n    function calcFactor(uint256 _numerator, uint256 _denominator)\r\n        public\r\n        pure\r\n        returns (FixedPoint.uq112x112 memory)\r\n    {\r\n        return FixedPoint.fraction(_numerator, _denominator);\r\n    }\r\n}\r\n",
  "sourcePath": "D:\\src\\Degis-Contracts-1\\contracts\\libraries\\FixedMath.sol",
  "compiler": {
    "name": "solc",
    "version": "0.8.5+commit.a4f2e591.Emscripten.clang"
  },
  "schemaVersion": "3.4.3",
  "updatedAt": "2021-10-07T16:18:49.277Z",
  "devdoc": {
    "kind": "dev",
    "methods": {
      "calcFactor(uint256,uint256)": {
        "params": {
          "_denominator": ": 100, the divider",
          "_numerator": ": the factor input"
        }
      }
    },
    "version": 1
  },
  "userdoc": {
    "kind": "user",
    "methods": {
      "calcFactor(uint256,uint256)": {
        "notice": "calculate the fixed point form of collateral factor"
      }
    },
    "version": 1
  }
}