{
  "contractName": "FlightOracle",
  "abi": [
    {
      "inputs": [
        {
          "internalType": "address",
          "name": "_policyFlow",
          "type": "address"
        }
      ],
      "stateMutability": "nonpayable",
      "type": "constructor"
    },
    {
      "anonymous": false,
      "inputs": [
        {
          "indexed": true,
          "internalType": "bytes32",
          "name": "id",
          "type": "bytes32"
        }
      ],
      "name": "ChainlinkCancelled",
      "type": "event"
    },
    {
      "anonymous": false,
      "inputs": [
        {
          "indexed": true,
          "internalType": "bytes32",
          "name": "id",
          "type": "bytes32"
        }
      ],
      "name": "ChainlinkFulfilled",
      "type": "event"
    },
    {
      "anonymous": false,
      "inputs": [
        {
          "indexed": true,
          "internalType": "bytes32",
          "name": "id",
          "type": "bytes32"
        }
      ],
      "name": "ChainlinkRequested",
      "type": "event"
    },
    {
      "inputs": [],
      "name": "owner",
      "outputs": [
        {
          "internalType": "address",
          "name": "",
          "type": "address"
        }
      ],
      "stateMutability": "view",
      "type": "function",
      "constant": true
    },
    {
      "inputs": [
        {
          "internalType": "string",
          "name": "_url",
          "type": "string"
        }
      ],
      "name": "setURL",
      "outputs": [],
      "stateMutability": "nonpayable",
      "type": "function"
    },
    {
      "inputs": [
        {
          "internalType": "address",
          "name": "_newOracle",
          "type": "address"
        }
      ],
      "name": "setOracleAddress",
      "outputs": [],
      "stateMutability": "nonpayable",
      "type": "function"
    },
    {
      "inputs": [
        {
          "internalType": "bytes32",
          "name": "_newJobId",
          "type": "bytes32"
        }
      ],
      "name": "setJobId",
      "outputs": [],
      "stateMutability": "nonpayable",
      "type": "function"
    },
    {
      "inputs": [
        {
          "internalType": "address",
          "name": "_policyFlow",
          "type": "address"
        }
      ],
      "name": "setPolicyFlow",
      "outputs": [],
      "stateMutability": "nonpayable",
      "type": "function"
    },
    {
      "inputs": [
        {
          "internalType": "uint256",
          "name": "_payment",
          "type": "uint256"
        },
        {
          "internalType": "string",
          "name": "_url",
          "type": "string"
        },
        {
          "internalType": "string",
          "name": "_path",
          "type": "string"
        },
        {
          "internalType": "int256",
          "name": "_times",
          "type": "int256"
        }
      ],
      "name": "newOracleRequest",
      "outputs": [
        {
          "internalType": "bytes32",
          "name": "",
          "type": "bytes32"
        }
      ],
      "stateMutability": "nonpayable",
      "type": "function"
    },
    {
      "inputs": [
        {
          "internalType": "bytes32",
          "name": "_requestId",
          "type": "bytes32"
        },
        {
          "internalType": "uint256",
          "name": "_data",
          "type": "uint256"
        }
      ],
      "name": "fulfill",
      "outputs": [],
      "stateMutability": "nonpayable",
      "type": "function"
    }
  ],
  "bytecode": "0x608060405260016004556040518060400160405280602081526020017f687474703a2f2f33392e3130312e3133322e3232383a383030302f6c6976652f8152506008908051906020019062000056929190620001ce565b503480156200006457600080fd5b50604051620024133803806200241383398181016040528101906200008a9190620002e8565b80600760006101000a81548173ffffffffffffffffffffffffffffffffffffffff021916908373ffffffffffffffffffffffffffffffffffffffff160217905550620000db620000e260201b60201c565b506200037f565b6200018873c89bd4e1632d3a43cb03aaad5262cbe4038bc57173ffffffffffffffffffffffffffffffffffffffff166338cc48316040518163ffffffff1660e01b815260040160206040518083038186803b1580156200014157600080fd5b505afa15801562000156573d6000803e3d6000fd5b505050506040513d601f19601f820116820180604052508101906200017c9190620002e8565b6200018a60201b60201c565b565b80600260006101000a81548173ffffffffffffffffffffffffffffffffffffffff021916908373ffffffffffffffffffffffffffffffffffffffff16021790555050565b828054620001dc9062000349565b90600052602060002090601f0160209004810192826200020057600085556200024c565b82601f106200021b57805160ff19168380011785556200024c565b828001600101855582156200024c579182015b828111156200024b5782518255916020019190600101906200022e565b5b5090506200025b91906200025f565b5090565b5b808211156200027a57600081600090555060010162000260565b5090565b600080fd5b600073ffffffffffffffffffffffffffffffffffffffff82169050919050565b6000620002b08262000283565b9050919050565b620002c281620002a3565b8114620002ce57600080fd5b50565b600081519050620002e281620002b7565b92915050565b6000602082840312156200030157620003006200027e565b5b60006200031184828501620002d1565b91505092915050565b7f4e487b7100000000000000000000000000000000000000000000000000000000600052602260045260246000fd5b600060028204905060018216806200036257607f821691505b602082108114156200037957620003786200031a565b5b50919050565b612084806200038f6000396000f3fe608060405234801561001057600080fd5b506004361061007d5760003560e01c80635c326caf1161005b5780635c326caf146100d657806377343408146100f25780638da5cb5b1461010e5780639a66455f1461012c5761007d565b80634357855e146100825780634c69c00f1461009e578063508954f8146100ba575b600080fd5b61009c6004803603810190610097919061133c565b61015c565b005b6100b860048036038101906100b391906113da565b6102f5565b005b6100d460048036038101906100cf9190611407565b6103c9565b005b6100f060048036038101906100eb91906113da565b610463565b005b61010c6004803603810190610107919061157a565b610537565b005b6101166105e1565b60405161012391906115d2565b60405180910390f35b61014660048036038101906101419190611623565b610607565b60405161015391906116d1565b60405180910390f35b816005600082815260200190815260200160002060009054906101000a900473ffffffffffffffffffffffffffffffffffffffff1673ffffffffffffffffffffffffffffffffffffffff163373ffffffffffffffffffffffffffffffffffffffff16146101fe576040517f08c379a00000000000000000000000000000000000000000000000000000000081526004016101f59061176f565b60405180910390fd5b6005600082815260200190815260200160002060006101000a81549073ffffffffffffffffffffffffffffffffffffffff0219169055807f7cc135e0cebb02c3480ae5d74d377283180a2601f8f644edf7987b009316c63a60405160405180910390a2600760009054906101000a900473ffffffffffffffffffffffffffffffffffffffff1673ffffffffffffffffffffffffffffffffffffffff16631a397db984846040518363ffffffff1660e01b81526004016102be92919061179e565b600060405180830381600087803b1580156102d857600080fd5b505af11580156102ec573d6000803e3d6000fd5b50505050505050565b600660009054906101000a900473ffffffffffffffffffffffffffffffffffffffff1673ffffffffffffffffffffffffffffffffffffffff163373ffffffffffffffffffffffffffffffffffffffff1614610385576040517f08c379a000000000000000000000000000000000000000000000000000000000815260040161037c90611839565b60405180910390fd5b80600960006101000a81548173ffffffffffffffffffffffffffffffffffffffff021916908373ffffffffffffffffffffffffffffffffffffffff16021790555050565b600660009054906101000a900473ffffffffffffffffffffffffffffffffffffffff1673ffffffffffffffffffffffffffffffffffffffff163373ffffffffffffffffffffffffffffffffffffffff1614610459576040517f08c379a000000000000000000000000000000000000000000000000000000000815260040161045090611839565b60405180910390fd5b80600a8190555050565b600660009054906101000a900473ffffffffffffffffffffffffffffffffffffffff1673ffffffffffffffffffffffffffffffffffffffff163373ffffffffffffffffffffffffffffffffffffffff16146104f3576040517f08c379a00000000000000000000000000000000000000000000000000000000081526004016104ea90611839565b60405180910390fd5b80600760006101000a81548173ffffffffffffffffffffffffffffffffffffffff021916908373ffffffffffffffffffffffffffffffffffffffff16021790555050565b600660009054906101000a900473ffffffffffffffffffffffffffffffffffffffff1673ffffffffffffffffffffffffffffffffffffffff163373ffffffffffffffffffffffffffffffffffffffff16146105c7576040517f08c379a00000000000000000000000000000000000000000000000000000000081526004016105be90611839565b60405180910390fd5b80600890805190602001906105dd929190611192565b5050565b600660009054906101000a900473ffffffffffffffffffffffffffffffffffffffff1681565b6000600760009054906101000a900473ffffffffffffffffffffffffffffffffffffffff1673ffffffffffffffffffffffffffffffffffffffff163373ffffffffffffffffffffffffffffffffffffffff1614610699576040517f08c379a0000000000000000000000000000000000000000000000000000000008152600401610690906118cb565b60405180910390fd5b60006106af600a5430634357855e60e01b6107c7565b90506106fb6040518060400160405280600381526020017f75726c000000000000000000000000000000000000000000000000000000000081525086836107f89092919063ffffffff16565b6107456040518060400160405280600481526020017f706174680000000000000000000000000000000000000000000000000000000081525085836107f89092919063ffffffff16565b61078f6040518060400160405280600581526020017f74696d6573000000000000000000000000000000000000000000000000000000815250848361082b9092919063ffffffff16565b6107bc600960009054906101000a900473ffffffffffffffffffffffffffffffffffffffff16828861085e565b915050949350505050565b6107cf611218565b6107d7611218565b6107ee8585858461087e909392919063ffffffff16565b9150509392505050565b61080f82846080015161092e90919063ffffffff16565b61082681846080015161092e90919063ffffffff16565b505050565b61084282846080015161092e90919063ffffffff16565b61085981846080015161095390919063ffffffff16565b505050565b60006108758484846001634042994660e01b610a00565b90509392505050565b610886611218565b6108968560800151610100610c68565b508385600001818152505082856020019073ffffffffffffffffffffffffffffffffffffffff16908173ffffffffffffffffffffffffffffffffffffffff16815250508185604001907bffffffffffffffffffffffffffffffffffffffffffffffffffffffff191690817bffffffffffffffffffffffffffffffffffffffffffffffffffffffff191681525050849050949350505050565b61093b8260038351610cd2565b61094e8183610e1790919063ffffffff16565b505050565b7fffffffffffffffffffffffffffffffffffffffffffffffff000000000000000081121561098a576109858282610e39565b6109fc565b67ffffffffffffffff8113156109a9576109a48282610eb0565b6109fb565b600081126109c2576109bd82600083610cd2565b6109fa565b6109f9826001837fffffffffffffffffffffffffffffffffffffffffffffffffffffffffffffffff6109f4919061191a565b610cd2565b5b5b5b5050565b600030600454604051602001610a17929190611a67565b604051602081830303815290604052805190602001209050600454856060018181525050856005600083815260200190815260200160002060006101000a81548173ffffffffffffffffffffffffffffffffffffffff021916908373ffffffffffffffffffffffffffffffffffffffff160217905550807fb5e6e01e79f91267dc17b4e6314d5d4d03593d2ceee0fbb452b750bd70ea5af960405160405180910390a2600082600080886000015189602001518a604001518b606001518a8d6080015160000151604051602401610af5989796959493929190611b56565b604051602081830303815290604052907bffffffffffffffffffffffffffffffffffffffffffffffffffffffff19166020820180517bffffffffffffffffffffffffffffffffffffffffffffffffffffffff83818316178352505050509050600260009054906101000a900473ffffffffffffffffffffffffffffffffffffffff1673ffffffffffffffffffffffffffffffffffffffff16634000aea08887846040518463ffffffff1660e01b8152600401610bb393929190611bdb565b602060405180830381600087803b158015610bcd57600080fd5b505af1158015610be1573d6000803e3d6000fd5b505050506040513d601f19601f82011682018060405250810190610c059190611c51565b610c44576040517f08c379a0000000000000000000000000000000000000000000000000000000008152600401610c3b90611cf0565b60405180910390fd5b600160046000828254610c579190611d10565b925050819055505095945050505050565b610c70611285565b6000602083610c7f9190611d95565b14610cab57602082610c919190611d95565b6020610c9d9190611dc6565b82610ca89190611d10565b91505b81836020018181525050604051808452600081528281016020016040525082905092915050565b60178111610cff57610cf98160058460ff16901b60ff161784610efc90919063ffffffff16565b50610e12565b60ff8111610d4157610d24601860058460ff16901b1784610efc90919063ffffffff16565b50610d3b81600185610f1c9092919063ffffffff16565b50610e11565b61ffff8111610d8457610d67601960058460ff16901b1784610efc90919063ffffffff16565b50610d7e81600285610f1c9092919063ffffffff16565b50610e10565b63ffffffff8111610dc957610dac601a60058460ff16901b1784610efc90919063ffffffff16565b50610dc381600485610f1c9092919063ffffffff16565b50610e0f565b67ffffffffffffffff8111610e0e57610df5601b60058460ff16901b1784610efc90919063ffffffff16565b50610e0c81600885610f1c9092919063ffffffff16565b505b5b5b5b5b505050565b610e1f611285565b610e3183846000015151848551610f3e565b905092915050565b610e5760036005600660ff16901b1783610efc90919063ffffffff16565b50610eac82827fffffffffffffffffffffffffffffffffffffffffffffffffffffffffffffffff610e88919061191a565b604051602001610e989190611dfa565b604051602081830303815290604052611048565b5050565b610ece60026005600660ff16901b1783610efc90919063ffffffff16565b50610ef88282604051602001610ee49190611dfa565b604051602081830303815290604052611048565b5050565b610f04611285565b610f14838460000151518461106d565b905092915050565b610f24611285565b610f358485600001515185856110c4565b90509392505050565b610f46611285565b8251821115610f5457600080fd5b84602001518285610f659190611d10565b1115610f9a57610f99856002610f8a88602001518887610f859190611d10565b611152565b610f949190611e15565b61116e565b5b600080865180518760208301019350808887011115610fb95787860182525b60208701925050505b602084106110005780518252602082610fdb9190611d10565b9150602081610fea9190611d10565b9050602084610ff99190611dc6565b9350610fc2565b600060018560206110119190611dc6565b61010061101e9190611fa2565b6110289190611dc6565b905080198251168184511681811785525050879350505050949350505050565b6110558260028351610cd2565b6110688183610e1790919063ffffffff16565b505050565b611075611285565b8360200151831061109b5761109a84600286602001516110959190611e15565b61116e565b5b83518051602085830101848153818614156110b7576001820183525b5050508390509392505050565b6110cc611285565b846020015184836110dd9190611d10565b11156111055761110485600286856110f59190611d10565b6110ff9190611e15565b61116e565b5b60006001836101006111179190611fa2565b6111219190611dc6565b905085518386820101858319825116178152815185880111156111445784870182525b505085915050949350505050565b60008183111561116457829050611168565b8190505b92915050565b6000826000015190506111818383610c68565b5061118c8382610e17565b50505050565b82805461119e9061201c565b90600052602060002090601f0160209004810192826111c05760008555611207565b82601f106111d957805160ff1916838001178555611207565b82800160010185558215611207579182015b828111156112065782518255916020019190600101906111eb565b5b509050611214919061129f565b5090565b6040518060a0016040528060008019168152602001600073ffffffffffffffffffffffffffffffffffffffff16815260200160007bffffffffffffffffffffffffffffffffffffffffffffffffffffffff191681526020016000815260200161127f611285565b81525090565b604051806040016040528060608152602001600081525090565b5b808211156112b85760008160009055506001016112a0565b5090565b6000604051905090565b600080fd5b600080fd5b6000819050919050565b6112e3816112d0565b81146112ee57600080fd5b50565b600081359050611300816112da565b92915050565b6000819050919050565b61131981611306565b811461132457600080fd5b50565b60008135905061133681611310565b92915050565b60008060408385031215611353576113526112c6565b5b6000611361858286016112f1565b925050602061137285828601611327565b9150509250929050565b600073ffffffffffffffffffffffffffffffffffffffff82169050919050565b60006113a78261137c565b9050919050565b6113b78161139c565b81146113c257600080fd5b50565b6000813590506113d4816113ae565b92915050565b6000602082840312156113f0576113ef6112c6565b5b60006113fe848285016113c5565b91505092915050565b60006020828403121561141d5761141c6112c6565b5b600061142b848285016112f1565b91505092915050565b600080fd5b600080fd5b6000601f19601f8301169050919050565b7f4e487b7100000000000000000000000000000000000000000000000000000000600052604160045260246000fd5b6114878261143e565b810181811067ffffffffffffffff821117156114a6576114a561144f565b5b80604052505050565b60006114b96112bc565b90506114c5828261147e565b919050565b600067ffffffffffffffff8211156114e5576114e461144f565b5b6114ee8261143e565b9050602081019050919050565b82818337600083830152505050565b600061151d611518846114ca565b6114af565b90508281526020810184848401111561153957611538611439565b5b6115448482856114fb565b509392505050565b600082601f83011261156157611560611434565b5b813561157184826020860161150a565b91505092915050565b6000602082840312156115905761158f6112c6565b5b600082013567ffffffffffffffff8111156115ae576115ad6112cb565b5b6115ba8482850161154c565b91505092915050565b6115cc8161139c565b82525050565b60006020820190506115e760008301846115c3565b92915050565b6000819050919050565b611600816115ed565b811461160b57600080fd5b50565b60008135905061161d816115f7565b92915050565b6000806000806080858703121561163d5761163c6112c6565b5b600061164b87828801611327565b945050602085013567ffffffffffffffff81111561166c5761166b6112cb565b5b6116788782880161154c565b935050604085013567ffffffffffffffff811115611699576116986112cb565b5b6116a58782880161154c565b92505060606116b68782880161160e565b91505092959194509250565b6116cb816112d0565b82525050565b60006020820190506116e660008301846116c2565b92915050565b600082825260208201905092915050565b7f536f75726365206d75737420626520746865206f7261636c65206f662074686560008201527f2072657175657374000000000000000000000000000000000000000000000000602082015250565b60006117596028836116ec565b9150611764826116fd565b604082019050919050565b600060208201905081810360008301526117888161174c565b9050919050565b61179881611306565b82525050565b60006040820190506117b360008301856116c2565b6117c0602083018461178f565b9392505050565b7f4f6e6c7920746865206f776e65722063616e2063616c6c20746869732066756e60008201527f6374696f6e000000000000000000000000000000000000000000000000000000602082015250565b60006118236025836116ec565b915061182e826117c7565b604082019050919050565b6000602082019050818103600083015261185281611816565b9050919050565b7f4f6e6c792074686520706f6c696379666c6f772063616e2063616c6c2074686960008201527f732066756e6374696f6e00000000000000000000000000000000000000000000602082015250565b60006118b5602a836116ec565b91506118c082611859565b604082019050919050565b600060208201905081810360008301526118e4816118a8565b9050919050565b7f4e487b7100000000000000000000000000000000000000000000000000000000600052601160045260246000fd5b6000611925826115ed565b9150611930836115ed565b9250827f80000000000000000000000000000000000000000000000000000000000000000182126000841215161561196b5761196a6118eb565b5b827f7fffffffffffffffffffffffffffffffffffffffffffffffffffffffffffffff0182136000841216156119a3576119a26118eb565b5b828203905092915050565b6000819050919050565b60006119d36119ce6119c98461137c565b6119ae565b61137c565b9050919050565b60006119e5826119b8565b9050919050565b60006119f7826119da565b9050919050565b60008160601b9050919050565b6000611a16826119fe565b9050919050565b6000611a2882611a0b565b9050919050565b611a40611a3b826119ec565b611a1d565b82525050565b6000819050919050565b611a61611a5c82611306565b611a46565b82525050565b6000611a738285611a2f565b601482019150611a838284611a50565b6020820191508190509392505050565b60007fffffffff0000000000000000000000000000000000000000000000000000000082169050919050565b611ac881611a93565b82525050565b600081519050919050565b600082825260208201905092915050565b60005b83811015611b08578082015181840152602081019050611aed565b83811115611b17576000848401525b50505050565b6000611b2882611ace565b611b328185611ad9565b9350611b42818560208601611aea565b611b4b8161143e565b840191505092915050565b600061010082019050611b6c600083018b6115c3565b611b79602083018a61178f565b611b8660408301896116c2565b611b9360608301886115c3565b611ba06080830187611abf565b611bad60a083018661178f565b611bba60c083018561178f565b81810360e0830152611bcc8184611b1d565b90509998505050505050505050565b6000606082019050611bf060008301866115c3565b611bfd602083018561178f565b8181036040830152611c0f8184611b1d565b9050949350505050565b60008115159050919050565b611c2e81611c19565b8114611c3957600080fd5b50565b600081519050611c4b81611c25565b92915050565b600060208284031215611c6757611c666112c6565b5b6000611c7584828501611c3c565b91505092915050565b7f756e61626c6520746f207472616e73666572416e6443616c6c20746f206f726160008201527f636c650000000000000000000000000000000000000000000000000000000000602082015250565b6000611cda6023836116ec565b9150611ce582611c7e565b604082019050919050565b60006020820190508181036000830152611d0981611ccd565b9050919050565b6000611d1b82611306565b9150611d2683611306565b9250827fffffffffffffffffffffffffffffffffffffffffffffffffffffffffffffffff03821115611d5b57611d5a6118eb565b5b828201905092915050565b7f4e487b7100000000000000000000000000000000000000000000000000000000600052601260045260246000fd5b6000611da082611306565b9150611dab83611306565b925082611dbb57611dba611d66565b5b828206905092915050565b6000611dd182611306565b9150611ddc83611306565b925082821015611def57611dee6118eb565b5b828203905092915050565b6000602082019050611e0f600083018461178f565b92915050565b6000611e2082611306565b9150611e2b83611306565b9250817fffffffffffffffffffffffffffffffffffffffffffffffffffffffffffffffff0483118215151615611e6457611e636118eb565b5b828202905092915050565b60008160011c9050919050565b6000808291508390505b6001851115611ec657808604811115611ea257611ea16118eb565b5b6001851615611eb15780820291505b8081029050611ebf85611e6f565b9450611e86565b94509492505050565b600082611edf5760019050611f9b565b81611eed5760009050611f9b565b8160018114611f035760028114611f0d57611f3c565b6001915050611f9b565b60ff841115611f1f57611f1e6118eb565b5b8360020a915084821115611f3657611f356118eb565b5b50611f9b565b5060208310610133831016604e8410600b8410161715611f715782820a905083811115611f6c57611f6b6118eb565b5b611f9b565b611f7e8484846001611e7c565b92509050818404811115611f9557611f946118eb565b5b81810290505b9392505050565b6000611fad82611306565b9150611fb883611306565b9250611fe57fffffffffffffffffffffffffffffffffffffffffffffffffffffffffffffffff8484611ecf565b905092915050565b7f4e487b7100000000000000000000000000000000000000000000000000000000600052602260045260246000fd5b6000600282049050600182168061203457607f821691505b6020821081141561204857612047611fed565b5b5091905056fea2646970667358221220445da1b92533166024a2ccb18345594b79410589d504f5c1087ab6869951d00b64736f6c63430008090033",
  "immutableReferences": {},
  "source": "// SPDX-License-Identifier: MIT\npragma solidity 0.8.9;\nimport \"@chainlink/contracts/src/v0.8/ChainlinkClient.sol\";\nimport \"./interfaces/IPolicyFlow.sol\";\n\n/**\n * @title  Flight Oracle\n * @notice This is the flight oracle contract.\n *         Called by policyFlow contract and send the request to chainlink node.\n *         After receiving the result, call the policyFlow contract to do the settlement.\n * @dev    Remember to set the url, oracleAddress and jobId\n */\ncontract FlightOracle is ChainlinkClient {\n    using Chainlink for Chainlink.Request;\n\n    address public owner;\n\n    IPolicyFlow policyFlow;\n\n    string private FLIGHT_STATUS_URL = \"http://39.101.132.228:8000/live/\";\n    address private oracleAddress;\n    bytes32 private jobId;\n\n    constructor(address _policyFlow) {\n        policyFlow = IPolicyFlow(_policyFlow);\n\n        setPublicChainlinkToken();\n    }\n\n    // Only the owner can call some functions\n    modifier onlyOwner() {\n        require(msg.sender == owner, \"Only the owner can call this function\");\n        _;\n    }\n\n    // Only the policyFlow can call some functions\n    modifier onlyPolicyFlow() {\n        require(\n            msg.sender == address(policyFlow),\n            \"Only the policyflow can call this function\"\n        );\n        _;\n    }\n\n    // Set a new url\n    function setURL(string memory _url) external onlyOwner {\n        FLIGHT_STATUS_URL = _url;\n    }\n\n    // Set the oracle address\n    function setOracleAddress(address _newOracle) external onlyOwner {\n        oracleAddress = _newOracle;\n    }\n\n    // Set a new job id\n    function setJobId(bytes32 _newJobId) external onlyOwner {\n        jobId = _newJobId;\n    }\n\n    // Set a new policy flow\n    function setPolicyFlow(address _policyFlow) external onlyOwner {\n        policyFlow = IPolicyFlow(_policyFlow);\n    }\n\n    /**\n     * @notice Creates a request to the specified Oracle contract address\n     * @dev This function ignores the stored Oracle contract address and\n     *      will instead send the request to the address specified\n     * @param _payment Payment to the oracle\n     * @param _url The URL to fetch data from\n     * @param _path The dot-delimited path to parse of the response\n     * @param _times The number to multiply the result by\n     */\n    function newOracleRequest(\n        uint256 _payment,\n        string memory _url,\n        string memory _path,\n        int256 _times\n    ) public onlyPolicyFlow returns (bytes32) {\n        Chainlink.Request memory req = buildChainlinkRequest(\n            jobId,\n            address(this),\n            this.fulfill.selector\n        );\n        req.add(\"url\", _url);\n        req.add(\"path\", _path);\n        req.addInt(\"times\", _times);\n        return sendChainlinkRequestTo(oracleAddress, req, _payment);\n    }\n\n    /**\n     * @notice The fulfill method from requests created by this contract\n     * @dev The recordChainlinkFulfillment protects this function from being called\n     *      by anyone other than the oracle address that the request was sent to\n     * @param _requestId The ID that was generated for the request\n     * @param _data The answer provided by the oracle\n     */\n    function fulfill(bytes32 _requestId, uint256 _data)\n        public\n        recordChainlinkFulfillment(_requestId)\n    {\n        policyFlow.finalSettlement(_requestId, _data);\n    }\n}\n",
  "sourcePath": "/Volumes/Store/src/Degis-Contracts-1/contracts/FlightOracle.sol",
  "compiler": {
    "name": "solc",
    "version": "0.8.9+commit.e5eed63a.Emscripten.clang"
  },
  "schemaVersion": "3.4.3",
  "updatedAt": "2021-11-24T15:28:52.575Z",
  "networkType": "ethereum",
  "devdoc": {
    "details": "Remember to set the url, oracleAddress and jobId",
    "kind": "dev",
    "methods": {
      "fulfill(bytes32,uint256)": {
        "details": "The recordChainlinkFulfillment protects this function from being called      by anyone other than the oracle address that the request was sent to",
        "params": {
          "_data": "The answer provided by the oracle",
          "_requestId": "The ID that was generated for the request"
        }
      },
      "newOracleRequest(uint256,string,string,int256)": {
        "details": "This function ignores the stored Oracle contract address and      will instead send the request to the address specified",
        "params": {
          "_path": "The dot-delimited path to parse of the response",
          "_payment": "Payment to the oracle",
          "_times": "The number to multiply the result by",
          "_url": "The URL to fetch data from"
        }
      }
    },
    "title": "Flight Oracle",
    "version": 1
  },
  "userdoc": {
    "kind": "user",
    "methods": {
      "fulfill(bytes32,uint256)": {
        "notice": "The fulfill method from requests created by this contract"
      },
      "newOracleRequest(uint256,string,string,int256)": {
        "notice": "Creates a request to the specified Oracle contract address"
      }
    },
    "notice": "This is the flight oracle contract.         Called by policyFlow contract and send the request to chainlink node.         After receiving the result, call the policyFlow contract to do the settlement.",
    "version": 1
  }
}