{
  "contractName": "FlightOracle",
  "abi": [
    {
      "inputs": [
        {
          "internalType": "address",
          "name": "_policyFlow",
          "type": "address"
        }
      ],
      "stateMutability": "nonpayable",
      "type": "constructor"
    },
    {
      "anonymous": false,
      "inputs": [
        {
          "indexed": true,
          "internalType": "bytes32",
          "name": "id",
          "type": "bytes32"
        }
      ],
      "name": "ChainlinkCancelled",
      "type": "event"
    },
    {
      "anonymous": false,
      "inputs": [
        {
          "indexed": true,
          "internalType": "bytes32",
          "name": "id",
          "type": "bytes32"
        }
      ],
      "name": "ChainlinkFulfilled",
      "type": "event"
    },
    {
      "anonymous": false,
      "inputs": [
        {
          "indexed": true,
          "internalType": "bytes32",
          "name": "id",
          "type": "bytes32"
        }
      ],
      "name": "ChainlinkRequested",
      "type": "event"
    },
    {
      "inputs": [],
      "name": "owner",
      "outputs": [
        {
          "internalType": "address",
          "name": "",
          "type": "address"
        }
      ],
      "stateMutability": "view",
      "type": "function"
    },
    {
      "inputs": [],
      "name": "policyFlow",
      "outputs": [
        {
          "internalType": "contract IPolicyFlow",
          "name": "",
          "type": "address"
        }
      ],
      "stateMutability": "view",
      "type": "function"
    },
    {
      "inputs": [
        {
          "internalType": "string",
          "name": "_url",
          "type": "string"
        }
      ],
      "name": "setURL",
      "outputs": [],
      "stateMutability": "nonpayable",
      "type": "function"
    },
    {
      "inputs": [
        {
          "internalType": "address",
          "name": "_newOracle",
          "type": "address"
        }
      ],
      "name": "setOracleAddress",
      "outputs": [],
      "stateMutability": "nonpayable",
      "type": "function"
    },
    {
      "inputs": [
        {
          "internalType": "bytes32",
          "name": "_newJobId",
          "type": "bytes32"
        }
      ],
      "name": "setJobId",
      "outputs": [],
      "stateMutability": "nonpayable",
      "type": "function"
    },
    {
      "inputs": [
        {
          "internalType": "address",
          "name": "_policyFlow",
          "type": "address"
        }
      ],
      "name": "setPolicyFlow",
      "outputs": [],
      "stateMutability": "nonpayable",
      "type": "function"
    },
    {
      "inputs": [
        {
          "internalType": "uint256",
          "name": "_payment",
          "type": "uint256"
        },
        {
          "internalType": "string",
          "name": "_url",
          "type": "string"
        },
        {
          "internalType": "string",
          "name": "_path",
          "type": "string"
        },
        {
          "internalType": "int256",
          "name": "_times",
          "type": "int256"
        }
      ],
      "name": "newOracleRequest",
      "outputs": [
        {
          "internalType": "bytes32",
          "name": "",
          "type": "bytes32"
        }
      ],
      "stateMutability": "nonpayable",
      "type": "function"
    },
    {
      "inputs": [
        {
          "internalType": "bytes32",
          "name": "_requestId",
          "type": "bytes32"
        },
        {
          "internalType": "uint256",
          "name": "_data",
          "type": "uint256"
        }
      ],
      "name": "fulfill",
      "outputs": [],
      "stateMutability": "nonpayable",
      "type": "function"
    }
  ],
  "bytecode": "0x608060405260016004556040518060400160405280602081526020017f687474703a2f2f33392e3130312e3133322e3232383a383030302f6c6976652f8152506008908051906020019062000056929190620001ce565b503480156200006457600080fd5b506040516200249e3803806200249e83398181016040528101906200008a9190620002e8565b80600760006101000a81548173ffffffffffffffffffffffffffffffffffffffff021916908373ffffffffffffffffffffffffffffffffffffffff160217905550620000db620000e260201b60201c565b506200037f565b6200018873c89bd4e1632d3a43cb03aaad5262cbe4038bc57173ffffffffffffffffffffffffffffffffffffffff166338cc48316040518163ffffffff1660e01b815260040160206040518083038186803b1580156200014157600080fd5b505afa15801562000156573d6000803e3d6000fd5b505050506040513d601f19601f820116820180604052508101906200017c9190620002e8565b6200018a60201b60201c565b565b80600260006101000a81548173ffffffffffffffffffffffffffffffffffffffff021916908373ffffffffffffffffffffffffffffffffffffffff16021790555050565b828054620001dc9062000349565b90600052602060002090601f0160209004810192826200020057600085556200024c565b82601f106200021b57805160ff19168380011785556200024c565b828001600101855582156200024c579182015b828111156200024b5782518255916020019190600101906200022e565b5b5090506200025b91906200025f565b5090565b5b808211156200027a57600081600090555060010162000260565b5090565b600080fd5b600073ffffffffffffffffffffffffffffffffffffffff82169050919050565b6000620002b08262000283565b9050919050565b620002c281620002a3565b8114620002ce57600080fd5b50565b600081519050620002e281620002b7565b92915050565b6000602082840312156200030157620003006200027e565b5b60006200031184828501620002d1565b91505092915050565b7f4e487b7100000000000000000000000000000000000000000000000000000000600052602260045260246000fd5b600060028204905060018216806200036257607f821691505b602082108114156200037957620003786200031a565b5b50919050565b61210f806200038f6000396000f3fe608060405234801561001057600080fd5b50600436106100885760003560e01c80635c326caf1161005b5780635c326caf146100ff578063773434081461011b5780638da5cb5b146101375780639a66455f1461015557610088565b80634357855e1461008d57806343d387f8146100a95780634c69c00f146100c7578063508954f8146100e3575b600080fd5b6100a760048036038101906100a2919061138b565b610185565b005b6100b161031e565b6040516100be919061144a565b60405180910390f35b6100e160048036038101906100dc91906114a3565b610344565b005b6100fd60048036038101906100f891906114d0565b610418565b005b610119600480360381019061011491906114a3565b6104b2565b005b61013560048036038101906101309190611643565b610586565b005b61013f610630565b60405161014c919061169b565b60405180910390f35b61016f600480360381019061016a91906116ec565b610656565b60405161017c919061179a565b60405180910390f35b816005600082815260200190815260200160002060009054906101000a900473ffffffffffffffffffffffffffffffffffffffff1673ffffffffffffffffffffffffffffffffffffffff163373ffffffffffffffffffffffffffffffffffffffff1614610227576040517f08c379a000000000000000000000000000000000000000000000000000000000815260040161021e90611838565b60405180910390fd5b6005600082815260200190815260200160002060006101000a81549073ffffffffffffffffffffffffffffffffffffffff0219169055807f7cc135e0cebb02c3480ae5d74d377283180a2601f8f644edf7987b009316c63a60405160405180910390a2600760009054906101000a900473ffffffffffffffffffffffffffffffffffffffff1673ffffffffffffffffffffffffffffffffffffffff16631a397db984846040518363ffffffff1660e01b81526004016102e7929190611867565b600060405180830381600087803b15801561030157600080fd5b505af1158015610315573d6000803e3d6000fd5b50505050505050565b600760009054906101000a900473ffffffffffffffffffffffffffffffffffffffff1681565b600660009054906101000a900473ffffffffffffffffffffffffffffffffffffffff1673ffffffffffffffffffffffffffffffffffffffff163373ffffffffffffffffffffffffffffffffffffffff16146103d4576040517f08c379a00000000000000000000000000000000000000000000000000000000081526004016103cb90611902565b60405180910390fd5b80600960006101000a81548173ffffffffffffffffffffffffffffffffffffffff021916908373ffffffffffffffffffffffffffffffffffffffff16021790555050565b600660009054906101000a900473ffffffffffffffffffffffffffffffffffffffff1673ffffffffffffffffffffffffffffffffffffffff163373ffffffffffffffffffffffffffffffffffffffff16146104a8576040517f08c379a000000000000000000000000000000000000000000000000000000000815260040161049f90611902565b60405180910390fd5b80600a8190555050565b600660009054906101000a900473ffffffffffffffffffffffffffffffffffffffff1673ffffffffffffffffffffffffffffffffffffffff163373ffffffffffffffffffffffffffffffffffffffff1614610542576040517f08c379a000000000000000000000000000000000000000000000000000000000815260040161053990611902565b60405180910390fd5b80600760006101000a81548173ffffffffffffffffffffffffffffffffffffffff021916908373ffffffffffffffffffffffffffffffffffffffff16021790555050565b600660009054906101000a900473ffffffffffffffffffffffffffffffffffffffff1673ffffffffffffffffffffffffffffffffffffffff163373ffffffffffffffffffffffffffffffffffffffff1614610616576040517f08c379a000000000000000000000000000000000000000000000000000000000815260040161060d90611902565b60405180910390fd5b806008908051906020019061062c9291906111e1565b5050565b600660009054906101000a900473ffffffffffffffffffffffffffffffffffffffff1681565b6000600760009054906101000a900473ffffffffffffffffffffffffffffffffffffffff1673ffffffffffffffffffffffffffffffffffffffff163373ffffffffffffffffffffffffffffffffffffffff16146106e8576040517f08c379a00000000000000000000000000000000000000000000000000000000081526004016106df90611994565b60405180910390fd5b60006106fe600a5430634357855e60e01b610816565b905061074a6040518060400160405280600381526020017f75726c000000000000000000000000000000000000000000000000000000000081525086836108479092919063ffffffff16565b6107946040518060400160405280600481526020017f706174680000000000000000000000000000000000000000000000000000000081525085836108479092919063ffffffff16565b6107de6040518060400160405280600581526020017f74696d6573000000000000000000000000000000000000000000000000000000815250848361087a9092919063ffffffff16565b61080b600960009054906101000a900473ffffffffffffffffffffffffffffffffffffffff1682886108ad565b915050949350505050565b61081e611267565b610826611267565b61083d858585846108cd909392919063ffffffff16565b9150509392505050565b61085e82846080015161097d90919063ffffffff16565b61087581846080015161097d90919063ffffffff16565b505050565b61089182846080015161097d90919063ffffffff16565b6108a88184608001516109a290919063ffffffff16565b505050565b60006108c48484846001634042994660e01b610a4f565b90509392505050565b6108d5611267565b6108e58560800151610100610cb7565b508385600001818152505082856020019073ffffffffffffffffffffffffffffffffffffffff16908173ffffffffffffffffffffffffffffffffffffffff16815250508185604001907bffffffffffffffffffffffffffffffffffffffffffffffffffffffff191690817bffffffffffffffffffffffffffffffffffffffffffffffffffffffff191681525050849050949350505050565b61098a8260038351610d21565b61099d8183610e6690919063ffffffff16565b505050565b7fffffffffffffffffffffffffffffffffffffffffffffffff00000000000000008112156109d9576109d48282610e88565b610a4b565b67ffffffffffffffff8113156109f8576109f38282610eff565b610a4a565b60008112610a1157610a0c82600083610d21565b610a49565b610a48826001837fffffffffffffffffffffffffffffffffffffffffffffffffffffffffffffffff610a4391906119e3565b610d21565b5b5b5b5050565b600030600454604051602001610a66929190611af2565b604051602081830303815290604052805190602001209050600454856060018181525050856005600083815260200190815260200160002060006101000a81548173ffffffffffffffffffffffffffffffffffffffff021916908373ffffffffffffffffffffffffffffffffffffffff160217905550807fb5e6e01e79f91267dc17b4e6314d5d4d03593d2ceee0fbb452b750bd70ea5af960405160405180910390a2600082600080886000015189602001518a604001518b606001518a8d6080015160000151604051602401610b44989796959493929190611be1565b604051602081830303815290604052907bffffffffffffffffffffffffffffffffffffffffffffffffffffffff19166020820180517bffffffffffffffffffffffffffffffffffffffffffffffffffffffff83818316178352505050509050600260009054906101000a900473ffffffffffffffffffffffffffffffffffffffff1673ffffffffffffffffffffffffffffffffffffffff16634000aea08887846040518463ffffffff1660e01b8152600401610c0293929190611c66565b602060405180830381600087803b158015610c1c57600080fd5b505af1158015610c30573d6000803e3d6000fd5b505050506040513d601f19601f82011682018060405250810190610c549190611cdc565b610c93576040517f08c379a0000000000000000000000000000000000000000000000000000000008152600401610c8a90611d7b565b60405180910390fd5b600160046000828254610ca69190611d9b565b925050819055505095945050505050565b610cbf6112d4565b6000602083610cce9190611e20565b14610cfa57602082610ce09190611e20565b6020610cec9190611e51565b82610cf79190611d9b565b91505b81836020018181525050604051808452600081528281016020016040525082905092915050565b60178111610d4e57610d488160058460ff16901b60ff161784610f4b90919063ffffffff16565b50610e61565b60ff8111610d9057610d73601860058460ff16901b1784610f4b90919063ffffffff16565b50610d8a81600185610f6b9092919063ffffffff16565b50610e60565b61ffff8111610dd357610db6601960058460ff16901b1784610f4b90919063ffffffff16565b50610dcd81600285610f6b9092919063ffffffff16565b50610e5f565b63ffffffff8111610e1857610dfb601a60058460ff16901b1784610f4b90919063ffffffff16565b50610e1281600485610f6b9092919063ffffffff16565b50610e5e565b67ffffffffffffffff8111610e5d57610e44601b60058460ff16901b1784610f4b90919063ffffffff16565b50610e5b81600885610f6b9092919063ffffffff16565b505b5b5b5b5b505050565b610e6e6112d4565b610e8083846000015151848551610f8d565b905092915050565b610ea660036005600660ff16901b1783610f4b90919063ffffffff16565b50610efb82827fffffffffffffffffffffffffffffffffffffffffffffffffffffffffffffffff610ed791906119e3565b604051602001610ee79190611e85565b604051602081830303815290604052611097565b5050565b610f1d60026005600660ff16901b1783610f4b90919063ffffffff16565b50610f478282604051602001610f339190611e85565b604051602081830303815290604052611097565b5050565b610f536112d4565b610f6383846000015151846110bc565b905092915050565b610f736112d4565b610f84848560000151518585611113565b90509392505050565b610f956112d4565b8251821115610fa357600080fd5b84602001518285610fb49190611d9b565b1115610fe957610fe8856002610fd988602001518887610fd49190611d9b565b6111a1565b610fe39190611ea0565b6111bd565b5b6000808651805187602083010193508088870111156110085787860182525b60208701925050505b6020841061104f578051825260208261102a9190611d9b565b91506020816110399190611d9b565b90506020846110489190611e51565b9350611011565b600060018560206110609190611e51565b61010061106d919061202d565b6110779190611e51565b905080198251168184511681811785525050879350505050949350505050565b6110a48260028351610d21565b6110b78183610e6690919063ffffffff16565b505050565b6110c46112d4565b836020015183106110ea576110e984600286602001516110e49190611ea0565b6111bd565b5b8351805160208583010184815381861415611106576001820183525b5050508390509392505050565b61111b6112d4565b8460200151848361112c9190611d9b565b11156111545761115385600286856111449190611d9b565b61114e9190611ea0565b6111bd565b5b6000600183610100611166919061202d565b6111709190611e51565b905085518386820101858319825116178152815185880111156111935784870182525b505085915050949350505050565b6000818311156111b3578290506111b7565b8190505b92915050565b6000826000015190506111d08383610cb7565b506111db8382610e66565b50505050565b8280546111ed906120a7565b90600052602060002090601f01602090048101928261120f5760008555611256565b82601f1061122857805160ff1916838001178555611256565b82800160010185558215611256579182015b8281111561125557825182559160200191906001019061123a565b5b50905061126391906112ee565b5090565b6040518060a0016040528060008019168152602001600073ffffffffffffffffffffffffffffffffffffffff16815260200160007bffffffffffffffffffffffffffffffffffffffffffffffffffffffff19168152602001600081526020016112ce6112d4565b81525090565b604051806040016040528060608152602001600081525090565b5b808211156113075760008160009055506001016112ef565b5090565b6000604051905090565b600080fd5b600080fd5b6000819050919050565b6113328161131f565b811461133d57600080fd5b50565b60008135905061134f81611329565b92915050565b6000819050919050565b61136881611355565b811461137357600080fd5b50565b6000813590506113858161135f565b92915050565b600080604083850312156113a2576113a1611315565b5b60006113b085828601611340565b92505060206113c185828601611376565b9150509250929050565b600073ffffffffffffffffffffffffffffffffffffffff82169050919050565b6000819050919050565b600061141061140b611406846113cb565b6113eb565b6113cb565b9050919050565b6000611422826113f5565b9050919050565b600061143482611417565b9050919050565b61144481611429565b82525050565b600060208201905061145f600083018461143b565b92915050565b6000611470826113cb565b9050919050565b61148081611465565b811461148b57600080fd5b50565b60008135905061149d81611477565b92915050565b6000602082840312156114b9576114b8611315565b5b60006114c78482850161148e565b91505092915050565b6000602082840312156114e6576114e5611315565b5b60006114f484828501611340565b91505092915050565b600080fd5b600080fd5b6000601f19601f8301169050919050565b7f4e487b7100000000000000000000000000000000000000000000000000000000600052604160045260246000fd5b61155082611507565b810181811067ffffffffffffffff8211171561156f5761156e611518565b5b80604052505050565b600061158261130b565b905061158e8282611547565b919050565b600067ffffffffffffffff8211156115ae576115ad611518565b5b6115b782611507565b9050602081019050919050565b82818337600083830152505050565b60006115e66115e184611593565b611578565b90508281526020810184848401111561160257611601611502565b5b61160d8482856115c4565b509392505050565b600082601f83011261162a576116296114fd565b5b813561163a8482602086016115d3565b91505092915050565b60006020828403121561165957611658611315565b5b600082013567ffffffffffffffff8111156116775761167661131a565b5b61168384828501611615565b91505092915050565b61169581611465565b82525050565b60006020820190506116b0600083018461168c565b92915050565b6000819050919050565b6116c9816116b6565b81146116d457600080fd5b50565b6000813590506116e6816116c0565b92915050565b6000806000806080858703121561170657611705611315565b5b600061171487828801611376565b945050602085013567ffffffffffffffff8111156117355761173461131a565b5b61174187828801611615565b935050604085013567ffffffffffffffff8111156117625761176161131a565b5b61176e87828801611615565b925050606061177f878288016116d7565b91505092959194509250565b6117948161131f565b82525050565b60006020820190506117af600083018461178b565b92915050565b600082825260208201905092915050565b7f536f75726365206d75737420626520746865206f7261636c65206f662074686560008201527f2072657175657374000000000000000000000000000000000000000000000000602082015250565b60006118226028836117b5565b915061182d826117c6565b604082019050919050565b6000602082019050818103600083015261185181611815565b9050919050565b61186181611355565b82525050565b600060408201905061187c600083018561178b565b6118896020830184611858565b9392505050565b7f4f6e6c7920746865206f776e65722063616e2063616c6c20746869732066756e60008201527f6374696f6e000000000000000000000000000000000000000000000000000000602082015250565b60006118ec6025836117b5565b91506118f782611890565b604082019050919050565b6000602082019050818103600083015261191b816118df565b9050919050565b7f4f6e6c792074686520706f6c696379666c6f772063616e2063616c6c2074686960008201527f732066756e6374696f6e00000000000000000000000000000000000000000000602082015250565b600061197e602a836117b5565b915061198982611922565b604082019050919050565b600060208201905081810360008301526119ad81611971565b9050919050565b7f4e487b7100000000000000000000000000000000000000000000000000000000600052601160045260246000fd5b60006119ee826116b6565b91506119f9836116b6565b9250827f800000000000000000000000000000000000000000000000000000000000000001821260008412151615611a3457611a336119b4565b5b827f7fffffffffffffffffffffffffffffffffffffffffffffffffffffffffffffff018213600084121615611a6c57611a6b6119b4565b5b828203905092915050565b6000611a8282611417565b9050919050565b60008160601b9050919050565b6000611aa182611a89565b9050919050565b6000611ab382611a96565b9050919050565b611acb611ac682611a77565b611aa8565b82525050565b6000819050919050565b611aec611ae782611355565b611ad1565b82525050565b6000611afe8285611aba565b601482019150611b0e8284611adb565b6020820191508190509392505050565b60007fffffffff0000000000000000000000000000000000000000000000000000000082169050919050565b611b5381611b1e565b82525050565b600081519050919050565b600082825260208201905092915050565b60005b83811015611b93578082015181840152602081019050611b78565b83811115611ba2576000848401525b50505050565b6000611bb382611b59565b611bbd8185611b64565b9350611bcd818560208601611b75565b611bd681611507565b840191505092915050565b600061010082019050611bf7600083018b61168c565b611c04602083018a611858565b611c11604083018961178b565b611c1e606083018861168c565b611c2b6080830187611b4a565b611c3860a0830186611858565b611c4560c0830185611858565b81810360e0830152611c578184611ba8565b90509998505050505050505050565b6000606082019050611c7b600083018661168c565b611c886020830185611858565b8181036040830152611c9a8184611ba8565b9050949350505050565b60008115159050919050565b611cb981611ca4565b8114611cc457600080fd5b50565b600081519050611cd681611cb0565b92915050565b600060208284031215611cf257611cf1611315565b5b6000611d0084828501611cc7565b91505092915050565b7f756e61626c6520746f207472616e73666572416e6443616c6c20746f206f726160008201527f636c650000000000000000000000000000000000000000000000000000000000602082015250565b6000611d656023836117b5565b9150611d7082611d09565b604082019050919050565b60006020820190508181036000830152611d9481611d58565b9050919050565b6000611da682611355565b9150611db183611355565b9250827fffffffffffffffffffffffffffffffffffffffffffffffffffffffffffffffff03821115611de657611de56119b4565b5b828201905092915050565b7f4e487b7100000000000000000000000000000000000000000000000000000000600052601260045260246000fd5b6000611e2b82611355565b9150611e3683611355565b925082611e4657611e45611df1565b5b828206905092915050565b6000611e5c82611355565b9150611e6783611355565b925082821015611e7a57611e796119b4565b5b828203905092915050565b6000602082019050611e9a6000830184611858565b92915050565b6000611eab82611355565b9150611eb683611355565b9250817fffffffffffffffffffffffffffffffffffffffffffffffffffffffffffffffff0483118215151615611eef57611eee6119b4565b5b828202905092915050565b60008160011c9050919050565b6000808291508390505b6001851115611f5157808604811115611f2d57611f2c6119b4565b5b6001851615611f3c5780820291505b8081029050611f4a85611efa565b9450611f11565b94509492505050565b600082611f6a5760019050612026565b81611f785760009050612026565b8160018114611f8e5760028114611f9857611fc7565b6001915050612026565b60ff841115611faa57611fa96119b4565b5b8360020a915084821115611fc157611fc06119b4565b5b50612026565b5060208310610133831016604e8410600b8410161715611ffc5782820a905083811115611ff757611ff66119b4565b5b612026565b6120098484846001611f07565b925090508184048111156120205761201f6119b4565b5b81810290505b9392505050565b600061203882611355565b915061204383611355565b92506120707fffffffffffffffffffffffffffffffffffffffffffffffffffffffffffffffff8484611f5a565b905092915050565b7f4e487b7100000000000000000000000000000000000000000000000000000000600052602260045260246000fd5b600060028204905060018216806120bf57607f821691505b602082108114156120d3576120d2612078565b5b5091905056fea2646970667358221220430da985980e1bf502ba259d7b53252687520f30ce0301bfe434953c669d036464736f6c63430008090033",
  "immutableReferences": {},
  "source": "// SPDX-License-Identifier: MIT\npragma solidity 0.8.9;\nimport \"@chainlink/contracts/src/v0.8/ChainlinkClient.sol\";\nimport \"./interfaces/IPolicyFlow.sol\";\n\n/**\n * @title  Flight Oracle\n * @notice This is the flight oracle contract.\n *         Called by policyFlow contract and send the request to chainlink node.\n *         After receiving the result, call the policyFlow contract to do the settlement.\n * @dev    Remember to set the url, oracleAddress and jobId\n */\ncontract FlightOracle is ChainlinkClient {\n    using Chainlink for Chainlink.Request;\n\n    address public owner;\n\n    IPolicyFlow public policyFlow;\n\n    string private FLIGHT_STATUS_URL = \"http://39.101.132.228:8000/live/\";\n    address private oracleAddress;\n    bytes32 private jobId;\n\n    constructor(address _policyFlow) {\n        policyFlow = IPolicyFlow(_policyFlow);\n\n        setPublicChainlinkToken();\n    }\n\n    // ---------------------------------------------------------------------------------------- //\n    // ************************************** Modifiers *************************************** //\n    // ---------------------------------------------------------------------------------------- //\n\n    // Only the owner can call some functions\n    modifier onlyOwner() {\n        require(msg.sender == owner, \"Only the owner can call this function\");\n        _;\n    }\n\n    // Only the policyFlow can call some functions\n    modifier onlyPolicyFlow() {\n        require(\n            msg.sender == address(policyFlow),\n            \"Only the policyflow can call this function\"\n        );\n        _;\n    }\n\n    // ---------------------------------------------------------------------------------------- //\n    // ************************************ Set Functions ************************************* //\n    // ---------------------------------------------------------------------------------------- //\n\n    // Set a new url\n    function setURL(string memory _url) external onlyOwner {\n        FLIGHT_STATUS_URL = _url;\n    }\n\n    // Set the oracle address\n    function setOracleAddress(address _newOracle) external onlyOwner {\n        oracleAddress = _newOracle;\n    }\n\n    // Set a new job id\n    function setJobId(bytes32 _newJobId) external onlyOwner {\n        jobId = _newJobId;\n    }\n\n    // Set a new policy flow\n    function setPolicyFlow(address _policyFlow) external onlyOwner {\n        policyFlow = IPolicyFlow(_policyFlow);\n    }\n\n    // ---------------------------------------------------------------------------------------- //\n    // ************************************ Main Functions ************************************ //\n    // ---------------------------------------------------------------------------------------- //\n\n    /**\n     * @notice Creates a request to the specified Oracle contract address\n     * @dev This function ignores the stored Oracle contract address and\n     *      will instead send the request to the address specified\n     * @param _payment Payment to the oracle\n     * @param _url The URL to fetch data from\n     * @param _path The dot-delimited path to parse of the response\n     * @param _times The number to multiply the result by\n     */\n    function newOracleRequest(\n        uint256 _payment,\n        string memory _url,\n        string memory _path,\n        int256 _times\n    ) public onlyPolicyFlow returns (bytes32) {\n        Chainlink.Request memory req = buildChainlinkRequest(\n            jobId,\n            address(this),\n            this.fulfill.selector\n        );\n        req.add(\"url\", _url);\n        req.add(\"path\", _path);\n        req.addInt(\"times\", _times);\n        return sendChainlinkRequestTo(oracleAddress, req, _payment);\n    }\n\n    /**\n     * @notice The fulfill method from requests created by this contract\n     * @dev The recordChainlinkFulfillment protects this function from being called\n     *      by anyone other than the oracle address that the request was sent to\n     * @param _requestId The ID that was generated for the request\n     * @param _data The answer provided by the oracle\n     */\n    function fulfill(bytes32 _requestId, uint256 _data)\n        public\n        recordChainlinkFulfillment(_requestId)\n    {\n        policyFlow.finalSettlement(_requestId, _data);\n    }\n}\n",
  "sourcePath": "/Volumes/Store/src/Degis-Contracts-1/contracts/FlightOracle.sol",
  "compiler": {
    "name": "solc",
    "version": "0.8.9+commit.e5eed63a.Emscripten.clang"
  },
  "schemaVersion": "3.4.3",
  "updatedAt": "2021-12-02T08:22:45.369Z",
  "devdoc": {
    "details": "Remember to set the url, oracleAddress and jobId",
    "kind": "dev",
    "methods": {
      "fulfill(bytes32,uint256)": {
        "details": "The recordChainlinkFulfillment protects this function from being called      by anyone other than the oracle address that the request was sent to",
        "params": {
          "_data": "The answer provided by the oracle",
          "_requestId": "The ID that was generated for the request"
        }
      },
      "newOracleRequest(uint256,string,string,int256)": {
        "details": "This function ignores the stored Oracle contract address and      will instead send the request to the address specified",
        "params": {
          "_path": "The dot-delimited path to parse of the response",
          "_payment": "Payment to the oracle",
          "_times": "The number to multiply the result by",
          "_url": "The URL to fetch data from"
        }
      }
    },
    "title": "Flight Oracle",
    "version": 1
  },
  "userdoc": {
    "kind": "user",
    "methods": {
      "fulfill(bytes32,uint256)": {
        "notice": "The fulfill method from requests created by this contract"
      },
      "newOracleRequest(uint256,string,string,int256)": {
        "notice": "Creates a request to the specified Oracle contract address"
      }
    },
    "notice": "This is the flight oracle contract.         Called by policyFlow contract and send the request to chainlink node.         After receiving the result, call the policyFlow contract to do the settlement.",
    "version": 1
  }
}