{
  "contractName": "FlightOracle",
  "abi": [
    {
      "inputs": [
        {
          "internalType": "address",
          "name": "_policyFlow",
          "type": "address"
        },
        {
          "internalType": "address",
          "name": "_link",
          "type": "address"
        }
      ],
      "stateMutability": "nonpayable",
      "type": "constructor"
    },
    {
      "anonymous": false,
      "inputs": [
        {
          "indexed": true,
          "internalType": "bytes32",
          "name": "id",
          "type": "bytes32"
        }
      ],
      "name": "ChainlinkCancelled",
      "type": "event"
    },
    {
      "anonymous": false,
      "inputs": [
        {
          "indexed": true,
          "internalType": "bytes32",
          "name": "id",
          "type": "bytes32"
        }
      ],
      "name": "ChainlinkFulfilled",
      "type": "event"
    },
    {
      "anonymous": false,
      "inputs": [
        {
          "indexed": true,
          "internalType": "bytes32",
          "name": "id",
          "type": "bytes32"
        }
      ],
      "name": "ChainlinkRequested",
      "type": "event"
    },
    {
      "inputs": [],
      "name": "owner",
      "outputs": [
        {
          "internalType": "address",
          "name": "",
          "type": "address"
        }
      ],
      "stateMutability": "view",
      "type": "function",
      "constant": true
    },
    {
      "inputs": [],
      "name": "policyFlow",
      "outputs": [
        {
          "internalType": "contract IPolicyFlow",
          "name": "",
          "type": "address"
        }
      ],
      "stateMutability": "view",
      "type": "function",
      "constant": true
    },
    {
      "inputs": [
        {
          "internalType": "address",
          "name": "_newOracle",
          "type": "address"
        }
      ],
      "name": "setOracleAddress",
      "outputs": [],
      "stateMutability": "nonpayable",
      "type": "function"
    },
    {
      "inputs": [
        {
          "internalType": "bytes32",
          "name": "_newJobId",
          "type": "bytes32"
        }
      ],
      "name": "setJobId",
      "outputs": [],
      "stateMutability": "nonpayable",
      "type": "function"
    },
    {
      "inputs": [
        {
          "internalType": "address",
          "name": "_policyFlow",
          "type": "address"
        }
      ],
      "name": "setPolicyFlow",
      "outputs": [],
      "stateMutability": "nonpayable",
      "type": "function"
    },
    {
      "inputs": [
        {
          "internalType": "uint256",
          "name": "_payment",
          "type": "uint256"
        },
        {
          "internalType": "string",
          "name": "_url",
          "type": "string"
        },
        {
          "internalType": "string",
          "name": "_path",
          "type": "string"
        },
        {
          "internalType": "int256",
          "name": "_times",
          "type": "int256"
        }
      ],
      "name": "newOracleRequest",
      "outputs": [
        {
          "internalType": "bytes32",
          "name": "",
          "type": "bytes32"
        }
      ],
      "stateMutability": "nonpayable",
      "type": "function"
    },
    {
      "inputs": [
        {
          "internalType": "bytes32",
          "name": "_requestId",
          "type": "bytes32"
        },
        {
          "internalType": "uint256",
          "name": "_data",
          "type": "uint256"
        }
      ],
      "name": "fulfill",
      "outputs": [],
      "stateMutability": "nonpayable",
      "type": "function"
    }
  ],
  "bytecode": "0x608060405260016004553480156200001657600080fd5b506040516200208c3803806200208c83398181016040528101906200003c919062000144565b81600760006101000a81548173ffffffffffffffffffffffffffffffffffffffff021916908373ffffffffffffffffffffffffffffffffffffffff1602179055506200008e816200009660201b60201c565b50506200018b565b80600260006101000a81548173ffffffffffffffffffffffffffffffffffffffff021916908373ffffffffffffffffffffffffffffffffffffffff16021790555050565b600080fd5b600073ffffffffffffffffffffffffffffffffffffffff82169050919050565b60006200010c82620000df565b9050919050565b6200011e81620000ff565b81146200012a57600080fd5b50565b6000815190506200013e8162000113565b92915050565b600080604083850312156200015e576200015d620000da565b5b60006200016e858286016200012d565b925050602062000181858286016200012d565b9150509250929050565b611ef1806200019b6000396000f3fe608060405234801561001057600080fd5b506004361061007d5760003560e01c8063508954f81161005b578063508954f8146100d85780635c326caf146100f45780638da5cb5b146101105780639a66455f1461012e5761007d565b80634357855e1461008257806343d387f81461009e5780634c69c00f146100bc575b600080fd5b61009c60048036038101906100979190611217565b61015e565b005b6100a66102f7565b6040516100b391906112d6565b60405180910390f35b6100d660048036038101906100d1919061132f565b61031d565b005b6100f260048036038101906100ed919061135c565b6103f1565b005b61010e6004803603810190610109919061132f565b61048b565b005b61011861055f565b6040516101259190611398565b60405180910390f35b6101486004803603810190610143919061152f565b610585565b60405161015591906115dd565b60405180910390f35b816005600082815260200190815260200160002060009054906101000a900473ffffffffffffffffffffffffffffffffffffffff1673ffffffffffffffffffffffffffffffffffffffff163373ffffffffffffffffffffffffffffffffffffffff1614610200576040517f08c379a00000000000000000000000000000000000000000000000000000000081526004016101f79061167b565b60405180910390fd5b6005600082815260200190815260200160002060006101000a81549073ffffffffffffffffffffffffffffffffffffffff0219169055807f7cc135e0cebb02c3480ae5d74d377283180a2601f8f644edf7987b009316c63a60405160405180910390a2600760009054906101000a900473ffffffffffffffffffffffffffffffffffffffff1673ffffffffffffffffffffffffffffffffffffffff16631a397db984846040518363ffffffff1660e01b81526004016102c09291906116aa565b600060405180830381600087803b1580156102da57600080fd5b505af11580156102ee573d6000803e3d6000fd5b50505050505050565b600760009054906101000a900473ffffffffffffffffffffffffffffffffffffffff1681565b600660009054906101000a900473ffffffffffffffffffffffffffffffffffffffff1673ffffffffffffffffffffffffffffffffffffffff163373ffffffffffffffffffffffffffffffffffffffff16146103ad576040517f08c379a00000000000000000000000000000000000000000000000000000000081526004016103a490611745565b60405180910390fd5b80600860006101000a81548173ffffffffffffffffffffffffffffffffffffffff021916908373ffffffffffffffffffffffffffffffffffffffff16021790555050565b600660009054906101000a900473ffffffffffffffffffffffffffffffffffffffff1673ffffffffffffffffffffffffffffffffffffffff163373ffffffffffffffffffffffffffffffffffffffff1614610481576040517f08c379a000000000000000000000000000000000000000000000000000000000815260040161047890611745565b60405180910390fd5b8060098190555050565b600660009054906101000a900473ffffffffffffffffffffffffffffffffffffffff1673ffffffffffffffffffffffffffffffffffffffff163373ffffffffffffffffffffffffffffffffffffffff161461051b576040517f08c379a000000000000000000000000000000000000000000000000000000000815260040161051290611745565b60405180910390fd5b80600760006101000a81548173ffffffffffffffffffffffffffffffffffffffff021916908373ffffffffffffffffffffffffffffffffffffffff16021790555050565b600660009054906101000a900473ffffffffffffffffffffffffffffffffffffffff1681565b6000600760009054906101000a900473ffffffffffffffffffffffffffffffffffffffff1673ffffffffffffffffffffffffffffffffffffffff163373ffffffffffffffffffffffffffffffffffffffff1614610617576040517f08c379a000000000000000000000000000000000000000000000000000000000815260040161060e906117d7565b60405180910390fd5b600061062d60095430634357855e60e01b610745565b90506106796040518060400160405280600381526020017f75726c000000000000000000000000000000000000000000000000000000000081525086836107769092919063ffffffff16565b6106c36040518060400160405280600481526020017f706174680000000000000000000000000000000000000000000000000000000081525085836107769092919063ffffffff16565b61070d6040518060400160405280600581526020017f74696d657300000000000000000000000000000000000000000000000000000081525084836107a99092919063ffffffff16565b61073a600860009054906101000a900473ffffffffffffffffffffffffffffffffffffffff1682886107dc565b915050949350505050565b61074d611110565b610755611110565b61076c858585846107fc909392919063ffffffff16565b9150509392505050565b61078d8284608001516108ac90919063ffffffff16565b6107a48184608001516108ac90919063ffffffff16565b505050565b6107c08284608001516108ac90919063ffffffff16565b6107d78184608001516108d190919063ffffffff16565b505050565b60006107f38484846001634042994660e01b61097e565b90509392505050565b610804611110565b6108148560800151610100610be6565b508385600001818152505082856020019073ffffffffffffffffffffffffffffffffffffffff16908173ffffffffffffffffffffffffffffffffffffffff16815250508185604001907bffffffffffffffffffffffffffffffffffffffffffffffffffffffff191690817bffffffffffffffffffffffffffffffffffffffffffffffffffffffff191681525050849050949350505050565b6108b98260038351610c50565b6108cc8183610d9590919063ffffffff16565b505050565b7fffffffffffffffffffffffffffffffffffffffffffffffff0000000000000000811215610908576109038282610db7565b61097a565b67ffffffffffffffff811315610927576109228282610e2e565b610979565b600081126109405761093b82600083610c50565b610978565b610977826001837fffffffffffffffffffffffffffffffffffffffffffffffffffffffffffffffff6109729190611826565b610c50565b5b5b5b5050565b600030600454604051602001610995929190611935565b604051602081830303815290604052805190602001209050600454856060018181525050856005600083815260200190815260200160002060006101000a81548173ffffffffffffffffffffffffffffffffffffffff021916908373ffffffffffffffffffffffffffffffffffffffff160217905550807fb5e6e01e79f91267dc17b4e6314d5d4d03593d2ceee0fbb452b750bd70ea5af960405160405180910390a2600082600080886000015189602001518a604001518b606001518a8d6080015160000151604051602401610a73989796959493929190611a24565b604051602081830303815290604052907bffffffffffffffffffffffffffffffffffffffffffffffffffffffff19166020820180517bffffffffffffffffffffffffffffffffffffffffffffffffffffffff83818316178352505050509050600260009054906101000a900473ffffffffffffffffffffffffffffffffffffffff1673ffffffffffffffffffffffffffffffffffffffff16634000aea08887846040518463ffffffff1660e01b8152600401610b3193929190611aa9565b602060405180830381600087803b158015610b4b57600080fd5b505af1158015610b5f573d6000803e3d6000fd5b505050506040513d601f19601f82011682018060405250810190610b839190611b1f565b610bc2576040517f08c379a0000000000000000000000000000000000000000000000000000000008152600401610bb990611bbe565b60405180910390fd5b600160046000828254610bd59190611bde565b925050819055505095945050505050565b610bee61117d565b6000602083610bfd9190611c63565b14610c2957602082610c0f9190611c63565b6020610c1b9190611c94565b82610c269190611bde565b91505b81836020018181525050604051808452600081528281016020016040525082905092915050565b60178111610c7d57610c778160058460ff16901b60ff161784610e7a90919063ffffffff16565b50610d90565b60ff8111610cbf57610ca2601860058460ff16901b1784610e7a90919063ffffffff16565b50610cb981600185610e9a9092919063ffffffff16565b50610d8f565b61ffff8111610d0257610ce5601960058460ff16901b1784610e7a90919063ffffffff16565b50610cfc81600285610e9a9092919063ffffffff16565b50610d8e565b63ffffffff8111610d4757610d2a601a60058460ff16901b1784610e7a90919063ffffffff16565b50610d4181600485610e9a9092919063ffffffff16565b50610d8d565b67ffffffffffffffff8111610d8c57610d73601b60058460ff16901b1784610e7a90919063ffffffff16565b50610d8a81600885610e9a9092919063ffffffff16565b505b5b5b5b5b505050565b610d9d61117d565b610daf83846000015151848551610ebc565b905092915050565b610dd560036005600660ff16901b1783610e7a90919063ffffffff16565b50610e2a82827fffffffffffffffffffffffffffffffffffffffffffffffffffffffffffffffff610e069190611826565b604051602001610e169190611cc8565b604051602081830303815290604052610fc6565b5050565b610e4c60026005600660ff16901b1783610e7a90919063ffffffff16565b50610e768282604051602001610e629190611cc8565b604051602081830303815290604052610fc6565b5050565b610e8261117d565b610e928384600001515184610feb565b905092915050565b610ea261117d565b610eb3848560000151518585611042565b90509392505050565b610ec461117d565b8251821115610ed257600080fd5b84602001518285610ee39190611bde565b1115610f1857610f17856002610f0888602001518887610f039190611bde565b6110d0565b610f129190611ce3565b6110ec565b5b600080865180518760208301019350808887011115610f375787860182525b60208701925050505b60208410610f7e5780518252602082610f599190611bde565b9150602081610f689190611bde565b9050602084610f779190611c94565b9350610f40565b60006001856020610f8f9190611c94565b610100610f9c9190611e70565b610fa69190611c94565b905080198251168184511681811785525050879350505050949350505050565b610fd38260028351610c50565b610fe68183610d9590919063ffffffff16565b505050565b610ff361117d565b836020015183106110195761101884600286602001516110139190611ce3565b6110ec565b5b8351805160208583010184815381861415611035576001820183525b5050508390509392505050565b61104a61117d565b8460200151848361105b9190611bde565b11156110835761108285600286856110739190611bde565b61107d9190611ce3565b6110ec565b5b60006001836101006110959190611e70565b61109f9190611c94565b905085518386820101858319825116178152815185880111156110c25784870182525b505085915050949350505050565b6000818311156110e2578290506110e6565b8190505b92915050565b6000826000015190506110ff8383610be6565b5061110a8382610d95565b50505050565b6040518060a0016040528060008019168152602001600073ffffffffffffffffffffffffffffffffffffffff16815260200160007bffffffffffffffffffffffffffffffffffffffffffffffffffffffff191681526020016000815260200161117761117d565b81525090565b604051806040016040528060608152602001600081525090565b6000604051905090565b600080fd5b600080fd5b6000819050919050565b6111be816111ab565b81146111c957600080fd5b50565b6000813590506111db816111b5565b92915050565b6000819050919050565b6111f4816111e1565b81146111ff57600080fd5b50565b600081359050611211816111eb565b92915050565b6000806040838503121561122e5761122d6111a1565b5b600061123c858286016111cc565b925050602061124d85828601611202565b9150509250929050565b600073ffffffffffffffffffffffffffffffffffffffff82169050919050565b6000819050919050565b600061129c61129761129284611257565b611277565b611257565b9050919050565b60006112ae82611281565b9050919050565b60006112c0826112a3565b9050919050565b6112d0816112b5565b82525050565b60006020820190506112eb60008301846112c7565b92915050565b60006112fc82611257565b9050919050565b61130c816112f1565b811461131757600080fd5b50565b60008135905061132981611303565b92915050565b600060208284031215611345576113446111a1565b5b60006113538482850161131a565b91505092915050565b600060208284031215611372576113716111a1565b5b6000611380848285016111cc565b91505092915050565b611392816112f1565b82525050565b60006020820190506113ad6000830184611389565b92915050565b600080fd5b600080fd5b6000601f19601f8301169050919050565b7f4e487b7100000000000000000000000000000000000000000000000000000000600052604160045260246000fd5b611406826113bd565b810181811067ffffffffffffffff82111715611425576114246113ce565b5b80604052505050565b6000611438611197565b905061144482826113fd565b919050565b600067ffffffffffffffff821115611464576114636113ce565b5b61146d826113bd565b9050602081019050919050565b82818337600083830152505050565b600061149c61149784611449565b61142e565b9050828152602081018484840111156114b8576114b76113b8565b5b6114c384828561147a565b509392505050565b600082601f8301126114e0576114df6113b3565b5b81356114f0848260208601611489565b91505092915050565b6000819050919050565b61150c816114f9565b811461151757600080fd5b50565b60008135905061152981611503565b92915050565b60008060008060808587031215611549576115486111a1565b5b600061155787828801611202565b945050602085013567ffffffffffffffff811115611578576115776111a6565b5b611584878288016114cb565b935050604085013567ffffffffffffffff8111156115a5576115a46111a6565b5b6115b1878288016114cb565b92505060606115c28782880161151a565b91505092959194509250565b6115d7816111ab565b82525050565b60006020820190506115f260008301846115ce565b92915050565b600082825260208201905092915050565b7f536f75726365206d75737420626520746865206f7261636c65206f662074686560008201527f2072657175657374000000000000000000000000000000000000000000000000602082015250565b60006116656028836115f8565b915061167082611609565b604082019050919050565b6000602082019050818103600083015261169481611658565b9050919050565b6116a4816111e1565b82525050565b60006040820190506116bf60008301856115ce565b6116cc602083018461169b565b9392505050565b7f4f6e6c7920746865206f776e65722063616e2063616c6c20746869732066756e60008201527f6374696f6e000000000000000000000000000000000000000000000000000000602082015250565b600061172f6025836115f8565b915061173a826116d3565b604082019050919050565b6000602082019050818103600083015261175e81611722565b9050919050565b7f4f6e6c792074686520706f6c696379666c6f772063616e2063616c6c2074686960008201527f732066756e6374696f6e00000000000000000000000000000000000000000000602082015250565b60006117c1602a836115f8565b91506117cc82611765565b604082019050919050565b600060208201905081810360008301526117f0816117b4565b9050919050565b7f4e487b7100000000000000000000000000000000000000000000000000000000600052601160045260246000fd5b6000611831826114f9565b915061183c836114f9565b9250827f800000000000000000000000000000000000000000000000000000000000000001821260008412151615611877576118766117f7565b5b827f7fffffffffffffffffffffffffffffffffffffffffffffffffffffffffffffff0182136000841216156118af576118ae6117f7565b5b828203905092915050565b60006118c5826112a3565b9050919050565b60008160601b9050919050565b60006118e4826118cc565b9050919050565b60006118f6826118d9565b9050919050565b61190e611909826118ba565b6118eb565b82525050565b6000819050919050565b61192f61192a826111e1565b611914565b82525050565b600061194182856118fd565b601482019150611951828461191e565b6020820191508190509392505050565b60007fffffffff0000000000000000000000000000000000000000000000000000000082169050919050565b61199681611961565b82525050565b600081519050919050565b600082825260208201905092915050565b60005b838110156119d65780820151818401526020810190506119bb565b838111156119e5576000848401525b50505050565b60006119f68261199c565b611a0081856119a7565b9350611a108185602086016119b8565b611a19816113bd565b840191505092915050565b600061010082019050611a3a600083018b611389565b611a47602083018a61169b565b611a5460408301896115ce565b611a616060830188611389565b611a6e608083018761198d565b611a7b60a083018661169b565b611a8860c083018561169b565b81810360e0830152611a9a81846119eb565b90509998505050505050505050565b6000606082019050611abe6000830186611389565b611acb602083018561169b565b8181036040830152611add81846119eb565b9050949350505050565b60008115159050919050565b611afc81611ae7565b8114611b0757600080fd5b50565b600081519050611b1981611af3565b92915050565b600060208284031215611b3557611b346111a1565b5b6000611b4384828501611b0a565b91505092915050565b7f756e61626c6520746f207472616e73666572416e6443616c6c20746f206f726160008201527f636c650000000000000000000000000000000000000000000000000000000000602082015250565b6000611ba86023836115f8565b9150611bb382611b4c565b604082019050919050565b60006020820190508181036000830152611bd781611b9b565b9050919050565b6000611be9826111e1565b9150611bf4836111e1565b9250827fffffffffffffffffffffffffffffffffffffffffffffffffffffffffffffffff03821115611c2957611c286117f7565b5b828201905092915050565b7f4e487b7100000000000000000000000000000000000000000000000000000000600052601260045260246000fd5b6000611c6e826111e1565b9150611c79836111e1565b925082611c8957611c88611c34565b5b828206905092915050565b6000611c9f826111e1565b9150611caa836111e1565b925082821015611cbd57611cbc6117f7565b5b828203905092915050565b6000602082019050611cdd600083018461169b565b92915050565b6000611cee826111e1565b9150611cf9836111e1565b9250817fffffffffffffffffffffffffffffffffffffffffffffffffffffffffffffffff0483118215151615611d3257611d316117f7565b5b828202905092915050565b60008160011c9050919050565b6000808291508390505b6001851115611d9457808604811115611d7057611d6f6117f7565b5b6001851615611d7f5780820291505b8081029050611d8d85611d3d565b9450611d54565b94509492505050565b600082611dad5760019050611e69565b81611dbb5760009050611e69565b8160018114611dd15760028114611ddb57611e0a565b6001915050611e69565b60ff841115611ded57611dec6117f7565b5b8360020a915084821115611e0457611e036117f7565b5b50611e69565b5060208310610133831016604e8410600b8410161715611e3f5782820a905083811115611e3a57611e396117f7565b5b611e69565b611e4c8484846001611d4a565b92509050818404811115611e6357611e626117f7565b5b81810290505b9392505050565b6000611e7b826111e1565b9150611e86836111e1565b9250611eb37fffffffffffffffffffffffffffffffffffffffffffffffffffffffffffffffff8484611d9d565b90509291505056fea2646970667358221220b42e787c7a70decc2ed03a27a80eb5ba1fd88a952426e343084061068c22461a64736f6c63430008090033",
  "immutableReferences": {},
  "source": "// SPDX-License-Identifier: MIT\npragma solidity 0.8.9;\nimport \"@chainlink/contracts/src/v0.8/ChainlinkClient.sol\";\nimport \"./interfaces/IPolicyFlow.sol\";\n\n/**\n * @title  Flight Oracle\n * @notice This is the flight oracle contract.\n *         Called by policyFlow contract and send the request to chainlink node.\n *         After receiving the result, call the policyFlow contract to do the settlement.\n * @dev    Remember to set the url, oracleAddress and jobId\n */\ncontract FlightOracle is ChainlinkClient {\n    using Chainlink for Chainlink.Request;\n\n    address public owner;\n\n    IPolicyFlow public policyFlow;\n\n    address private oracleAddress;\n    bytes32 private jobId;\n\n    constructor(address _policyFlow, address _link) {\n        policyFlow = IPolicyFlow(_policyFlow);\n\n        setChainlinkToken(_link);\n    }\n\n    // ---------------------------------------------------------------------------------------- //\n    // ************************************** Modifiers *************************************** //\n    // ---------------------------------------------------------------------------------------- //\n\n    // Only the owner can call some functions\n    modifier onlyOwner() {\n        require(msg.sender == owner, \"Only the owner can call this function\");\n        _;\n    }\n\n    // Only the policyFlow can call some functions\n    modifier onlyPolicyFlow() {\n        require(\n            msg.sender == address(policyFlow),\n            \"Only the policyflow can call this function\"\n        );\n        _;\n    }\n\n    // ---------------------------------------------------------------------------------------- //\n    // ************************************ Set Functions ************************************* //\n    // ---------------------------------------------------------------------------------------- //\n\n    /**\n     * @notice Set the oracle address\n     */\n    function setOracleAddress(address _newOracle) external onlyOwner {\n        oracleAddress = _newOracle;\n    }\n\n    /**\n     * @notice Set a new job id\n     */\n    function setJobId(bytes32 _newJobId) external onlyOwner {\n        jobId = _newJobId;\n    }\n\n    /**\n     * @notice Change the policy flow contract address\n     */\n    function setPolicyFlow(address _policyFlow) external onlyOwner {\n        policyFlow = IPolicyFlow(_policyFlow);\n    }\n\n    // ---------------------------------------------------------------------------------------- //\n    // ************************************ Main Functions ************************************ //\n    // ---------------------------------------------------------------------------------------- //\n\n    /**\n     * @notice Creates a request to the specified Oracle contract address\n     * @dev This function ignores the stored Oracle contract address and\n     *      will instead send the request to the address specified\n     * @param _payment Payment to the oracle\n     * @param _url The URL to fetch data from\n     * @param _path The dot-delimited path to parse of the response\n     * @param _times The number to multiply the result by\n     */\n    function newOracleRequest(\n        uint256 _payment,\n        string memory _url,\n        string memory _path,\n        int256 _times\n    ) public onlyPolicyFlow returns (bytes32) {\n        Chainlink.Request memory req = buildChainlinkRequest(\n            jobId,\n            address(this),\n            this.fulfill.selector\n        );\n        req.add(\"url\", _url);\n        req.add(\"path\", _path);\n        req.addInt(\"times\", _times);\n        return sendChainlinkRequestTo(oracleAddress, req, _payment);\n    }\n\n    /**\n     * @notice The fulfill method from requests created by this contract\n     * @dev The recordChainlinkFulfillment protects this function from being called\n     *      by anyone other than the oracle address that the request was sent to\n     * @param _requestId The ID that was generated for the request\n     * @param _data The answer provided by the oracle\n     */\n    function fulfill(bytes32 _requestId, uint256 _data)\n        public\n        recordChainlinkFulfillment(_requestId)\n    {\n        policyFlow.finalSettlement(_requestId, _data);\n    }\n}\n",
  "sourcePath": "/Volumes/Store/src/Degis-Contracts-1/contracts/FlightOracle.sol",
  "compiler": {
    "name": "solc",
    "version": "0.8.9+commit.e5eed63a.Emscripten.clang"
  },
  "schemaVersion": "3.4.3",
  "updatedAt": "2021-12-05T16:08:22.399Z",
  "networkType": "ethereum",
  "devdoc": {
    "details": "Remember to set the url, oracleAddress and jobId",
    "kind": "dev",
    "methods": {
      "fulfill(bytes32,uint256)": {
        "details": "The recordChainlinkFulfillment protects this function from being called      by anyone other than the oracle address that the request was sent to",
        "params": {
          "_data": "The answer provided by the oracle",
          "_requestId": "The ID that was generated for the request"
        }
      },
      "newOracleRequest(uint256,string,string,int256)": {
        "details": "This function ignores the stored Oracle contract address and      will instead send the request to the address specified",
        "params": {
          "_path": "The dot-delimited path to parse of the response",
          "_payment": "Payment to the oracle",
          "_times": "The number to multiply the result by",
          "_url": "The URL to fetch data from"
        }
      }
    },
    "title": "Flight Oracle",
    "version": 1
  },
  "userdoc": {
    "kind": "user",
    "methods": {
      "fulfill(bytes32,uint256)": {
        "notice": "The fulfill method from requests created by this contract"
      },
      "newOracleRequest(uint256,string,string,int256)": {
        "notice": "Creates a request to the specified Oracle contract address"
      },
      "setJobId(bytes32)": {
        "notice": "Set a new job id"
      },
      "setOracleAddress(address)": {
        "notice": "Set the oracle address"
      },
      "setPolicyFlow(address)": {
        "notice": "Change the policy flow contract address"
      }
    },
    "notice": "This is the flight oracle contract.         Called by policyFlow contract and send the request to chainlink node.         After receiving the result, call the policyFlow contract to do the settlement.",
    "version": 1
  }
}