{
  "contractName": "GetRandomness",
  "abi": [
    {
      "inputs": [
        {
          "internalType": "address",
          "name": "_VRFConsumer",
          "type": "address"
        },
        {
          "internalType": "address",
          "name": "_LINKToken",
          "type": "address"
        },
        {
          "internalType": "bytes32",
          "name": "_keyHash",
          "type": "bytes32"
        }
      ],
      "stateMutability": "nonpayable",
      "type": "constructor"
    },
    {
      "anonymous": false,
      "inputs": [
        {
          "indexed": false,
          "internalType": "bytes32",
          "name": "",
          "type": "bytes32"
        },
        {
          "indexed": false,
          "internalType": "uint256",
          "name": "",
          "type": "uint256"
        }
      ],
      "name": "ReceiveRandomness",
      "type": "event"
    },
    {
      "anonymous": false,
      "inputs": [
        {
          "indexed": false,
          "internalType": "bytes32",
          "name": "",
          "type": "bytes32"
        }
      ],
      "name": "SendRequest",
      "type": "event"
    },
    {
      "inputs": [],
      "name": "LINKToken",
      "outputs": [
        {
          "internalType": "address",
          "name": "",
          "type": "address"
        }
      ],
      "stateMutability": "view",
      "type": "function"
    },
    {
      "inputs": [],
      "name": "VRFCoordinator",
      "outputs": [
        {
          "internalType": "address",
          "name": "",
          "type": "address"
        }
      ],
      "stateMutability": "view",
      "type": "function"
    },
    {
      "inputs": [],
      "name": "owner",
      "outputs": [
        {
          "internalType": "address",
          "name": "",
          "type": "address"
        }
      ],
      "stateMutability": "view",
      "type": "function"
    },
    {
      "inputs": [],
      "name": "randomResult",
      "outputs": [
        {
          "internalType": "uint256",
          "name": "",
          "type": "uint256"
        }
      ],
      "stateMutability": "view",
      "type": "function"
    },
    {
      "inputs": [
        {
          "internalType": "bytes32",
          "name": "requestId",
          "type": "bytes32"
        },
        {
          "internalType": "uint256",
          "name": "randomness",
          "type": "uint256"
        }
      ],
      "name": "rawFulfillRandomness",
      "outputs": [],
      "stateMutability": "nonpayable",
      "type": "function"
    },
    {
      "inputs": [],
      "name": "getRandomNumber",
      "outputs": [
        {
          "internalType": "bytes32",
          "name": "",
          "type": "bytes32"
        }
      ],
      "stateMutability": "nonpayable",
      "type": "function"
    }
  ],
  "bytecode": "0x60c06040523480156200001157600080fd5b5060405162000d9738038062000d9783398181016040528101906200003791906200022a565b82828173ffffffffffffffffffffffffffffffffffffffff1660a08173ffffffffffffffffffffffffffffffffffffffff16815250508073ffffffffffffffffffffffffffffffffffffffff1660808173ffffffffffffffffffffffffffffffffffffffff1681525050505033600160006101000a81548173ffffffffffffffffffffffffffffffffffffffff021916908373ffffffffffffffffffffffffffffffffffffffff16021790555081600260006101000a81548173ffffffffffffffffffffffffffffffffffffffff021916908373ffffffffffffffffffffffffffffffffffffffff16021790555082600360006101000a81548173ffffffffffffffffffffffffffffffffffffffff021916908373ffffffffffffffffffffffffffffffffffffffff16021790555067016345785d8a00006004819055508060058190555050505062000286565b600080fd5b600073ffffffffffffffffffffffffffffffffffffffff82169050919050565b6000620001b7826200018a565b9050919050565b620001c981620001aa565b8114620001d557600080fd5b50565b600081519050620001e981620001be565b92915050565b6000819050919050565b6200020481620001ef565b81146200021057600080fd5b50565b6000815190506200022481620001f9565b92915050565b60008060006060848603121562000246576200024562000185565b5b60006200025686828701620001d8565b93505060206200026986828701620001d8565b92505060406200027c8682870162000213565b9150509250925092565b60805160a051610add620002ba6000396000818161016d01526103f001526000818161020e01526103b40152610add6000f3fe608060405234801561001057600080fd5b50600436106100625760003560e01c806333b608631461006757806342619f66146100855780638da5cb5b146100a357806394985ddd146100c1578063dbdff2c1146100dd578063f4e9775d146100fb575b600080fd5b61006f610119565b60405161007c91906105bf565b60405180910390f35b61008d61013f565b60405161009a91906105f3565b60405180910390f35b6100ab610145565b6040516100b891906105bf565b60405180910390f35b6100db60048036038101906100d69190610675565b61016b565b005b6100e5610207565b6040516100f291906106c4565b60405180910390f35b610103610346565b60405161011091906105bf565b60405180910390f35b600360009054906101000a900473ffffffffffffffffffffffffffffffffffffffff1681565b60065481565b600160009054906101000a900473ffffffffffffffffffffffffffffffffffffffff1681565b7f000000000000000000000000000000000000000000000000000000000000000073ffffffffffffffffffffffffffffffffffffffff163373ffffffffffffffffffffffffffffffffffffffff16146101f9576040517f08c379a00000000000000000000000000000000000000000000000000000000081526004016101f09061073c565b60405180910390fd5b610203828261036c565b5050565b60006004547f000000000000000000000000000000000000000000000000000000000000000073ffffffffffffffffffffffffffffffffffffffff166370a08231306040518263ffffffff1660e01b815260040161026591906105bf565b60206040518083038186803b15801561027d57600080fd5b505afa158015610291573d6000803e3d6000fd5b505050506040513d601f19601f820116820180604052508101906102b59190610771565b10156102f6576040517f08c379a00000000000000000000000000000000000000000000000000000000081526004016102ed906107ea565b60405180910390fd5b60006103066005546004546103b0565b90507fd11ddc602b8d2d1f29cf2e7b2756c11c080240f5f9a60a0eb5216264a00971d48160405161033791906106c4565b60405180910390a18091505090565b600260009054906101000a900473ffffffffffffffffffffffffffffffffffffffff1681565b806006819055507f55ebf4d7500fc6be00b2164228c69aa12dc4c749361b78901eb3a1987c99341582826040516103a492919061080a565b60405180910390a15050565b60007f000000000000000000000000000000000000000000000000000000000000000073ffffffffffffffffffffffffffffffffffffffff16634000aea07f00000000000000000000000000000000000000000000000000000000000000008486600060405160200161042492919061080a565b6040516020818303038152906040526040518463ffffffff1660e01b8152600401610451939291906108cc565b602060405180830381600087803b15801561046b57600080fd5b505af115801561047f573d6000803e3d6000fd5b505050506040513d601f19601f820116820180604052508101906104a39190610942565b5060006104c5846000306000808981526020019081526020016000205461050f565b90506001600080868152602001908152602001600020546104e6919061099e565b60008086815260200190815260200160002081905550610506848261054b565b91505092915050565b60008484848460405160200161052894939291906109f4565b6040516020818303038152906040528051906020012060001c9050949350505050565b60008282604051602001610560929190610a7b565b60405160208183030381529060405280519060200120905092915050565b600073ffffffffffffffffffffffffffffffffffffffff82169050919050565b60006105a98261057e565b9050919050565b6105b98161059e565b82525050565b60006020820190506105d460008301846105b0565b92915050565b6000819050919050565b6105ed816105da565b82525050565b600060208201905061060860008301846105e4565b92915050565b600080fd5b6000819050919050565b61062681610613565b811461063157600080fd5b50565b6000813590506106438161061d565b92915050565b610652816105da565b811461065d57600080fd5b50565b60008135905061066f81610649565b92915050565b6000806040838503121561068c5761068b61060e565b5b600061069a85828601610634565b92505060206106ab85828601610660565b9150509250929050565b6106be81610613565b82525050565b60006020820190506106d960008301846106b5565b92915050565b600082825260208201905092915050565b7f4f6e6c7920565246436f6f7264696e61746f722063616e2066756c66696c6c00600082015250565b6000610726601f836106df565b9150610731826106f0565b602082019050919050565b6000602082019050818103600083015261075581610719565b9050919050565b60008151905061076b81610649565b92915050565b6000602082840312156107875761078661060e565b5b60006107958482850161075c565b91505092915050565b7f6e6f7420656e6f756768204c494e4b0000000000000000000000000000000000600082015250565b60006107d4600f836106df565b91506107df8261079e565b602082019050919050565b60006020820190508181036000830152610803816107c7565b9050919050565b600060408201905061081f60008301856106b5565b61082c60208301846105e4565b9392505050565b600081519050919050565b600082825260208201905092915050565b60005b8381101561086d578082015181840152602081019050610852565b8381111561087c576000848401525b50505050565b6000601f19601f8301169050919050565b600061089e82610833565b6108a8818561083e565b93506108b881856020860161084f565b6108c181610882565b840191505092915050565b60006060820190506108e160008301866105b0565b6108ee60208301856105e4565b81810360408301526109008184610893565b9050949350505050565b60008115159050919050565b61091f8161090a565b811461092a57600080fd5b50565b60008151905061093c81610916565b92915050565b6000602082840312156109585761095761060e565b5b60006109668482850161092d565b91505092915050565b7f4e487b7100000000000000000000000000000000000000000000000000000000600052601160045260246000fd5b60006109a9826105da565b91506109b4836105da565b9250827fffffffffffffffffffffffffffffffffffffffffffffffffffffffffffffffff038211156109e9576109e861096f565b5b828201905092915050565b6000608082019050610a0960008301876106b5565b610a1660208301866105e4565b610a2360408301856105b0565b610a3060608301846105e4565b95945050505050565b6000819050919050565b610a54610a4f82610613565b610a39565b82525050565b6000819050919050565b610a75610a70826105da565b610a5a565b82525050565b6000610a878285610a43565b602082019150610a978284610a64565b602082019150819050939250505056fea264697066735822122075dba92b17ffd5246b3a4b61fb3875c4ee0c5fd2872e01004b3297776eb9170764736f6c63430008090033",
  "immutableReferences": {
    "873": [
      {
        "length": 32,
        "start": 526
      },
      {
        "length": 32,
        "start": 948
      }
    ],
    "875": [
      {
        "length": 32,
        "start": 365
      },
      {
        "length": 32,
        "start": 1008
      }
    ]
  },
  "source": "// SPDX-License-Identifier: MIT\npragma solidity ^0.8.0;\n\nimport \"@chainlink/contracts/src/v0.8/VRFConsumerBase.sol\"; // test version. use random number for test\n\ncontract GetRandomness is VRFConsumerBase {\n    // The owner of this address\n    address public owner;\n\n    // LINK Token address on rinkeby: 0x01BE23585060835E02B77ef475b0Cc51aA1e0709\n    address public LINKToken;\n\n    // VRF Consumer on rinkeby: 0xb3dCcb4Cf7a26f6cf6B120Cf5A73875B7BBc655B\n    address public VRFCoordinator;\n\n    // Used for chainlink request\n    uint256 internal fee;\n    bytes32 internal keyHash;\n\n    // The random number result\n    uint256 public randomResult;\n\n    event ReceiveRandomness(bytes32, uint256);\n    event SendRequest(bytes32);\n\n    constructor(\n        address _VRFConsumer,\n        address _LINKToken,\n        bytes32 _keyHash\n    ) VRFConsumerBase(_VRFConsumer, _LINKToken) {\n        owner = msg.sender;\n        LINKToken = _LINKToken;\n        VRFCoordinator = _VRFConsumer;\n        fee = 0.1 * 10**18; // 0.1 LINK per request\n        keyHash = _keyHash;\n    }\n\n    function getRandomNumber() public returns (bytes32) {\n        require(LINK.balanceOf(address(this)) >= fee, \"not enough LINK\");\n        bytes32 requestId = requestRandomness(keyHash, fee);\n        emit SendRequest(requestId);\n        return requestId;\n    }\n\n    function fulfillRandomness(bytes32 _requestId, uint256 _randomness)\n        internal\n        override\n    {\n        randomResult = _randomness;\n        emit ReceiveRandomness(_requestId, _randomness);\n    }\n}\n",
  "sourcePath": "/Volumes/Store/src/Degis-Contracts-1/contracts/GetRandomness.sol",
  "compiler": {
    "name": "solc",
    "version": "0.8.9+commit.e5eed63a.Emscripten.clang"
  },
  "schemaVersion": "3.4.3",
  "updatedAt": "2021-12-02T14:18:28.771Z",
  "devdoc": {
    "kind": "dev",
    "methods": {},
    "version": 1
  },
  "userdoc": {
    "kind": "user",
    "methods": {},
    "version": 1
  }
}