{
  "contractName": "InsurancePoolStore",
  "abi": [
    {
      "anonymous": false,
      "inputs": [
        {
          "indexed": true,
          "internalType": "address",
          "name": "userAddress",
          "type": "address"
        },
        {
          "indexed": false,
          "internalType": "uint256",
          "name": "premium",
          "type": "uint256"
        },
        {
          "indexed": false,
          "internalType": "uint256",
          "name": "payout",
          "type": "uint256"
        }
      ],
      "name": "BuyNewPolicy",
      "type": "event"
    },
    {
      "anonymous": false,
      "inputs": [
        {
          "indexed": true,
          "internalType": "address",
          "name": "onwerAddress",
          "type": "address"
        },
        {
          "indexed": false,
          "internalType": "uint256",
          "name": "factor",
          "type": "uint256"
        }
      ],
      "name": "ChangeCollateralFactor",
      "type": "event"
    },
    {
      "anonymous": false,
      "inputs": [
        {
          "indexed": false,
          "internalType": "uint256",
          "name": "_toLP",
          "type": "uint256"
        },
        {
          "indexed": false,
          "internalType": "uint256",
          "name": "_toEmergency",
          "type": "uint256"
        },
        {
          "indexed": false,
          "internalType": "uint256",
          "name": "_toLottery",
          "type": "uint256"
        }
      ],
      "name": "ChangeRewardDistribution",
      "type": "event"
    },
    {
      "anonymous": false,
      "inputs": [
        {
          "indexed": false,
          "internalType": "address",
          "name": "oldOwner",
          "type": "address"
        },
        {
          "indexed": false,
          "internalType": "address",
          "name": "newOwner",
          "type": "address"
        }
      ],
      "name": "OwnerChanged",
      "type": "event"
    },
    {
      "anonymous": false,
      "inputs": [
        {
          "indexed": false,
          "internalType": "uint256",
          "name": "_premiumToEmergency",
          "type": "uint256"
        },
        {
          "indexed": false,
          "internalType": "uint256",
          "name": "_premiumToLottery",
          "type": "uint256"
        }
      ],
      "name": "PremiumDistributed",
      "type": "event"
    },
    {
      "anonymous": false,
      "inputs": [
        {
          "indexed": false,
          "internalType": "uint256",
          "name": "_blocknumber",
          "type": "uint256"
        },
        {
          "indexed": false,
          "internalType": "uint256",
          "name": "_purchaseIncentiveAmount",
          "type": "uint256"
        }
      ],
      "name": "PurchaseIncentiveChanged",
      "type": "event"
    },
    {
      "anonymous": false,
      "inputs": [
        {
          "indexed": false,
          "internalType": "address",
          "name": "_userAddress",
          "type": "address"
        },
        {
          "indexed": false,
          "internalType": "uint256",
          "name": "_amount",
          "type": "uint256"
        }
      ],
      "name": "SendPurchaseIncentive",
      "type": "event"
    },
    {
      "anonymous": false,
      "inputs": [
        {
          "indexed": false,
          "internalType": "uint256",
          "name": "_newFrozenTime",
          "type": "uint256"
        }
      ],
      "name": "SetFrozenTime",
      "type": "event"
    },
    {
      "anonymous": false,
      "inputs": [
        {
          "indexed": false,
          "internalType": "address",
          "name": "_policyFlowAddress",
          "type": "address"
        }
      ],
      "name": "SetPolicyFlow",
      "type": "event"
    },
    {
      "anonymous": false,
      "inputs": [
        {
          "indexed": true,
          "internalType": "address",
          "name": "userAddress",
          "type": "address"
        },
        {
          "indexed": false,
          "internalType": "uint256",
          "name": "amount",
          "type": "uint256"
        }
      ],
      "name": "Stake",
      "type": "event"
    },
    {
      "anonymous": false,
      "inputs": [
        {
          "indexed": true,
          "internalType": "address",
          "name": "userAddress",
          "type": "address"
        },
        {
          "indexed": false,
          "internalType": "uint256",
          "name": "amount",
          "type": "uint256"
        }
      ],
      "name": "Unstake",
      "type": "event"
    },
    {
      "inputs": [],
      "name": "LPValue",
      "outputs": [
        {
          "internalType": "uint256",
          "name": "",
          "type": "uint256"
        }
      ],
      "stateMutability": "view",
      "type": "function"
    },
    {
      "inputs": [],
      "name": "activePremiums",
      "outputs": [
        {
          "internalType": "uint256",
          "name": "",
          "type": "uint256"
        }
      ],
      "stateMutability": "view",
      "type": "function"
    },
    {
      "inputs": [],
      "name": "availableCapacity",
      "outputs": [
        {
          "internalType": "uint256",
          "name": "",
          "type": "uint256"
        }
      ],
      "stateMutability": "view",
      "type": "function"
    },
    {
      "inputs": [],
      "name": "collateralFactor",
      "outputs": [
        {
          "internalType": "uint256",
          "name": "",
          "type": "uint256"
        }
      ],
      "stateMutability": "view",
      "type": "function"
    },
    {
      "inputs": [],
      "name": "lockedBalance",
      "outputs": [
        {
          "internalType": "uint256",
          "name": "",
          "type": "uint256"
        }
      ],
      "stateMutability": "view",
      "type": "function"
    },
    {
      "inputs": [],
      "name": "lockedRatio",
      "outputs": [
        {
          "internalType": "uint256",
          "name": "",
          "type": "uint256"
        }
      ],
      "stateMutability": "view",
      "type": "function"
    },
    {
      "inputs": [],
      "name": "policyFlow",
      "outputs": [
        {
          "internalType": "address",
          "name": "",
          "type": "address"
        }
      ],
      "stateMutability": "view",
      "type": "function"
    },
    {
      "inputs": [],
      "name": "purchaseIncentiveAmount",
      "outputs": [
        {
          "internalType": "uint256",
          "name": "",
          "type": "uint256"
        }
      ],
      "stateMutability": "view",
      "type": "function"
    },
    {
      "inputs": [],
      "name": "realStakingBalance",
      "outputs": [
        {
          "internalType": "uint256",
          "name": "",
          "type": "uint256"
        }
      ],
      "stateMutability": "view",
      "type": "function"
    },
    {
      "inputs": [
        {
          "internalType": "uint256",
          "name": "",
          "type": "uint256"
        }
      ],
      "name": "rewardDistribution",
      "outputs": [
        {
          "internalType": "uint256",
          "name": "",
          "type": "uint256"
        }
      ],
      "stateMutability": "view",
      "type": "function"
    },
    {
      "inputs": [],
      "name": "totalStakingBalance",
      "outputs": [
        {
          "internalType": "uint256",
          "name": "",
          "type": "uint256"
        }
      ],
      "stateMutability": "view",
      "type": "function"
    }
  ],
  "bytecode": "0x608060405262093a8060025534801561001757600080fd5b506103a3806100276000396000f3fe608060405234801561001057600080fd5b50600436106100a95760003560e01c8063cba9aa4f11610071578063cba9aa4f14610156578063d8a9bdb714610174578063de2fbaba14610192578063df011c41146101b0578063e766c835146101ce578063ea1a7679146101ec576100a9565b806343d387f8146100ae5780637b80889b146100cc5780637d36f766146100ea578063a21bc3fb1461011a578063b496991a14610138575b600080fd5b6100b661020a565b6040516100c391906102c0565b60405180910390f35b6100d461022e565b6040516100e191906102f4565b60405180910390f35b61010460048036038101906100ff9190610340565b610234565b60405161011191906102f4565b60405180910390f35b61012261024f565b60405161012f91906102f4565b60405180910390f35b610140610255565b60405161014d91906102f4565b60405180910390f35b61015e61025b565b60405161016b91906102f4565b60405180910390f35b61017c610261565b60405161018991906102f4565b60405180910390f35b61019a610267565b6040516101a791906102f4565b60405180910390f35b6101b861026d565b6040516101c591906102f4565b60405180910390f35b6101d6610273565b6040516101e391906102f4565b60405180910390f35b6101f4610279565b60405161020191906102f4565b60405180910390f35b60008054906101000a900473ffffffffffffffffffffffffffffffffffffffff1681565b60095481565b600e816003811061024457600080fd5b016000915090505481565b600c5481565b60015481565b60065481565b60085481565b600a5481565b600b5481565b60075481565b600d5481565b600073ffffffffffffffffffffffffffffffffffffffff82169050919050565b60006102aa8261027f565b9050919050565b6102ba8161029f565b82525050565b60006020820190506102d560008301846102b1565b92915050565b6000819050919050565b6102ee816102db565b82525050565b600060208201905061030960008301846102e5565b92915050565b600080fd5b61031d816102db565b811461032857600080fd5b50565b60008135905061033a81610314565b92915050565b6000602082840312156103565761035561030f565b5b60006103648482850161032b565b9150509291505056fea26469706673582212203f469a4409c5edb49459fad2714ec0715e8fa1c9395a7dbd9d167ffba1bc83ab64736f6c63430008090033",
  "immutableReferences": {},
  "source": "// SPDX-License-Identifier: MIT\npragma solidity 0.8.9;\n\ncontract InsurancePoolStore {\n    address public policyFlow;\n\n    uint256 public purchaseIncentiveAmount;\n\n    uint256 frozenTime = 7 days; // 7 days\n\n    struct UserInfo {\n        uint256 depositTime;\n        uint256 pendingBalance; // the amount in the unstake queue\n    }\n    mapping(address => UserInfo) userInfo;\n\n    // Basic information about the pool\n    // struct PoolInfo {\n    //     uint256 totalStakingBalance;\n    //     uint256 realStakingBalance;\n    //     uint256 lockedBalance;\n    //     uint256 availableCapacity;\n    //     uint256 activePremiums;\n    //     uint256 lockedRatio;\n    //     uint256 collateralFactor;\n    //     uint256[3] rewardDistribution;\n    // }\n    // PoolInfo public poolInfo;\n\n    //  of every unstake request in the queue\n    struct UnstakeRequest {\n        uint256 pendingAmount;\n        uint256 fulfilledAmount;\n        bool isPaidOut; // if this request has been fully paid out // maybe redundant\n    }\n\n    // a user's unstake requests\n    mapping(address => UnstakeRequest[]) internal unstakeRequests;\n\n    // list of all unstake users\n    address[] internal unstakeQueue;\n\n    // 1 LP = LPValue(USD)\n    uint256 public LPValue;\n\n    // Total staking balance of the pool\n    uint256 public totalStakingBalance;\n\n    // Real staking balance = current staking balance - sum(unstake request in the queue)\n    uint256 public realStakingBalance;\n\n    // Locked balance is for potiential payoff\n    uint256 public lockedBalance;\n\n    // locked relation = locked balance / totalStakingBalance\n    uint256 public lockedRatio; //  1e18 = 1  1e17 = 0.1  1e19 = 10\n    uint256 public collateralFactor; //  1e18 = 1  1e17 = 0.1  1e19 = 10\n\n    // Available capacity for taking new\n    uint256 public availableCapacity;\n\n    // Premiums have been paid but the policies haven't expired\n    uint256 public activePremiums;\n\n    // [0]: LP, [1]: Lottery, [2]: Emergency\n    uint256[3] public rewardDistribution;\n\n    event Stake(address indexed userAddress, uint256 amount);\n    event Unstake(address indexed userAddress, uint256 amount);\n    event ChangeCollateralFactor(address indexed onwerAddress, uint256 factor);\n    event SetPolicyFlow(address _policyFlowAddress);\n    event BuyNewPolicy(\n        address indexed userAddress,\n        uint256 premium,\n        uint256 payout\n    );\n    event OwnerChanged(address oldOwner, address newOwner);\n    event ChangeRewardDistribution(\n        uint256 _toLP,\n        uint256 _toEmergency,\n        uint256 _toLottery\n    );\n    event PurchaseIncentiveChanged(\n        uint256 _blocknumber,\n        uint256 _purchaseIncentiveAmount\n    );\n\n    event SendPurchaseIncentive(address _userAddress, uint256 _amount);\n    event SetFrozenTime(uint256 _newFrozenTime);\n    event PremiumDistributed(\n        uint256 _premiumToEmergency,\n        uint256 _premiumToLottery\n    );\n}\n",
  "sourcePath": "/Volumes/Store/src/Degis-Contracts-1/contracts/InsurancePoolStore.sol",
  "compiler": {
    "name": "solc",
    "version": "0.8.9+commit.e5eed63a.Emscripten.clang"
  },
  "schemaVersion": "3.4.3",
  "updatedAt": "2021-11-24T15:10:46.585Z",
  "devdoc": {
    "kind": "dev",
    "methods": {},
    "version": 1
  },
  "userdoc": {
    "kind": "user",
    "methods": {},
    "version": 1
  }
}