{
  "contractName": "InsurancePool",
  "abi": [
    {
      "inputs": [
        {
          "internalType": "address",
          "name": "_degisToken",
          "type": "address"
        },
        {
          "internalType": "address",
          "name": "_emergencyPool",
          "type": "address"
        },
        {
          "internalType": "address",
          "name": "_degisLottery",
          "type": "address"
        },
        {
          "internalType": "address",
          "name": "_usdtAddress",
          "type": "address"
        }
      ],
      "stateMutability": "nonpayable",
      "type": "constructor"
    },
    {
      "inputs": [
        {
          "internalType": "uint256",
          "name": "prod1",
          "type": "uint256"
        }
      ],
      "name": "PRBMath__MulDivFixedPointOverflow",
      "type": "error"
    },
    {
      "inputs": [
        {
          "internalType": "uint256",
          "name": "prod1",
          "type": "uint256"
        },
        {
          "internalType": "uint256",
          "name": "denominator",
          "type": "uint256"
        }
      ],
      "name": "PRBMath__MulDivOverflow",
      "type": "error"
    },
    {
      "anonymous": false,
      "inputs": [
        {
          "indexed": true,
          "internalType": "address",
          "name": "owner",
          "type": "address"
        },
        {
          "indexed": true,
          "internalType": "address",
          "name": "spender",
          "type": "address"
        },
        {
          "indexed": false,
          "internalType": "uint256",
          "name": "value",
          "type": "uint256"
        }
      ],
      "name": "Approval",
      "type": "event"
    },
    {
      "anonymous": false,
      "inputs": [
        {
          "indexed": true,
          "internalType": "address",
          "name": "userAddress",
          "type": "address"
        },
        {
          "indexed": false,
          "internalType": "uint256",
          "name": "premium",
          "type": "uint256"
        },
        {
          "indexed": false,
          "internalType": "uint256",
          "name": "payout",
          "type": "uint256"
        }
      ],
      "name": "BuyNewPolicy",
      "type": "event"
    },
    {
      "anonymous": false,
      "inputs": [
        {
          "indexed": true,
          "internalType": "address",
          "name": "onwerAddress",
          "type": "address"
        },
        {
          "indexed": false,
          "internalType": "uint256",
          "name": "factor",
          "type": "uint256"
        }
      ],
      "name": "ChangeCollateralFactor",
      "type": "event"
    },
    {
      "anonymous": false,
      "inputs": [
        {
          "indexed": false,
          "internalType": "uint256",
          "name": "_toLP",
          "type": "uint256"
        },
        {
          "indexed": false,
          "internalType": "uint256",
          "name": "_toEmergency",
          "type": "uint256"
        },
        {
          "indexed": false,
          "internalType": "uint256",
          "name": "_toLottery",
          "type": "uint256"
        }
      ],
      "name": "ChangeRewardDistribution",
      "type": "event"
    },
    {
      "anonymous": false,
      "inputs": [
        {
          "indexed": false,
          "internalType": "address",
          "name": "oldOwner",
          "type": "address"
        },
        {
          "indexed": false,
          "internalType": "address",
          "name": "newOwner",
          "type": "address"
        }
      ],
      "name": "OwnerChanged",
      "type": "event"
    },
    {
      "anonymous": false,
      "inputs": [
        {
          "indexed": false,
          "internalType": "uint256",
          "name": "_premiumToEmergency",
          "type": "uint256"
        },
        {
          "indexed": false,
          "internalType": "uint256",
          "name": "_premiumToLottery",
          "type": "uint256"
        }
      ],
      "name": "PremiumDistributed",
      "type": "event"
    },
    {
      "anonymous": false,
      "inputs": [
        {
          "indexed": false,
          "internalType": "uint256",
          "name": "_blocktimestamp",
          "type": "uint256"
        },
        {
          "indexed": false,
          "internalType": "uint256",
          "name": "_purchaseIncentiveAmount",
          "type": "uint256"
        }
      ],
      "name": "PurchaseIncentiveChanged",
      "type": "event"
    },
    {
      "anonymous": false,
      "inputs": [
        {
          "indexed": false,
          "internalType": "address",
          "name": "_userAddress",
          "type": "address"
        },
        {
          "indexed": false,
          "internalType": "uint256",
          "name": "_amount",
          "type": "uint256"
        }
      ],
      "name": "SendPurchaseIncentive",
      "type": "event"
    },
    {
      "anonymous": false,
      "inputs": [
        {
          "indexed": false,
          "internalType": "uint256",
          "name": "_newFrozenTime",
          "type": "uint256"
        }
      ],
      "name": "SetFrozenTime",
      "type": "event"
    },
    {
      "anonymous": false,
      "inputs": [
        {
          "indexed": false,
          "internalType": "address",
          "name": "_policyFlowAddress",
          "type": "address"
        }
      ],
      "name": "SetPolicyFlow",
      "type": "event"
    },
    {
      "anonymous": false,
      "inputs": [
        {
          "indexed": true,
          "internalType": "address",
          "name": "userAddress",
          "type": "address"
        },
        {
          "indexed": false,
          "internalType": "uint256",
          "name": "amount",
          "type": "uint256"
        }
      ],
      "name": "Stake",
      "type": "event"
    },
    {
      "anonymous": false,
      "inputs": [
        {
          "indexed": true,
          "internalType": "address",
          "name": "from",
          "type": "address"
        },
        {
          "indexed": true,
          "internalType": "address",
          "name": "to",
          "type": "address"
        },
        {
          "indexed": false,
          "internalType": "uint256",
          "name": "value",
          "type": "uint256"
        }
      ],
      "name": "Transfer",
      "type": "event"
    },
    {
      "anonymous": false,
      "inputs": [
        {
          "indexed": true,
          "internalType": "address",
          "name": "userAddress",
          "type": "address"
        },
        {
          "indexed": false,
          "internalType": "uint256",
          "name": "amount",
          "type": "uint256"
        }
      ],
      "name": "Unstake",
      "type": "event"
    },
    {
      "inputs": [],
      "name": "DEGIS",
      "outputs": [
        {
          "internalType": "contract IDegisToken",
          "name": "",
          "type": "address"
        }
      ],
      "stateMutability": "view",
      "type": "function"
    },
    {
      "inputs": [
        {
          "internalType": "address",
          "name": "_account",
          "type": "address"
        }
      ],
      "name": "LPBalanceOf",
      "outputs": [
        {
          "internalType": "uint256",
          "name": "",
          "type": "uint256"
        }
      ],
      "stateMutability": "view",
      "type": "function"
    },
    {
      "inputs": [],
      "name": "LPValue",
      "outputs": [
        {
          "internalType": "uint256",
          "name": "",
          "type": "uint256"
        }
      ],
      "stateMutability": "view",
      "type": "function"
    },
    {
      "inputs": [],
      "name": "USDT",
      "outputs": [
        {
          "internalType": "contract IERC20",
          "name": "",
          "type": "address"
        }
      ],
      "stateMutability": "view",
      "type": "function"
    },
    {
      "inputs": [],
      "name": "activePremiums",
      "outputs": [
        {
          "internalType": "uint256",
          "name": "",
          "type": "uint256"
        }
      ],
      "stateMutability": "view",
      "type": "function"
    },
    {
      "inputs": [
        {
          "internalType": "address",
          "name": "owner",
          "type": "address"
        },
        {
          "internalType": "address",
          "name": "spender",
          "type": "address"
        }
      ],
      "name": "allowance",
      "outputs": [
        {
          "internalType": "uint256",
          "name": "",
          "type": "uint256"
        }
      ],
      "stateMutability": "view",
      "type": "function"
    },
    {
      "inputs": [
        {
          "internalType": "address",
          "name": "spender",
          "type": "address"
        },
        {
          "internalType": "uint256",
          "name": "amount",
          "type": "uint256"
        }
      ],
      "name": "approve",
      "outputs": [
        {
          "internalType": "bool",
          "name": "",
          "type": "bool"
        }
      ],
      "stateMutability": "nonpayable",
      "type": "function"
    },
    {
      "inputs": [],
      "name": "availableCapacity",
      "outputs": [
        {
          "internalType": "uint256",
          "name": "",
          "type": "uint256"
        }
      ],
      "stateMutability": "view",
      "type": "function"
    },
    {
      "inputs": [
        {
          "internalType": "address",
          "name": "account",
          "type": "address"
        }
      ],
      "name": "balanceOf",
      "outputs": [
        {
          "internalType": "uint256",
          "name": "",
          "type": "uint256"
        }
      ],
      "stateMutability": "view",
      "type": "function"
    },
    {
      "inputs": [],
      "name": "collateralFactor",
      "outputs": [
        {
          "internalType": "uint256",
          "name": "",
          "type": "uint256"
        }
      ],
      "stateMutability": "view",
      "type": "function"
    },
    {
      "inputs": [],
      "name": "decimals",
      "outputs": [
        {
          "internalType": "uint8",
          "name": "",
          "type": "uint8"
        }
      ],
      "stateMutability": "view",
      "type": "function"
    },
    {
      "inputs": [
        {
          "internalType": "address",
          "name": "spender",
          "type": "address"
        },
        {
          "internalType": "uint256",
          "name": "subtractedValue",
          "type": "uint256"
        }
      ],
      "name": "decreaseAllowance",
      "outputs": [
        {
          "internalType": "bool",
          "name": "",
          "type": "bool"
        }
      ],
      "stateMutability": "nonpayable",
      "type": "function"
    },
    {
      "inputs": [],
      "name": "degisLottery",
      "outputs": [
        {
          "internalType": "contract IDegisLottery",
          "name": "",
          "type": "address"
        }
      ],
      "stateMutability": "view",
      "type": "function"
    },
    {
      "inputs": [],
      "name": "emergencyPool",
      "outputs": [
        {
          "internalType": "address",
          "name": "",
          "type": "address"
        }
      ],
      "stateMutability": "view",
      "type": "function"
    },
    {
      "inputs": [
        {
          "internalType": "address",
          "name": "spender",
          "type": "address"
        },
        {
          "internalType": "uint256",
          "name": "addedValue",
          "type": "uint256"
        }
      ],
      "name": "increaseAllowance",
      "outputs": [
        {
          "internalType": "bool",
          "name": "",
          "type": "bool"
        }
      ],
      "stateMutability": "nonpayable",
      "type": "function"
    },
    {
      "inputs": [],
      "name": "lockedBalance",
      "outputs": [
        {
          "internalType": "uint256",
          "name": "",
          "type": "uint256"
        }
      ],
      "stateMutability": "view",
      "type": "function"
    },
    {
      "inputs": [],
      "name": "lockedRatio",
      "outputs": [
        {
          "internalType": "uint256",
          "name": "",
          "type": "uint256"
        }
      ],
      "stateMutability": "view",
      "type": "function"
    },
    {
      "inputs": [],
      "name": "name",
      "outputs": [
        {
          "internalType": "string",
          "name": "",
          "type": "string"
        }
      ],
      "stateMutability": "view",
      "type": "function"
    },
    {
      "inputs": [],
      "name": "owner",
      "outputs": [
        {
          "internalType": "address",
          "name": "",
          "type": "address"
        }
      ],
      "stateMutability": "view",
      "type": "function"
    },
    {
      "inputs": [],
      "name": "policyFlow",
      "outputs": [
        {
          "internalType": "address",
          "name": "",
          "type": "address"
        }
      ],
      "stateMutability": "view",
      "type": "function"
    },
    {
      "inputs": [],
      "name": "purchaseIncentiveAmount",
      "outputs": [
        {
          "internalType": "uint256",
          "name": "",
          "type": "uint256"
        }
      ],
      "stateMutability": "view",
      "type": "function"
    },
    {
      "inputs": [],
      "name": "realStakingBalance",
      "outputs": [
        {
          "internalType": "uint256",
          "name": "",
          "type": "uint256"
        }
      ],
      "stateMutability": "view",
      "type": "function"
    },
    {
      "inputs": [
        {
          "internalType": "uint256",
          "name": "",
          "type": "uint256"
        }
      ],
      "name": "rewardDistribution",
      "outputs": [
        {
          "internalType": "uint256",
          "name": "",
          "type": "uint256"
        }
      ],
      "stateMutability": "view",
      "type": "function"
    },
    {
      "inputs": [],
      "name": "symbol",
      "outputs": [
        {
          "internalType": "string",
          "name": "",
          "type": "string"
        }
      ],
      "stateMutability": "view",
      "type": "function"
    },
    {
      "inputs": [],
      "name": "totalStakingBalance",
      "outputs": [
        {
          "internalType": "uint256",
          "name": "",
          "type": "uint256"
        }
      ],
      "stateMutability": "view",
      "type": "function"
    },
    {
      "inputs": [],
      "name": "totalSupply",
      "outputs": [
        {
          "internalType": "uint256",
          "name": "",
          "type": "uint256"
        }
      ],
      "stateMutability": "view",
      "type": "function"
    },
    {
      "inputs": [
        {
          "internalType": "address",
          "name": "recipient",
          "type": "address"
        },
        {
          "internalType": "uint256",
          "name": "amount",
          "type": "uint256"
        }
      ],
      "name": "transfer",
      "outputs": [
        {
          "internalType": "bool",
          "name": "",
          "type": "bool"
        }
      ],
      "stateMutability": "nonpayable",
      "type": "function"
    },
    {
      "inputs": [
        {
          "internalType": "address",
          "name": "sender",
          "type": "address"
        },
        {
          "internalType": "address",
          "name": "recipient",
          "type": "address"
        },
        {
          "internalType": "uint256",
          "name": "amount",
          "type": "uint256"
        }
      ],
      "name": "transferFrom",
      "outputs": [
        {
          "internalType": "bool",
          "name": "",
          "type": "bool"
        }
      ],
      "stateMutability": "nonpayable",
      "type": "function"
    },
    {
      "inputs": [
        {
          "internalType": "address",
          "name": "_userAddress",
          "type": "address"
        }
      ],
      "name": "getUserBalance",
      "outputs": [
        {
          "internalType": "uint256",
          "name": "userBalance",
          "type": "uint256"
        }
      ],
      "stateMutability": "view",
      "type": "function"
    },
    {
      "inputs": [],
      "name": "getPoolUnlocked",
      "outputs": [
        {
          "internalType": "uint256",
          "name": "",
          "type": "uint256"
        }
      ],
      "stateMutability": "view",
      "type": "function"
    },
    {
      "inputs": [
        {
          "internalType": "address",
          "name": "_userAddress",
          "type": "address"
        }
      ],
      "name": "getUnlockedFor",
      "outputs": [
        {
          "internalType": "uint256",
          "name": "_unlockedAmount",
          "type": "uint256"
        }
      ],
      "stateMutability": "view",
      "type": "function"
    },
    {
      "inputs": [
        {
          "internalType": "address",
          "name": "_userAddress",
          "type": "address"
        }
      ],
      "name": "getLockedFor",
      "outputs": [
        {
          "internalType": "uint256",
          "name": "_locked",
          "type": "uint256"
        }
      ],
      "stateMutability": "view",
      "type": "function"
    },
    {
      "inputs": [
        {
          "internalType": "uint256",
          "name": "_payoff",
          "type": "uint256"
        }
      ],
      "name": "checkCapacity",
      "outputs": [
        {
          "internalType": "bool",
          "name": "",
          "type": "bool"
        }
      ],
      "stateMutability": "view",
      "type": "function"
    },
    {
      "inputs": [
        {
          "internalType": "uint256",
          "name": "_purchaseIncentive",
          "type": "uint256"
        }
      ],
      "name": "setPurchaseIncentive",
      "outputs": [],
      "stateMutability": "nonpayable",
      "type": "function"
    },
    {
      "inputs": [
        {
          "internalType": "uint256",
          "name": "_newFrozenTime",
          "type": "uint256"
        }
      ],
      "name": "setFrozenTime",
      "outputs": [],
      "stateMutability": "nonpayable",
      "type": "function"
    },
    {
      "inputs": [
        {
          "internalType": "address",
          "name": "_policyFlowAddress",
          "type": "address"
        }
      ],
      "name": "setPolicyFlow",
      "outputs": [],
      "stateMutability": "nonpayable",
      "type": "function"
    },
    {
      "inputs": [
        {
          "internalType": "uint256[3]",
          "name": "_newDistribution",
          "type": "uint256[3]"
        }
      ],
      "name": "setIncomeDistribution",
      "outputs": [],
      "stateMutability": "nonpayable",
      "type": "function"
    },
    {
      "inputs": [
        {
          "internalType": "address",
          "name": "_newOwner",
          "type": "address"
        }
      ],
      "name": "transferOwnership",
      "outputs": [],
      "stateMutability": "nonpayable",
      "type": "function"
    },
    {
      "inputs": [
        {
          "internalType": "uint256",
          "name": "_factor",
          "type": "uint256"
        }
      ],
      "name": "setCollateralFactor",
      "outputs": [],
      "stateMutability": "nonpayable",
      "type": "function"
    },
    {
      "inputs": [
        {
          "internalType": "address",
          "name": "_userAddress",
          "type": "address"
        },
        {
          "internalType": "uint256",
          "name": "_amount",
          "type": "uint256"
        }
      ],
      "name": "stake",
      "outputs": [],
      "stateMutability": "nonpayable",
      "type": "function"
    },
    {
      "inputs": [
        {
          "internalType": "uint256",
          "name": "_amount",
          "type": "uint256"
        }
      ],
      "name": "unstake",
      "outputs": [],
      "stateMutability": "nonpayable",
      "type": "function"
    },
    {
      "inputs": [],
      "name": "unstakeMax",
      "outputs": [],
      "stateMutability": "nonpayable",
      "type": "function"
    },
    {
      "inputs": [
        {
          "internalType": "uint256",
          "name": "_premium",
          "type": "uint256"
        },
        {
          "internalType": "uint256",
          "name": "_payoff",
          "type": "uint256"
        },
        {
          "internalType": "address",
          "name": "_userAddress",
          "type": "address"
        }
      ],
      "name": "updateWhenBuy",
      "outputs": [],
      "stateMutability": "nonpayable",
      "type": "function"
    },
    {
      "inputs": [
        {
          "internalType": "uint256",
          "name": "_premium",
          "type": "uint256"
        },
        {
          "internalType": "uint256",
          "name": "_payoff",
          "type": "uint256"
        },
        {
          "internalType": "address",
          "name": "_userAddress",
          "type": "address"
        }
      ],
      "name": "updateWhenExpire",
      "outputs": [],
      "stateMutability": "nonpayable",
      "type": "function"
    },
    {
      "inputs": [
        {
          "internalType": "uint256",
          "name": "_premium",
          "type": "uint256"
        },
        {
          "internalType": "uint256",
          "name": "_payoff",
          "type": "uint256"
        },
        {
          "internalType": "uint256",
          "name": "_realPayoff",
          "type": "uint256"
        },
        {
          "internalType": "address",
          "name": "_userAddress",
          "type": "address"
        }
      ],
      "name": "payClaim",
      "outputs": [],
      "stateMutability": "nonpayable",
      "type": "function"
    },
    {
      "inputs": [
        {
          "internalType": "address",
          "name": "_userAddress",
          "type": "address"
        }
      ],
      "name": "revertUnstakeRequest",
      "outputs": [],
      "stateMutability": "nonpayable",
      "type": "function"
    },
    {
      "inputs": [
        {
          "internalType": "address",
          "name": "_userAddress",
          "type": "address"
        }
      ],
      "name": "revertAllUnstakeRequest",
      "outputs": [],
      "stateMutability": "nonpayable",
      "type": "function"
    }
  ],
  "bytecode": "0x608060405262093a806003553480156200001857600080fd5b506040516200631f3803806200631f83398181016040528101906200003e919062000544565b6040518060400160405280601481526020017f446567697320466c6967687444656c6179204c500000000000000000000000008152506040518060400160405280600381526020017f444c5000000000000000000000000000000000000000000000000000000000008152508160159080519060200190620000c29291906200042a565b508060169080519060200190620000db9291906200042a565b50505033601760006101000a81548173ffffffffffffffffffffffffffffffffffffffff021916908373ffffffffffffffffffffffffffffffffffffffff16021790555062000132606480620002c160201b60201c565b600c81905550670de0b6b3a7640000600b8190555083601860006101000a81548173ffffffffffffffffffffffffffffffffffffffff021916908373ffffffffffffffffffffffffffffffffffffffff16021790555080601960006101000a81548173ffffffffffffffffffffffffffffffffffffffff021916908373ffffffffffffffffffffffffffffffffffffffff16021790555082600160006101000a81548173ffffffffffffffffffffffffffffffffffffffff021916908373ffffffffffffffffffffffffffffffffffffffff16021790555081601a60006101000a81548173ffffffffffffffffffffffffffffffffffffffff021916908373ffffffffffffffffffffffffffffffffffffffff160217905550670de0b6b3a76400006007819055506032600f600060038110620002745762000273620005b6565b5b01819055506028600f600160038110620002935762000292620005b6565b5b0181905550600a600f600260038110620002b257620002b1620005b6565b5b018190555050505050620006c1565b6000620002da8383620002e260201b620029e41760201c565b905092915050565b60006200030483670de0b6b3a7640000846200030c60201b62002a011760201c565b905092915050565b6000806000801985870985870292508281108382030391505060008114156200034d57838281620003425762000341620005e5565b5b049250505062000423565b838110620003965780846040517f773cc18c0000000000000000000000000000000000000000000000000000000081526004016200038d9291906200062f565b60405180910390fd5b60008486880990508281118203915080830392506000600186190186169050808604955080840493506001818260000304019050808302841793506000600287600302189050808702600203810290508087026002038102905080870260020381029050808702600203810290508087026002038102905080870260020381029050808502955050505050505b9392505050565b82805462000438906200068b565b90600052602060002090601f0160209004810192826200045c5760008555620004a8565b82601f106200047757805160ff1916838001178555620004a8565b82800160010185558215620004a8579182015b82811115620004a75782518255916020019190600101906200048a565b5b509050620004b79190620004bb565b5090565b5b80821115620004d6576000816000905550600101620004bc565b5090565b600080fd5b600073ffffffffffffffffffffffffffffffffffffffff82169050919050565b60006200050c82620004df565b9050919050565b6200051e81620004ff565b81146200052a57600080fd5b50565b6000815190506200053e8162000513565b92915050565b60008060008060808587031215620005615762000560620004da565b5b600062000571878288016200052d565b945050602062000584878288016200052d565b935050604062000597878288016200052d565b9250506060620005aa878288016200052d565b91505092959194509250565b7f4e487b7100000000000000000000000000000000000000000000000000000000600052603260045260246000fd5b7f4e487b7100000000000000000000000000000000000000000000000000000000600052601260045260246000fd5b6000819050919050565b620006298162000614565b82525050565b60006040820190506200064660008301856200061e565b6200065560208301846200061e565b9392505050565b7f4e487b7100000000000000000000000000000000000000000000000000000000600052602260045260246000fd5b60006002820490506001821680620006a457607f821691505b60208210811415620006bb57620006ba6200065c565b5b50919050565b615c4e80620006d16000396000f3fe608060405234801561001057600080fd5b50600436106102945760003560e01c80639e2e28b511610167578063cba9aa4f116100ce578063e766c83511610087578063e766c83514610817578063ea1a767914610835578063f03816ea14610853578063f2fde38b1461086f578063f952f01a1461088b578063fa4bc20a146108bb57610294565b8063cba9aa4f14610753578063d8a9bdb714610771578063dd62ed3e1461078f578063ddc2c185146107bf578063de2fbaba146107db578063df011c41146107f957610294565b8063adc9772e11610120578063adc9772e146106a5578063b496991a146106c1578063b5c22157146106df578063bf131f4b146106fb578063bff9e65f14610717578063c54e44eb1461073557610294565b80639e2e28b5146105bd578063a21bc3fb146105d9578063a42ac5ba146105f7578063a457c2d714610627578063a59b364514610657578063a9059cbb1461067557610294565b8063395093511161020b57806370a08231116101c457806370a08231146104e75780637b80889b146105175780637d36f766146105355780638da5cb5b14610565578063942465ed1461058357806395d89b411461059f57610294565b806339509351146104275780634020a4ad1461045757806343d387f8146104735780634773489214610491578063561dae91146104c15780635c326caf146104cb57610294565b806312fa0d7a1161025d57806312fa0d7a1461035357806318160ddd146103835780632248ff53146103a157806323b872dd146103bd5780632e17de78146103ed578063313ce5671461040957610294565b806216bd781461029957806306fdde03146102c9578063095ea7b3146102e75780630bd35bbe146103175780630fb71df114610335575b600080fd5b6102b360048036038101906102ae91906144f9565b6108d7565b6040516102c09190614541565b60405180910390f35b6102d16108f5565b6040516102de91906145f5565b60405180910390f35b61030160048036038101906102fc9190614675565b610987565b60405161030e9190614541565b60405180910390f35b61031f6109a5565b60405161032c9190614714565b60405180910390f35b61033d6109cb565b60405161034a919061473e565b60405180910390f35b61036d60048036038101906103689190614759565b6109e2565b60405161037a919061473e565b60405180910390f35b61038b610a0c565b604051610398919061473e565b60405180910390f35b6103bb60048036038101906103b691906144f9565b610a16565b005b6103d760048036038101906103d29190614786565b610ae9565b6040516103e49190614541565b60405180910390f35b610407600480360381019061040291906144f9565b610be1565b005b610411610f00565b60405161041e91906147f5565b60405180910390f35b610441600480360381019061043c9190614675565b610f09565b60405161044e9190614541565b60405180910390f35b610471600480360381019061046c9190614759565b610fb5565b005b61047b611278565b604051610488919061481f565b60405180910390f35b6104ab60048036038101906104a69190614759565b61129c565b6040516104b8919061473e565b60405180910390f35b6104c96112be565b005b6104e560048036038101906104e09190614759565b61158d565b005b61050160048036038101906104fc9190614759565b611709565b60405161050e919061473e565b60405180910390f35b61051f611752565b60405161052c919061473e565b60405180910390f35b61054f600480360381019061054a91906144f9565b611758565b60405161055c919061473e565b60405180910390f35b61056d611773565b60405161057a919061481f565b60405180910390f35b61059d6004803603810190610598919061483a565b611799565b005b6105a7611961565b6040516105b491906145f5565b60405180910390f35b6105d760048036038101906105d291906148a1565b6119f3565b005b6105e1611bd8565b6040516105ee919061473e565b60405180910390f35b610611600480360381019061060c9190614759565b611bde565b60405161061e919061473e565b60405180910390f35b610641600480360381019061063c9190614675565b611c15565b60405161064e9190614541565b60405180910390f35b61065f611d00565b60405161066c919061481f565b60405180910390f35b61068f600480360381019061068a9190614675565b611d26565b60405161069c9190614541565b60405180910390f35b6106bf60048036038101906106ba9190614675565b611d44565b005b6106c9611ebd565b6040516106d6919061473e565b60405180910390f35b6106f960048036038101906106f491906144f9565b611ec3565b005b610715600480360381019061071091906148a1565b61201a565b005b61071f6121ab565b60405161072c9190614915565b60405180910390f35b61073d6121d1565b60405161074a9190614951565b60405180910390f35b61075b6121f7565b604051610768919061473e565b60405180910390f35b6107796121fd565b604051610786919061473e565b60405180910390f35b6107a960048036038101906107a4919061496c565b612203565b6040516107b6919061473e565b60405180910390f35b6107d960048036038101906107d491906144f9565b61228a565b005b6107e361235b565b6040516107f0919061473e565b60405180910390f35b610801612361565b60405161080e919061473e565b60405180910390f35b61081f612367565b60405161082c919061473e565b60405180910390f35b61083d61236d565b60405161084a919061473e565b60405180910390f35b61086d60048036038101906108689190614759565b612373565b005b61088960048036038101906108849190614759565b612623565b005b6108a560048036038101906108a09190614759565b6127c4565b6040516108b2919061473e565b60405180910390f35b6108d560048036038101906108d09190614ae2565b6127d6565b005b600081600d54106108eb57600190506108f0565b600090505b919050565b60606015805461090490614b3e565b80601f016020809104026020016040519081016040528092919081815260200182805461093090614b3e565b801561097d5780601f106109525761010080835404028352916020019161097d565b820191906000526020600020905b81548152906001019060200180831161096057829003601f168201915b5050505050905090565b600061099b610994612b17565b8484612b1f565b6001905092915050565b601860009054906101000a900473ffffffffffffffffffffffffffffffffffffffff1681565b6000600a546008546109dd9190614b9f565b905090565b6000806109ee8361129c565b905080600d541015610a0257600d54610a04565b805b915050919050565b6000601454905090565b601760009054906101000a900473ffffffffffffffffffffffffffffffffffffffff1673ffffffffffffffffffffffffffffffffffffffff163373ffffffffffffffffffffffffffffffffffffffff1614610aa6576040517f08c379a0000000000000000000000000000000000000000000000000000000008152600401610a9d90614c45565b60405180910390fd5b806002819055507f0f128d1654eb3fcd6ad9b6dfa8add12cc1eb853cd46ca634e0111b200b14027b4282604051610ade929190614c65565b60405180910390a150565b6000610af6848484612cea565b6000601360008673ffffffffffffffffffffffffffffffffffffffff1673ffffffffffffffffffffffffffffffffffffffff1681526020019081526020016000206000610b41612b17565b73ffffffffffffffffffffffffffffffffffffffff1673ffffffffffffffffffffffffffffffffffffffff16815260200190815260200160002054905082811015610bc1576040517f08c379a0000000000000000000000000000000000000000000000000000000008152600401610bb890614d00565b60405180910390fd5b610bd585610bcd612b17565b858403612b1f565b60019150509392505050565b33600073ffffffffffffffffffffffffffffffffffffffff168173ffffffffffffffffffffffffffffffffffffffff161415610c52576040517f08c379a0000000000000000000000000000000000000000000000000000000008152600401610c4990614d6c565b60405180910390fd5b33600354600460008373ffffffffffffffffffffffffffffffffffffffff1673ffffffffffffffffffffffffffffffffffffffff16815260200190815260200160002060000154610ca39190614d8c565b421015610ce5576040517f08c379a0000000000000000000000000000000000000000000000000000000008152600401610cdc90614e54565b60405180910390fd5b60003390506000610cf58261129c565b9050808511158015610d075750600085115b610d46576040517f08c379a0000000000000000000000000000000000000000000000000000000008152600401610d3d90614ee6565b60405180910390fd5b6000610d506109cb565b9050600086905081871115610eed5760008288610d6d9190614b9f565b9050600560008673ffffffffffffffffffffffffffffffffffffffff1673ffffffffffffffffffffffffffffffffffffffff168152602001908152602001600020604051806060016040528083815260200160008152602001600015158152509080600181540180825580915050600190039060005260206000209060030201600090919091909150600082015181600001556020820151816001015560408201518160020160006101000a81548160ff02191690831515021790555050506006859080600181540180825580915050600190039060005260206000200160009091909190916101000a81548173ffffffffffffffffffffffffffffffffffffffff021916908373ffffffffffffffffffffffffffffffffffffffff16021790555082915080600460008773ffffffffffffffffffffffffffffffffffffffff1673ffffffffffffffffffffffffffffffffffffffff1681526020019081526020016000206001016000828254610ee49190614d8c565b92505081905550505b610ef78482612f6e565b50505050505050565b60006012905090565b6000610fab610f16612b17565b848460136000610f24612b17565b73ffffffffffffffffffffffffffffffffffffffff1673ffffffffffffffffffffffffffffffffffffffff16815260200190815260200160002060008873ffffffffffffffffffffffffffffffffffffffff1673ffffffffffffffffffffffffffffffffffffffff16815260200190815260200160002054610fa69190614d8c565b612b1f565b6001905092915050565b80600073ffffffffffffffffffffffffffffffffffffffff168173ffffffffffffffffffffffffffffffffffffffff161415611026576040517f08c379a000000000000000000000000000000000000000000000000000000000815260040161101d90614d6c565b60405180910390fd5b8173ffffffffffffffffffffffffffffffffffffffff163373ffffffffffffffffffffffffffffffffffffffff1614806110ad5750601760009054906101000a900473ffffffffffffffffffffffffffffffffffffffff1673ffffffffffffffffffffffffffffffffffffffff163373ffffffffffffffffffffffffffffffffffffffff16145b6110ec576040517f08c379a00000000000000000000000000000000000000000000000000000000081526004016110e390614f78565b60405180910390fd5b6000600560008473ffffffffffffffffffffffffffffffffffffffff1673ffffffffffffffffffffffffffffffffffffffff16815260200190815260200160002090506000818054905011611176576040517f08c379a000000000000000000000000000000000000000000000000000000000815260040161116d9061500a565b60405180910390fd5b61117f836130ad565b600560008473ffffffffffffffffffffffffffffffffffffffff1673ffffffffffffffffffffffffffffffffffffffff16815260200190815260200160002060006111ca9190614455565b6000600460008573ffffffffffffffffffffffffffffffffffffffff1673ffffffffffffffffffffffffffffffffffffffff16815260200190815260200160002060010154905080600960008282546112239190614d8c565b925050819055506000600460008673ffffffffffffffffffffffffffffffffffffffff1673ffffffffffffffffffffffffffffffffffffffff1681526020019081526020016000206001018190555050505050565b60008054906101000a900473ffffffffffffffffffffffffffffffffffffffff1681565b6000806112a8836127c4565b90506112b68160075461311b565b915050919050565b33600073ffffffffffffffffffffffffffffffffffffffff168173ffffffffffffffffffffffffffffffffffffffff16141561132f576040517f08c379a000000000000000000000000000000000000000000000000000000000815260040161132690614d6c565b60405180910390fd5b33600354600460008373ffffffffffffffffffffffffffffffffffffffff1673ffffffffffffffffffffffffffffffffffffffff168152602001908152602001600020600001546113809190614d8c565b4210156113c2576040517f08c379a00000000000000000000000000000000000000000000000000000000081526004016113b990614e54565b60405180910390fd5b600033905060006113d28261129c565b905060006113de6109cb565b905060008290508183111561157b57600082846113fb9190614b9f565b9050600560008673ffffffffffffffffffffffffffffffffffffffff1673ffffffffffffffffffffffffffffffffffffffff168152602001908152602001600020604051806060016040528083815260200160008152602001600015158152509080600181540180825580915050600190039060005260206000209060030201600090919091909150600082015181600001556020820151816001015560408201518160020160006101000a81548160ff02191690831515021790555050506006859080600181540180825580915050600190039060005260206000200160009091909190916101000a81548173ffffffffffffffffffffffffffffffffffffffff021916908373ffffffffffffffffffffffffffffffffffffffff16021790555082915080600460008773ffffffffffffffffffffffffffffffffffffffff1673ffffffffffffffffffffffffffffffffffffffff16815260200190815260200160002060010160008282546115729190614d8c565b92505081905550505b6115858482612f6e565b505050505050565b601760009054906101000a900473ffffffffffffffffffffffffffffffffffffffff1673ffffffffffffffffffffffffffffffffffffffff163373ffffffffffffffffffffffffffffffffffffffff161461161d576040517f08c379a000000000000000000000000000000000000000000000000000000000815260040161161490614c45565b60405180910390fd5b80600073ffffffffffffffffffffffffffffffffffffffff168173ffffffffffffffffffffffffffffffffffffffff16141561168e576040517f08c379a000000000000000000000000000000000000000000000000000000000815260040161168590614d6c565b60405180910390fd5b816000806101000a81548173ffffffffffffffffffffffffffffffffffffffff021916908373ffffffffffffffffffffffffffffffffffffffff1602179055507fdf2f84a6be1c55031de30c910064a4d8ce6cf64f767b55c3e9647175a7885bb9826040516116fd919061481f565b60405180910390a15050565b6000601260008373ffffffffffffffffffffffffffffffffffffffff1673ffffffffffffffffffffffffffffffffffffffff168152602001908152602001600020549050919050565b600a5481565b600f816003811061176857600080fd5b016000915090505481565b601760009054906101000a900473ffffffffffffffffffffffffffffffffffffffff1681565b60008054906101000a900473ffffffffffffffffffffffffffffffffffffffff1673ffffffffffffffffffffffffffffffffffffffff163373ffffffffffffffffffffffffffffffffffffffff1614611827576040517f08c379a000000000000000000000000000000000000000000000000000000000815260040161181e9061509c565b60405180910390fd5b80600073ffffffffffffffffffffffffffffffffffffffff168173ffffffffffffffffffffffffffffffffffffffff161415611898576040517f08c379a000000000000000000000000000000000000000000000000000000000815260040161188f90614d6c565b60405180910390fd5b83600a60008282546118aa9190614b9f565b9250508190555082600860008282546118c39190614b9f565b9250508190555082600960008282546118dc9190614b9f565b9250508190555084600e60008282546118f59190614b9f565b925050819055506119058561312f565b6119528284601960009054906101000a900473ffffffffffffffffffffffffffffffffffffffff1673ffffffffffffffffffffffffffffffffffffffff166133989092919063ffffffff16565b61195a61341e565b5050505050565b60606016805461197090614b3e565b80601f016020809104026020016040519081016040528092919081815260200182805461199c90614b3e565b80156119e95780601f106119be576101008083540402835291602001916119e9565b820191906000526020600020905b8154815290600101906020018083116119cc57829003601f168201915b5050505050905090565b60008054906101000a900473ffffffffffffffffffffffffffffffffffffffff1673ffffffffffffffffffffffffffffffffffffffff163373ffffffffffffffffffffffffffffffffffffffff1614611a81576040517f08c379a0000000000000000000000000000000000000000000000000000000008152600401611a789061509c565b60405180910390fd5b60006002541115611b5957601860009054906101000a900473ffffffffffffffffffffffffffffffffffffffff1673ffffffffffffffffffffffffffffffffffffffff166340c10f19826002546040518363ffffffff1660e01b8152600401611aeb9291906150bc565b600060405180830381600087803b158015611b0557600080fd5b505af1158015611b19573d6000803e3d6000fd5b505050507fbbdda43fb538c1f6a8794546f04b7ce45519a90c6d8bef939c670855b64e66c781600254604051611b509291906150bc565b60405180910390a15b82600e6000828254611b6b9190614b9f565b9250508190555081600a6000828254611b849190614b9f565b9250508190555081600d6000828254611b9d9190614d8c565b92505081905550611bad8361312f565b600082905060006006805490501115611bca57611bc9816134fa565b5b611bd261341e565b50505050565b600d5481565b600080611bea8361129c565b9050670de0b6b3a764000081600b54611c0391906150e5565b611c0d919061516e565b915050919050565b60008060136000611c24612b17565b73ffffffffffffffffffffffffffffffffffffffff1673ffffffffffffffffffffffffffffffffffffffff16815260200190815260200160002060008573ffffffffffffffffffffffffffffffffffffffff1673ffffffffffffffffffffffffffffffffffffffff16815260200190815260200160002054905082811015611ce1576040517f08c379a0000000000000000000000000000000000000000000000000000000008152600401611cd890615211565b60405180910390fd5b611cf5611cec612b17565b85858403612b1f565b600191505092915050565b600160009054906101000a900473ffffffffffffffffffffffffffffffffffffffff1681565b6000611d3a611d33612b17565b8484612cea565b6001905092915050565b81600073ffffffffffffffffffffffffffffffffffffffff168173ffffffffffffffffffffffffffffffffffffffff161415611db5576040517f08c379a0000000000000000000000000000000000000000000000000000000008152600401611dac90614d6c565b60405180910390fd5b81601960009054906101000a900473ffffffffffffffffffffffffffffffffffffffff1673ffffffffffffffffffffffffffffffffffffffff166370a08231336040518263ffffffff1660e01b8152600401611e11919061481f565b60206040518083038186803b158015611e2957600080fd5b505afa158015611e3d573d6000803e3d6000fd5b505050506040513d601f19601f82011682018060405250810190611e619190615246565b10158015611e6f5750600082115b611eae576040517f08c379a0000000000000000000000000000000000000000000000000000000008152600401611ea5906152e5565b60405180910390fd5b611eb88383613981565b505050565b60025481565b601760009054906101000a900473ffffffffffffffffffffffffffffffffffffffff1673ffffffffffffffffffffffffffffffffffffffff163373ffffffffffffffffffffffffffffffffffffffff1614611f53576040517f08c379a0000000000000000000000000000000000000000000000000000000008152600401611f4a90614c45565b60405180910390fd5b60008111611f96576040517f08c379a0000000000000000000000000000000000000000000000000000000008152600401611f8d90615377565b60405180910390fd5b611fa1816064613b09565b600c81905550601760009054906101000a900473ffffffffffffffffffffffffffffffffffffffff1673ffffffffffffffffffffffffffffffffffffffff167fbec5c0c9ba59b8a8e6027f690946fd83fc4f7586213749371d827d228f1df9668260405161200f919061473e565b60405180910390a250565b60008054906101000a900473ffffffffffffffffffffffffffffffffffffffff1673ffffffffffffffffffffffffffffffffffffffff163373ffffffffffffffffffffffffffffffffffffffff16146120a8576040517f08c379a000000000000000000000000000000000000000000000000000000000815260040161209f9061509c565b60405180910390fd5b81600a60008282546120ba9190614d8c565b9250508190555082600e60008282546120d39190614d8c565b9250508190555081600d60008282546120ec9190614b9f565b92505081905550612101600a54600854613b09565b600b81905550612156813085601960009054906101000a900473ffffffffffffffffffffffffffffffffffffffff1673ffffffffffffffffffffffffffffffffffffffff16613b1d909392919063ffffffff16565b8073ffffffffffffffffffffffffffffffffffffffff167f48a70649351698478f15267ca75cb3da80814ac5087d87178c657801b662fa96848460405161219e929190614c65565b60405180910390a2505050565b601a60009054906101000a900473ffffffffffffffffffffffffffffffffffffffff1681565b601960009054906101000a900473ffffffffffffffffffffffffffffffffffffffff1681565b60075481565b60095481565b6000601360008473ffffffffffffffffffffffffffffffffffffffff1673ffffffffffffffffffffffffffffffffffffffff16815260200190815260200160002060008373ffffffffffffffffffffffffffffffffffffffff1673ffffffffffffffffffffffffffffffffffffffff16815260200190815260200160002054905092915050565b601760009054906101000a900473ffffffffffffffffffffffffffffffffffffffff1673ffffffffffffffffffffffffffffffffffffffff163373ffffffffffffffffffffffffffffffffffffffff161461231a576040517f08c379a000000000000000000000000000000000000000000000000000000000815260040161231190614c45565b60405180910390fd5b806003819055507f8c113b91cba5feeda528be3f32ccc4a60f841f93e472038c73aaa0dd4be78dd281604051612350919061473e565b60405180910390a150565b600b5481565b600c5481565b60085481565b600e5481565b80600073ffffffffffffffffffffffffffffffffffffffff168173ffffffffffffffffffffffffffffffffffffffff1614156123e4576040517f08c379a00000000000000000000000000000000000000000000000000000000081526004016123db90614d6c565b60405180910390fd5b8173ffffffffffffffffffffffffffffffffffffffff163373ffffffffffffffffffffffffffffffffffffffff16148061246b5750601760009054906101000a900473ffffffffffffffffffffffffffffffffffffffff1673ffffffffffffffffffffffffffffffffffffffff163373ffffffffffffffffffffffffffffffffffffffff16145b6124aa576040517f08c379a00000000000000000000000000000000000000000000000000000000081526004016124a190614f78565b60405180910390fd5b6000600560008473ffffffffffffffffffffffffffffffffffffffff1673ffffffffffffffffffffffffffffffffffffffff16815260200190815260200160002090506000818054905011612534576040517f08c379a000000000000000000000000000000000000000000000000000000000815260040161252b9061500a565b60405180910390fd5b6000600182805490506125479190614b9f565b9050600082828154811061255e5761255d615397565b5b90600052602060002090600302016001015483838154811061258357612582615397565b5b90600052602060002090600302016000015461259f9190614b9f565b905080600960008282546125b39190614d8c565b9250508190555080600460008773ffffffffffffffffffffffffffffffffffffffff1673ffffffffffffffffffffffffffffffffffffffff168152602001908152602001600020600101600082825461260c9190614b9f565b9250508190555061261c85613ba6565b5050505050565b601760009054906101000a900473ffffffffffffffffffffffffffffffffffffffff1673ffffffffffffffffffffffffffffffffffffffff163373ffffffffffffffffffffffffffffffffffffffff16146126b3576040517f08c379a00000000000000000000000000000000000000000000000000000000081526004016126aa90614c45565b60405180910390fd5b80600073ffffffffffffffffffffffffffffffffffffffff168173ffffffffffffffffffffffffffffffffffffffff161415612724576040517f08c379a000000000000000000000000000000000000000000000000000000000815260040161271b90614d6c565b60405180910390fd5b81601760006101000a81548173ffffffffffffffffffffffffffffffffffffffff021916908373ffffffffffffffffffffffffffffffffffffffff1602179055507fb532073b38c83145e3e5135377a08bf9aab55bc0fd7c1179cd4fb995d2a5159c601760009054906101000a900473ffffffffffffffffffffffffffffffffffffffff16836040516127b89291906153c6565b60405180910390a15050565b60006127cf82611709565b9050919050565b601760009054906101000a900473ffffffffffffffffffffffffffffffffffffffff1673ffffffffffffffffffffffffffffffffffffffff163373ffffffffffffffffffffffffffffffffffffffff1614612866576040517f08c379a000000000000000000000000000000000000000000000000000000000815260040161285d90614c45565b60405180910390fd5b60008160026003811061287c5761287b615397565b5b60200201518260016003811061289557612894615397565b5b6020020151836000600381106128ae576128ad615397565b5b60200201516128bd9190614d8c565b6128c79190614d8c565b90506064811461290c576040517f08c379a000000000000000000000000000000000000000000000000000000000815260040161290390615461565b60405180910390fd5b60005b600381101561295c5782816003811061292b5761292a615397565b5b6020020151600f826003811061294457612943615397565b5b0181905550808061295490615481565b91505061290f565b507f20f74d31c64135b35b1b3b45e66b4368481f4c7bfba5d9e7c3deba0e4ec3d8d58260006003811061299257612991615397565b5b6020020151836001600381106129ab576129aa615397565b5b6020020151846002600381106129c4576129c3615397565b5b60200201516040516129d8939291906154ca565b60405180910390a15050565b60006129f983670de0b6b3a764000084612a01565b905092915050565b600080600080198587098587029250828110838203039150506000811415612a3d57838281612a3357612a3261513f565b5b0492505050612b10565b838110612a835780846040517f773cc18c000000000000000000000000000000000000000000000000000000008152600401612a7a929190614c65565b60405180910390fd5b60008486880990508281118203915080830392506000600186190186169050808604955080840493506001818260000304019050808302841793506000600287600302189050808702600203810290508087026002038102905080870260020381029050808702600203810290508087026002038102905080870260020381029050808502955050505050505b9392505050565b600033905090565b600073ffffffffffffffffffffffffffffffffffffffff168373ffffffffffffffffffffffffffffffffffffffff161415612b8f576040517f08c379a0000000000000000000000000000000000000000000000000000000008152600401612b8690615573565b60405180910390fd5b600073ffffffffffffffffffffffffffffffffffffffff168273ffffffffffffffffffffffffffffffffffffffff161415612bff576040517f08c379a0000000000000000000000000000000000000000000000000000000008152600401612bf690615605565b60405180910390fd5b80601360008573ffffffffffffffffffffffffffffffffffffffff1673ffffffffffffffffffffffffffffffffffffffff16815260200190815260200160002060008473ffffffffffffffffffffffffffffffffffffffff1673ffffffffffffffffffffffffffffffffffffffff168152602001908152602001600020819055508173ffffffffffffffffffffffffffffffffffffffff168373ffffffffffffffffffffffffffffffffffffffff167f8c5be1e5ebec7d5bd14f71427d1e84f3dd0314c0f7b2291e5b200ac8c7c3b92583604051612cdd919061473e565b60405180910390a3505050565b600073ffffffffffffffffffffffffffffffffffffffff168373ffffffffffffffffffffffffffffffffffffffff161415612d5a576040517f08c379a0000000000000000000000000000000000000000000000000000000008152600401612d5190615697565b60405180910390fd5b600073ffffffffffffffffffffffffffffffffffffffff168273ffffffffffffffffffffffffffffffffffffffff161415612dca576040517f08c379a0000000000000000000000000000000000000000000000000000000008152600401612dc190615729565b60405180910390fd5b612dd5838383613d76565b6000601260008573ffffffffffffffffffffffffffffffffffffffff1673ffffffffffffffffffffffffffffffffffffffff16815260200190815260200160002054905081811015612e5c576040517f08c379a0000000000000000000000000000000000000000000000000000000008152600401612e53906157bb565b60405180910390fd5b818103601260008673ffffffffffffffffffffffffffffffffffffffff1673ffffffffffffffffffffffffffffffffffffffff1681526020019081526020016000208190555081601260008573ffffffffffffffffffffffffffffffffffffffff1673ffffffffffffffffffffffffffffffffffffffff1681526020019081526020016000206000828254612ef19190614d8c565b925050819055508273ffffffffffffffffffffffffffffffffffffffff168473ffffffffffffffffffffffffffffffffffffffff167fddf252ad1be2c89b69c2b068fc378daa952ba7f163c4a11628f55a4df523b3ef84604051612f55919061473e565b60405180910390a3612f68848484613d7b565b50505050565b6000670de0b6b3a7640000600c5483612f8791906150e5565b612f91919061516e565b90508160086000828254612fa59190614b9f565b925050819055508160096000828254612fbe9190614b9f565b9250508190555080600d6000828254612fd79190614b9f565b92505081905550612fec600a54600854613b09565b600b8190555061303f8383601960009054906101000a900473ffffffffffffffffffffffffffffffffffffffff1673ffffffffffffffffffffffffffffffffffffffff166133989092919063ffffffff16565b600061304d83600754613b09565b90506130598482613d80565b8373ffffffffffffffffffffffffffffffffffffffff167f85082129d87b2fe11527cb1b3b7a520aeb5aa6913f88a3d8757fe40d1db02fdd8460405161309f919061473e565b60405180910390a250505050565b60005b600560008373ffffffffffffffffffffffffffffffffffffffff1673ffffffffffffffffffffffffffffffffffffffff168152602001908152602001600020805490508110156131175761310382613ba6565b6001816131109190614d8c565b90506130b0565b5050565b60006131278383613d8e565b905092915050565b6000670de0b6b3a764000061315b600f60016003811061315257613151615397565b5b01546064613b09565b8361316691906150e5565b613170919061516e565b90506000670de0b6b3a764000061319e600f60026003811061319557613194615397565b5b01546064613b09565b846131a991906150e5565b6131b3919061516e565b9050613224600160009054906101000a900473ffffffffffffffffffffffffffffffffffffffff1682601960009054906101000a900473ffffffffffffffffffffffffffffffffffffffff1673ffffffffffffffffffffffffffffffffffffffff166133989092919063ffffffff16565b6000601a60009054906101000a900473ffffffffffffffffffffffffffffffffffffffff1673ffffffffffffffffffffffffffffffffffffffff166380a061606040518163ffffffff1660e01b8152600401602060405180830381600087803b15801561329057600080fd5b505af11580156132a4573d6000803e3d6000fd5b505050506040513d601f19601f820116820180604052508101906132c89190615246565b9050601a60009054906101000a900473ffffffffffffffffffffffffffffffffffffffff1673ffffffffffffffffffffffffffffffffffffffff1663471aeab482856040518363ffffffff1660e01b8152600401613327929190614c65565b600060405180830381600087803b15801561334157600080fd5b505af1158015613355573d6000803e3d6000fd5b505050507f9761fc045fbd64d3df258b9138e72c435856255787dfef0428a74ead73954fb4828460405161338a929190614c65565b60405180910390a150505050565b6134198363a9059cbb60e01b84846040516024016133b79291906150bc565b604051602081830303815290604052907bffffffffffffffffffffffffffffffffffffffffffffffffffffffff19166020820180517bffffffffffffffffffffffffffffffffffffffffffffffffffffffff8381831617835250505050613da2565b505050565b6000613428610a0c565b90506000601960009054906101000a900473ffffffffffffffffffffffffffffffffffffffff1673ffffffffffffffffffffffffffffffffffffffff166370a08231306040518263ffffffff1660e01b8152600401613487919061481f565b60206040518083038186803b15801561349f57600080fd5b505afa1580156134b3573d6000803e3d6000fd5b505050506040513d601f19601f820116820180604052508101906134d79190615246565b90506134f0600e54826134ea9190614b9f565b83613b09565b6007819055505050565b600080600160068054905061350f9190614b9f565b90505b6000811061397c57600083106139635760006006828154811061353857613537615397565b5b9060005260206000200160009054906101000a900473ffffffffffffffffffffffffffffffffffffffff16905060005b600560008373ffffffffffffffffffffffffffffffffffffffff1673ffffffffffffffffffffffffffffffffffffffff1681526020019081526020016000208054905081101561395c57600560008373ffffffffffffffffffffffffffffffffffffffff1673ffffffffffffffffffffffffffffffffffffffff168152602001908152602001600020818154811061360357613602615397565b5b90600052602060002090600302016000015493508385111561384457838561362b9190614b9f565b945060005b6001600560008573ffffffffffffffffffffffffffffffffffffffff1673ffffffffffffffffffffffffffffffffffffffff1681526020019081526020016000208054905061367f9190614b9f565b8110156137a857600560008473ffffffffffffffffffffffffffffffffffffffff1673ffffffffffffffffffffffffffffffffffffffff1681526020019081526020016000206001826136d29190614d8c565b815481106136e3576136e2615397565b5b9060005260206000209060030201600560008573ffffffffffffffffffffffffffffffffffffffff1673ffffffffffffffffffffffffffffffffffffffff168152602001908152602001600020828154811061374257613741615397565b5b906000526020600020906003020160008201548160000155600182015481600101556002820160009054906101000a900460ff168160020160006101000a81548160ff0219169083151502179055509050506001816137a19190614d8c565b9050613630565b50600560008373ffffffffffffffffffffffffffffffffffffffff1673ffffffffffffffffffffffffffffffffffffffff1681526020019081526020016000208054806137f8576137f76157db565b5b600190038181906000526020600020906003020160008082016000905560018201600090556002820160006101000a81549060ff02191690555050905561383f8285612f6e565b613949565b84600560008473ffffffffffffffffffffffffffffffffffffffff1673ffffffffffffffffffffffffffffffffffffffff168152602001908152602001600020828154811061389657613895615397565b5b906000526020600020906003020160000160008282546138b69190614b9f565b9250508190555084600560008473ffffffffffffffffffffffffffffffffffffffff1673ffffffffffffffffffffffffffffffffffffffff168152602001908152602001600020828154811061390f5761390e615397565b5b9060005260206000209060030201600101600082825461392f9190614d8c565b925050819055506139408286612f6e565b6000945061395c565b808061395490615481565b915050613568565b5050613968565b61397c565b6001816139759190614b9f565b9050613512565b505050565b6000670de0b6b3a7640000600c548361399a91906150e5565b6139a4919061516e565b905081600860008282546139b89190614d8c565b9250508190555081600960008282546139d19190614d8c565b9250508190555080600d60008282546139ea9190614d8c565b925050819055506139ff600a54600854613b09565b600b81905550613a54333084601960009054906101000a900473ffffffffffffffffffffffffffffffffffffffff1673ffffffffffffffffffffffffffffffffffffffff16613b1d909392919063ffffffff16565b6000613a6283600754613b09565b9050613a6e8482613e69565b42600460008673ffffffffffffffffffffffffffffffffffffffff1673ffffffffffffffffffffffffffffffffffffffff168152602001908152602001600020600001819055508373ffffffffffffffffffffffffffffffffffffffff167febedb8b3c678666e7f36970bc8f57abf6d8fa2e828c0da91ea5b75bf68ed101a84604051613afb919061473e565b60405180910390a250505050565b6000613b1583836129e4565b905092915050565b613ba0846323b872dd60e01b858585604051602401613b3e9392919061580a565b604051602081830303815290604052907bffffffffffffffffffffffffffffffffffffffffffffffffffffffff19166020820180517bffffffffffffffffffffffffffffffffffffffffffffffffffffffff8381831617835250505050613da2565b50505050565b60006001600680549050613bba9190614b9f565b90505b60008110613c50578173ffffffffffffffffffffffffffffffffffffffff1660068281548110613bf057613bef615397565b5b9060005260206000200160009054906101000a900473ffffffffffffffffffffffffffffffffffffffff1673ffffffffffffffffffffffffffffffffffffffff161415613c3c57613c50565b600181613c499190614b9f565b9050613bbd565b60008190505b6001600680549050613c689190614b9f565b811015613d2a576006600182613c7e9190614d8c565b81548110613c8f57613c8e615397565b5b9060005260206000200160009054906101000a900473ffffffffffffffffffffffffffffffffffffffff1660068281548110613cce57613ccd615397565b5b9060005260206000200160006101000a81548173ffffffffffffffffffffffffffffffffffffffff021916908373ffffffffffffffffffffffffffffffffffffffff160217905550600181613d239190614d8c565b9050613c56565b506006805480613d3d57613d3c6157db565b5b6001900381819060005260206000200160006101000a81549073ffffffffffffffffffffffffffffffffffffffff021916905590555050565b505050565b505050565b613d8a8282613e77565b5050565b6000613d9a8383614050565b905092915050565b6000613e04826040518060400160405280602081526020017f5361666545524332303a206c6f772d6c6576656c2063616c6c206661696c65648152508573ffffffffffffffffffffffffffffffffffffffff1661414e9092919063ffffffff16565b9050600081511115613e645780806020019051810190613e24919061586d565b613e63576040517f08c379a0000000000000000000000000000000000000000000000000000000008152600401613e5a9061590c565b60405180910390fd5b5b505050565b613e738282614166565b5050565b600073ffffffffffffffffffffffffffffffffffffffff168273ffffffffffffffffffffffffffffffffffffffff161415613ee7576040517f08c379a0000000000000000000000000000000000000000000000000000000008152600401613ede9061599e565b60405180910390fd5b613ef382600083613d76565b6000601260008473ffffffffffffffffffffffffffffffffffffffff1673ffffffffffffffffffffffffffffffffffffffff16815260200190815260200160002054905081811015613f7a576040517f08c379a0000000000000000000000000000000000000000000000000000000008152600401613f7190615a30565b60405180910390fd5b818103601260008573ffffffffffffffffffffffffffffffffffffffff1673ffffffffffffffffffffffffffffffffffffffff168152602001908152602001600020819055508160146000828254613fd29190614b9f565b92505081905550600073ffffffffffffffffffffffffffffffffffffffff168373ffffffffffffffffffffffffffffffffffffffff167fddf252ad1be2c89b69c2b068fc378daa952ba7f163c4a11628f55a4df523b3ef84604051614037919061473e565b60405180910390a361404b83600084613d7b565b505050565b60008060008019848609848602925082811083820303915050670de0b6b3a764000081106140b557806040517fd31b34020000000000000000000000000000000000000000000000000000000081526004016140ac919061473e565b60405180910390fd5b600080670de0b6b3a764000086880991506706f05b59d3b1ffff8211905060008314156141025780670de0b6b3a764000085816140f5576140f461513f565b5b0401945050505050614148565b807faccb18165bd6fe31ae1cf318dc5b51eee0e1ba569b88cd74c1773b91fac1066960016204000080600003040186851186030262040000858803041702019450505050505b92915050565b606061415d84846000856142c7565b90509392505050565b600073ffffffffffffffffffffffffffffffffffffffff168273ffffffffffffffffffffffffffffffffffffffff1614156141d6576040517f08c379a00000000000000000000000000000000000000000000000000000000081526004016141cd90615a9c565b60405180910390fd5b6141e260008383613d76565b80601460008282546141f49190614d8c565b9250508190555080601260008473ffffffffffffffffffffffffffffffffffffffff1673ffffffffffffffffffffffffffffffffffffffff168152602001908152602001600020600082825461424a9190614d8c565b925050819055508173ffffffffffffffffffffffffffffffffffffffff16600073ffffffffffffffffffffffffffffffffffffffff167fddf252ad1be2c89b69c2b068fc378daa952ba7f163c4a11628f55a4df523b3ef836040516142af919061473e565b60405180910390a36142c360008383613d7b565b5050565b60608247101561430c576040517f08c379a000000000000000000000000000000000000000000000000000000000815260040161430390615b2e565b60405180910390fd5b614315856143db565b614354576040517f08c379a000000000000000000000000000000000000000000000000000000000815260040161434b90615b9a565b60405180910390fd5b6000808673ffffffffffffffffffffffffffffffffffffffff16858760405161437d9190615c01565b60006040518083038185875af1925050503d80600081146143ba576040519150601f19603f3d011682016040523d82523d6000602084013e6143bf565b606091505b50915091506143cf8282866143ee565b92505050949350505050565b600080823b905060008111915050919050565b606083156143fe5782905061444e565b6000835111156144115782518084602001fd5b816040517f08c379a000000000000000000000000000000000000000000000000000000000815260040161444591906145f5565b60405180910390fd5b9392505050565b50805460008255600302906000526020600020908101906144769190614479565b50565b5b808211156144b05760008082016000905560018201600090556002820160006101000a81549060ff02191690555060030161447a565b5090565b6000604051905090565b600080fd5b6000819050919050565b6144d6816144c3565b81146144e157600080fd5b50565b6000813590506144f3816144cd565b92915050565b60006020828403121561450f5761450e6144be565b5b600061451d848285016144e4565b91505092915050565b60008115159050919050565b61453b81614526565b82525050565b60006020820190506145566000830184614532565b92915050565b600081519050919050565b600082825260208201905092915050565b60005b8381101561459657808201518184015260208101905061457b565b838111156145a5576000848401525b50505050565b6000601f19601f8301169050919050565b60006145c78261455c565b6145d18185614567565b93506145e1818560208601614578565b6145ea816145ab565b840191505092915050565b6000602082019050818103600083015261460f81846145bc565b905092915050565b600073ffffffffffffffffffffffffffffffffffffffff82169050919050565b600061464282614617565b9050919050565b61465281614637565b811461465d57600080fd5b50565b60008135905061466f81614649565b92915050565b6000806040838503121561468c5761468b6144be565b5b600061469a85828601614660565b92505060206146ab858286016144e4565b9150509250929050565b6000819050919050565b60006146da6146d56146d084614617565b6146b5565b614617565b9050919050565b60006146ec826146bf565b9050919050565b60006146fe826146e1565b9050919050565b61470e816146f3565b82525050565b60006020820190506147296000830184614705565b92915050565b614738816144c3565b82525050565b6000602082019050614753600083018461472f565b92915050565b60006020828403121561476f5761476e6144be565b5b600061477d84828501614660565b91505092915050565b60008060006060848603121561479f5761479e6144be565b5b60006147ad86828701614660565b93505060206147be86828701614660565b92505060406147cf868287016144e4565b9150509250925092565b600060ff82169050919050565b6147ef816147d9565b82525050565b600060208201905061480a60008301846147e6565b92915050565b61481981614637565b82525050565b60006020820190506148346000830184614810565b92915050565b60008060008060808587031215614854576148536144be565b5b6000614862878288016144e4565b9450506020614873878288016144e4565b9350506040614884878288016144e4565b925050606061489587828801614660565b91505092959194509250565b6000806000606084860312156148ba576148b96144be565b5b60006148c8868287016144e4565b93505060206148d9868287016144e4565b92505060406148ea86828701614660565b9150509250925092565b60006148ff826146e1565b9050919050565b61490f816148f4565b82525050565b600060208201905061492a6000830184614906565b92915050565b600061493b826146e1565b9050919050565b61494b81614930565b82525050565b60006020820190506149666000830184614942565b92915050565b60008060408385031215614983576149826144be565b5b600061499185828601614660565b92505060206149a285828601614660565b9150509250929050565b600080fd5b7f4e487b7100000000000000000000000000000000000000000000000000000000600052604160045260246000fd5b6149e9826145ab565b810181811067ffffffffffffffff82111715614a0857614a076149b1565b5b80604052505050565b6000614a1b6144b4565b9050614a2782826149e0565b919050565b600067ffffffffffffffff821115614a4757614a466149b1565b5b602082029050919050565b600080fd5b6000614a6a614a6584614a2c565b614a11565b90508060208402830185811115614a8457614a83614a52565b5b835b81811015614aad5780614a9988826144e4565b845260208401935050602081019050614a86565b5050509392505050565b600082601f830112614acc57614acb6149ac565b5b6003614ad9848285614a57565b91505092915050565b600060608284031215614af857614af76144be565b5b6000614b0684828501614ab7565b91505092915050565b7f4e487b7100000000000000000000000000000000000000000000000000000000600052602260045260246000fd5b60006002820490506001821680614b5657607f821691505b60208210811415614b6a57614b69614b0f565b5b50919050565b7f4e487b7100000000000000000000000000000000000000000000000000000000600052601160045260246000fd5b6000614baa826144c3565b9150614bb5836144c3565b925082821015614bc857614bc7614b70565b5b828203905092915050565b7f4f6e6c7920746865206f776e65722063616e2063616c6c20746869732066756e60008201527f6374696f6e000000000000000000000000000000000000000000000000000000602082015250565b6000614c2f602583614567565b9150614c3a82614bd3565b604082019050919050565b60006020820190508181036000830152614c5e81614c22565b9050919050565b6000604082019050614c7a600083018561472f565b614c87602083018461472f565b9392505050565b7f45524332303a207472616e7366657220616d6f756e742065786365656473206160008201527f6c6c6f77616e6365000000000000000000000000000000000000000000000000602082015250565b6000614cea602883614567565b9150614cf582614c8e565b604082019050919050565b60006020820190508181036000830152614d1981614cdd565b9050919050565b7f43616e206e6f74206265207a65726f2061646472657373000000000000000000600082015250565b6000614d56601783614567565b9150614d6182614d20565b602082019050919050565b60006020820190508181036000830152614d8581614d49565b9050919050565b6000614d97826144c3565b9150614da2836144c3565b9250827fffffffffffffffffffffffffffffffffffffffffffffffffffffffffffffffff03821115614dd757614dd6614b70565b5b828201905092915050565b7f43616e206e6f7420776974686472617720756e74696c207468652066726f6e7a60008201527f656e2074696d6500000000000000000000000000000000000000000000000000602082015250565b6000614e3e602783614567565b9150614e4982614de2565b604082019050919050565b60006020820190508181036000830152614e6d81614e31565b9050919050565b7f4e6f7420656e6f7567682062616c616e636520746f20626520756e6c6f636b6560008201527f64206f7220796f757220776974686472617720616d6f756e7420697320300000602082015250565b6000614ed0603e83614567565b9150614edb82614e74565b604082019050919050565b60006020820190508181036000830152614eff81614ec3565b9050919050565b7f4f6e6c7920746865206f776e6572206f722074686520757365722068696d736560008201527f6c662063616e2072657665727400000000000000000000000000000000000000602082015250565b6000614f62602d83614567565b9150614f6d82614f06565b604082019050919050565b60006020820190508181036000830152614f9181614f55565b9050919050565b7f74686973207573657220686173206e6f2070656e64696e6720756e7374616b6560008201527f2072657175657374000000000000000000000000000000000000000000000000602082015250565b6000614ff4602883614567565b9150614fff82614f98565b604082019050919050565b6000602082019050818103600083015261502381614fe7565b9050919050565b7f4f6e6c792074686520706f6c696379466c6f7720636f6e74726163742063616e60008201527f2063616c6c20746869732066756e6374696f6e00000000000000000000000000602082015250565b6000615086603383614567565b91506150918261502a565b604082019050919050565b600060208201905081810360008301526150b581615079565b9050919050565b60006040820190506150d16000830185614810565b6150de602083018461472f565b9392505050565b60006150f0826144c3565b91506150fb836144c3565b9250817fffffffffffffffffffffffffffffffffffffffffffffffffffffffffffffffff048311821515161561513457615133614b70565b5b828202905092915050565b7f4e487b7100000000000000000000000000000000000000000000000000000000600052601260045260246000fd5b6000615179826144c3565b9150615184836144c3565b9250826151945761519361513f565b5b828204905092915050565b7f45524332303a2064656372656173656420616c6c6f77616e63652062656c6f7760008201527f207a65726f000000000000000000000000000000000000000000000000000000602082015250565b60006151fb602583614567565b91506152068261519f565b604082019050919050565b6000602082019050818103600083015261522a816151ee565b9050919050565b600081519050615240816144cd565b92915050565b60006020828403121561525c5761525b6144be565b5b600061526a84828501615231565b91505092915050565b7f596f7520646f206e6f74206861766520656e6f75676820555344206f7220696e60008201527f707574203020616d6f756e740000000000000000000000000000000000000000602082015250565b60006152cf602c83614567565b91506152da82615273565b604082019050919050565b600060208201905081810360008301526152fe816152c2565b9050919050565b7f436f6c6c61746572616c20466163746f722073686f756c64206265206c61726760008201527f6572207468616e20300000000000000000000000000000000000000000000000602082015250565b6000615361602983614567565b915061536c82615305565b604082019050919050565b6000602082019050818103600083015261539081615354565b9050919050565b7f4e487b7100000000000000000000000000000000000000000000000000000000600052603260045260246000fd5b60006040820190506153db6000830185614810565b6153e86020830184614810565b9392505050565b7f52657761726420646973747269627574696f6e206d7573742073756d20746f2060008201527f3130300000000000000000000000000000000000000000000000000000000000602082015250565b600061544b602383614567565b9150615456826153ef565b604082019050919050565b6000602082019050818103600083015261547a8161543e565b9050919050565b600061548c826144c3565b91507fffffffffffffffffffffffffffffffffffffffffffffffffffffffffffffffff8214156154bf576154be614b70565b5b600182019050919050565b60006060820190506154df600083018661472f565b6154ec602083018561472f565b6154f9604083018461472f565b949350505050565b7f45524332303a20617070726f76652066726f6d20746865207a65726f2061646460008201527f7265737300000000000000000000000000000000000000000000000000000000602082015250565b600061555d602483614567565b915061556882615501565b604082019050919050565b6000602082019050818103600083015261558c81615550565b9050919050565b7f45524332303a20617070726f766520746f20746865207a65726f20616464726560008201527f7373000000000000000000000000000000000000000000000000000000000000602082015250565b60006155ef602283614567565b91506155fa82615593565b604082019050919050565b6000602082019050818103600083015261561e816155e2565b9050919050565b7f45524332303a207472616e736665722066726f6d20746865207a65726f20616460008201527f6472657373000000000000000000000000000000000000000000000000000000602082015250565b6000615681602583614567565b915061568c82615625565b604082019050919050565b600060208201905081810360008301526156b081615674565b9050919050565b7f45524332303a207472616e7366657220746f20746865207a65726f206164647260008201527f6573730000000000000000000000000000000000000000000000000000000000602082015250565b6000615713602383614567565b915061571e826156b7565b604082019050919050565b6000602082019050818103600083015261574281615706565b9050919050565b7f45524332303a207472616e7366657220616d6f756e742065786365656473206260008201527f616c616e63650000000000000000000000000000000000000000000000000000602082015250565b60006157a5602683614567565b91506157b082615749565b604082019050919050565b600060208201905081810360008301526157d481615798565b9050919050565b7f4e487b7100000000000000000000000000000000000000000000000000000000600052603160045260246000fd5b600060608201905061581f6000830186614810565b61582c6020830185614810565b615839604083018461472f565b949350505050565b61584a81614526565b811461585557600080fd5b50565b60008151905061586781615841565b92915050565b600060208284031215615883576158826144be565b5b600061589184828501615858565b91505092915050565b7f5361666545524332303a204552433230206f7065726174696f6e20646964206e60008201527f6f74207375636365656400000000000000000000000000000000000000000000602082015250565b60006158f6602a83614567565b91506159018261589a565b604082019050919050565b60006020820190508181036000830152615925816158e9565b9050919050565b7f45524332303a206275726e2066726f6d20746865207a65726f2061646472657360008201527f7300000000000000000000000000000000000000000000000000000000000000602082015250565b6000615988602183614567565b91506159938261592c565b604082019050919050565b600060208201905081810360008301526159b78161597b565b9050919050565b7f45524332303a206275726e20616d6f756e7420657863656564732062616c616e60008201527f6365000000000000000000000000000000000000000000000000000000000000602082015250565b6000615a1a602283614567565b9150615a25826159be565b604082019050919050565b60006020820190508181036000830152615a4981615a0d565b9050919050565b7f45524332303a206d696e7420746f20746865207a65726f206164647265737300600082015250565b6000615a86601f83614567565b9150615a9182615a50565b602082019050919050565b60006020820190508181036000830152615ab581615a79565b9050919050565b7f416464726573733a20696e73756666696369656e742062616c616e636520666f60008201527f722063616c6c0000000000000000000000000000000000000000000000000000602082015250565b6000615b18602683614567565b9150615b2382615abc565b604082019050919050565b60006020820190508181036000830152615b4781615b0b565b9050919050565b7f416464726573733a2063616c6c20746f206e6f6e2d636f6e7472616374000000600082015250565b6000615b84601d83614567565b9150615b8f82615b4e565b602082019050919050565b60006020820190508181036000830152615bb381615b77565b9050919050565b600081519050919050565b600081905092915050565b6000615bdb82615bba565b615be58185615bc5565b9350615bf5818560208601614578565b80840191505092915050565b6000615c0d8284615bd0565b91508190509291505056fea2646970667358221220465efe30c0643a320c17fbac93b2c720eb4f7b715468ed4637dbc57aa4aaf9c564736f6c63430008090033",
  "immutableReferences": {},
  "source": "// SPDX-License-Identifier: MIT\npragma solidity 0.8.9;\n\nimport \"@openzeppelin/contracts/token/ERC20/IERC20.sol\";\nimport \"@openzeppelin/contracts/token/ERC20/utils/SafeERC20.sol\";\nimport \"prb-math/contracts/PRBMathUD60x18.sol\";\nimport \"./InsurancePoolStore.sol\";\nimport \"./interfaces/IInsurancePool.sol\";\nimport \"./interfaces/IDegisToken.sol\";\nimport \"./LPToken.sol\";\nimport \"./interfaces/IDegisLottery.sol\";\n\ncontract InsurancePool is IInsurancePool, InsurancePoolStore, LPToken {\n    using PRBMathUD60x18 for uint256;\n    using SafeERC20 for IERC20;\n\n    address public owner;\n\n    // ---------------------------------------------------------------------------------------- //\n    // *********************************** Other Contracts ************************************ //\n    // ---------------------------------------------------------------------------------------- //\n\n    IDegisToken public DEGIS;\n    IERC20 public USDT;\n    IDegisLottery public degisLottery;\n\n    // ---------------------------------------------------------------------------------------- //\n    // ************************************* Constructor ************************************** //\n    // ---------------------------------------------------------------------------------------- //\n\n    /**\n     * @notice Constructor function\n     * @param _degisToken Degis token address\n     * @param _emergencyPool Emergency pool address\n     * @param _degisLottery Lottery address\n     * @param _usdtAddress USDT address\n     */\n    constructor(\n        address _degisToken,\n        address _emergencyPool,\n        address _degisLottery,\n        address _usdtAddress\n    ) {\n        owner = msg.sender;\n\n        collateralFactor = _doDiv(100, 100);\n\n        lockedRatio = 1e18; // 1e18 = 1\n\n        DEGIS = IDegisToken(_degisToken);\n        USDT = IERC20(_usdtAddress);\n        emergencyPool = _emergencyPool;\n        degisLottery = IDegisLottery(_degisLottery);\n\n        // Initial LP Value\n        LPValue = 1e18;\n\n        // Initial distribution, 0: LP 1: Lottery 2: Emergency\n        rewardDistribution[0] = 50;\n        rewardDistribution[1] = 40;\n        rewardDistribution[2] = 10;\n    }\n\n    // ---------------------------------------------------------------------------------------- //\n    // ************************************** Modifiers *************************************** //\n    // ---------------------------------------------------------------------------------------- //\n\n    /**\n     * @notice Only the owner can call some functions\n     */\n    modifier onlyOwner() {\n        require(msg.sender == owner, \"Only the owner can call this function\");\n        _;\n    }\n\n    /**\n     * @notice Only the policyFlow contract can call some functions\n     */\n    modifier onlyPolicyFlow() {\n        require(\n            msg.sender == policyFlow,\n            \"Only the policyFlow contract can call this function\"\n        );\n        _;\n    }\n\n    /**\n     * @notice The address can not be zero\n     */\n    modifier notZeroAddress(address _address) {\n        require(_address != address(0), \"Can not be zero address\");\n        _;\n    }\n\n    /**\n     * @notice There is a frozen time for unstaking\n     */\n    modifier afterFrozenTime(address _userAddress) {\n        require(\n            block.timestamp >= userInfo[_userAddress].depositTime + frozenTime,\n            \"Can not withdraw until the fronzen time\"\n        );\n        _;\n    }\n\n    // ---------------------------------------------------------------------------------------- //\n    // ************************************ View Functions ************************************ //\n    // ---------------------------------------------------------------------------------------- //\n\n    /**\n     * @notice Get the real balance: LPValue * LP_Num\n     * @param _userAddress User's address\n     * @return userBalance Real balance of this user\n     */\n    function getUserBalance(address _userAddress)\n        public\n        view\n        returns (uint256 userBalance)\n    {\n        uint256 lp_num = LPBalanceOf(_userAddress);\n        userBalance = _doMul(lp_num, LPValue);\n    }\n\n    /**\n     * @notice Get the balance that the pool can unlock (maximum)\n     */\n    function getPoolUnlocked() public view returns (uint256) {\n        return totalStakingBalance - lockedBalance;\n    }\n\n    /**\n     * @notice Get the balance that one user(LP) can unlock\n     * @param _userAddress User's address\n     * @return _unlockedAmount Unlocked amount of the pool\n     */\n    function getUnlockedFor(address _userAddress)\n        public\n        view\n        returns (uint256 _unlockedAmount)\n    {\n        uint256 userBalance = getUserBalance(_userAddress);\n        _unlockedAmount = availableCapacity >= userBalance\n            ? userBalance\n            : availableCapacity;\n    }\n\n    /**\n     * @notice Get the user's locked balance\n     * @param _userAddress User's address\n     * @return _locked User's locked balance (as the locked ratio)\n     */\n    function getLockedFor(address _userAddress)\n        public\n        view\n        returns (uint256 _locked)\n    {\n        uint256 userBalance = getUserBalance(_userAddress);\n        _locked = (lockedRatio * userBalance) / (1e18);\n    }\n\n    /**\n     * @notice Check the conditions when receive new buying request\n     * @param _payoff Payoff of the policy to be bought\n     * @return Whether there is enough capacity in the pool for this payoff\n     */\n    function checkCapacity(uint256 _payoff) public view returns (bool) {\n        if (availableCapacity >= _payoff) {\n            return true;\n        } else {\n            return false;\n        }\n    }\n\n    // ---------------------------------------------------------------------------------------- //\n    // ************************************ Owner Functions *********************************** //\n    // ---------------------------------------------------------------------------------------- //\n\n    /**\n     * @notice Set the purchase incentive amount\n     */\n    function setPurchaseIncentive(uint256 _purchaseIncentive)\n        external\n        onlyOwner\n    {\n        purchaseIncentiveAmount = _purchaseIncentive;\n        emit PurchaseIncentiveChanged(block.timestamp, _purchaseIncentive);\n    }\n\n    /**\n     * @notice Set a new frozen time\n     * @param _newFrozenTime New frozen time, in timestamp(s)\n     */\n    function setFrozenTime(uint256 _newFrozenTime) external onlyOwner {\n        frozenTime = _newFrozenTime;\n        emit SetFrozenTime(_newFrozenTime);\n    }\n\n    /**\n     * @notice Set the address of policyFlow\n     */\n    function setPolicyFlow(address _policyFlowAddress)\n        public\n        onlyOwner\n        notZeroAddress(_policyFlowAddress)\n    {\n        policyFlow = _policyFlowAddress;\n        emit SetPolicyFlow(_policyFlowAddress);\n    }\n\n    /**\n     * @notice Set the premium reward distribution\n     * @param _newDistribution New distribution [LP, Lottery, Emergency]\n     */\n    function setIncomeDistribution(uint256[3] memory _newDistribution)\n        public\n        onlyOwner\n    {\n        uint256 sum = _newDistribution[0] +\n            _newDistribution[1] +\n            _newDistribution[2];\n        require(sum == 100, \"Reward distribution must sum to 100\");\n\n        for (uint256 i = 0; i < 3; i++) {\n            rewardDistribution[i] = _newDistribution[i];\n        }\n        emit ChangeRewardDistribution(\n            _newDistribution[0],\n            _newDistribution[1],\n            _newDistribution[2]\n        );\n    }\n\n    /**\n     * @notice Transfer the ownership to a new owner\n     * @param _newOwner New owner address\n     */\n    function transferOwnership(address _newOwner)\n        public\n        onlyOwner\n        notZeroAddress(_newOwner)\n    {\n        owner = _newOwner;\n        emit OwnerChanged(owner, _newOwner);\n    }\n\n    /**\n     * @notice Change the collateral factor\n     * @param _factor The new collateral factor\n     */\n    function setCollateralFactor(uint256 _factor) public onlyOwner {\n        require(_factor > 0, \"Collateral Factor should be larger than 0\");\n        collateralFactor = _doDiv(_factor, 100);\n        emit ChangeCollateralFactor(owner, _factor);\n    }\n\n    // ---------------------------------------------------------------------------------------- //\n    // ************************************ Main Functions ************************************ //\n    // ---------------------------------------------------------------------------------------- //\n\n    /**\n     * @notice LPs stake assets into the pool\n     * @param _userAddress Address of the user, can be another user's address\n     * @param _amount The amount that the user want to stake\n     */\n    function stake(address _userAddress, uint256 _amount)\n        external\n        notZeroAddress(_userAddress)\n    {\n        require(\n            IERC20(USDT).balanceOf(msg.sender) >= _amount && _amount > 0,\n            \"You do not have enough USD or input 0 amount\"\n        );\n\n        _deposit(_userAddress, _amount);\n    }\n\n    /**\n     * @notice Unstake from the pool (May fail if a claim happens before this operation)\n     * @dev Only unstake by yourself\n     * @param _amount The amount that the user want to unstake\n     */\n    function unstake(uint256 _amount)\n        external\n        notZeroAddress(msg.sender)\n        afterFrozenTime(msg.sender)\n    {\n        address _userAddress = msg.sender;\n\n        uint256 userBalance = getUserBalance(_userAddress);\n        require(\n            _amount <= userBalance && _amount > 0,\n            \"Not enough balance to be unlocked or your withdraw amount is 0\"\n        );\n\n        uint256 unlocked = getPoolUnlocked();\n        uint256 unstakeAmount = _amount;\n\n        // Will jump this part when the pool has enough liquidity\n        if (_amount > unlocked) {\n            uint256 remainingURequest = _amount - unlocked;\n            unstakeRequests[_userAddress].push(\n                UnstakeRequest(remainingURequest, 0, false)\n            );\n            unstakeQueue.push(_userAddress);\n            unstakeAmount = unlocked; // only withdraw the unlocked value\n            userInfo[_userAddress].pendingBalance += remainingURequest;\n        }\n\n        _withdraw(_userAddress, unstakeAmount);\n    }\n\n    /**\n     * @notice Unstake the max amount of a user\n     */\n    function unstakeMax()\n        external\n        notZeroAddress(msg.sender)\n        afterFrozenTime(msg.sender)\n    {\n        address _userAddress = msg.sender;\n\n        uint256 userBalance = getUserBalance(_userAddress);\n\n        uint256 unlocked = getPoolUnlocked();\n        uint256 unstakeAmount = userBalance;\n\n        // Will jump this part when the pool has enough liquidity\n        if (userBalance > unlocked) {\n            uint256 remainingURequest = userBalance - unlocked;\n            unstakeRequests[_userAddress].push(\n                UnstakeRequest(remainingURequest, 0, false)\n            );\n            unstakeQueue.push(_userAddress);\n            unstakeAmount = unlocked; // only withdraw the unlocked value\n            userInfo[_userAddress].pendingBalance += remainingURequest;\n        }\n\n        _withdraw(_userAddress, unstakeAmount);\n    }\n\n    /**\n     * @notice Update the pool variables when buying policies\n     * @dev Capacity check is done before calling this function\n     * @param _premium Policy's premium\n     * @param _payoff Policy's payoff (max payoff)\n     * @param _userAddress Address of the buyer\n     */\n    function updateWhenBuy(\n        uint256 _premium,\n        uint256 _payoff,\n        address _userAddress\n    ) external onlyPolicyFlow {\n        // Update pool status\n        lockedBalance += _payoff;\n        activePremiums += _premium;\n        availableCapacity -= _payoff;\n\n        // Update lockedRatio\n        lockedRatio = _doDiv(lockedBalance, totalStakingBalance);\n\n        // Remember approval\n        USDT.safeTransferFrom(_userAddress, address(this), _premium);\n\n        emit BuyNewPolicy(_userAddress, _premium, _payoff);\n    }\n\n    /**\n     * @notice Update the status when a policy expires\n     * @param _premium Policy's premium\n     * @param _payoff Policy's payoff (max payoff)\n     * @param _userAddress User's address\n     */\n    function updateWhenExpire(\n        uint256 _premium,\n        uint256 _payoff,\n        address _userAddress\n    ) external onlyPolicyFlow {\n        // Give purchase incentive when no payoff\n        if (purchaseIncentiveAmount > 0) {\n            DEGIS.mint(_userAddress, purchaseIncentiveAmount);\n            emit SendPurchaseIncentive(_userAddress, purchaseIncentiveAmount);\n        }\n\n        // Update pool status\n        activePremiums -= _premium;\n        lockedBalance -= _payoff;\n        availableCapacity += _payoff;\n\n        // Distribute the premium\n        _distributePremium(_premium);\n\n        // If there is any unstake request in the queue\n        uint256 remainingPayoff = _payoff;\n        if (unstakeQueue.length > 0) {\n            _dealUnstakeQueue(remainingPayoff);\n        }\n\n        _updateLPValue();\n    }\n\n    /**\n     * @notice Pay a claim\n     * @param _premium Premium of the policy\n     * @param _payoff Max payoff of the policy\n     * @param _realPayoff Real payoff of the policy\n     * @param _userAddress: Address of the policy claimer\n     */\n    function payClaim(\n        uint256 _premium,\n        uint256 _payoff,\n        uint256 _realPayoff,\n        address _userAddress\n    ) external onlyPolicyFlow notZeroAddress(_userAddress) {\n        // Update the pool status\n        lockedBalance -= _payoff;\n        totalStakingBalance -= _realPayoff;\n        realStakingBalance -= _realPayoff;\n        activePremiums -= _premium;\n\n        // Distribute the premium\n        _distributePremium(_premium);\n\n        // Pay the claim\n        USDT.safeTransfer(_userAddress, _realPayoff);\n\n        _updateLPValue();\n    }\n\n    /**\n     * @notice revert the last unstake request for a user\n     * @param _userAddress user's address\n     */\n    function revertUnstakeRequest(address _userAddress)\n        public\n        notZeroAddress(_userAddress)\n    {\n        require(\n            msg.sender == _userAddress || msg.sender == owner,\n            \"Only the owner or the user himself can revert\"\n        );\n\n        UnstakeRequest[] storage userRequests = unstakeRequests[_userAddress];\n        require(\n            userRequests.length > 0,\n            \"this user has no pending unstake request\"\n        );\n\n        uint256 index = userRequests.length - 1;\n        uint256 remainingRequest = userRequests[index].pendingAmount -\n            userRequests[index].fulfilledAmount;\n\n        realStakingBalance += remainingRequest;\n        userInfo[_userAddress].pendingBalance -= remainingRequest;\n\n        _removeOneRequest(_userAddress);\n    }\n\n    /**\n     * @notice revert all unstake requests for a user\n     * @param _userAddress user's address\n     */\n    function revertAllUnstakeRequest(address _userAddress)\n        public\n        notZeroAddress(_userAddress)\n    {\n        require(\n            msg.sender == _userAddress || msg.sender == owner,\n            \"Only the owner or the user himself can revert\"\n        );\n\n        UnstakeRequest[] storage userRequests = unstakeRequests[_userAddress];\n        require(\n            userRequests.length > 0,\n            \"this user has no pending unstake request\"\n        );\n        _removeAllRequest(_userAddress);\n        delete unstakeRequests[_userAddress];\n\n        uint256 remainingRequest = userInfo[_userAddress].pendingBalance;\n        realStakingBalance += remainingRequest;\n        userInfo[_userAddress].pendingBalance = 0;\n    }\n\n    // ---------------------------------------------------------------------------------------- //\n    // ********************************** Internal Functions ********************************** //\n    // ---------------------------------------------------------------------------------------- //\n\n    /**\n     * @notice Remove all unstake requests for a user\n     * @param _userAddress User's address\n     */\n    function _removeAllRequest(address _userAddress) internal {\n        for (uint256 i = 0; i < unstakeRequests[_userAddress].length; i += 1) {\n            _removeOneRequest(_userAddress);\n        }\n    }\n\n    /**\n     * @notice Remove one(the latest) unstake requests for a user\n     * @param _userAddress User's address\n     */\n    function _removeOneRequest(address _userAddress) internal {\n        uint256 index = unstakeQueue.length - 1;\n\n        while (index >= 0) {\n            if (unstakeQueue[index] == _userAddress) break;\n            index -= 1;\n        }\n\n        for (uint256 j = index; j < unstakeQueue.length - 1; j += 1) {\n            unstakeQueue[j] = unstakeQueue[j + 1];\n        }\n\n        unstakeQueue.pop();\n    }\n\n    /**\n     * @notice Finish the deposit process\n     * @dev LPValue will not change during deposit\n     * @param _userAddress Address of the user who deposits\n     * @param _amount Amount he deposits\n     */\n    function _deposit(address _userAddress, uint256 _amount) internal {\n        uint256 amountWithFactor = (_amount * collateralFactor) / 1e18;\n\n        // Update the pool's status\n        totalStakingBalance += _amount;\n        realStakingBalance += _amount;\n        availableCapacity += amountWithFactor;\n\n        lockedRatio = _doDiv(lockedBalance, totalStakingBalance);\n\n        // msg.sender always pays\n        USDT.safeTransferFrom(msg.sender, address(this), _amount);\n\n        // LP Token number need to be newly minted\n        uint256 lp_num = _doDiv(_amount, LPValue);\n        LPMint(_userAddress, lp_num);\n\n        userInfo[_userAddress].depositTime = block.timestamp;\n\n        emit Stake(_userAddress, _amount);\n    }\n\n    /**\n     * @notice _withdraw: finish the withdraw action, only when meeting the conditions\n     * @dev LPValue will not change during withdraw\n     * @param _userAddress address of the user who withdraws\n     * @param _amount the amount he withdraws\n     */\n    function _withdraw(address _userAddress, uint256 _amount) internal {\n        uint256 amountWithFactor = (_amount * collateralFactor) / 1e18;\n        // Update the pool's status\n        totalStakingBalance -= _amount;\n        realStakingBalance -= _amount;\n        availableCapacity -= amountWithFactor;\n\n        lockedRatio = _doDiv(lockedBalance, totalStakingBalance);\n\n        USDT.safeTransfer(_userAddress, _amount);\n\n        uint256 lp_num = _doDiv(_amount, LPValue);\n        LPBurn(_userAddress, lp_num);\n\n        emit Unstake(_userAddress, _amount);\n    }\n\n    /**\n     * @notice Distribute the premium to lottery and emergency pool\n     * @param _premium Premium amount to be distributed\n     */\n    function _distributePremium(uint256 _premium) internal {\n        uint256 premiumToLottery = (_premium *\n            _doDiv(rewardDistribution[1], 100)) / 1e18;\n        uint256 premiumToEmergency = (_premium *\n            _doDiv(rewardDistribution[2], 100)) / 1e18;\n\n        // Transfer some reward to emergency pool\n        USDT.safeTransfer(emergencyPool, premiumToEmergency);\n\n        // Transfer some reward to lottery\n        uint256 currentLotteryId = degisLottery.viewCurrentLotteryId();\n        degisLottery.injectFunds(currentLotteryId, premiumToLottery);\n\n        emit PremiumDistributed(premiumToEmergency, premiumToLottery);\n    }\n\n    /**\n     * @notice Update the value of each lp token\n     * @dev Normally it will update when claim or expire\n     */\n    function _updateLPValue() internal {\n        uint256 totalLP = totalSupply();\n        uint256 totalBalance = IERC20(USDT).balanceOf(address(this));\n\n        LPValue = _doDiv(totalBalance - activePremiums, totalLP);\n    }\n\n    /**\n     * @notice When some capacity unlocked, deal with the unstake queue\n     * @dev Normally we do not need this process\n     * @param remainingPayoff Remaining payoff amount\n     */\n    function _dealUnstakeQueue(uint256 remainingPayoff) internal {\n        uint256 pendingAmount;\n        for (uint256 i = unstakeQueue.length - 1; i >= 0; i -= 1) {\n            if (remainingPayoff >= 0) {\n                address pendingUser = unstakeQueue[i];\n                for (\n                    uint256 j = 0;\n                    j < unstakeRequests[pendingUser].length;\n                    j++\n                ) {\n                    pendingAmount = unstakeRequests[pendingUser][j]\n                        .pendingAmount;\n                    if (remainingPayoff > pendingAmount) {\n                        remainingPayoff -= pendingAmount;\n\n                        for (\n                            uint256 k = 0;\n                            k < unstakeRequests[pendingUser].length - 1;\n                            k += 1\n                        ) {\n                            unstakeRequests[pendingUser][k] = unstakeRequests[\n                                pendingUser\n                            ][k + 1];\n                        }\n                        unstakeRequests[pendingUser].pop();\n\n                        _withdraw(pendingUser, pendingAmount);\n                    } else {\n                        unstakeRequests[pendingUser][j]\n                            .pendingAmount -= remainingPayoff;\n                        unstakeRequests[pendingUser][j]\n                            .fulfilledAmount += remainingPayoff;\n                        _withdraw(pendingUser, remainingPayoff);\n\n                        remainingPayoff = 0;\n                        break;\n                    }\n                }\n            } else break;\n        }\n    }\n\n    /**\n     * @notice Do division via PRBMath\n     * @dev    E.g. doDiv(1, 1) = 1e18  doDiv(1, 10) = 1e17 doDiv(10, 1) = 1e19\n     */\n    function _doDiv(uint256 x, uint256 y) internal pure returns (uint256) {\n        return PRBMathUD60x18.div(x, y);\n    }\n\n    /**\n     * @notice Do multiplication via PRBMath\n     * @dev    E.g. doMul(1, 1) = 1e18  doMul(2, 5) = 1e19\n     */\n    function _doMul(uint256 x, uint256 y) internal pure returns (uint256) {\n        return PRBMathUD60x18.mul(x, y);\n    }\n}\n",
  "sourcePath": "/Volumes/Store/src/Degis-Contracts-1/contracts/InsurancePool.sol",
  "compiler": {
    "name": "solc",
    "version": "0.8.9+commit.e5eed63a.Emscripten.clang"
  },
  "schemaVersion": "3.4.3",
  "updatedAt": "2021-12-02T08:12:03.609Z",
  "devdoc": {
    "kind": "dev",
    "methods": {
      "allowance(address,address)": {
        "details": "See {IERC20-allowance}."
      },
      "approve(address,uint256)": {
        "details": "See {IERC20-approve}. Requirements: - `spender` cannot be the zero address."
      },
      "balanceOf(address)": {
        "details": "See {IERC20-balanceOf}."
      },
      "checkCapacity(uint256)": {
        "params": {
          "_payoff": "Payoff of the policy to be bought"
        },
        "returns": {
          "_0": "Whether there is enough capacity in the pool for this payoff"
        }
      },
      "constructor": {
        "params": {
          "_degisLottery": "Lottery address",
          "_degisToken": "Degis token address",
          "_emergencyPool": "Emergency pool address",
          "_usdtAddress": "USDT address"
        }
      },
      "decimals()": {
        "details": "Returns the number of decimals used to get its user representation. For example, if `decimals` equals `2`, a balance of `505` tokens should be displayed to a user as `5.05` (`505 / 10 ** 2`). Tokens usually opt for a value of 18, imitating the relationship between Ether and Wei. This is the value {ERC20} uses, unless this function is overridden; NOTE: This information is only used for _display_ purposes: it in no way affects any of the arithmetic of the contract, including {IERC20-balanceOf} and {IERC20-transfer}."
      },
      "decreaseAllowance(address,uint256)": {
        "details": "Atomically decreases the allowance granted to `spender` by the caller. This is an alternative to {approve} that can be used as a mitigation for problems described in {IERC20-approve}. Emits an {Approval} event indicating the updated allowance. Requirements: - `spender` cannot be the zero address. - `spender` must have allowance for the caller of at least `subtractedValue`."
      },
      "getLockedFor(address)": {
        "params": {
          "_userAddress": "User's address"
        },
        "returns": {
          "_locked": "User's locked balance (as the locked ratio)"
        }
      },
      "getUnlockedFor(address)": {
        "params": {
          "_userAddress": "User's address"
        },
        "returns": {
          "_unlockedAmount": "Unlocked amount of the pool"
        }
      },
      "getUserBalance(address)": {
        "params": {
          "_userAddress": "User's address"
        },
        "returns": {
          "userBalance": "Real balance of this user"
        }
      },
      "increaseAllowance(address,uint256)": {
        "details": "Atomically increases the allowance granted to `spender` by the caller. This is an alternative to {approve} that can be used as a mitigation for problems described in {IERC20-approve}. Emits an {Approval} event indicating the updated allowance. Requirements: - `spender` cannot be the zero address."
      },
      "name()": {
        "details": "Returns the name of the token."
      },
      "payClaim(uint256,uint256,uint256,address)": {
        "params": {
          "_payoff": "Max payoff of the policy",
          "_premium": "Premium of the policy",
          "_realPayoff": "Real payoff of the policy",
          "_userAddress": ": Address of the policy claimer"
        }
      },
      "revertAllUnstakeRequest(address)": {
        "params": {
          "_userAddress": "user's address"
        }
      },
      "revertUnstakeRequest(address)": {
        "params": {
          "_userAddress": "user's address"
        }
      },
      "setCollateralFactor(uint256)": {
        "params": {
          "_factor": "The new collateral factor"
        }
      },
      "setFrozenTime(uint256)": {
        "params": {
          "_newFrozenTime": "New frozen time, in timestamp(s)"
        }
      },
      "setIncomeDistribution(uint256[3])": {
        "params": {
          "_newDistribution": "New distribution [LP, Lottery, Emergency]"
        }
      },
      "stake(address,uint256)": {
        "params": {
          "_amount": "The amount that the user want to stake",
          "_userAddress": "Address of the user, can be another user's address"
        }
      },
      "symbol()": {
        "details": "Returns the symbol of the token, usually a shorter version of the name."
      },
      "totalSupply()": {
        "details": "See {IERC20-totalSupply}."
      },
      "transfer(address,uint256)": {
        "details": "See {IERC20-transfer}. Requirements: - `recipient` cannot be the zero address. - the caller must have a balance of at least `amount`."
      },
      "transferFrom(address,address,uint256)": {
        "details": "See {IERC20-transferFrom}. Emits an {Approval} event indicating the updated allowance. This is not required by the EIP. See the note at the beginning of {ERC20}. Requirements: - `sender` and `recipient` cannot be the zero address. - `sender` must have a balance of at least `amount`. - the caller must have allowance for ``sender``'s tokens of at least `amount`."
      },
      "transferOwnership(address)": {
        "params": {
          "_newOwner": "New owner address"
        }
      },
      "unstake(uint256)": {
        "details": "Only unstake by yourself",
        "params": {
          "_amount": "The amount that the user want to unstake"
        }
      },
      "updateWhenBuy(uint256,uint256,address)": {
        "details": "Capacity check is done before calling this function",
        "params": {
          "_payoff": "Policy's payoff (max payoff)",
          "_premium": "Policy's premium",
          "_userAddress": "Address of the buyer"
        }
      },
      "updateWhenExpire(uint256,uint256,address)": {
        "params": {
          "_payoff": "Policy's payoff (max payoff)",
          "_premium": "Policy's premium",
          "_userAddress": "User's address"
        }
      }
    },
    "version": 1
  },
  "userdoc": {
    "errors": {
      "PRBMath__MulDivFixedPointOverflow(uint256)": [
        {
          "notice": "Emitted when the result overflows uint256."
        }
      ],
      "PRBMath__MulDivOverflow(uint256,uint256)": [
        {
          "notice": "Emitted when the result overflows uint256."
        }
      ]
    },
    "kind": "user",
    "methods": {
      "checkCapacity(uint256)": {
        "notice": "Check the conditions when receive new buying request"
      },
      "constructor": {
        "notice": "Constructor function"
      },
      "getLockedFor(address)": {
        "notice": "Get the user's locked balance"
      },
      "getPoolUnlocked()": {
        "notice": "Get the balance that the pool can unlock (maximum)"
      },
      "getUnlockedFor(address)": {
        "notice": "Get the balance that one user(LP) can unlock"
      },
      "getUserBalance(address)": {
        "notice": "Get the real balance: LPValue * LP_Num"
      },
      "payClaim(uint256,uint256,uint256,address)": {
        "notice": "Pay a claim"
      },
      "revertAllUnstakeRequest(address)": {
        "notice": "revert all unstake requests for a user"
      },
      "revertUnstakeRequest(address)": {
        "notice": "revert the last unstake request for a user"
      },
      "setCollateralFactor(uint256)": {
        "notice": "Change the collateral factor"
      },
      "setFrozenTime(uint256)": {
        "notice": "Set a new frozen time"
      },
      "setIncomeDistribution(uint256[3])": {
        "notice": "Set the premium reward distribution"
      },
      "setPolicyFlow(address)": {
        "notice": "Set the address of policyFlow"
      },
      "setPurchaseIncentive(uint256)": {
        "notice": "Set the purchase incentive amount"
      },
      "stake(address,uint256)": {
        "notice": "LPs stake assets into the pool"
      },
      "transferOwnership(address)": {
        "notice": "Transfer the ownership to a new owner"
      },
      "unstake(uint256)": {
        "notice": "Unstake from the pool (May fail if a claim happens before this operation)"
      },
      "unstakeMax()": {
        "notice": "Unstake the max amount of a user"
      },
      "updateWhenBuy(uint256,uint256,address)": {
        "notice": "Update the pool variables when buying policies"
      },
      "updateWhenExpire(uint256,uint256,address)": {
        "notice": "Update the status when a policy expires"
      }
    },
    "version": 1
  }
}