{
  "contractName": "InsurancePool",
  "abi": [
    {
      "inputs": [
        {
          "internalType": "address",
          "name": "_degisToken",
          "type": "address"
        },
        {
          "internalType": "address",
          "name": "_emergencyPool",
          "type": "address"
        },
        {
          "internalType": "address",
          "name": "_lptoken",
          "type": "address"
        },
        {
          "internalType": "address",
          "name": "_degisLottery",
          "type": "address"
        },
        {
          "internalType": "address",
          "name": "_usdtAddress",
          "type": "address"
        }
      ],
      "stateMutability": "nonpayable",
      "type": "constructor"
    },
    {
      "inputs": [
        {
          "internalType": "uint256",
          "name": "prod1",
          "type": "uint256"
        }
      ],
      "name": "PRBMath__MulDivFixedPointOverflow",
      "type": "error"
    },
    {
      "inputs": [
        {
          "internalType": "uint256",
          "name": "prod1",
          "type": "uint256"
        },
        {
          "internalType": "uint256",
          "name": "denominator",
          "type": "uint256"
        }
      ],
      "name": "PRBMath__MulDivOverflow",
      "type": "error"
    },
    {
      "anonymous": false,
      "inputs": [
        {
          "indexed": true,
          "internalType": "address",
          "name": "userAddress",
          "type": "address"
        },
        {
          "indexed": false,
          "internalType": "uint256",
          "name": "premium",
          "type": "uint256"
        },
        {
          "indexed": false,
          "internalType": "uint256",
          "name": "payout",
          "type": "uint256"
        }
      ],
      "name": "BuyNewPolicy",
      "type": "event"
    },
    {
      "anonymous": false,
      "inputs": [
        {
          "indexed": true,
          "internalType": "address",
          "name": "onwerAddress",
          "type": "address"
        },
        {
          "indexed": false,
          "internalType": "uint256",
          "name": "factor",
          "type": "uint256"
        }
      ],
      "name": "ChangeCollateralFactor",
      "type": "event"
    },
    {
      "anonymous": false,
      "inputs": [
        {
          "indexed": false,
          "internalType": "uint256",
          "name": "_toLP",
          "type": "uint256"
        },
        {
          "indexed": false,
          "internalType": "uint256",
          "name": "_toEmergency",
          "type": "uint256"
        },
        {
          "indexed": false,
          "internalType": "uint256",
          "name": "_toLottery",
          "type": "uint256"
        }
      ],
      "name": "ChangeRewardDistribution",
      "type": "event"
    },
    {
      "anonymous": false,
      "inputs": [
        {
          "indexed": false,
          "internalType": "address",
          "name": "oldOwner",
          "type": "address"
        },
        {
          "indexed": false,
          "internalType": "address",
          "name": "newOwner",
          "type": "address"
        }
      ],
      "name": "OwnerChanged",
      "type": "event"
    },
    {
      "anonymous": false,
      "inputs": [
        {
          "indexed": false,
          "internalType": "uint256",
          "name": "_premiumToEmergency",
          "type": "uint256"
        },
        {
          "indexed": false,
          "internalType": "uint256",
          "name": "_premiumToLottery",
          "type": "uint256"
        }
      ],
      "name": "PremiumDistributed",
      "type": "event"
    },
    {
      "anonymous": false,
      "inputs": [
        {
          "indexed": false,
          "internalType": "uint256",
          "name": "_blocknumber",
          "type": "uint256"
        },
        {
          "indexed": false,
          "internalType": "uint256",
          "name": "_purchaseIncentiveAmount",
          "type": "uint256"
        }
      ],
      "name": "PurchaseIncentiveChanged",
      "type": "event"
    },
    {
      "anonymous": false,
      "inputs": [
        {
          "indexed": false,
          "internalType": "address",
          "name": "_userAddress",
          "type": "address"
        },
        {
          "indexed": false,
          "internalType": "uint256",
          "name": "_amount",
          "type": "uint256"
        }
      ],
      "name": "SendPurchaseIncentive",
      "type": "event"
    },
    {
      "anonymous": false,
      "inputs": [
        {
          "indexed": false,
          "internalType": "uint256",
          "name": "_newFrozenTime",
          "type": "uint256"
        }
      ],
      "name": "SetFrozenTime",
      "type": "event"
    },
    {
      "anonymous": false,
      "inputs": [
        {
          "indexed": false,
          "internalType": "address",
          "name": "_policyFlowAddress",
          "type": "address"
        }
      ],
      "name": "SetPolicyFlow",
      "type": "event"
    },
    {
      "anonymous": false,
      "inputs": [
        {
          "indexed": true,
          "internalType": "address",
          "name": "userAddress",
          "type": "address"
        },
        {
          "indexed": false,
          "internalType": "uint256",
          "name": "amount",
          "type": "uint256"
        }
      ],
      "name": "Stake",
      "type": "event"
    },
    {
      "anonymous": false,
      "inputs": [
        {
          "indexed": true,
          "internalType": "address",
          "name": "userAddress",
          "type": "address"
        },
        {
          "indexed": false,
          "internalType": "uint256",
          "name": "amount",
          "type": "uint256"
        }
      ],
      "name": "Unstake",
      "type": "event"
    },
    {
      "inputs": [],
      "name": "DEGIS",
      "outputs": [
        {
          "internalType": "contract IDegisToken",
          "name": "",
          "type": "address"
        }
      ],
      "stateMutability": "view",
      "type": "function",
      "constant": true
    },
    {
      "inputs": [],
      "name": "DLPToken",
      "outputs": [
        {
          "internalType": "contract ILPToken",
          "name": "",
          "type": "address"
        }
      ],
      "stateMutability": "view",
      "type": "function",
      "constant": true
    },
    {
      "inputs": [],
      "name": "LPValue",
      "outputs": [
        {
          "internalType": "uint256",
          "name": "",
          "type": "uint256"
        }
      ],
      "stateMutability": "view",
      "type": "function",
      "constant": true
    },
    {
      "inputs": [],
      "name": "USDT",
      "outputs": [
        {
          "internalType": "contract IERC20",
          "name": "",
          "type": "address"
        }
      ],
      "stateMutability": "view",
      "type": "function",
      "constant": true
    },
    {
      "inputs": [],
      "name": "activePremiums",
      "outputs": [
        {
          "internalType": "uint256",
          "name": "",
          "type": "uint256"
        }
      ],
      "stateMutability": "view",
      "type": "function",
      "constant": true
    },
    {
      "inputs": [],
      "name": "availableCapacity",
      "outputs": [
        {
          "internalType": "uint256",
          "name": "",
          "type": "uint256"
        }
      ],
      "stateMutability": "view",
      "type": "function",
      "constant": true
    },
    {
      "inputs": [],
      "name": "collateralFactor",
      "outputs": [
        {
          "internalType": "uint256",
          "name": "",
          "type": "uint256"
        }
      ],
      "stateMutability": "view",
      "type": "function",
      "constant": true
    },
    {
      "inputs": [],
      "name": "degisLottery",
      "outputs": [
        {
          "internalType": "contract IDegisLottery",
          "name": "",
          "type": "address"
        }
      ],
      "stateMutability": "view",
      "type": "function",
      "constant": true
    },
    {
      "inputs": [],
      "name": "emergencyPool",
      "outputs": [
        {
          "internalType": "contract IEmergencyPool",
          "name": "",
          "type": "address"
        }
      ],
      "stateMutability": "view",
      "type": "function",
      "constant": true
    },
    {
      "inputs": [],
      "name": "lockedBalance",
      "outputs": [
        {
          "internalType": "uint256",
          "name": "",
          "type": "uint256"
        }
      ],
      "stateMutability": "view",
      "type": "function",
      "constant": true
    },
    {
      "inputs": [],
      "name": "lockedRatio",
      "outputs": [
        {
          "internalType": "uint256",
          "name": "",
          "type": "uint256"
        }
      ],
      "stateMutability": "view",
      "type": "function",
      "constant": true
    },
    {
      "inputs": [],
      "name": "name",
      "outputs": [
        {
          "internalType": "string",
          "name": "",
          "type": "string"
        }
      ],
      "stateMutability": "view",
      "type": "function",
      "constant": true
    },
    {
      "inputs": [],
      "name": "owner",
      "outputs": [
        {
          "internalType": "address",
          "name": "",
          "type": "address"
        }
      ],
      "stateMutability": "view",
      "type": "function",
      "constant": true
    },
    {
      "inputs": [],
      "name": "policyFlow",
      "outputs": [
        {
          "internalType": "address",
          "name": "",
          "type": "address"
        }
      ],
      "stateMutability": "view",
      "type": "function",
      "constant": true
    },
    {
      "inputs": [],
      "name": "purchaseIncentiveAmount",
      "outputs": [
        {
          "internalType": "uint256",
          "name": "",
          "type": "uint256"
        }
      ],
      "stateMutability": "view",
      "type": "function",
      "constant": true
    },
    {
      "inputs": [],
      "name": "realStakingBalance",
      "outputs": [
        {
          "internalType": "uint256",
          "name": "",
          "type": "uint256"
        }
      ],
      "stateMutability": "view",
      "type": "function",
      "constant": true
    },
    {
      "inputs": [
        {
          "internalType": "uint256",
          "name": "",
          "type": "uint256"
        }
      ],
      "name": "rewardDistribution",
      "outputs": [
        {
          "internalType": "uint256",
          "name": "",
          "type": "uint256"
        }
      ],
      "stateMutability": "view",
      "type": "function",
      "constant": true
    },
    {
      "inputs": [],
      "name": "totalStakingBalance",
      "outputs": [
        {
          "internalType": "uint256",
          "name": "",
          "type": "uint256"
        }
      ],
      "stateMutability": "view",
      "type": "function",
      "constant": true
    },
    {
      "inputs": [
        {
          "internalType": "address",
          "name": "_userAddress",
          "type": "address"
        }
      ],
      "name": "getUserBalance",
      "outputs": [
        {
          "internalType": "uint256",
          "name": "userBalance",
          "type": "uint256"
        }
      ],
      "stateMutability": "view",
      "type": "function",
      "constant": true
    },
    {
      "inputs": [],
      "name": "getPoolUnlocked",
      "outputs": [
        {
          "internalType": "uint256",
          "name": "",
          "type": "uint256"
        }
      ],
      "stateMutability": "view",
      "type": "function",
      "constant": true
    },
    {
      "inputs": [
        {
          "internalType": "address",
          "name": "_userAddress",
          "type": "address"
        }
      ],
      "name": "getUnlockedFor",
      "outputs": [
        {
          "internalType": "uint256",
          "name": "_unlockedAmount",
          "type": "uint256"
        }
      ],
      "stateMutability": "view",
      "type": "function",
      "constant": true
    },
    {
      "inputs": [
        {
          "internalType": "address",
          "name": "_userAddress",
          "type": "address"
        }
      ],
      "name": "getLockedfor",
      "outputs": [
        {
          "internalType": "uint256",
          "name": "_locked",
          "type": "uint256"
        }
      ],
      "stateMutability": "view",
      "type": "function",
      "constant": true
    },
    {
      "inputs": [
        {
          "internalType": "uint256",
          "name": "_purchaseIncentive",
          "type": "uint256"
        }
      ],
      "name": "setPurchaseIncentive",
      "outputs": [],
      "stateMutability": "nonpayable",
      "type": "function"
    },
    {
      "inputs": [
        {
          "internalType": "uint256",
          "name": "_newFrozenTime",
          "type": "uint256"
        }
      ],
      "name": "setFrozenTime",
      "outputs": [],
      "stateMutability": "nonpayable",
      "type": "function"
    },
    {
      "inputs": [
        {
          "internalType": "address",
          "name": "_policyFlowAddress",
          "type": "address"
        }
      ],
      "name": "setPolicyFlow",
      "outputs": [],
      "stateMutability": "nonpayable",
      "type": "function"
    },
    {
      "inputs": [
        {
          "internalType": "uint256[3]",
          "name": "_newDistribution",
          "type": "uint256[3]"
        }
      ],
      "name": "setIncomeDistribution",
      "outputs": [],
      "stateMutability": "nonpayable",
      "type": "function"
    },
    {
      "inputs": [
        {
          "internalType": "address",
          "name": "_newOwner",
          "type": "address"
        }
      ],
      "name": "transferOwnerShip",
      "outputs": [],
      "stateMutability": "nonpayable",
      "type": "function"
    },
    {
      "inputs": [
        {
          "internalType": "uint256",
          "name": "_factor",
          "type": "uint256"
        }
      ],
      "name": "setCollateralFactor",
      "outputs": [],
      "stateMutability": "nonpayable",
      "type": "function"
    },
    {
      "inputs": [
        {
          "internalType": "uint256",
          "name": "_payoff",
          "type": "uint256"
        }
      ],
      "name": "checkCapacity",
      "outputs": [
        {
          "internalType": "bool",
          "name": "",
          "type": "bool"
        }
      ],
      "stateMutability": "view",
      "type": "function",
      "constant": true
    },
    {
      "inputs": [
        {
          "internalType": "address",
          "name": "_userAddress",
          "type": "address"
        },
        {
          "internalType": "uint256",
          "name": "_amount",
          "type": "uint256"
        }
      ],
      "name": "stake",
      "outputs": [],
      "stateMutability": "nonpayable",
      "type": "function"
    },
    {
      "inputs": [
        {
          "internalType": "address",
          "name": "_userAddress",
          "type": "address"
        },
        {
          "internalType": "uint256",
          "name": "_amount",
          "type": "uint256"
        }
      ],
      "name": "unstake",
      "outputs": [],
      "stateMutability": "nonpayable",
      "type": "function"
    },
    {
      "inputs": [
        {
          "internalType": "address",
          "name": "_userAddress",
          "type": "address"
        }
      ],
      "name": "unstakeMax",
      "outputs": [],
      "stateMutability": "nonpayable",
      "type": "function"
    },
    {
      "inputs": [
        {
          "internalType": "uint256",
          "name": "_premium",
          "type": "uint256"
        },
        {
          "internalType": "uint256",
          "name": "_payoff",
          "type": "uint256"
        },
        {
          "internalType": "address",
          "name": "_userAddress",
          "type": "address"
        }
      ],
      "name": "updateWhenBuy",
      "outputs": [],
      "stateMutability": "nonpayable",
      "type": "function"
    },
    {
      "inputs": [
        {
          "internalType": "uint256",
          "name": "_premium",
          "type": "uint256"
        },
        {
          "internalType": "uint256",
          "name": "_payoff",
          "type": "uint256"
        },
        {
          "internalType": "address",
          "name": "_userAddress",
          "type": "address"
        }
      ],
      "name": "updateWhenExpire",
      "outputs": [],
      "stateMutability": "nonpayable",
      "type": "function"
    },
    {
      "inputs": [
        {
          "internalType": "uint256",
          "name": "_premium",
          "type": "uint256"
        },
        {
          "internalType": "uint256",
          "name": "_payoff",
          "type": "uint256"
        },
        {
          "internalType": "uint256",
          "name": "_realPayoff",
          "type": "uint256"
        },
        {
          "internalType": "address",
          "name": "_userAddress",
          "type": "address"
        }
      ],
      "name": "payClaim",
      "outputs": [],
      "stateMutability": "nonpayable",
      "type": "function"
    },
    {
      "inputs": [
        {
          "internalType": "address",
          "name": "_userAddress",
          "type": "address"
        }
      ],
      "name": "revertUnstakeRequest",
      "outputs": [],
      "stateMutability": "nonpayable",
      "type": "function"
    },
    {
      "inputs": [
        {
          "internalType": "address",
          "name": "_userAddress",
          "type": "address"
        }
      ],
      "name": "revertAllUnstakeRequest",
      "outputs": [],
      "stateMutability": "nonpayable",
      "type": "function"
    }
  ],
  "bytecode": "0x608060405262093a806002553480156200001857600080fd5b50604051620050243803806200502483398181016040528101906200003e919062000436565b33601160006101000a81548173ffffffffffffffffffffffffffffffffffffffff021916908373ffffffffffffffffffffffffffffffffffffffff160217905550620000926064806200026360201b60201c565b600b81905550670de0b6b3a7640000600a8190555084601260006101000a81548173ffffffffffffffffffffffffffffffffffffffff021916908373ffffffffffffffffffffffffffffffffffffffff16021790555080601360006101000a81548173ffffffffffffffffffffffffffffffffffffffff021916908373ffffffffffffffffffffffffffffffffffffffff16021790555082601560006101000a81548173ffffffffffffffffffffffffffffffffffffffff021916908373ffffffffffffffffffffffffffffffffffffffff16021790555083601460006101000a81548173ffffffffffffffffffffffffffffffffffffffff021916908373ffffffffffffffffffffffffffffffffffffffff16021790555081601660006101000a81548173ffffffffffffffffffffffffffffffffffffffff021916908373ffffffffffffffffffffffffffffffffffffffff160217905550670de0b6b3a76400006006819055506032600e600060038110620002155762000214620004be565b5b01819055506028600e600160038110620002345762000233620004be565b5b0181905550600a600e600260038110620002535762000252620004be565b5b0181905550505050505062000564565b60006200027c83836200028460201b6200242d1760201c565b905092915050565b6000620002a683670de0b6b3a764000084620002ae60201b6200244a1760201c565b905092915050565b600080600080198587098587029250828110838203039150506000811415620002ef57838281620002e457620002e3620004ed565b5b0492505050620003c5565b838110620003385780846040517f773cc18c0000000000000000000000000000000000000000000000000000000081526004016200032f92919062000537565b60405180910390fd5b60008486880990508281118203915080830392506000600186190186169050808604955080840493506001818260000304019050808302841793506000600287600302189050808702600203810290508087026002038102905080870260020381029050808702600203810290508087026002038102905080870260020381029050808502955050505050505b9392505050565b600080fd5b600073ffffffffffffffffffffffffffffffffffffffff82169050919050565b6000620003fe82620003d1565b9050919050565b6200041081620003f1565b81146200041c57600080fd5b50565b600081519050620004308162000405565b92915050565b600080600080600060a08688031215620004555762000454620003cc565b5b600062000465888289016200041f565b955050602062000478888289016200041f565b94505060406200048b888289016200041f565b93505060606200049e888289016200041f565b9250506080620004b1888289016200041f565b9150509295509295909350565b7f4e487b7100000000000000000000000000000000000000000000000000000000600052603260045260246000fd5b7f4e487b7100000000000000000000000000000000000000000000000000000000600052601260045260246000fd5b6000819050919050565b62000531816200051c565b82525050565b60006040820190506200054e600083018562000526565b6200055d602083018462000526565b9392505050565b614ab080620005746000396000f3fe608060405234801561001057600080fd5b50600436106102265760003560e01c8063a21bc3fb11610130578063c54e44eb116100b8578063df011c411161007c578063df011c411461062d578063e766c8351461064b578063ea1a767914610669578063f03816ea14610687578063fa4bc20a146106a357610226565b8063c54e44eb14610599578063cba9aa4f146105b7578063d8a9bdb7146105d5578063ddc2c185146105f3578063de2fbaba1461060f57610226565b8063b496991a116100ff578063b496991a14610509578063b5c2215714610527578063bf131f4b14610543578063bff9e65f1461055f578063c2a672e01461057d57610226565b8063a21bc3fb14610495578063a59b3645146104b3578063adc9772e146104d1578063b16091f1146104ed57610226565b806347734892116101b35780638863dd1a116101825780638863dd1a14610405578063887866bf146104215780638da5cb5b1461043f578063942465ed1461045d5780639e2e28b51461047957610226565b8063477348921461036b5780635c326caf1461039b5780637b80889b146103b75780637d36f766146103d557610226565b806312fa0d7a116101fa57806312fa0d7a146102b557806317386915146102e55780632248ff53146103155780634020a4ad1461033157806343d387f81461034d57610226565b806216bd781461022b57806306fdde031461025b5780630bd35bbe146102795780630fb71df114610297575b600080fd5b6102456004803603810190610240919061399c565b6106bf565b60405161025291906139e4565b60405180910390f35b6102636106dd565b6040516102709190613a98565b60405180910390f35b610281610716565b60405161028e9190613b39565b60405180910390f35b61029f61073c565b6040516102ac9190613b63565b60405180910390f35b6102cf60048036038101906102ca9190613bbc565b610753565b6040516102dc9190613b63565b60405180910390f35b6102ff60048036038101906102fa9190613bbc565b61077d565b60405161030c9190613b63565b60405180910390f35b61032f600480360381019061032a919061399c565b6107b4565b005b61034b60048036038101906103469190613bbc565b610887565b005b610355610b4a565b6040516103629190613bf8565b60405180910390f35b61038560048036038101906103809190613bbc565b610b6e565b6040516103929190613b63565b60405180910390f35b6103b560048036038101906103b09190613bbc565b610c32565b005b6103bf610dae565b6040516103cc9190613b63565b60405180910390f35b6103ef60048036038101906103ea919061399c565b610db4565b6040516103fc9190613b63565b60405180910390f35b61041f600480360381019061041a9190613bbc565b610dcf565b005b610429610f70565b6040516104369190613c34565b60405180910390f35b610447610f96565b6040516104549190613bf8565b60405180910390f35b61047760048036038101906104729190613c4f565b610fbc565b005b610493600480360381019061048e9190613cb6565b611184565b005b61049d611369565b6040516104aa9190613b63565b60405180910390f35b6104bb61136f565b6040516104c89190613d2a565b60405180910390f35b6104eb60048036038101906104e69190613d45565b611395565b005b61050760048036038101906105029190613bbc565b61155c565b005b610511611826565b60405161051e9190613b63565b60405180910390f35b610541600480360381019061053c919061399c565b61182c565b005b61055d60048036038101906105589190613cb6565b611983565b005b610567611b14565b6040516105749190613da6565b60405180910390f35b61059760048036038101906105929190613d45565b611b3a565b005b6105a1611e54565b6040516105ae9190613de2565b60405180910390f35b6105bf611e7a565b6040516105cc9190613b63565b60405180910390f35b6105dd611e80565b6040516105ea9190613b63565b60405180910390f35b61060d6004803603810190610608919061399c565b611e86565b005b610617611f57565b6040516106249190613b63565b60405180910390f35b610635611f5d565b6040516106429190613b63565b60405180910390f35b610653611f63565b6040516106609190613b63565b60405180910390f35b610671611f69565b60405161067e9190613b63565b60405180910390f35b6106a1600480360381019061069c9190613bbc565b611f6f565b005b6106bd60048036038101906106b89190613f33565b61221f565b005b600081600c54106106d357600190506106d8565b600090505b919050565b6040518060400160405280601f81526020017f446567697320466c6967687444656c617920496e737572616e6365506f6f6c0081525081565b601260009054906101000a900473ffffffffffffffffffffffffffffffffffffffff1681565b600060095460075461074e9190613f8f565b905090565b60008061075f83610b6e565b905080600c54101561077357600c54610775565b805b915050919050565b60008061078983610b6e565b9050670de0b6b3a764000081600a546107a29190613fc3565b6107ac919061404c565b915050919050565b601160009054906101000a900473ffffffffffffffffffffffffffffffffffffffff1673ffffffffffffffffffffffffffffffffffffffff163373ffffffffffffffffffffffffffffffffffffffff1614610844576040517f08c379a000000000000000000000000000000000000000000000000000000000815260040161083b906140ef565b60405180910390fd5b806001819055507f0f128d1654eb3fcd6ad9b6dfa8add12cc1eb853cd46ca634e0111b200b14027b428260405161087c92919061410f565b60405180910390a150565b80600073ffffffffffffffffffffffffffffffffffffffff168173ffffffffffffffffffffffffffffffffffffffff1614156108f8576040517f08c379a00000000000000000000000000000000000000000000000000000000081526004016108ef90614184565b60405180910390fd5b8173ffffffffffffffffffffffffffffffffffffffff163373ffffffffffffffffffffffffffffffffffffffff16148061097f5750601160009054906101000a900473ffffffffffffffffffffffffffffffffffffffff1673ffffffffffffffffffffffffffffffffffffffff163373ffffffffffffffffffffffffffffffffffffffff16145b6109be576040517f08c379a00000000000000000000000000000000000000000000000000000000081526004016109b590614216565b60405180910390fd5b6000600460008473ffffffffffffffffffffffffffffffffffffffff1673ffffffffffffffffffffffffffffffffffffffff16815260200190815260200160002090506000818054905011610a48576040517f08c379a0000000000000000000000000000000000000000000000000000000008152600401610a3f906142a8565b60405180910390fd5b610a5183612560565b600460008473ffffffffffffffffffffffffffffffffffffffff1673ffffffffffffffffffffffffffffffffffffffff1681526020019081526020016000206000610a9c91906138f8565b6000600360008573ffffffffffffffffffffffffffffffffffffffff1673ffffffffffffffffffffffffffffffffffffffff1681526020019081526020016000206001015490508060086000828254610af591906142c8565b925050819055506000600360008673ffffffffffffffffffffffffffffffffffffffff1673ffffffffffffffffffffffffffffffffffffffff1681526020019081526020016000206001018190555050505050565b60008054906101000a900473ffffffffffffffffffffffffffffffffffffffff1681565b600080601560009054906101000a900473ffffffffffffffffffffffffffffffffffffffff1673ffffffffffffffffffffffffffffffffffffffff166370a08231846040518263ffffffff1660e01b8152600401610bcc9190613bf8565b60206040518083038186803b158015610be457600080fd5b505afa158015610bf8573d6000803e3d6000fd5b505050506040513d601f19601f82011682018060405250810190610c1c9190614333565b9050610c2a816006546125ce565b915050919050565b601160009054906101000a900473ffffffffffffffffffffffffffffffffffffffff1673ffffffffffffffffffffffffffffffffffffffff163373ffffffffffffffffffffffffffffffffffffffff1614610cc2576040517f08c379a0000000000000000000000000000000000000000000000000000000008152600401610cb9906140ef565b60405180910390fd5b80600073ffffffffffffffffffffffffffffffffffffffff168173ffffffffffffffffffffffffffffffffffffffff161415610d33576040517f08c379a0000000000000000000000000000000000000000000000000000000008152600401610d2a90614184565b60405180910390fd5b816000806101000a81548173ffffffffffffffffffffffffffffffffffffffff021916908373ffffffffffffffffffffffffffffffffffffffff1602179055507fdf2f84a6be1c55031de30c910064a4d8ce6cf64f767b55c3e9647175a7885bb982604051610da29190613bf8565b60405180910390a15050565b60095481565b600e8160038110610dc457600080fd5b016000915090505481565b601160009054906101000a900473ffffffffffffffffffffffffffffffffffffffff1673ffffffffffffffffffffffffffffffffffffffff163373ffffffffffffffffffffffffffffffffffffffff1614610e5f576040517f08c379a0000000000000000000000000000000000000000000000000000000008152600401610e56906140ef565b60405180910390fd5b80600073ffffffffffffffffffffffffffffffffffffffff168173ffffffffffffffffffffffffffffffffffffffff161415610ed0576040517f08c379a0000000000000000000000000000000000000000000000000000000008152600401610ec790614184565b60405180910390fd5b81601160006101000a81548173ffffffffffffffffffffffffffffffffffffffff021916908373ffffffffffffffffffffffffffffffffffffffff1602179055507fb532073b38c83145e3e5135377a08bf9aab55bc0fd7c1179cd4fb995d2a5159c601160009054906101000a900473ffffffffffffffffffffffffffffffffffffffff1683604051610f64929190614360565b60405180910390a15050565b601560009054906101000a900473ffffffffffffffffffffffffffffffffffffffff1681565b601160009054906101000a900473ffffffffffffffffffffffffffffffffffffffff1681565b60008054906101000a900473ffffffffffffffffffffffffffffffffffffffff1673ffffffffffffffffffffffffffffffffffffffff163373ffffffffffffffffffffffffffffffffffffffff161461104a576040517f08c379a0000000000000000000000000000000000000000000000000000000008152600401611041906143fb565b60405180910390fd5b80600073ffffffffffffffffffffffffffffffffffffffff168173ffffffffffffffffffffffffffffffffffffffff1614156110bb576040517f08c379a00000000000000000000000000000000000000000000000000000000081526004016110b290614184565b60405180910390fd5b83600960008282546110cd9190613f8f565b9250508190555082600760008282546110e69190613f8f565b9250508190555082600860008282546110ff9190613f8f565b9250508190555084600d60008282546111189190613f8f565b92505081905550611128856125e2565b6111758284601360009054906101000a900473ffffffffffffffffffffffffffffffffffffffff1673ffffffffffffffffffffffffffffffffffffffff166128ba9092919063ffffffff16565b61117d612940565b5050505050565b60008054906101000a900473ffffffffffffffffffffffffffffffffffffffff1673ffffffffffffffffffffffffffffffffffffffff163373ffffffffffffffffffffffffffffffffffffffff1614611212576040517f08c379a0000000000000000000000000000000000000000000000000000000008152600401611209906143fb565b60405180910390fd5b600060015411156112ea57601260009054906101000a900473ffffffffffffffffffffffffffffffffffffffff1673ffffffffffffffffffffffffffffffffffffffff166340c10f19826001546040518363ffffffff1660e01b815260040161127c92919061441b565b600060405180830381600087803b15801561129657600080fd5b505af11580156112aa573d6000803e3d6000fd5b505050507fbbdda43fb538c1f6a8794546f04b7ce45519a90c6d8bef939c670855b64e66c7816001546040516112e192919061441b565b60405180910390a15b82600d60008282546112fc9190613f8f565b9250508190555081600960008282546113159190613f8f565b9250508190555081600c600082825461132e91906142c8565b9250508190555061133e836125e2565b60008290506000600580549050111561135b5761135a81612ab4565b5b611363612940565b50505050565b600c5481565b601460009054906101000a900473ffffffffffffffffffffffffffffffffffffffff1681565b81600073ffffffffffffffffffffffffffffffffffffffff168173ffffffffffffffffffffffffffffffffffffffff161415611406576040517f08c379a00000000000000000000000000000000000000000000000000000000081526004016113fd90614184565b60405180910390fd5b81601360009054906101000a900473ffffffffffffffffffffffffffffffffffffffff1673ffffffffffffffffffffffffffffffffffffffff166370a08231856040518263ffffffff1660e01b81526004016114629190613bf8565b60206040518083038186803b15801561147a57600080fd5b505afa15801561148e573d6000803e3d6000fd5b505050506040513d601f19601f820116820180604052508101906114b29190614333565b101580156114c05750600082115b6114ff576040517f08c379a00000000000000000000000000000000000000000000000000000000081526004016114f6906144b6565b60405180910390fd5b6115098383612f3b565b8273ffffffffffffffffffffffffffffffffffffffff167febedb8b3c678666e7f36970bc8f57abf6d8fa2e828c0da91ea5b75bf68ed101a8360405161154f9190613b63565b60405180910390a2505050565b80600073ffffffffffffffffffffffffffffffffffffffff168173ffffffffffffffffffffffffffffffffffffffff1614156115cd576040517f08c379a00000000000000000000000000000000000000000000000000000000081526004016115c490614184565b60405180910390fd5b81600254600360008373ffffffffffffffffffffffffffffffffffffffff1673ffffffffffffffffffffffffffffffffffffffff1681526020019081526020016000206000015461161e91906142c8565b421015611660576040517f08c379a000000000000000000000000000000000000000000000000000000000815260040161165790614548565b60405180910390fd5b600061166b84610b6e565b9050600061167761073c565b905060008290508183111561181457600082846116949190613f8f565b9050600460008873ffffffffffffffffffffffffffffffffffffffff1673ffffffffffffffffffffffffffffffffffffffff168152602001908152602001600020604051806060016040528083815260200160008152602001600015158152509080600181540180825580915050600190039060005260206000209060030201600090919091909150600082015181600001556020820151816001015560408201518160020160006101000a81548160ff02191690831515021790555050506005879080600181540180825580915050600190039060005260206000200160009091909190916101000a81548173ffffffffffffffffffffffffffffffffffffffff021916908373ffffffffffffffffffffffffffffffffffffffff16021790555082915080600360008973ffffffffffffffffffffffffffffffffffffffff1673ffffffffffffffffffffffffffffffffffffffff168152602001908152602001600020600101600082825461180b91906142c8565b92505081905550505b61181e8682613148565b505050505050565b60015481565b601160009054906101000a900473ffffffffffffffffffffffffffffffffffffffff1673ffffffffffffffffffffffffffffffffffffffff163373ffffffffffffffffffffffffffffffffffffffff16146118bc576040517f08c379a00000000000000000000000000000000000000000000000000000000081526004016118b3906140ef565b60405180910390fd5b600081116118ff576040517f08c379a00000000000000000000000000000000000000000000000000000000081526004016118f6906145da565b60405180910390fd5b61190a81606461330c565b600b81905550601160009054906101000a900473ffffffffffffffffffffffffffffffffffffffff1673ffffffffffffffffffffffffffffffffffffffff167fbec5c0c9ba59b8a8e6027f690946fd83fc4f7586213749371d827d228f1df966826040516119789190613b63565b60405180910390a250565b60008054906101000a900473ffffffffffffffffffffffffffffffffffffffff1673ffffffffffffffffffffffffffffffffffffffff163373ffffffffffffffffffffffffffffffffffffffff1614611a11576040517f08c379a0000000000000000000000000000000000000000000000000000000008152600401611a08906143fb565b60405180910390fd5b8160096000828254611a2391906142c8565b9250508190555082600d6000828254611a3c91906142c8565b9250508190555081600c6000828254611a559190613f8f565b92505081905550611a6a60095460075461330c565b600a81905550611abf813085601360009054906101000a900473ffffffffffffffffffffffffffffffffffffffff1673ffffffffffffffffffffffffffffffffffffffff16613320909392919063ffffffff16565b8073ffffffffffffffffffffffffffffffffffffffff167f48a70649351698478f15267ca75cb3da80814ac5087d87178c657801b662fa968484604051611b0792919061410f565b60405180910390a2505050565b601660009054906101000a900473ffffffffffffffffffffffffffffffffffffffff1681565b81600073ffffffffffffffffffffffffffffffffffffffff168173ffffffffffffffffffffffffffffffffffffffff161415611bab576040517f08c379a0000000000000000000000000000000000000000000000000000000008152600401611ba290614184565b60405180910390fd5b82600254600360008373ffffffffffffffffffffffffffffffffffffffff1673ffffffffffffffffffffffffffffffffffffffff16815260200190815260200160002060000154611bfc91906142c8565b421015611c3e576040517f08c379a0000000000000000000000000000000000000000000000000000000008152600401611c3590614548565b60405180910390fd5b6000611c4985610b6e565b9050808411158015611c5b5750600084115b611c9a576040517f08c379a0000000000000000000000000000000000000000000000000000000008152600401611c919061466c565b60405180910390fd5b6000611ca461073c565b9050600085905081861115611e415760008287611cc19190613f8f565b9050600460008973ffffffffffffffffffffffffffffffffffffffff1673ffffffffffffffffffffffffffffffffffffffff168152602001908152602001600020604051806060016040528083815260200160008152602001600015158152509080600181540180825580915050600190039060005260206000209060030201600090919091909150600082015181600001556020820151816001015560408201518160020160006101000a81548160ff02191690831515021790555050506005889080600181540180825580915050600190039060005260206000200160009091909190916101000a81548173ffffffffffffffffffffffffffffffffffffffff021916908373ffffffffffffffffffffffffffffffffffffffff16021790555082915080600360008a73ffffffffffffffffffffffffffffffffffffffff1673ffffffffffffffffffffffffffffffffffffffff1681526020019081526020016000206001016000828254611e3891906142c8565b92505081905550505b611e4b8782613148565b50505050505050565b601360009054906101000a900473ffffffffffffffffffffffffffffffffffffffff1681565b60065481565b60085481565b601160009054906101000a900473ffffffffffffffffffffffffffffffffffffffff1673ffffffffffffffffffffffffffffffffffffffff163373ffffffffffffffffffffffffffffffffffffffff1614611f16576040517f08c379a0000000000000000000000000000000000000000000000000000000008152600401611f0d906140ef565b60405180910390fd5b806002819055507f8c113b91cba5feeda528be3f32ccc4a60f841f93e472038c73aaa0dd4be78dd281604051611f4c9190613b63565b60405180910390a150565b600a5481565b600b5481565b60075481565b600d5481565b80600073ffffffffffffffffffffffffffffffffffffffff168173ffffffffffffffffffffffffffffffffffffffff161415611fe0576040517f08c379a0000000000000000000000000000000000000000000000000000000008152600401611fd790614184565b60405180910390fd5b8173ffffffffffffffffffffffffffffffffffffffff163373ffffffffffffffffffffffffffffffffffffffff1614806120675750601160009054906101000a900473ffffffffffffffffffffffffffffffffffffffff1673ffffffffffffffffffffffffffffffffffffffff163373ffffffffffffffffffffffffffffffffffffffff16145b6120a6576040517f08c379a000000000000000000000000000000000000000000000000000000000815260040161209d90614216565b60405180910390fd5b6000600460008473ffffffffffffffffffffffffffffffffffffffff1673ffffffffffffffffffffffffffffffffffffffff16815260200190815260200160002090506000818054905011612130576040517f08c379a0000000000000000000000000000000000000000000000000000000008152600401612127906142a8565b60405180910390fd5b6000600182805490506121439190613f8f565b9050600082828154811061215a5761215961468c565b5b90600052602060002090600302016001015483838154811061217f5761217e61468c565b5b90600052602060002090600302016000015461219b9190613f8f565b905080600860008282546121af91906142c8565b9250508190555080600360008773ffffffffffffffffffffffffffffffffffffffff1673ffffffffffffffffffffffffffffffffffffffff16815260200190815260200160002060010160008282546122089190613f8f565b92505081905550612218856133a9565b5050505050565b601160009054906101000a900473ffffffffffffffffffffffffffffffffffffffff1673ffffffffffffffffffffffffffffffffffffffff163373ffffffffffffffffffffffffffffffffffffffff16146122af576040517f08c379a00000000000000000000000000000000000000000000000000000000081526004016122a6906140ef565b60405180910390fd5b6000816002600381106122c5576122c461468c565b5b6020020151826001600381106122de576122dd61468c565b5b6020020151836000600381106122f7576122f661468c565b5b602002015161230691906142c8565b61231091906142c8565b905060648114612355576040517f08c379a000000000000000000000000000000000000000000000000000000000815260040161234c9061472d565b60405180910390fd5b60005b60038110156123a5578281600381106123745761237361468c565b5b6020020151600e826003811061238d5761238c61468c565b5b0181905550808061239d9061474d565b915050612358565b507f20f74d31c64135b35b1b3b45e66b4368481f4c7bfba5d9e7c3deba0e4ec3d8d5826000600381106123db576123da61468c565b5b6020020151836001600381106123f4576123f361468c565b5b60200201518460026003811061240d5761240c61468c565b5b602002015160405161242193929190614796565b60405180910390a15050565b600061244283670de0b6b3a76400008461244a565b905092915050565b6000806000801985870985870292508281108382030391505060008114156124865783828161247c5761247b61401d565b5b0492505050612559565b8381106124cc5780846040517f773cc18c0000000000000000000000000000000000000000000000000000000081526004016124c392919061410f565b60405180910390fd5b60008486880990508281118203915080830392506000600186190186169050808604955080840493506001818260000304019050808302841793506000600287600302189050808702600203810290508087026002038102905080870260020381029050808702600203810290508087026002038102905080870260020381029050808502955050505050505b9392505050565b60005b600460008373ffffffffffffffffffffffffffffffffffffffff1673ffffffffffffffffffffffffffffffffffffffff168152602001908152602001600020805490508110156125ca576125b6826133a9565b6001816125c391906142c8565b9050612563565b5050565b60006125da8383613579565b905092915050565b6000670de0b6b3a764000061260e600e6001600381106126055761260461468c565b5b0154606461330c565b836126199190613fc3565b612623919061404c565b90506000670de0b6b3a7640000612651600e6002600381106126485761264761468c565b5b0154606461330c565b8461265c9190613fc3565b612666919061404c565b90506126d7601460009054906101000a900473ffffffffffffffffffffffffffffffffffffffff1682601360009054906101000a900473ffffffffffffffffffffffffffffffffffffffff1673ffffffffffffffffffffffffffffffffffffffff166128ba9092919063ffffffff16565b612746601660009054906101000a900473ffffffffffffffffffffffffffffffffffffffff1683601360009054906101000a900473ffffffffffffffffffffffffffffffffffffffff1673ffffffffffffffffffffffffffffffffffffffff166128ba9092919063ffffffff16565b6000601660009054906101000a900473ffffffffffffffffffffffffffffffffffffffff1673ffffffffffffffffffffffffffffffffffffffff166380a061606040518163ffffffff1660e01b8152600401602060405180830381600087803b1580156127b257600080fd5b505af11580156127c6573d6000803e3d6000fd5b505050506040513d601f19601f820116820180604052508101906127ea9190614333565b9050601660009054906101000a900473ffffffffffffffffffffffffffffffffffffffff1673ffffffffffffffffffffffffffffffffffffffff1663471aeab482856040518363ffffffff1660e01b815260040161284992919061410f565b600060405180830381600087803b15801561286357600080fd5b505af1158015612877573d6000803e3d6000fd5b505050507f9761fc045fbd64d3df258b9138e72c435856255787dfef0428a74ead73954fb482846040516128ac92919061410f565b60405180910390a150505050565b61293b8363a9059cbb60e01b84846040516024016128d992919061441b565b604051602081830303815290604052907bffffffffffffffffffffffffffffffffffffffffffffffffffffffff19166020820180517bffffffffffffffffffffffffffffffffffffffffffffffffffffffff838183161783525050505061358d565b505050565b6000601560009054906101000a900473ffffffffffffffffffffffffffffffffffffffff1673ffffffffffffffffffffffffffffffffffffffff166318160ddd6040518163ffffffff1660e01b815260040160206040518083038186803b1580156129aa57600080fd5b505afa1580156129be573d6000803e3d6000fd5b505050506040513d601f19601f820116820180604052508101906129e29190614333565b90506000601360009054906101000a900473ffffffffffffffffffffffffffffffffffffffff1673ffffffffffffffffffffffffffffffffffffffff166370a08231306040518263ffffffff1660e01b8152600401612a419190613bf8565b60206040518083038186803b158015612a5957600080fd5b505afa158015612a6d573d6000803e3d6000fd5b505050506040513d601f19601f82011682018060405250810190612a919190614333565b9050612aaa600d5482612aa49190613f8f565b8361330c565b6006819055505050565b6000806001600580549050612ac99190613f8f565b90505b60008110612f365760008310612f1d57600060058281548110612af257612af161468c565b5b9060005260206000200160009054906101000a900473ffffffffffffffffffffffffffffffffffffffff16905060005b600460008373ffffffffffffffffffffffffffffffffffffffff1673ffffffffffffffffffffffffffffffffffffffff16815260200190815260200160002080549050811015612f1657600460008373ffffffffffffffffffffffffffffffffffffffff1673ffffffffffffffffffffffffffffffffffffffff1681526020019081526020016000208181548110612bbd57612bbc61468c565b5b906000526020600020906003020160000154935083851115612dfe578385612be59190613f8f565b945060005b6001600460008573ffffffffffffffffffffffffffffffffffffffff1673ffffffffffffffffffffffffffffffffffffffff16815260200190815260200160002080549050612c399190613f8f565b811015612d6257600460008473ffffffffffffffffffffffffffffffffffffffff1673ffffffffffffffffffffffffffffffffffffffff168152602001908152602001600020600182612c8c91906142c8565b81548110612c9d57612c9c61468c565b5b9060005260206000209060030201600460008573ffffffffffffffffffffffffffffffffffffffff1673ffffffffffffffffffffffffffffffffffffffff1681526020019081526020016000208281548110612cfc57612cfb61468c565b5b906000526020600020906003020160008201548160000155600182015481600101556002820160009054906101000a900460ff168160020160006101000a81548160ff021916908315150217905550905050600181612d5b91906142c8565b9050612bea565b50600460008373ffffffffffffffffffffffffffffffffffffffff1673ffffffffffffffffffffffffffffffffffffffff168152602001908152602001600020805480612db257612db16147cd565b5b600190038181906000526020600020906003020160008082016000905560018201600090556002820160006101000a81549060ff021916905550509055612df98285613148565b612f03565b84600460008473ffffffffffffffffffffffffffffffffffffffff1673ffffffffffffffffffffffffffffffffffffffff1681526020019081526020016000208281548110612e5057612e4f61468c565b5b90600052602060002090600302016000016000828254612e709190613f8f565b9250508190555084600460008473ffffffffffffffffffffffffffffffffffffffff1673ffffffffffffffffffffffffffffffffffffffff1681526020019081526020016000208281548110612ec957612ec861468c565b5b90600052602060002090600302016001016000828254612ee991906142c8565b92505081905550612efa8286613148565b60009450612f16565b8080612f0e9061474d565b915050612b22565b5050612f22565b612f36565b600181612f2f9190613f8f565b9050612acc565b505050565b6000670de0b6b3a7640000600b5483612f549190613fc3565b612f5e919061404c565b90508160076000828254612f7291906142c8565b925050819055508160086000828254612f8b91906142c8565b9250508190555080600c6000828254612fa491906142c8565b92505081905550612fb960095460075461330c565b600a8190555061300e833084601360009054906101000a900473ffffffffffffffffffffffffffffffffffffffff1673ffffffffffffffffffffffffffffffffffffffff16613320909392919063ffffffff16565b600061301c8360065461330c565b9050601560009054906101000a900473ffffffffffffffffffffffffffffffffffffffff1673ffffffffffffffffffffffffffffffffffffffff166340c10f1985836040518363ffffffff1660e01b815260040161307b92919061441b565b600060405180830381600087803b15801561309557600080fd5b505af11580156130a9573d6000803e3d6000fd5b5050505042600360008673ffffffffffffffffffffffffffffffffffffffff1673ffffffffffffffffffffffffffffffffffffffff168152602001908152602001600020600001819055508373ffffffffffffffffffffffffffffffffffffffff167febedb8b3c678666e7f36970bc8f57abf6d8fa2e828c0da91ea5b75bf68ed101a8460405161313a9190613b63565b60405180910390a250505050565b6000670de0b6b3a7640000600b54836131619190613fc3565b61316b919061404c565b9050816007600082825461317f9190613f8f565b9250508190555081600860008282546131989190613f8f565b9250508190555080600c60008282546131b19190613f8f565b925050819055506131c660095460075461330c565b600a819055506132198383601360009054906101000a900473ffffffffffffffffffffffffffffffffffffffff1673ffffffffffffffffffffffffffffffffffffffff166128ba9092919063ffffffff16565b60006132278360065461330c565b9050601560009054906101000a900473ffffffffffffffffffffffffffffffffffffffff1673ffffffffffffffffffffffffffffffffffffffff16639dc29fac85836040518363ffffffff1660e01b815260040161328692919061441b565b600060405180830381600087803b1580156132a057600080fd5b505af11580156132b4573d6000803e3d6000fd5b505050508373ffffffffffffffffffffffffffffffffffffffff167f85082129d87b2fe11527cb1b3b7a520aeb5aa6913f88a3d8757fe40d1db02fdd846040516132fe9190613b63565b60405180910390a250505050565b6000613318838361242d565b905092915050565b6133a3846323b872dd60e01b858585604051602401613341939291906147fc565b604051602081830303815290604052907bffffffffffffffffffffffffffffffffffffffffffffffffffffffff19166020820180517bffffffffffffffffffffffffffffffffffffffffffffffffffffffff838183161783525050505061358d565b50505050565b600060016005805490506133bd9190613f8f565b90505b60008110613453578173ffffffffffffffffffffffffffffffffffffffff16600582815481106133f3576133f261468c565b5b9060005260206000200160009054906101000a900473ffffffffffffffffffffffffffffffffffffffff1673ffffffffffffffffffffffffffffffffffffffff16141561343f57613453565b60018161344c9190613f8f565b90506133c0565b60008190505b600160058054905061346b9190613f8f565b81101561352d57600560018261348191906142c8565b815481106134925761349161468c565b5b9060005260206000200160009054906101000a900473ffffffffffffffffffffffffffffffffffffffff16600582815481106134d1576134d061468c565b5b9060005260206000200160006101000a81548173ffffffffffffffffffffffffffffffffffffffff021916908373ffffffffffffffffffffffffffffffffffffffff16021790555060018161352691906142c8565b9050613459565b5060058054806135405761353f6147cd565b5b6001900381819060005260206000200160006101000a81549073ffffffffffffffffffffffffffffffffffffffff021916905590555050565b60006135858383613654565b905092915050565b60006135ef826040518060400160405280602081526020017f5361666545524332303a206c6f772d6c6576656c2063616c6c206661696c65648152508573ffffffffffffffffffffffffffffffffffffffff166137529092919063ffffffff16565b905060008151111561364f578080602001905181019061360f919061485f565b61364e576040517f08c379a0000000000000000000000000000000000000000000000000000000008152600401613645906148fe565b60405180910390fd5b5b505050565b60008060008019848609848602925082811083820303915050670de0b6b3a764000081106136b957806040517fd31b34020000000000000000000000000000000000000000000000000000000081526004016136b09190613b63565b60405180910390fd5b600080670de0b6b3a764000086880991506706f05b59d3b1ffff8211905060008314156137065780670de0b6b3a764000085816136f9576136f861401d565b5b040194505050505061374c565b807faccb18165bd6fe31ae1cf318dc5b51eee0e1ba569b88cd74c1773b91fac1066960016204000080600003040186851186030262040000858803041702019450505050505b92915050565b6060613761848460008561376a565b90509392505050565b6060824710156137af576040517f08c379a00000000000000000000000000000000000000000000000000000000081526004016137a690614990565b60405180910390fd5b6137b88561387e565b6137f7576040517f08c379a00000000000000000000000000000000000000000000000000000000081526004016137ee906149fc565b60405180910390fd5b6000808673ffffffffffffffffffffffffffffffffffffffff1685876040516138209190614a63565b60006040518083038185875af1925050503d806000811461385d576040519150601f19603f3d011682016040523d82523d6000602084013e613862565b606091505b5091509150613872828286613891565b92505050949350505050565b600080823b905060008111915050919050565b606083156138a1578290506138f1565b6000835111156138b45782518084602001fd5b816040517f08c379a00000000000000000000000000000000000000000000000000000000081526004016138e89190613a98565b60405180910390fd5b9392505050565b5080546000825560030290600052602060002090810190613919919061391c565b50565b5b808211156139535760008082016000905560018201600090556002820160006101000a81549060ff02191690555060030161391d565b5090565b6000604051905090565b600080fd5b6000819050919050565b61397981613966565b811461398457600080fd5b50565b60008135905061399681613970565b92915050565b6000602082840312156139b2576139b1613961565b5b60006139c084828501613987565b91505092915050565b60008115159050919050565b6139de816139c9565b82525050565b60006020820190506139f960008301846139d5565b92915050565b600081519050919050565b600082825260208201905092915050565b60005b83811015613a39578082015181840152602081019050613a1e565b83811115613a48576000848401525b50505050565b6000601f19601f8301169050919050565b6000613a6a826139ff565b613a748185613a0a565b9350613a84818560208601613a1b565b613a8d81613a4e565b840191505092915050565b60006020820190508181036000830152613ab28184613a5f565b905092915050565b600073ffffffffffffffffffffffffffffffffffffffff82169050919050565b6000819050919050565b6000613aff613afa613af584613aba565b613ada565b613aba565b9050919050565b6000613b1182613ae4565b9050919050565b6000613b2382613b06565b9050919050565b613b3381613b18565b82525050565b6000602082019050613b4e6000830184613b2a565b92915050565b613b5d81613966565b82525050565b6000602082019050613b786000830184613b54565b92915050565b6000613b8982613aba565b9050919050565b613b9981613b7e565b8114613ba457600080fd5b50565b600081359050613bb681613b90565b92915050565b600060208284031215613bd257613bd1613961565b5b6000613be084828501613ba7565b91505092915050565b613bf281613b7e565b82525050565b6000602082019050613c0d6000830184613be9565b92915050565b6000613c1e82613b06565b9050919050565b613c2e81613c13565b82525050565b6000602082019050613c496000830184613c25565b92915050565b60008060008060808587031215613c6957613c68613961565b5b6000613c7787828801613987565b9450506020613c8887828801613987565b9350506040613c9987828801613987565b9250506060613caa87828801613ba7565b91505092959194509250565b600080600060608486031215613ccf57613cce613961565b5b6000613cdd86828701613987565b9350506020613cee86828701613987565b9250506040613cff86828701613ba7565b9150509250925092565b6000613d1482613b06565b9050919050565b613d2481613d09565b82525050565b6000602082019050613d3f6000830184613d1b565b92915050565b60008060408385031215613d5c57613d5b613961565b5b6000613d6a85828601613ba7565b9250506020613d7b85828601613987565b9150509250929050565b6000613d9082613b06565b9050919050565b613da081613d85565b82525050565b6000602082019050613dbb6000830184613d97565b92915050565b6000613dcc82613b06565b9050919050565b613ddc81613dc1565b82525050565b6000602082019050613df76000830184613dd3565b92915050565b600080fd5b7f4e487b7100000000000000000000000000000000000000000000000000000000600052604160045260246000fd5b613e3a82613a4e565b810181811067ffffffffffffffff82111715613e5957613e58613e02565b5b80604052505050565b6000613e6c613957565b9050613e788282613e31565b919050565b600067ffffffffffffffff821115613e9857613e97613e02565b5b602082029050919050565b600080fd5b6000613ebb613eb684613e7d565b613e62565b90508060208402830185811115613ed557613ed4613ea3565b5b835b81811015613efe5780613eea8882613987565b845260208401935050602081019050613ed7565b5050509392505050565b600082601f830112613f1d57613f1c613dfd565b5b6003613f2a848285613ea8565b91505092915050565b600060608284031215613f4957613f48613961565b5b6000613f5784828501613f08565b91505092915050565b7f4e487b7100000000000000000000000000000000000000000000000000000000600052601160045260246000fd5b6000613f9a82613966565b9150613fa583613966565b925082821015613fb857613fb7613f60565b5b828203905092915050565b6000613fce82613966565b9150613fd983613966565b9250817fffffffffffffffffffffffffffffffffffffffffffffffffffffffffffffffff048311821515161561401257614011613f60565b5b828202905092915050565b7f4e487b7100000000000000000000000000000000000000000000000000000000600052601260045260246000fd5b600061405782613966565b915061406283613966565b9250826140725761407161401d565b5b828204905092915050565b7f4f6e6c7920746865206f776e65722063616e2063616c6c20746869732066756e60008201527f6374696f6e000000000000000000000000000000000000000000000000000000602082015250565b60006140d9602583613a0a565b91506140e48261407d565b604082019050919050565b60006020820190508181036000830152614108816140cc565b9050919050565b60006040820190506141246000830185613b54565b6141316020830184613b54565b9392505050565b7f43616e206e6f74206265207a65726f2061646472657373000000000000000000600082015250565b600061416e601783613a0a565b915061417982614138565b602082019050919050565b6000602082019050818103600083015261419d81614161565b9050919050565b7f4f6e6c7920746865206f776e6572206f722074686520757365722068696d736560008201527f6c662063616e2072657665727400000000000000000000000000000000000000602082015250565b6000614200602d83613a0a565b915061420b826141a4565b604082019050919050565b6000602082019050818103600083015261422f816141f3565b9050919050565b7f74686973207573657220686173206e6f2070656e64696e6720756e7374616b6560008201527f2072657175657374000000000000000000000000000000000000000000000000602082015250565b6000614292602883613a0a565b915061429d82614236565b604082019050919050565b600060208201905081810360008301526142c181614285565b9050919050565b60006142d382613966565b91506142de83613966565b9250827fffffffffffffffffffffffffffffffffffffffffffffffffffffffffffffffff0382111561431357614312613f60565b5b828201905092915050565b60008151905061432d81613970565b92915050565b60006020828403121561434957614348613961565b5b60006143578482850161431e565b91505092915050565b60006040820190506143756000830185613be9565b6143826020830184613be9565b9392505050565b7f4f6e6c792074686520706f6c696379466c6f7720636f6e74726163742063616e60008201527f2063616c6c20746869732066756e6374696f6e00000000000000000000000000602082015250565b60006143e5603383613a0a565b91506143f082614389565b604082019050919050565b60006020820190508181036000830152614414816143d8565b9050919050565b60006040820190506144306000830185613be9565b61443d6020830184613b54565b9392505050565b7f596f7520646f206e6f74206861766520656e6f75676820555344206f7220696e60008201527f707574203020616d6f756e740000000000000000000000000000000000000000602082015250565b60006144a0602c83613a0a565b91506144ab82614444565b604082019050919050565b600060208201905081810360008301526144cf81614493565b9050919050565b7f43616e206e6f7420776974686472617720756e74696c207468652066726f6e7a60008201527f656e2074696d6500000000000000000000000000000000000000000000000000602082015250565b6000614532602783613a0a565b915061453d826144d6565b604082019050919050565b6000602082019050818103600083015261456181614525565b9050919050565b7f436f6c6c61746572616c20466163746f722073686f756c64206265206c61726760008201527f6572207468616e20300000000000000000000000000000000000000000000000602082015250565b60006145c4602983613a0a565b91506145cf82614568565b604082019050919050565b600060208201905081810360008301526145f3816145b7565b9050919050565b7f4e6f7420656e6f7567682062616c616e636520746f20626520756e6c6f636b6560008201527f64206f7220796f757220776974686472617720616d6f756e7420697320300000602082015250565b6000614656603e83613a0a565b9150614661826145fa565b604082019050919050565b6000602082019050818103600083015261468581614649565b9050919050565b7f4e487b7100000000000000000000000000000000000000000000000000000000600052603260045260246000fd5b7f52657761726420646973747269627574696f6e206d7573742073756d20746f2060008201527f3130300000000000000000000000000000000000000000000000000000000000602082015250565b6000614717602383613a0a565b9150614722826146bb565b604082019050919050565b600060208201905081810360008301526147468161470a565b9050919050565b600061475882613966565b91507fffffffffffffffffffffffffffffffffffffffffffffffffffffffffffffffff82141561478b5761478a613f60565b5b600182019050919050565b60006060820190506147ab6000830186613b54565b6147b86020830185613b54565b6147c56040830184613b54565b949350505050565b7f4e487b7100000000000000000000000000000000000000000000000000000000600052603160045260246000fd5b60006060820190506148116000830186613be9565b61481e6020830185613be9565b61482b6040830184613b54565b949350505050565b61483c816139c9565b811461484757600080fd5b50565b60008151905061485981614833565b92915050565b60006020828403121561487557614874613961565b5b60006148838482850161484a565b91505092915050565b7f5361666545524332303a204552433230206f7065726174696f6e20646964206e60008201527f6f74207375636365656400000000000000000000000000000000000000000000602082015250565b60006148e8602a83613a0a565b91506148f38261488c565b604082019050919050565b60006020820190508181036000830152614917816148db565b9050919050565b7f416464726573733a20696e73756666696369656e742062616c616e636520666f60008201527f722063616c6c0000000000000000000000000000000000000000000000000000602082015250565b600061497a602683613a0a565b91506149858261491e565b604082019050919050565b600060208201905081810360008301526149a98161496d565b9050919050565b7f416464726573733a2063616c6c20746f206e6f6e2d636f6e7472616374000000600082015250565b60006149e6601d83613a0a565b91506149f1826149b0565b602082019050919050565b60006020820190508181036000830152614a15816149d9565b9050919050565b600081519050919050565b600081905092915050565b6000614a3d82614a1c565b614a478185614a27565b9350614a57818560208601613a1b565b80840191505092915050565b6000614a6f8284614a32565b91508190509291505056fea26469706673582212201f133fc80cfdb0a0a9a9c5ffd8d1881cf2652013ad515184c3dfb947e955669264736f6c63430008090033",
  "immutableReferences": {},
  "source": "// SPDX-License-Identifier: MIT\npragma solidity 0.8.9;\n\nimport \"@openzeppelin/contracts/token/ERC20/IERC20.sol\";\nimport \"@openzeppelin/contracts/token/ERC20/utils/SafeERC20.sol\";\nimport \"prb-math/contracts/PRBMathUD60x18.sol\";\nimport \"./InsurancePoolStore.sol\";\nimport \"./interfaces/IDegisToken.sol\";\nimport \"./interfaces/ILPToken.sol\";\nimport \"./interfaces/IEmergencyPool.sol\";\nimport \"./interfaces/IDegisLottery.sol\";\n\ncontract InsurancePool is InsurancePoolStore {\n    using PRBMathUD60x18 for uint256;\n    using SafeERC20 for IERC20;\n    // ---------------------------------------------------------------------------------------- //\n    // *********************************** State Variables ************************************ //\n    // ---------------------------------------------------------------------------------------- //\n    string public constant name = \"Degis FlightDelay InsurancePool\";\n\n    address public owner;\n\n    // ---------------------------------------------------------------------------------------- //\n    // *********************************** Other Contracts ************************************ //\n    // ---------------------------------------------------------------------------------------- //\n\n    IDegisToken public DEGIS;\n    IERC20 public USDT;\n    IEmergencyPool public emergencyPool;\n    ILPToken public DLPToken;\n    IDegisLottery public degisLottery;\n\n    // ---------------------------------------------------------------------------------------- //\n    // ************************************* Constructor ************************************** //\n    // ---------------------------------------------------------------------------------------- //\n\n    /**\n     * @notice Constructor function\n     * @param _degisToken Degis token address\n     * @param _emergencyPool Emergency pool address\n     * @param _lptoken LP token address\n     * @param _usdtAddress USDT address\n     */\n    constructor(\n        address _degisToken,\n        address _emergencyPool,\n        address _lptoken,\n        address _degisLottery,\n        address _usdtAddress\n    ) {\n        owner = msg.sender;\n\n        collateralFactor = _doDiv(100, 100);\n\n        lockedRatio = 1e18; // 1e18 = 1\n\n        DEGIS = IDegisToken(_degisToken);\n        USDT = IERC20(_usdtAddress);\n        DLPToken = ILPToken(_lptoken);\n        emergencyPool = IEmergencyPool(_emergencyPool);\n        degisLottery = IDegisLottery(_degisLottery);\n\n        // Initial LP Value\n        LPValue = 1e18;\n\n        // Initial distribution, 0: LP 1: Lottery 2: Emergency\n        rewardDistribution[0] = 50;\n        rewardDistribution[1] = 40;\n        rewardDistribution[2] = 10;\n    }\n\n    // ---------------------------------------------------------------------------------------- //\n    // ************************************** Modifiers *************************************** //\n    // ---------------------------------------------------------------------------------------- //\n\n    /**\n     * @notice Only the owner can call some functions\n     */\n    modifier onlyOwner() {\n        require(msg.sender == owner, \"Only the owner can call this function\");\n        _;\n    }\n\n    /**\n     * @notice Only the policyFlow contract can call some functions\n     */\n    modifier onlyPolicyFlow() {\n        require(\n            msg.sender == policyFlow,\n            \"Only the policyFlow contract can call this function\"\n        );\n        _;\n    }\n\n    /**\n     * @notice The address can not be zero\n     */\n    modifier notZeroAddress(address _address) {\n        require(_address != address(0), \"Can not be zero address\");\n        _;\n    }\n\n    /**\n     * @notice There is a frozen time for unstaking\n     */\n    modifier afterFrozenTime(address _userAddress) {\n        require(\n            block.timestamp >= userInfo[_userAddress].depositTime + frozenTime,\n            \"Can not withdraw until the fronzen time\"\n        );\n        _;\n    }\n\n    // ---------------------------------------------------------------------------------------- //\n    // ************************************ View Functions ************************************ //\n    // ---------------------------------------------------------------------------------------- //\n\n    /**\n     * @notice Get the real balance: LPValue * LP_Num\n     * @param _userAddress User's address\n     * @return userBalance Real balance of this user\n     */\n    function getUserBalance(address _userAddress)\n        public\n        view\n        returns (uint256 userBalance)\n    {\n        uint256 lp_num = DLPToken.balanceOf(_userAddress);\n        userBalance = _doMul(lp_num, LPValue);\n    }\n\n    /**\n     * @notice Get the balance that the pool can unlock (maximum)\n     */\n    function getPoolUnlocked() public view returns (uint256) {\n        return totalStakingBalance - lockedBalance;\n    }\n\n    /**\n     * @notice Get the balance that one user(LP) can unlock\n     * @param _userAddress User's address\n     * @return _unlockedAmount Unlocked amount of the pool\n     */\n    function getUnlockedFor(address _userAddress)\n        public\n        view\n        returns (uint256 _unlockedAmount)\n    {\n        uint256 userBalance = getUserBalance(_userAddress);\n        _unlockedAmount = availableCapacity >= userBalance\n            ? userBalance\n            : availableCapacity;\n    }\n\n    /**\n     * @notice Get the user's locked balance\n     * @param _userAddress User's address\n     * @return _locked User's locked balance (as the locked ratio)\n     */\n    function getLockedfor(address _userAddress)\n        public\n        view\n        returns (uint256 _locked)\n    {\n        uint256 userBalance = getUserBalance(_userAddress);\n        _locked = (lockedRatio * userBalance) / (1e18);\n    }\n\n    // ---------------------------------------------------------------------------------------- //\n    // ************************************ Owner Functions *********************************** //\n    // ---------------------------------------------------------------------------------------- //\n\n    /**\n     * @notice Set the purchase incentive amount\n     */\n    function setPurchaseIncentive(uint256 _purchaseIncentive)\n        external\n        onlyOwner\n    {\n        purchaseIncentiveAmount = _purchaseIncentive;\n        emit PurchaseIncentiveChanged(block.timestamp, _purchaseIncentive);\n    }\n\n    /**\n     * @notice Set a new frozen time\n     * @param _newFrozenTime New frozen time, in timestamp(s)\n     */\n    function setFrozenTime(uint256 _newFrozenTime) external onlyOwner {\n        frozenTime = _newFrozenTime;\n        emit SetFrozenTime(_newFrozenTime);\n    }\n\n    /**\n     * @notice Set the address of policyFlow\n     */\n    function setPolicyFlow(address _policyFlowAddress)\n        public\n        onlyOwner\n        notZeroAddress(_policyFlowAddress)\n    {\n        policyFlow = _policyFlowAddress;\n        emit SetPolicyFlow(_policyFlowAddress);\n    }\n\n    /**\n     * @notice Set the premium reward distribution\n     * @param _newDistribution New distribution [LP, Lottery, Emergency]\n     */\n    function setIncomeDistribution(uint256[3] memory _newDistribution)\n        public\n        onlyOwner\n    {\n        uint256 sum = _newDistribution[0] +\n            _newDistribution[1] +\n            _newDistribution[2];\n        require(sum == 100, \"Reward distribution must sum to 100\");\n\n        for (uint256 i = 0; i < 3; i++) {\n            rewardDistribution[i] = _newDistribution[i];\n        }\n        emit ChangeRewardDistribution(\n            _newDistribution[0],\n            _newDistribution[1],\n            _newDistribution[2]\n        );\n    }\n\n    /**\n     * @notice Transfer the ownership to a new owner\n     * @param _newOwner New owner address\n     */\n    function transferOwnerShip(address _newOwner)\n        public\n        onlyOwner\n        notZeroAddress(_newOwner)\n    {\n        owner = _newOwner;\n        emit OwnerChanged(owner, _newOwner);\n    }\n\n    /**\n     * @notice Change the collateral factor\n     * @param _factor The new collateral factor\n     */\n    function setCollateralFactor(uint256 _factor) public onlyOwner {\n        require(_factor > 0, \"Collateral Factor should be larger than 0\");\n        collateralFactor = _doDiv(_factor, 100);\n        emit ChangeCollateralFactor(owner, _factor);\n    }\n\n    // ---------------------------------------------------------------------------------------- //\n    // ************************************ Main Functions ************************************ //\n    // ---------------------------------------------------------------------------------------- //\n\n    /**\n     * @notice Check the conditions when receive new buying request\n     * @param _payoff Payoff of the policy to be bought\n     * @return Whether there is enough capacity in the pool for this payoff\n     */\n    function checkCapacity(uint256 _payoff) public view returns (bool) {\n        if (availableCapacity >= _payoff) {\n            return true;\n        } else {\n            return false;\n        }\n    }\n\n    /**\n     * @notice LPs stake assets into the pool\n     * @param _userAddress User(LP)'s address\n     * @param _amount The amount that the user want to stake\n     */\n    function stake(address _userAddress, uint256 _amount)\n        external\n        notZeroAddress(_userAddress)\n    {\n        require(\n            IERC20(USDT).balanceOf(_userAddress) >= _amount && _amount > 0,\n            \"You do not have enough USD or input 0 amount\"\n        );\n\n        _deposit(_userAddress, _amount);\n\n        emit Stake(_userAddress, _amount);\n    }\n\n    /**\n     * @notice Unstake from the pool (May fail if a claim happens before this operation)\n     * @param _userAddress User's address\n     * @param _amount The amount that the user want to unstake\n     */\n    function unstake(address _userAddress, uint256 _amount)\n        external\n        notZeroAddress(_userAddress)\n        afterFrozenTime(_userAddress)\n    {\n        uint256 userBalance = getUserBalance(_userAddress);\n        require(\n            _amount <= userBalance && _amount > 0,\n            \"Not enough balance to be unlocked or your withdraw amount is 0\"\n        );\n\n        uint256 unlocked = getPoolUnlocked();\n        uint256 unstakeAmount = _amount;\n\n        // Will jump this part when the pool has enough liquidity\n        if (_amount > unlocked) {\n            uint256 remainingURequest = _amount - unlocked;\n            unstakeRequests[_userAddress].push(\n                UnstakeRequest(remainingURequest, 0, false)\n            );\n            unstakeQueue.push(_userAddress);\n            unstakeAmount = unlocked; // only withdraw the unlocked value\n            userInfo[_userAddress].pendingBalance += remainingURequest;\n        }\n\n        _withdraw(_userAddress, unstakeAmount);\n    }\n\n    /**\n     * @notice Unstake the max amount of a user\n     * @param _userAddress User's address\n     */\n    function unstakeMax(address _userAddress)\n        external\n        notZeroAddress(_userAddress)\n        afterFrozenTime(_userAddress)\n    {\n        uint256 userBalance = getUserBalance(_userAddress);\n\n        uint256 unlocked = getPoolUnlocked();\n        uint256 unstakeAmount = userBalance;\n\n        // Will jump this part when the pool has enough liquidity\n        if (userBalance > unlocked) {\n            uint256 remainingURequest = userBalance - unlocked;\n            unstakeRequests[_userAddress].push(\n                UnstakeRequest(remainingURequest, 0, false)\n            );\n            unstakeQueue.push(_userAddress);\n            unstakeAmount = unlocked; // only withdraw the unlocked value\n            userInfo[_userAddress].pendingBalance += remainingURequest;\n        }\n\n        _withdraw(_userAddress, unstakeAmount);\n    }\n\n    /**\n     * @notice Update the pool variables when buying policies\n     * @dev Capacity check is done before calling this function\n     * @param _premium Policy's premium\n     * @param _payoff Policy's payoff (max payoff)\n     * @param _userAddress Address of the buyer\n     */\n    function updateWhenBuy(\n        uint256 _premium,\n        uint256 _payoff,\n        address _userAddress\n    ) external onlyPolicyFlow {\n        // Update pool status\n        lockedBalance += _payoff;\n        activePremiums += _premium;\n        availableCapacity -= _payoff;\n\n        // Update lockedRatio\n        lockedRatio = _doDiv(lockedBalance, totalStakingBalance);\n\n        // Remember approval\n        USDT.safeTransferFrom(_userAddress, address(this), _premium);\n\n        emit BuyNewPolicy(_userAddress, _premium, _payoff);\n    }\n\n    /**\n     * @notice Update the status when a policy expires\n     * @param _premium Policy's premium\n     * @param _payoff Policy's payoff (max payoff)\n     * @param _userAddress User's address\n     */\n    function updateWhenExpire(\n        uint256 _premium,\n        uint256 _payoff,\n        address _userAddress\n    ) external onlyPolicyFlow {\n        // Give purchase incentive when no payoff\n        if (purchaseIncentiveAmount > 0) {\n            DEGIS.mint(_userAddress, purchaseIncentiveAmount);\n            emit SendPurchaseIncentive(_userAddress, purchaseIncentiveAmount);\n        }\n\n        // Update pool status\n        activePremiums -= _premium;\n        lockedBalance -= _payoff;\n        availableCapacity += _payoff;\n\n        // Distribute the premium\n        _distributePremium(_premium);\n\n        // If there is any unstake request in the queue\n        uint256 remainingPayoff = _payoff;\n        if (unstakeQueue.length > 0) {\n            _dealUnstakeQueue(remainingPayoff);\n        }\n\n        _updateLPValue();\n    }\n\n    /**\n     * @notice Pay a claim\n     * @param _premium Premium of the policy\n     * @param _payoff Max payoff of the policy\n     * @param _realPayoff Real payoff of the policy\n     * @param _userAddress: Address of the policy claimer\n     */\n    function payClaim(\n        uint256 _premium,\n        uint256 _payoff,\n        uint256 _realPayoff,\n        address _userAddress\n    ) external onlyPolicyFlow notZeroAddress(_userAddress) {\n        // Update the pool status\n        lockedBalance -= _payoff;\n        totalStakingBalance -= _realPayoff;\n        realStakingBalance -= _realPayoff;\n        activePremiums -= _premium;\n\n        // Distribute the premium\n        _distributePremium(_premium);\n\n        // Pay the claim\n        USDT.safeTransfer(_userAddress, _realPayoff);\n\n        _updateLPValue();\n    }\n\n    /**\n     * @notice revert the last unstake request for a user\n     * @param _userAddress user's address\n     */\n    function revertUnstakeRequest(address _userAddress)\n        public\n        notZeroAddress(_userAddress)\n    {\n        require(\n            msg.sender == _userAddress || msg.sender == owner,\n            \"Only the owner or the user himself can revert\"\n        );\n\n        UnstakeRequest[] storage userRequests = unstakeRequests[_userAddress];\n        require(\n            userRequests.length > 0,\n            \"this user has no pending unstake request\"\n        );\n\n        uint256 index = userRequests.length - 1;\n        uint256 remainingRequest = userRequests[index].pendingAmount -\n            userRequests[index].fulfilledAmount;\n\n        realStakingBalance += remainingRequest;\n        userInfo[_userAddress].pendingBalance -= remainingRequest;\n\n        _removeOneRequest(_userAddress);\n    }\n\n    /**\n     * @notice revert all unstake requests for a user\n     * @param _userAddress user's address\n     */\n    function revertAllUnstakeRequest(address _userAddress)\n        public\n        notZeroAddress(_userAddress)\n    {\n        require(\n            msg.sender == _userAddress || msg.sender == owner,\n            \"Only the owner or the user himself can revert\"\n        );\n\n        UnstakeRequest[] storage userRequests = unstakeRequests[_userAddress];\n        require(\n            userRequests.length > 0,\n            \"this user has no pending unstake request\"\n        );\n        _removeAllRequest(_userAddress);\n        delete unstakeRequests[_userAddress];\n\n        uint256 remainingRequest = userInfo[_userAddress].pendingBalance;\n        realStakingBalance += remainingRequest;\n        userInfo[_userAddress].pendingBalance = 0;\n    }\n\n    // ---------------------------------------------------------------------------------------- //\n    // ********************************** Internal Functions ********************************** //\n    // ---------------------------------------------------------------------------------------- //\n\n    /**\n     * @notice Remove all unstake requests for a user\n     * @param _userAddress User's address\n     */\n    function _removeAllRequest(address _userAddress) internal {\n        for (uint256 i = 0; i < unstakeRequests[_userAddress].length; i += 1) {\n            _removeOneRequest(_userAddress);\n        }\n    }\n\n    /**\n     * @notice Remove one(the latest) unstake requests for a user\n     * @param _userAddress User's address\n     */\n    function _removeOneRequest(address _userAddress) internal {\n        uint256 index = unstakeQueue.length - 1;\n\n        while (index >= 0) {\n            if (unstakeQueue[index] == _userAddress) break;\n            index -= 1;\n        }\n\n        for (uint256 j = index; j < unstakeQueue.length - 1; j += 1) {\n            unstakeQueue[j] = unstakeQueue[j + 1];\n        }\n\n        unstakeQueue.pop();\n    }\n\n    /**\n     * @notice Finish the deposit process\n     * @dev LPValue will not change during deposit\n     * @param _userAddress Address of the user who deposits\n     * @param _amount Amount he deposits\n     */\n    function _deposit(address _userAddress, uint256 _amount) internal {\n        uint256 amountWithFactor = (_amount * collateralFactor) / 1e18;\n        // Update the pool's status\n        totalStakingBalance += _amount;\n        realStakingBalance += _amount;\n        availableCapacity += amountWithFactor;\n\n        lockedRatio = _doDiv(lockedBalance, totalStakingBalance);\n\n        USDT.safeTransferFrom(_userAddress, address(this), _amount);\n\n        // LP Token number need to be newly minted\n        uint256 lp_num = _doDiv(_amount, LPValue);\n        DLPToken.mint(_userAddress, lp_num);\n\n        userInfo[_userAddress].depositTime = block.timestamp;\n\n        emit Stake(_userAddress, _amount);\n    }\n\n    /**\n     * @notice _withdraw: finish the withdraw action, only when meeting the conditions\n     * @dev LPValue will not change during withdraw\n     * @param _userAddress address of the user who withdraws\n     * @param _amount the amount he withdraws\n     */\n    function _withdraw(address _userAddress, uint256 _amount) internal {\n        uint256 amountWithFactor = (_amount * collateralFactor) / 1e18;\n        // Update the pool's status\n        totalStakingBalance -= _amount;\n        realStakingBalance -= _amount;\n        availableCapacity -= amountWithFactor;\n\n        lockedRatio = _doDiv(lockedBalance, totalStakingBalance);\n\n        USDT.safeTransfer(_userAddress, _amount);\n\n        uint256 lp_num = _doDiv(_amount, LPValue);\n        DLPToken.burn(_userAddress, lp_num);\n\n        emit Unstake(_userAddress, _amount);\n    }\n\n    /**\n     * @notice Distribute the premium to lottery and emergency pool\n     * @param _premium Premium amount to be distributed\n     */\n    function _distributePremium(uint256 _premium) internal {\n        uint256 premiumToLottery = (_premium *\n            _doDiv(rewardDistribution[1], 100)) / 1e18;\n        uint256 premiumToEmergency = (_premium *\n            _doDiv(rewardDistribution[2], 100)) / 1e18;\n\n        // Transfer some reward to emergency pool and lottery pool\n        USDT.safeTransfer(address(emergencyPool), premiumToEmergency);\n        USDT.safeTransfer(address(degisLottery), premiumToLottery);\n\n        // Record this injection\n        uint256 currentLotteryId = degisLottery.viewCurrentLotteryId();\n        degisLottery.injectFunds(currentLotteryId, premiumToLottery);\n\n        emit PremiumDistributed(premiumToEmergency, premiumToLottery);\n    }\n\n    /**\n     * @notice Update the value of each lp token\n     * @dev Normally it will update when claim or expire\n     */\n    function _updateLPValue() internal {\n        uint256 totalLP = IERC20(DLPToken).totalSupply();\n        uint256 totalBalance = IERC20(USDT).balanceOf(address(this));\n\n        LPValue = _doDiv(totalBalance - activePremiums, totalLP);\n    }\n\n    /**\n     * @notice When some capacity unlocked, deal with the unstake queue\n     * @dev Normally we do not need this process\n     * @param remainingPayoff Remaining payoff amount\n     */\n    function _dealUnstakeQueue(uint256 remainingPayoff) internal {\n        uint256 pendingAmount;\n        for (uint256 i = unstakeQueue.length - 1; i >= 0; i -= 1) {\n            if (remainingPayoff >= 0) {\n                address pendingUser = unstakeQueue[i];\n                for (\n                    uint256 j = 0;\n                    j < unstakeRequests[pendingUser].length;\n                    j++\n                ) {\n                    pendingAmount = unstakeRequests[pendingUser][j]\n                        .pendingAmount;\n                    if (remainingPayoff > pendingAmount) {\n                        remainingPayoff -= pendingAmount;\n\n                        for (\n                            uint256 k = 0;\n                            k < unstakeRequests[pendingUser].length - 1;\n                            k += 1\n                        ) {\n                            unstakeRequests[pendingUser][k] = unstakeRequests[\n                                pendingUser\n                            ][k + 1];\n                        }\n                        unstakeRequests[pendingUser].pop();\n\n                        _withdraw(pendingUser, pendingAmount);\n                    } else {\n                        unstakeRequests[pendingUser][j]\n                            .pendingAmount -= remainingPayoff;\n                        unstakeRequests[pendingUser][j]\n                            .fulfilledAmount += remainingPayoff;\n                        _withdraw(pendingUser, remainingPayoff);\n\n                        remainingPayoff = 0;\n                        break;\n                    }\n                }\n            } else break;\n        }\n    }\n\n    /**\n     * @notice Do division via PRBMath\n     * @dev    E.g. doDiv(1, 1) = 1e18  doDiv(1, 10) = 1e17 doDiv(10, 1) = 1e19\n     */\n    function _doDiv(uint256 x, uint256 y) internal pure returns (uint256) {\n        return PRBMathUD60x18.div(x, y);\n    }\n\n    /**\n     * @notice Do multiplication via PRBMath\n     * @dev    E.g. doMul(1, 1) = 1e18  doMul(2, 5) = 1e19\n     */\n    function _doMul(uint256 x, uint256 y) internal pure returns (uint256) {\n        return PRBMathUD60x18.mul(x, y);\n    }\n}\n",
  "sourcePath": "/Volumes/Store/src/Degis-Contracts-1/contracts/InsurancePool.sol",
  "compiler": {
    "name": "solc",
    "version": "0.8.9+commit.e5eed63a.Emscripten.clang"
  },
  "schemaVersion": "3.4.3",
  "updatedAt": "2021-11-24T15:28:52.465Z",
  "networkType": "ethereum",
  "devdoc": {
    "kind": "dev",
    "methods": {
      "checkCapacity(uint256)": {
        "params": {
          "_payoff": "Payoff of the policy to be bought"
        },
        "returns": {
          "_0": "Whether there is enough capacity in the pool for this payoff"
        }
      },
      "constructor": {
        "params": {
          "_degisToken": "Degis token address",
          "_emergencyPool": "Emergency pool address",
          "_lptoken": "LP token address",
          "_usdtAddress": "USDT address"
        }
      },
      "getLockedfor(address)": {
        "params": {
          "_userAddress": "User's address"
        },
        "returns": {
          "_locked": "User's locked balance (as the locked ratio)"
        }
      },
      "getUnlockedFor(address)": {
        "params": {
          "_userAddress": "User's address"
        },
        "returns": {
          "_unlockedAmount": "Unlocked amount of the pool"
        }
      },
      "getUserBalance(address)": {
        "params": {
          "_userAddress": "User's address"
        },
        "returns": {
          "userBalance": "Real balance of this user"
        }
      },
      "payClaim(uint256,uint256,uint256,address)": {
        "params": {
          "_payoff": "Max payoff of the policy",
          "_premium": "Premium of the policy",
          "_realPayoff": "Real payoff of the policy",
          "_userAddress": ": Address of the policy claimer"
        }
      },
      "revertAllUnstakeRequest(address)": {
        "params": {
          "_userAddress": "user's address"
        }
      },
      "revertUnstakeRequest(address)": {
        "params": {
          "_userAddress": "user's address"
        }
      },
      "setCollateralFactor(uint256)": {
        "params": {
          "_factor": "The new collateral factor"
        }
      },
      "setFrozenTime(uint256)": {
        "params": {
          "_newFrozenTime": "New frozen time, in timestamp(s)"
        }
      },
      "setIncomeDistribution(uint256[3])": {
        "params": {
          "_newDistribution": "New distribution [LP, Lottery, Emergency]"
        }
      },
      "stake(address,uint256)": {
        "params": {
          "_amount": "The amount that the user want to stake",
          "_userAddress": "User(LP)'s address"
        }
      },
      "transferOwnerShip(address)": {
        "params": {
          "_newOwner": "New owner address"
        }
      },
      "unstake(address,uint256)": {
        "params": {
          "_amount": "The amount that the user want to unstake",
          "_userAddress": "User's address"
        }
      },
      "unstakeMax(address)": {
        "params": {
          "_userAddress": "User's address"
        }
      },
      "updateWhenBuy(uint256,uint256,address)": {
        "details": "Capacity check is done before calling this function",
        "params": {
          "_payoff": "Policy's payoff (max payoff)",
          "_premium": "Policy's premium",
          "_userAddress": "Address of the buyer"
        }
      },
      "updateWhenExpire(uint256,uint256,address)": {
        "params": {
          "_payoff": "Policy's payoff (max payoff)",
          "_premium": "Policy's premium",
          "_userAddress": "User's address"
        }
      }
    },
    "version": 1
  },
  "userdoc": {
    "errors": {
      "PRBMath__MulDivFixedPointOverflow(uint256)": [
        {
          "notice": "Emitted when the result overflows uint256."
        }
      ],
      "PRBMath__MulDivOverflow(uint256,uint256)": [
        {
          "notice": "Emitted when the result overflows uint256."
        }
      ]
    },
    "kind": "user",
    "methods": {
      "checkCapacity(uint256)": {
        "notice": "Check the conditions when receive new buying request"
      },
      "constructor": {
        "notice": "Constructor function"
      },
      "getLockedfor(address)": {
        "notice": "Get the user's locked balance"
      },
      "getPoolUnlocked()": {
        "notice": "Get the balance that the pool can unlock (maximum)"
      },
      "getUnlockedFor(address)": {
        "notice": "Get the balance that one user(LP) can unlock"
      },
      "getUserBalance(address)": {
        "notice": "Get the real balance: LPValue * LP_Num"
      },
      "payClaim(uint256,uint256,uint256,address)": {
        "notice": "Pay a claim"
      },
      "revertAllUnstakeRequest(address)": {
        "notice": "revert all unstake requests for a user"
      },
      "revertUnstakeRequest(address)": {
        "notice": "revert the last unstake request for a user"
      },
      "setCollateralFactor(uint256)": {
        "notice": "Change the collateral factor"
      },
      "setFrozenTime(uint256)": {
        "notice": "Set a new frozen time"
      },
      "setIncomeDistribution(uint256[3])": {
        "notice": "Set the premium reward distribution"
      },
      "setPolicyFlow(address)": {
        "notice": "Set the address of policyFlow"
      },
      "setPurchaseIncentive(uint256)": {
        "notice": "Set the purchase incentive amount"
      },
      "stake(address,uint256)": {
        "notice": "LPs stake assets into the pool"
      },
      "transferOwnerShip(address)": {
        "notice": "Transfer the ownership to a new owner"
      },
      "unstake(address,uint256)": {
        "notice": "Unstake from the pool (May fail if a claim happens before this operation)"
      },
      "unstakeMax(address)": {
        "notice": "Unstake the max amount of a user"
      },
      "updateWhenBuy(uint256,uint256,address)": {
        "notice": "Update the pool variables when buying policies"
      },
      "updateWhenExpire(uint256,uint256,address)": {
        "notice": "Update the status when a policy expires"
      }
    },
    "version": 1
  }
}