{
  "contractName": "InsurancePoolStore",
  "abi": [
    {
      "inputs": [],
      "name": "LPValue",
      "outputs": [
        {
          "internalType": "uint256",
          "name": "",
          "type": "uint256"
        }
      ],
      "stateMutability": "view",
      "type": "function"
    },
    {
      "inputs": [],
      "name": "activePremiums",
      "outputs": [
        {
          "internalType": "uint256",
          "name": "",
          "type": "uint256"
        }
      ],
      "stateMutability": "view",
      "type": "function"
    },
    {
      "inputs": [],
      "name": "availableCapacity",
      "outputs": [
        {
          "internalType": "uint256",
          "name": "",
          "type": "uint256"
        }
      ],
      "stateMutability": "view",
      "type": "function"
    },
    {
      "inputs": [],
      "name": "collateralFactor",
      "outputs": [
        {
          "internalType": "uint256",
          "name": "",
          "type": "uint256"
        }
      ],
      "stateMutability": "view",
      "type": "function"
    },
    {
      "inputs": [],
      "name": "emergencyPool",
      "outputs": [
        {
          "internalType": "address",
          "name": "",
          "type": "address"
        }
      ],
      "stateMutability": "view",
      "type": "function"
    },
    {
      "inputs": [],
      "name": "lockedBalance",
      "outputs": [
        {
          "internalType": "uint256",
          "name": "",
          "type": "uint256"
        }
      ],
      "stateMutability": "view",
      "type": "function"
    },
    {
      "inputs": [],
      "name": "lockedRatio",
      "outputs": [
        {
          "internalType": "uint256",
          "name": "",
          "type": "uint256"
        }
      ],
      "stateMutability": "view",
      "type": "function"
    },
    {
      "inputs": [],
      "name": "policyFlow",
      "outputs": [
        {
          "internalType": "address",
          "name": "",
          "type": "address"
        }
      ],
      "stateMutability": "view",
      "type": "function"
    },
    {
      "inputs": [],
      "name": "purchaseIncentiveAmount",
      "outputs": [
        {
          "internalType": "uint256",
          "name": "",
          "type": "uint256"
        }
      ],
      "stateMutability": "view",
      "type": "function"
    },
    {
      "inputs": [],
      "name": "realStakingBalance",
      "outputs": [
        {
          "internalType": "uint256",
          "name": "",
          "type": "uint256"
        }
      ],
      "stateMutability": "view",
      "type": "function"
    },
    {
      "inputs": [
        {
          "internalType": "uint256",
          "name": "",
          "type": "uint256"
        }
      ],
      "name": "rewardDistribution",
      "outputs": [
        {
          "internalType": "uint256",
          "name": "",
          "type": "uint256"
        }
      ],
      "stateMutability": "view",
      "type": "function"
    },
    {
      "inputs": [],
      "name": "totalStakingBalance",
      "outputs": [
        {
          "internalType": "uint256",
          "name": "",
          "type": "uint256"
        }
      ],
      "stateMutability": "view",
      "type": "function"
    }
  ],
  "bytecode": "0x608060405262093a8060035534801561001757600080fd5b506103f2806100276000396000f3fe608060405234801561001057600080fd5b50600436106100b45760003560e01c8063cba9aa4f11610071578063cba9aa4f1461017f578063d8a9bdb71461019d578063de2fbaba146101bb578063df011c41146101d9578063e766c835146101f7578063ea1a767914610215576100b4565b806343d387f8146100b95780637b80889b146100d75780637d36f766146100f5578063a21bc3fb14610125578063a59b364514610143578063b496991a14610161575b600080fd5b6100c1610233565b6040516100ce919061030f565b60405180910390f35b6100df610257565b6040516100ec9190610343565b60405180910390f35b61010f600480360381019061010a919061038f565b61025d565b60405161011c9190610343565b60405180910390f35b61012d610278565b60405161013a9190610343565b60405180910390f35b61014b61027e565b604051610158919061030f565b60405180910390f35b6101696102a4565b6040516101769190610343565b60405180910390f35b6101876102aa565b6040516101949190610343565b60405180910390f35b6101a56102b0565b6040516101b29190610343565b60405180910390f35b6101c36102b6565b6040516101d09190610343565b60405180910390f35b6101e16102bc565b6040516101ee9190610343565b60405180910390f35b6101ff6102c2565b60405161020c9190610343565b60405180910390f35b61021d6102c8565b60405161022a9190610343565b60405180910390f35b60008054906101000a900473ffffffffffffffffffffffffffffffffffffffff1681565b600a5481565b600f816003811061026d57600080fd5b016000915090505481565b600d5481565b600160009054906101000a900473ffffffffffffffffffffffffffffffffffffffff1681565b60025481565b60075481565b60095481565b600b5481565b600c5481565b60085481565b600e5481565b600073ffffffffffffffffffffffffffffffffffffffff82169050919050565b60006102f9826102ce565b9050919050565b610309816102ee565b82525050565b60006020820190506103246000830184610300565b92915050565b6000819050919050565b61033d8161032a565b82525050565b60006020820190506103586000830184610334565b92915050565b600080fd5b61036c8161032a565b811461037757600080fd5b50565b60008135905061038981610363565b92915050565b6000602082840312156103a5576103a461035e565b5b60006103b38482850161037a565b9150509291505056fea2646970667358221220025d1d4d2e5679a6173d703912477cced63b8d6440e2fd695c4958b12c0f8aed64736f6c63430008090033",
  "immutableReferences": {},
  "source": "// SPDX-License-Identifier: MIT\npragma solidity 0.8.9;\n\ncontract InsurancePoolStore {\n    address public policyFlow;\n    address public emergencyPool;\n\n    uint256 public purchaseIncentiveAmount;\n\n    uint256 frozenTime = 7 days; // 7 days\n\n    struct UserInfo {\n        uint256 depositTime;\n        uint256 pendingBalance; // the amount in the unstake queue\n    }\n    mapping(address => UserInfo) userInfo;\n\n    //  of every unstake request in the queue\n    struct UnstakeRequest {\n        uint256 pendingAmount;\n        uint256 fulfilledAmount;\n        bool isPaidOut; // if this request has been fully paid out // maybe redundant\n    }\n\n    // a user's unstake requests\n    mapping(address => UnstakeRequest[]) internal unstakeRequests;\n\n    // list of all unstake users\n    address[] internal unstakeQueue;\n\n    // 1 LP = LPValue(USD)\n    uint256 public LPValue;\n\n    // Total staking balance of the pool\n    uint256 public totalStakingBalance;\n\n    // Real staking balance = current staking balance - sum(unstake request in the queue)\n    uint256 public realStakingBalance;\n\n    // Locked balance is for potiential payoff\n    uint256 public lockedBalance;\n\n    // locked relation = locked balance / totalStakingBalance\n    uint256 public lockedRatio; //  1e18 = 1  1e17 = 0.1  1e19 = 10\n    uint256 public collateralFactor; //  1e18 = 1  1e17 = 0.1  1e19 = 10\n\n    // Available capacity for taking new\n    uint256 public availableCapacity;\n\n    // Premiums have been paid but the policies haven't expired\n    uint256 public activePremiums;\n\n    // [0]: LP, [1]: Lottery, [2]: Emergency\n    uint256[3] public rewardDistribution;\n}\n",
  "sourcePath": "D:\\src\\Degis-Contracts-1\\contracts\\InsurancePoolStore.sol",
  "compiler": {
    "name": "solc",
    "version": "0.8.9+commit.e5eed63a.Emscripten.clang"
  },
  "schemaVersion": "3.4.3",
  "updatedAt": "2021-12-02T17:43:33.870Z",
  "devdoc": {
    "kind": "dev",
    "methods": {},
    "version": 1
  },
  "userdoc": {
    "kind": "user",
    "methods": {},
    "version": 1
  }
}