{
  "contractName": "Loot",
  "abi": [
    {
      "inputs": [],
      "stateMutability": "nonpayable",
      "type": "constructor"
    },
    {
      "anonymous": false,
      "inputs": [
        {
          "indexed": true,
          "internalType": "address",
          "name": "owner",
          "type": "address"
        },
        {
          "indexed": true,
          "internalType": "address",
          "name": "approved",
          "type": "address"
        },
        {
          "indexed": true,
          "internalType": "uint256",
          "name": "tokenId",
          "type": "uint256"
        }
      ],
      "name": "Approval",
      "type": "event"
    },
    {
      "anonymous": false,
      "inputs": [
        {
          "indexed": true,
          "internalType": "address",
          "name": "owner",
          "type": "address"
        },
        {
          "indexed": true,
          "internalType": "address",
          "name": "operator",
          "type": "address"
        },
        {
          "indexed": false,
          "internalType": "bool",
          "name": "approved",
          "type": "bool"
        }
      ],
      "name": "ApprovalForAll",
      "type": "event"
    },
    {
      "anonymous": false,
      "inputs": [
        {
          "indexed": true,
          "internalType": "address",
          "name": "previousOwner",
          "type": "address"
        },
        {
          "indexed": true,
          "internalType": "address",
          "name": "newOwner",
          "type": "address"
        }
      ],
      "name": "OwnershipTransferred",
      "type": "event"
    },
    {
      "anonymous": false,
      "inputs": [
        {
          "indexed": true,
          "internalType": "address",
          "name": "from",
          "type": "address"
        },
        {
          "indexed": true,
          "internalType": "address",
          "name": "to",
          "type": "address"
        },
        {
          "indexed": true,
          "internalType": "uint256",
          "name": "tokenId",
          "type": "uint256"
        }
      ],
      "name": "Transfer",
      "type": "event"
    },
    {
      "inputs": [
        {
          "internalType": "address",
          "name": "to",
          "type": "address"
        },
        {
          "internalType": "uint256",
          "name": "tokenId",
          "type": "uint256"
        }
      ],
      "name": "approve",
      "outputs": [],
      "stateMutability": "nonpayable",
      "type": "function"
    },
    {
      "inputs": [
        {
          "internalType": "address",
          "name": "owner",
          "type": "address"
        }
      ],
      "name": "balanceOf",
      "outputs": [
        {
          "internalType": "uint256",
          "name": "",
          "type": "uint256"
        }
      ],
      "stateMutability": "view",
      "type": "function"
    },
    {
      "inputs": [
        {
          "internalType": "uint256",
          "name": "tokenId",
          "type": "uint256"
        }
      ],
      "name": "getApproved",
      "outputs": [
        {
          "internalType": "address",
          "name": "",
          "type": "address"
        }
      ],
      "stateMutability": "view",
      "type": "function"
    },
    {
      "inputs": [
        {
          "internalType": "address",
          "name": "owner",
          "type": "address"
        },
        {
          "internalType": "address",
          "name": "operator",
          "type": "address"
        }
      ],
      "name": "isApprovedForAll",
      "outputs": [
        {
          "internalType": "bool",
          "name": "",
          "type": "bool"
        }
      ],
      "stateMutability": "view",
      "type": "function"
    },
    {
      "inputs": [],
      "name": "name",
      "outputs": [
        {
          "internalType": "string",
          "name": "",
          "type": "string"
        }
      ],
      "stateMutability": "view",
      "type": "function"
    },
    {
      "inputs": [],
      "name": "owner",
      "outputs": [
        {
          "internalType": "address",
          "name": "",
          "type": "address"
        }
      ],
      "stateMutability": "view",
      "type": "function"
    },
    {
      "inputs": [
        {
          "internalType": "uint256",
          "name": "tokenId",
          "type": "uint256"
        }
      ],
      "name": "ownerOf",
      "outputs": [
        {
          "internalType": "address",
          "name": "",
          "type": "address"
        }
      ],
      "stateMutability": "view",
      "type": "function"
    },
    {
      "inputs": [],
      "name": "renounceOwnership",
      "outputs": [],
      "stateMutability": "nonpayable",
      "type": "function"
    },
    {
      "inputs": [
        {
          "internalType": "address",
          "name": "from",
          "type": "address"
        },
        {
          "internalType": "address",
          "name": "to",
          "type": "address"
        },
        {
          "internalType": "uint256",
          "name": "tokenId",
          "type": "uint256"
        }
      ],
      "name": "safeTransferFrom",
      "outputs": [],
      "stateMutability": "nonpayable",
      "type": "function"
    },
    {
      "inputs": [
        {
          "internalType": "address",
          "name": "from",
          "type": "address"
        },
        {
          "internalType": "address",
          "name": "to",
          "type": "address"
        },
        {
          "internalType": "uint256",
          "name": "tokenId",
          "type": "uint256"
        },
        {
          "internalType": "bytes",
          "name": "_data",
          "type": "bytes"
        }
      ],
      "name": "safeTransferFrom",
      "outputs": [],
      "stateMutability": "nonpayable",
      "type": "function"
    },
    {
      "inputs": [
        {
          "internalType": "address",
          "name": "operator",
          "type": "address"
        },
        {
          "internalType": "bool",
          "name": "approved",
          "type": "bool"
        }
      ],
      "name": "setApprovalForAll",
      "outputs": [],
      "stateMutability": "nonpayable",
      "type": "function"
    },
    {
      "inputs": [
        {
          "internalType": "bytes4",
          "name": "interfaceId",
          "type": "bytes4"
        }
      ],
      "name": "supportsInterface",
      "outputs": [
        {
          "internalType": "bool",
          "name": "",
          "type": "bool"
        }
      ],
      "stateMutability": "view",
      "type": "function"
    },
    {
      "inputs": [],
      "name": "symbol",
      "outputs": [
        {
          "internalType": "string",
          "name": "",
          "type": "string"
        }
      ],
      "stateMutability": "view",
      "type": "function"
    },
    {
      "inputs": [
        {
          "internalType": "uint256",
          "name": "index",
          "type": "uint256"
        }
      ],
      "name": "tokenByIndex",
      "outputs": [
        {
          "internalType": "uint256",
          "name": "",
          "type": "uint256"
        }
      ],
      "stateMutability": "view",
      "type": "function"
    },
    {
      "inputs": [
        {
          "internalType": "address",
          "name": "owner",
          "type": "address"
        },
        {
          "internalType": "uint256",
          "name": "index",
          "type": "uint256"
        }
      ],
      "name": "tokenOfOwnerByIndex",
      "outputs": [
        {
          "internalType": "uint256",
          "name": "",
          "type": "uint256"
        }
      ],
      "stateMutability": "view",
      "type": "function"
    },
    {
      "inputs": [],
      "name": "totalSupply",
      "outputs": [
        {
          "internalType": "uint256",
          "name": "",
          "type": "uint256"
        }
      ],
      "stateMutability": "view",
      "type": "function"
    },
    {
      "inputs": [
        {
          "internalType": "address",
          "name": "from",
          "type": "address"
        },
        {
          "internalType": "address",
          "name": "to",
          "type": "address"
        },
        {
          "internalType": "uint256",
          "name": "tokenId",
          "type": "uint256"
        }
      ],
      "name": "transferFrom",
      "outputs": [],
      "stateMutability": "nonpayable",
      "type": "function"
    },
    {
      "inputs": [
        {
          "internalType": "address",
          "name": "newOwner",
          "type": "address"
        }
      ],
      "name": "transferOwnership",
      "outputs": [],
      "stateMutability": "nonpayable",
      "type": "function"
    },
    {
      "inputs": [
        {
          "internalType": "uint256",
          "name": "tokenId",
          "type": "uint256"
        }
      ],
      "name": "getWeapon",
      "outputs": [
        {
          "internalType": "string",
          "name": "",
          "type": "string"
        }
      ],
      "stateMutability": "view",
      "type": "function"
    },
    {
      "inputs": [
        {
          "internalType": "uint256",
          "name": "tokenId",
          "type": "uint256"
        }
      ],
      "name": "getChest",
      "outputs": [
        {
          "internalType": "string",
          "name": "",
          "type": "string"
        }
      ],
      "stateMutability": "view",
      "type": "function"
    },
    {
      "inputs": [
        {
          "internalType": "uint256",
          "name": "tokenId",
          "type": "uint256"
        }
      ],
      "name": "getHead",
      "outputs": [
        {
          "internalType": "string",
          "name": "",
          "type": "string"
        }
      ],
      "stateMutability": "view",
      "type": "function"
    },
    {
      "inputs": [
        {
          "internalType": "uint256",
          "name": "tokenId",
          "type": "uint256"
        }
      ],
      "name": "getWaist",
      "outputs": [
        {
          "internalType": "string",
          "name": "",
          "type": "string"
        }
      ],
      "stateMutability": "view",
      "type": "function"
    },
    {
      "inputs": [
        {
          "internalType": "uint256",
          "name": "tokenId",
          "type": "uint256"
        }
      ],
      "name": "getFoot",
      "outputs": [
        {
          "internalType": "string",
          "name": "",
          "type": "string"
        }
      ],
      "stateMutability": "view",
      "type": "function"
    },
    {
      "inputs": [
        {
          "internalType": "uint256",
          "name": "tokenId",
          "type": "uint256"
        }
      ],
      "name": "getHand",
      "outputs": [
        {
          "internalType": "string",
          "name": "",
          "type": "string"
        }
      ],
      "stateMutability": "view",
      "type": "function"
    },
    {
      "inputs": [
        {
          "internalType": "uint256",
          "name": "tokenId",
          "type": "uint256"
        }
      ],
      "name": "getNeck",
      "outputs": [
        {
          "internalType": "string",
          "name": "",
          "type": "string"
        }
      ],
      "stateMutability": "view",
      "type": "function"
    },
    {
      "inputs": [
        {
          "internalType": "uint256",
          "name": "tokenId",
          "type": "uint256"
        }
      ],
      "name": "getRing",
      "outputs": [
        {
          "internalType": "string",
          "name": "",
          "type": "string"
        }
      ],
      "stateMutability": "view",
      "type": "function"
    },
    {
      "inputs": [
        {
          "internalType": "uint256",
          "name": "tokenId",
          "type": "uint256"
        }
      ],
      "name": "tokenURI",
      "outputs": [
        {
          "internalType": "string",
          "name": "",
          "type": "string"
        }
      ],
      "stateMutability": "view",
      "type": "function"
    },
    {
      "inputs": [
        {
          "internalType": "uint256",
          "name": "tokenId",
          "type": "uint256"
        }
      ],
      "name": "claim",
      "outputs": [],
      "stateMutability": "nonpayable",
      "type": "function"
    },
    {
      "inputs": [
        {
          "internalType": "uint256",
          "name": "tokenId",
          "type": "uint256"
        }
      ],
      "name": "ownerClaim",
      "outputs": [],
      "stateMutability": "nonpayable",
      "type": "function"
    }
  ],
  "bytecode": "0x60806040526040518061024001604052806040518060400160405280600981526020017f57617268616d6d6572000000000000000000000000000000000000000000000081525081526020016040518060400160405280600c81526020017f517561727465727374616666000000000000000000000000000000000000000081525081526020016040518060400160405280600481526020017f4d61756c0000000000000000000000000000000000000000000000000000000081525081526020016040518060400160405280600481526020017f4d6163650000000000000000000000000000000000000000000000000000000081525081526020016040518060400160405280600481526020017f436c75620000000000000000000000000000000000000000000000000000000081525081526020016040518060400160405280600681526020017f4b6174616e61000000000000000000000000000000000000000000000000000081525081526020016040518060400160405280600881526020017f46616c6368696f6e00000000000000000000000000000000000000000000000081525081526020016040518060400160405280600881526020017f5363696d6974617200000000000000000000000000000000000000000000000081525081526020016040518060400160405280600a81526020017f4c6f6e672053776f72640000000000000000000000000000000000000000000081525081526020016040518060400160405280600b81526020017f53686f72742053776f726400000000000000000000000000000000000000000081525081526020016040518060400160405280600a81526020017f47686f73742057616e640000000000000000000000000000000000000000000081525081526020016040518060400160405280600a81526020017f47726176652057616e640000000000000000000000000000000000000000000081525081526020016040518060400160405280600981526020017f426f6e652057616e64000000000000000000000000000000000000000000000081525081526020016040518060400160405280600481526020017f57616e640000000000000000000000000000000000000000000000000000000081525081526020016040518060400160405280600881526020017f4772696d6f69726500000000000000000000000000000000000000000000000081525081526020016040518060400160405280600981526020017f4368726f6e69636c65000000000000000000000000000000000000000000000081525081526020016040518060400160405280600481526020017f546f6d650000000000000000000000000000000000000000000000000000000081525081526020016040518060400160405280600481526020017f426f6f6b00000000000000000000000000000000000000000000000000000000815250815250600c90601262000446929190620031ef565b50604051806101e001604052806040518060400160405280600b81526020017f446976696e6520526f626500000000000000000000000000000000000000000081525081526020016040518060400160405280600981526020017f53696c6b20526f6265000000000000000000000000000000000000000000000081525081526020016040518060400160405280600a81526020017f4c696e656e20526f62650000000000000000000000000000000000000000000081525081526020016040518060400160405280600481526020017f526f62650000000000000000000000000000000000000000000000000000000081525081526020016040518060400160405280600581526020017f536869727400000000000000000000000000000000000000000000000000000081525081526020016040518060400160405280600a81526020017f44656d6f6e204875736b0000000000000000000000000000000000000000000081525081526020016040518060400160405280601081526020017f447261676f6e736b696e2041726d6f720000000000000000000000000000000081525081526020016040518060400160405280601581526020017f53747564646564204c6561746865722041726d6f72000000000000000000000081525081526020016040518060400160405280601281526020017f48617264204c6561746865722041726d6f72000000000000000000000000000081525081526020016040518060400160405280600d81526020017f4c6561746865722041726d6f720000000000000000000000000000000000000081525081526020016040518060400160405280600f81526020017f486f6c79204368657374706c617465000000000000000000000000000000000081525081526020016040518060400160405280601181526020017f4f726e617465204368657374706c61746500000000000000000000000000000081525081526020016040518060400160405280600a81526020017f506c617465204d61696c0000000000000000000000000000000000000000000081525081526020016040518060400160405280600a81526020017f436861696e204d61696c0000000000000000000000000000000000000000000081525081526020016040518060400160405280600981526020017f52696e67204d61696c0000000000000000000000000000000000000000000000815250815250600d90600f620007d892919062003256565b50604051806101e001604052806040518060400160405280600c81526020017f416e6369656e742048656c6d000000000000000000000000000000000000000081525081526020016040518060400160405280600b81526020017f4f726e6174652048656c6d00000000000000000000000000000000000000000081525081526020016040518060400160405280600a81526020017f47726561742048656c6d0000000000000000000000000000000000000000000081525081526020016040518060400160405280600981526020017f46756c6c2048656c6d000000000000000000000000000000000000000000000081525081526020016040518060400160405280600481526020017f48656c6d0000000000000000000000000000000000000000000000000000000081525081526020016040518060400160405280600b81526020017f44656d6f6e2043726f776e00000000000000000000000000000000000000000081525081526020016040518060400160405280600e81526020017f447261676f6e27732043726f776e00000000000000000000000000000000000081525081526020016040518060400160405280600781526020017f576172204361700000000000000000000000000000000000000000000000000081525081526020016040518060400160405280600b81526020017f4c6561746865722043617000000000000000000000000000000000000000000081525081526020016040518060400160405280600381526020017f436170000000000000000000000000000000000000000000000000000000000081525081526020016040518060400160405280600581526020017f43726f776e00000000000000000000000000000000000000000000000000000081525081526020016040518060400160405280600b81526020017f446976696e6520486f6f6400000000000000000000000000000000000000000081525081526020016040518060400160405280600981526020017f53696c6b20486f6f64000000000000000000000000000000000000000000000081525081526020016040518060400160405280600a81526020017f4c696e656e20486f6f640000000000000000000000000000000000000000000081525081526020016040518060400160405280600481526020017f486f6f6400000000000000000000000000000000000000000000000000000000815250815250600e90600f62000b6a92919062003256565b50604051806101e001604052806040518060400160405280600b81526020017f4f726e6174652042656c7400000000000000000000000000000000000000000081525081526020016040518060400160405280600881526020017f5761722042656c7400000000000000000000000000000000000000000000000081525081526020016040518060400160405280600b81526020017f506c617465642042656c7400000000000000000000000000000000000000000081525081526020016040518060400160405280600981526020017f4d6573682042656c74000000000000000000000000000000000000000000000081525081526020016040518060400160405280600a81526020017f48656176792042656c740000000000000000000000000000000000000000000081525081526020016040518060400160405280600e81526020017f44656d6f6e686964652042656c7400000000000000000000000000000000000081525081526020016040518060400160405280600f81526020017f447261676f6e736b696e2042656c74000000000000000000000000000000000081525081526020016040518060400160405280601481526020017f53747564646564204c6561746865722042656c7400000000000000000000000081525081526020016040518060400160405280601181526020017f48617264204c6561746865722042656c7400000000000000000000000000000081525081526020016040518060400160405280600c81526020017f4c6561746865722042656c74000000000000000000000000000000000000000081525081526020016040518060400160405280600f81526020017f42726967687473696c6b2053617368000000000000000000000000000000000081525081526020016040518060400160405280600981526020017f53696c6b2053617368000000000000000000000000000000000000000000000081525081526020016040518060400160405280600981526020017f576f6f6c2053617368000000000000000000000000000000000000000000000081525081526020016040518060400160405280600a81526020017f4c696e656e20536173680000000000000000000000000000000000000000000081525081526020016040518060400160405280600481526020017f5361736800000000000000000000000000000000000000000000000000000000815250815250600f90600f62000efc92919062003256565b50604051806101e001604052806040518060400160405280600c81526020017f486f6c792047726561766573000000000000000000000000000000000000000081525081526020016040518060400160405280600e81526020017f4f726e617465204772656176657300000000000000000000000000000000000081525081526020016040518060400160405280600781526020017f477265617665730000000000000000000000000000000000000000000000000081525081526020016040518060400160405280600b81526020017f436861696e20426f6f747300000000000000000000000000000000000000000081525081526020016040518060400160405280600b81526020017f486561767920426f6f747300000000000000000000000000000000000000000081525081526020016040518060400160405280600f81526020017f44656d6f6e6869646520426f6f7473000000000000000000000000000000000081525081526020016040518060400160405280601081526020017f447261676f6e736b696e20426f6f74730000000000000000000000000000000081525081526020016040518060400160405280601581526020017f53747564646564204c65617468657220426f6f7473000000000000000000000081525081526020016040518060400160405280601281526020017f48617264204c65617468657220426f6f7473000000000000000000000000000081525081526020016040518060400160405280600d81526020017f4c65617468657220426f6f74730000000000000000000000000000000000000081525081526020016040518060400160405280600f81526020017f446976696e6520536c697070657273000000000000000000000000000000000081525081526020016040518060400160405280600d81526020017f53696c6b20536c6970706572730000000000000000000000000000000000000081525081526020016040518060400160405280600a81526020017f576f6f6c2053686f65730000000000000000000000000000000000000000000081525081526020016040518060400160405280600b81526020017f4c696e656e2053686f657300000000000000000000000000000000000000000081525081526020016040518060400160405280600581526020017f53686f6573000000000000000000000000000000000000000000000000000000815250815250601090600f6200128e92919062003256565b50604051806101e001604052806040518060400160405280600e81526020017f486f6c79204761756e746c65747300000000000000000000000000000000000081525081526020016040518060400160405280601081526020017f4f726e617465204761756e746c6574730000000000000000000000000000000081525081526020016040518060400160405280600981526020017f4761756e746c657473000000000000000000000000000000000000000000000081525081526020016040518060400160405280600c81526020017f436861696e20476c6f766573000000000000000000000000000000000000000081525081526020016040518060400160405280600c81526020017f486561767920476c6f766573000000000000000000000000000000000000000081525081526020016040518060400160405280600d81526020017f44656d6f6e27732048616e64730000000000000000000000000000000000000081525081526020016040518060400160405280601181526020017f447261676f6e736b696e20476c6f76657300000000000000000000000000000081525081526020016040518060400160405280601681526020017f53747564646564204c65617468657220476c6f7665730000000000000000000081525081526020016040518060400160405280601381526020017f48617264204c65617468657220476c6f7665730000000000000000000000000081525081526020016040518060400160405280600e81526020017f4c65617468657220476c6f76657300000000000000000000000000000000000081525081526020016040518060400160405280600d81526020017f446976696e6520476c6f7665730000000000000000000000000000000000000081525081526020016040518060400160405280600b81526020017f53696c6b20476c6f76657300000000000000000000000000000000000000000081525081526020016040518060400160405280600b81526020017f576f6f6c20476c6f76657300000000000000000000000000000000000000000081525081526020016040518060400160405280600c81526020017f4c696e656e20476c6f766573000000000000000000000000000000000000000081525081526020016040518060400160405280600681526020017f476c6f7665730000000000000000000000000000000000000000000000000000815250815250601190600f6200162092919062003256565b5060405180606001604052806040518060400160405280600881526020017f4e65636b6c61636500000000000000000000000000000000000000000000000081525081526020016040518060400160405280600681526020017f416d756c6574000000000000000000000000000000000000000000000000000081525081526020016040518060400160405280600781526020017f50656e64616e74000000000000000000000000000000000000000000000000008152508152506012906003620016ed929190620032bd565b506040518060a001604052806040518060400160405280600981526020017f476f6c642052696e67000000000000000000000000000000000000000000000081525081526020016040518060400160405280600b81526020017f53696c7665722052696e6700000000000000000000000000000000000000000081525081526020016040518060400160405280600b81526020017f42726f6e7a652052696e6700000000000000000000000000000000000000000081525081526020016040518060400160405280600d81526020017f506c6174696e756d2052696e670000000000000000000000000000000000000081525081526020016040518060400160405280600d81526020017f546974616e69756d2052696e670000000000000000000000000000000000000081525081525060139060056200183092919062003324565b506040518061020001604052806040518060400160405280600881526020017f6f6620506f77657200000000000000000000000000000000000000000000000081525081526020016040518060400160405280600981526020017f6f66204769616e7473000000000000000000000000000000000000000000000081525081526020016040518060400160405280600981526020017f6f6620546974616e73000000000000000000000000000000000000000000000081525081526020016040518060400160405280600881526020017f6f6620536b696c6c00000000000000000000000000000000000000000000000081525081526020016040518060400160405280600d81526020017f6f662050657266656374696f6e0000000000000000000000000000000000000081525081526020016040518060400160405280600d81526020017f6f66204272696c6c69616e63650000000000000000000000000000000000000081525081526020016040518060400160405280601081526020017f6f6620456e6c69676874656e6d656e740000000000000000000000000000000081525081526020016040518060400160405280600d81526020017f6f662050726f74656374696f6e0000000000000000000000000000000000000081525081526020016040518060400160405280600881526020017f6f6620416e67657200000000000000000000000000000000000000000000000081525081526020016040518060400160405280600781526020017f6f6620526167650000000000000000000000000000000000000000000000000081525081526020016040518060400160405280600781526020017f6f6620467572790000000000000000000000000000000000000000000000000081525081526020016040518060400160405280600a81526020017f6f662056697472696f6c0000000000000000000000000000000000000000000081525081526020016040518060400160405280600a81526020017f6f662074686520466f780000000000000000000000000000000000000000000081525081526020016040518060400160405280600c81526020017f6f6620446574656374696f6e000000000000000000000000000000000000000081525081526020016040518060400160405280600d81526020017f6f66205265666c656374696f6e0000000000000000000000000000000000000081525081526020016040518060400160405280600c81526020017f6f6620746865205477696e730000000000000000000000000000000000000000815250815250601490601062001bfd9291906200338b565b50604051806108a001604052806040518060400160405280600581526020017f41676f6e7900000000000000000000000000000000000000000000000000000081525081526020016040518060400160405280600a81526020017f41706f63616c797073650000000000000000000000000000000000000000000081525081526020016040518060400160405280600a81526020017f41726d61676564646f6e0000000000000000000000000000000000000000000081525081526020016040518060400160405280600581526020017f426561737400000000000000000000000000000000000000000000000000000081525081526020016040518060400160405280600881526020017f426568656d6f746800000000000000000000000000000000000000000000000081525081526020016040518060400160405280600681526020017f426c69676874000000000000000000000000000000000000000000000000000081525081526020016040518060400160405280600581526020017f426c6f6f6400000000000000000000000000000000000000000000000000000081525081526020016040518060400160405280600781526020017f4272616d626c650000000000000000000000000000000000000000000000000081525081526020016040518060400160405280600981526020017f4272696d73746f6e65000000000000000000000000000000000000000000000081525081526020016040518060400160405280600581526020017f42726f6f6400000000000000000000000000000000000000000000000000000081525081526020016040518060400160405280600781526020017f43617272696f6e0000000000000000000000000000000000000000000000000081525081526020016040518060400160405280600981526020017f43617461636c79736d000000000000000000000000000000000000000000000081525081526020016040518060400160405280600881526020017f4368696d6572696300000000000000000000000000000000000000000000000081525081526020016040518060400160405280600681526020017f436f72707365000000000000000000000000000000000000000000000000000081525081526020016040518060400160405280600a81526020017f436f7272757074696f6e0000000000000000000000000000000000000000000081525081526020016040518060400160405280600981526020017f44616d6e6174696f6e000000000000000000000000000000000000000000000081525081526020016040518060400160405280600581526020017f446561746800000000000000000000000000000000000000000000000000000081525081526020016040518060400160405280600581526020017f44656d6f6e00000000000000000000000000000000000000000000000000000081525081526020016040518060400160405280600481526020017f446972650000000000000000000000000000000000000000000000000000000081525081526020016040518060400160405280600681526020017f447261676f6e000000000000000000000000000000000000000000000000000081525081526020016040518060400160405280600581526020017f447265616400000000000000000000000000000000000000000000000000000081525081526020016040518060400160405280600481526020017f446f6f6d0000000000000000000000000000000000000000000000000000000081525081526020016040518060400160405280600481526020017f4475736b0000000000000000000000000000000000000000000000000000000081525081526020016040518060400160405280600581526020017f4561676c6500000000000000000000000000000000000000000000000000000081525081526020016040518060400160405280600881526020017f456d70797265616e00000000000000000000000000000000000000000000000081525081526020016040518060400160405280600481526020017f466174650000000000000000000000000000000000000000000000000000000081525081526020016040518060400160405280600381526020017f466f65000000000000000000000000000000000000000000000000000000000081525081526020016040518060400160405280600481526020017f47616c650000000000000000000000000000000000000000000000000000000081525081526020016040518060400160405280600581526020017f47686f756c00000000000000000000000000000000000000000000000000000081525081526020016040518060400160405280600581526020017f476c6f6f6d00000000000000000000000000000000000000000000000000000081525081526020016040518060400160405280600581526020017f476c79706800000000000000000000000000000000000000000000000000000081525081526020016040518060400160405280600581526020017f476f6c656d00000000000000000000000000000000000000000000000000000081525081526020016040518060400160405280600481526020017f4772696d0000000000000000000000000000000000000000000000000000000081525081526020016040518060400160405280600481526020017f486174650000000000000000000000000000000000000000000000000000000081525081526020016040518060400160405280600581526020017f4861766f6300000000000000000000000000000000000000000000000000000081525081526020016040518060400160405280600681526020017f486f6e6f7572000000000000000000000000000000000000000000000000000081525081526020016040518060400160405280600681526020017f486f72726f72000000000000000000000000000000000000000000000000000081525081526020016040518060400160405280600881526020017f4879706e6f74696300000000000000000000000000000000000000000000000081525081526020016040518060400160405280600681526020017f4b72616b656e000000000000000000000000000000000000000000000000000081525081526020016040518060400160405280600581526020017f4c6f61746800000000000000000000000000000000000000000000000000000081525081526020016040518060400160405280600981526020017f4d61656c7374726f6d000000000000000000000000000000000000000000000081525081526020016040518060400160405280600481526020017f4d696e640000000000000000000000000000000000000000000000000000000081525081526020016040518060400160405280600781526020017f4d697261636c650000000000000000000000000000000000000000000000000081525081526020016040518060400160405280600681526020017f4d6f72626964000000000000000000000000000000000000000000000000000081525081526020016040518060400160405280600881526020017f4f626c6976696f6e00000000000000000000000000000000000000000000000081525081526020016040518060400160405280600981526020017f4f6e736c6175676874000000000000000000000000000000000000000000000081525081526020016040518060400160405280600481526020017f5061696e0000000000000000000000000000000000000000000000000000000081525081526020016040518060400160405280600b81526020017f50616e64656d6f6e69756d00000000000000000000000000000000000000000081525081526020016040518060400160405280600781526020017f50686f656e69780000000000000000000000000000000000000000000000000081525081526020016040518060400160405280600681526020017f506c61677565000000000000000000000000000000000000000000000000000081525081526020016040518060400160405280600481526020017f526167650000000000000000000000000000000000000000000000000000000081525081526020016040518060400160405280600781526020017f526170747572650000000000000000000000000000000000000000000000000081525081526020016040518060400160405280600481526020017f52756e650000000000000000000000000000000000000000000000000000000081525081526020016040518060400160405280600581526020017f536b756c6c00000000000000000000000000000000000000000000000000000081525081526020016040518060400160405280600381526020017f536f6c000000000000000000000000000000000000000000000000000000000081525081526020016040518060400160405280600481526020017f536f756c0000000000000000000000000000000000000000000000000000000081525081526020016040518060400160405280600681526020017f536f72726f77000000000000000000000000000000000000000000000000000081525081526020016040518060400160405280600681526020017f537069726974000000000000000000000000000000000000000000000000000081525081526020016040518060400160405280600581526020017f53746f726d00000000000000000000000000000000000000000000000000000081525081526020016040518060400160405280600781526020017f54656d706573740000000000000000000000000000000000000000000000000081525081526020016040518060400160405280600781526020017f546f726d656e740000000000000000000000000000000000000000000000000081525081526020016040518060400160405280600981526020017f56656e6765616e6365000000000000000000000000000000000000000000000081525081526020016040518060400160405280600781526020017f566963746f72790000000000000000000000000000000000000000000000000081525081526020016040518060400160405280600581526020017f566970657200000000000000000000000000000000000000000000000000000081525081526020016040518060400160405280600681526020017f566f72746578000000000000000000000000000000000000000000000000000081525081526020016040518060400160405280600381526020017f576f65000000000000000000000000000000000000000000000000000000000081525081526020016040518060400160405280600581526020017f577261746800000000000000000000000000000000000000000000000000000081525081526020016040518060400160405280600781526020017f4c6967687427730000000000000000000000000000000000000000000000000081525081526020016040518060400160405280600a81526020017f5368696d6d6572696e6700000000000000000000000000000000000000000000815250815250601590604562002c01929190620033f2565b506040518061024001604052806040518060400160405280600481526020017f42616e650000000000000000000000000000000000000000000000000000000081525081526020016040518060400160405280600481526020017f526f6f740000000000000000000000000000000000000000000000000000000081525081526020016040518060400160405280600481526020017f426974650000000000000000000000000000000000000000000000000000000081525081526020016040518060400160405280600481526020017f536f6e670000000000000000000000000000000000000000000000000000000081525081526020016040518060400160405280600481526020017f526f61720000000000000000000000000000000000000000000000000000000081525081526020016040518060400160405280600581526020017f477261737000000000000000000000000000000000000000000000000000000081525081526020016040518060400160405280600a81526020017f496e737472756d656e740000000000000000000000000000000000000000000081525081526020016040518060400160405280600481526020017f476c6f770000000000000000000000000000000000000000000000000000000081525081526020016040518060400160405280600681526020017f42656e646572000000000000000000000000000000000000000000000000000081525081526020016040518060400160405280600681526020017f536861646f77000000000000000000000000000000000000000000000000000081525081526020016040518060400160405280600781526020017f576869737065720000000000000000000000000000000000000000000000000081525081526020016040518060400160405280600581526020017f53686f757400000000000000000000000000000000000000000000000000000081525081526020016040518060400160405280600581526020017f47726f776c00000000000000000000000000000000000000000000000000000081525081526020016040518060400160405280600481526020017f546561720000000000000000000000000000000000000000000000000000000081525081526020016040518060400160405280600481526020017f5065616b0000000000000000000000000000000000000000000000000000000081525081526020016040518060400160405280600481526020017f466f726d0000000000000000000000000000000000000000000000000000000081525081526020016040518060400160405280600381526020017f53756e000000000000000000000000000000000000000000000000000000000081525081526020016040518060400160405280600481526020017f4d6f6f6e00000000000000000000000000000000000000000000000000000000815250815250601690601262003044929190620031ef565b503480156200305257600080fd5b506040518060400160405280600481526020017f4c6f6f74000000000000000000000000000000000000000000000000000000008152506040518060400160405280600481526020017f4c4f4f54000000000000000000000000000000000000000000000000000000008152508160009080519060200190620030d792919062003459565b508060019080519060200190620030f092919062003459565b5050506001600a819055506200311b6200310f6200312160201b60201c565b6200312960201b60201c565b620035dc565b600033905090565b6000600b60009054906101000a900473ffffffffffffffffffffffffffffffffffffffff16905081600b60006101000a81548173ffffffffffffffffffffffffffffffffffffffff021916908373ffffffffffffffffffffffffffffffffffffffff1602179055508173ffffffffffffffffffffffffffffffffffffffff168173ffffffffffffffffffffffffffffffffffffffff167f8be0079c531659141344cd1fd0a4f28419497f9722a3daafe3b4186f6b6457e060405160405180910390a35050565b82805482825590600052602060002090810192821562003243579160200282015b82811115620032425782518290805190602001906200323192919062003459565b509160200191906001019062003210565b5b509050620032529190620034ea565b5090565b828054828255906000526020600020908101928215620032aa579160200282015b82811115620032a95782518290805190602001906200329892919062003459565b509160200191906001019062003277565b5b509050620032b99190620034ea565b5090565b82805482825590600052602060002090810192821562003311579160200282015b8281111562003310578251829080519060200190620032ff92919062003459565b5091602001919060010190620032de565b5b509050620033209190620034ea565b5090565b82805482825590600052602060002090810192821562003378579160200282015b82811115620033775782518290805190602001906200336692919062003459565b509160200191906001019062003345565b5b509050620033879190620034ea565b5090565b828054828255906000526020600020908101928215620033df579160200282015b82811115620033de578251829080519060200190620033cd92919062003459565b5091602001919060010190620033ac565b5b509050620033ee9190620034ea565b5090565b82805482825590600052602060002090810192821562003446579160200282015b82811115620034455782518290805190602001906200343492919062003459565b509160200191906001019062003413565b5b509050620034559190620034ea565b5090565b828054620034679062003577565b90600052602060002090601f0160209004810192826200348b5760008555620034d7565b82601f10620034a657805160ff1916838001178555620034d7565b82800160010185558215620034d7579182015b82811115620034d6578251825591602001919060010190620034b9565b5b509050620034e6919062003512565b5090565b5b808211156200350e576000818162003504919062003531565b50600101620034eb565b5090565b5b808211156200352d57600081600090555060010162003513565b5090565b5080546200353f9062003577565b6000825580601f1062003553575062003574565b601f01602090049060005260206000209081019062003573919062003512565b5b50565b600060028204905060018216806200359057607f821691505b60208210811415620035a757620035a6620035ad565b5b50919050565b7f4e487b7100000000000000000000000000000000000000000000000000000000600052602260045260246000fd5b6152b080620035ec6000396000f3fe608060405234801561001057600080fd5b50600436106101cf5760003560e01c806370a0823111610104578063a22cb465116100a2578063d47f269e11610071578063d47f269e1461058a578063e985e9c5146105ba578063ef68075a146105ea578063f2fde38b1461061a576101cf565b8063a22cb465146104f2578063b88d4fde1461050e578063c08a5dd51461052a578063c87b56dd1461055a576101cf565b806395d89b41116100de57806395d89b41146104445780639720c969146104625780639bdc1b69146104925780639e41b73f146104c2576101cf565b806370a08231146103ec578063715018a61461041c5780638da5cb5b14610426576101cf565b80632f745c5911610171578063434f48c41161014b578063434f48c4146103405780634f6ccce71461035c5780636352211e1461038c57806367209aa8146103bc576101cf565b80632f745c59146102d8578063379607f51461030857806342842e0e14610324576101cf565b8063095ea7b3116101ad578063095ea7b3146102525780630e99990d1461026e57806318160ddd1461029e57806323b872dd146102bc576101cf565b806301ffc9a7146101d457806306fdde0314610204578063081812fc14610222575b600080fd5b6101ee60048036038101906101e9919061393e565b610636565b6040516101fb919061412d565b60405180910390f35b61020c6106b0565b6040516102199190614148565b60405180910390f35b61023c60048036038101906102379190613998565b610742565b60405161024991906140c6565b60405180910390f35b61026c600480360381019061026791906138fe565b6107c7565b005b61028860048036038101906102839190613998565b6108df565b6040516102959190614148565b60405180910390f35b6102a66109f9565b6040516102b391906143ca565b60405180910390f35b6102d660048036038101906102d191906137e8565b610a06565b005b6102f260048036038101906102ed91906138fe565b610a66565b6040516102ff91906143ca565b60405180910390f35b610322600480360381019061031d9190613998565b610b0b565b005b61033e600480360381019061033991906137e8565b610bc5565b005b61035a60048036038101906103559190613998565b610be5565b005b61037660048036038101906103719190613998565b610d1c565b60405161038391906143ca565b60405180910390f35b6103a660048036038101906103a19190613998565b610d8d565b6040516103b391906140c6565b60405180910390f35b6103d660048036038101906103d19190613998565b610e3f565b6040516103e39190614148565b60405180910390f35b6104066004803603810190610401919061377b565b610f59565b60405161041391906143ca565b60405180910390f35b610424611011565b005b61042e611099565b60405161043b91906140c6565b60405180910390f35b61044c6110c3565b6040516104599190614148565b60405180910390f35b61047c60048036038101906104779190613998565b611155565b6040516104899190614148565b60405180910390f35b6104ac60048036038101906104a79190613998565b61126f565b6040516104b99190614148565b60405180910390f35b6104dc60048036038101906104d79190613998565b611389565b6040516104e99190614148565b60405180910390f35b61050c600480360381019061050791906138be565b6114a3565b005b6105286004803603810190610523919061383b565b611624565b005b610544600480360381019061053f9190613998565b611686565b6040516105519190614148565b60405180910390f35b610574600480360381019061056f9190613998565b6117a0565b6040516105819190614148565b60405180910390f35b6105a4600480360381019061059f9190613998565b611d36565b6040516105b19190614148565b60405180910390f35b6105d460048036038101906105cf91906137a8565b611e50565b6040516105e1919061412d565b60405180910390f35b61060460048036038101906105ff9190613998565b611ee4565b6040516106119190614148565b60405180910390f35b610634600480360381019061062f919061377b565b611ffe565b005b60007f780e9d63000000000000000000000000000000000000000000000000000000007bffffffffffffffffffffffffffffffffffffffffffffffffffffffff1916827bffffffffffffffffffffffffffffffffffffffffffffffffffffffff191614806106a957506106a8826120f6565b5b9050919050565b6060600080546106bf9061465e565b80601f01602080910402602001604051908101604052809291908181526020018280546106eb9061465e565b80156107385780601f1061070d57610100808354040283529160200191610738565b820191906000526020600020905b81548152906001019060200180831161071b57829003601f168201915b5050505050905090565b600061074d826121d8565b61078c576040517f08c379a0000000000000000000000000000000000000000000000000000000008152600401610783906142ca565b60405180910390fd5b6004600083815260200190815260200160002060009054906101000a900473ffffffffffffffffffffffffffffffffffffffff169050919050565b60006107d282610d8d565b90508073ffffffffffffffffffffffffffffffffffffffff168373ffffffffffffffffffffffffffffffffffffffff161415610843576040517f08c379a000000000000000000000000000000000000000000000000000000000815260040161083a9061434a565b60405180910390fd5b8073ffffffffffffffffffffffffffffffffffffffff16610862612244565b73ffffffffffffffffffffffffffffffffffffffff16148061089157506108908161088b612244565b611e50565b5b6108d0576040517f08c379a00000000000000000000000000000000000000000000000000000000081526004016108c79061424a565b60405180910390fd5b6108da838361224c565b505050565b60606109f2826040518060400160405280600481526020017f464f4f54000000000000000000000000000000000000000000000000000000008152506010805480602002602001604051908101604052809291908181526020016000905b828210156109e957838290600052602060002001805461095c9061465e565b80601f01602080910402602001604051908101604052809291908181526020018280546109889061465e565b80156109d55780601f106109aa576101008083540402835291602001916109d5565b820191906000526020600020905b8154815290600101906020018083116109b857829003601f168201915b50505050508152602001906001019061093d565b50505050612305565b9050919050565b6000600880549050905090565b610a17610a11612244565b82612651565b610a56576040517f08c379a0000000000000000000000000000000000000000000000000000000008152600401610a4d9061436a565b60405180910390fd5b610a6183838361272f565b505050565b6000610a7183610f59565b8210610ab2576040517f08c379a0000000000000000000000000000000000000000000000000000000008152600401610aa99061416a565b60405180910390fd5b600660008473ffffffffffffffffffffffffffffffffffffffff1673ffffffffffffffffffffffffffffffffffffffff168152602001908152602001600020600083815260200190815260200160002054905092915050565b6002600a541415610b51576040517f08c379a0000000000000000000000000000000000000000000000000000000008152600401610b48906143aa565b60405180910390fd5b6002600a81905550600081118015610b6a5750611e6281105b610ba9576040517f08c379a0000000000000000000000000000000000000000000000000000000008152600401610ba09061430a565b60405180910390fd5b610bba610bb4612244565b8261298b565b6001600a8190555050565b610be083838360405180602001604052806000815250611624565b505050565b6002600a541415610c2b576040517f08c379a0000000000000000000000000000000000000000000000000000000008152600401610c22906143aa565b60405180910390fd5b6002600a81905550610c3b612244565b73ffffffffffffffffffffffffffffffffffffffff16610c59611099565b73ffffffffffffffffffffffffffffffffffffffff1614610caf576040517f08c379a0000000000000000000000000000000000000000000000000000000008152600401610ca6906142ea565b60405180910390fd5b611e6181118015610cc15750611f4181105b610d00576040517f08c379a0000000000000000000000000000000000000000000000000000000008152600401610cf79061430a565b60405180910390fd5b610d11610d0b611099565b8261298b565b6001600a8190555050565b6000610d266109f9565b8210610d67576040517f08c379a0000000000000000000000000000000000000000000000000000000008152600401610d5e9061438a565b60405180910390fd5b60088281548110610d7b57610d7a6147f7565b5b90600052602060002001549050919050565b6000806002600084815260200190815260200160002060009054906101000a900473ffffffffffffffffffffffffffffffffffffffff169050600073ffffffffffffffffffffffffffffffffffffffff168173ffffffffffffffffffffffffffffffffffffffff161415610e36576040517f08c379a0000000000000000000000000000000000000000000000000000000008152600401610e2d9061428a565b60405180910390fd5b80915050919050565b6060610f52826040518060400160405280600481526020017f4e45434b000000000000000000000000000000000000000000000000000000008152506012805480602002602001604051908101604052809291908181526020016000905b82821015610f49578382906000526020600020018054610ebc9061465e565b80601f0160208091040260200160405190810160405280929190818152602001828054610ee89061465e565b8015610f355780601f10610f0a57610100808354040283529160200191610f35565b820191906000526020600020905b815481529060010190602001808311610f1857829003601f168201915b505050505081526020019060010190610e9d565b50505050612305565b9050919050565b60008073ffffffffffffffffffffffffffffffffffffffff168273ffffffffffffffffffffffffffffffffffffffff161415610fca576040517f08c379a0000000000000000000000000000000000000000000000000000000008152600401610fc19061426a565b60405180910390fd5b600360008373ffffffffffffffffffffffffffffffffffffffff1673ffffffffffffffffffffffffffffffffffffffff168152602001908152602001600020549050919050565b611019612244565b73ffffffffffffffffffffffffffffffffffffffff16611037611099565b73ffffffffffffffffffffffffffffffffffffffff161461108d576040517f08c379a0000000000000000000000000000000000000000000000000000000008152600401611084906142ea565b60405180910390fd5b61109760006129a9565b565b6000600b60009054906101000a900473ffffffffffffffffffffffffffffffffffffffff16905090565b6060600180546110d29061465e565b80601f01602080910402602001604051908101604052809291908181526020018280546110fe9061465e565b801561114b5780601f106111205761010080835404028352916020019161114b565b820191906000526020600020905b81548152906001019060200180831161112e57829003601f168201915b5050505050905090565b6060611268826040518060400160405280600481526020017f4845414400000000000000000000000000000000000000000000000000000000815250600e805480602002602001604051908101604052809291908181526020016000905b8282101561125f5783829060005260206000200180546111d29061465e565b80601f01602080910402602001604051908101604052809291908181526020018280546111fe9061465e565b801561124b5780601f106112205761010080835404028352916020019161124b565b820191906000526020600020905b81548152906001019060200180831161122e57829003601f168201915b5050505050815260200190600101906111b3565b50505050612305565b9050919050565b6060611382826040518060400160405280600581526020017f5741495354000000000000000000000000000000000000000000000000000000815250600f805480602002602001604051908101604052809291908181526020016000905b828210156113795783829060005260206000200180546112ec9061465e565b80601f01602080910402602001604051908101604052809291908181526020018280546113189061465e565b80156113655780601f1061133a57610100808354040283529160200191611365565b820191906000526020600020905b81548152906001019060200180831161134857829003601f168201915b5050505050815260200190600101906112cd565b50505050612305565b9050919050565b606061149c826040518060400160405280600681526020017f574541504f4e0000000000000000000000000000000000000000000000000000815250600c805480602002602001604051908101604052809291908181526020016000905b828210156114935783829060005260206000200180546114069061465e565b80601f01602080910402602001604051908101604052809291908181526020018280546114329061465e565b801561147f5780601f106114545761010080835404028352916020019161147f565b820191906000526020600020905b81548152906001019060200180831161146257829003601f168201915b5050505050815260200190600101906113e7565b50505050612305565b9050919050565b6114ab612244565b73ffffffffffffffffffffffffffffffffffffffff168273ffffffffffffffffffffffffffffffffffffffff161415611519576040517f08c379a00000000000000000000000000000000000000000000000000000000081526004016115109061420a565b60405180910390fd5b8060056000611526612244565b73ffffffffffffffffffffffffffffffffffffffff1673ffffffffffffffffffffffffffffffffffffffff16815260200190815260200160002060008473ffffffffffffffffffffffffffffffffffffffff1673ffffffffffffffffffffffffffffffffffffffff16815260200190815260200160002060006101000a81548160ff0219169083151502179055508173ffffffffffffffffffffffffffffffffffffffff166115d3612244565b73ffffffffffffffffffffffffffffffffffffffff167f17307eab39ab6107e8899845ad3d59bd9653f200f220920489ca2b5937696c3183604051611618919061412d565b60405180910390a35050565b61163561162f612244565b83612651565b611674576040517f08c379a000000000000000000000000000000000000000000000000000000000815260040161166b9061436a565b60405180910390fd5b61168084848484612a6f565b50505050565b6060611799826040518060400160405280600481526020017f52494e47000000000000000000000000000000000000000000000000000000008152506013805480602002602001604051908101604052809291908181526020016000905b828210156117905783829060005260206000200180546117039061465e565b80601f016020809104026020016040519081016040528092919081815260200182805461172f9061465e565b801561177c5780601f106117515761010080835404028352916020019161177c565b820191906000526020600020905b81548152906001019060200180831161175f57829003601f168201915b5050505050815260200190600101906116e4565b50505050612305565b9050919050565b60606117aa613653565b60405180610120016040528060fd81526020016150ed60fd9139816000601181106117d8576117d76147f7565b5b60200201819052506117e983611389565b816001601181106117fd576117fc6147f7565b5b60200201819052506040518060600160405280602881526020016152536028913981600260118110611832576118316147f7565b5b602002018190525061184383611ee4565b81600360118110611857576118566147f7565b5b6020020181905250604051806060016040528060288152602001615022602891398160046011811061188c5761188b6147f7565b5b602002018190525061189d83611155565b816005601181106118b1576118b06147f7565b5b602002018190525060405180606001604052806028815260200161509c60289139816006601181106118e6576118e56147f7565b5b60200201819052506118f78361126f565b8160076011811061190b5761190a6147f7565b5b60200201819052506040518060600160405280602981526020016150c460299139816008601181106119405761193f6147f7565b5b6020020181905250611951836108df565b81600960118110611965576119646147f7565b5b60200201819052506040518060600160405280602981526020016150736029913981600a6011811061199a576119996147f7565b5b60200201819052506119ab83611d36565b81600b601181106119bf576119be6147f7565b5b60200201819052506040518060600160405280602981526020016151ea6029913981600c601181106119f4576119f36147f7565b5b6020020181905250611a0583610e3f565b81600d60118110611a1957611a186147f7565b5b602002018190525060405180606001604052806029815260200161504a6029913981600e60118110611a4e57611a4d6147f7565b5b6020020181905250611a5f83611686565b81600f60118110611a7357611a726147f7565b5b60200201819052506040518060400160405280600d81526020017f3c2f746578743e3c2f7376673e0000000000000000000000000000000000000081525081601060118110611ac557611ac46147f7565b5b6020020181905250600081600060118110611ae357611ae26147f7565b5b602002015182600160118110611afc57611afb6147f7565b5b602002015183600260118110611b1557611b146147f7565b5b602002015184600360118110611b2e57611b2d6147f7565b5b602002015185600460118110611b4757611b466147f7565b5b602002015186600560118110611b6057611b5f6147f7565b5b602002015187600660118110611b7957611b786147f7565b5b602002015188600760118110611b9257611b916147f7565b5b602002015189600860118110611bab57611baa6147f7565b5b6020020151604051602001611bc899989796959493929190613f02565b60405160208183030381529060405290508082600960118110611bee57611bed6147f7565b5b602002015183600a60118110611c0757611c066147f7565b5b602002015184600b60118110611c2057611c1f6147f7565b5b602002015185600c60118110611c3957611c386147f7565b5b602002015186600d60118110611c5257611c516147f7565b5b602002015187600e60118110611c6b57611c6a6147f7565b5b602002015188600f60118110611c8457611c836147f7565b5b602002015189601060118110611c9d57611c9c6147f7565b5b6020020151604051602001611cba99989796959493929190613f02565b60405160208183030381529060405290506000611d07611cd986612acb565b611ce284612c2c565b604051602001611cf392919061405f565b604051602081830303815290604052612c2c565b905080604051602001611d1a91906140a4565b6040516020818303038152906040529150819350505050919050565b6060611e49826040518060400160405280600481526020017f48414e44000000000000000000000000000000000000000000000000000000008152506011805480602002602001604051908101604052809291908181526020016000905b82821015611e40578382906000526020600020018054611db39061465e565b80601f0160208091040260200160405190810160405280929190818152602001828054611ddf9061465e565b8015611e2c5780601f10611e0157610100808354040283529160200191611e2c565b820191906000526020600020905b815481529060010190602001808311611e0f57829003601f168201915b505050505081526020019060010190611d94565b50505050612305565b9050919050565b6000600560008473ffffffffffffffffffffffffffffffffffffffff1673ffffffffffffffffffffffffffffffffffffffff16815260200190815260200160002060008373ffffffffffffffffffffffffffffffffffffffff1673ffffffffffffffffffffffffffffffffffffffff16815260200190815260200160002060009054906101000a900460ff16905092915050565b6060611ff7826040518060400160405280600581526020017f4348455354000000000000000000000000000000000000000000000000000000815250600d805480602002602001604051908101604052809291908181526020016000905b82821015611fee578382906000526020600020018054611f619061465e565b80601f0160208091040260200160405190810160405280929190818152602001828054611f8d9061465e565b8015611fda5780601f10611faf57610100808354040283529160200191611fda565b820191906000526020600020905b815481529060010190602001808311611fbd57829003601f168201915b505050505081526020019060010190611f42565b50505050612305565b9050919050565b612006612244565b73ffffffffffffffffffffffffffffffffffffffff16612024611099565b73ffffffffffffffffffffffffffffffffffffffff161461207a576040517f08c379a0000000000000000000000000000000000000000000000000000000008152600401612071906142ea565b60405180910390fd5b600073ffffffffffffffffffffffffffffffffffffffff168173ffffffffffffffffffffffffffffffffffffffff1614156120ea576040517f08c379a00000000000000000000000000000000000000000000000000000000081526004016120e1906141aa565b60405180910390fd5b6120f3816129a9565b50565b60007f80ac58cd000000000000000000000000000000000000000000000000000000007bffffffffffffffffffffffffffffffffffffffffffffffffffffffff1916827bffffffffffffffffffffffffffffffffffffffffffffffffffffffff191614806121c157507f5b5e139f000000000000000000000000000000000000000000000000000000007bffffffffffffffffffffffffffffffffffffffffffffffffffffffff1916827bffffffffffffffffffffffffffffffffffffffffffffffffffffffff1916145b806121d157506121d082612dc4565b5b9050919050565b60008073ffffffffffffffffffffffffffffffffffffffff166002600084815260200190815260200160002060009054906101000a900473ffffffffffffffffffffffffffffffffffffffff1673ffffffffffffffffffffffffffffffffffffffff1614159050919050565b600033905090565b816004600083815260200190815260200160002060006101000a81548173ffffffffffffffffffffffffffffffffffffffff021916908373ffffffffffffffffffffffffffffffffffffffff160217905550808273ffffffffffffffffffffffffffffffffffffffff166122bf83610d8d565b73ffffffffffffffffffffffffffffffffffffffff167f8c5be1e5ebec7d5bd14f71427d1e84f3dd0314c0f7b2291e5b200ac8c7c3b92560405160405180910390a45050565b6060600061233b8461231687612acb565b604051602001612327929190613ede565b604051602081830303815290604052612e2e565b905060008384518361234d919061470a565b8151811061235e5761235d6147f7565b5b602002602001015190506000601583612377919061470a565b9050600e8111156123d357816014808054905085612395919061470a565b815481106123a6576123a56147f7565b5b906000526020600020016040516020016123c1929190613f81565b60405160208183030381529060405291505b60138110612644576123e361367b565b60158080549050856123f5919061470a565b81548110612406576124056147f7565b5b90600052602060002001805461241b9061465e565b80601f01602080910402602001604051908101604052809291908181526020018280546124479061465e565b80156124945780601f1061246957610100808354040283529160200191612494565b820191906000526020600020905b81548152906001019060200180831161247757829003601f168201915b5050505050816000600281106124ad576124ac6147f7565b5b602002018190525060168080549050856124c7919061470a565b815481106124d8576124d76147f7565b5b9060005260206000200180546124ed9061465e565b80601f01602080910402602001604051908101604052809291908181526020018280546125199061465e565b80156125665780601f1061253b57610100808354040283529160200191612566565b820191906000526020600020905b81548152906001019060200180831161254957829003601f168201915b50505050508160016002811061257f5761257e6147f7565b5b602002018190525060138214156125eb57806000600281106125a4576125a36147f7565b5b6020020151816001600281106125bd576125bc6147f7565b5b6020020151846040516020016125d593929190613fb0565b6040516020818303038152906040529250612642565b806000600281106125ff576125fe6147f7565b5b602002015181600160028110612618576126176147f7565b5b60200201518460405160200161263093929190614002565b60405160208183030381529060405292505b505b8193505050509392505050565b600061265c826121d8565b61269b576040517f08c379a00000000000000000000000000000000000000000000000000000000081526004016126929061422a565b60405180910390fd5b60006126a683610d8d565b90508073ffffffffffffffffffffffffffffffffffffffff168473ffffffffffffffffffffffffffffffffffffffff16148061271557508373ffffffffffffffffffffffffffffffffffffffff166126fd84610742565b73ffffffffffffffffffffffffffffffffffffffff16145b8061272657506127258185611e50565b5b91505092915050565b8273ffffffffffffffffffffffffffffffffffffffff1661274f82610d8d565b73ffffffffffffffffffffffffffffffffffffffff16146127a5576040517f08c379a000000000000000000000000000000000000000000000000000000000815260040161279c9061432a565b60405180910390fd5b600073ffffffffffffffffffffffffffffffffffffffff168273ffffffffffffffffffffffffffffffffffffffff161415612815576040517f08c379a000000000000000000000000000000000000000000000000000000000815260040161280c906141ea565b60405180910390fd5b612820838383612e61565b61282b60008261224c565b6001600360008573ffffffffffffffffffffffffffffffffffffffff1673ffffffffffffffffffffffffffffffffffffffff168152602001908152602001600020600082825461287b9190614574565b925050819055506001600360008473ffffffffffffffffffffffffffffffffffffffff1673ffffffffffffffffffffffffffffffffffffffff16815260200190815260200160002060008282546128d29190614493565b92505081905550816002600083815260200190815260200160002060006101000a81548173ffffffffffffffffffffffffffffffffffffffff021916908373ffffffffffffffffffffffffffffffffffffffff160217905550808273ffffffffffffffffffffffffffffffffffffffff168473ffffffffffffffffffffffffffffffffffffffff167fddf252ad1be2c89b69c2b068fc378daa952ba7f163c4a11628f55a4df523b3ef60405160405180910390a4505050565b6129a5828260405180602001604052806000815250612f75565b5050565b6000600b60009054906101000a900473ffffffffffffffffffffffffffffffffffffffff16905081600b60006101000a81548173ffffffffffffffffffffffffffffffffffffffff021916908373ffffffffffffffffffffffffffffffffffffffff1602179055508173ffffffffffffffffffffffffffffffffffffffff168173ffffffffffffffffffffffffffffffffffffffff167f8be0079c531659141344cd1fd0a4f28419497f9722a3daafe3b4186f6b6457e060405160405180910390a35050565b612a7a84848461272f565b612a8684848484612fd0565b612ac5576040517f08c379a0000000000000000000000000000000000000000000000000000000008152600401612abc9061418a565b60405180910390fd5b50505050565b60606000821415612b13576040518060400160405280600181526020017f30000000000000000000000000000000000000000000000000000000000000008152509050612c27565b600082905060005b60008214612b45578080612b2e906146c1565b915050600a82612b3e91906144e9565b9150612b1b565b60008167ffffffffffffffff811115612b6157612b60614826565b5b6040519080825280601f01601f191660200182016040528015612b935781602001600182028036833780820191505090505b5090505b60008514612c2057600182612bac9190614574565b9150600a85612bbb919061470a565b6030612bc79190614493565b60f81b818381518110612bdd57612bdc6147f7565b5b60200101907effffffffffffffffffffffffffffffffffffffffffffffffffffffffffffff1916908160001a905350600a85612c1991906144e9565b9450612b97565b8093505050505b919050565b60606000825190506000811415612c555760405180602001604052806000815250915050612dbf565b60006003600283612c669190614493565b612c7091906144e9565b6004612c7c919061451a565b90506000602082612c8d9190614493565b67ffffffffffffffff811115612ca657612ca5614826565b5b6040519080825280601f01601f191660200182016040528015612cd85781602001600182028036833780820191505090505b5090506000604051806060016040528060408152602001615213604091399050600181016020830160005b86811015612d7c5760038101905062ffffff818a015116603f8160121c168401518060081b905060ff603f83600c1c1686015116810190508060081b905060ff603f8360061c1686015116810190508060081b905060ff603f831686015116810190508060e01b90508084526004840193505050612d03565b506003860660018114612d965760028114612da657612db1565b613d3d60f01b6002830352612db1565b603d60f81b60018303525b508484525050819450505050505b919050565b60007f01ffc9a7000000000000000000000000000000000000000000000000000000007bffffffffffffffffffffffffffffffffffffffffffffffffffffffff1916827bffffffffffffffffffffffffffffffffffffffffffffffffffffffff1916149050919050565b600081604051602001612e419190613ec7565b6040516020818303038152906040528051906020012060001c9050919050565b612e6c838383613167565b600073ffffffffffffffffffffffffffffffffffffffff168373ffffffffffffffffffffffffffffffffffffffff161415612eaf57612eaa8161316c565b612eee565b8173ffffffffffffffffffffffffffffffffffffffff168373ffffffffffffffffffffffffffffffffffffffff1614612eed57612eec83826131b5565b5b5b600073ffffffffffffffffffffffffffffffffffffffff168273ffffffffffffffffffffffffffffffffffffffff161415612f3157612f2c81613322565b612f70565b8273ffffffffffffffffffffffffffffffffffffffff168273ffffffffffffffffffffffffffffffffffffffff1614612f6f57612f6e82826133f3565b5b5b505050565b612f7f8383613472565b612f8c6000848484612fd0565b612fcb576040517f08c379a0000000000000000000000000000000000000000000000000000000008152600401612fc29061418a565b60405180910390fd5b505050565b6000612ff18473ffffffffffffffffffffffffffffffffffffffff16613640565b1561315a578373ffffffffffffffffffffffffffffffffffffffff1663150b7a0261301a612244565b8786866040518563ffffffff1660e01b815260040161303c94939291906140e1565b602060405180830381600087803b15801561305657600080fd5b505af192505050801561308757506040513d601f19601f82011682018060405250810190613084919061396b565b60015b61310a573d80600081146130b7576040519150601f19603f3d011682016040523d82523d6000602084013e6130bc565b606091505b50600081511415613102576040517f08c379a00000000000000000000000000000000000000000000000000000000081526004016130f99061418a565b60405180910390fd5b805181602001fd5b63150b7a0260e01b7bffffffffffffffffffffffffffffffffffffffffffffffffffffffff1916817bffffffffffffffffffffffffffffffffffffffffffffffffffffffff19161491505061315f565b600190505b949350505050565b505050565b6008805490506009600083815260200190815260200160002081905550600881908060018154018082558091505060019003906000526020600020016000909190919091505550565b600060016131c284610f59565b6131cc9190614574565b90506000600760008481526020019081526020016000205490508181146132b1576000600660008673ffffffffffffffffffffffffffffffffffffffff1673ffffffffffffffffffffffffffffffffffffffff168152602001908152602001600020600084815260200190815260200160002054905080600660008773ffffffffffffffffffffffffffffffffffffffff1673ffffffffffffffffffffffffffffffffffffffff168152602001908152602001600020600084815260200190815260200160002081905550816007600083815260200190815260200160002081905550505b6007600084815260200190815260200160002060009055600660008573ffffffffffffffffffffffffffffffffffffffff1673ffffffffffffffffffffffffffffffffffffffff16815260200190815260200160002060008381526020019081526020016000206000905550505050565b600060016008805490506133369190614574565b9050600060096000848152602001908152602001600020549050600060088381548110613366576133656147f7565b5b906000526020600020015490508060088381548110613388576133876147f7565b5b9060005260206000200181905550816009600083815260200190815260200160002081905550600960008581526020019081526020016000206000905560088054806133d7576133d66147c8565b5b6001900381819060005260206000200160009055905550505050565b60006133fe83610f59565b905081600660008573ffffffffffffffffffffffffffffffffffffffff1673ffffffffffffffffffffffffffffffffffffffff168152602001908152602001600020600083815260200190815260200160002081905550806007600084815260200190815260200160002081905550505050565b600073ffffffffffffffffffffffffffffffffffffffff168273ffffffffffffffffffffffffffffffffffffffff1614156134e2576040517f08c379a00000000000000000000000000000000000000000000000000000000081526004016134d9906142aa565b60405180910390fd5b6134eb816121d8565b1561352b576040517f08c379a0000000000000000000000000000000000000000000000000000000008152600401613522906141ca565b60405180910390fd5b61353760008383612e61565b6001600360008473ffffffffffffffffffffffffffffffffffffffff1673ffffffffffffffffffffffffffffffffffffffff16815260200190815260200160002060008282546135879190614493565b92505081905550816002600083815260200190815260200160002060006101000a81548173ffffffffffffffffffffffffffffffffffffffff021916908373ffffffffffffffffffffffffffffffffffffffff160217905550808273ffffffffffffffffffffffffffffffffffffffff16600073ffffffffffffffffffffffffffffffffffffffff167fddf252ad1be2c89b69c2b068fc378daa952ba7f163c4a11628f55a4df523b3ef60405160405180910390a45050565b600080823b905060008111915050919050565b6040518061022001604052806011905b60608152602001906001900390816136635790505090565b60405180604001604052806002905b606081526020019060019003908161368a5790505090565b60006136b56136b08461440a565b6143e5565b9050828152602081018484840111156136d1576136d061485a565b5b6136dc84828561461c565b509392505050565b6000813590506136f381614fc5565b92915050565b60008135905061370881614fdc565b92915050565b60008135905061371d81614ff3565b92915050565b60008151905061373281614ff3565b92915050565b600082601f83011261374d5761374c614855565b5b813561375d8482602086016136a2565b91505092915050565b6000813590506137758161500a565b92915050565b60006020828403121561379157613790614864565b5b600061379f848285016136e4565b91505092915050565b600080604083850312156137bf576137be614864565b5b60006137cd858286016136e4565b92505060206137de858286016136e4565b9150509250929050565b60008060006060848603121561380157613800614864565b5b600061380f868287016136e4565b9350506020613820868287016136e4565b925050604061383186828701613766565b9150509250925092565b6000806000806080858703121561385557613854614864565b5b6000613863878288016136e4565b9450506020613874878288016136e4565b935050604061388587828801613766565b925050606085013567ffffffffffffffff8111156138a6576138a561485f565b5b6138b287828801613738565b91505092959194509250565b600080604083850312156138d5576138d4614864565b5b60006138e3858286016136e4565b92505060206138f4858286016136f9565b9150509250929050565b6000806040838503121561391557613914614864565b5b6000613923858286016136e4565b925050602061393485828601613766565b9150509250929050565b60006020828403121561395457613953614864565b5b60006139628482850161370e565b91505092915050565b60006020828403121561398157613980614864565b5b600061398f84828501613723565b91505092915050565b6000602082840312156139ae576139ad614864565b5b60006139bc84828501613766565b91505092915050565b6139ce816145a8565b82525050565b6139dd816145ba565b82525050565b60006139ee82614450565b6139f88185614466565b9350613a0881856020860161462b565b613a1181614869565b840191505092915050565b6000613a278261445b565b613a318185614477565b9350613a4181856020860161462b565b613a4a81614869565b840191505092915050565b6000613a608261445b565b613a6a8185614488565b9350613a7a81856020860161462b565b80840191505092915050565b60008154613a938161465e565b613a9d8186614488565b94506001821660008114613ab85760018114613ac957613afc565b60ff19831686528186019350613afc565b613ad28561443b565b60005b83811015613af457815481890152600182019150602081019050613ad5565b838801955050505b50505092915050565b6000613b12602b83614477565b9150613b1d8261487a565b604082019050919050565b6000613b35603283614477565b9150613b40826148c9565b604082019050919050565b6000613b58602683614477565b9150613b6382614918565b604082019050919050565b6000613b7b601c83614477565b9150613b8682614967565b602082019050919050565b6000613b9e602483614477565b9150613ba982614990565b604082019050919050565b6000613bc1601983614477565b9150613bcc826149df565b602082019050919050565b6000613be4600283614488565b9150613bef82614a08565b600282019050919050565b6000613c07602c83614477565b9150613c1282614a31565b604082019050919050565b6000613c2a600183614488565b9150613c3582614a80565b600182019050919050565b6000613c4d603883614477565b9150613c5882614aa9565b604082019050919050565b6000613c70600183614488565b9150613c7b82614af8565b600182019050919050565b6000613c93602a83614477565b9150613c9e82614b21565b604082019050919050565b6000613cb6602983614477565b9150613cc182614b70565b604082019050919050565b6000613cd9600283614488565b9150613ce482614bbf565b600282019050919050565b6000613cfc600f83614488565b9150613d0782614be8565b600f82019050919050565b6000613d1f602083614477565b9150613d2a82614c11565b602082019050919050565b6000613d42602c83614477565b9150613d4d82614c3a565b604082019050919050565b6000613d65602083614477565b9150613d7082614c89565b602082019050919050565b6000613d88601083614477565b9150613d9382614cb2565b602082019050919050565b6000613dab602983614477565b9150613db682614cdb565b604082019050919050565b6000613dcf61010083614488565b9150613dda82614d2a565b61010082019050919050565b6000613df3602183614477565b9150613dfe82614e5d565b604082019050919050565b6000613e16601d83614488565b9150613e2182614eac565b601d82019050919050565b6000613e39600383614488565b9150613e4482614ed5565b600382019050919050565b6000613e5c603183614477565b9150613e6782614efe565b604082019050919050565b6000613e7f602c83614477565b9150613e8a82614f4d565b604082019050919050565b6000613ea2601f83614477565b9150613ead82614f9c565b602082019050919050565b613ec181614612565b82525050565b6000613ed38284613a55565b915081905092915050565b6000613eea8285613a55565b9150613ef68284613a55565b91508190509392505050565b6000613f0e828c613a55565b9150613f1a828b613a55565b9150613f26828a613a55565b9150613f328289613a55565b9150613f3e8288613a55565b9150613f4a8287613a55565b9150613f568286613a55565b9150613f628285613a55565b9150613f6e8284613a55565b91508190509a9950505050505050505050565b6000613f8d8285613a55565b9150613f9882613c1d565b9150613fa48284613a86565b91508190509392505050565b6000613fbb82613c63565b9150613fc78286613a55565b9150613fd282613c1d565b9150613fde8285613a55565b9150613fe982613bd7565b9150613ff58284613a55565b9150819050949350505050565b600061400d82613c63565b91506140198286613a55565b915061402482613c1d565b91506140308285613a55565b915061403b82613bd7565b91506140478284613a55565b915061405282613e2c565b9150819050949350505050565b600061406a82613cef565b91506140768285613a55565b915061408182613dc1565b915061408d8284613a55565b915061409882613ccc565b91508190509392505050565b60006140af82613e09565b91506140bb8284613a55565b915081905092915050565b60006020820190506140db60008301846139c5565b92915050565b60006080820190506140f660008301876139c5565b61410360208301866139c5565b6141106040830185613eb8565b818103606083015261412281846139e3565b905095945050505050565b600060208201905061414260008301846139d4565b92915050565b600060208201905081810360008301526141628184613a1c565b905092915050565b6000602082019050818103600083015261418381613b05565b9050919050565b600060208201905081810360008301526141a381613b28565b9050919050565b600060208201905081810360008301526141c381613b4b565b9050919050565b600060208201905081810360008301526141e381613b6e565b9050919050565b6000602082019050818103600083015261420381613b91565b9050919050565b6000602082019050818103600083015261422381613bb4565b9050919050565b6000602082019050818103600083015261424381613bfa565b9050919050565b6000602082019050818103600083015261426381613c40565b9050919050565b6000602082019050818103600083015261428381613c86565b9050919050565b600060208201905081810360008301526142a381613ca9565b9050919050565b600060208201905081810360008301526142c381613d12565b9050919050565b600060208201905081810360008301526142e381613d35565b9050919050565b6000602082019050818103600083015261430381613d58565b9050919050565b6000602082019050818103600083015261432381613d7b565b9050919050565b6000602082019050818103600083015261434381613d9e565b9050919050565b6000602082019050818103600083015261436381613de6565b9050919050565b6000602082019050818103600083015261438381613e4f565b9050919050565b600060208201905081810360008301526143a381613e72565b9050919050565b600060208201905081810360008301526143c381613e95565b9050919050565b60006020820190506143df6000830184613eb8565b92915050565b60006143ef614400565b90506143fb8282614690565b919050565b6000604051905090565b600067ffffffffffffffff82111561442557614424614826565b5b61442e82614869565b9050602081019050919050565b60008190508160005260206000209050919050565b600081519050919050565b600081519050919050565b600082825260208201905092915050565b600082825260208201905092915050565b600081905092915050565b600061449e82614612565b91506144a983614612565b9250827fffffffffffffffffffffffffffffffffffffffffffffffffffffffffffffffff038211156144de576144dd61473b565b5b828201905092915050565b60006144f482614612565b91506144ff83614612565b92508261450f5761450e61476a565b5b828204905092915050565b600061452582614612565b915061453083614612565b9250817fffffffffffffffffffffffffffffffffffffffffffffffffffffffffffffffff04831182151516156145695761456861473b565b5b828202905092915050565b600061457f82614612565b915061458a83614612565b92508282101561459d5761459c61473b565b5b828203905092915050565b60006145b3826145f2565b9050919050565b60008115159050919050565b60007fffffffff0000000000000000000000000000000000000000000000000000000082169050919050565b600073ffffffffffffffffffffffffffffffffffffffff82169050919050565b6000819050919050565b82818337600083830152505050565b60005b8381101561464957808201518184015260208101905061462e565b83811115614658576000848401525b50505050565b6000600282049050600182168061467657607f821691505b6020821081141561468a57614689614799565b5b50919050565b61469982614869565b810181811067ffffffffffffffff821117156146b8576146b7614826565b5b80604052505050565b60006146cc82614612565b91507fffffffffffffffffffffffffffffffffffffffffffffffffffffffffffffffff8214156146ff576146fe61473b565b5b600182019050919050565b600061471582614612565b915061472083614612565b9250826147305761472f61476a565b5b828206905092915050565b7f4e487b7100000000000000000000000000000000000000000000000000000000600052601160045260246000fd5b7f4e487b7100000000000000000000000000000000000000000000000000000000600052601260045260246000fd5b7f4e487b7100000000000000000000000000000000000000000000000000000000600052602260045260246000fd5b7f4e487b7100000000000000000000000000000000000000000000000000000000600052603160045260246000fd5b7f4e487b7100000000000000000000000000000000000000000000000000000000600052603260045260246000fd5b7f4e487b7100000000000000000000000000000000000000000000000000000000600052604160045260246000fd5b600080fd5b600080fd5b600080fd5b600080fd5b6000601f19601f8301169050919050565b7f455243373231456e756d657261626c653a206f776e657220696e646578206f7560008201527f74206f6620626f756e6473000000000000000000000000000000000000000000602082015250565b7f4552433732313a207472616e7366657220746f206e6f6e20455243373231526560008201527f63656976657220696d706c656d656e7465720000000000000000000000000000602082015250565b7f4f776e61626c653a206e6577206f776e657220697320746865207a65726f206160008201527f6464726573730000000000000000000000000000000000000000000000000000602082015250565b7f4552433732313a20746f6b656e20616c7265616479206d696e74656400000000600082015250565b7f4552433732313a207472616e7366657220746f20746865207a65726f2061646460008201527f7265737300000000000000000000000000000000000000000000000000000000602082015250565b7f4552433732313a20617070726f766520746f2063616c6c657200000000000000600082015250565b7f2220000000000000000000000000000000000000000000000000000000000000600082015250565b7f4552433732313a206f70657261746f7220717565727920666f72206e6f6e657860008201527f697374656e7420746f6b656e0000000000000000000000000000000000000000602082015250565b7f2000000000000000000000000000000000000000000000000000000000000000600082015250565b7f4552433732313a20617070726f76652063616c6c6572206973206e6f74206f7760008201527f6e6572206e6f7220617070726f76656420666f7220616c6c0000000000000000602082015250565b7f2200000000000000000000000000000000000000000000000000000000000000600082015250565b7f4552433732313a2062616c616e636520717565727920666f7220746865207a6560008201527f726f206164647265737300000000000000000000000000000000000000000000602082015250565b7f4552433732313a206f776e657220717565727920666f72206e6f6e657869737460008201527f656e7420746f6b656e0000000000000000000000000000000000000000000000602082015250565b7f227d000000000000000000000000000000000000000000000000000000000000600082015250565b7f7b226e616d65223a202242616720230000000000000000000000000000000000600082015250565b7f4552433732313a206d696e7420746f20746865207a65726f2061646472657373600082015250565b7f4552433732313a20617070726f76656420717565727920666f72206e6f6e657860008201527f697374656e7420746f6b656e0000000000000000000000000000000000000000602082015250565b7f4f776e61626c653a2063616c6c6572206973206e6f7420746865206f776e6572600082015250565b7f546f6b656e20494420696e76616c696400000000000000000000000000000000600082015250565b7f4552433732313a207472616e73666572206f6620746f6b656e2074686174206960008201527f73206e6f74206f776e0000000000000000000000000000000000000000000000602082015250565b7f222c20226465736372697074696f6e223a20224c6f6f742069732072616e646f60008201527f6d697a656420616476656e747572657220676561722067656e6572617465642060208201527f616e642073746f726564206f6e20636861696e2e2053746174732c20696d616760408201527f65732c20616e64206f746865722066756e6374696f6e616c697479206172652060608201527f696e74656e74696f6e616c6c79206f6d697474656420666f72206f746865727360808201527f20746f20696e746572707265742e204665656c206672656520746f207573652060a08201527f4c6f6f7420696e20616e792077617920796f752077616e742e222c2022696d6160c08201527f6765223a2022646174613a696d6167652f7376672b786d6c3b6261736536342c60e082015250565b7f4552433732313a20617070726f76616c20746f2063757272656e74206f776e6560008201527f7200000000000000000000000000000000000000000000000000000000000000602082015250565b7f646174613a6170706c69636174696f6e2f6a736f6e3b6261736536342c000000600082015250565b7f202b310000000000000000000000000000000000000000000000000000000000600082015250565b7f4552433732313a207472616e736665722063616c6c6572206973206e6f74206f60008201527f776e6572206e6f7220617070726f766564000000000000000000000000000000602082015250565b7f455243373231456e756d657261626c653a20676c6f62616c20696e646578206f60008201527f7574206f6620626f756e64730000000000000000000000000000000000000000602082015250565b7f5265656e7472616e637947756172643a207265656e7472616e742063616c6c00600082015250565b614fce816145a8565b8114614fd957600080fd5b50565b614fe5816145ba565b8114614ff057600080fd5b50565b614ffc816145c6565b811461500757600080fd5b50565b61501381614612565b811461501e57600080fd5b5056fe3c2f746578743e3c7465787420783d2231302220793d2236302220636c6173733d2262617365223e3c2f746578743e3c7465787420783d2231302220793d223136302220636c6173733d2262617365223e3c2f746578743e3c7465787420783d2231302220793d223132302220636c6173733d2262617365223e3c2f746578743e3c7465787420783d2231302220793d2238302220636c6173733d2262617365223e3c2f746578743e3c7465787420783d2231302220793d223130302220636c6173733d2262617365223e3c73766720786d6c6e733d22687474703a2f2f7777772e77332e6f72672f323030302f73766722207072657365727665417370656374526174696f3d22784d696e594d696e206d656574222076696577426f783d223020302033353020333530223e3c7374796c653e2e62617365207b2066696c6c3a2077686974653b20666f6e742d66616d696c793a2073657269663b20666f6e742d73697a653a20313470783b207d3c2f7374796c653e3c726563742077696474683d223130302522206865696768743d2231303025222066696c6c3d22626c61636b22202f3e3c7465787420783d2231302220793d2232302220636c6173733d2262617365223e3c2f746578743e3c7465787420783d2231302220793d223134302220636c6173733d2262617365223e4142434445464748494a4b4c4d4e4f505152535455565758595a6162636465666768696a6b6c6d6e6f707172737475767778797a303132333435363738392b2f3c2f746578743e3c7465787420783d2231302220793d2234302220636c6173733d2262617365223ea2646970667358221220c6903035999523d45f59b29065e5d9c5d74f024af68828486bc9196fe3b5196164736f6c63430008050033",
  "immutableReferences": {},
  "source": "/**\n *Submitted for verification at Etherscan.io on 2021-08-27\n */\n\n// SPDX-License-Identifier: MIT\n\npragma solidity ^0.8.0;\nimport \"@openzeppelin/contracts/token/ERC721/extensions/ERC721Enumerable.sol\";\nimport \"@openzeppelin/contracts/access/Ownable.sol\";\nimport \"@openzeppelin/contracts/security/ReentrancyGuard.sol\";\n\ncontract Loot is ERC721Enumerable, ReentrancyGuard, Ownable {\n    string[] private weapons = [\n        \"Warhammer\",\n        \"Quarterstaff\",\n        \"Maul\",\n        \"Mace\",\n        \"Club\",\n        \"Katana\",\n        \"Falchion\",\n        \"Scimitar\",\n        \"Long Sword\",\n        \"Short Sword\",\n        \"Ghost Wand\",\n        \"Grave Wand\",\n        \"Bone Wand\",\n        \"Wand\",\n        \"Grimoire\",\n        \"Chronicle\",\n        \"Tome\",\n        \"Book\"\n    ];\n\n    string[] private chestArmor = [\n        \"Divine Robe\",\n        \"Silk Robe\",\n        \"Linen Robe\",\n        \"Robe\",\n        \"Shirt\",\n        \"Demon Husk\",\n        \"Dragonskin Armor\",\n        \"Studded Leather Armor\",\n        \"Hard Leather Armor\",\n        \"Leather Armor\",\n        \"Holy Chestplate\",\n        \"Ornate Chestplate\",\n        \"Plate Mail\",\n        \"Chain Mail\",\n        \"Ring Mail\"\n    ];\n\n    string[] private headArmor = [\n        \"Ancient Helm\",\n        \"Ornate Helm\",\n        \"Great Helm\",\n        \"Full Helm\",\n        \"Helm\",\n        \"Demon Crown\",\n        \"Dragon's Crown\",\n        \"War Cap\",\n        \"Leather Cap\",\n        \"Cap\",\n        \"Crown\",\n        \"Divine Hood\",\n        \"Silk Hood\",\n        \"Linen Hood\",\n        \"Hood\"\n    ];\n\n    string[] private waistArmor = [\n        \"Ornate Belt\",\n        \"War Belt\",\n        \"Plated Belt\",\n        \"Mesh Belt\",\n        \"Heavy Belt\",\n        \"Demonhide Belt\",\n        \"Dragonskin Belt\",\n        \"Studded Leather Belt\",\n        \"Hard Leather Belt\",\n        \"Leather Belt\",\n        \"Brightsilk Sash\",\n        \"Silk Sash\",\n        \"Wool Sash\",\n        \"Linen Sash\",\n        \"Sash\"\n    ];\n\n    string[] private footArmor = [\n        \"Holy Greaves\",\n        \"Ornate Greaves\",\n        \"Greaves\",\n        \"Chain Boots\",\n        \"Heavy Boots\",\n        \"Demonhide Boots\",\n        \"Dragonskin Boots\",\n        \"Studded Leather Boots\",\n        \"Hard Leather Boots\",\n        \"Leather Boots\",\n        \"Divine Slippers\",\n        \"Silk Slippers\",\n        \"Wool Shoes\",\n        \"Linen Shoes\",\n        \"Shoes\"\n    ];\n\n    string[] private handArmor = [\n        \"Holy Gauntlets\",\n        \"Ornate Gauntlets\",\n        \"Gauntlets\",\n        \"Chain Gloves\",\n        \"Heavy Gloves\",\n        \"Demon's Hands\",\n        \"Dragonskin Gloves\",\n        \"Studded Leather Gloves\",\n        \"Hard Leather Gloves\",\n        \"Leather Gloves\",\n        \"Divine Gloves\",\n        \"Silk Gloves\",\n        \"Wool Gloves\",\n        \"Linen Gloves\",\n        \"Gloves\"\n    ];\n\n    string[] private necklaces = [\"Necklace\", \"Amulet\", \"Pendant\"];\n\n    string[] private rings = [\n        \"Gold Ring\",\n        \"Silver Ring\",\n        \"Bronze Ring\",\n        \"Platinum Ring\",\n        \"Titanium Ring\"\n    ];\n\n    string[] private suffixes = [\n        \"of Power\",\n        \"of Giants\",\n        \"of Titans\",\n        \"of Skill\",\n        \"of Perfection\",\n        \"of Brilliance\",\n        \"of Enlightenment\",\n        \"of Protection\",\n        \"of Anger\",\n        \"of Rage\",\n        \"of Fury\",\n        \"of Vitriol\",\n        \"of the Fox\",\n        \"of Detection\",\n        \"of Reflection\",\n        \"of the Twins\"\n    ];\n\n    string[] private namePrefixes = [\n        \"Agony\",\n        \"Apocalypse\",\n        \"Armageddon\",\n        \"Beast\",\n        \"Behemoth\",\n        \"Blight\",\n        \"Blood\",\n        \"Bramble\",\n        \"Brimstone\",\n        \"Brood\",\n        \"Carrion\",\n        \"Cataclysm\",\n        \"Chimeric\",\n        \"Corpse\",\n        \"Corruption\",\n        \"Damnation\",\n        \"Death\",\n        \"Demon\",\n        \"Dire\",\n        \"Dragon\",\n        \"Dread\",\n        \"Doom\",\n        \"Dusk\",\n        \"Eagle\",\n        \"Empyrean\",\n        \"Fate\",\n        \"Foe\",\n        \"Gale\",\n        \"Ghoul\",\n        \"Gloom\",\n        \"Glyph\",\n        \"Golem\",\n        \"Grim\",\n        \"Hate\",\n        \"Havoc\",\n        \"Honour\",\n        \"Horror\",\n        \"Hypnotic\",\n        \"Kraken\",\n        \"Loath\",\n        \"Maelstrom\",\n        \"Mind\",\n        \"Miracle\",\n        \"Morbid\",\n        \"Oblivion\",\n        \"Onslaught\",\n        \"Pain\",\n        \"Pandemonium\",\n        \"Phoenix\",\n        \"Plague\",\n        \"Rage\",\n        \"Rapture\",\n        \"Rune\",\n        \"Skull\",\n        \"Sol\",\n        \"Soul\",\n        \"Sorrow\",\n        \"Spirit\",\n        \"Storm\",\n        \"Tempest\",\n        \"Torment\",\n        \"Vengeance\",\n        \"Victory\",\n        \"Viper\",\n        \"Vortex\",\n        \"Woe\",\n        \"Wrath\",\n        \"Light's\",\n        \"Shimmering\"\n    ];\n\n    string[] private nameSuffixes = [\n        \"Bane\",\n        \"Root\",\n        \"Bite\",\n        \"Song\",\n        \"Roar\",\n        \"Grasp\",\n        \"Instrument\",\n        \"Glow\",\n        \"Bender\",\n        \"Shadow\",\n        \"Whisper\",\n        \"Shout\",\n        \"Growl\",\n        \"Tear\",\n        \"Peak\",\n        \"Form\",\n        \"Sun\",\n        \"Moon\"\n    ];\n\n    function random(string memory input) internal pure returns (uint256) {\n        return uint256(keccak256(abi.encodePacked(input)));\n    }\n\n    function getWeapon(uint256 tokenId) public view returns (string memory) {\n        return pluck(tokenId, \"WEAPON\", weapons);\n    }\n\n    function getChest(uint256 tokenId) public view returns (string memory) {\n        return pluck(tokenId, \"CHEST\", chestArmor);\n    }\n\n    function getHead(uint256 tokenId) public view returns (string memory) {\n        return pluck(tokenId, \"HEAD\", headArmor);\n    }\n\n    function getWaist(uint256 tokenId) public view returns (string memory) {\n        return pluck(tokenId, \"WAIST\", waistArmor);\n    }\n\n    function getFoot(uint256 tokenId) public view returns (string memory) {\n        return pluck(tokenId, \"FOOT\", footArmor);\n    }\n\n    function getHand(uint256 tokenId) public view returns (string memory) {\n        return pluck(tokenId, \"HAND\", handArmor);\n    }\n\n    function getNeck(uint256 tokenId) public view returns (string memory) {\n        return pluck(tokenId, \"NECK\", necklaces);\n    }\n\n    function getRing(uint256 tokenId) public view returns (string memory) {\n        return pluck(tokenId, \"RING\", rings);\n    }\n\n    function pluck(\n        uint256 tokenId,\n        string memory keyPrefix,\n        string[] memory sourceArray\n    ) internal view returns (string memory) {\n        uint256 rand = random(\n            string(abi.encodePacked(keyPrefix, toString(tokenId)))\n        );\n        string memory output = sourceArray[rand % sourceArray.length];\n        uint256 greatness = rand % 21;\n        if (greatness > 14) {\n            output = string(\n                abi.encodePacked(output, \" \", suffixes[rand % suffixes.length])\n            );\n        }\n        if (greatness >= 19) {\n            string[2] memory name;\n            name[0] = namePrefixes[rand % namePrefixes.length];\n            name[1] = nameSuffixes[rand % nameSuffixes.length];\n            if (greatness == 19) {\n                output = string(\n                    abi.encodePacked('\"', name[0], \" \", name[1], '\" ', output)\n                );\n            } else {\n                output = string(\n                    abi.encodePacked(\n                        '\"',\n                        name[0],\n                        \" \",\n                        name[1],\n                        '\" ',\n                        output,\n                        \" +1\"\n                    )\n                );\n            }\n        }\n        return output;\n    }\n\n    function tokenURI(uint256 tokenId)\n        public\n        view\n        override\n        returns (string memory)\n    {\n        string[17] memory parts;\n        parts[\n            0\n        ] = '<svg xmlns=\"http://www.w3.org/2000/svg\" preserveAspectRatio=\"xMinYMin meet\" viewBox=\"0 0 350 350\"><style>.base { fill: white; font-family: serif; font-size: 14px; }</style><rect width=\"100%\" height=\"100%\" fill=\"black\" /><text x=\"10\" y=\"20\" class=\"base\">';\n\n        parts[1] = getWeapon(tokenId);\n\n        parts[2] = '</text><text x=\"10\" y=\"40\" class=\"base\">';\n\n        parts[3] = getChest(tokenId);\n\n        parts[4] = '</text><text x=\"10\" y=\"60\" class=\"base\">';\n\n        parts[5] = getHead(tokenId);\n\n        parts[6] = '</text><text x=\"10\" y=\"80\" class=\"base\">';\n\n        parts[7] = getWaist(tokenId);\n\n        parts[8] = '</text><text x=\"10\" y=\"100\" class=\"base\">';\n\n        parts[9] = getFoot(tokenId);\n\n        parts[10] = '</text><text x=\"10\" y=\"120\" class=\"base\">';\n\n        parts[11] = getHand(tokenId);\n\n        parts[12] = '</text><text x=\"10\" y=\"140\" class=\"base\">';\n\n        parts[13] = getNeck(tokenId);\n\n        parts[14] = '</text><text x=\"10\" y=\"160\" class=\"base\">';\n\n        parts[15] = getRing(tokenId);\n\n        parts[16] = \"</text></svg>\";\n\n        string memory output = string(\n            abi.encodePacked(\n                parts[0],\n                parts[1],\n                parts[2],\n                parts[3],\n                parts[4],\n                parts[5],\n                parts[6],\n                parts[7],\n                parts[8]\n            )\n        );\n        output = string(\n            abi.encodePacked(\n                output,\n                parts[9],\n                parts[10],\n                parts[11],\n                parts[12],\n                parts[13],\n                parts[14],\n                parts[15],\n                parts[16]\n            )\n        );\n\n        string memory json = Base64.encode(\n            bytes(\n                string(\n                    abi.encodePacked(\n                        '{\"name\": \"Bag #',\n                        toString(tokenId),\n                        '\", \"description\": \"Loot is randomized adventurer gear generated and stored on chain. Stats, images, and other functionality are intentionally omitted for others to interpret. Feel free to use Loot in any way you want.\", \"image\": \"data:image/svg+xml;base64,',\n                        Base64.encode(bytes(output)),\n                        '\"}'\n                    )\n                )\n            )\n        );\n        output = string(\n            abi.encodePacked(\"data:application/json;base64,\", json)\n        );\n\n        return output;\n    }\n\n    function claim(uint256 tokenId) public nonReentrant {\n        require(tokenId > 0 && tokenId < 7778, \"Token ID invalid\");\n        _safeMint(_msgSender(), tokenId);\n    }\n\n    function ownerClaim(uint256 tokenId) public nonReentrant onlyOwner {\n        require(tokenId > 7777 && tokenId < 8001, \"Token ID invalid\");\n        _safeMint(owner(), tokenId);\n    }\n\n    function toString(uint256 value) internal pure returns (string memory) {\n        // Inspired by OraclizeAPI's implementation - MIT license\n        // https://github.com/oraclize/ethereum-api/blob/b42146b063c7d6ee1358846c198246239e9360e8/oraclizeAPI_0.4.25.sol\n\n        if (value == 0) {\n            return \"0\";\n        }\n        uint256 temp = value;\n        uint256 digits;\n        while (temp != 0) {\n            digits++;\n            temp /= 10;\n        }\n        bytes memory buffer = new bytes(digits);\n        while (value != 0) {\n            digits -= 1;\n            buffer[digits] = bytes1(uint8(48 + uint256(value % 10)));\n            value /= 10;\n        }\n        return string(buffer);\n    }\n\n    constructor() ERC721(\"Loot\", \"LOOT\") Ownable() {}\n}\n\n/// [MIT License]\n/// @title Base64\n/// @notice Provides a function for encoding some bytes in base64\n/// @author Brecht Devos <brecht@loopring.org>\nlibrary Base64 {\n    bytes internal constant TABLE =\n        \"ABCDEFGHIJKLMNOPQRSTUVWXYZabcdefghijklmnopqrstuvwxyz0123456789+/\";\n\n    /// @notice Encodes some bytes to the base64 representation\n    function encode(bytes memory data) internal pure returns (string memory) {\n        uint256 len = data.length;\n        if (len == 0) return \"\";\n\n        // multiply by 4/3 rounded up\n        uint256 encodedLen = 4 * ((len + 2) / 3);\n\n        // Add some extra buffer at the end\n        bytes memory result = new bytes(encodedLen + 32);\n\n        bytes memory table = TABLE;\n\n        assembly {\n            let tablePtr := add(table, 1)\n            let resultPtr := add(result, 32)\n\n            for {\n                let i := 0\n            } lt(i, len) {\n\n            } {\n                i := add(i, 3)\n                let input := and(mload(add(data, i)), 0xffffff)\n\n                let out := mload(add(tablePtr, and(shr(18, input), 0x3F)))\n                out := shl(8, out)\n                out := add(\n                    out,\n                    and(mload(add(tablePtr, and(shr(12, input), 0x3F))), 0xFF)\n                )\n                out := shl(8, out)\n                out := add(\n                    out,\n                    and(mload(add(tablePtr, and(shr(6, input), 0x3F))), 0xFF)\n                )\n                out := shl(8, out)\n                out := add(\n                    out,\n                    and(mload(add(tablePtr, and(input, 0x3F))), 0xFF)\n                )\n                out := shl(224, out)\n\n                mstore(resultPtr, out)\n\n                resultPtr := add(resultPtr, 4)\n            }\n\n            switch mod(len, 3)\n            case 1 {\n                mstore(sub(resultPtr, 2), shl(240, 0x3d3d))\n            }\n            case 2 {\n                mstore(sub(resultPtr, 1), shl(248, 0x3d))\n            }\n\n            mstore(result, encodedLen)\n        }\n\n        return string(result);\n    }\n}\n",
  "sourcePath": "/Volumes/Store/src/Degis-Contracts-1/contracts/Loot.sol",
  "compiler": {
    "name": "solc",
    "version": "0.8.5+commit.a4f2e591.Emscripten.clang"
  },
  "schemaVersion": "3.4.3",
  "updatedAt": "2021-11-02T06:40:33.645Z",
  "devdoc": {
    "kind": "dev",
    "methods": {
      "approve(address,uint256)": {
        "details": "See {IERC721-approve}."
      },
      "balanceOf(address)": {
        "details": "See {IERC721-balanceOf}."
      },
      "getApproved(uint256)": {
        "details": "See {IERC721-getApproved}."
      },
      "isApprovedForAll(address,address)": {
        "details": "See {IERC721-isApprovedForAll}."
      },
      "name()": {
        "details": "See {IERC721Metadata-name}."
      },
      "owner()": {
        "details": "Returns the address of the current owner."
      },
      "ownerOf(uint256)": {
        "details": "See {IERC721-ownerOf}."
      },
      "renounceOwnership()": {
        "details": "Leaves the contract without owner. It will not be possible to call `onlyOwner` functions anymore. Can only be called by the current owner. NOTE: Renouncing ownership will leave the contract without an owner, thereby removing any functionality that is only available to the owner."
      },
      "safeTransferFrom(address,address,uint256)": {
        "details": "See {IERC721-safeTransferFrom}."
      },
      "safeTransferFrom(address,address,uint256,bytes)": {
        "details": "See {IERC721-safeTransferFrom}."
      },
      "setApprovalForAll(address,bool)": {
        "details": "See {IERC721-setApprovalForAll}."
      },
      "supportsInterface(bytes4)": {
        "details": "See {IERC165-supportsInterface}."
      },
      "symbol()": {
        "details": "See {IERC721Metadata-symbol}."
      },
      "tokenByIndex(uint256)": {
        "details": "See {IERC721Enumerable-tokenByIndex}."
      },
      "tokenOfOwnerByIndex(address,uint256)": {
        "details": "See {IERC721Enumerable-tokenOfOwnerByIndex}."
      },
      "tokenURI(uint256)": {
        "details": "See {IERC721Metadata-tokenURI}."
      },
      "totalSupply()": {
        "details": "See {IERC721Enumerable-totalSupply}."
      },
      "transferFrom(address,address,uint256)": {
        "details": "See {IERC721-transferFrom}."
      },
      "transferOwnership(address)": {
        "details": "Transfers ownership of the contract to a new account (`newOwner`). Can only be called by the current owner."
      }
    },
    "version": 1
  },
  "userdoc": {
    "kind": "user",
    "methods": {},
    "version": 1
  }
}