{
  "contractName": "NFTInfo",
  "abi": [
    {
      "inputs": [
        {
          "components": [
            {
              "internalType": "uint256",
              "name": "productId",
              "type": "uint256"
            },
            {
              "internalType": "bytes32",
              "name": "policyId",
              "type": "bytes32"
            },
            {
              "internalType": "address",
              "name": "owner",
              "type": "address"
            },
            {
              "internalType": "uint256",
              "name": "premium",
              "type": "uint256"
            },
            {
              "internalType": "uint256",
              "name": "payoff",
              "type": "uint256"
            },
            {
              "internalType": "uint256",
              "name": "purchaseDate",
              "type": "uint256"
            },
            {
              "internalType": "uint256",
              "name": "expiryDate",
              "type": "uint256"
            },
            {
              "internalType": "uint256",
              "name": "status",
              "type": "uint256"
            }
          ],
          "internalType": "struct NFTInfo.PolicyTokenURIParam",
          "name": "_params",
          "type": "tuple"
        }
      ],
      "name": "constructTokenURI",
      "outputs": [
        {
          "internalType": "string",
          "name": "",
          "type": "string"
        }
      ],
      "stateMutability": "pure",
      "type": "function"
    }
  ],
  "bytecode": "0x610a8e610053600b82828239805160001a607314610046577f4e487b7100000000000000000000000000000000000000000000000000000000600052600060045260246000fd5b30600052607381538281f3fe73000000000000000000000000000000000000000030146080604052600436106100355760003560e01c806395bd03361461003a575b600080fd5b610054600480360381019061004f9190610365565b61006a565b60405161006191906105c6565b60405180910390f35b606060008260e00151905061008283600001516100fb565b83602001516100a7670de0b6b3a764000086606001516100a2919061068a565b6100fb565b6100c7670de0b6b3a764000087608001516100c2919061068a565b6100fb565b6100d0856100fb565b6040516020016100e4959493929190610509565b604051602081830303815290604052915050919050565b60606000821415610143576040518060400160405280600181526020017f30000000000000000000000000000000000000000000000000000000000000008152509050610257565b600082905060005b6000821461017557808061015e90610799565b915050600a8261016e919061068a565b915061014b565b60008167ffffffffffffffff811115610191576101906108aa565b5b6040519080825280601f01601f1916602001820160405280156101c35781602001600182028036833780820191505090505b5090505b60008514610250576001826101dc91906106bb565b9150600a856101eb91906107ec565b60306101f79190610634565b60f81b81838151811061020d5761020c61087b565b5b60200101907effffffffffffffffffffffffffffffffffffffffffffffffffffffffffffff1916908160001a905350600a85610249919061068a565b94506101c7565b8093505050505b919050565b60008135905061026b81610a13565b92915050565b60008135905061028081610a2a565b92915050565b6000610100828403121561029d5761029c6108d9565b5b6102a86101006105e8565b905060006102b884828501610350565b60008301525060206102cc84828501610271565b60208301525060406102e08482850161025c565b60408301525060606102f484828501610350565b606083015250608061030884828501610350565b60808301525060a061031c84828501610350565b60a08301525060c061033084828501610350565b60c08301525060e061034484828501610350565b60e08301525092915050565b60008135905061035f81610a41565b92915050565b6000610100828403121561037c5761037b6108de565b5b600061038a84828501610286565b91505092915050565b6103a461039f82610701565b6107e2565b82525050565b60006103b58261060d565b6103bf8185610618565b93506103cf818560208601610735565b6103d8816108e3565b840191505092915050565b60006103ee8261060d565b6103f88185610629565b9350610408818560208601610735565b80840191505092915050565b6000610421600883610629565b915061042c826108f4565b600882019050919050565b6000610444600783610629565b915061044f8261091d565b600782019050919050565b6000610467600183610629565b915061047282610946565b600182019050919050565b600061048a600183610629565b91506104958261096f565b600182019050919050565b60006104ad600a83610629565b91506104b882610998565b600a82019050919050565b60006104d0600b83610629565b91506104db826109c1565b600b82019050919050565b60006104f3600d83610629565b91506104fe826109ea565b600d82019050919050565b6000610514826104c3565b915061052082886103e3565b915061052b8261045a565b9150610536826104a0565b91506105428287610393565b6020820191506105518261045a565b915061055c82610414565b915061056882866103e3565b91506105738261045a565b915061057e82610437565b915061058a82856103e3565b91506105958261045a565b91506105a0826104e6565b91506105ac82846103e3565b91506105b78261047d565b91508190509695505050505050565b600060208201905081810360008301526105e081846103aa565b905092915050565b60006105f2610603565b90506105fe8282610768565b919050565b6000604051905090565b600081519050919050565b600082825260208201905092915050565b600081905092915050565b600061063f8261072b565b915061064a8361072b565b9250827fffffffffffffffffffffffffffffffffffffffffffffffffffffffffffffffff0382111561067f5761067e61081d565b5b828201905092915050565b60006106958261072b565b91506106a08361072b565b9250826106b0576106af61084c565b5b828204905092915050565b60006106c68261072b565b91506106d18361072b565b9250828210156106e4576106e361081d565b5b828203905092915050565b60006106fa8261070b565b9050919050565b6000819050919050565b600073ffffffffffffffffffffffffffffffffffffffff82169050919050565b6000819050919050565b60005b83811015610753578082015181840152602081019050610738565b83811115610762576000848401525b50505050565b610771826108e3565b810181811067ffffffffffffffff821117156107905761078f6108aa565b5b80604052505050565b60006107a48261072b565b91507fffffffffffffffffffffffffffffffffffffffffffffffffffffffffffffffff8214156107d7576107d661081d565b5b600182019050919050565b6000819050919050565b60006107f78261072b565b91506108028361072b565b9250826108125761081161084c565b5b828206905092915050565b7f4e487b7100000000000000000000000000000000000000000000000000000000600052601160045260246000fd5b7f4e487b7100000000000000000000000000000000000000000000000000000000600052601260045260246000fd5b7f4e487b7100000000000000000000000000000000000000000000000000000000600052603260045260246000fd5b7f4e487b7100000000000000000000000000000000000000000000000000000000600052604160045260246000fd5b600080fd5b600080fd5b6000601f19601f8301169050919050565b7f7072656d69756d3a000000000000000000000000000000000000000000000000600082015250565b7f7061796f66663a00000000000000000000000000000000000000000000000000600082015250565b7f2c00000000000000000000000000000000000000000000000000000000000000600082015250565b7f2e00000000000000000000000000000000000000000000000000000000000000600082015250565b7f706f6c6963792069643a00000000000000000000000000000000000000000000600082015250565b7f70726f647563742069643a000000000000000000000000000000000000000000600082015250565b7f506f6c6963795374617475733a00000000000000000000000000000000000000600082015250565b610a1c816106ef565b8114610a2757600080fd5b50565b610a3381610701565b8114610a3e57600080fd5b50565b610a4a8161072b565b8114610a5557600080fd5b5056fea26469706673582212207deaa85629951d925947fb7c51d0579c486303783f2f054d4f8a6ce895c5b40c64736f6c63430008050033",
  "immutableReferences": {},
  "source": "// SPDX-License-Identifier: MIT\r\npragma solidity ^0.8.0;\r\nimport \"@openzeppelin/contracts/utils/Strings.sol\";\r\n\r\nlibrary NFTInfo {\r\n    using Strings for uint256;\r\n\r\n    enum PolicyStatus {\r\n        INI,\r\n        SOLD,\r\n        DECLINED,\r\n        EXPIRED,\r\n        CLAIMED\r\n    }\r\n    struct PolicyTokenURIParam {\r\n        uint256 productId;\r\n        bytes32 policyId;\r\n        address owner;\r\n        uint256 premium;\r\n        uint256 payoff;\r\n        uint256 purchaseDate;\r\n        uint256 expiryDate;\r\n        uint256 status;\r\n    }\r\n\r\n    function constructTokenURI(PolicyTokenURIParam memory _params)\r\n        public\r\n        pure\r\n        returns (string memory)\r\n    {\r\n        uint256 status = uint256(_params.status);\r\n        return\r\n            string(\r\n                abi.encodePacked(\r\n                    \"product id:\",\r\n                    _params.productId.toString(),\r\n                    \",\",\r\n                    \"policy id:\",\r\n                    _params.policyId,\r\n                    \",\",\r\n                    \"premium:\",\r\n                    (_params.premium / 10**18).toString(),\r\n                    \",\",\r\n                    \"payoff:\",\r\n                    (_params.payoff / 10**18).toString(),\r\n                    \",\",\r\n                    \"PolicyStatus:\",\r\n                    status.toString(),\r\n                    \".\"\r\n                )\r\n            );\r\n    }\r\n}\r\n",
  "sourcePath": "D:\\src\\Degis-Contracts-1\\contracts\\libraries\\NFTInfo.sol",
  "compiler": {
    "name": "solc",
    "version": "0.8.5+commit.a4f2e591.Emscripten.clang"
  },
  "schemaVersion": "3.4.3",
  "updatedAt": "2021-10-07T16:18:49.282Z",
  "devdoc": {
    "kind": "dev",
    "methods": {},
    "version": 1
  },
  "userdoc": {
    "kind": "user",
    "methods": {},
    "version": 1
  }
}