{
  "contractName": "PolicyToken",
  "abi": [
    {
      "inputs": [],
      "stateMutability": "nonpayable",
      "type": "constructor"
    },
    {
      "anonymous": false,
      "inputs": [
        {
          "indexed": true,
          "internalType": "address",
          "name": "owner",
          "type": "address"
        },
        {
          "indexed": true,
          "internalType": "address",
          "name": "approved",
          "type": "address"
        },
        {
          "indexed": true,
          "internalType": "uint256",
          "name": "tokenId",
          "type": "uint256"
        }
      ],
      "name": "Approval",
      "type": "event"
    },
    {
      "anonymous": false,
      "inputs": [
        {
          "indexed": true,
          "internalType": "address",
          "name": "owner",
          "type": "address"
        },
        {
          "indexed": true,
          "internalType": "address",
          "name": "operator",
          "type": "address"
        },
        {
          "indexed": false,
          "internalType": "bool",
          "name": "approved",
          "type": "bool"
        }
      ],
      "name": "ApprovalForAll",
      "type": "event"
    },
    {
      "anonymous": false,
      "inputs": [
        {
          "indexed": true,
          "internalType": "address",
          "name": "previousOwner",
          "type": "address"
        },
        {
          "indexed": true,
          "internalType": "address",
          "name": "newOwner",
          "type": "address"
        }
      ],
      "name": "OwnershipTransferred",
      "type": "event"
    },
    {
      "anonymous": false,
      "inputs": [
        {
          "indexed": true,
          "internalType": "address",
          "name": "from",
          "type": "address"
        },
        {
          "indexed": true,
          "internalType": "address",
          "name": "to",
          "type": "address"
        },
        {
          "indexed": true,
          "internalType": "uint256",
          "name": "tokenId",
          "type": "uint256"
        }
      ],
      "name": "Transfer",
      "type": "event"
    },
    {
      "inputs": [],
      "name": "_nextId",
      "outputs": [
        {
          "internalType": "uint256",
          "name": "",
          "type": "uint256"
        }
      ],
      "stateMutability": "view",
      "type": "function",
      "constant": true
    },
    {
      "inputs": [
        {
          "internalType": "address",
          "name": "to",
          "type": "address"
        },
        {
          "internalType": "uint256",
          "name": "tokenId",
          "type": "uint256"
        }
      ],
      "name": "approve",
      "outputs": [],
      "stateMutability": "nonpayable",
      "type": "function"
    },
    {
      "inputs": [
        {
          "internalType": "address",
          "name": "owner",
          "type": "address"
        }
      ],
      "name": "balanceOf",
      "outputs": [
        {
          "internalType": "uint256",
          "name": "",
          "type": "uint256"
        }
      ],
      "stateMutability": "view",
      "type": "function",
      "constant": true
    },
    {
      "inputs": [
        {
          "internalType": "uint256",
          "name": "tokenId",
          "type": "uint256"
        }
      ],
      "name": "getApproved",
      "outputs": [
        {
          "internalType": "address",
          "name": "",
          "type": "address"
        }
      ],
      "stateMutability": "view",
      "type": "function",
      "constant": true
    },
    {
      "inputs": [
        {
          "internalType": "address",
          "name": "owner",
          "type": "address"
        },
        {
          "internalType": "address",
          "name": "operator",
          "type": "address"
        }
      ],
      "name": "isApprovedForAll",
      "outputs": [
        {
          "internalType": "bool",
          "name": "",
          "type": "bool"
        }
      ],
      "stateMutability": "view",
      "type": "function",
      "constant": true
    },
    {
      "inputs": [],
      "name": "name",
      "outputs": [
        {
          "internalType": "string",
          "name": "",
          "type": "string"
        }
      ],
      "stateMutability": "view",
      "type": "function",
      "constant": true
    },
    {
      "inputs": [],
      "name": "owner",
      "outputs": [
        {
          "internalType": "address",
          "name": "",
          "type": "address"
        }
      ],
      "stateMutability": "view",
      "type": "function",
      "constant": true
    },
    {
      "inputs": [
        {
          "internalType": "uint256",
          "name": "tokenId",
          "type": "uint256"
        }
      ],
      "name": "ownerOf",
      "outputs": [
        {
          "internalType": "address",
          "name": "",
          "type": "address"
        }
      ],
      "stateMutability": "view",
      "type": "function",
      "constant": true
    },
    {
      "inputs": [],
      "name": "renounceOwnership",
      "outputs": [],
      "stateMutability": "nonpayable",
      "type": "function"
    },
    {
      "inputs": [
        {
          "internalType": "address",
          "name": "from",
          "type": "address"
        },
        {
          "internalType": "address",
          "name": "to",
          "type": "address"
        },
        {
          "internalType": "uint256",
          "name": "tokenId",
          "type": "uint256"
        }
      ],
      "name": "safeTransferFrom",
      "outputs": [],
      "stateMutability": "nonpayable",
      "type": "function"
    },
    {
      "inputs": [
        {
          "internalType": "address",
          "name": "from",
          "type": "address"
        },
        {
          "internalType": "address",
          "name": "to",
          "type": "address"
        },
        {
          "internalType": "uint256",
          "name": "tokenId",
          "type": "uint256"
        },
        {
          "internalType": "bytes",
          "name": "_data",
          "type": "bytes"
        }
      ],
      "name": "safeTransferFrom",
      "outputs": [],
      "stateMutability": "nonpayable",
      "type": "function"
    },
    {
      "inputs": [
        {
          "internalType": "address",
          "name": "operator",
          "type": "address"
        },
        {
          "internalType": "bool",
          "name": "approved",
          "type": "bool"
        }
      ],
      "name": "setApprovalForAll",
      "outputs": [],
      "stateMutability": "nonpayable",
      "type": "function"
    },
    {
      "inputs": [
        {
          "internalType": "bytes4",
          "name": "interfaceId",
          "type": "bytes4"
        }
      ],
      "name": "supportsInterface",
      "outputs": [
        {
          "internalType": "bool",
          "name": "",
          "type": "bool"
        }
      ],
      "stateMutability": "view",
      "type": "function",
      "constant": true
    },
    {
      "inputs": [],
      "name": "symbol",
      "outputs": [
        {
          "internalType": "string",
          "name": "",
          "type": "string"
        }
      ],
      "stateMutability": "view",
      "type": "function",
      "constant": true
    },
    {
      "inputs": [
        {
          "internalType": "uint256",
          "name": "index",
          "type": "uint256"
        }
      ],
      "name": "tokenByIndex",
      "outputs": [
        {
          "internalType": "uint256",
          "name": "",
          "type": "uint256"
        }
      ],
      "stateMutability": "view",
      "type": "function",
      "constant": true
    },
    {
      "inputs": [
        {
          "internalType": "address",
          "name": "owner",
          "type": "address"
        },
        {
          "internalType": "uint256",
          "name": "index",
          "type": "uint256"
        }
      ],
      "name": "tokenOfOwnerByIndex",
      "outputs": [
        {
          "internalType": "uint256",
          "name": "",
          "type": "uint256"
        }
      ],
      "stateMutability": "view",
      "type": "function",
      "constant": true
    },
    {
      "inputs": [],
      "name": "totalSupply",
      "outputs": [
        {
          "internalType": "uint256",
          "name": "",
          "type": "uint256"
        }
      ],
      "stateMutability": "view",
      "type": "function",
      "constant": true
    },
    {
      "inputs": [
        {
          "internalType": "address",
          "name": "from",
          "type": "address"
        },
        {
          "internalType": "address",
          "name": "to",
          "type": "address"
        },
        {
          "internalType": "uint256",
          "name": "tokenId",
          "type": "uint256"
        }
      ],
      "name": "transferFrom",
      "outputs": [],
      "stateMutability": "nonpayable",
      "type": "function"
    },
    {
      "inputs": [
        {
          "internalType": "address",
          "name": "newOwner",
          "type": "address"
        }
      ],
      "name": "transferOwnership",
      "outputs": [],
      "stateMutability": "nonpayable",
      "type": "function"
    },
    {
      "inputs": [],
      "name": "getNextId",
      "outputs": [
        {
          "internalType": "uint256",
          "name": "",
          "type": "uint256"
        }
      ],
      "stateMutability": "view",
      "type": "function",
      "constant": true
    },
    {
      "inputs": [
        {
          "internalType": "uint256",
          "name": "_tokenId",
          "type": "uint256"
        }
      ],
      "name": "tokenURI",
      "outputs": [
        {
          "internalType": "string",
          "name": "",
          "type": "string"
        }
      ],
      "stateMutability": "view",
      "type": "function",
      "constant": true
    },
    {
      "inputs": [
        {
          "internalType": "address",
          "name": "_policyFlow",
          "type": "address"
        }
      ],
      "name": "updatePolicyFlow",
      "outputs": [],
      "stateMutability": "nonpayable",
      "type": "function"
    },
    {
      "inputs": [
        {
          "internalType": "address",
          "name": "_to",
          "type": "address"
        }
      ],
      "name": "mintPolicyToken",
      "outputs": [],
      "stateMutability": "nonpayable",
      "type": "function"
    },
    {
      "inputs": [
        {
          "internalType": "address",
          "name": "_from",
          "type": "address"
        },
        {
          "internalType": "address",
          "name": "_to",
          "type": "address"
        },
        {
          "internalType": "uint256",
          "name": "_tokenId",
          "type": "uint256"
        }
      ],
      "name": "transferOwner",
      "outputs": [],
      "stateMutability": "nonpayable",
      "type": "function"
    },
    {
      "inputs": [
        {
          "internalType": "uint256",
          "name": "_tokenId",
          "type": "uint256"
        }
      ],
      "name": "getTokenURI",
      "outputs": [
        {
          "internalType": "string",
          "name": "",
          "type": "string"
        }
      ],
      "stateMutability": "view",
      "type": "function",
      "constant": true
    }
  ],
  "bytecode": "0x60806040523480156200001157600080fd5b506040518060400160405280601081526020017f4465676973506f6c696379546f6b656e000000000000000000000000000000008152506040518060400160405280600781526020017f4445474953505400000000000000000000000000000000000000000000000000815250816000908051906020019062000096929190620001ae565b508060019080519060200190620000af929190620001ae565b505050620000d2620000c6620000e060201b60201c565b620000e860201b60201c565b6001600c81905550620002c3565b600033905090565b6000600a60009054906101000a900473ffffffffffffffffffffffffffffffffffffffff16905081600a60006101000a81548173ffffffffffffffffffffffffffffffffffffffff021916908373ffffffffffffffffffffffffffffffffffffffff1602179055508173ffffffffffffffffffffffffffffffffffffffff168173ffffffffffffffffffffffffffffffffffffffff167f8be0079c531659141344cd1fd0a4f28419497f9722a3daafe3b4186f6b6457e060405160405180910390a35050565b828054620001bc906200028d565b90600052602060002090601f016020900481019282620001e057600085556200022c565b82601f10620001fb57805160ff19168380011785556200022c565b828001600101855582156200022c579182015b828111156200022b5782518255916020019190600101906200020e565b5b5090506200023b91906200023f565b5090565b5b808211156200025a57600081600090555060010162000240565b5090565b7f4e487b7100000000000000000000000000000000000000000000000000000000600052602260045260246000fd5b60006002820490506001821680620002a657607f821691505b60208210811415620002bd57620002bc6200025e565b5b50919050565b6141e880620002d36000396000f3fe608060405234801561001057600080fd5b50600436106101735760003560e01c806370a08231116100de578063b88d4fde11610097578063c87b56dd11610071578063c87b56dd14610448578063e985e9c514610478578063f2f2fff5146104a8578063f2fde38b146104c657610173565b8063b88d4fde146103f2578063b918e5e21461040e578063bc9683261461042a57610173565b806370a0823114610344578063715018a6146103745780638da5cb5b1461037e57806395d89b411461039c5780639b16b417146103ba578063a22cb465146103d657610173565b806323b872dd1161013057806323b872dd1461024c5780632f745c59146102685780633bb3a24d1461029857806342842e0e146102c85780634f6ccce7146102e45780636352211e1461031457610173565b806301ffc9a71461017857806306fdde03146101a8578063081812fc146101c6578063095ea7b3146101f6578063161b5e461461021257806318160ddd1461022e575b600080fd5b610192600480360381019061018d9190612696565b6104e2565b60405161019f91906126de565b60405180910390f35b6101b061055c565b6040516101bd9190612792565b60405180910390f35b6101e060048036038101906101db91906127ea565b6105ee565b6040516101ed9190612858565b60405180910390f35b610210600480360381019061020b919061289f565b610673565b005b61022c600480360381019061022791906128df565b61078b565b005b61023661082c565b6040516102439190612941565b60405180910390f35b610266600480360381019061026191906128df565b610839565b005b610282600480360381019061027d919061289f565b610899565b60405161028f9190612941565b60405180910390f35b6102b260048036038101906102ad91906127ea565b61093e565b6040516102bf9190612792565b60405180910390f35b6102e260048036038101906102dd91906128df565b610a9c565b005b6102fe60048036038101906102f991906127ea565b610abc565b60405161030b9190612941565b60405180910390f35b61032e600480360381019061032991906127ea565b610b2d565b60405161033b9190612858565b60405180910390f35b61035e6004803603810190610359919061295c565b610bdf565b60405161036b9190612941565b60405180910390f35b61037c610c97565b005b610386610d1f565b6040516103939190612858565b60405180910390f35b6103a4610d49565b6040516103b19190612792565b60405180910390f35b6103d460048036038101906103cf919061295c565b610ddb565b005b6103f060048036038101906103eb91906129b5565b610e9b565b005b61040c60048036038101906104079190612b2a565b61101c565b005b6104286004803603810190610423919061295c565b61107e565b005b610432611123565b60405161043f9190612941565b60405180910390f35b610462600480360381019061045d91906127ea565b61112d565b60405161046f9190612792565b60405180910390f35b610492600480360381019061048d9190612bad565b611183565b60405161049f91906126de565b60405180910390f35b6104b0611217565b6040516104bd9190612941565b60405180910390f35b6104e060048036038101906104db919061295c565b61121d565b005b60007f780e9d63000000000000000000000000000000000000000000000000000000007bffffffffffffffffffffffffffffffffffffffffffffffffffffffff1916827bffffffffffffffffffffffffffffffffffffffffffffffffffffffff19161480610555575061055482611315565b5b9050919050565b60606000805461056b90612c1c565b80601f016020809104026020016040519081016040528092919081815260200182805461059790612c1c565b80156105e45780601f106105b9576101008083540402835291602001916105e4565b820191906000526020600020905b8154815290600101906020018083116105c757829003601f168201915b5050505050905090565b60006105f9826113f7565b610638576040517f08c379a000000000000000000000000000000000000000000000000000000000815260040161062f90612cc0565b60405180910390fd5b6004600083815260200190815260200160002060009054906101000a900473ffffffffffffffffffffffffffffffffffffffff169050919050565b600061067e82610b2d565b90508073ffffffffffffffffffffffffffffffffffffffff168373ffffffffffffffffffffffffffffffffffffffff1614156106ef576040517f08c379a00000000000000000000000000000000000000000000000000000000081526004016106e690612d52565b60405180910390fd5b8073ffffffffffffffffffffffffffffffffffffffff1661070e611463565b73ffffffffffffffffffffffffffffffffffffffff16148061073d575061073c81610737611463565b611183565b5b61077c576040517f08c379a000000000000000000000000000000000000000000000000000000000815260040161077390612de4565b60405180910390fd5b610786838361146b565b505050565b610796838383610839565b600b60009054906101000a900473ffffffffffffffffffffffffffffffffffffffff1673ffffffffffffffffffffffffffffffffffffffff16638e34ce358285856040518463ffffffff1660e01b81526004016107f593929190612e04565b600060405180830381600087803b15801561080f57600080fd5b505af1158015610823573d6000803e3d6000fd5b50505050505050565b6000600880549050905090565b61084a610844611463565b82611524565b610889576040517f08c379a000000000000000000000000000000000000000000000000000000000815260040161088090612ead565b60405180910390fd5b610894838383611602565b505050565b60006108a483610bdf565b82106108e5576040517f08c379a00000000000000000000000000000000000000000000000000000000081526004016108dc90612f3f565b60405180910390fd5b600660008473ffffffffffffffffffffffffffffffffffffffff1673ffffffffffffffffffffffffffffffffffffffff168152602001908152602001600020600083815260200190815260200160002054905092915050565b60606000600b60009054906101000a900473ffffffffffffffffffffffffffffffffffffffff1673ffffffffffffffffffffffffffffffffffffffff16636b0edde9846040518263ffffffff1660e01b815260040161099d9190612941565b60006040518083038186803b1580156109b557600080fd5b505afa1580156109c9573d6000803e3d6000fd5b505050506040513d6000823e3d601f19601f820116820180604052508101906109f291906131ac565b9050610a94604051806101400160405280836000015181526020018360600151815260200183604001518152602001836020015173ffffffffffffffffffffffffffffffffffffffff168152602001836080015181526020018360a0015181526020018360c0015181526020018360e00151815260200183610100015181526020018361012001516004811115610a8c57610a8b6131f5565b5b81525061185e565b915050919050565b610ab78383836040518060200160405280600081525061101c565b505050565b6000610ac661082c565b8210610b07576040517f08c379a0000000000000000000000000000000000000000000000000000000008152600401610afe90613296565b60405180910390fd5b60088281548110610b1b57610b1a6132b6565b5b90600052602060002001549050919050565b6000806002600084815260200190815260200160002060009054906101000a900473ffffffffffffffffffffffffffffffffffffffff169050600073ffffffffffffffffffffffffffffffffffffffff168173ffffffffffffffffffffffffffffffffffffffff161415610bd6576040517f08c379a0000000000000000000000000000000000000000000000000000000008152600401610bcd90613357565b60405180910390fd5b80915050919050565b60008073ffffffffffffffffffffffffffffffffffffffff168273ffffffffffffffffffffffffffffffffffffffff161415610c50576040517f08c379a0000000000000000000000000000000000000000000000000000000008152600401610c47906133e9565b60405180910390fd5b600360008373ffffffffffffffffffffffffffffffffffffffff1673ffffffffffffffffffffffffffffffffffffffff168152602001908152602001600020549050919050565b610c9f611463565b73ffffffffffffffffffffffffffffffffffffffff16610cbd610d1f565b73ffffffffffffffffffffffffffffffffffffffff1614610d13576040517f08c379a0000000000000000000000000000000000000000000000000000000008152600401610d0a90613455565b60405180910390fd5b610d1d6000611937565b565b6000600a60009054906101000a900473ffffffffffffffffffffffffffffffffffffffff16905090565b606060018054610d5890612c1c565b80601f0160208091040260200160405190810160405280929190818152602001828054610d8490612c1c565b8015610dd15780601f10610da657610100808354040283529160200191610dd1565b820191906000526020600020905b815481529060010190602001808311610db457829003601f168201915b5050505050905090565b610de3611463565b73ffffffffffffffffffffffffffffffffffffffff16610e01610d1f565b73ffffffffffffffffffffffffffffffffffffffff1614610e57576040517f08c379a0000000000000000000000000000000000000000000000000000000008152600401610e4e90613455565b60405180910390fd5b80600b60006101000a81548173ffffffffffffffffffffffffffffffffffffffff021916908373ffffffffffffffffffffffffffffffffffffffff16021790555050565b610ea3611463565b73ffffffffffffffffffffffffffffffffffffffff168273ffffffffffffffffffffffffffffffffffffffff161415610f11576040517f08c379a0000000000000000000000000000000000000000000000000000000008152600401610f08906134c1565b60405180910390fd5b8060056000610f1e611463565b73ffffffffffffffffffffffffffffffffffffffff1673ffffffffffffffffffffffffffffffffffffffff16815260200190815260200160002060008473ffffffffffffffffffffffffffffffffffffffff1673ffffffffffffffffffffffffffffffffffffffff16815260200190815260200160002060006101000a81548160ff0219169083151502179055508173ffffffffffffffffffffffffffffffffffffffff16610fcb611463565b73ffffffffffffffffffffffffffffffffffffffff167f17307eab39ab6107e8899845ad3d59bd9653f200f220920489ca2b5937696c318360405161101091906126de565b60405180910390a35050565b61102d611027611463565b83611524565b61106c576040517f08c379a000000000000000000000000000000000000000000000000000000000815260040161106390612ead565b60405180910390fd5b611078848484846119fd565b50505050565b611086611463565b73ffffffffffffffffffffffffffffffffffffffff166110a4610d1f565b73ffffffffffffffffffffffffffffffffffffffff16146110fa576040517f08c379a00000000000000000000000000000000000000000000000000000000081526004016110f190613455565b60405180910390fd5b6000600c600081548092919061110f90613510565b91905055905061111f8282611a59565b5050565b6000600c54905090565b6060600c548210611173576040517f08c379a000000000000000000000000000000000000000000000000000000000815260040161116a906135a5565b60405180910390fd5b61117c8261093e565b9050919050565b6000600560008473ffffffffffffffffffffffffffffffffffffffff1673ffffffffffffffffffffffffffffffffffffffff16815260200190815260200160002060008373ffffffffffffffffffffffffffffffffffffffff1673ffffffffffffffffffffffffffffffffffffffff16815260200190815260200160002060009054906101000a900460ff16905092915050565b600c5481565b611225611463565b73ffffffffffffffffffffffffffffffffffffffff16611243610d1f565b73ffffffffffffffffffffffffffffffffffffffff1614611299576040517f08c379a000000000000000000000000000000000000000000000000000000000815260040161129090613455565b60405180910390fd5b600073ffffffffffffffffffffffffffffffffffffffff168173ffffffffffffffffffffffffffffffffffffffff161415611309576040517f08c379a000000000000000000000000000000000000000000000000000000000815260040161130090613637565b60405180910390fd5b61131281611937565b50565b60007f80ac58cd000000000000000000000000000000000000000000000000000000007bffffffffffffffffffffffffffffffffffffffffffffffffffffffff1916827bffffffffffffffffffffffffffffffffffffffffffffffffffffffff191614806113e057507f5b5e139f000000000000000000000000000000000000000000000000000000007bffffffffffffffffffffffffffffffffffffffffffffffffffffffff1916827bffffffffffffffffffffffffffffffffffffffffffffffffffffffff1916145b806113f057506113ef82611c27565b5b9050919050565b60008073ffffffffffffffffffffffffffffffffffffffff166002600084815260200190815260200160002060009054906101000a900473ffffffffffffffffffffffffffffffffffffffff1673ffffffffffffffffffffffffffffffffffffffff1614159050919050565b600033905090565b816004600083815260200190815260200160002060006101000a81548173ffffffffffffffffffffffffffffffffffffffff021916908373ffffffffffffffffffffffffffffffffffffffff160217905550808273ffffffffffffffffffffffffffffffffffffffff166114de83610b2d565b73ffffffffffffffffffffffffffffffffffffffff167f8c5be1e5ebec7d5bd14f71427d1e84f3dd0314c0f7b2291e5b200ac8c7c3b92560405160405180910390a45050565b600061152f826113f7565b61156e576040517f08c379a0000000000000000000000000000000000000000000000000000000008152600401611565906136c9565b60405180910390fd5b600061157983610b2d565b90508073ffffffffffffffffffffffffffffffffffffffff168473ffffffffffffffffffffffffffffffffffffffff1614806115e857508373ffffffffffffffffffffffffffffffffffffffff166115d0846105ee565b73ffffffffffffffffffffffffffffffffffffffff16145b806115f957506115f88185611183565b5b91505092915050565b8273ffffffffffffffffffffffffffffffffffffffff1661162282610b2d565b73ffffffffffffffffffffffffffffffffffffffff1614611678576040517f08c379a000000000000000000000000000000000000000000000000000000000815260040161166f9061375b565b60405180910390fd5b600073ffffffffffffffffffffffffffffffffffffffff168273ffffffffffffffffffffffffffffffffffffffff1614156116e8576040517f08c379a00000000000000000000000000000000000000000000000000000000081526004016116df906137ed565b60405180910390fd5b6116f3838383611c91565b6116fe60008261146b565b6001600360008573ffffffffffffffffffffffffffffffffffffffff1673ffffffffffffffffffffffffffffffffffffffff168152602001908152602001600020600082825461174e919061380d565b925050819055506001600360008473ffffffffffffffffffffffffffffffffffffffff1673ffffffffffffffffffffffffffffffffffffffff16815260200190815260200160002060008282546117a59190613841565b92505081905550816002600083815260200190815260200160002060006101000a81548173ffffffffffffffffffffffffffffffffffffffff021916908373ffffffffffffffffffffffffffffffffffffffff160217905550808273ffffffffffffffffffffffffffffffffffffffff168473ffffffffffffffffffffffffffffffffffffffff167fddf252ad1be2c89b69c2b068fc378daa952ba7f163c4a11628f55a4df523b3ef60405160405180910390a4505050565b6060600082610120015190506118778360000151611da5565b83602001516118898560400151611da5565b6118968660600151611f06565b6118b6670de0b6b3a764000088608001516118b191906138c6565b611da5565b6118d6670de0b6b3a76400008960a001516118d191906138c6565b611da5565b6118e38960c00151611da5565b6118f08a60e00151611da5565b6118fe8b6101000151611da5565b6119078a611da5565b6040516020016119209a99989796959493929190613cc3565b604051602081830303815290604052915050919050565b6000600a60009054906101000a900473ffffffffffffffffffffffffffffffffffffffff16905081600a60006101000a81548173ffffffffffffffffffffffffffffffffffffffff021916908373ffffffffffffffffffffffffffffffffffffffff1602179055508173ffffffffffffffffffffffffffffffffffffffff168173ffffffffffffffffffffffffffffffffffffffff167f8be0079c531659141344cd1fd0a4f28419497f9722a3daafe3b4186f6b6457e060405160405180910390a35050565b611a08848484611602565b611a1484848484611f39565b611a53576040517f08c379a0000000000000000000000000000000000000000000000000000000008152600401611a4a90613e87565b60405180910390fd5b50505050565b600073ffffffffffffffffffffffffffffffffffffffff168273ffffffffffffffffffffffffffffffffffffffff161415611ac9576040517f08c379a0000000000000000000000000000000000000000000000000000000008152600401611ac090613ef3565b60405180910390fd5b611ad2816113f7565b15611b12576040517f08c379a0000000000000000000000000000000000000000000000000000000008152600401611b0990613f5f565b60405180910390fd5b611b1e60008383611c91565b6001600360008473ffffffffffffffffffffffffffffffffffffffff1673ffffffffffffffffffffffffffffffffffffffff1681526020019081526020016000206000828254611b6e9190613841565b92505081905550816002600083815260200190815260200160002060006101000a81548173ffffffffffffffffffffffffffffffffffffffff021916908373ffffffffffffffffffffffffffffffffffffffff160217905550808273ffffffffffffffffffffffffffffffffffffffff16600073ffffffffffffffffffffffffffffffffffffffff167fddf252ad1be2c89b69c2b068fc378daa952ba7f163c4a11628f55a4df523b3ef60405160405180910390a45050565b60007f01ffc9a7000000000000000000000000000000000000000000000000000000007bffffffffffffffffffffffffffffffffffffffffffffffffffffffff1916827bffffffffffffffffffffffffffffffffffffffffffffffffffffffff1916149050919050565b611c9c8383836120d0565b600073ffffffffffffffffffffffffffffffffffffffff168373ffffffffffffffffffffffffffffffffffffffff161415611cdf57611cda816120d5565b611d1e565b8173ffffffffffffffffffffffffffffffffffffffff168373ffffffffffffffffffffffffffffffffffffffff1614611d1d57611d1c838261211e565b5b5b600073ffffffffffffffffffffffffffffffffffffffff168273ffffffffffffffffffffffffffffffffffffffff161415611d6157611d5c8161228b565b611da0565b8273ffffffffffffffffffffffffffffffffffffffff168273ffffffffffffffffffffffffffffffffffffffff1614611d9f57611d9e828261235c565b5b5b505050565b60606000821415611ded576040518060400160405280600181526020017f30000000000000000000000000000000000000000000000000000000000000008152509050611f01565b600082905060005b60008214611e1f578080611e0890613510565b915050600a82611e1891906138c6565b9150611df5565b60008167ffffffffffffffff811115611e3b57611e3a6129ff565b5b6040519080825280601f01601f191660200182016040528015611e6d5781602001600182028036833780820191505090505b5090505b60008514611efa57600182611e86919061380d565b9150600a85611e959190613f7f565b6030611ea19190613841565b60f81b818381518110611eb757611eb66132b6565b5b60200101907effffffffffffffffffffffffffffffffffffffffffffffffffffffffffffff1916908160001a905350600a85611ef391906138c6565b9450611e71565b8093505050505b919050565b6060611f3260148373ffffffffffffffffffffffffffffffffffffffff166123db90919063ffffffff16565b9050919050565b6000611f5a8473ffffffffffffffffffffffffffffffffffffffff16612617565b156120c3578373ffffffffffffffffffffffffffffffffffffffff1663150b7a02611f83611463565b8786866040518563ffffffff1660e01b8152600401611fa59493929190614005565b602060405180830381600087803b158015611fbf57600080fd5b505af1925050508015611ff057506040513d601f19601f82011682018060405250810190611fed9190614066565b60015b612073573d8060008114612020576040519150601f19603f3d011682016040523d82523d6000602084013e612025565b606091505b5060008151141561206b576040517f08c379a000000000000000000000000000000000000000000000000000000000815260040161206290613e87565b60405180910390fd5b805181602001fd5b63150b7a0260e01b7bffffffffffffffffffffffffffffffffffffffffffffffffffffffff1916817bffffffffffffffffffffffffffffffffffffffffffffffffffffffff1916149150506120c8565b600190505b949350505050565b505050565b6008805490506009600083815260200190815260200160002081905550600881908060018154018082558091505060019003906000526020600020016000909190919091505550565b6000600161212b84610bdf565b612135919061380d565b905060006007600084815260200190815260200160002054905081811461221a576000600660008673ffffffffffffffffffffffffffffffffffffffff1673ffffffffffffffffffffffffffffffffffffffff168152602001908152602001600020600084815260200190815260200160002054905080600660008773ffffffffffffffffffffffffffffffffffffffff1673ffffffffffffffffffffffffffffffffffffffff168152602001908152602001600020600084815260200190815260200160002081905550816007600083815260200190815260200160002081905550505b6007600084815260200190815260200160002060009055600660008573ffffffffffffffffffffffffffffffffffffffff1673ffffffffffffffffffffffffffffffffffffffff16815260200190815260200160002060008381526020019081526020016000206000905550505050565b6000600160088054905061229f919061380d565b90506000600960008481526020019081526020016000205490506000600883815481106122cf576122ce6132b6565b5b9060005260206000200154905080600883815481106122f1576122f06132b6565b5b9060005260206000200181905550816009600083815260200190815260200160002081905550600960008581526020019081526020016000206000905560088054806123405761233f614093565b5b6001900381819060005260206000200160009055905550505050565b600061236783610bdf565b905081600660008573ffffffffffffffffffffffffffffffffffffffff1673ffffffffffffffffffffffffffffffffffffffff168152602001908152602001600020600083815260200190815260200160002081905550806007600084815260200190815260200160002081905550505050565b6060600060028360026123ee91906140c2565b6123f89190613841565b67ffffffffffffffff811115612411576124106129ff565b5b6040519080825280601f01601f1916602001820160405280156124435781602001600182028036833780820191505090505b5090507f30000000000000000000000000000000000000000000000000000000000000008160008151811061247b5761247a6132b6565b5b60200101907effffffffffffffffffffffffffffffffffffffffffffffffffffffffffffff1916908160001a9053507f7800000000000000000000000000000000000000000000000000000000000000816001815181106124df576124de6132b6565b5b60200101907effffffffffffffffffffffffffffffffffffffffffffffffffffffffffffff1916908160001a9053506000600184600261251f91906140c2565b6125299190613841565b90505b60018111156125c9577f3031323334353637383961626364656600000000000000000000000000000000600f86166010811061256b5761256a6132b6565b5b1a60f81b828281518110612582576125816132b6565b5b60200101907effffffffffffffffffffffffffffffffffffffffffffffffffffffffffffff1916908160001a905350600485901c9450806125c29061411c565b905061252c565b506000841461260d576040517f08c379a000000000000000000000000000000000000000000000000000000000815260040161260490614192565b60405180910390fd5b8091505092915050565b600080823b905060008111915050919050565b6000604051905090565b600080fd5b600080fd5b60007fffffffff0000000000000000000000000000000000000000000000000000000082169050919050565b6126738161263e565b811461267e57600080fd5b50565b6000813590506126908161266a565b92915050565b6000602082840312156126ac576126ab612634565b5b60006126ba84828501612681565b91505092915050565b60008115159050919050565b6126d8816126c3565b82525050565b60006020820190506126f360008301846126cf565b92915050565b600081519050919050565b600082825260208201905092915050565b60005b83811015612733578082015181840152602081019050612718565b83811115612742576000848401525b50505050565b6000601f19601f8301169050919050565b6000612764826126f9565b61276e8185612704565b935061277e818560208601612715565b61278781612748565b840191505092915050565b600060208201905081810360008301526127ac8184612759565b905092915050565b6000819050919050565b6127c7816127b4565b81146127d257600080fd5b50565b6000813590506127e4816127be565b92915050565b600060208284031215612800576127ff612634565b5b600061280e848285016127d5565b91505092915050565b600073ffffffffffffffffffffffffffffffffffffffff82169050919050565b600061284282612817565b9050919050565b61285281612837565b82525050565b600060208201905061286d6000830184612849565b92915050565b61287c81612837565b811461288757600080fd5b50565b60008135905061289981612873565b92915050565b600080604083850312156128b6576128b5612634565b5b60006128c48582860161288a565b92505060206128d5858286016127d5565b9150509250929050565b6000806000606084860312156128f8576128f7612634565b5b60006129068682870161288a565b93505060206129178682870161288a565b9250506040612928868287016127d5565b9150509250925092565b61293b816127b4565b82525050565b60006020820190506129566000830184612932565b92915050565b60006020828403121561297257612971612634565b5b60006129808482850161288a565b91505092915050565b612992816126c3565b811461299d57600080fd5b50565b6000813590506129af81612989565b92915050565b600080604083850312156129cc576129cb612634565b5b60006129da8582860161288a565b92505060206129eb858286016129a0565b9150509250929050565b600080fd5b600080fd5b7f4e487b7100000000000000000000000000000000000000000000000000000000600052604160045260246000fd5b612a3782612748565b810181811067ffffffffffffffff82111715612a5657612a556129ff565b5b80604052505050565b6000612a6961262a565b9050612a758282612a2e565b919050565b600067ffffffffffffffff821115612a9557612a946129ff565b5b612a9e82612748565b9050602081019050919050565b82818337600083830152505050565b6000612acd612ac884612a7a565b612a5f565b905082815260208101848484011115612ae957612ae86129fa565b5b612af4848285612aab565b509392505050565b600082601f830112612b1157612b106129f5565b5b8135612b21848260208601612aba565b91505092915050565b60008060008060808587031215612b4457612b43612634565b5b6000612b528782880161288a565b9450506020612b638782880161288a565b9350506040612b74878288016127d5565b925050606085013567ffffffffffffffff811115612b9557612b94612639565b5b612ba187828801612afc565b91505092959194509250565b60008060408385031215612bc457612bc3612634565b5b6000612bd28582860161288a565b9250506020612be38582860161288a565b9150509250929050565b7f4e487b7100000000000000000000000000000000000000000000000000000000600052602260045260246000fd5b60006002820490506001821680612c3457607f821691505b60208210811415612c4857612c47612bed565b5b50919050565b7f4552433732313a20617070726f76656420717565727920666f72206e6f6e657860008201527f697374656e7420746f6b656e0000000000000000000000000000000000000000602082015250565b6000612caa602c83612704565b9150612cb582612c4e565b604082019050919050565b60006020820190508181036000830152612cd981612c9d565b9050919050565b7f4552433732313a20617070726f76616c20746f2063757272656e74206f776e6560008201527f7200000000000000000000000000000000000000000000000000000000000000602082015250565b6000612d3c602183612704565b9150612d4782612ce0565b604082019050919050565b60006020820190508181036000830152612d6b81612d2f565b9050919050565b7f4552433732313a20617070726f76652063616c6c6572206973206e6f74206f7760008201527f6e6572206e6f7220617070726f76656420666f7220616c6c0000000000000000602082015250565b6000612dce603883612704565b9150612dd982612d72565b604082019050919050565b60006020820190508181036000830152612dfd81612dc1565b9050919050565b6000606082019050612e196000830186612932565b612e266020830185612849565b612e336040830184612849565b949350505050565b7f4552433732313a207472616e736665722063616c6c6572206973206e6f74206f60008201527f776e6572206e6f7220617070726f766564000000000000000000000000000000602082015250565b6000612e97603183612704565b9150612ea282612e3b565b604082019050919050565b60006020820190508181036000830152612ec681612e8a565b9050919050565b7f455243373231456e756d657261626c653a206f776e657220696e646578206f7560008201527f74206f6620626f756e6473000000000000000000000000000000000000000000602082015250565b6000612f29602b83612704565b9150612f3482612ecd565b604082019050919050565b60006020820190508181036000830152612f5881612f1c565b9050919050565b600080fd5b600080fd5b600081519050612f78816127be565b92915050565b600081519050612f8d81612873565b92915050565b600067ffffffffffffffff821115612fae57612fad6129ff565b5b612fb782612748565b9050602081019050919050565b6000612fd7612fd284612f93565b612a5f565b905082815260208101848484011115612ff357612ff26129fa565b5b612ffe848285612715565b509392505050565b600082601f83011261301b5761301a6129f5565b5b815161302b848260208601612fc4565b91505092915050565b6005811061304157600080fd5b50565b60008151905061305381613034565b92915050565b60008151905061306881612989565b92915050565b6000610180828403121561308557613084612f5f565b5b613090610180612a5f565b905060006130a084828501612f69565b60008301525060206130b484828501612f7e565b60208301525060406130c884828501612f69565b604083015250606082015167ffffffffffffffff8111156130ec576130eb612f64565b5b6130f884828501613006565b606083015250608061310c84828501612f69565b60808301525060a061312084828501612f69565b60a08301525060c061313484828501612f69565b60c08301525060e061314884828501612f69565b60e08301525061010061315d84828501612f69565b6101008301525061012061317384828501613044565b6101208301525061014061318984828501613059565b6101408301525061016061319f84828501612f69565b6101608301525092915050565b6000602082840312156131c2576131c1612634565b5b600082015167ffffffffffffffff8111156131e0576131df612639565b5b6131ec8482850161306e565b91505092915050565b7f4e487b7100000000000000000000000000000000000000000000000000000000600052602160045260246000fd5b7f455243373231456e756d657261626c653a20676c6f62616c20696e646578206f60008201527f7574206f6620626f756e64730000000000000000000000000000000000000000602082015250565b6000613280602c83612704565b915061328b82613224565b604082019050919050565b600060208201905081810360008301526132af81613273565b9050919050565b7f4e487b7100000000000000000000000000000000000000000000000000000000600052603260045260246000fd5b7f4552433732313a206f776e657220717565727920666f72206e6f6e657869737460008201527f656e7420746f6b656e0000000000000000000000000000000000000000000000602082015250565b6000613341602983612704565b915061334c826132e5565b604082019050919050565b6000602082019050818103600083015261337081613334565b9050919050565b7f4552433732313a2062616c616e636520717565727920666f7220746865207a6560008201527f726f206164647265737300000000000000000000000000000000000000000000602082015250565b60006133d3602a83612704565b91506133de82613377565b604082019050919050565b60006020820190508181036000830152613402816133c6565b9050919050565b7f4f776e61626c653a2063616c6c6572206973206e6f7420746865206f776e6572600082015250565b600061343f602083612704565b915061344a82613409565b602082019050919050565b6000602082019050818103600083015261346e81613432565b9050919050565b7f4552433732313a20617070726f766520746f2063616c6c657200000000000000600082015250565b60006134ab601983612704565b91506134b682613475565b602082019050919050565b600060208201905081810360008301526134da8161349e565b9050919050565b7f4e487b7100000000000000000000000000000000000000000000000000000000600052601160045260246000fd5b600061351b826127b4565b91507fffffffffffffffffffffffffffffffffffffffffffffffffffffffffffffffff82141561354e5761354d6134e1565b5b600182019050919050565b7f6572726f722c20746f6b656e496420746f6f206c617267652100000000000000600082015250565b600061358f601983612704565b915061359a82613559565b602082019050919050565b600060208201905081810360008301526135be81613582565b9050919050565b7f4f776e61626c653a206e6577206f776e657220697320746865207a65726f206160008201527f6464726573730000000000000000000000000000000000000000000000000000602082015250565b6000613621602683612704565b915061362c826135c5565b604082019050919050565b6000602082019050818103600083015261365081613614565b9050919050565b7f4552433732313a206f70657261746f7220717565727920666f72206e6f6e657860008201527f697374656e7420746f6b656e0000000000000000000000000000000000000000602082015250565b60006136b3602c83612704565b91506136be82613657565b604082019050919050565b600060208201905081810360008301526136e2816136a6565b9050919050565b7f4552433732313a207472616e73666572206f6620746f6b656e2074686174206960008201527f73206e6f74206f776e0000000000000000000000000000000000000000000000602082015250565b6000613745602983612704565b9150613750826136e9565b604082019050919050565b6000602082019050818103600083015261377481613738565b9050919050565b7f4552433732313a207472616e7366657220746f20746865207a65726f2061646460008201527f7265737300000000000000000000000000000000000000000000000000000000602082015250565b60006137d7602483612704565b91506137e28261377b565b604082019050919050565b60006020820190508181036000830152613806816137ca565b9050919050565b6000613818826127b4565b9150613823836127b4565b925082821015613836576138356134e1565b5b828203905092915050565b600061384c826127b4565b9150613857836127b4565b9250827fffffffffffffffffffffffffffffffffffffffffffffffffffffffffffffffff0382111561388c5761388b6134e1565b5b828201905092915050565b7f4e487b7100000000000000000000000000000000000000000000000000000000600052601260045260246000fd5b60006138d1826127b4565b91506138dc836127b4565b9250826138ec576138eb613897565b5b828204905092915050565b600081905092915050565b7f50726f6475637449643a20000000000000000000000000000000000000000000600082015250565b6000613938600b836138f7565b915061394382613902565b600b82019050919050565b6000613959826126f9565b61396381856138f7565b9350613973818560208601612715565b80840191505092915050565b7f2c20000000000000000000000000000000000000000000000000000000000000600082015250565b60006139b56002836138f7565b91506139c08261397f565b600282019050919050565b7f466c696768744e756d6265723a20000000000000000000000000000000000000600082015250565b6000613a01600e836138f7565b9150613a0c826139cb565b600e82019050919050565b7f506f6c69637949643a2000000000000000000000000000000000000000000000600082015250565b6000613a4d600a836138f7565b9150613a5882613a17565b600a82019050919050565b7f4275796572416464726573733a20000000000000000000000000000000000000600082015250565b6000613a99600e836138f7565b9150613aa482613a63565b600e82019050919050565b7f5072656d69756d3a200000000000000000000000000000000000000000000000600082015250565b6000613ae56009836138f7565b9150613af082613aaf565b600982019050919050565b7f5061796f66663a20000000000000000000000000000000000000000000000000600082015250565b6000613b316008836138f7565b9150613b3c82613afb565b600882019050919050565b7f5075726368617365446174653a20000000000000000000000000000000000000600082015250565b6000613b7d600e836138f7565b9150613b8882613b47565b600e82019050919050565b7f446570617274757265446174653a000000000000000000000000000000000000600082015250565b6000613bc9600e836138f7565b9150613bd482613b93565b600e82019050919050565b7f4c616e64696e67446174653a2000000000000000000000000000000000000000600082015250565b6000613c15600d836138f7565b9150613c2082613bdf565b600d82019050919050565b7f506f6c6963795374617475733a20000000000000000000000000000000000000600082015250565b6000613c61600e836138f7565b9150613c6c82613c2b565b600e82019050919050565b7f2e00000000000000000000000000000000000000000000000000000000000000600082015250565b6000613cad6001836138f7565b9150613cb882613c77565b600182019050919050565b6000613cce8261392b565b9150613cda828d61394e565b9150613ce5826139a8565b9150613cf0826139f4565b9150613cfc828c61394e565b9150613d0782613a40565b9150613d13828b61394e565b9150613d1e826139a8565b9150613d2982613a8c565b9150613d35828a61394e565b9150613d4082613ad8565b9150613d4c828961394e565b9150613d57826139a8565b9150613d6282613b24565b9150613d6e828861394e565b9150613d79826139a8565b9150613d8482613b70565b9150613d90828761394e565b9150613d9b826139a8565b9150613da682613bbc565b9150613db2828661394e565b9150613dbd826139a8565b9150613dc882613c08565b9150613dd4828561394e565b9150613ddf826139a8565b9150613dea82613c54565b9150613df6828461394e565b9150613e0182613ca0565b91508190509b9a5050505050505050505050565b7f4552433732313a207472616e7366657220746f206e6f6e20455243373231526560008201527f63656976657220696d706c656d656e7465720000000000000000000000000000602082015250565b6000613e71603283612704565b9150613e7c82613e15565b604082019050919050565b60006020820190508181036000830152613ea081613e64565b9050919050565b7f4552433732313a206d696e7420746f20746865207a65726f2061646472657373600082015250565b6000613edd602083612704565b9150613ee882613ea7565b602082019050919050565b60006020820190508181036000830152613f0c81613ed0565b9050919050565b7f4552433732313a20746f6b656e20616c7265616479206d696e74656400000000600082015250565b6000613f49601c83612704565b9150613f5482613f13565b602082019050919050565b60006020820190508181036000830152613f7881613f3c565b9050919050565b6000613f8a826127b4565b9150613f95836127b4565b925082613fa557613fa4613897565b5b828206905092915050565b600081519050919050565b600082825260208201905092915050565b6000613fd782613fb0565b613fe18185613fbb565b9350613ff1818560208601612715565b613ffa81612748565b840191505092915050565b600060808201905061401a6000830187612849565b6140276020830186612849565b6140346040830185612932565b81810360608301526140468184613fcc565b905095945050505050565b6000815190506140608161266a565b92915050565b60006020828403121561407c5761407b612634565b5b600061408a84828501614051565b91505092915050565b7f4e487b7100000000000000000000000000000000000000000000000000000000600052603160045260246000fd5b60006140cd826127b4565b91506140d8836127b4565b9250817fffffffffffffffffffffffffffffffffffffffffffffffffffffffffffffffff0483118215151615614111576141106134e1565b5b828202905092915050565b6000614127826127b4565b9150600082141561413b5761413a6134e1565b5b600182039050919050565b7f537472696e67733a20686578206c656e67746820696e73756666696369656e74600082015250565b600061417c602083612704565b915061418782614146565b602082019050919050565b600060208201905081810360008301526141ab8161416f565b905091905056fea26469706673582212203cd076838685be69ae4696b21912391a312fadd67577247d140e86e1e48da1a764736f6c63430008090033",
  "immutableReferences": {},
  "source": "// SPDX-License-Identifier: MIT\npragma solidity 0.8.9;\n\nimport \"@openzeppelin/contracts/token/ERC721/extensions/ERC721Enumerable.sol\";\nimport \"@openzeppelin/contracts/access/Ownable.sol\";\nimport \"@openzeppelin/contracts/utils/Strings.sol\";\nimport \"./interfaces/IPolicyFlow.sol\";\nimport \"./interfaces/IPolicyToken.sol\";\n\ncontract PolicyToken is ERC721Enumerable, Ownable, IPolicyToken {\n    using Strings for uint256;\n\n    IPolicyFlow policyFlow;\n\n    uint256 public _nextId;\n\n    // ---------------------------------------------------------------------------------------- //\n    // ************************************* Constructor ************************************** //\n    // ---------------------------------------------------------------------------------------- //\n\n    constructor() ERC721(\"DegisPolicyToken\", \"DEGISPT\") {\n        _nextId = 1;\n    }\n\n    // ---------------------------------------------------------------------------------------- //\n    // ************************************ View Function ************************************* //\n    // ---------------------------------------------------------------------------------------- //\n\n    /**\n     * @notice Get the next token Id of PolicyToken\n     *         The current max token Id is (_nextId - 1)\n     * @return Next token Id\n     */\n    function getNextId() public view returns (uint256) {\n        return _nextId;\n    }\n\n    /**\n     * @notice Get the tokenURI of a policy\n     * @param _tokenId: Token Id of the policy token\n     * @return The tokenURI in string form\n     */\n    function tokenURI(uint256 _tokenId)\n        public\n        view\n        override(ERC721, IPolicyToken)\n        returns (string memory)\n    {\n        require(_tokenId < _nextId, \"error, tokenId too large!\");\n        return getTokenURI(_tokenId);\n    }\n\n    // ---------------------------------------------------------------------------------------- //\n    // ************************************ Owner Function ************************************ //\n    // ---------------------------------------------------------------------------------------- //\n\n    /**\n       @notice Update the policyFlow address if it has been updated\n       @param _policyFlow: New policyFlow contract address\n     */\n    function updatePolicyFlow(address _policyFlow) external onlyOwner {\n        policyFlow = IPolicyFlow(_policyFlow);\n    }\n\n    /**\n     * @notice Mint a new policy token to an address\n     * @param _to: The receiver address\n     */\n    function mintPolicyToken(address _to) public onlyOwner {\n        uint256 tokenId = _nextId++;\n        _mint(_to, tokenId);\n    }\n\n    // ---------------------------------------------------------------------------------------- //\n    // *********************************** Main Functions ************************************* //\n    // ---------------------------------------------------------------------------------------- //\n\n    /**\n     * @notice Transfer the owner of a policy token and update the information in policyFlow\n     * @param _from: The original owner of the policy\n     * @param _to: The new owner of the policy\n     * @param _tokenId: Token id of the policy\n     */\n    function transferOwner(\n        address _from,\n        address _to,\n        uint256 _tokenId\n    ) public {\n        transferFrom(_from, _to, _tokenId);\n        policyFlow.policyOwnerTransfer(_tokenId, _from, _to);\n    }\n\n    // ---------------------------------------------------------------------------------------- //\n    // *********************************** Internal Functions ********************************* //\n    // ---------------------------------------------------------------------------------------- //\n\n    /**\n     * @notice Get the tokenURI, the metadata is from policyFlow contract\n     * @param _tokenId: Token Id of the policy token\n     */\n    function getTokenURI(uint256 _tokenId) public view returns (string memory) {\n        PolicyInfo memory info = policyFlow.getPolicyInfoById(_tokenId);\n\n        return\n            constructTokenURI(\n                PolicyTokenURIParam(\n                    info.productId,\n                    info.flightNumber,\n                    info.policyId,\n                    info.buyerAddress,\n                    info.premium,\n                    info.payoff,\n                    info.purchaseDate,\n                    info.departureDate,\n                    info.landingDate,\n                    uint256(info.status)\n                )\n            );\n    }\n\n    /**\n     * @notice Construct the metadata of a specific policy token\n     */\n\n    function constructTokenURI(PolicyTokenURIParam memory _params)\n        internal\n        pure\n        returns (string memory)\n    {\n        uint256 status = uint256(_params.status);\n        return\n            string(\n                abi.encodePacked(\n                    \"ProductId: \",\n                    _params.productId.toString(),\n                    \", \",\n                    \"FlightNumber: \",\n                    _params.flightNumber,\n                    \"PolicyId: \",\n                    _params.policyId.toString(),\n                    \", \",\n                    \"BuyerAddress: \",\n                    addressToString(_params.owner),\n                    \"Premium: \",\n                    (_params.premium / 10**18).toString(),\n                    \", \",\n                    \"Payoff: \",\n                    (_params.payoff / 10**18).toString(),\n                    \", \",\n                    \"PurchaseDate: \",\n                    _params.purchaseDate.toString(),\n                    \", \",\n                    \"DepartureDate:\",\n                    _params.departureDate.toString(),\n                    \", \",\n                    \"LandingDate: \",\n                    _params.landingDate.toString(),\n                    \", \",\n                    \"PolicyStatus: \",\n                    status.toString(),\n                    \".\"\n                )\n            );\n    }\n\n    /**\n     * @notice Bytes to string (not human-readable form)\n     * @param _bytes: Input bytes\n     * @return String form\n     */\n    function byToString(bytes32 _bytes) internal pure returns (string memory) {\n        return (uint256(_bytes)).toHexString(32);\n    }\n\n    /**\n     * @notice Transfer address to string (not change the content)\n     * @param _addr: Input address\n     * @return String form\n     */\n    function addressToString(address _addr)\n        internal\n        pure\n        returns (string memory)\n    {\n        return (uint256(uint160(_addr))).toHexString(20);\n    }\n}\n",
  "sourcePath": "/Volumes/Store/src/Degis-Contracts-1/contracts/PolicyToken.sol",
  "compiler": {
    "name": "solc",
    "version": "0.8.9+commit.e5eed63a.Emscripten.clang"
  },
  "schemaVersion": "3.4.3",
  "updatedAt": "2021-11-24T15:28:52.545Z",
  "networkType": "ethereum",
  "devdoc": {
    "kind": "dev",
    "methods": {
      "approve(address,uint256)": {
        "details": "See {IERC721-approve}."
      },
      "balanceOf(address)": {
        "details": "See {IERC721-balanceOf}."
      },
      "getApproved(uint256)": {
        "details": "See {IERC721-getApproved}."
      },
      "getNextId()": {
        "returns": {
          "_0": "Next token Id"
        }
      },
      "getTokenURI(uint256)": {
        "params": {
          "_tokenId": ": Token Id of the policy token"
        }
      },
      "isApprovedForAll(address,address)": {
        "details": "See {IERC721-isApprovedForAll}."
      },
      "mintPolicyToken(address)": {
        "params": {
          "_to": ": The receiver address"
        }
      },
      "name()": {
        "details": "See {IERC721Metadata-name}."
      },
      "owner()": {
        "details": "Returns the address of the current owner."
      },
      "ownerOf(uint256)": {
        "details": "See {IERC721-ownerOf}."
      },
      "renounceOwnership()": {
        "details": "Leaves the contract without owner. It will not be possible to call `onlyOwner` functions anymore. Can only be called by the current owner. NOTE: Renouncing ownership will leave the contract without an owner, thereby removing any functionality that is only available to the owner."
      },
      "safeTransferFrom(address,address,uint256)": {
        "details": "See {IERC721-safeTransferFrom}."
      },
      "safeTransferFrom(address,address,uint256,bytes)": {
        "details": "See {IERC721-safeTransferFrom}."
      },
      "setApprovalForAll(address,bool)": {
        "details": "See {IERC721-setApprovalForAll}."
      },
      "supportsInterface(bytes4)": {
        "details": "See {IERC165-supportsInterface}."
      },
      "symbol()": {
        "details": "See {IERC721Metadata-symbol}."
      },
      "tokenByIndex(uint256)": {
        "details": "See {IERC721Enumerable-tokenByIndex}."
      },
      "tokenOfOwnerByIndex(address,uint256)": {
        "details": "See {IERC721Enumerable-tokenOfOwnerByIndex}."
      },
      "tokenURI(uint256)": {
        "params": {
          "_tokenId": ": Token Id of the policy token"
        },
        "returns": {
          "_0": "The tokenURI in string form"
        }
      },
      "totalSupply()": {
        "details": "See {IERC721Enumerable-totalSupply}."
      },
      "transferFrom(address,address,uint256)": {
        "details": "See {IERC721-transferFrom}."
      },
      "transferOwner(address,address,uint256)": {
        "params": {
          "_from": ": The original owner of the policy",
          "_to": ": The new owner of the policy",
          "_tokenId": ": Token id of the policy"
        }
      },
      "transferOwnership(address)": {
        "details": "Transfers ownership of the contract to a new account (`newOwner`). Can only be called by the current owner."
      },
      "updatePolicyFlow(address)": {
        "params": {
          "_policyFlow": ": New policyFlow contract address"
        }
      }
    },
    "version": 1
  },
  "userdoc": {
    "kind": "user",
    "methods": {
      "getNextId()": {
        "notice": "Get the next token Id of PolicyToken         The current max token Id is (_nextId - 1)"
      },
      "getTokenURI(uint256)": {
        "notice": "Get the tokenURI, the metadata is from policyFlow contract"
      },
      "mintPolicyToken(address)": {
        "notice": "Mint a new policy token to an address"
      },
      "tokenURI(uint256)": {
        "notice": "Get the tokenURI of a policy"
      },
      "transferOwner(address,address,uint256)": {
        "notice": "Transfer the owner of a policy token and update the information in policyFlow"
      },
      "updatePolicyFlow(address)": {
        "notice": "Update the policyFlow address if it has been updated"
      }
    },
    "version": 1
  }
}