{
  "contractName": "PolicyFlow",
  "abi": [
    {
      "inputs": [
        {
          "internalType": "address",
          "name": "_insurancePool",
          "type": "address"
        },
        {
          "internalType": "address",
          "name": "_policyToken",
          "type": "address"
        },
        {
          "internalType": "address",
          "name": "_sigManager",
          "type": "address"
        },
        {
          "internalType": "address",
          "name": "_buyerToken",
          "type": "address"
        }
      ],
      "stateMutability": "nonpayable",
      "type": "constructor"
    },
    {
      "anonymous": false,
      "inputs": [
        {
          "indexed": true,
          "internalType": "bytes32",
          "name": "id",
          "type": "bytes32"
        }
      ],
      "name": "ChainlinkCancelled",
      "type": "event"
    },
    {
      "anonymous": false,
      "inputs": [
        {
          "indexed": true,
          "internalType": "bytes32",
          "name": "id",
          "type": "bytes32"
        }
      ],
      "name": "ChainlinkFulfilled",
      "type": "event"
    },
    {
      "anonymous": false,
      "inputs": [
        {
          "indexed": true,
          "internalType": "bytes32",
          "name": "id",
          "type": "bytes32"
        }
      ],
      "name": "ChainlinkRequested",
      "type": "event"
    },
    {
      "anonymous": false,
      "inputs": [
        {
          "indexed": false,
          "internalType": "uint256",
          "name": "_thresholdMin",
          "type": "uint256"
        },
        {
          "indexed": false,
          "internalType": "uint256",
          "name": "_thresholdMax",
          "type": "uint256"
        }
      ],
      "name": "DelayThresholdSet",
      "type": "event"
    },
    {
      "anonymous": false,
      "inputs": [
        {
          "indexed": false,
          "internalType": "uint256",
          "name": "_policyId",
          "type": "uint256"
        },
        {
          "indexed": false,
          "internalType": "bytes32",
          "name": "_requestId",
          "type": "bytes32"
        }
      ],
      "name": "FulfilledOracleRequest",
      "type": "event"
    },
    {
      "anonymous": false,
      "inputs": [
        {
          "indexed": false,
          "internalType": "uint256",
          "name": "_policyID",
          "type": "uint256"
        },
        {
          "indexed": true,
          "internalType": "address",
          "name": "_userAddress",
          "type": "address"
        }
      ],
      "name": "PolicyClaimed",
      "type": "event"
    },
    {
      "anonymous": false,
      "inputs": [
        {
          "indexed": false,
          "internalType": "uint256",
          "name": "_policyID",
          "type": "uint256"
        },
        {
          "indexed": true,
          "internalType": "address",
          "name": "_userAddress",
          "type": "address"
        }
      ],
      "name": "PolicyDeclined",
      "type": "event"
    },
    {
      "anonymous": false,
      "inputs": [
        {
          "indexed": false,
          "internalType": "uint256",
          "name": "_policyID",
          "type": "uint256"
        },
        {
          "indexed": true,
          "internalType": "address",
          "name": "_userAddress",
          "type": "address"
        }
      ],
      "name": "PolicyExpired",
      "type": "event"
    },
    {
      "anonymous": false,
      "inputs": [
        {
          "indexed": true,
          "internalType": "uint256",
          "name": "_tokenId",
          "type": "uint256"
        },
        {
          "indexed": false,
          "internalType": "address",
          "name": "_newOwner",
          "type": "address"
        }
      ],
      "name": "PolicyOwnerTransfer",
      "type": "event"
    },
    {
      "anonymous": false,
      "inputs": [
        {
          "indexed": false,
          "internalType": "uint256",
          "name": "_policyID",
          "type": "uint256"
        },
        {
          "indexed": true,
          "internalType": "address",
          "name": "_userAddress",
          "type": "address"
        }
      ],
      "name": "PolicySold",
      "type": "event"
    },
    {
      "anonymous": false,
      "inputs": [
        {
          "indexed": false,
          "internalType": "uint256",
          "name": "_policyID",
          "type": "uint256"
        },
        {
          "indexed": true,
          "internalType": "address",
          "name": "_userAddress",
          "type": "address"
        }
      ],
      "name": "newPolicyApplication",
      "type": "event"
    },
    {
      "inputs": [],
      "name": "DELAY_THRESHOLD_MAX",
      "outputs": [
        {
          "internalType": "uint256",
          "name": "",
          "type": "uint256"
        }
      ],
      "stateMutability": "view",
      "type": "function",
      "constant": true
    },
    {
      "inputs": [],
      "name": "DELAY_THRESHOLD_MIN",
      "outputs": [
        {
          "internalType": "uint256",
          "name": "",
          "type": "uint256"
        }
      ],
      "stateMutability": "view",
      "type": "function",
      "constant": true
    },
    {
      "inputs": [],
      "name": "MAX_PAYOFF",
      "outputs": [
        {
          "internalType": "uint256",
          "name": "",
          "type": "uint256"
        }
      ],
      "stateMutability": "view",
      "type": "function",
      "constant": true
    },
    {
      "inputs": [],
      "name": "MIN_TIME_BEFORE_DEPARTURE",
      "outputs": [
        {
          "internalType": "uint256",
          "name": "",
          "type": "uint256"
        }
      ],
      "stateMutability": "view",
      "type": "function",
      "constant": true
    },
    {
      "inputs": [],
      "name": "Total_Policies",
      "outputs": [
        {
          "internalType": "uint256",
          "name": "",
          "type": "uint256"
        }
      ],
      "stateMutability": "view",
      "type": "function",
      "constant": true
    },
    {
      "inputs": [],
      "name": "oracleResponse",
      "outputs": [
        {
          "internalType": "uint256",
          "name": "",
          "type": "uint256"
        }
      ],
      "stateMutability": "view",
      "type": "function",
      "constant": true
    },
    {
      "inputs": [],
      "name": "owner",
      "outputs": [
        {
          "internalType": "address",
          "name": "",
          "type": "address"
        }
      ],
      "stateMutability": "view",
      "type": "function",
      "constant": true
    },
    {
      "inputs": [],
      "name": "getChainlinkToken",
      "outputs": [
        {
          "internalType": "address",
          "name": "",
          "type": "address"
        }
      ],
      "stateMutability": "view",
      "type": "function",
      "constant": true
    },
    {
      "inputs": [
        {
          "internalType": "address",
          "name": "_userAddress",
          "type": "address"
        }
      ],
      "name": "viewUserPolicy",
      "outputs": [
        {
          "components": [
            {
              "internalType": "uint256",
              "name": "productId",
              "type": "uint256"
            },
            {
              "internalType": "address",
              "name": "buyerAddress",
              "type": "address"
            },
            {
              "internalType": "uint256",
              "name": "policyId",
              "type": "uint256"
            },
            {
              "internalType": "string",
              "name": "flightNumber",
              "type": "string"
            },
            {
              "internalType": "uint256",
              "name": "premium",
              "type": "uint256"
            },
            {
              "internalType": "uint256",
              "name": "payoff",
              "type": "uint256"
            },
            {
              "internalType": "uint256",
              "name": "purchaseDate",
              "type": "uint256"
            },
            {
              "internalType": "uint256",
              "name": "departureDate",
              "type": "uint256"
            },
            {
              "internalType": "uint256",
              "name": "landingDate",
              "type": "uint256"
            },
            {
              "internalType": "enum IPolicyTypes.PolicyStatus",
              "name": "status",
              "type": "uint8"
            },
            {
              "internalType": "bool",
              "name": "isUsed",
              "type": "bool"
            },
            {
              "internalType": "uint256",
              "name": "delayResult",
              "type": "uint256"
            }
          ],
          "internalType": "struct IPolicyTypes.PolicyInfo[]",
          "name": "",
          "type": "tuple[]"
        }
      ],
      "stateMutability": "view",
      "type": "function",
      "constant": true
    },
    {
      "inputs": [
        {
          "internalType": "uint256",
          "name": "_policyId",
          "type": "uint256"
        }
      ],
      "name": "getPolicyInfoById",
      "outputs": [
        {
          "components": [
            {
              "internalType": "uint256",
              "name": "productId",
              "type": "uint256"
            },
            {
              "internalType": "address",
              "name": "buyerAddress",
              "type": "address"
            },
            {
              "internalType": "uint256",
              "name": "policyId",
              "type": "uint256"
            },
            {
              "internalType": "string",
              "name": "flightNumber",
              "type": "string"
            },
            {
              "internalType": "uint256",
              "name": "premium",
              "type": "uint256"
            },
            {
              "internalType": "uint256",
              "name": "payoff",
              "type": "uint256"
            },
            {
              "internalType": "uint256",
              "name": "purchaseDate",
              "type": "uint256"
            },
            {
              "internalType": "uint256",
              "name": "departureDate",
              "type": "uint256"
            },
            {
              "internalType": "uint256",
              "name": "landingDate",
              "type": "uint256"
            },
            {
              "internalType": "enum IPolicyTypes.PolicyStatus",
              "name": "status",
              "type": "uint8"
            },
            {
              "internalType": "bool",
              "name": "isUsed",
              "type": "bool"
            },
            {
              "internalType": "uint256",
              "name": "delayResult",
              "type": "uint256"
            }
          ],
          "internalType": "struct IPolicyTypes.PolicyInfo",
          "name": "policy",
          "type": "tuple"
        }
      ],
      "stateMutability": "view",
      "type": "function",
      "constant": true
    },
    {
      "inputs": [
        {
          "internalType": "address",
          "name": "_userAddress",
          "type": "address"
        }
      ],
      "name": "getUserPolicyCount",
      "outputs": [
        {
          "internalType": "uint256",
          "name": "policyAmount",
          "type": "uint256"
        }
      ],
      "stateMutability": "view",
      "type": "function",
      "constant": true
    },
    {
      "inputs": [
        {
          "internalType": "uint256",
          "name": "_policyId",
          "type": "uint256"
        }
      ],
      "name": "findPolicyBuyerById",
      "outputs": [
        {
          "internalType": "address",
          "name": "buyerAddress",
          "type": "address"
        }
      ],
      "stateMutability": "view",
      "type": "function",
      "constant": true
    },
    {
      "inputs": [
        {
          "internalType": "uint256",
          "name": "_fee",
          "type": "uint256"
        }
      ],
      "name": "changeFee",
      "outputs": [],
      "stateMutability": "nonpayable",
      "type": "function"
    },
    {
      "inputs": [
        {
          "internalType": "uint256",
          "name": "_newMaxPayoff",
          "type": "uint256"
        }
      ],
      "name": "changeMaxPayoff",
      "outputs": [],
      "stateMutability": "nonpayable",
      "type": "function"
    },
    {
      "inputs": [
        {
          "internalType": "uint256",
          "name": "_newMinTime",
          "type": "uint256"
        }
      ],
      "name": "changeMinTimeBeforeDeparture",
      "outputs": [],
      "stateMutability": "nonpayable",
      "type": "function"
    },
    {
      "inputs": [
        {
          "internalType": "address",
          "name": "_oracleAddress",
          "type": "address"
        }
      ],
      "name": "setFlightOracle",
      "outputs": [],
      "stateMutability": "nonpayable",
      "type": "function"
    },
    {
      "inputs": [
        {
          "internalType": "uint256",
          "name": "_thresholdMin",
          "type": "uint256"
        },
        {
          "internalType": "uint256",
          "name": "_thresholdMax",
          "type": "uint256"
        }
      ],
      "name": "setDelayThreshold",
      "outputs": [],
      "stateMutability": "nonpayable",
      "type": "function"
    },
    {
      "inputs": [
        {
          "internalType": "uint256",
          "name": "_productId",
          "type": "uint256"
        },
        {
          "internalType": "string",
          "name": "_flightNumber",
          "type": "string"
        },
        {
          "internalType": "uint256",
          "name": "_premium",
          "type": "uint256"
        },
        {
          "internalType": "uint256",
          "name": "_departureDate",
          "type": "uint256"
        },
        {
          "internalType": "uint256",
          "name": "_landingDate",
          "type": "uint256"
        },
        {
          "internalType": "uint256",
          "name": "_deadline",
          "type": "uint256"
        },
        {
          "internalType": "bytes",
          "name": "signature",
          "type": "bytes"
        }
      ],
      "name": "newApplication",
      "outputs": [
        {
          "internalType": "uint256",
          "name": "_policyId",
          "type": "uint256"
        }
      ],
      "stateMutability": "nonpayable",
      "type": "function"
    },
    {
      "inputs": [
        {
          "internalType": "uint256",
          "name": "_policyId",
          "type": "uint256"
        },
        {
          "internalType": "string",
          "name": "_flightNumber",
          "type": "string"
        },
        {
          "internalType": "string",
          "name": "_date",
          "type": "string"
        },
        {
          "internalType": "string",
          "name": "_path",
          "type": "string"
        },
        {
          "internalType": "bool",
          "name": "_forceUpdate",
          "type": "bool"
        }
      ],
      "name": "newClaimRequest",
      "outputs": [],
      "stateMutability": "nonpayable",
      "type": "function"
    },
    {
      "inputs": [
        {
          "internalType": "uint256",
          "name": "_tokenId",
          "type": "uint256"
        },
        {
          "internalType": "address",
          "name": "_oldOwner",
          "type": "address"
        },
        {
          "internalType": "address",
          "name": "_newOwner",
          "type": "address"
        }
      ],
      "name": "policyOwnerTransfer",
      "outputs": [],
      "stateMutability": "nonpayable",
      "type": "function"
    },
    {
      "inputs": [
        {
          "internalType": "bytes32",
          "name": "_requestId",
          "type": "bytes32"
        },
        {
          "internalType": "uint256",
          "name": "_result",
          "type": "uint256"
        }
      ],
      "name": "finalSettlement",
      "outputs": [],
      "stateMutability": "nonpayable",
      "type": "function"
    }
  ],
  "bytecode": "0x608060405260016004556040518060400160405280602081526020017f687474703a2f2f33392e3130312e3133322e3232383a383030302f6c6976652f815250600890805190602001906200005692919062000206565b50620151806011556809c2007651b2500000601255601e60135560f06014553480156200008257600080fd5b5060405162003d4538038062003d458339818101604052810190620000a8919062000320565b33600b60006101000a81548173ffffffffffffffffffffffffffffffffffffffff021916908373ffffffffffffffffffffffffffffffffffffffff16021790555083600d60006101000a81548173ffffffffffffffffffffffffffffffffffffffff021916908373ffffffffffffffffffffffffffffffffffffffff16021790555082600e60006101000a81548173ffffffffffffffffffffffffffffffffffffffff021916908373ffffffffffffffffffffffffffffffffffffffff16021790555080601060006101000a81548173ffffffffffffffffffffffffffffffffffffffff021916908373ffffffffffffffffffffffffffffffffffffffff16021790555081600c60006101000a81548173ffffffffffffffffffffffffffffffffffffffff021916908373ffffffffffffffffffffffffffffffffffffffff160217905550670de0b6b3a764000060078190555050505050620003f7565b8280546200021490620003c1565b90600052602060002090601f01602090048101928262000238576000855562000284565b82601f106200025357805160ff191683800117855562000284565b8280016001018555821562000284579182015b828111156200028357825182559160200191906001019062000266565b5b50905062000293919062000297565b5090565b5b80821115620002b257600081600090555060010162000298565b5090565b600080fd5b600073ffffffffffffffffffffffffffffffffffffffff82169050919050565b6000620002e882620002bb565b9050919050565b620002fa81620002db565b81146200030657600080fd5b50565b6000815190506200031a81620002ef565b92915050565b600080600080608085870312156200033d576200033c620002b6565b5b60006200034d8782880162000309565b9450506020620003608782880162000309565b9350506040620003738782880162000309565b9250506060620003868782880162000309565b91505092959194509250565b7f4e487b7100000000000000000000000000000000000000000000000000000000600052602260045260246000fd5b60006002820490506001821680620003da57607f821691505b60208210811415620003f157620003f062000392565b5b50919050565b61393e80620004076000396000f3fe608060405234801561001057600080fd5b50600436106101375760003560e01c80635a9274ad116100b85780638e34ce351161007c5780638e34ce351461034e5780639180233f1461036a578063a9480a8e14610388578063b7b357ac146103a4578063be6b8248146103c2578063e846e797146103e057610137565b80635a9274ad146102985780636a1db1bf146102b45780636b0edde9146102d05780636ce0403c146103005780638da5cb5b1461033057610137565b8063214a64a9116100ff578063214a64a9146101cc57806321deab0e146101ea5780632a138f651461021a5780633d21a7d11461024a5780634abe553f1461027a57610137565b806302d7e85a1461013c5780630f42fd0b14610158578063165d35e1146101745780631774ea45146101925780631a397db9146101b0575b600080fd5b61015660048036038101906101519190612145565b6103fc565b005b610172600480360381019061016d9190612303565b6104d7565b005b61017c61086f565b6040516101899190612413565b60405180910390f35b61019a61087e565b6040516101a7919061243d565b60405180910390f35b6101ca60048036038101906101c5919061248e565b610884565b005b6101d4610a38565b6040516101e1919061243d565b60405180910390f35b61020460048036038101906101ff919061252e565b610a3e565b604051610211919061243d565b60405180910390f35b610234600480360381019061022f919061260c565b610e9f565b6040516102419190612413565b60405180910390f35b610264600480360381019061025f9190612665565b610edf565b604051610271919061243d565b60405180910390f35b610282610f28565b60405161028f919061243d565b60405180910390f35b6102b260048036038101906102ad919061260c565b610f2e565b005b6102ce60048036038101906102c9919061260c565b610fc8565b005b6102ea60048036038101906102e5919061260c565b611062565b6040516102f791906128c2565b60405180910390f35b61031a60048036038101906103159190612665565b61121e565b6040516103279190612aaa565b60405180910390f35b610338611593565b6040516103459190612413565b60405180910390f35b61036860048036038101906103639190612acc565b6115b9565b005b610372611785565b60405161037f919061243d565b60405180910390f35b6103a2600480360381019061039d919061260c565b61178b565b005b6103ac611825565b6040516103b9919061243d565b60405180910390f35b6103ca61182b565b6040516103d7919061243d565b60405180910390f35b6103fa60048036038101906103f59190612665565b611831565b005b600b60009054906101000a900473ffffffffffffffffffffffffffffffffffffffff1673ffffffffffffffffffffffffffffffffffffffff163373ffffffffffffffffffffffffffffffffffffffff161461048c576040517f08c379a000000000000000000000000000000000000000000000000000000000815260040161048390612ba2565b60405180910390fd5b81601381905550806014819055507f144b41cc7d66714023c3afce0dcdcc461920a7807cb3d0fd3c9e137395c7dd4c82826040516104cb929190612bc2565b60405180910390a15050565b6016600086815260200190815260200160002060080154421015610530576040517f08c379a000000000000000000000000000000000000000000000000000000000815260040161052790612c5d565b60405180910390fd5b6016600086815260200190815260200160002060090160019054906101000a900460ff1615806105b657508080156105b55750600b60009054906101000a900473ffffffffffffffffffffffffffffffffffffffff1673ffffffffffffffffffffffffffffffffffffffff163373ffffffffffffffffffffffffffffffffffffffff16145b5b6105f5576040517f08c379a00000000000000000000000000000000000000000000000000000000081526004016105ec90612d15565b60405180910390fd5b6016600086815260200190815260200160002060030160405160200161061b9190612e35565b60405160208183030381529060405280519060200120846040516020016106429190612e7d565b6040516020818303038152906040528051906020012014610698576040517f08c379a000000000000000000000000000000000000000000000000000000000815260040161068f90612ee0565b60405180910390fd5b60166000868152602001908152602001600020600701546040516020016106bf9190612f21565b60405160208183030381529060405280519060200120836040516020016106e69190612e7d565b604051602081830303815290604052805190602001201461073c576040517f08c379a000000000000000000000000000000000000000000000000000000000815260040161073390612f88565b60405180910390fd5b60006008858560405160200161075493929190612ff4565b60405160208183030381529060405290506000600f60009054906101000a900473ffffffffffffffffffffffffffffffffffffffff1673ffffffffffffffffffffffffffffffffffffffff16639a66455f600754848760016040518563ffffffff1660e01b81526004016107cb94939291906130b8565b602060405180830381600087803b1580156107e557600080fd5b505af11580156107f9573d6000803e3d6000fd5b505050506040513d601f19601f8201168201806040525081019061081d9190613120565b905086600960008381526020019081526020016000208190555060016016600089815260200190815260200160002060090160016101000a81548160ff02191690831515021790555050505050505050565b6000610879611905565b905090565b60145481565b600f60009054906101000a900473ffffffffffffffffffffffffffffffffffffffff1673ffffffffffffffffffffffffffffffffffffffff163373ffffffffffffffffffffffffffffffffffffffff1614610914576040517f08c379a000000000000000000000000000000000000000000000000000000000815260040161090b906131bf565b60405180910390fd5b8060068190555060006009600084815260200190815260200160002054905060006016600083815260200190815260200160002090508281600a018190555060008160040154905060008260010160009054906101000a900473ffffffffffffffffffffffffffffffffffffffff16905060008514156109a15761099c82601254838761192f565b6109f7565b60145485116109c95760006109b586611a53565b90506109c383828488611ad5565b506109f6565b6101908514156109e6576109e1826012548387611ad5565b6109f5565b6109f482601254838761192f565b5b5b5b7f04e392e4100aa2e88345ae13cf73d14c46a6051119773b79fd108c378a4599e38487604051610a289291906131ee565b60405180910390a1505050505050565b60065481565b600083421115610a83576040517f08c379a0000000000000000000000000000000000000000000000000000000008152600401610a7a90613289565b60405180910390fd5b60008914610ac6576040517f08c379a0000000000000000000000000000000000000000000000000000000008152600401610abd9061331b565b60405180910390fd5b60115442610ad4919061336a565b861015610b16576040517f08c379a0000000000000000000000000000000000000000000000000000000008152600401610b0d90613432565b60405180910390fd5b610b2483838a338b89611bfd565b600060155490506040518061018001604052808b81526020013373ffffffffffffffffffffffffffffffffffffffff1681526020018281526020018a8152602001898152602001601254815260200142815260200188815260200187815260200160006004811115610b9957610b98612738565b5b8152602001600015158152602001610194815250601660008381526020019081526020016000206000820151816000015560208201518160010160006101000a81548173ffffffffffffffffffffffffffffffffffffffff021916908373ffffffffffffffffffffffffffffffffffffffff160217905550604082015181600201556060820151816003019080519060200190610c37929190611fcd565b506080820151816004015560a0820151816005015560c0820151816006015560e0820151816007015561010082015181600801556101208201518160090160006101000a81548160ff02191690836004811115610c9757610c96612738565b5b02179055506101408201518160090160016101000a81548160ff02191690831515021790555061016082015181600a0155905050610cd9886012543384611c9a565b601060009054906101000a900473ffffffffffffffffffffffffffffffffffffffff1673ffffffffffffffffffffffffffffffffffffffff166340c10f19338a6040518363ffffffff1660e01b8152600401610d36929190613452565b600060405180830381600087803b158015610d5057600080fd5b505af1158015610d64573d6000803e3d6000fd5b50505050601760003373ffffffffffffffffffffffffffffffffffffffff1673ffffffffffffffffffffffffffffffffffffffff16815260200190815260200160002060155490806001815401808255809150506001900390600052602060002001600090919091909150556001601860003373ffffffffffffffffffffffffffffffffffffffff1673ffffffffffffffffffffffffffffffffffffffff1681526020019081526020016000206000828254610e20919061336a565b92505081905550600160156000828254610e3a919061336a565b925050819055503373ffffffffffffffffffffffffffffffffffffffff167fdd07f990e7f750f936a88c27e727522494d2741b4d6714871c9c7f557349155b82604051610e87919061243d565b60405180910390a28091505098975050505050505050565b60006016600083815260200190815260200160002060010160009054906101000a900473ffffffffffffffffffffffffffffffffffffffff169050919050565b6000601860008373ffffffffffffffffffffffffffffffffffffffff1673ffffffffffffffffffffffffffffffffffffffff168152602001908152602001600020549050919050565b60135481565b600b60009054906101000a900473ffffffffffffffffffffffffffffffffffffffff1673ffffffffffffffffffffffffffffffffffffffff163373ffffffffffffffffffffffffffffffffffffffff1614610fbe576040517f08c379a0000000000000000000000000000000000000000000000000000000008152600401610fb590612ba2565b60405180910390fd5b8060118190555050565b600b60009054906101000a900473ffffffffffffffffffffffffffffffffffffffff1673ffffffffffffffffffffffffffffffffffffffff163373ffffffffffffffffffffffffffffffffffffffff1614611058576040517f08c379a000000000000000000000000000000000000000000000000000000000815260040161104f90612ba2565b60405180910390fd5b8060078190555050565b61106a612053565b6016600083815260200190815260200160002060405180610180016040529081600082015481526020016001820160009054906101000a900473ffffffffffffffffffffffffffffffffffffffff1673ffffffffffffffffffffffffffffffffffffffff1673ffffffffffffffffffffffffffffffffffffffff1681526020016002820154815260200160038201805461110390612d64565b80601f016020809104026020016040519081016040528092919081815260200182805461112f90612d64565b801561117c5780601f106111515761010080835404028352916020019161117c565b820191906000526020600020905b81548152906001019060200180831161115f57829003601f168201915b5050505050815260200160048201548152602001600582015481526020016006820154815260200160078201548152602001600882015481526020016009820160009054906101000a900460ff1660048111156111dc576111db612738565b5b60048111156111ee576111ed612738565b5b81526020016009820160019054906101000a900460ff16151515158152602001600a820154815250509050919050565b60606000601860008473ffffffffffffffffffffffffffffffffffffffff1673ffffffffffffffffffffffffffffffffffffffff16815260200190815260200160002054116112a2576040517f08c379a0000000000000000000000000000000000000000000000000000000008152600401611299906134c7565b60405180910390fd5b6000601860008473ffffffffffffffffffffffffffffffffffffffff1673ffffffffffffffffffffffffffffffffffffffff16815260200190815260200160002054905060008167ffffffffffffffff811115611302576113016121a0565b5b60405190808252806020026020018201604052801561133b57816020015b611328612053565b8152602001906001900390816113205790505b50905060005b82811015611588576000601760008773ffffffffffffffffffffffffffffffffffffffff1673ffffffffffffffffffffffffffffffffffffffff168152602001908152602001600020828154811061139c5761139b6134e7565b5b906000526020600020015490506016600082815260200190815260200160002060405180610180016040529081600082015481526020016001820160009054906101000a900473ffffffffffffffffffffffffffffffffffffffff1673ffffffffffffffffffffffffffffffffffffffff1673ffffffffffffffffffffffffffffffffffffffff1681526020016002820154815260200160038201805461144290612d64565b80601f016020809104026020016040519081016040528092919081815260200182805461146e90612d64565b80156114bb5780601f10611490576101008083540402835291602001916114bb565b820191906000526020600020905b81548152906001019060200180831161149e57829003601f168201915b5050505050815260200160048201548152602001600582015481526020016006820154815260200160078201548152602001600882015481526020016009820160009054906101000a900460ff16600481111561151b5761151a612738565b5b600481111561152d5761152c612738565b5b81526020016009820160019054906101000a900460ff16151515158152602001600a82015481525050838381518110611569576115686134e7565b5b602002602001018190525050808061158090613516565b915050611341565b508092505050919050565b600b60009054906101000a900473ffffffffffffffffffffffffffffffffffffffff1681565b600e60009054906101000a900473ffffffffffffffffffffffffffffffffffffffff1673ffffffffffffffffffffffffffffffffffffffff163373ffffffffffffffffffffffffffffffffffffffff1614611649576040517f08c379a0000000000000000000000000000000000000000000000000000000008152600401611640906135d1565b60405180910390fd5b60008390506016600082815260200190815260200160002060010160009054906101000a900473ffffffffffffffffffffffffffffffffffffffff1673ffffffffffffffffffffffffffffffffffffffff168373ffffffffffffffffffffffffffffffffffffffff16146116f2576040517f08c379a00000000000000000000000000000000000000000000000000000000081526004016116e99061363d565b60405180910390fd5b816016600083815260200190815260200160002060010160006101000a81548173ffffffffffffffffffffffffffffffffffffffff021916908373ffffffffffffffffffffffffffffffffffffffff160217905550837f131013c706ffe7a58a15c6576c2affbfee4aa57a8fc2c179fff9da687da631e6836040516117779190612413565b60405180910390a250505050565b60125481565b600b60009054906101000a900473ffffffffffffffffffffffffffffffffffffffff1673ffffffffffffffffffffffffffffffffffffffff163373ffffffffffffffffffffffffffffffffffffffff161461181b576040517f08c379a000000000000000000000000000000000000000000000000000000000815260040161181290612ba2565b60405180910390fd5b8060128190555050565b60115481565b60155481565b600b60009054906101000a900473ffffffffffffffffffffffffffffffffffffffff1673ffffffffffffffffffffffffffffffffffffffff163373ffffffffffffffffffffffffffffffffffffffff16146118c1576040517f08c379a00000000000000000000000000000000000000000000000000000000081526004016118b890612ba2565b60405180910390fd5b80600f60006101000a81548173ffffffffffffffffffffffffffffffffffffffff021916908373ffffffffffffffffffffffffffffffffffffffff16021790555050565b6000600260009054906101000a900473ffffffffffffffffffffffffffffffffffffffff16905090565b600d60009054906101000a900473ffffffffffffffffffffffffffffffffffffffff1673ffffffffffffffffffffffffffffffffffffffff16639e2e28b58585856040518463ffffffff1660e01b815260040161198e9392919061365d565b600060405180830381600087803b1580156119a857600080fd5b505af11580156119bc573d6000803e3d6000fd5b5050505060036016600083815260200190815260200160002060090160006101000a81548160ff021916908360048111156119fa576119f9612738565b5b02179055508173ffffffffffffffffffffffffffffffffffffffff167f5e2aa8ed921638d802aff01815dcc364f11bd867646ee35cef988a928aa08aba82604051611a45919061243d565b60405180910390a250505050565b600080600090506013548311611a6c5760009050611ab6565b60135483118015611a7f57506014548311155b15611aa4576101e08384611a939190613694565b611a9d919061371d565b9050611ab5565b601454831115611ab45760125490505b5b5b670de0b6b3a764000081611aca9190613694565b905080915050919050565b600d60009054906101000a900473ffffffffffffffffffffffffffffffffffffffff1673ffffffffffffffffffffffffffffffffffffffff1663942465ed8560125486866040518563ffffffff1660e01b8152600401611b38949392919061374e565b600060405180830381600087803b158015611b5257600080fd5b505af1158015611b66573d6000803e3d6000fd5b5050505060046016600083815260200190815260200160002060090160006101000a81548160ff02191690836004811115611ba457611ba3612738565b5b02179055508173ffffffffffffffffffffffffffffffffffffffff167fc7ec6d9a759e329b525c568d4a31eadfd4d47a50a11498317356b63536972cff82604051611bef919061243d565b60405180910390a250505050565b600c60009054906101000a900473ffffffffffffffffffffffffffffffffffffffff1673ffffffffffffffffffffffffffffffffffffffff16633dc039c38787878787876040518763ffffffff1660e01b8152600401611c62969594939291906137d1565b60006040518083038186803b158015611c7a57600080fd5b505afa158015611c8e573d6000803e3d6000fd5b50505050505050505050565b6000600d60009054906101000a900473ffffffffffffffffffffffffffffffffffffffff1673ffffffffffffffffffffffffffffffffffffffff166216bd78856040518263ffffffff1660e01b8152600401611cf6919061243d565b60206040518083038186803b158015611d0e57600080fd5b505afa158015611d22573d6000803e3d6000fd5b505050506040513d601f19601f82011682018060405250810190611d469190613849565b90508015611efe57600d60009054906101000a900473ffffffffffffffffffffffffffffffffffffffff1673ffffffffffffffffffffffffffffffffffffffff1663bf131f4b8686866040518463ffffffff1660e01b8152600401611dad9392919061365d565b600060405180830381600087803b158015611dc757600080fd5b505af1158015611ddb573d6000803e3d6000fd5b5050505060016016600084815260200190815260200160002060090160006101000a81548160ff02191690836004811115611e1957611e18612738565b5b02179055508273ffffffffffffffffffffffffffffffffffffffff167f18c8463e3f8b620eda107b8496632f42c285e0e2dbe36214aef29a7570c98db783604051611e64919061243d565b60405180910390a2600e60009054906101000a900473ffffffffffffffffffffffffffffffffffffffff1673ffffffffffffffffffffffffffffffffffffffff1663b918e5e2846040518263ffffffff1660e01b8152600401611ec79190612413565b600060405180830381600087803b158015611ee157600080fd5b505af1158015611ef5573d6000803e3d6000fd5b50505050611fc6565b60026016600084815260200190815260200160002060090160006101000a81548160ff02191690836004811115611f3857611f37612738565b5b02179055508273ffffffffffffffffffffffffffffffffffffffff167f2f0c3a9cdf52dc1569c8661ae34313def97a77776bbc9e85ca130c0bafca4ab483604051611f83919061243d565b60405180910390a26040517f08c379a0000000000000000000000000000000000000000000000000000000008152600401611fbd906138e8565b60405180910390fd5b5050505050565b828054611fd990612d64565b90600052602060002090601f016020900481019282611ffb5760008555612042565b82601f1061201457805160ff1916838001178555612042565b82800160010185558215612042579182015b82811115612041578251825591602001919060010190612026565b5b50905061204f91906120de565b5090565b60405180610180016040528060008152602001600073ffffffffffffffffffffffffffffffffffffffff16815260200160008152602001606081526020016000815260200160008152602001600081526020016000815260200160008152602001600060048111156120c8576120c7612738565b5b8152602001600015158152602001600081525090565b5b808211156120f75760008160009055506001016120df565b5090565b6000604051905090565b600080fd5b600080fd5b6000819050919050565b6121228161210f565b811461212d57600080fd5b50565b60008135905061213f81612119565b92915050565b6000806040838503121561215c5761215b612105565b5b600061216a85828601612130565b925050602061217b85828601612130565b9150509250929050565b600080fd5b600080fd5b6000601f19601f8301169050919050565b7f4e487b7100000000000000000000000000000000000000000000000000000000600052604160045260246000fd5b6121d88261218f565b810181811067ffffffffffffffff821117156121f7576121f66121a0565b5b80604052505050565b600061220a6120fb565b905061221682826121cf565b919050565b600067ffffffffffffffff821115612236576122356121a0565b5b61223f8261218f565b9050602081019050919050565b82818337600083830152505050565b600061226e6122698461221b565b612200565b90508281526020810184848401111561228a5761228961218a565b5b61229584828561224c565b509392505050565b600082601f8301126122b2576122b1612185565b5b81356122c284826020860161225b565b91505092915050565b60008115159050919050565b6122e0816122cb565b81146122eb57600080fd5b50565b6000813590506122fd816122d7565b92915050565b600080600080600060a0868803121561231f5761231e612105565b5b600061232d88828901612130565b955050602086013567ffffffffffffffff81111561234e5761234d61210a565b5b61235a8882890161229d565b945050604086013567ffffffffffffffff81111561237b5761237a61210a565b5b6123878882890161229d565b935050606086013567ffffffffffffffff8111156123a8576123a761210a565b5b6123b48882890161229d565b92505060806123c5888289016122ee565b9150509295509295909350565b600073ffffffffffffffffffffffffffffffffffffffff82169050919050565b60006123fd826123d2565b9050919050565b61240d816123f2565b82525050565b60006020820190506124286000830184612404565b92915050565b6124378161210f565b82525050565b6000602082019050612452600083018461242e565b92915050565b6000819050919050565b61246b81612458565b811461247657600080fd5b50565b60008135905061248881612462565b92915050565b600080604083850312156124a5576124a4612105565b5b60006124b385828601612479565b92505060206124c485828601612130565b9150509250929050565b600080fd5b600080fd5b60008083601f8401126124ee576124ed612185565b5b8235905067ffffffffffffffff81111561250b5761250a6124ce565b5b602083019150836001820283011115612527576125266124d3565b5b9250929050565b60008060008060008060008060e0898b03121561254e5761254d612105565b5b600061255c8b828c01612130565b985050602089013567ffffffffffffffff81111561257d5761257c61210a565b5b6125898b828c0161229d565b975050604061259a8b828c01612130565b96505060606125ab8b828c01612130565b95505060806125bc8b828c01612130565b94505060a06125cd8b828c01612130565b93505060c089013567ffffffffffffffff8111156125ee576125ed61210a565b5b6125fa8b828c016124d8565b92509250509295985092959890939650565b60006020828403121561262257612621612105565b5b600061263084828501612130565b91505092915050565b612642816123f2565b811461264d57600080fd5b50565b60008135905061265f81612639565b92915050565b60006020828403121561267b5761267a612105565b5b600061268984828501612650565b91505092915050565b61269b8161210f565b82525050565b6126aa816123f2565b82525050565b600081519050919050565b600082825260208201905092915050565b60005b838110156126ea5780820151818401526020810190506126cf565b838111156126f9576000848401525b50505050565b600061270a826126b0565b61271481856126bb565b93506127248185602086016126cc565b61272d8161218f565b840191505092915050565b7f4e487b7100000000000000000000000000000000000000000000000000000000600052602160045260246000fd5b6005811061277857612777612738565b5b50565b600081905061278982612767565b919050565b60006127998261277b565b9050919050565b6127a98161278e565b82525050565b6127b8816122cb565b82525050565b6000610180830160008301516127d76000860182612692565b5060208301516127ea60208601826126a1565b5060408301516127fd6040860182612692565b506060830151848203606086015261281582826126ff565b915050608083015161282a6080860182612692565b5060a083015161283d60a0860182612692565b5060c083015161285060c0860182612692565b5060e083015161286360e0860182612692565b50610100830151612878610100860182612692565b5061012083015161288d6101208601826127a0565b506101408301516128a26101408601826127af565b506101608301516128b7610160860182612692565b508091505092915050565b600060208201905081810360008301526128dc81846127be565b905092915050565b600081519050919050565b600082825260208201905092915050565b6000819050602082019050919050565b6000610180830160008301516129296000860182612692565b50602083015161293c60208601826126a1565b50604083015161294f6040860182612692565b506060830151848203606086015261296782826126ff565b915050608083015161297c6080860182612692565b5060a083015161298f60a0860182612692565b5060c08301516129a260c0860182612692565b5060e08301516129b560e0860182612692565b506101008301516129ca610100860182612692565b506101208301516129df6101208601826127a0565b506101408301516129f46101408601826127af565b50610160830151612a09610160860182612692565b508091505092915050565b6000612a208383612910565b905092915050565b6000602082019050919050565b6000612a40826128e4565b612a4a81856128ef565b935083602082028501612a5c85612900565b8060005b85811015612a985784840389528151612a798582612a14565b9450612a8483612a28565b925060208a01995050600181019050612a60565b50829750879550505050505092915050565b60006020820190508181036000830152612ac48184612a35565b905092915050565b600080600060608486031215612ae557612ae4612105565b5b6000612af386828701612130565b9350506020612b0486828701612650565b9250506040612b1586828701612650565b9150509250925092565b600082825260208201905092915050565b7f6f6e6c7920746865206f776e65722063616e2063616c6c20746869732066756e60008201527f6374696f6e000000000000000000000000000000000000000000000000000000602082015250565b6000612b8c602583612b1f565b9150612b9782612b30565b604082019050919050565b60006020820190508181036000830152612bbb81612b7f565b9050919050565b6000604082019050612bd7600083018561242e565b612be4602083018461242e565b9392505050565b7f43616e206f6e6c7920636c61696d206120706f6c69637920616674657220697460008201527f73206c616e64696e670000000000000000000000000000000000000000000000602082015250565b6000612c47602983612b1f565b9150612c5282612beb565b604082019050919050565b60006020820190508181036000830152612c7681612c3a565b9050919050565b7f54686520706f6c696379207374617475732068617320616c726561647920626560008201527f656e20736574746c65642c206f7220796f75206e65656420746f206d616b652060208201527f6120666f72636520757064617465000000000000000000000000000000000000604082015250565b6000612cff604e83612b1f565b9150612d0a82612c7d565b606082019050919050565b60006020820190508181036000830152612d2e81612cf2565b9050919050565b7f4e487b7100000000000000000000000000000000000000000000000000000000600052602260045260246000fd5b60006002820490506001821680612d7c57607f821691505b60208210811415612d9057612d8f612d35565b5b50919050565b600081905092915050565b60008190508160005260206000209050919050565b60008154612dc381612d64565b612dcd8186612d96565b94506001821660008114612de85760018114612df957612e2c565b60ff19831686528186019350612e2c565b612e0285612da1565b60005b83811015612e2457815481890152600182019150602081019050612e05565b838801955050505b50505092915050565b6000612e418284612db6565b915081905092915050565b6000612e57826126b0565b612e618185612d96565b9350612e718185602086016126cc565b80840191505092915050565b6000612e898284612e4c565b915081905092915050565b7f57726f6e6720666c69676874206e756d6265722070726f766964656400000000600082015250565b6000612eca601c83612b1f565b9150612ed582612e94565b602082019050919050565b60006020820190508181036000830152612ef981612ebd565b9050919050565b6000819050919050565b612f1b612f168261210f565b612f00565b82525050565b6000612f2d8284612f0a565b60208201915081905092915050565b7f57726f6e672064657061727475726520646174652070726f7669646564000000600082015250565b6000612f72601d83612b1f565b9150612f7d82612f3c565b602082019050919050565b60006020820190508181036000830152612fa181612f65565b9050919050565b7f2f74696d657374616d703d000000000000000000000000000000000000000000600082015250565b6000612fde600b83612d96565b9150612fe982612fa8565b600b82019050919050565b60006130008286612db6565b915061300c8285612e4c565b915061301782612fd1565b91506130238284612e4c565b9150819050949350505050565b600061303b826126b0565b6130458185612b1f565b93506130558185602086016126cc565b61305e8161218f565b840191505092915050565b6000819050919050565b6000819050919050565b6000819050919050565b60006130a261309d61309884613069565b61307d565b613073565b9050919050565b6130b281613087565b82525050565b60006080820190506130cd600083018761242e565b81810360208301526130df8186613030565b905081810360408301526130f38185613030565b905061310260608301846130a9565b95945050505050565b60008151905061311a81612462565b92915050565b60006020828403121561313657613135612105565b5b60006131448482850161310b565b91505092915050565b7f746869732066756e6374696f6e2073686f756c642062652063616c6c6564206260008201527f7920466c696768744f7261636c6520636f6e7472616374000000000000000000602082015250565b60006131a9603783612b1f565b91506131b48261314d565b604082019050919050565b600060208201905081810360008301526131d88161319c565b9050919050565b6131e881612458565b82525050565b6000604082019050613203600083018561242e565b61321060208301846131df565b9392505050565b7f4578706972656420646561646c696e652c20706c656173652072657375626d6960008201527f742061207472616e73616374696f6e0000000000000000000000000000000000602082015250565b6000613273602f83612b1f565b915061327e82613217565b604082019050919050565b600060208201905081810360008301526132a281613266565b9050919050565b7f596f75206172652063616c6c696e67207468652077726f6e672070726f64756360008201527f7420636f6e747261637400000000000000000000000000000000000000000000602082015250565b6000613305602a83612b1f565b9150613310826132a9565b604082019050919050565b60006020820190508181036000830152613334816132f8565b9050919050565b7f4e487b7100000000000000000000000000000000000000000000000000000000600052601160045260246000fd5b60006133758261210f565b91506133808361210f565b9250827fffffffffffffffffffffffffffffffffffffffffffffffffffffffffffffffff038211156133b5576133b461333b565b5b828201905092915050565b7f4974277320746f6f20636c6f736520746f20746865206465706172747572652060008201527f74696d652c20796f752063616e6e6f7420627579207468697320706f6c696379602082015250565b600061341c604083612b1f565b9150613427826133c0565b604082019050919050565b6000602082019050818103600083015261344b8161340f565b9050919050565b60006040820190506134676000830185612404565b613474602083018461242e565b9392505050565b7f6e6f20706f6c69637920666f7220746869732075736572000000000000000000600082015250565b60006134b1601783612b1f565b91506134bc8261347b565b602082019050919050565b600060208201905081810360008301526134e0816134a4565b9050919050565b7f4e487b7100000000000000000000000000000000000000000000000000000000600052603260045260246000fd5b60006135218261210f565b91507fffffffffffffffffffffffffffffffffffffffffffffffffffffffffffffffff8214156135545761355361333b565b5b600182019050919050565b7f6f6e6c792063616c6c65642066726f6d2074686520706f6c69637920746f6b6560008201527f6e20636f6e747261637400000000000000000000000000000000000000000000602082015250565b60006135bb602a83612b1f565b91506135c68261355f565b604082019050919050565b600060208201905081810360008301526135ea816135ae565b9050919050565b7f5468652070726576696f7573206f776e65722069732077726f6e670000000000600082015250565b6000613627601b83612b1f565b9150613632826135f1565b602082019050919050565b600060208201905081810360008301526136568161361a565b9050919050565b6000606082019050613672600083018661242e565b61367f602083018561242e565b61368c6040830184612404565b949350505050565b600061369f8261210f565b91506136aa8361210f565b9250817fffffffffffffffffffffffffffffffffffffffffffffffffffffffffffffffff04831182151516156136e3576136e261333b565b5b828202905092915050565b7f4e487b7100000000000000000000000000000000000000000000000000000000600052601260045260246000fd5b60006137288261210f565b91506137338361210f565b925082613743576137426136ee565b5b828204905092915050565b6000608082019050613763600083018761242e565b613770602083018661242e565b61377d604083018561242e565b61378a6060830184612404565b95945050505050565b600082825260208201905092915050565b60006137b08385613793565b93506137bd83858461224c565b6137c68361218f565b840190509392505050565b600060a08201905081810360008301526137ec81888a6137a4565b905081810360208301526138008187613030565b905061380f6040830186612404565b61381c606083018561242e565b613829608083018461242e565b979650505050505050565b600081519050613843816122d7565b92915050565b60006020828403121561385f5761385e612105565b5b600061386d84828501613834565b91505092915050565b7f6e6f742073756666696369656e7420636170616369747920696e20746865206960008201527f6e737572616e636520706f6f6c00000000000000000000000000000000000000602082015250565b60006138d2602d83612b1f565b91506138dd82613876565b604082019050919050565b60006020820190508181036000830152613901816138c5565b905091905056fea2646970667358221220005740018777d3d333a3449f82baf80c14e20f39921b56825b246ce1b27d908b64736f6c63430008090033",
  "immutableReferences": {},
  "source": "// SPDX-License-Identifier: MIT\npragma solidity 0.8.9;\n\nimport \"./interfaces/IInsurancePool.sol\";\nimport \"@chainlink/contracts/src/v0.8/ChainlinkClient.sol\";\nimport \"@openzeppelin/contracts/utils/Strings.sol\";\nimport \"./interfaces/IPolicyToken.sol\";\nimport \"./interfaces/IPolicyFlow.sol\";\nimport \"./interfaces/IFlightOracle.sol\";\nimport \"./interfaces/ISigManager.sol\";\nimport \"./interfaces/IBuyerToken.sol\";\n\n/**\n * @title  PolicyFlow\n * @notice This is the policy flow contract which is responsible for the whole lifecycle of a policy.\n *         Every policy's information are stored in this contract.\n *         A policy will have a unique \"_policyId\":\n *\n *          The total order in this product. Should be equal to its ERC721 tokenId\n *\n *         The main functions of a policy are: newApplication & newClaimRequest.\n *         We use Chainlink in this contract to get the final status of a flight.\n */\ncontract PolicyFlow is ChainlinkClient, IPolicyFlow {\n    /// @notice Using some libraries\n    using Chainlink for Chainlink.Request;\n    using Strings for uint256;\n\n    uint256 constant PRODUCT_ID = 0;\n\n    uint256 public oracleResponse; // A test variable to store the oracle address\n    uint256 fee;\n    string private FLIGHT_STATUS_URL = \"http://39.101.132.228:8000/live/\";\n\n    mapping(bytes32 => uint256) requestList; // requestId => policyId\n    mapping(uint256 => uint256) resultList; // policyId => delay result\n\n    address public owner;\n\n    ISigManager sigManager;\n    IInsurancePool insurancePool;\n    IPolicyToken policyToken;\n    IFlightOracle flightOracle;\n    IBuyerToken buyerToken;\n\n    // Minimum time before departure for applying\n    uint256 public MIN_TIME_BEFORE_DEPARTURE = 24 hours;\n\n    // Parameters about the claim curve\n    uint256 public MAX_PAYOFF = 180 ether;\n    uint256 public DELAY_THRESHOLD_MIN = 30;\n    uint256 public DELAY_THRESHOLD_MAX = 240;\n\n    // Total amount of policies\n    uint256 public Total_Policies;\n\n    mapping(uint256 => PolicyInfo) policyList; // policyId => policyInfo\n\n    mapping(address => uint256[]) userPolicy; // uint256[]: those policyIds of a user\n    mapping(address => uint256) userPolicyCount; // userAddress => user policy amount\n\n    /// @notice Constructor Function\n    constructor(\n        address _insurancePool,\n        address _policyToken,\n        address _sigManager,\n        address _buyerToken\n    ) {\n        // Set owner address\n        owner = msg.sender;\n\n        // Other contracts' interfaces\n        insurancePool = IInsurancePool(_insurancePool);\n        policyToken = IPolicyToken(_policyToken);\n        buyerToken = IBuyerToken(_buyerToken);\n        sigManager = ISigManager(_sigManager);\n\n        // Set oracle parameter\n        fee = 1 * 10**18; // 1 LINK\n    }\n\n    // ----------------------------------------------------------------------------------- //\n    // ************************************ Modifiers ************************************ //\n    // ----------------------------------------------------------------------------------- //\n\n    modifier onlyOwner() {\n        require(msg.sender == owner, \"only the owner can call this function\");\n        _;\n    }\n\n    modifier notZeroAddress() {\n        require(msg.sender != address(0), \"can not use zero address\");\n        _;\n    }\n\n    // ----------------------------------------------------------------------------------- //\n    // ********************************* View Functions ********************************** //\n    // ----------------------------------------------------------------------------------- //\n\n    /**\n     * @notice Returns the address of the LINK token\n     * @dev This is the public implementation for chainlinkTokenAddress, which is\n     *      an internal method of the ChainlinkClient contract\n     */\n    function getChainlinkToken() public view returns (address) {\n        return chainlinkTokenAddress();\n    }\n\n    /**\n     * @notice Show a user's policies (all)\n     * @param _userAddress User's address (buyer)\n     * @return userPolicies User's all policy details\n     */\n    function viewUserPolicy(address _userAddress)\n        public\n        view\n        returns (PolicyInfo[] memory)\n    {\n        require(userPolicyCount[_userAddress] > 0, \"no policy for this user\");\n\n        uint256 policyCount = userPolicyCount[_userAddress];\n\n        PolicyInfo[] memory result = new PolicyInfo[](policyCount);\n\n        for (uint256 i = 0; i < policyCount; i++) {\n            uint256 policyId = userPolicy[_userAddress][i];\n\n            result[i] = policyList[policyId];\n        }\n        return result;\n    }\n\n    /**\n     * @notice Get the policyInfo from its count/order\n     * @param _policyId Total count/order of the policy = NFT tokenId\n     * @return policy A struct of information about this policy\n     */\n    function getPolicyInfoById(uint256 _policyId)\n        public\n        view\n        returns (PolicyInfo memory policy)\n    {\n        policy = policyList[_policyId];\n    }\n\n    /**\n     * @notice Get a user's total policy amount\n     * @param _userAddress User's address\n     * @return policyAmount User's policy amount\n     */\n    function getUserPolicyCount(address _userAddress)\n        public\n        view\n        returns (uint256 policyAmount)\n    {\n        policyAmount = userPolicyCount[_userAddress];\n    }\n\n    /**\n     * @notice Get the policy buyer by policyId\n     * @param _policyId Unique policy Id (uint256)\n     * @return buyerAddress The buyer of this policy\n     */\n    function findPolicyBuyerById(uint256 _policyId)\n        public\n        view\n        returns (address buyerAddress)\n    {\n        buyerAddress = policyList[_policyId].buyerAddress;\n    }\n\n    // ----------------------------------------------------------------------------------- //\n    // ******************************** Setting Functions ******************************** //\n    // ----------------------------------------------------------------------------------- //\n\n    /**\n     * @notice Change the oracle fee\n     * @param _fee New oracle fee\n     */\n    function changeFee(uint256 _fee) external onlyOwner {\n        fee = _fee;\n    }\n\n    /**\n     * @notice Change the max payoff\n     * @param _newMaxPayoff New maxpayoff amount\n     */\n    function changeMaxPayoff(uint256 _newMaxPayoff) external onlyOwner {\n        MAX_PAYOFF = _newMaxPayoff;\n    }\n\n    /**\n     * @notice How long before departure when users can not buy new policies\n     * @param _newMinTime New time set\n     */\n    function changeMinTimeBeforeDeparture(uint256 _newMinTime)\n        external\n        onlyOwner\n    {\n        MIN_TIME_BEFORE_DEPARTURE = _newMinTime;\n    }\n\n    /**\n     * @notice Change the oracle address\n     * @param _oracleAddress New oracle address\n     */\n    function setFlightOracle(address _oracleAddress) external onlyOwner {\n        flightOracle = IFlightOracle(_oracleAddress);\n    }\n\n    /**\n     * @notice Set the new delay threshold used for calculating payoff\n     * @param _thresholdMin New minimum threshold\n     * @param _thresholdMax New maximum threshold\n     */\n    function setDelayThreshold(uint256 _thresholdMin, uint256 _thresholdMax)\n        external\n        onlyOwner\n    {\n        DELAY_THRESHOLD_MIN = _thresholdMin;\n        DELAY_THRESHOLD_MAX = _thresholdMax;\n        emit DelayThresholdSet(_thresholdMin, _thresholdMax);\n    }\n\n    // ----------------------------------------------------------------------------------- //\n    // ********************************** Main Functions ********************************* //\n    // ----------------------------------------------------------------------------------- //\n\n    /**\n     * @notice Buy a new policy application\n     * @dev Get the signature from the backend server\n     * @param _productId ID of the purchased product (0: flightdelay; 1,2,3...: others) (different products)\n     * @param _flightNumber Flight number string (e.g. \"AQ1299\")\n     * @param _premium Premium of this policy (decimals: 18)\n     * @param _departureDate Departure date of this flight (unix timestamp in s, not ms!)\n     * @param _landingDate Landing date of this flight (uinx timestamp in s, not ms!)\n     * @param signature Use web3.eth.sign(hash(data), account) to generate the signature\n     */\n    function newApplication(\n        uint256 _productId,\n        string memory _flightNumber,\n        uint256 _premium,\n        uint256 _departureDate,\n        uint256 _landingDate,\n        uint256 _deadline,\n        bytes calldata signature\n    ) public returns (uint256 _policyId) {\n        require(\n            block.timestamp <= _deadline,\n            \"Expired deadline, please resubmit a transaction\"\n        );\n\n        require(\n            _productId == PRODUCT_ID,\n            \"You are calling the wrong product contract\"\n        );\n\n        require(\n            _departureDate >= block.timestamp + MIN_TIME_BEFORE_DEPARTURE,\n            \"It's too close to the departure time, you cannot buy this policy\"\n        );\n\n        // Should be signed by operators\n        _checkSignature(\n            signature,\n            _flightNumber,\n            msg.sender,\n            _premium,\n            _deadline\n        );\n\n        // Generate the policy\n        uint256 currentPolicyId = Total_Policies;\n        policyList[currentPolicyId] = PolicyInfo(\n            _productId,\n            msg.sender,\n            currentPolicyId,\n            _flightNumber,\n            _premium,\n            MAX_PAYOFF,\n            block.timestamp,\n            _departureDate,\n            _landingDate,\n            PolicyStatus.INI,\n            false,\n            404\n        );\n\n        // Check the policy with the insurance pool status\n        // May be accepted or rejected, if accepted then update the status of insurancePool\n        _policyCheck(_premium, MAX_PAYOFF, msg.sender, currentPolicyId);\n\n        // Give buyer tokens depending on the usd value they spent\n        buyerToken.mint(msg.sender, _premium);\n\n        // Store the policy's total order with userAddress\n        userPolicy[msg.sender].push(Total_Policies);\n\n        // Update the user's policy amount\n        userPolicyCount[msg.sender] += 1;\n\n        // Update total policies\n        Total_Policies += 1;\n\n        emit newPolicyApplication(currentPolicyId, msg.sender);\n\n        return currentPolicyId;\n    }\n\n    /** @notice Make a claim request\n     *  @param _policyId The total order/id of the policy\n     *  @param _flightNumber The flight number\n     *  @param _date The flight departure date\n     *  @param _path Which data in json needs to get\n     *  @param _forceUpdate Owner can force to update\n     */\n    function newClaimRequest(\n        uint256 _policyId,\n        string memory _flightNumber,\n        string memory _date,\n        string memory _path,\n        bool _forceUpdate\n    ) public {\n        // Can not get the result before landing date\n        require(\n            block.timestamp >= policyList[_policyId].landingDate,\n            \"Can only claim a policy after its landing\"\n        );\n\n        // Check if the policy has been settled\n        require(\n            (!policyList[_policyId].isUsed) ||\n                (_forceUpdate && (msg.sender == owner)),\n            \"The policy status has already been settled, or you need to make a force update\"\n        );\n\n        // Check if the flight number is correct\n        require(\n            keccak256(abi.encodePacked(_flightNumber)) ==\n                keccak256(abi.encodePacked(policyList[_policyId].flightNumber)),\n            \"Wrong flight number provided\"\n        );\n\n        // Check if the departure date is correct\n        require(\n            keccak256(abi.encodePacked(_date)) ==\n                keccak256(\n                    abi.encodePacked(policyList[_policyId].departureDate)\n                ),\n            \"Wrong departure date provided\"\n        );\n\n        // Construct the url for oracle\n        string memory _url = string(\n            abi.encodePacked(\n                FLIGHT_STATUS_URL,\n                _flightNumber,\n                \"/timestamp=\",\n                _date\n            )\n        );\n\n        // Start a new oracle request\n        bytes32 requestId = flightOracle.newOracleRequest(fee, _url, _path, 1);\n\n        // Record this request\n        requestList[requestId] = _policyId;\n        policyList[_policyId].isUsed = true;\n    }\n\n    /**\n     * @notice Update information when a policy token's ownership has been transferred\n     * @dev This function is called by the ERC721 contract of PolicyToken\n     * @param _tokenId Token Id of the policy token\n     * @param _oldOwner The initial owner\n     * @param _newOwner The new owner\n     */\n    function policyOwnerTransfer(\n        uint256 _tokenId,\n        address _oldOwner,\n        address _newOwner\n    ) external override {\n        // Check the call is from policy token contract\n        require(\n            msg.sender == address(policyToken),\n            \"only called from the policy token contract\"\n        );\n\n        // Check the previous owner record\n        uint256 policyId = _tokenId;\n        require(\n            _oldOwner == policyList[policyId].buyerAddress,\n            \"The previous owner is wrong\"\n        );\n\n        // Update the new buyer address\n        policyList[policyId].buyerAddress = _newOwner;\n        emit PolicyOwnerTransfer(_tokenId, _newOwner);\n    }\n\n    // ----------------------------------------------------------------------------------- //\n    // ********************************* Oracle Functions ******************************** //\n    // ----------------------------------------------------------------------------------- //\n\n    /**\n     * @notice Do the final settlement, called by FlightOracle contract\n     * @param _requestId Chainlink request id\n     * @param _result Delay result (minutes) given by oracle\n     */\n    function finalSettlement(bytes32 _requestId, uint256 _result) public {\n        // Check if the call is from flight oracle\n        require(\n            msg.sender == address(flightOracle),\n            \"this function should be called by FlightOracle contract\"\n        );\n\n        // Store the oracle response\n        oracleResponse = _result;\n\n        uint256 policyId = requestList[_requestId];\n\n        PolicyInfo storage policy = policyList[policyId];\n        policy.delayResult = _result;\n\n        uint256 premium = policy.premium;\n        address buyerAddress = policy.buyerAddress;\n\n        if (_result == 0) {\n            // 0: on time\n            policyExpired(premium, MAX_PAYOFF, buyerAddress, policyId);\n        } else if (_result <= DELAY_THRESHOLD_MAX) {\n            uint256 real_payoff = calcPayoff(_result);\n            _policyClaimed(premium, real_payoff, buyerAddress, policyId);\n        } else if (_result == 400) {\n            // 400: cancelled\n            _policyClaimed(premium, MAX_PAYOFF, buyerAddress, policyId);\n        } else {\n            policyExpired(premium, MAX_PAYOFF, buyerAddress, policyId);\n        }\n\n        emit FulfilledOracleRequest(policyId, _requestId);\n    }\n\n    // ----------------------------------------------------------------------------------- //\n    // ******************************** Internal Functions ******************************* //\n    // ----------------------------------------------------------------------------------- //\n\n    /**\n     * @notice check the policy and then determine whether we can afford it\n     * @param _payoff the payoff of the policy sold\n     * @param _userAddress user's address\n     * @param _policyId the unique policy ID\n     */\n    function _policyCheck(\n        uint256 _premium,\n        uint256 _payoff,\n        address _userAddress,\n        uint256 _policyId\n    ) internal {\n        // Whether there are enough capacity in the pool\n        bool _isAccepted = insurancePool.checkCapacity(_payoff);\n\n        if (_isAccepted) {\n            insurancePool.updateWhenBuy(_premium, _payoff, _userAddress);\n            policyList[_policyId].status = PolicyStatus.SOLD;\n            emit PolicySold(_policyId, _userAddress);\n\n            policyToken.mintPolicyToken(_userAddress);\n        } else {\n            policyList[_policyId].status = PolicyStatus.DECLINED;\n            emit PolicyDeclined(_policyId, _userAddress);\n            revert(\"not sufficient capacity in the insurance pool\");\n        }\n    }\n\n    /**\n     * @notice update the policy when it is expired\n     * @param _premium the premium of the policy sold\n     * @param _payoff the payoff of the policy sold\n     * @param _userAddress user's address\n     * @param _policyId the unique policy ID\n     */\n    function policyExpired(\n        uint256 _premium,\n        uint256 _payoff,\n        address _userAddress,\n        uint256 _policyId\n    ) internal {\n        insurancePool.updateWhenExpire(_premium, _payoff, _userAddress);\n        policyList[_policyId].status = PolicyStatus.EXPIRED;\n        emit PolicyExpired(_policyId, _userAddress);\n    }\n\n    /**\n     * @notice Update the policy when it is claimed\n     * @param _premium Premium of the policy sold\n     * @param _payoff Payoff of the policy sold\n     * @param _userAddress User's address\n     * @param _policyId The unique policy ID\n     */\n    function _policyClaimed(\n        uint256 _premium,\n        uint256 _payoff,\n        address _userAddress,\n        uint256 _policyId\n    ) internal {\n        insurancePool.payClaim(_premium, MAX_PAYOFF, _payoff, _userAddress);\n        policyList[_policyId].status = PolicyStatus.CLAIMED;\n        emit PolicyClaimed(_policyId, _userAddress);\n    }\n\n    /**\n     * @notice The payoff formula\n     * @param _delay Delay in minutes\n     * @return the final payoff volume\n     */\n    function calcPayoff(uint256 _delay) internal view returns (uint256) {\n        uint256 payoff = 0;\n\n        // payoff model 1 - linear\n        if (_delay <= DELAY_THRESHOLD_MIN) {\n            payoff = 0;\n        } else if (\n            _delay > DELAY_THRESHOLD_MIN && _delay <= DELAY_THRESHOLD_MAX\n        ) {\n            payoff = (_delay * _delay) / 480;\n        } else if (_delay > DELAY_THRESHOLD_MAX) {\n            payoff = MAX_PAYOFF;\n        }\n\n        payoff = payoff * 1e18;\n        return payoff;\n    }\n\n    /**\n     * @notice Check whether the signature is valid\n     * @param signature 65 byte array: [[v (1)], [r (32)], [s (32)]]\n     * @param _flightNumber Flight number\n     * @param _address userAddress\n     * @param _premium Premium of the policy\n     * @param _deadline Deadline of the application\n     */\n    function _checkSignature(\n        bytes calldata signature,\n        string memory _flightNumber,\n        address _address,\n        uint256 _premium,\n        uint256 _deadline\n    ) internal view {\n        sigManager.checkSignature(\n            signature,\n            _flightNumber,\n            _address,\n            _premium,\n            _deadline\n        );\n    }\n}\n",
  "sourcePath": "/Volumes/Store/src/Degis-Contracts-1/contracts/PolicyFlow.sol",
  "compiler": {
    "name": "solc",
    "version": "0.8.9+commit.e5eed63a.Emscripten.clang"
  },
  "schemaVersion": "3.4.3",
  "updatedAt": "2021-11-29T11:46:59.684Z",
  "networkType": "ethereum",
  "devdoc": {
    "kind": "dev",
    "methods": {
      "changeFee(uint256)": {
        "params": {
          "_fee": "New oracle fee"
        }
      },
      "changeMaxPayoff(uint256)": {
        "params": {
          "_newMaxPayoff": "New maxpayoff amount"
        }
      },
      "changeMinTimeBeforeDeparture(uint256)": {
        "params": {
          "_newMinTime": "New time set"
        }
      },
      "finalSettlement(bytes32,uint256)": {
        "params": {
          "_requestId": "Chainlink request id",
          "_result": "Delay result (minutes) given by oracle"
        }
      },
      "findPolicyBuyerById(uint256)": {
        "params": {
          "_policyId": "Unique policy Id (uint256)"
        },
        "returns": {
          "buyerAddress": "The buyer of this policy"
        }
      },
      "getChainlinkToken()": {
        "details": "This is the public implementation for chainlinkTokenAddress, which is      an internal method of the ChainlinkClient contract"
      },
      "getPolicyInfoById(uint256)": {
        "params": {
          "_policyId": "Total count/order of the policy = NFT tokenId"
        },
        "returns": {
          "policy": "A struct of information about this policy"
        }
      },
      "getUserPolicyCount(address)": {
        "params": {
          "_userAddress": "User's address"
        },
        "returns": {
          "policyAmount": "User's policy amount"
        }
      },
      "newApplication(uint256,string,uint256,uint256,uint256,uint256,bytes)": {
        "details": "Get the signature from the backend server",
        "params": {
          "_departureDate": "Departure date of this flight (unix timestamp in s, not ms!)",
          "_flightNumber": "Flight number string (e.g. \"AQ1299\")",
          "_landingDate": "Landing date of this flight (uinx timestamp in s, not ms!)",
          "_premium": "Premium of this policy (decimals: 18)",
          "_productId": "ID of the purchased product (0: flightdelay; 1,2,3...: others) (different products)",
          "signature": "Use web3.eth.sign(hash(data), account) to generate the signature"
        }
      },
      "newClaimRequest(uint256,string,string,string,bool)": {
        "params": {
          "_date": "The flight departure date",
          "_flightNumber": "The flight number",
          "_forceUpdate": "Owner can force to update",
          "_path": "Which data in json needs to get",
          "_policyId": "The total order/id of the policy"
        }
      },
      "policyOwnerTransfer(uint256,address,address)": {
        "details": "This function is called by the ERC721 contract of PolicyToken",
        "params": {
          "_newOwner": "The new owner",
          "_oldOwner": "The initial owner",
          "_tokenId": "Token Id of the policy token"
        }
      },
      "setDelayThreshold(uint256,uint256)": {
        "params": {
          "_thresholdMax": "New maximum threshold",
          "_thresholdMin": "New minimum threshold"
        }
      },
      "setFlightOracle(address)": {
        "params": {
          "_oracleAddress": "New oracle address"
        }
      },
      "viewUserPolicy(address)": {
        "params": {
          "_userAddress": "User's address (buyer)"
        },
        "returns": {
          "_0": "userPolicies User's all policy details"
        }
      }
    },
    "title": "PolicyFlow",
    "version": 1
  },
  "userdoc": {
    "events": {
      "newPolicyApplication(uint256,address)": {
        "notice": "Event list"
      }
    },
    "kind": "user",
    "methods": {
      "changeFee(uint256)": {
        "notice": "Change the oracle fee"
      },
      "changeMaxPayoff(uint256)": {
        "notice": "Change the max payoff"
      },
      "changeMinTimeBeforeDeparture(uint256)": {
        "notice": "How long before departure when users can not buy new policies"
      },
      "constructor": {
        "notice": "Constructor Function"
      },
      "finalSettlement(bytes32,uint256)": {
        "notice": "Do the final settlement, called by FlightOracle contract"
      },
      "findPolicyBuyerById(uint256)": {
        "notice": "Get the policy buyer by policyId"
      },
      "getChainlinkToken()": {
        "notice": "Returns the address of the LINK token"
      },
      "getPolicyInfoById(uint256)": {
        "notice": "Get the policyInfo from its count/order"
      },
      "getUserPolicyCount(address)": {
        "notice": "Get a user's total policy amount"
      },
      "newApplication(uint256,string,uint256,uint256,uint256,uint256,bytes)": {
        "notice": "Buy a new policy application"
      },
      "newClaimRequest(uint256,string,string,string,bool)": {
        "notice": "Make a claim request"
      },
      "policyOwnerTransfer(uint256,address,address)": {
        "notice": "Update information when a policy token's ownership has been transferred"
      },
      "setDelayThreshold(uint256,uint256)": {
        "notice": "Set the new delay threshold used for calculating payoff"
      },
      "setFlightOracle(address)": {
        "notice": "Change the oracle address"
      },
      "viewUserPolicy(address)": {
        "notice": "Show a user's policies (all)"
      }
    },
    "notice": "This is the policy flow contract which is responsible for the whole lifecycle of a policy.         Every policy's information are stored in this contract.         A policy will have a unique \"_policyId\":          The total order in this product. Should be equal to its ERC721 tokenId         The main functions of a policy are: newApplication & newClaimRequest.         We use Chainlink in this contract to get the final status of a flight.",
    "version": 1
  }
}