{
  "contractName": "Policy",
  "abi": [
    {
      "inputs": [],
      "stateMutability": "nonpayable",
      "type": "constructor"
    },
    {
      "inputs": [
        {
          "components": [
            {
              "internalType": "uint256",
              "name": "productId",
              "type": "uint256"
            },
            {
              "internalType": "address",
              "name": "buyerAddress",
              "type": "address"
            },
            {
              "internalType": "bytes32",
              "name": "policyId",
              "type": "bytes32"
            },
            {
              "internalType": "uint256",
              "name": "premium",
              "type": "uint256"
            },
            {
              "internalType": "uint256",
              "name": "payoff",
              "type": "uint256"
            },
            {
              "internalType": "uint256",
              "name": "expiryDate",
              "type": "uint256"
            },
            {
              "internalType": "bool",
              "name": "isClaimed",
              "type": "bool"
            }
          ],
          "internalType": "struct Policy.policyInfo",
          "name": "_policy",
          "type": "tuple"
        }
      ],
      "name": "getPolicyProductId",
      "outputs": [
        {
          "internalType": "uint256",
          "name": "",
          "type": "uint256"
        }
      ],
      "stateMutability": "pure",
      "type": "function"
    },
    {
      "inputs": [
        {
          "components": [
            {
              "internalType": "uint256",
              "name": "productId",
              "type": "uint256"
            },
            {
              "internalType": "address",
              "name": "buyerAddress",
              "type": "address"
            },
            {
              "internalType": "bytes32",
              "name": "policyId",
              "type": "bytes32"
            },
            {
              "internalType": "uint256",
              "name": "premium",
              "type": "uint256"
            },
            {
              "internalType": "uint256",
              "name": "payoff",
              "type": "uint256"
            },
            {
              "internalType": "uint256",
              "name": "expiryDate",
              "type": "uint256"
            },
            {
              "internalType": "bool",
              "name": "isClaimed",
              "type": "bool"
            }
          ],
          "internalType": "struct Policy.policyInfo",
          "name": "_policy",
          "type": "tuple"
        }
      ],
      "name": "getPolicyBuyer",
      "outputs": [
        {
          "internalType": "address",
          "name": "",
          "type": "address"
        }
      ],
      "stateMutability": "pure",
      "type": "function"
    },
    {
      "inputs": [
        {
          "components": [
            {
              "internalType": "uint256",
              "name": "productId",
              "type": "uint256"
            },
            {
              "internalType": "address",
              "name": "buyerAddress",
              "type": "address"
            },
            {
              "internalType": "bytes32",
              "name": "policyId",
              "type": "bytes32"
            },
            {
              "internalType": "uint256",
              "name": "premium",
              "type": "uint256"
            },
            {
              "internalType": "uint256",
              "name": "payoff",
              "type": "uint256"
            },
            {
              "internalType": "uint256",
              "name": "expiryDate",
              "type": "uint256"
            },
            {
              "internalType": "bool",
              "name": "isClaimed",
              "type": "bool"
            }
          ],
          "internalType": "struct Policy.policyInfo",
          "name": "_policy",
          "type": "tuple"
        }
      ],
      "name": "getPolicyId",
      "outputs": [
        {
          "internalType": "bytes32",
          "name": "",
          "type": "bytes32"
        }
      ],
      "stateMutability": "pure",
      "type": "function"
    },
    {
      "inputs": [
        {
          "components": [
            {
              "internalType": "uint256",
              "name": "productId",
              "type": "uint256"
            },
            {
              "internalType": "address",
              "name": "buyerAddress",
              "type": "address"
            },
            {
              "internalType": "bytes32",
              "name": "policyId",
              "type": "bytes32"
            },
            {
              "internalType": "uint256",
              "name": "premium",
              "type": "uint256"
            },
            {
              "internalType": "uint256",
              "name": "payoff",
              "type": "uint256"
            },
            {
              "internalType": "uint256",
              "name": "expiryDate",
              "type": "uint256"
            },
            {
              "internalType": "bool",
              "name": "isClaimed",
              "type": "bool"
            }
          ],
          "internalType": "struct Policy.policyInfo",
          "name": "_policy",
          "type": "tuple"
        }
      ],
      "name": "getPolicyExpiryDate",
      "outputs": [
        {
          "internalType": "uint256",
          "name": "",
          "type": "uint256"
        }
      ],
      "stateMutability": "pure",
      "type": "function"
    }
  ],
  "bytecode": "0x608060405234801561001057600080fd5b50610300806100206000396000f3fe608060405234801561001057600080fd5b506004361061004c5760003560e01c806328e4cb4f146100515780637b9f917c14610081578063b1809b51146100b1578063efb3fdb0146100e1575b600080fd5b61006b600480360381019061006691906101b8565b610111565b6040516100789190610248565b60405180910390f35b61009b600480360381019061009691906101b8565b61011f565b6040516100a8919061022d565b60405180910390f35b6100cb60048036038101906100c691906101b8565b61012d565b6040516100d89190610212565b60405180910390f35b6100fb60048036038101906100f691906101b8565b610149565b6040516101089190610248565b60405180910390f35b60008160a001359050919050565b600081604001359050919050565b6000816020016020810190610142919061018b565b9050919050565b600081600001359050919050565b600081359050610166816102b3565b92915050565b600060e08284031215610182576101816102a9565b5b81905092915050565b6000602082840312156101a1576101a06102ae565b5b60006101af84828501610157565b91505092915050565b600060e082840312156101ce576101cd6102ae565b5b60006101dc8482850161016c565b91505092915050565b6101ee81610263565b82525050565b6101fd81610275565b82525050565b61020c8161029f565b82525050565b600060208201905061022760008301846101e5565b92915050565b600060208201905061024260008301846101f4565b92915050565b600060208201905061025d6000830184610203565b92915050565b600061026e8261027f565b9050919050565b6000819050919050565b600073ffffffffffffffffffffffffffffffffffffffff82169050919050565b6000819050919050565b600080fd5b600080fd5b6102bc81610263565b81146102c757600080fd5b5056fea26469706673582212209da48983a845f2c682c56bb4a4ada88ade9ab0a827b7b7630107de2a6ac3e40864736f6c63430008050033",
  "immutableReferences": {},
  "source": "// SPDX-License-Identifier: MIT\r\npragma solidity ^0.8.0;\r\n\r\ncontract Policy {\r\n    struct policyInfo {\r\n        uint256 productId;\r\n        address buyerAddress;\r\n        bytes32 policyId;\r\n        uint256 premium;\r\n        uint256 payoff;\r\n        uint256 expiryDate;\r\n        bool isClaimed;\r\n    }\r\n\r\n    constructor() {}\r\n\r\n    function getPolicyProductId(policyInfo calldata _policy)\r\n        public\r\n        pure\r\n        returns (uint256)\r\n    {\r\n        return _policy.productId;\r\n    }\r\n\r\n    function getPolicyBuyer(policyInfo calldata _policy)\r\n        public\r\n        pure\r\n        returns (address)\r\n    {\r\n        return _policy.buyerAddress;\r\n    }\r\n\r\n    function getPolicyId(policyInfo calldata _policy)\r\n        public\r\n        pure\r\n        returns (bytes32)\r\n    {\r\n        return _policy.policyId;\r\n    }\r\n\r\n    function getPolicyExpiryDate(policyInfo calldata _policy)\r\n        public\r\n        pure\r\n        returns (uint256)\r\n    {\r\n        return _policy.expiryDate;\r\n    }\r\n}\r\n",
  "sourcePath": "D:/src/Degis-Contracts-1/contracts/libraries/Policy.sol",
  "compiler": {
    "name": "solc",
    "version": "0.8.5+commit.a4f2e591.Emscripten.clang"
  },
  "schemaVersion": "3.4.1",
  "updatedAt": "2021-09-02T13:27:10.098Z",
  "devdoc": {
    "kind": "dev",
    "methods": {},
    "version": 1
  },
  "userdoc": {
    "kind": "user",
    "methods": {},
    "version": 1
  }
}