{
  "contractName": "PolicyFlow",
  "abi": [
    {
      "inputs": [
        {
          "internalType": "address",
          "name": "_insurancePool",
          "type": "address"
        },
        {
          "internalType": "address",
          "name": "_policyToken",
          "type": "address"
        },
        {
          "internalType": "address",
          "name": "_sigManager",
          "type": "address"
        },
        {
          "internalType": "address",
          "name": "_buyerToken",
          "type": "address"
        }
      ],
      "stateMutability": "nonpayable",
      "type": "constructor"
    },
    {
      "anonymous": false,
      "inputs": [
        {
          "indexed": true,
          "internalType": "bytes32",
          "name": "id",
          "type": "bytes32"
        }
      ],
      "name": "ChainlinkCancelled",
      "type": "event"
    },
    {
      "anonymous": false,
      "inputs": [
        {
          "indexed": true,
          "internalType": "bytes32",
          "name": "id",
          "type": "bytes32"
        }
      ],
      "name": "ChainlinkFulfilled",
      "type": "event"
    },
    {
      "anonymous": false,
      "inputs": [
        {
          "indexed": true,
          "internalType": "bytes32",
          "name": "id",
          "type": "bytes32"
        }
      ],
      "name": "ChainlinkRequested",
      "type": "event"
    },
    {
      "anonymous": false,
      "inputs": [
        {
          "indexed": false,
          "internalType": "uint256",
          "name": "_thresholdMin",
          "type": "uint256"
        },
        {
          "indexed": false,
          "internalType": "uint256",
          "name": "_thresholdMax",
          "type": "uint256"
        }
      ],
      "name": "DelayThresholdSet",
      "type": "event"
    },
    {
      "anonymous": false,
      "inputs": [
        {
          "indexed": false,
          "internalType": "uint256",
          "name": "_policyId",
          "type": "uint256"
        },
        {
          "indexed": false,
          "internalType": "bytes32",
          "name": "_requestId",
          "type": "bytes32"
        }
      ],
      "name": "FulfilledOracleRequest",
      "type": "event"
    },
    {
      "anonymous": false,
      "inputs": [
        {
          "indexed": false,
          "internalType": "uint256",
          "name": "_policyID",
          "type": "uint256"
        },
        {
          "indexed": true,
          "internalType": "address",
          "name": "_userAddress",
          "type": "address"
        }
      ],
      "name": "PolicyClaimed",
      "type": "event"
    },
    {
      "anonymous": false,
      "inputs": [
        {
          "indexed": false,
          "internalType": "uint256",
          "name": "_policyID",
          "type": "uint256"
        },
        {
          "indexed": true,
          "internalType": "address",
          "name": "_userAddress",
          "type": "address"
        }
      ],
      "name": "PolicyDeclined",
      "type": "event"
    },
    {
      "anonymous": false,
      "inputs": [
        {
          "indexed": false,
          "internalType": "uint256",
          "name": "_policyID",
          "type": "uint256"
        },
        {
          "indexed": true,
          "internalType": "address",
          "name": "_userAddress",
          "type": "address"
        }
      ],
      "name": "PolicyExpired",
      "type": "event"
    },
    {
      "anonymous": false,
      "inputs": [
        {
          "indexed": true,
          "internalType": "uint256",
          "name": "_tokenId",
          "type": "uint256"
        },
        {
          "indexed": false,
          "internalType": "address",
          "name": "_newOwner",
          "type": "address"
        }
      ],
      "name": "PolicyOwnerTransfer",
      "type": "event"
    },
    {
      "anonymous": false,
      "inputs": [
        {
          "indexed": false,
          "internalType": "uint256",
          "name": "_policyID",
          "type": "uint256"
        },
        {
          "indexed": true,
          "internalType": "address",
          "name": "_userAddress",
          "type": "address"
        }
      ],
      "name": "PolicySold",
      "type": "event"
    },
    {
      "anonymous": false,
      "inputs": [
        {
          "indexed": false,
          "internalType": "uint256",
          "name": "_policyID",
          "type": "uint256"
        },
        {
          "indexed": true,
          "internalType": "address",
          "name": "_userAddress",
          "type": "address"
        }
      ],
      "name": "newPolicyApplication",
      "type": "event"
    },
    {
      "inputs": [],
      "name": "DELAY_THRESHOLD_MAX",
      "outputs": [
        {
          "internalType": "uint256",
          "name": "",
          "type": "uint256"
        }
      ],
      "stateMutability": "view",
      "type": "function",
      "constant": true
    },
    {
      "inputs": [],
      "name": "DELAY_THRESHOLD_MIN",
      "outputs": [
        {
          "internalType": "uint256",
          "name": "",
          "type": "uint256"
        }
      ],
      "stateMutability": "view",
      "type": "function",
      "constant": true
    },
    {
      "inputs": [],
      "name": "FLIGHT_STATUS_URL",
      "outputs": [
        {
          "internalType": "string",
          "name": "",
          "type": "string"
        }
      ],
      "stateMutability": "view",
      "type": "function",
      "constant": true
    },
    {
      "inputs": [],
      "name": "MAX_PAYOFF",
      "outputs": [
        {
          "internalType": "uint256",
          "name": "",
          "type": "uint256"
        }
      ],
      "stateMutability": "view",
      "type": "function",
      "constant": true
    },
    {
      "inputs": [],
      "name": "MIN_TIME_BEFORE_DEPARTURE",
      "outputs": [
        {
          "internalType": "uint256",
          "name": "",
          "type": "uint256"
        }
      ],
      "stateMutability": "view",
      "type": "function",
      "constant": true
    },
    {
      "inputs": [],
      "name": "Total_Policies",
      "outputs": [
        {
          "internalType": "uint256",
          "name": "",
          "type": "uint256"
        }
      ],
      "stateMutability": "view",
      "type": "function",
      "constant": true
    },
    {
      "inputs": [],
      "name": "oracleResponse",
      "outputs": [
        {
          "internalType": "uint256",
          "name": "",
          "type": "uint256"
        }
      ],
      "stateMutability": "view",
      "type": "function",
      "constant": true
    },
    {
      "inputs": [],
      "name": "owner",
      "outputs": [
        {
          "internalType": "address",
          "name": "",
          "type": "address"
        }
      ],
      "stateMutability": "view",
      "type": "function",
      "constant": true
    },
    {
      "inputs": [],
      "name": "getChainlinkToken",
      "outputs": [
        {
          "internalType": "address",
          "name": "",
          "type": "address"
        }
      ],
      "stateMutability": "view",
      "type": "function",
      "constant": true
    },
    {
      "inputs": [
        {
          "internalType": "address",
          "name": "_userAddress",
          "type": "address"
        }
      ],
      "name": "viewUserPolicy",
      "outputs": [
        {
          "components": [
            {
              "internalType": "uint256",
              "name": "productId",
              "type": "uint256"
            },
            {
              "internalType": "address",
              "name": "buyerAddress",
              "type": "address"
            },
            {
              "internalType": "uint256",
              "name": "policyId",
              "type": "uint256"
            },
            {
              "internalType": "string",
              "name": "flightNumber",
              "type": "string"
            },
            {
              "internalType": "uint256",
              "name": "premium",
              "type": "uint256"
            },
            {
              "internalType": "uint256",
              "name": "payoff",
              "type": "uint256"
            },
            {
              "internalType": "uint256",
              "name": "purchaseDate",
              "type": "uint256"
            },
            {
              "internalType": "uint256",
              "name": "departureDate",
              "type": "uint256"
            },
            {
              "internalType": "uint256",
              "name": "landingDate",
              "type": "uint256"
            },
            {
              "internalType": "enum IPolicyTypes.PolicyStatus",
              "name": "status",
              "type": "uint8"
            },
            {
              "internalType": "bool",
              "name": "isUsed",
              "type": "bool"
            },
            {
              "internalType": "uint256",
              "name": "delayResult",
              "type": "uint256"
            }
          ],
          "internalType": "struct IPolicyTypes.PolicyInfo[]",
          "name": "",
          "type": "tuple[]"
        }
      ],
      "stateMutability": "view",
      "type": "function",
      "constant": true
    },
    {
      "inputs": [
        {
          "internalType": "uint256",
          "name": "_policyId",
          "type": "uint256"
        }
      ],
      "name": "getPolicyInfoById",
      "outputs": [
        {
          "components": [
            {
              "internalType": "uint256",
              "name": "productId",
              "type": "uint256"
            },
            {
              "internalType": "address",
              "name": "buyerAddress",
              "type": "address"
            },
            {
              "internalType": "uint256",
              "name": "policyId",
              "type": "uint256"
            },
            {
              "internalType": "string",
              "name": "flightNumber",
              "type": "string"
            },
            {
              "internalType": "uint256",
              "name": "premium",
              "type": "uint256"
            },
            {
              "internalType": "uint256",
              "name": "payoff",
              "type": "uint256"
            },
            {
              "internalType": "uint256",
              "name": "purchaseDate",
              "type": "uint256"
            },
            {
              "internalType": "uint256",
              "name": "departureDate",
              "type": "uint256"
            },
            {
              "internalType": "uint256",
              "name": "landingDate",
              "type": "uint256"
            },
            {
              "internalType": "enum IPolicyTypes.PolicyStatus",
              "name": "status",
              "type": "uint8"
            },
            {
              "internalType": "bool",
              "name": "isUsed",
              "type": "bool"
            },
            {
              "internalType": "uint256",
              "name": "delayResult",
              "type": "uint256"
            }
          ],
          "internalType": "struct IPolicyTypes.PolicyInfo",
          "name": "policy",
          "type": "tuple"
        }
      ],
      "stateMutability": "view",
      "type": "function",
      "constant": true
    },
    {
      "inputs": [
        {
          "internalType": "address",
          "name": "_userAddress",
          "type": "address"
        }
      ],
      "name": "getUserPolicyCount",
      "outputs": [
        {
          "internalType": "uint256",
          "name": "policyAmount",
          "type": "uint256"
        }
      ],
      "stateMutability": "view",
      "type": "function",
      "constant": true
    },
    {
      "inputs": [
        {
          "internalType": "uint256",
          "name": "_policyId",
          "type": "uint256"
        }
      ],
      "name": "findPolicyBuyerById",
      "outputs": [
        {
          "internalType": "address",
          "name": "buyerAddress",
          "type": "address"
        }
      ],
      "stateMutability": "view",
      "type": "function",
      "constant": true
    },
    {
      "inputs": [
        {
          "internalType": "uint256",
          "name": "_fee",
          "type": "uint256"
        }
      ],
      "name": "changeFee",
      "outputs": [],
      "stateMutability": "nonpayable",
      "type": "function"
    },
    {
      "inputs": [
        {
          "internalType": "uint256",
          "name": "_newMaxPayoff",
          "type": "uint256"
        }
      ],
      "name": "changeMaxPayoff",
      "outputs": [],
      "stateMutability": "nonpayable",
      "type": "function"
    },
    {
      "inputs": [
        {
          "internalType": "uint256",
          "name": "_newMinTime",
          "type": "uint256"
        }
      ],
      "name": "changeMinTimeBeforeDeparture",
      "outputs": [],
      "stateMutability": "nonpayable",
      "type": "function"
    },
    {
      "inputs": [
        {
          "internalType": "address",
          "name": "_oracleAddress",
          "type": "address"
        }
      ],
      "name": "setFlightOracle",
      "outputs": [],
      "stateMutability": "nonpayable",
      "type": "function"
    },
    {
      "inputs": [
        {
          "internalType": "string",
          "name": "_url",
          "type": "string"
        }
      ],
      "name": "setURL",
      "outputs": [],
      "stateMutability": "nonpayable",
      "type": "function"
    },
    {
      "inputs": [
        {
          "internalType": "uint256",
          "name": "_thresholdMin",
          "type": "uint256"
        },
        {
          "internalType": "uint256",
          "name": "_thresholdMax",
          "type": "uint256"
        }
      ],
      "name": "setDelayThreshold",
      "outputs": [],
      "stateMutability": "nonpayable",
      "type": "function"
    },
    {
      "inputs": [
        {
          "internalType": "uint256",
          "name": "_productId",
          "type": "uint256"
        },
        {
          "internalType": "string",
          "name": "_flightNumber",
          "type": "string"
        },
        {
          "internalType": "uint256",
          "name": "_premium",
          "type": "uint256"
        },
        {
          "internalType": "uint256",
          "name": "_departureDate",
          "type": "uint256"
        },
        {
          "internalType": "uint256",
          "name": "_landingDate",
          "type": "uint256"
        },
        {
          "internalType": "uint256",
          "name": "_deadline",
          "type": "uint256"
        },
        {
          "internalType": "bytes",
          "name": "signature",
          "type": "bytes"
        }
      ],
      "name": "newApplication",
      "outputs": [
        {
          "internalType": "uint256",
          "name": "_policyId",
          "type": "uint256"
        }
      ],
      "stateMutability": "nonpayable",
      "type": "function"
    },
    {
      "inputs": [
        {
          "internalType": "uint256",
          "name": "_policyId",
          "type": "uint256"
        },
        {
          "internalType": "string",
          "name": "_flightNumber",
          "type": "string"
        },
        {
          "internalType": "string",
          "name": "_date",
          "type": "string"
        },
        {
          "internalType": "string",
          "name": "_path",
          "type": "string"
        },
        {
          "internalType": "bool",
          "name": "_forceUpdate",
          "type": "bool"
        }
      ],
      "name": "newClaimRequest",
      "outputs": [],
      "stateMutability": "nonpayable",
      "type": "function"
    },
    {
      "inputs": [
        {
          "internalType": "uint256",
          "name": "_tokenId",
          "type": "uint256"
        },
        {
          "internalType": "address",
          "name": "_oldOwner",
          "type": "address"
        },
        {
          "internalType": "address",
          "name": "_newOwner",
          "type": "address"
        }
      ],
      "name": "policyOwnerTransfer",
      "outputs": [],
      "stateMutability": "nonpayable",
      "type": "function"
    },
    {
      "inputs": [
        {
          "internalType": "bytes32",
          "name": "_requestId",
          "type": "bytes32"
        },
        {
          "internalType": "uint256",
          "name": "_result",
          "type": "uint256"
        }
      ],
      "name": "finalSettlement",
      "outputs": [],
      "stateMutability": "nonpayable",
      "type": "function"
    }
  ],
  "bytecode": "0x608060405260016004556040518060600160405280602981526020016200404460299139600890805190602001906200003a929190620001ea565b50620151806011556809c2007651b2500000601255601e60135560f06014553480156200006657600080fd5b506040516200406d3803806200406d83398181016040528101906200008c919062000304565b33600b60006101000a81548173ffffffffffffffffffffffffffffffffffffffff021916908373ffffffffffffffffffffffffffffffffffffffff16021790555083600d60006101000a81548173ffffffffffffffffffffffffffffffffffffffff021916908373ffffffffffffffffffffffffffffffffffffffff16021790555082600e60006101000a81548173ffffffffffffffffffffffffffffffffffffffff021916908373ffffffffffffffffffffffffffffffffffffffff16021790555080601060006101000a81548173ffffffffffffffffffffffffffffffffffffffff021916908373ffffffffffffffffffffffffffffffffffffffff16021790555081600c60006101000a81548173ffffffffffffffffffffffffffffffffffffffff021916908373ffffffffffffffffffffffffffffffffffffffff16021790555067016345785d8a000060078190555050505050620003db565b828054620001f890620003a5565b90600052602060002090601f0160209004810192826200021c576000855562000268565b82601f106200023757805160ff191683800117855562000268565b8280016001018555821562000268579182015b82811115620002675782518255916020019190600101906200024a565b5b5090506200027791906200027b565b5090565b5b80821115620002965760008160009055506001016200027c565b5090565b600080fd5b600073ffffffffffffffffffffffffffffffffffffffff82169050919050565b6000620002cc826200029f565b9050919050565b620002de81620002bf565b8114620002ea57600080fd5b50565b600081519050620002fe81620002d3565b92915050565b600080600080608085870312156200032157620003206200029a565b5b60006200033187828801620002ed565b94505060206200034487828801620002ed565b93505060406200035787828801620002ed565b92505060606200036a87828801620002ed565b91505092959194509250565b7f4e487b7100000000000000000000000000000000000000000000000000000000600052602260045260246000fd5b60006002820490506001821680620003be57607f821691505b60208210811415620003d557620003d462000376565b5b50919050565b613c5980620003eb6000396000f3fe608060405234801561001057600080fd5b506004361061014d5760003560e01c8063612d7350116100c35780638e34ce351161007c5780638e34ce351461039e5780639180233f146103ba578063a9480a8e146103d8578063b7b357ac146103f4578063be6b824814610412578063e846e797146104305761014d565b8063612d7350146102ca5780636a1db1bf146102e85780636b0edde9146103045780636ce0403c1461033457806377343408146103645780638da5cb5b146103805761014d565b8063214a64a911610115578063214a64a9146101e257806321deab0e146102005780632a138f65146102305780633d21a7d1146102605780634abe553f146102905780635a9274ad146102ae5761014d565b806302d7e85a146101525780630f42fd0b1461016e578063165d35e11461018a5780631774ea45146101a85780631a397db9146101c6575b600080fd5b61016c6004803603810190610167919061230c565b61044c565b005b610188600480360381019061018391906124ca565b610527565b005b6101926108bf565b60405161019f91906125da565b60405180910390f35b6101b06108ce565b6040516101bd9190612604565b60405180910390f35b6101e060048036038101906101db9190612655565b6108d4565b005b6101ea610ac6565b6040516101f79190612604565b60405180910390f35b61021a600480360381019061021591906126f5565b610acc565b6040516102279190612604565b60405180910390f35b61024a600480360381019061024591906127d3565b610f2e565b60405161025791906125da565b60405180910390f35b61027a6004803603810190610275919061282c565b610f6e565b6040516102879190612604565b60405180910390f35b610298610fb7565b6040516102a59190612604565b60405180910390f35b6102c860048036038101906102c391906127d3565b610fbd565b005b6102d2611057565b6040516102df91906128e1565b60405180910390f35b61030260048036038101906102fd91906127d3565b6110e5565b005b61031e600480360381019061031991906127d3565b61117f565b60405161032b9190612af5565b60405180910390f35b61034e6004803603810190610349919061282c565b61133b565b60405161035b9190612cdd565b60405180910390f35b61037e60048036038101906103799190612cff565b6116b0565b005b61038861175a565b60405161039591906125da565b60405180910390f35b6103b860048036038101906103b39190612d48565b611780565b005b6103c261194c565b6040516103cf9190612604565b60405180910390f35b6103f260048036038101906103ed91906127d3565b611952565b005b6103fc6119ec565b6040516104099190612604565b60405180910390f35b61041a6119f2565b6040516104279190612604565b60405180910390f35b61044a6004803603810190610445919061282c565b6119f8565b005b600b60009054906101000a900473ffffffffffffffffffffffffffffffffffffffff1673ffffffffffffffffffffffffffffffffffffffff163373ffffffffffffffffffffffffffffffffffffffff16146104dc576040517f08c379a00000000000000000000000000000000000000000000000000000000081526004016104d390612e0d565b60405180910390fd5b81601381905550806014819055507f144b41cc7d66714023c3afce0dcdcc461920a7807cb3d0fd3c9e137395c7dd4c828260405161051b929190612e2d565b60405180910390a15050565b6016600086815260200190815260200160002060080154421015610580576040517f08c379a000000000000000000000000000000000000000000000000000000000815260040161057790612ec8565b60405180910390fd5b6016600086815260200190815260200160002060090160019054906101000a900460ff16158061060657508080156106055750600b60009054906101000a900473ffffffffffffffffffffffffffffffffffffffff1673ffffffffffffffffffffffffffffffffffffffff163373ffffffffffffffffffffffffffffffffffffffff16145b5b610645576040517f08c379a000000000000000000000000000000000000000000000000000000000815260040161063c90612f80565b60405180910390fd5b6016600086815260200190815260200160002060030160405160200161066b91906130a0565b604051602081830303815290604052805190602001208460405160200161069291906130e8565b60405160208183030381529060405280519060200120146106e8576040517f08c379a00000000000000000000000000000000000000000000000000000000081526004016106df9061314b565b60405180910390fd5b601660008681526020019081526020016000206007015460405160200161070f919061318c565b604051602081830303815290604052805190602001208360405160200161073691906130e8565b604051602081830303815290604052805190602001201461078c576040517f08c379a0000000000000000000000000000000000000000000000000000000008152600401610783906131f3565b60405180910390fd5b6000600885856040516020016107a4939291906132ab565b60405160208183030381529060405290506000600f60009054906101000a900473ffffffffffffffffffffffffffffffffffffffff1673ffffffffffffffffffffffffffffffffffffffff16639a66455f600754848760016040518563ffffffff1660e01b815260040161081b9493929190613341565b602060405180830381600087803b15801561083557600080fd5b505af1158015610849573d6000803e3d6000fd5b505050506040513d601f19601f8201168201806040525081019061086d91906133a9565b905086600960008381526020019081526020016000208190555060016016600089815260200190815260200160002060090160016101000a81548160ff02191690831515021790555050505050505050565b60006108c9611acc565b905090565b60145481565b600f60009054906101000a900473ffffffffffffffffffffffffffffffffffffffff1673ffffffffffffffffffffffffffffffffffffffff163373ffffffffffffffffffffffffffffffffffffffff1614610964576040517f08c379a000000000000000000000000000000000000000000000000000000000815260040161095b90613448565b60405180910390fd5b8060068190555060006009600084815260200190815260200160002054905060006016600083815260200190815260200160002090508281600a018190555060008160040154905060008260010160009054906101000a900473ffffffffffffffffffffffffffffffffffffffff169050601454851115806109e7575061019085145b610a26576040517f08c379a0000000000000000000000000000000000000000000000000000000008152600401610a1d906134da565b60405180910390fd5b6000851415610a4257610a3d826012548387611af6565b610a85565b6014548511610a6a576000610a5686611c1a565b9050610a6483828488611c9c565b50610a84565b610190851415610a8357610a82826012548387611c9c565b5b5b5b7f04e392e4100aa2e88345ae13cf73d14c46a6051119773b79fd108c378a4599e38487604051610ab6929190613509565b60405180910390a1505050505050565b60065481565b600083421115610b11576040517f08c379a0000000000000000000000000000000000000000000000000000000008152600401610b08906135a4565b60405180910390fd5b60008914610b54576040517f08c379a0000000000000000000000000000000000000000000000000000000008152600401610b4b90613636565b60405180910390fd5b60115442610b629190613685565b861015610ba4576040517f08c379a0000000000000000000000000000000000000000000000000000000008152600401610b9b9061374d565b60405180910390fd5b610bb283838a338b89611dc4565b60006015549050604051806101800160405280600081526020013373ffffffffffffffffffffffffffffffffffffffff1681526020018281526020018a8152602001898152602001601254815260200142815260200188815260200187815260200160006004811115610c2857610c2761296b565b5b8152602001600015158152602001610194815250601660008381526020019081526020016000206000820151816000015560208201518160010160006101000a81548173ffffffffffffffffffffffffffffffffffffffff021916908373ffffffffffffffffffffffffffffffffffffffff160217905550604082015181600201556060820151816003019080519060200190610cc6929190612194565b506080820151816004015560a0820151816005015560c0820151816006015560e0820151816007015561010082015181600801556101208201518160090160006101000a81548160ff02191690836004811115610d2657610d2561296b565b5b02179055506101408201518160090160016101000a81548160ff02191690831515021790555061016082015181600a0155905050610d68886012543384611e61565b601060009054906101000a900473ffffffffffffffffffffffffffffffffffffffff1673ffffffffffffffffffffffffffffffffffffffff166340c10f19338a6040518363ffffffff1660e01b8152600401610dc592919061376d565b600060405180830381600087803b158015610ddf57600080fd5b505af1158015610df3573d6000803e3d6000fd5b50505050601760003373ffffffffffffffffffffffffffffffffffffffff1673ffffffffffffffffffffffffffffffffffffffff16815260200190815260200160002060155490806001815401808255809150506001900390600052602060002001600090919091909150556001601860003373ffffffffffffffffffffffffffffffffffffffff1673ffffffffffffffffffffffffffffffffffffffff1681526020019081526020016000206000828254610eaf9190613685565b92505081905550600160156000828254610ec99190613685565b925050819055503373ffffffffffffffffffffffffffffffffffffffff167fdd07f990e7f750f936a88c27e727522494d2741b4d6714871c9c7f557349155b82604051610f169190612604565b60405180910390a28091505098975050505050505050565b60006016600083815260200190815260200160002060010160009054906101000a900473ffffffffffffffffffffffffffffffffffffffff169050919050565b6000601860008373ffffffffffffffffffffffffffffffffffffffff1673ffffffffffffffffffffffffffffffffffffffff168152602001908152602001600020549050919050565b60135481565b600b60009054906101000a900473ffffffffffffffffffffffffffffffffffffffff1673ffffffffffffffffffffffffffffffffffffffff163373ffffffffffffffffffffffffffffffffffffffff161461104d576040517f08c379a000000000000000000000000000000000000000000000000000000000815260040161104490612e0d565b60405180910390fd5b8060118190555050565b6008805461106490612fcf565b80601f016020809104026020016040519081016040528092919081815260200182805461109090612fcf565b80156110dd5780601f106110b2576101008083540402835291602001916110dd565b820191906000526020600020905b8154815290600101906020018083116110c057829003601f168201915b505050505081565b600b60009054906101000a900473ffffffffffffffffffffffffffffffffffffffff1673ffffffffffffffffffffffffffffffffffffffff163373ffffffffffffffffffffffffffffffffffffffff1614611175576040517f08c379a000000000000000000000000000000000000000000000000000000000815260040161116c90612e0d565b60405180910390fd5b8060078190555050565b61118761221a565b6016600083815260200190815260200160002060405180610180016040529081600082015481526020016001820160009054906101000a900473ffffffffffffffffffffffffffffffffffffffff1673ffffffffffffffffffffffffffffffffffffffff1673ffffffffffffffffffffffffffffffffffffffff1681526020016002820154815260200160038201805461122090612fcf565b80601f016020809104026020016040519081016040528092919081815260200182805461124c90612fcf565b80156112995780601f1061126e57610100808354040283529160200191611299565b820191906000526020600020905b81548152906001019060200180831161127c57829003601f168201915b5050505050815260200160048201548152602001600582015481526020016006820154815260200160078201548152602001600882015481526020016009820160009054906101000a900460ff1660048111156112f9576112f861296b565b5b600481111561130b5761130a61296b565b5b81526020016009820160019054906101000a900460ff16151515158152602001600a820154815250509050919050565b60606000601860008473ffffffffffffffffffffffffffffffffffffffff1673ffffffffffffffffffffffffffffffffffffffff16815260200190815260200160002054116113bf576040517f08c379a00000000000000000000000000000000000000000000000000000000081526004016113b6906137e2565b60405180910390fd5b6000601860008473ffffffffffffffffffffffffffffffffffffffff1673ffffffffffffffffffffffffffffffffffffffff16815260200190815260200160002054905060008167ffffffffffffffff81111561141f5761141e612367565b5b60405190808252806020026020018201604052801561145857816020015b61144561221a565b81526020019060019003908161143d5790505b50905060005b828110156116a5576000601760008773ffffffffffffffffffffffffffffffffffffffff1673ffffffffffffffffffffffffffffffffffffffff16815260200190815260200160002082815481106114b9576114b8613802565b5b906000526020600020015490506016600082815260200190815260200160002060405180610180016040529081600082015481526020016001820160009054906101000a900473ffffffffffffffffffffffffffffffffffffffff1673ffffffffffffffffffffffffffffffffffffffff1673ffffffffffffffffffffffffffffffffffffffff1681526020016002820154815260200160038201805461155f90612fcf565b80601f016020809104026020016040519081016040528092919081815260200182805461158b90612fcf565b80156115d85780601f106115ad576101008083540402835291602001916115d8565b820191906000526020600020905b8154815290600101906020018083116115bb57829003601f168201915b5050505050815260200160048201548152602001600582015481526020016006820154815260200160078201548152602001600882015481526020016009820160009054906101000a900460ff1660048111156116385761163761296b565b5b600481111561164a5761164961296b565b5b81526020016009820160019054906101000a900460ff16151515158152602001600a8201548152505083838151811061168657611685613802565b5b602002602001018190525050808061169d90613831565b91505061145e565b508092505050919050565b600b60009054906101000a900473ffffffffffffffffffffffffffffffffffffffff1673ffffffffffffffffffffffffffffffffffffffff163373ffffffffffffffffffffffffffffffffffffffff1614611740576040517f08c379a000000000000000000000000000000000000000000000000000000000815260040161173790612e0d565b60405180910390fd5b8060089080519060200190611756929190612194565b5050565b600b60009054906101000a900473ffffffffffffffffffffffffffffffffffffffff1681565b600e60009054906101000a900473ffffffffffffffffffffffffffffffffffffffff1673ffffffffffffffffffffffffffffffffffffffff163373ffffffffffffffffffffffffffffffffffffffff1614611810576040517f08c379a0000000000000000000000000000000000000000000000000000000008152600401611807906138ec565b60405180910390fd5b60008390506016600082815260200190815260200160002060010160009054906101000a900473ffffffffffffffffffffffffffffffffffffffff1673ffffffffffffffffffffffffffffffffffffffff168373ffffffffffffffffffffffffffffffffffffffff16146118b9576040517f08c379a00000000000000000000000000000000000000000000000000000000081526004016118b090613958565b60405180910390fd5b816016600083815260200190815260200160002060010160006101000a81548173ffffffffffffffffffffffffffffffffffffffff021916908373ffffffffffffffffffffffffffffffffffffffff160217905550837f131013c706ffe7a58a15c6576c2affbfee4aa57a8fc2c179fff9da687da631e68360405161193e91906125da565b60405180910390a250505050565b60125481565b600b60009054906101000a900473ffffffffffffffffffffffffffffffffffffffff1673ffffffffffffffffffffffffffffffffffffffff163373ffffffffffffffffffffffffffffffffffffffff16146119e2576040517f08c379a00000000000000000000000000000000000000000000000000000000081526004016119d990612e0d565b60405180910390fd5b8060128190555050565b60115481565b60155481565b600b60009054906101000a900473ffffffffffffffffffffffffffffffffffffffff1673ffffffffffffffffffffffffffffffffffffffff163373ffffffffffffffffffffffffffffffffffffffff1614611a88576040517f08c379a0000000000000000000000000000000000000000000000000000000008152600401611a7f90612e0d565b60405180910390fd5b80600f60006101000a81548173ffffffffffffffffffffffffffffffffffffffff021916908373ffffffffffffffffffffffffffffffffffffffff16021790555050565b6000600260009054906101000a900473ffffffffffffffffffffffffffffffffffffffff16905090565b600d60009054906101000a900473ffffffffffffffffffffffffffffffffffffffff1673ffffffffffffffffffffffffffffffffffffffff16639e2e28b58585856040518463ffffffff1660e01b8152600401611b5593929190613978565b600060405180830381600087803b158015611b6f57600080fd5b505af1158015611b83573d6000803e3d6000fd5b5050505060036016600083815260200190815260200160002060090160006101000a81548160ff02191690836004811115611bc157611bc061296b565b5b02179055508173ffffffffffffffffffffffffffffffffffffffff167f5e2aa8ed921638d802aff01815dcc364f11bd867646ee35cef988a928aa08aba82604051611c0c9190612604565b60405180910390a250505050565b600080600090506013548311611c335760009050611c7d565b60135483118015611c4657506014548311155b15611c6b576101e08384611c5a91906139af565b611c649190613a38565b9050611c7c565b601454831115611c7b5760125490505b5b5b670de0b6b3a764000081611c9191906139af565b905080915050919050565b600d60009054906101000a900473ffffffffffffffffffffffffffffffffffffffff1673ffffffffffffffffffffffffffffffffffffffff1663942465ed8560125486866040518563ffffffff1660e01b8152600401611cff9493929190613a69565b600060405180830381600087803b158015611d1957600080fd5b505af1158015611d2d573d6000803e3d6000fd5b5050505060046016600083815260200190815260200160002060090160006101000a81548160ff02191690836004811115611d6b57611d6a61296b565b5b02179055508173ffffffffffffffffffffffffffffffffffffffff167fc7ec6d9a759e329b525c568d4a31eadfd4d47a50a11498317356b63536972cff82604051611db69190612604565b60405180910390a250505050565b600c60009054906101000a900473ffffffffffffffffffffffffffffffffffffffff1673ffffffffffffffffffffffffffffffffffffffff16633dc039c38787878787876040518763ffffffff1660e01b8152600401611e2996959493929190613aec565b60006040518083038186803b158015611e4157600080fd5b505afa158015611e55573d6000803e3d6000fd5b50505050505050505050565b6000600d60009054906101000a900473ffffffffffffffffffffffffffffffffffffffff1673ffffffffffffffffffffffffffffffffffffffff166216bd78856040518263ffffffff1660e01b8152600401611ebd9190612604565b60206040518083038186803b158015611ed557600080fd5b505afa158015611ee9573d6000803e3d6000fd5b505050506040513d601f19601f82011682018060405250810190611f0d9190613b64565b905080156120c557600d60009054906101000a900473ffffffffffffffffffffffffffffffffffffffff1673ffffffffffffffffffffffffffffffffffffffff1663bf131f4b8686866040518463ffffffff1660e01b8152600401611f7493929190613978565b600060405180830381600087803b158015611f8e57600080fd5b505af1158015611fa2573d6000803e3d6000fd5b5050505060016016600084815260200190815260200160002060090160006101000a81548160ff02191690836004811115611fe057611fdf61296b565b5b02179055508273ffffffffffffffffffffffffffffffffffffffff167f18c8463e3f8b620eda107b8496632f42c285e0e2dbe36214aef29a7570c98db78360405161202b9190612604565b60405180910390a2600e60009054906101000a900473ffffffffffffffffffffffffffffffffffffffff1673ffffffffffffffffffffffffffffffffffffffff1663b918e5e2846040518263ffffffff1660e01b815260040161208e91906125da565b600060405180830381600087803b1580156120a857600080fd5b505af11580156120bc573d6000803e3d6000fd5b5050505061218d565b60026016600084815260200190815260200160002060090160006101000a81548160ff021916908360048111156120ff576120fe61296b565b5b02179055508273ffffffffffffffffffffffffffffffffffffffff167f2f0c3a9cdf52dc1569c8661ae34313def97a77776bbc9e85ca130c0bafca4ab48360405161214a9190612604565b60405180910390a26040517f08c379a000000000000000000000000000000000000000000000000000000000815260040161218490613c03565b60405180910390fd5b5050505050565b8280546121a090612fcf565b90600052602060002090601f0160209004810192826121c25760008555612209565b82601f106121db57805160ff1916838001178555612209565b82800160010185558215612209579182015b828111156122085782518255916020019190600101906121ed565b5b50905061221691906122a5565b5090565b60405180610180016040528060008152602001600073ffffffffffffffffffffffffffffffffffffffff168152602001600081526020016060815260200160008152602001600081526020016000815260200160008152602001600081526020016000600481111561228f5761228e61296b565b5b8152602001600015158152602001600081525090565b5b808211156122be5760008160009055506001016122a6565b5090565b6000604051905090565b600080fd5b600080fd5b6000819050919050565b6122e9816122d6565b81146122f457600080fd5b50565b600081359050612306816122e0565b92915050565b60008060408385031215612323576123226122cc565b5b6000612331858286016122f7565b9250506020612342858286016122f7565b9150509250929050565b600080fd5b600080fd5b6000601f19601f8301169050919050565b7f4e487b7100000000000000000000000000000000000000000000000000000000600052604160045260246000fd5b61239f82612356565b810181811067ffffffffffffffff821117156123be576123bd612367565b5b80604052505050565b60006123d16122c2565b90506123dd8282612396565b919050565b600067ffffffffffffffff8211156123fd576123fc612367565b5b61240682612356565b9050602081019050919050565b82818337600083830152505050565b6000612435612430846123e2565b6123c7565b90508281526020810184848401111561245157612450612351565b5b61245c848285612413565b509392505050565b600082601f8301126124795761247861234c565b5b8135612489848260208601612422565b91505092915050565b60008115159050919050565b6124a781612492565b81146124b257600080fd5b50565b6000813590506124c48161249e565b92915050565b600080600080600060a086880312156124e6576124e56122cc565b5b60006124f4888289016122f7565b955050602086013567ffffffffffffffff811115612515576125146122d1565b5b61252188828901612464565b945050604086013567ffffffffffffffff811115612542576125416122d1565b5b61254e88828901612464565b935050606086013567ffffffffffffffff81111561256f5761256e6122d1565b5b61257b88828901612464565b925050608061258c888289016124b5565b9150509295509295909350565b600073ffffffffffffffffffffffffffffffffffffffff82169050919050565b60006125c482612599565b9050919050565b6125d4816125b9565b82525050565b60006020820190506125ef60008301846125cb565b92915050565b6125fe816122d6565b82525050565b600060208201905061261960008301846125f5565b92915050565b6000819050919050565b6126328161261f565b811461263d57600080fd5b50565b60008135905061264f81612629565b92915050565b6000806040838503121561266c5761266b6122cc565b5b600061267a85828601612640565b925050602061268b858286016122f7565b9150509250929050565b600080fd5b600080fd5b60008083601f8401126126b5576126b461234c565b5b8235905067ffffffffffffffff8111156126d2576126d1612695565b5b6020830191508360018202830111156126ee576126ed61269a565b5b9250929050565b60008060008060008060008060e0898b031215612715576127146122cc565b5b60006127238b828c016122f7565b985050602089013567ffffffffffffffff811115612744576127436122d1565b5b6127508b828c01612464565b97505060406127618b828c016122f7565b96505060606127728b828c016122f7565b95505060806127838b828c016122f7565b94505060a06127948b828c016122f7565b93505060c089013567ffffffffffffffff8111156127b5576127b46122d1565b5b6127c18b828c0161269f565b92509250509295985092959890939650565b6000602082840312156127e9576127e86122cc565b5b60006127f7848285016122f7565b91505092915050565b612809816125b9565b811461281457600080fd5b50565b60008135905061282681612800565b92915050565b600060208284031215612842576128416122cc565b5b600061285084828501612817565b91505092915050565b600081519050919050565b600082825260208201905092915050565b60005b83811015612893578082015181840152602081019050612878565b838111156128a2576000848401525b50505050565b60006128b382612859565b6128bd8185612864565b93506128cd818560208601612875565b6128d681612356565b840191505092915050565b600060208201905081810360008301526128fb81846128a8565b905092915050565b61290c816122d6565b82525050565b61291b816125b9565b82525050565b600082825260208201905092915050565b600061293d82612859565b6129478185612921565b9350612957818560208601612875565b61296081612356565b840191505092915050565b7f4e487b7100000000000000000000000000000000000000000000000000000000600052602160045260246000fd5b600581106129ab576129aa61296b565b5b50565b60008190506129bc8261299a565b919050565b60006129cc826129ae565b9050919050565b6129dc816129c1565b82525050565b6129eb81612492565b82525050565b600061018083016000830151612a0a6000860182612903565b506020830151612a1d6020860182612912565b506040830151612a306040860182612903565b5060608301518482036060860152612a488282612932565b9150506080830151612a5d6080860182612903565b5060a0830151612a7060a0860182612903565b5060c0830151612a8360c0860182612903565b5060e0830151612a9660e0860182612903565b50610100830151612aab610100860182612903565b50610120830151612ac06101208601826129d3565b50610140830151612ad56101408601826129e2565b50610160830151612aea610160860182612903565b508091505092915050565b60006020820190508181036000830152612b0f81846129f1565b905092915050565b600081519050919050565b600082825260208201905092915050565b6000819050602082019050919050565b600061018083016000830151612b5c6000860182612903565b506020830151612b6f6020860182612912565b506040830151612b826040860182612903565b5060608301518482036060860152612b9a8282612932565b9150506080830151612baf6080860182612903565b5060a0830151612bc260a0860182612903565b5060c0830151612bd560c0860182612903565b5060e0830151612be860e0860182612903565b50610100830151612bfd610100860182612903565b50610120830151612c126101208601826129d3565b50610140830151612c276101408601826129e2565b50610160830151612c3c610160860182612903565b508091505092915050565b6000612c538383612b43565b905092915050565b6000602082019050919050565b6000612c7382612b17565b612c7d8185612b22565b935083602082028501612c8f85612b33565b8060005b85811015612ccb5784840389528151612cac8582612c47565b9450612cb783612c5b565b925060208a01995050600181019050612c93565b50829750879550505050505092915050565b60006020820190508181036000830152612cf78184612c68565b905092915050565b600060208284031215612d1557612d146122cc565b5b600082013567ffffffffffffffff811115612d3357612d326122d1565b5b612d3f84828501612464565b91505092915050565b600080600060608486031215612d6157612d606122cc565b5b6000612d6f868287016122f7565b9350506020612d8086828701612817565b9250506040612d9186828701612817565b9150509250925092565b7f6f6e6c7920746865206f776e65722063616e2063616c6c20746869732066756e60008201527f6374696f6e000000000000000000000000000000000000000000000000000000602082015250565b6000612df7602583612864565b9150612e0282612d9b565b604082019050919050565b60006020820190508181036000830152612e2681612dea565b9050919050565b6000604082019050612e4260008301856125f5565b612e4f60208301846125f5565b9392505050565b7f43616e206f6e6c7920636c61696d206120706f6c69637920616674657220697460008201527f73206c616e64696e670000000000000000000000000000000000000000000000602082015250565b6000612eb2602983612864565b9150612ebd82612e56565b604082019050919050565b60006020820190508181036000830152612ee181612ea5565b9050919050565b7f54686520706f6c696379207374617475732068617320616c726561647920626560008201527f656e20736574746c65642c206f7220796f75206e65656420746f206d616b652060208201527f6120666f72636520757064617465000000000000000000000000000000000000604082015250565b6000612f6a604e83612864565b9150612f7582612ee8565b606082019050919050565b60006020820190508181036000830152612f9981612f5d565b9050919050565b7f4e487b7100000000000000000000000000000000000000000000000000000000600052602260045260246000fd5b60006002820490506001821680612fe757607f821691505b60208210811415612ffb57612ffa612fa0565b5b50919050565b600081905092915050565b60008190508160005260206000209050919050565b6000815461302e81612fcf565b6130388186613001565b94506001821660008114613053576001811461306457613097565b60ff19831686528186019350613097565b61306d8561300c565b60005b8381101561308f57815481890152600182019150602081019050613070565b838801955050505b50505092915050565b60006130ac8284613021565b915081905092915050565b60006130c282612859565b6130cc8185613001565b93506130dc818560208601612875565b80840191505092915050565b60006130f482846130b7565b915081905092915050565b7f57726f6e6720666c69676874206e756d6265722070726f766964656400000000600082015250565b6000613135601c83612864565b9150613140826130ff565b602082019050919050565b6000602082019050818103600083015261316481613128565b9050919050565b6000819050919050565b613186613181826122d6565b61316b565b82525050565b60006131988284613175565b60208201915081905092915050565b7f57726f6e672064657061727475726520646174652070726f7669646564000000600082015250565b60006131dd601d83612864565b91506131e8826131a7565b602082019050919050565b6000602082019050818103600083015261320c816131d0565b9050919050565b7f666c696768745f6e6f3d00000000000000000000000000000000000000000000600082015250565b6000613249600a83613001565b915061325482613213565b600a82019050919050565b7f2674696d657374616d703d000000000000000000000000000000000000000000600082015250565b6000613295600b83613001565b91506132a08261325f565b600b82019050919050565b60006132b78286613021565b91506132c28261323c565b91506132ce82856130b7565b91506132d982613288565b91506132e582846130b7565b9150819050949350505050565b6000819050919050565b6000819050919050565b6000819050919050565b600061332b613326613321846132f2565b613306565b6132fc565b9050919050565b61333b81613310565b82525050565b600060808201905061335660008301876125f5565b818103602083015261336881866128a8565b9050818103604083015261337c81856128a8565b905061338b6060830184613332565b95945050505050565b6000815190506133a381612629565b92915050565b6000602082840312156133bf576133be6122cc565b5b60006133cd84828501613394565b91505092915050565b7f746869732066756e6374696f6e2073686f756c642062652063616c6c6564206260008201527f7920466c696768744f7261636c6520636f6e7472616374000000000000000000602082015250565b6000613432603783612864565b915061343d826133d6565b604082019050919050565b6000602082019050818103600083015261346181613425565b9050919050565b7f41626e6f726d616c206f7261636c6520726573756c742c20726573756c74207360008201527f686f756c64206265205b30202d203234305d206f722034303000000000000000602082015250565b60006134c4603983612864565b91506134cf82613468565b604082019050919050565b600060208201905081810360008301526134f3816134b7565b9050919050565b6135038161261f565b82525050565b600060408201905061351e60008301856125f5565b61352b60208301846134fa565b9392505050565b7f4578706972656420646561646c696e652c20706c656173652072657375626d6960008201527f742061207472616e73616374696f6e0000000000000000000000000000000000602082015250565b600061358e602f83612864565b915061359982613532565b604082019050919050565b600060208201905081810360008301526135bd81613581565b9050919050565b7f596f75206172652063616c6c696e67207468652077726f6e672070726f64756360008201527f7420636f6e747261637400000000000000000000000000000000000000000000602082015250565b6000613620602a83612864565b915061362b826135c4565b604082019050919050565b6000602082019050818103600083015261364f81613613565b9050919050565b7f4e487b7100000000000000000000000000000000000000000000000000000000600052601160045260246000fd5b6000613690826122d6565b915061369b836122d6565b9250827fffffffffffffffffffffffffffffffffffffffffffffffffffffffffffffffff038211156136d0576136cf613656565b5b828201905092915050565b7f4974277320746f6f20636c6f736520746f20746865206465706172747572652060008201527f74696d652c20796f752063616e6e6f7420627579207468697320706f6c696379602082015250565b6000613737604083612864565b9150613742826136db565b604082019050919050565b600060208201905081810360008301526137668161372a565b9050919050565b600060408201905061378260008301856125cb565b61378f60208301846125f5565b9392505050565b7f6e6f20706f6c69637920666f7220746869732075736572000000000000000000600082015250565b60006137cc601783612864565b91506137d782613796565b602082019050919050565b600060208201905081810360008301526137fb816137bf565b9050919050565b7f4e487b7100000000000000000000000000000000000000000000000000000000600052603260045260246000fd5b600061383c826122d6565b91507fffffffffffffffffffffffffffffffffffffffffffffffffffffffffffffffff82141561386f5761386e613656565b5b600182019050919050565b7f6f6e6c792063616c6c65642066726f6d2074686520706f6c69637920746f6b6560008201527f6e20636f6e747261637400000000000000000000000000000000000000000000602082015250565b60006138d6602a83612864565b91506138e18261387a565b604082019050919050565b60006020820190508181036000830152613905816138c9565b9050919050565b7f5468652070726576696f7573206f776e65722069732077726f6e670000000000600082015250565b6000613942601b83612864565b915061394d8261390c565b602082019050919050565b6000602082019050818103600083015261397181613935565b9050919050565b600060608201905061398d60008301866125f5565b61399a60208301856125f5565b6139a760408301846125cb565b949350505050565b60006139ba826122d6565b91506139c5836122d6565b9250817fffffffffffffffffffffffffffffffffffffffffffffffffffffffffffffffff04831182151516156139fe576139fd613656565b5b828202905092915050565b7f4e487b7100000000000000000000000000000000000000000000000000000000600052601260045260246000fd5b6000613a43826122d6565b9150613a4e836122d6565b925082613a5e57613a5d613a09565b5b828204905092915050565b6000608082019050613a7e60008301876125f5565b613a8b60208301866125f5565b613a9860408301856125f5565b613aa560608301846125cb565b95945050505050565b600082825260208201905092915050565b6000613acb8385613aae565b9350613ad8838584612413565b613ae183612356565b840190509392505050565b600060a0820190508181036000830152613b0781888a613abf565b90508181036020830152613b1b81876128a8565b9050613b2a60408301866125cb565b613b3760608301856125f5565b613b4460808301846125f5565b979650505050505050565b600081519050613b5e8161249e565b92915050565b600060208284031215613b7a57613b796122cc565b5b6000613b8884828501613b4f565b91505092915050565b7f6e6f742073756666696369656e7420636170616369747920696e20746865206960008201527f6e737572616e636520706f6f6c00000000000000000000000000000000000000602082015250565b6000613bed602d83612864565b9150613bf882613b91565b604082019050919050565b60006020820190508181036000830152613c1c81613be0565b905091905056fea264697066735822122005cc965edba116d820e17a4a9e89a3afd3821eba9893cf6b5a529d281dd6cd7d64736f6c6343000809003368747470733a2f2f31382e3136332e3235342e35303a333230372f666c696768745f7374617475733f",
  "immutableReferences": {},
  "source": "// SPDX-License-Identifier: MIT\npragma solidity 0.8.9;\n\nimport \"./interfaces/IInsurancePool.sol\";\nimport \"@chainlink/contracts/src/v0.8/ChainlinkClient.sol\";\nimport \"@openzeppelin/contracts/utils/Strings.sol\";\nimport \"./interfaces/IFDPolicyToken.sol\";\nimport \"./interfaces/IPolicyFlow.sol\";\nimport \"./interfaces/IFlightOracle.sol\";\nimport \"./interfaces/ISigManager.sol\";\nimport \"./interfaces/IBuyerToken.sol\";\n\n/**\n * @title  PolicyFlow\n * @notice This is the policy flow contract which is responsible for the whole lifecycle of a policy.\n *         Every policy's information are stored in this contract.\n *         A policy will have a unique \"_policyId\":\n *\n *          The total order in this product. Should be equal to its ERC721 tokenId\n *\n *         The main functions of a policy are: newApplication & newClaimRequest.\n *         We use Chainlink in this contract to get the final status of a flight.\n */\ncontract PolicyFlow is ChainlinkClient, IPolicyFlow {\n    /// @notice Using some libraries\n    using Chainlink for Chainlink.Request;\n    using Strings for uint256;\n\n    uint256 constant PRODUCT_ID = 0;\n\n    uint256 public oracleResponse; // A test variable to store the oracle address\n\n    uint256 fee;\n    string public FLIGHT_STATUS_URL =\n        \"https://18.163.254.50:3207/flight_status?\";\n\n    mapping(bytes32 => uint256) requestList; // requestId => policyId\n    mapping(uint256 => uint256) resultList; // policyId => delay result\n\n    address public owner;\n\n    ISigManager sigManager;\n    IInsurancePool insurancePool;\n    IFDPolicyToken policyToken;\n    IFlightOracle flightOracle;\n    IBuyerToken buyerToken;\n\n    // Minimum time before departure for applying\n    uint256 public MIN_TIME_BEFORE_DEPARTURE = 24 hours;\n\n    // Parameters about the claim curve\n    uint256 public MAX_PAYOFF = 180 ether;\n    uint256 public DELAY_THRESHOLD_MIN = 30;\n    uint256 public DELAY_THRESHOLD_MAX = 240;\n\n    // Total amount of policies\n    uint256 public Total_Policies;\n\n    mapping(uint256 => PolicyInfo) policyList; // policyId => policyInfo\n\n    mapping(address => uint256[]) userPolicy; // uint256[]: those policyIds of a user\n    mapping(address => uint256) userPolicyCount; // userAddress => user policy amount\n\n    /// @notice Constructor Function\n    constructor(\n        address _insurancePool,\n        address _policyToken,\n        address _sigManager,\n        address _buyerToken\n    ) {\n        // Set owner address\n        owner = msg.sender;\n\n        // Other contracts' interfaces\n        insurancePool = IInsurancePool(_insurancePool);\n        policyToken = IFDPolicyToken(_policyToken);\n        buyerToken = IBuyerToken(_buyerToken);\n        sigManager = ISigManager(_sigManager);\n\n        // Set oracle parameter\n        fee = 1e17; // 0.1 LINK\n    }\n\n    // ----------------------------------------------------------------------------------- //\n    // ************************************ Modifiers ************************************ //\n    // ----------------------------------------------------------------------------------- //\n\n    modifier onlyOwner() {\n        require(msg.sender == owner, \"only the owner can call this function\");\n        _;\n    }\n\n    modifier notZeroAddress() {\n        require(msg.sender != address(0), \"can not use zero address\");\n        _;\n    }\n\n    // ----------------------------------------------------------------------------------- //\n    // ********************************* View Functions ********************************** //\n    // ----------------------------------------------------------------------------------- //\n\n    /**\n     * @notice Returns the address of the LINK token\n     * @dev This is the public implementation for chainlinkTokenAddress, which is\n     *      an internal method of the ChainlinkClient contract\n     */\n    function getChainlinkToken() public view returns (address) {\n        return chainlinkTokenAddress();\n    }\n\n    /**\n     * @notice Show a user's policies (all)\n     * @param _userAddress User's address (buyer)\n     * @return userPolicies User's all policy details\n     */\n    function viewUserPolicy(address _userAddress)\n        public\n        view\n        returns (PolicyInfo[] memory)\n    {\n        require(userPolicyCount[_userAddress] > 0, \"no policy for this user\");\n\n        uint256 policyCount = userPolicyCount[_userAddress];\n\n        PolicyInfo[] memory result = new PolicyInfo[](policyCount);\n\n        for (uint256 i = 0; i < policyCount; i++) {\n            uint256 policyId = userPolicy[_userAddress][i];\n\n            result[i] = policyList[policyId];\n        }\n        return result;\n    }\n\n    /**\n     * @notice Get the policyInfo from its count/order\n     * @param _policyId Total count/order of the policy = NFT tokenId\n     * @return policy A struct of information about this policy\n     */\n    function getPolicyInfoById(uint256 _policyId)\n        public\n        view\n        returns (PolicyInfo memory policy)\n    {\n        policy = policyList[_policyId];\n    }\n\n    /**\n     * @notice Get a user's total policy amount\n     * @param _userAddress User's address\n     * @return policyAmount User's policy amount\n     */\n    function getUserPolicyCount(address _userAddress)\n        public\n        view\n        returns (uint256 policyAmount)\n    {\n        policyAmount = userPolicyCount[_userAddress];\n    }\n\n    /**\n     * @notice Get the policy buyer by policyId\n     * @param _policyId Unique policy Id (uint256)\n     * @return buyerAddress The buyer of this policy\n     */\n    function findPolicyBuyerById(uint256 _policyId)\n        public\n        view\n        returns (address buyerAddress)\n    {\n        buyerAddress = policyList[_policyId].buyerAddress;\n    }\n\n    // ----------------------------------------------------------------------------------- //\n    // ******************************** Setting Functions ******************************** //\n    // ----------------------------------------------------------------------------------- //\n\n    /**\n     * @notice Change the oracle fee\n     * @param _fee New oracle fee\n     */\n    function changeFee(uint256 _fee) external onlyOwner {\n        fee = _fee;\n    }\n\n    /**\n     * @notice Change the max payoff\n     * @param _newMaxPayoff New maxpayoff amount\n     */\n    function changeMaxPayoff(uint256 _newMaxPayoff) external onlyOwner {\n        MAX_PAYOFF = _newMaxPayoff;\n    }\n\n    /**\n     * @notice How long before departure when users can not buy new policies\n     * @param _newMinTime New time set\n     */\n    function changeMinTimeBeforeDeparture(uint256 _newMinTime)\n        external\n        onlyOwner\n    {\n        MIN_TIME_BEFORE_DEPARTURE = _newMinTime;\n    }\n\n    /**\n     * @notice Change the oracle address\n     * @param _oracleAddress New oracle address\n     */\n    function setFlightOracle(address _oracleAddress) external onlyOwner {\n        flightOracle = IFlightOracle(_oracleAddress);\n    }\n\n    /**\n     * @notice Set a new url\n     */\n    function setURL(string memory _url) external onlyOwner {\n        FLIGHT_STATUS_URL = _url;\n    }\n\n    /**\n     * @notice Set the new delay threshold used for calculating payoff\n     * @param _thresholdMin New minimum threshold\n     * @param _thresholdMax New maximum threshold\n     */\n    function setDelayThreshold(uint256 _thresholdMin, uint256 _thresholdMax)\n        external\n        onlyOwner\n    {\n        DELAY_THRESHOLD_MIN = _thresholdMin;\n        DELAY_THRESHOLD_MAX = _thresholdMax;\n        emit DelayThresholdSet(_thresholdMin, _thresholdMax);\n    }\n\n    // ----------------------------------------------------------------------------------- //\n    // ********************************** Main Functions ********************************* //\n    // ----------------------------------------------------------------------------------- //\n\n    /**\n     * @notice Buy a new policy application\n     * @dev Get the signature from the backend server\n     * @param _productId ID of the purchased product (0: flightdelay; 1,2,3...: others) (different products)\n     * @param _flightNumber Flight number string (e.g. \"AQ1299\")\n     * @param _premium Premium of this policy (decimals: 18)\n     * @param _departureDate Departure date of this flight (unix timestamp in s, not ms!)\n     * @param _landingDate Landing date of this flight (uinx timestamp in s, not ms!)\n     * @param _deadline Deadline for this purchase request\n     * @param signature Use web3.eth.sign(hash(data), account) to generate the signature\n     */\n    function newApplication(\n        uint256 _productId,\n        string memory _flightNumber,\n        uint256 _premium,\n        uint256 _departureDate,\n        uint256 _landingDate,\n        uint256 _deadline,\n        bytes calldata signature\n    ) public returns (uint256 _policyId) {\n        require(\n            block.timestamp <= _deadline,\n            \"Expired deadline, please resubmit a transaction\"\n        );\n\n        require(\n            _productId == PRODUCT_ID,\n            \"You are calling the wrong product contract\"\n        );\n\n        require(\n            _departureDate >= block.timestamp + MIN_TIME_BEFORE_DEPARTURE,\n            \"It's too close to the departure time, you cannot buy this policy\"\n        );\n\n        // Should be signed by operators\n        _checkSignature(\n            signature,\n            _flightNumber,\n            msg.sender,\n            _premium,\n            _deadline\n        );\n\n        // Generate the policy\n        uint256 currentPolicyId = Total_Policies;\n        policyList[currentPolicyId] = PolicyInfo(\n            PRODUCT_ID,\n            msg.sender,\n            currentPolicyId,\n            _flightNumber,\n            _premium,\n            MAX_PAYOFF,\n            block.timestamp,\n            _departureDate,\n            _landingDate,\n            PolicyStatus.INI,\n            false,\n            404\n        );\n\n        // Check the policy with the insurance pool status\n        // May be accepted or rejected, if accepted then update the status of insurancePool\n        _policyCheck(_premium, MAX_PAYOFF, msg.sender, currentPolicyId);\n\n        // Give buyer tokens depending on the usd value they spent\n        buyerToken.mint(msg.sender, _premium);\n\n        // Store the policy's total order with userAddress\n        userPolicy[msg.sender].push(Total_Policies);\n\n        // Update the user's policy amount\n        userPolicyCount[msg.sender] += 1;\n\n        // Update total policies\n        Total_Policies += 1;\n\n        emit newPolicyApplication(currentPolicyId, msg.sender);\n\n        return currentPolicyId;\n    }\n\n    /** @notice Make a claim request\n     *  @param _policyId The total order/id of the policy\n     *  @param _flightNumber The flight number\n     *  @param _date The flight departure date\n     *  @param _path Which data in json needs to get\n     *  @param _forceUpdate Owner can force to update\n     */\n    function newClaimRequest(\n        uint256 _policyId,\n        string memory _flightNumber,\n        string memory _date,\n        string memory _path,\n        bool _forceUpdate\n    ) public {\n        // Can not get the result before landing date\n        // Landing date may not be true, may be a fixed interval (4hours)\n        require(\n            block.timestamp >= policyList[_policyId].landingDate,\n            \"Can only claim a policy after its landing\"\n        );\n\n        // Check if the policy has been settled\n        require(\n            (!policyList[_policyId].isUsed) ||\n                (_forceUpdate && (msg.sender == owner)),\n            \"The policy status has already been settled, or you need to make a force update\"\n        );\n\n        // Check if the flight number is correct\n        require(\n            keccak256(abi.encodePacked(_flightNumber)) ==\n                keccak256(abi.encodePacked(policyList[_policyId].flightNumber)),\n            \"Wrong flight number provided\"\n        );\n\n        // Check if the departure date is correct\n        require(\n            keccak256(abi.encodePacked(_date)) ==\n                keccak256(\n                    abi.encodePacked(policyList[_policyId].departureDate)\n                ),\n            \"Wrong departure date provided\"\n        );\n\n        // Construct the url for oracle\n        string memory _url = string(\n            abi.encodePacked(\n                FLIGHT_STATUS_URL,\n                \"flight_no=\",\n                _flightNumber,\n                \"&timestamp=\",\n                _date\n            )\n        );\n\n        // Start a new oracle request\n        bytes32 requestId = flightOracle.newOracleRequest(fee, _url, _path, 1);\n\n        // Record this request\n        requestList[requestId] = _policyId;\n        policyList[_policyId].isUsed = true;\n    }\n\n    /**\n     * @notice Update information when a policy token's ownership has been transferred\n     * @dev This function is called by the ERC721 contract of PolicyToken\n     * @param _tokenId Token Id of the policy token\n     * @param _oldOwner The initial owner\n     * @param _newOwner The new owner\n     */\n    function policyOwnerTransfer(\n        uint256 _tokenId,\n        address _oldOwner,\n        address _newOwner\n    ) external override {\n        // Check the call is from policy token contract\n        require(\n            msg.sender == address(policyToken),\n            \"only called from the policy token contract\"\n        );\n\n        // Check the previous owner record\n        uint256 policyId = _tokenId;\n        require(\n            _oldOwner == policyList[policyId].buyerAddress,\n            \"The previous owner is wrong\"\n        );\n\n        // Update the new buyer address\n        policyList[policyId].buyerAddress = _newOwner;\n        emit PolicyOwnerTransfer(_tokenId, _newOwner);\n    }\n\n    // ----------------------------------------------------------------------------------- //\n    // ********************************* Oracle Functions ******************************** //\n    // ----------------------------------------------------------------------------------- //\n\n    /**\n     * @notice Do the final settlement, called by FlightOracle contract\n     * @param _requestId Chainlink request id\n     * @param _result Delay result (minutes) given by oracle\n     */\n    function finalSettlement(bytes32 _requestId, uint256 _result) public {\n        // Check if the call is from flight oracle\n        require(\n            msg.sender == address(flightOracle),\n            \"this function should be called by FlightOracle contract\"\n        );\n\n        // Store the oracle response\n        oracleResponse = _result;\n\n        uint256 policyId = requestList[_requestId];\n\n        PolicyInfo storage policy = policyList[policyId];\n        policy.delayResult = _result;\n\n        uint256 premium = policy.premium;\n        address buyerAddress = policy.buyerAddress;\n\n        require(\n            _result <= DELAY_THRESHOLD_MAX || _result == 400,\n            \"Abnormal oracle result, result should be [0 - 240] or 400\"\n        );\n\n        if (_result == 0) {\n            // 0: on time\n            policyExpired(premium, MAX_PAYOFF, buyerAddress, policyId);\n        } else if (_result <= DELAY_THRESHOLD_MAX) {\n            uint256 real_payoff = calcPayoff(_result);\n            _policyClaimed(premium, real_payoff, buyerAddress, policyId);\n        } else if (_result == 400) {\n            // 400: cancelled\n            _policyClaimed(premium, MAX_PAYOFF, buyerAddress, policyId);\n        }\n\n        emit FulfilledOracleRequest(policyId, _requestId);\n    }\n\n    // ----------------------------------------------------------------------------------- //\n    // ******************************** Internal Functions ******************************* //\n    // ----------------------------------------------------------------------------------- //\n\n    /**\n     * @notice check the policy and then determine whether we can afford it\n     * @param _payoff the payoff of the policy sold\n     * @param _userAddress user's address\n     * @param _policyId the unique policy ID\n     */\n    function _policyCheck(\n        uint256 _premium,\n        uint256 _payoff,\n        address _userAddress,\n        uint256 _policyId\n    ) internal {\n        // Whether there are enough capacity in the pool\n        bool _isAccepted = insurancePool.checkCapacity(_payoff);\n\n        if (_isAccepted) {\n            insurancePool.updateWhenBuy(_premium, _payoff, _userAddress);\n            policyList[_policyId].status = PolicyStatus.SOLD;\n            emit PolicySold(_policyId, _userAddress);\n\n            policyToken.mintPolicyToken(_userAddress);\n        } else {\n            policyList[_policyId].status = PolicyStatus.DECLINED;\n            emit PolicyDeclined(_policyId, _userAddress);\n            revert(\"not sufficient capacity in the insurance pool\");\n        }\n    }\n\n    /**\n     * @notice update the policy when it is expired\n     * @param _premium the premium of the policy sold\n     * @param _payoff the payoff of the policy sold\n     * @param _userAddress user's address\n     * @param _policyId the unique policy ID\n     */\n    function policyExpired(\n        uint256 _premium,\n        uint256 _payoff,\n        address _userAddress,\n        uint256 _policyId\n    ) internal {\n        insurancePool.updateWhenExpire(_premium, _payoff, _userAddress);\n        policyList[_policyId].status = PolicyStatus.EXPIRED;\n        emit PolicyExpired(_policyId, _userAddress);\n    }\n\n    /**\n     * @notice Update the policy when it is claimed\n     * @param _premium Premium of the policy sold\n     * @param _payoff Payoff of the policy sold\n     * @param _userAddress User's address\n     * @param _policyId The unique policy ID\n     */\n    function _policyClaimed(\n        uint256 _premium,\n        uint256 _payoff,\n        address _userAddress,\n        uint256 _policyId\n    ) internal {\n        insurancePool.payClaim(_premium, MAX_PAYOFF, _payoff, _userAddress);\n        policyList[_policyId].status = PolicyStatus.CLAIMED;\n        emit PolicyClaimed(_policyId, _userAddress);\n    }\n\n    /**\n     * @notice The payoff formula\n     * @param _delay Delay in minutes\n     * @return the final payoff volume\n     */\n    function calcPayoff(uint256 _delay) internal view returns (uint256) {\n        uint256 payoff = 0;\n\n        // payoff model 1 - linear\n        if (_delay <= DELAY_THRESHOLD_MIN) {\n            payoff = 0;\n        } else if (\n            _delay > DELAY_THRESHOLD_MIN && _delay <= DELAY_THRESHOLD_MAX\n        ) {\n            payoff = (_delay * _delay) / 480;\n        } else if (_delay > DELAY_THRESHOLD_MAX) {\n            payoff = MAX_PAYOFF;\n        }\n\n        payoff = payoff * 1e18;\n        return payoff;\n    }\n\n    /**\n     * @notice Check whether the signature is valid\n     * @param signature 65 byte array: [[v (1)], [r (32)], [s (32)]]\n     * @param _flightNumber Flight number\n     * @param _address userAddress\n     * @param _premium Premium of the policy\n     * @param _deadline Deadline of the application\n     */\n    function _checkSignature(\n        bytes calldata signature,\n        string memory _flightNumber,\n        address _address,\n        uint256 _premium,\n        uint256 _deadline\n    ) internal view {\n        sigManager.checkSignature(\n            signature,\n            _flightNumber,\n            _address,\n            _premium,\n            _deadline\n        );\n    }\n}\n",
  "sourcePath": "/Volumes/Store/src/Degis-Contracts-1/contracts/PolicyFlow.sol",
  "compiler": {
    "name": "solc",
    "version": "0.8.9+commit.e5eed63a.Emscripten.clang"
  },
  "schemaVersion": "3.4.3",
  "updatedAt": "2021-12-05T16:08:22.381Z",
  "networkType": "ethereum",
  "devdoc": {
    "kind": "dev",
    "methods": {
      "changeFee(uint256)": {
        "params": {
          "_fee": "New oracle fee"
        }
      },
      "changeMaxPayoff(uint256)": {
        "params": {
          "_newMaxPayoff": "New maxpayoff amount"
        }
      },
      "changeMinTimeBeforeDeparture(uint256)": {
        "params": {
          "_newMinTime": "New time set"
        }
      },
      "finalSettlement(bytes32,uint256)": {
        "params": {
          "_requestId": "Chainlink request id",
          "_result": "Delay result (minutes) given by oracle"
        }
      },
      "findPolicyBuyerById(uint256)": {
        "params": {
          "_policyId": "Unique policy Id (uint256)"
        },
        "returns": {
          "buyerAddress": "The buyer of this policy"
        }
      },
      "getChainlinkToken()": {
        "details": "This is the public implementation for chainlinkTokenAddress, which is      an internal method of the ChainlinkClient contract"
      },
      "getPolicyInfoById(uint256)": {
        "params": {
          "_policyId": "Total count/order of the policy = NFT tokenId"
        },
        "returns": {
          "policy": "A struct of information about this policy"
        }
      },
      "getUserPolicyCount(address)": {
        "params": {
          "_userAddress": "User's address"
        },
        "returns": {
          "policyAmount": "User's policy amount"
        }
      },
      "newApplication(uint256,string,uint256,uint256,uint256,uint256,bytes)": {
        "details": "Get the signature from the backend server",
        "params": {
          "_deadline": "Deadline for this purchase request",
          "_departureDate": "Departure date of this flight (unix timestamp in s, not ms!)",
          "_flightNumber": "Flight number string (e.g. \"AQ1299\")",
          "_landingDate": "Landing date of this flight (uinx timestamp in s, not ms!)",
          "_premium": "Premium of this policy (decimals: 18)",
          "_productId": "ID of the purchased product (0: flightdelay; 1,2,3...: others) (different products)",
          "signature": "Use web3.eth.sign(hash(data), account) to generate the signature"
        }
      },
      "newClaimRequest(uint256,string,string,string,bool)": {
        "params": {
          "_date": "The flight departure date",
          "_flightNumber": "The flight number",
          "_forceUpdate": "Owner can force to update",
          "_path": "Which data in json needs to get",
          "_policyId": "The total order/id of the policy"
        }
      },
      "policyOwnerTransfer(uint256,address,address)": {
        "details": "This function is called by the ERC721 contract of PolicyToken",
        "params": {
          "_newOwner": "The new owner",
          "_oldOwner": "The initial owner",
          "_tokenId": "Token Id of the policy token"
        }
      },
      "setDelayThreshold(uint256,uint256)": {
        "params": {
          "_thresholdMax": "New maximum threshold",
          "_thresholdMin": "New minimum threshold"
        }
      },
      "setFlightOracle(address)": {
        "params": {
          "_oracleAddress": "New oracle address"
        }
      },
      "viewUserPolicy(address)": {
        "params": {
          "_userAddress": "User's address (buyer)"
        },
        "returns": {
          "_0": "userPolicies User's all policy details"
        }
      }
    },
    "title": "PolicyFlow",
    "version": 1
  },
  "userdoc": {
    "events": {
      "newPolicyApplication(uint256,address)": {
        "notice": "Event list"
      }
    },
    "kind": "user",
    "methods": {
      "changeFee(uint256)": {
        "notice": "Change the oracle fee"
      },
      "changeMaxPayoff(uint256)": {
        "notice": "Change the max payoff"
      },
      "changeMinTimeBeforeDeparture(uint256)": {
        "notice": "How long before departure when users can not buy new policies"
      },
      "constructor": {
        "notice": "Constructor Function"
      },
      "finalSettlement(bytes32,uint256)": {
        "notice": "Do the final settlement, called by FlightOracle contract"
      },
      "findPolicyBuyerById(uint256)": {
        "notice": "Get the policy buyer by policyId"
      },
      "getChainlinkToken()": {
        "notice": "Returns the address of the LINK token"
      },
      "getPolicyInfoById(uint256)": {
        "notice": "Get the policyInfo from its count/order"
      },
      "getUserPolicyCount(address)": {
        "notice": "Get a user's total policy amount"
      },
      "newApplication(uint256,string,uint256,uint256,uint256,uint256,bytes)": {
        "notice": "Buy a new policy application"
      },
      "newClaimRequest(uint256,string,string,string,bool)": {
        "notice": "Make a claim request"
      },
      "policyOwnerTransfer(uint256,address,address)": {
        "notice": "Update information when a policy token's ownership has been transferred"
      },
      "setDelayThreshold(uint256,uint256)": {
        "notice": "Set the new delay threshold used for calculating payoff"
      },
      "setFlightOracle(address)": {
        "notice": "Change the oracle address"
      },
      "setURL(string)": {
        "notice": "Set a new url"
      },
      "viewUserPolicy(address)": {
        "notice": "Show a user's policies (all)"
      }
    },
    "notice": "This is the policy flow contract which is responsible for the whole lifecycle of a policy.         Every policy's information are stored in this contract.         A policy will have a unique \"_policyId\":          The total order in this product. Should be equal to its ERC721 tokenId         The main functions of a policy are: newApplication & newClaimRequest.         We use Chainlink in this contract to get the final status of a flight.",
    "version": 1
  }
}