{
  "contractName": "Queue",
  "abi": [
    {
      "inputs": [],
      "name": "length",
      "outputs": [],
      "stateMutability": "nonpayable",
      "type": "function"
    }
  ],
  "bytecode": "0x6080604052348015600f57600080fd5b50606d80601d6000396000f3fe6080604052348015600f57600080fd5b506004361060285760003560e01c80631f7b6d3214602d575b600080fd5b60336035565b005b56fea26469706673582212205821b9049f4f299e93c83a917609acdac1a4a3770b6678c977f1ee248bd79b5464736f6c63430008050033",
  "immutableReferences": {},
  "source": "// SPDX-License-Identifier: MIT\r\npragma solidity ^0.8.0;\r\n\r\ncontract Queue {\r\n    struct UnstakeRequest {\r\n        uint256 pendingAmount;\r\n        uint256 fulfilledAmount;\r\n        bool isPaidOut;\r\n    }\r\n\r\n    struct UnstakeQueue {\r\n        UnstakeRequest[] req;\r\n        uint256 front;\r\n        uint256 rear;\r\n    }\r\n\r\n    function length() public {}\r\n\r\n    // @function push:\r\n    function push() internal {}\r\n\r\n    // @function pop:\r\n    function pop() internal {}\r\n}\r\n",
  "sourcePath": "D:\\src\\Degis-Contracts-1\\contracts\\libraries\\Queue.sol",
  "compiler": {
    "name": "solc",
    "version": "0.8.5+commit.a4f2e591.Emscripten.clang"
  },
  "schemaVersion": "3.4.3",
  "updatedAt": "2021-10-07T16:18:49.290Z",
  "devdoc": {
    "kind": "dev",
    "methods": {},
    "version": 1
  },
  "userdoc": {
    "kind": "user",
    "methods": {},
    "version": 1
  }
}