{
  "contractName": "SigManager",
  "abi": [
    {
      "inputs": [],
      "stateMutability": "nonpayable",
      "type": "constructor"
    },
    {
      "anonymous": false,
      "inputs": [
        {
          "indexed": true,
          "internalType": "address",
          "name": "_newSigner",
          "type": "address"
        }
      ],
      "name": "SignerAdded",
      "type": "event"
    },
    {
      "anonymous": false,
      "inputs": [
        {
          "indexed": true,
          "internalType": "address",
          "name": "_oldSigner",
          "type": "address"
        }
      ],
      "name": "SignerRemoved",
      "type": "event"
    },
    {
      "inputs": [],
      "name": "_SUBMIT_APPLICATION_TYPEHASH",
      "outputs": [
        {
          "internalType": "bytes32",
          "name": "",
          "type": "bytes32"
        }
      ],
      "stateMutability": "view",
      "type": "function"
    },
    {
      "inputs": [],
      "name": "owner",
      "outputs": [
        {
          "internalType": "address",
          "name": "",
          "type": "address"
        }
      ],
      "stateMutability": "view",
      "type": "function"
    },
    {
      "inputs": [
        {
          "internalType": "address",
          "name": "_newSigner",
          "type": "address"
        }
      ],
      "name": "addSigner",
      "outputs": [],
      "stateMutability": "nonpayable",
      "type": "function"
    },
    {
      "inputs": [
        {
          "internalType": "address",
          "name": "_oldSigner",
          "type": "address"
        }
      ],
      "name": "removeSigner",
      "outputs": [],
      "stateMutability": "nonpayable",
      "type": "function"
    },
    {
      "inputs": [
        {
          "internalType": "address",
          "name": "_address",
          "type": "address"
        }
      ],
      "name": "isValidSigner",
      "outputs": [
        {
          "internalType": "bool",
          "name": "",
          "type": "bool"
        }
      ],
      "stateMutability": "view",
      "type": "function"
    },
    {
      "inputs": [
        {
          "internalType": "bytes",
          "name": "signature",
          "type": "bytes"
        },
        {
          "internalType": "string",
          "name": "_flightNumber",
          "type": "string"
        },
        {
          "internalType": "address",
          "name": "_userAddress",
          "type": "address"
        },
        {
          "internalType": "uint256",
          "name": "_premium",
          "type": "uint256"
        },
        {
          "internalType": "uint256",
          "name": "_deadline",
          "type": "uint256"
        }
      ],
      "name": "checkSignature",
      "outputs": [],
      "stateMutability": "view",
      "type": "function"
    }
  ],
  "bytecode": "0x608060405234801561001057600080fd5b50336000806101000a81548173ffffffffffffffffffffffffffffffffffffffff021916908373ffffffffffffffffffffffffffffffffffffffff1602179055507f06baab66e8ca47b9c4b53e6feffeb23eddc677943a22a6c8cc553c71e1e6685660028190555061152b806100876000396000f3fe608060405234801561001057600080fd5b50600436106100625760003560e01c80630e316ab7146100675780633dc039c3146100835780638da5cb5b1461009f578063b4f84189146100bd578063d5f50582146100db578063eb12d61e1461010b575b600080fd5b610081600480360381019061007c9190610b37565b610127565b005b61009d60048036038101906100989190610d40565b610314565b005b6100a761044f565b6040516100b49190610e05565b60405180910390f35b6100c5610473565b6040516100d29190610e39565b60405180910390f35b6100f560048036038101906100f09190610b37565b610479565b6040516101029190610e6f565b60405180910390f35b61012560048036038101906101209190610b37565b6104cf565b005b80600073ffffffffffffffffffffffffffffffffffffffff168173ffffffffffffffffffffffffffffffffffffffff161415610198576040517f08c379a000000000000000000000000000000000000000000000000000000000815260040161018f90610ee7565b60405180910390fd5b60008054906101000a900473ffffffffffffffffffffffffffffffffffffffff1673ffffffffffffffffffffffffffffffffffffffff163373ffffffffffffffffffffffffffffffffffffffff1614610226576040517f08c379a000000000000000000000000000000000000000000000000000000000815260040161021d90610f79565b60405180910390fd5b6001151561023383610479565b151514610275576040517f08c379a000000000000000000000000000000000000000000000000000000000815260040161026c90610fe5565b60405180910390fd5b6000600160008473ffffffffffffffffffffffffffffffffffffffff1673ffffffffffffffffffffffffffffffffffffffff16815260200190815260200160002060006101000a81548160ff0219169083151502179055508173ffffffffffffffffffffffffffffffffffffffff167f3525e22824a8a7df2c9a6029941c824cf95b6447f1e13d5128fd3826d35afe8b60405160405180910390a25050565b60008480519060200120905060006002548286868660405160200161033d95949392919061108f565b60405160208183030381529060405280519060200120905060006103b689898080601f016020809104026020016040519081016040528093929190818152602001838380828437600081840152601f19601f820116905080830192505050505050506103a8846106bb565b6106eb90919063ffffffff16565b9050600160008273ffffffffffffffffffffffffffffffffffffffff1673ffffffffffffffffffffffffffffffffffffffff16815260200190815260200160002060009054906101000a900460ff16610444576040517f08c379a000000000000000000000000000000000000000000000000000000000815260040161043b90611160565b60405180910390fd5b505050505050505050565b60008054906101000a900473ffffffffffffffffffffffffffffffffffffffff1681565b60025481565b6000600160008373ffffffffffffffffffffffffffffffffffffffff1673ffffffffffffffffffffffffffffffffffffffff16815260200190815260200160002060009054906101000a900460ff169050919050565b80600073ffffffffffffffffffffffffffffffffffffffff168173ffffffffffffffffffffffffffffffffffffffff161415610540576040517f08c379a000000000000000000000000000000000000000000000000000000000815260040161053790610ee7565b60405180910390fd5b60008054906101000a900473ffffffffffffffffffffffffffffffffffffffff1673ffffffffffffffffffffffffffffffffffffffff163373ffffffffffffffffffffffffffffffffffffffff16146105ce576040517f08c379a00000000000000000000000000000000000000000000000000000000081526004016105c590610f79565b60405180910390fd5b600015156105db83610479565b15151461061d576040517f08c379a0000000000000000000000000000000000000000000000000000000008152600401610614906111cc565b60405180910390fd5b60018060008473ffffffffffffffffffffffffffffffffffffffff1673ffffffffffffffffffffffffffffffffffffffff16815260200190815260200160002060006101000a81548160ff0219169083151502179055508173ffffffffffffffffffffffffffffffffffffffff167f47d1c22a25bb3a5d4e481b9b1e6944c2eade3181a0a20b495ed61d35b5323f2460405160405180910390a25050565b6000816040516020016106ce9190611243565b604051602081830303815290604052805190602001209050919050565b60008060006106fa8585610712565b9150915061070781610795565b819250505092915050565b6000806041835114156107545760008060006020860151925060408601519150606086015160001a90506107488782858561096a565b9450945050505061078e565b60408351141561078557600080602085015191506040850151905061077a868383610a77565b93509350505061078e565b60006002915091505b9250929050565b600060048111156107a9576107a8611269565b5b8160048111156107bc576107bb611269565b5b14156107c757610967565b600160048111156107db576107da611269565b5b8160048111156107ee576107ed611269565b5b141561082f576040517f08c379a0000000000000000000000000000000000000000000000000000000008152600401610826906112e4565b60405180910390fd5b6002600481111561084357610842611269565b5b81600481111561085657610855611269565b5b1415610897576040517f08c379a000000000000000000000000000000000000000000000000000000000815260040161088e90611350565b60405180910390fd5b600360048111156108ab576108aa611269565b5b8160048111156108be576108bd611269565b5b14156108ff576040517f08c379a00000000000000000000000000000000000000000000000000000000081526004016108f6906113e2565b60405180910390fd5b60048081111561091257610911611269565b5b81600481111561092557610924611269565b5b1415610966576040517f08c379a000000000000000000000000000000000000000000000000000000000815260040161095d90611474565b60405180910390fd5b5b50565b6000807f7fffffffffffffffffffffffffffffff5d576e7357a4501ddfe92f46681b20a08360001c11156109a5576000600391509150610a6e565b601b8560ff16141580156109bd5750601c8560ff1614155b156109cf576000600491509150610a6e565b6000600187878787604051600081526020016040526040516109f494939291906114b0565b6020604051602081039080840390855afa158015610a16573d6000803e3d6000fd5b505050602060405103519050600073ffffffffffffffffffffffffffffffffffffffff168173ffffffffffffffffffffffffffffffffffffffff161415610a6557600060019250925050610a6e565b80600092509250505b94509492505050565b6000806000807f7fffffffffffffffffffffffffffffffffffffffffffffffffffffffffffffff85169150601b8560ff1c019050610ab78782888561096a565b935093505050935093915050565b6000604051905090565b600080fd5b600080fd5b600073ffffffffffffffffffffffffffffffffffffffff82169050919050565b6000610b0482610ad9565b9050919050565b610b1481610af9565b8114610b1f57600080fd5b50565b600081359050610b3181610b0b565b92915050565b600060208284031215610b4d57610b4c610acf565b5b6000610b5b84828501610b22565b91505092915050565b600080fd5b600080fd5b600080fd5b60008083601f840112610b8957610b88610b64565b5b8235905067ffffffffffffffff811115610ba657610ba5610b69565b5b602083019150836001820283011115610bc257610bc1610b6e565b5b9250929050565b600080fd5b6000601f19601f8301169050919050565b7f4e487b7100000000000000000000000000000000000000000000000000000000600052604160045260246000fd5b610c1782610bce565b810181811067ffffffffffffffff82111715610c3657610c35610bdf565b5b80604052505050565b6000610c49610ac5565b9050610c558282610c0e565b919050565b600067ffffffffffffffff821115610c7557610c74610bdf565b5b610c7e82610bce565b9050602081019050919050565b82818337600083830152505050565b6000610cad610ca884610c5a565b610c3f565b905082815260208101848484011115610cc957610cc8610bc9565b5b610cd4848285610c8b565b509392505050565b600082601f830112610cf157610cf0610b64565b5b8135610d01848260208601610c9a565b91505092915050565b6000819050919050565b610d1d81610d0a565b8114610d2857600080fd5b50565b600081359050610d3a81610d14565b92915050565b60008060008060008060a08789031215610d5d57610d5c610acf565b5b600087013567ffffffffffffffff811115610d7b57610d7a610ad4565b5b610d8789828a01610b73565b9650965050602087013567ffffffffffffffff811115610daa57610da9610ad4565b5b610db689828a01610cdc565b9450506040610dc789828a01610b22565b9350506060610dd889828a01610d2b565b9250506080610de989828a01610d2b565b9150509295509295509295565b610dff81610af9565b82525050565b6000602082019050610e1a6000830184610df6565b92915050565b6000819050919050565b610e3381610e20565b82525050565b6000602082019050610e4e6000830184610e2a565b92915050565b60008115159050919050565b610e6981610e54565b82525050565b6000602082019050610e846000830184610e60565b92915050565b600082825260208201905092915050565b7f63616e206e6f7420757365207a65726f20616464726573730000000000000000600082015250565b6000610ed1601883610e8a565b9150610edc82610e9b565b602082019050919050565b60006020820190508181036000830152610f0081610ec4565b9050919050565b7f6f6e6c7920746865206f776e65722063616e2063616c6c20746869732066756e60008201527f6374696f6e000000000000000000000000000000000000000000000000000000602082015250565b6000610f63602583610e8a565b9150610f6e82610f07565b604082019050919050565b60006020820190508181036000830152610f9281610f56565b9050919050565b7f746869732061646472657373206973206e6f742061207369676e657200000000600082015250565b6000610fcf601c83610e8a565b9150610fda82610f99565b602082019050919050565b60006020820190508181036000830152610ffe81610fc2565b9050919050565b6000819050919050565b61102061101b82610e20565b611005565b82525050565b60008160601b9050919050565b600061103e82611026565b9050919050565b600061105082611033565b9050919050565b61106861106382610af9565b611045565b82525050565b6000819050919050565b61108961108482610d0a565b61106e565b82525050565b600061109b828861100f565b6020820191506110ab828761100f565b6020820191506110bb8286611057565b6014820191506110cb8285611078565b6020820191506110db8284611078565b6020820191508190509695505050505050565b7f43616e206f6e6c79207375626d697474656420627920617574686f72697a656460008201527f207369676e657200000000000000000000000000000000000000000000000000602082015250565b600061114a602783610e8a565b9150611155826110ee565b604082019050919050565b600060208201905081810360008301526111798161113d565b9050919050565b7f74686973206164647265737320697320616c72656164792061207369676e6572600082015250565b60006111b6602083610e8a565b91506111c182611180565b602082019050919050565b600060208201905081810360008301526111e5816111a9565b9050919050565b600081905092915050565b7f19457468657265756d205369676e6564204d6573736167653a0a333200000000600082015250565b600061122d601c836111ec565b9150611238826111f7565b601c82019050919050565b600061124e82611220565b915061125a828461100f565b60208201915081905092915050565b7f4e487b7100000000000000000000000000000000000000000000000000000000600052602160045260246000fd5b7f45434453413a20696e76616c6964207369676e61747572650000000000000000600082015250565b60006112ce601883610e8a565b91506112d982611298565b602082019050919050565b600060208201905081810360008301526112fd816112c1565b9050919050565b7f45434453413a20696e76616c6964207369676e6174757265206c656e67746800600082015250565b600061133a601f83610e8a565b915061134582611304565b602082019050919050565b600060208201905081810360008301526113698161132d565b9050919050565b7f45434453413a20696e76616c6964207369676e6174757265202773272076616c60008201527f7565000000000000000000000000000000000000000000000000000000000000602082015250565b60006113cc602283610e8a565b91506113d782611370565b604082019050919050565b600060208201905081810360008301526113fb816113bf565b9050919050565b7f45434453413a20696e76616c6964207369676e6174757265202776272076616c60008201527f7565000000000000000000000000000000000000000000000000000000000000602082015250565b600061145e602283610e8a565b915061146982611402565b604082019050919050565b6000602082019050818103600083015261148d81611451565b9050919050565b600060ff82169050919050565b6114aa81611494565b82525050565b60006080820190506114c56000830187610e2a565b6114d260208301866114a1565b6114df6040830185610e2a565b6114ec6060830184610e2a565b9594505050505056fea26469706673582212209228060795ebe9f0c5c5ab1f98c6d38ed17ec6b555e53ed9bc490289b5fe620f64736f6c63430008090033",
  "immutableReferences": {},
  "source": "// SPDX-License-Identifier: MIT\npragma solidity 0.8.9;\n\nimport \"./interfaces/ISigManager.sol\";\nimport \"@openzeppelin/contracts/utils/cryptography/draft-EIP712.sol\";\n\n/**\n * @title  Signature Manager\n * @notice Signature is used when submitting new applications.\n *         The premium should be decided by the pricing model and be signed by a private key.\n *         Other submission will not be accepted.\n *         Please keep the signer key safe.\n */\ncontract SigManager is ISigManager {\n    using ECDSA for bytes32;\n\n    address public owner;\n\n    mapping(address => bool) _isValidSigner;\n\n    bytes32 public _SUBMIT_APPLICATION_TYPEHASH;\n\n    constructor() {\n        owner = msg.sender;\n\n        _SUBMIT_APPLICATION_TYPEHASH = keccak256(\n            \"5G is great, physical lab is difficult to find\"\n        );\n    }\n\n    // ---------------------------------------------------------------------------------------- //\n    // ************************************** Modifiers *************************************** //\n    // ---------------------------------------------------------------------------------------- //\n    modifier onlyOwner() {\n        require(msg.sender == owner, \"only the owner can call this function\");\n        _;\n    }\n\n    modifier notZeroAddress(address _address) {\n        require(_address != address(0), \"can not use zero address\");\n        _;\n    }\n\n    // ---------------------------------------------------------------------------------------- //\n    // ************************************ Set Functions ************************************* //\n    // ---------------------------------------------------------------------------------------- //\n\n    /**\n     * @notice Add a signer into valid signer list\n     * @param _newSigner The new signer address\n     */\n    function addSigner(address _newSigner)\n        external\n        notZeroAddress(_newSigner)\n        onlyOwner\n    {\n        require(\n            isValidSigner(_newSigner) == false,\n            \"this address is already a signer\"\n        );\n        _isValidSigner[_newSigner] = true;\n        emit SignerAdded(_newSigner);\n    }\n\n    /**\n     * @notice Remove a signer from the valid signer list\n     * @param _oldSigner The old signer address to be removed\n     */\n    function removeSigner(address _oldSigner)\n        external\n        notZeroAddress(_oldSigner)\n        onlyOwner\n    {\n        require(\n            isValidSigner(_oldSigner) == true,\n            \"this address is not a signer\"\n        );\n        _isValidSigner[_oldSigner] = false;\n        emit SignerRemoved(_oldSigner);\n    }\n\n    // ---------------------------------------------------------------------------------------- //\n    // ************************************ View Functions ************************************ //\n    // ---------------------------------------------------------------------------------------- //\n\n    /**\n     * @notice Check whether the address is a valid signer\n     * @param _address The input address\n     * @return isValidSigner Whether this address is\n     */\n    function isValidSigner(address _address) public view returns (bool) {\n        return _isValidSigner[_address];\n    }\n\n    // ---------------------------------------------------------------------------------------- //\n    // ************************************ Main Functions ************************************ //\n    // ---------------------------------------------------------------------------------------- //\n\n    /**\n     * @notice Check signature when buying a new policy (avoid arbitrary premium amount)\n     * @param signature 65 byte array: [[v (1)], [r (32)], [s (32)]]\n     * @param _flightNumber Flight number\n     * @param _userAddress User address\n     * @param _premium Policy premium\n     * @param _deadline Deadline of a policy\n     */\n    function checkSignature(\n        bytes calldata signature,\n        string memory _flightNumber,\n        address _userAddress,\n        uint256 _premium,\n        uint256 _deadline\n    ) external view {\n        bytes32 hashedFlightNumber = keccak256(bytes(_flightNumber));\n        bytes32 hashData = keccak256(\n            abi.encodePacked(\n                _SUBMIT_APPLICATION_TYPEHASH,\n                hashedFlightNumber,\n                _userAddress,\n                _premium,\n                _deadline\n            )\n        );\n        address signer = hashData.toEthSignedMessageHash().recover(signature);\n        require(\n            _isValidSigner[signer],\n            \"Can only submitted by authorized signer\"\n        );\n    }\n}\n",
  "sourcePath": "/Volumes/Store/src/Degis-Contracts-1/contracts/SigManager.sol",
  "compiler": {
    "name": "solc",
    "version": "0.8.9+commit.e5eed63a.Emscripten.clang"
  },
  "schemaVersion": "3.4.3",
  "updatedAt": "2021-12-05T06:54:04.880Z",
  "devdoc": {
    "kind": "dev",
    "methods": {
      "addSigner(address)": {
        "params": {
          "_newSigner": "The new signer address"
        }
      },
      "checkSignature(bytes,string,address,uint256,uint256)": {
        "params": {
          "_deadline": "Deadline of a policy",
          "_flightNumber": "Flight number",
          "_premium": "Policy premium",
          "_userAddress": "User address",
          "signature": "65 byte array: [[v (1)], [r (32)], [s (32)]]"
        }
      },
      "isValidSigner(address)": {
        "params": {
          "_address": "The input address"
        },
        "returns": {
          "_0": "isValidSigner Whether this address is"
        }
      },
      "removeSigner(address)": {
        "params": {
          "_oldSigner": "The old signer address to be removed"
        }
      }
    },
    "title": "Signature Manager",
    "version": 1
  },
  "userdoc": {
    "kind": "user",
    "methods": {
      "addSigner(address)": {
        "notice": "Add a signer into valid signer list"
      },
      "checkSignature(bytes,string,address,uint256,uint256)": {
        "notice": "Check signature when buying a new policy (avoid arbitrary premium amount)"
      },
      "isValidSigner(address)": {
        "notice": "Check whether the address is a valid signer"
      },
      "removeSigner(address)": {
        "notice": "Remove a signer from the valid signer list"
      }
    },
    "notice": "Signature is used when submitting new applications.         The premium should be decided by the pricing model and be signed by a private key.         Other submission will not be accepted.         Please keep the signer key safe.",
    "version": 1
  }
}