{
  "contractName": "SigManager",
  "abi": [
    {
      "inputs": [],
      "stateMutability": "nonpayable",
      "type": "constructor"
    },
    {
      "anonymous": false,
      "inputs": [
        {
          "indexed": true,
          "internalType": "address",
          "name": "_newSigner",
          "type": "address"
        }
      ],
      "name": "SignerAdded",
      "type": "event"
    },
    {
      "anonymous": false,
      "inputs": [
        {
          "indexed": true,
          "internalType": "address",
          "name": "_oldSigner",
          "type": "address"
        }
      ],
      "name": "SignerRemoved",
      "type": "event"
    },
    {
      "inputs": [],
      "name": "owner",
      "outputs": [
        {
          "internalType": "address",
          "name": "",
          "type": "address"
        }
      ],
      "stateMutability": "view",
      "type": "function",
      "constant": true
    },
    {
      "inputs": [
        {
          "internalType": "address",
          "name": "_newSigner",
          "type": "address"
        }
      ],
      "name": "addSigner",
      "outputs": [],
      "stateMutability": "nonpayable",
      "type": "function"
    },
    {
      "inputs": [
        {
          "internalType": "address",
          "name": "_oldSigner",
          "type": "address"
        }
      ],
      "name": "removeSigner",
      "outputs": [],
      "stateMutability": "nonpayable",
      "type": "function"
    },
    {
      "inputs": [
        {
          "internalType": "address",
          "name": "_address",
          "type": "address"
        }
      ],
      "name": "isValidSigner",
      "outputs": [
        {
          "internalType": "bool",
          "name": "",
          "type": "bool"
        }
      ],
      "stateMutability": "view",
      "type": "function",
      "constant": true
    },
    {
      "inputs": [
        {
          "internalType": "bytes",
          "name": "signature",
          "type": "bytes"
        },
        {
          "internalType": "string",
          "name": "_flightNumber",
          "type": "string"
        },
        {
          "internalType": "address",
          "name": "_address",
          "type": "address"
        },
        {
          "internalType": "uint256",
          "name": "_premium",
          "type": "uint256"
        },
        {
          "internalType": "uint256",
          "name": "_deadline",
          "type": "uint256"
        }
      ],
      "name": "checkSignature",
      "outputs": [],
      "stateMutability": "view",
      "type": "function",
      "constant": true
    }
  ],
  "bytecode": "0x608060405234801561001057600080fd5b50336000806101000a81548173ffffffffffffffffffffffffffffffffffffffff021916908373ffffffffffffffffffffffffffffffffffffffff1602179055507fba374ce8ba0221019a31e7cc71e16813ae3aae708396f2b7fb1db2094081b32d6002819055507f69cd6b274a1e82f521d5f3e066a1265b20f53a021be64fb3678304d16e11708e60038190555061153b806100ae6000396000f3fe608060405234801561001057600080fd5b50600436106100575760003560e01c80630e316ab71461005c5780633dc039c3146100785780638da5cb5b14610094578063d5f50582146100b2578063eb12d61e146100e2575b600080fd5b61007660048036038101906100719190610af7565b6100fe565b005b610092600480360381019061008d9190610d00565b6102e9565b005b61009c610417565b6040516100a99190610dc5565b60405180910390f35b6100cc60048036038101906100c79190610af7565b61043b565b6040516100d99190610dfb565b60405180910390f35b6100fc60048036038101906100f79190610af7565b610491565b005b600073ffffffffffffffffffffffffffffffffffffffff163373ffffffffffffffffffffffffffffffffffffffff16141561016e576040517f08c379a000000000000000000000000000000000000000000000000000000000815260040161016590610e73565b60405180910390fd5b60008054906101000a900473ffffffffffffffffffffffffffffffffffffffff1673ffffffffffffffffffffffffffffffffffffffff163373ffffffffffffffffffffffffffffffffffffffff16146101fc576040517f08c379a00000000000000000000000000000000000000000000000000000000081526004016101f390610f05565b60405180910390fd5b600115156102098261043b565b15151461024b576040517f08c379a000000000000000000000000000000000000000000000000000000000815260040161024290610f71565b60405180910390fd5b6000600160008373ffffffffffffffffffffffffffffffffffffffff1673ffffffffffffffffffffffffffffffffffffffff16815260200190815260200160002060006101000a81548160ff0219169083151502179055508073ffffffffffffffffffffffffffffffffffffffff167f3525e22824a8a7df2c9a6029941c824cf95b6447f1e13d5128fd3826d35afe8b60405160405180910390a250565b60006003548585858560405160200161030695949392919061109f565b604051602081830303815290604052805190602001209050600061037f88888080601f016020809104026020016040519081016040528093929190818152602001838380828437600081840152601f19601f820116905080830192505050505050506103718461067b565b6106ab90919063ffffffff16565b9050600160008273ffffffffffffffffffffffffffffffffffffffff1673ffffffffffffffffffffffffffffffffffffffff16815260200190815260200160002060009054906101000a900460ff1661040d576040517f08c379a00000000000000000000000000000000000000000000000000000000081526004016104049061116c565b60405180910390fd5b5050505050505050565b60008054906101000a900473ffffffffffffffffffffffffffffffffffffffff1681565b6000600160008373ffffffffffffffffffffffffffffffffffffffff1673ffffffffffffffffffffffffffffffffffffffff16815260200190815260200160002060009054906101000a900460ff169050919050565b600073ffffffffffffffffffffffffffffffffffffffff163373ffffffffffffffffffffffffffffffffffffffff161415610501576040517f08c379a00000000000000000000000000000000000000000000000000000000081526004016104f890610e73565b60405180910390fd5b60008054906101000a900473ffffffffffffffffffffffffffffffffffffffff1673ffffffffffffffffffffffffffffffffffffffff163373ffffffffffffffffffffffffffffffffffffffff161461058f576040517f08c379a000000000000000000000000000000000000000000000000000000000815260040161058690610f05565b60405180910390fd5b6000151561059c8261043b565b1515146105de576040517f08c379a00000000000000000000000000000000000000000000000000000000081526004016105d5906111d8565b60405180910390fd5b60018060008373ffffffffffffffffffffffffffffffffffffffff1673ffffffffffffffffffffffffffffffffffffffff16815260200190815260200160002060006101000a81548160ff0219169083151502179055508073ffffffffffffffffffffffffffffffffffffffff167f47d1c22a25bb3a5d4e481b9b1e6944c2eade3181a0a20b495ed61d35b5323f2460405160405180910390a250565b60008160405160200161068e9190611244565b604051602081830303815290604052805190602001209050919050565b60008060006106ba85856106d2565b915091506106c781610755565b819250505092915050565b6000806041835114156107145760008060006020860151925060408601519150606086015160001a90506107088782858561092a565b9450945050505061074e565b60408351141561074557600080602085015191506040850151905061073a868383610a37565b93509350505061074e565b60006002915091505b9250929050565b600060048111156107695761076861126a565b5b81600481111561077c5761077b61126a565b5b141561078757610927565b6001600481111561079b5761079a61126a565b5b8160048111156107ae576107ad61126a565b5b14156107ef576040517f08c379a00000000000000000000000000000000000000000000000000000000081526004016107e6906112e5565b60405180910390fd5b600260048111156108035761080261126a565b5b8160048111156108165761081561126a565b5b1415610857576040517f08c379a000000000000000000000000000000000000000000000000000000000815260040161084e90611351565b60405180910390fd5b6003600481111561086b5761086a61126a565b5b81600481111561087e5761087d61126a565b5b14156108bf576040517f08c379a00000000000000000000000000000000000000000000000000000000081526004016108b6906113e3565b60405180910390fd5b6004808111156108d2576108d161126a565b5b8160048111156108e5576108e461126a565b5b1415610926576040517f08c379a000000000000000000000000000000000000000000000000000000000815260040161091d90611475565b60405180910390fd5b5b50565b6000807f7fffffffffffffffffffffffffffffff5d576e7357a4501ddfe92f46681b20a08360001c1115610965576000600391509150610a2e565b601b8560ff161415801561097d5750601c8560ff1614155b1561098f576000600491509150610a2e565b6000600187878787604051600081526020016040526040516109b494939291906114c0565b6020604051602081039080840390855afa1580156109d6573d6000803e3d6000fd5b505050602060405103519050600073ffffffffffffffffffffffffffffffffffffffff168173ffffffffffffffffffffffffffffffffffffffff161415610a2557600060019250925050610a2e565b80600092509250505b94509492505050565b6000806000807f7fffffffffffffffffffffffffffffffffffffffffffffffffffffffffffffff85169150601b8560ff1c019050610a778782888561092a565b935093505050935093915050565b6000604051905090565b600080fd5b600080fd5b600073ffffffffffffffffffffffffffffffffffffffff82169050919050565b6000610ac482610a99565b9050919050565b610ad481610ab9565b8114610adf57600080fd5b50565b600081359050610af181610acb565b92915050565b600060208284031215610b0d57610b0c610a8f565b5b6000610b1b84828501610ae2565b91505092915050565b600080fd5b600080fd5b600080fd5b60008083601f840112610b4957610b48610b24565b5b8235905067ffffffffffffffff811115610b6657610b65610b29565b5b602083019150836001820283011115610b8257610b81610b2e565b5b9250929050565b600080fd5b6000601f19601f8301169050919050565b7f4e487b7100000000000000000000000000000000000000000000000000000000600052604160045260246000fd5b610bd782610b8e565b810181811067ffffffffffffffff82111715610bf657610bf5610b9f565b5b80604052505050565b6000610c09610a85565b9050610c158282610bce565b919050565b600067ffffffffffffffff821115610c3557610c34610b9f565b5b610c3e82610b8e565b9050602081019050919050565b82818337600083830152505050565b6000610c6d610c6884610c1a565b610bff565b905082815260208101848484011115610c8957610c88610b89565b5b610c94848285610c4b565b509392505050565b600082601f830112610cb157610cb0610b24565b5b8135610cc1848260208601610c5a565b91505092915050565b6000819050919050565b610cdd81610cca565b8114610ce857600080fd5b50565b600081359050610cfa81610cd4565b92915050565b60008060008060008060a08789031215610d1d57610d1c610a8f565b5b600087013567ffffffffffffffff811115610d3b57610d3a610a94565b5b610d4789828a01610b33565b9650965050602087013567ffffffffffffffff811115610d6a57610d69610a94565b5b610d7689828a01610c9c565b9450506040610d8789828a01610ae2565b9350506060610d9889828a01610ceb565b9250506080610da989828a01610ceb565b9150509295509295509295565b610dbf81610ab9565b82525050565b6000602082019050610dda6000830184610db6565b92915050565b60008115159050919050565b610df581610de0565b82525050565b6000602082019050610e106000830184610dec565b92915050565b600082825260208201905092915050565b7f63616e206e6f7420757365207a65726f20616464726573730000000000000000600082015250565b6000610e5d601883610e16565b9150610e6882610e27565b602082019050919050565b60006020820190508181036000830152610e8c81610e50565b9050919050565b7f6f6e6c7920746865206f776e65722063616e2063616c6c20746869732066756e60008201527f6374696f6e000000000000000000000000000000000000000000000000000000602082015250565b6000610eef602583610e16565b9150610efa82610e93565b604082019050919050565b60006020820190508181036000830152610f1e81610ee2565b9050919050565b7f746869732061646472657373206973206e6f742061207369676e657200000000600082015250565b6000610f5b601c83610e16565b9150610f6682610f25565b602082019050919050565b60006020820190508181036000830152610f8a81610f4e565b9050919050565b6000819050919050565b6000819050919050565b610fb6610fb182610f91565b610f9b565b82525050565b600081519050919050565b600081905092915050565b60005b83811015610ff0578082015181840152602081019050610fd5565b83811115610fff576000848401525b50505050565b600061101082610fbc565b61101a8185610fc7565b935061102a818560208601610fd2565b80840191505092915050565b60008160601b9050919050565b600061104e82611036565b9050919050565b600061106082611043565b9050919050565b61107861107382610ab9565b611055565b82525050565b6000819050919050565b61109961109482610cca565b61107e565b82525050565b60006110ab8288610fa5565b6020820191506110bb8287611005565b91506110c78286611067565b6014820191506110d78285611088565b6020820191506110e78284611088565b6020820191508190509695505050505050565b7f43616e206f6e6c79207375626d697474656420627920617574686f72697a656460008201527f207369676e657200000000000000000000000000000000000000000000000000602082015250565b6000611156602783610e16565b9150611161826110fa565b604082019050919050565b6000602082019050818103600083015261118581611149565b9050919050565b7f74686973206164647265737320697320616c72656164792061207369676e6572600082015250565b60006111c2602083610e16565b91506111cd8261118c565b602082019050919050565b600060208201905081810360008301526111f1816111b5565b9050919050565b7f19457468657265756d205369676e6564204d6573736167653a0a333200000000600082015250565b600061122e601c83610fc7565b9150611239826111f8565b601c82019050919050565b600061124f82611221565b915061125b8284610fa5565b60208201915081905092915050565b7f4e487b7100000000000000000000000000000000000000000000000000000000600052602160045260246000fd5b7f45434453413a20696e76616c6964207369676e61747572650000000000000000600082015250565b60006112cf601883610e16565b91506112da82611299565b602082019050919050565b600060208201905081810360008301526112fe816112c2565b9050919050565b7f45434453413a20696e76616c6964207369676e6174757265206c656e67746800600082015250565b600061133b601f83610e16565b915061134682611305565b602082019050919050565b6000602082019050818103600083015261136a8161132e565b9050919050565b7f45434453413a20696e76616c6964207369676e6174757265202773272076616c60008201527f7565000000000000000000000000000000000000000000000000000000000000602082015250565b60006113cd602283610e16565b91506113d882611371565b604082019050919050565b600060208201905081810360008301526113fc816113c0565b9050919050565b7f45434453413a20696e76616c6964207369676e6174757265202776272076616c60008201527f7565000000000000000000000000000000000000000000000000000000000000602082015250565b600061145f602283610e16565b915061146a82611403565b604082019050919050565b6000602082019050818103600083015261148e81611452565b9050919050565b61149e81610f91565b82525050565b600060ff82169050919050565b6114ba816114a4565b82525050565b60006080820190506114d56000830187611495565b6114e260208301866114b1565b6114ef6040830185611495565b6114fc6060830184611495565b9594505050505056fea264697066735822122000a06d3e2a327b7ce62c4d66058e3c8976d6aa8570b43f00fb8640ab1fc01b2b64736f6c63430008090033",
  "immutableReferences": {},
  "source": "// SPDX-License-Identifier: MIT\npragma solidity 0.8.9;\n\nimport \"./interfaces/ISigManager.sol\";\nimport \"@openzeppelin/contracts/utils/cryptography/draft-EIP712.sol\";\n\n/**\n * @title  Signature Manager\n * @notice Signature is used when submitting new applications.\n *         The premium should be decided by the pricing model and be signed by a private key.\n *         Other submission will not be accepted.\n *         Please keep the signer key safe.\n */\ncontract SigManager is ISigManager {\n    using ECDSA for bytes32;\n\n    address public owner;\n\n    mapping(address => bool) _isValidSigner;\n\n    bytes32 internal _SUBMIT_APPLICATION_TYPEHASH;\n    bytes32 internal _SUBMIT_CLAIM_TYPEHASH;\n\n    /**\n     *\n     */\n    constructor() {\n        owner = msg.sender;\n\n        _SUBMIT_APPLICATION_TYPEHASH = keccak256(\n            \"DegisNewApplication(uint256 premium,uint256 payoff)\"\n        );\n        _SUBMIT_CLAIM_TYPEHASH = keccak256(\n            \"DegisSubmitClaim(uint256 policyOrder,uint256 premium,uint256 payoff)\"\n        );\n    }\n\n    modifier onlyOwner() {\n        require(msg.sender == owner, \"only the owner can call this function\");\n        _;\n    }\n\n    modifier notZeroAddress() {\n        require(msg.sender != address(0), \"can not use zero address\");\n        _;\n    }\n\n    /**\n     * @notice Add a signer into valid signer list\n     * @param _newSigner The new signer address\n     */\n    function addSigner(address _newSigner) external notZeroAddress onlyOwner {\n        require(\n            isValidSigner(_newSigner) == false,\n            \"this address is already a signer\"\n        );\n        _isValidSigner[_newSigner] = true;\n        emit SignerAdded(_newSigner);\n    }\n\n    /**\n     * @notice Remove a signer from the valid signer list\n     * @param _oldSigner The old signer address to be removed\n     */\n    function removeSigner(address _oldSigner)\n        external\n        notZeroAddress\n        onlyOwner\n    {\n        require(\n            isValidSigner(_oldSigner) == true,\n            \"this address is not a signer\"\n        );\n        _isValidSigner[_oldSigner] = false;\n        emit SignerRemoved(_oldSigner);\n    }\n\n    /**\n     * @notice Check whether the address is a valid signer\n     * @param _address The input address\n     * @return isValidSigner Whether this address is\n     */\n    function isValidSigner(address _address) public view returns (bool) {\n        return _isValidSigner[_address];\n    }\n\n    /**\n     * @notice Check signature when buying a new policy (avoid arbitrary premium amount)\n     * @param signature 65 byte array: [[v (1)], [r (32)], [s (32)]]\n     * @param _flightNumber Flight number\n     * @param _address User address\n     * @param _premium Policy premium\n     * @param _deadline Deadline of a policy\n     */\n    function checkSignature(\n        bytes calldata signature,\n        string memory _flightNumber,\n        address _address,\n        uint256 _premium,\n        uint256 _deadline\n    ) external view {\n        bytes32 hashData = keccak256(\n            abi.encodePacked(\n                _SUBMIT_CLAIM_TYPEHASH,\n                _flightNumber,\n                _address,\n                _premium,\n                _deadline\n            )\n        );\n        address signer = hashData.toEthSignedMessageHash().recover(signature);\n        require(\n            _isValidSigner[signer],\n            \"Can only submitted by authorized signer\"\n        );\n    }\n}\n",
  "sourcePath": "/Volumes/Store/src/Degis-Contracts-1/contracts/SigManager.sol",
  "compiler": {
    "name": "solc",
    "version": "0.8.9+commit.e5eed63a.Emscripten.clang"
  },
  "schemaVersion": "3.4.3",
  "updatedAt": "2021-11-29T11:46:59.730Z",
  "networkType": "ethereum",
  "devdoc": {
    "kind": "dev",
    "methods": {
      "addSigner(address)": {
        "params": {
          "_newSigner": "The new signer address"
        }
      },
      "checkSignature(bytes,string,address,uint256,uint256)": {
        "params": {
          "_address": "User address",
          "_deadline": "Deadline of a policy",
          "_flightNumber": "Flight number",
          "_premium": "Policy premium",
          "signature": "65 byte array: [[v (1)], [r (32)], [s (32)]]"
        }
      },
      "isValidSigner(address)": {
        "params": {
          "_address": "The input address"
        },
        "returns": {
          "_0": "isValidSigner Whether this address is"
        }
      },
      "removeSigner(address)": {
        "params": {
          "_oldSigner": "The old signer address to be removed"
        }
      }
    },
    "title": "Signature Manager",
    "version": 1
  },
  "userdoc": {
    "kind": "user",
    "methods": {
      "addSigner(address)": {
        "notice": "Add a signer into valid signer list"
      },
      "checkSignature(bytes,string,address,uint256,uint256)": {
        "notice": "Check signature when buying a new policy (avoid arbitrary premium amount)"
      },
      "isValidSigner(address)": {
        "notice": "Check whether the address is a valid signer"
      },
      "removeSigner(address)": {
        "notice": "Remove a signer from the valid signer list"
      }
    },
    "notice": "Signature is used when submitting new applications.         The premium should be decided by the pricing model and be signed by a private key.         Other submission will not be accepted.         Please keep the signer key safe.",
    "version": 1
  }
}