{
  "contractName": "SigManager",
  "abi": [
    {
      "inputs": [],
      "stateMutability": "nonpayable",
      "type": "constructor"
    },
    {
      "anonymous": false,
      "inputs": [
        {
          "indexed": true,
          "internalType": "address",
          "name": "_newSigner",
          "type": "address"
        }
      ],
      "name": "SignerAdded",
      "type": "event"
    },
    {
      "anonymous": false,
      "inputs": [
        {
          "indexed": true,
          "internalType": "address",
          "name": "_oldSigner",
          "type": "address"
        }
      ],
      "name": "SignerRemoved",
      "type": "event"
    },
    {
      "inputs": [],
      "name": "owner",
      "outputs": [
        {
          "internalType": "address",
          "name": "",
          "type": "address"
        }
      ],
      "stateMutability": "view",
      "type": "function",
      "constant": true
    },
    {
      "inputs": [
        {
          "internalType": "address",
          "name": "_newSigner",
          "type": "address"
        }
      ],
      "name": "addSigner",
      "outputs": [],
      "stateMutability": "nonpayable",
      "type": "function"
    },
    {
      "inputs": [
        {
          "internalType": "address",
          "name": "_oldSigner",
          "type": "address"
        }
      ],
      "name": "removeSigner",
      "outputs": [],
      "stateMutability": "nonpayable",
      "type": "function"
    },
    {
      "inputs": [
        {
          "internalType": "address",
          "name": "_address",
          "type": "address"
        }
      ],
      "name": "isValidSigner",
      "outputs": [
        {
          "internalType": "bool",
          "name": "",
          "type": "bool"
        }
      ],
      "stateMutability": "view",
      "type": "function",
      "constant": true
    },
    {
      "inputs": [
        {
          "internalType": "bytes",
          "name": "signature",
          "type": "bytes"
        },
        {
          "internalType": "string",
          "name": "_flightNumber",
          "type": "string"
        },
        {
          "internalType": "address",
          "name": "_userAddress",
          "type": "address"
        },
        {
          "internalType": "uint256",
          "name": "_premium",
          "type": "uint256"
        },
        {
          "internalType": "uint256",
          "name": "_deadline",
          "type": "uint256"
        }
      ],
      "name": "checkSignature",
      "outputs": [],
      "stateMutability": "view",
      "type": "function",
      "constant": true
    }
  ],
  "bytecode": "0x608060405234801561001057600080fd5b50336000806101000a81548173ffffffffffffffffffffffffffffffffffffffff021916908373ffffffffffffffffffffffffffffffffffffffff1602179055507f06baab66e8ca47b9c4b53e6feffeb23eddc677943a22a6c8cc553c71e1e668566002819055506114dd806100876000396000f3fe608060405234801561001057600080fd5b50600436106100575760003560e01c80630e316ab71461005c5780633dc039c3146100785780638da5cb5b14610094578063d5f50582146100b2578063eb12d61e146100e2575b600080fd5b61007660048036038101906100719190610b04565b6100fe565b005b610092600480360381019061008d9190610d0d565b6102e9565b005b61009c610424565b6040516100a99190610dd2565b60405180910390f35b6100cc60048036038101906100c79190610b04565b610448565b6040516100d99190610e08565b60405180910390f35b6100fc60048036038101906100f79190610b04565b61049e565b005b600073ffffffffffffffffffffffffffffffffffffffff163373ffffffffffffffffffffffffffffffffffffffff16141561016e576040517f08c379a000000000000000000000000000000000000000000000000000000000815260040161016590610e80565b60405180910390fd5b60008054906101000a900473ffffffffffffffffffffffffffffffffffffffff1673ffffffffffffffffffffffffffffffffffffffff163373ffffffffffffffffffffffffffffffffffffffff16146101fc576040517f08c379a00000000000000000000000000000000000000000000000000000000081526004016101f390610f12565b60405180910390fd5b6001151561020982610448565b15151461024b576040517f08c379a000000000000000000000000000000000000000000000000000000000815260040161024290610f7e565b60405180910390fd5b6000600160008373ffffffffffffffffffffffffffffffffffffffff1673ffffffffffffffffffffffffffffffffffffffff16815260200190815260200160002060006101000a81548160ff0219169083151502179055508073ffffffffffffffffffffffffffffffffffffffff167f3525e22824a8a7df2c9a6029941c824cf95b6447f1e13d5128fd3826d35afe8b60405160405180910390a250565b600084805190602001209050600060035482868686604051602001610312959493929190611032565b604051602081830303815290604052805190602001209050600061038b89898080601f016020809104026020016040519081016040528093929190818152602001838380828437600081840152601f19601f8201169050808301925050505050505061037d84610688565b6106b890919063ffffffff16565b9050600160008273ffffffffffffffffffffffffffffffffffffffff1673ffffffffffffffffffffffffffffffffffffffff16815260200190815260200160002060009054906101000a900460ff16610419576040517f08c379a000000000000000000000000000000000000000000000000000000000815260040161041090611103565b60405180910390fd5b505050505050505050565b60008054906101000a900473ffffffffffffffffffffffffffffffffffffffff1681565b6000600160008373ffffffffffffffffffffffffffffffffffffffff1673ffffffffffffffffffffffffffffffffffffffff16815260200190815260200160002060009054906101000a900460ff169050919050565b600073ffffffffffffffffffffffffffffffffffffffff163373ffffffffffffffffffffffffffffffffffffffff16141561050e576040517f08c379a000000000000000000000000000000000000000000000000000000000815260040161050590610e80565b60405180910390fd5b60008054906101000a900473ffffffffffffffffffffffffffffffffffffffff1673ffffffffffffffffffffffffffffffffffffffff163373ffffffffffffffffffffffffffffffffffffffff161461059c576040517f08c379a000000000000000000000000000000000000000000000000000000000815260040161059390610f12565b60405180910390fd5b600015156105a982610448565b1515146105eb576040517f08c379a00000000000000000000000000000000000000000000000000000000081526004016105e29061116f565b60405180910390fd5b60018060008373ffffffffffffffffffffffffffffffffffffffff1673ffffffffffffffffffffffffffffffffffffffff16815260200190815260200160002060006101000a81548160ff0219169083151502179055508073ffffffffffffffffffffffffffffffffffffffff167f47d1c22a25bb3a5d4e481b9b1e6944c2eade3181a0a20b495ed61d35b5323f2460405160405180910390a250565b60008160405160200161069b91906111e6565b604051602081830303815290604052805190602001209050919050565b60008060006106c785856106df565b915091506106d481610762565b819250505092915050565b6000806041835114156107215760008060006020860151925060408601519150606086015160001a905061071587828585610937565b9450945050505061075b565b604083511415610752576000806020850151915060408501519050610747868383610a44565b93509350505061075b565b60006002915091505b9250929050565b600060048111156107765761077561120c565b5b8160048111156107895761078861120c565b5b141561079457610934565b600160048111156107a8576107a761120c565b5b8160048111156107bb576107ba61120c565b5b14156107fc576040517f08c379a00000000000000000000000000000000000000000000000000000000081526004016107f390611287565b60405180910390fd5b600260048111156108105761080f61120c565b5b8160048111156108235761082261120c565b5b1415610864576040517f08c379a000000000000000000000000000000000000000000000000000000000815260040161085b906112f3565b60405180910390fd5b600360048111156108785761087761120c565b5b81600481111561088b5761088a61120c565b5b14156108cc576040517f08c379a00000000000000000000000000000000000000000000000000000000081526004016108c390611385565b60405180910390fd5b6004808111156108df576108de61120c565b5b8160048111156108f2576108f161120c565b5b1415610933576040517f08c379a000000000000000000000000000000000000000000000000000000000815260040161092a90611417565b60405180910390fd5b5b50565b6000807f7fffffffffffffffffffffffffffffff5d576e7357a4501ddfe92f46681b20a08360001c1115610972576000600391509150610a3b565b601b8560ff161415801561098a5750601c8560ff1614155b1561099c576000600491509150610a3b565b6000600187878787604051600081526020016040526040516109c19493929190611462565b6020604051602081039080840390855afa1580156109e3573d6000803e3d6000fd5b505050602060405103519050600073ffffffffffffffffffffffffffffffffffffffff168173ffffffffffffffffffffffffffffffffffffffff161415610a3257600060019250925050610a3b565b80600092509250505b94509492505050565b6000806000807f7fffffffffffffffffffffffffffffffffffffffffffffffffffffffffffffff85169150601b8560ff1c019050610a8487828885610937565b935093505050935093915050565b6000604051905090565b600080fd5b600080fd5b600073ffffffffffffffffffffffffffffffffffffffff82169050919050565b6000610ad182610aa6565b9050919050565b610ae181610ac6565b8114610aec57600080fd5b50565b600081359050610afe81610ad8565b92915050565b600060208284031215610b1a57610b19610a9c565b5b6000610b2884828501610aef565b91505092915050565b600080fd5b600080fd5b600080fd5b60008083601f840112610b5657610b55610b31565b5b8235905067ffffffffffffffff811115610b7357610b72610b36565b5b602083019150836001820283011115610b8f57610b8e610b3b565b5b9250929050565b600080fd5b6000601f19601f8301169050919050565b7f4e487b7100000000000000000000000000000000000000000000000000000000600052604160045260246000fd5b610be482610b9b565b810181811067ffffffffffffffff82111715610c0357610c02610bac565b5b80604052505050565b6000610c16610a92565b9050610c228282610bdb565b919050565b600067ffffffffffffffff821115610c4257610c41610bac565b5b610c4b82610b9b565b9050602081019050919050565b82818337600083830152505050565b6000610c7a610c7584610c27565b610c0c565b905082815260208101848484011115610c9657610c95610b96565b5b610ca1848285610c58565b509392505050565b600082601f830112610cbe57610cbd610b31565b5b8135610cce848260208601610c67565b91505092915050565b6000819050919050565b610cea81610cd7565b8114610cf557600080fd5b50565b600081359050610d0781610ce1565b92915050565b60008060008060008060a08789031215610d2a57610d29610a9c565b5b600087013567ffffffffffffffff811115610d4857610d47610aa1565b5b610d5489828a01610b40565b9650965050602087013567ffffffffffffffff811115610d7757610d76610aa1565b5b610d8389828a01610ca9565b9450506040610d9489828a01610aef565b9350506060610da589828a01610cf8565b9250506080610db689828a01610cf8565b9150509295509295509295565b610dcc81610ac6565b82525050565b6000602082019050610de76000830184610dc3565b92915050565b60008115159050919050565b610e0281610ded565b82525050565b6000602082019050610e1d6000830184610df9565b92915050565b600082825260208201905092915050565b7f63616e206e6f7420757365207a65726f20616464726573730000000000000000600082015250565b6000610e6a601883610e23565b9150610e7582610e34565b602082019050919050565b60006020820190508181036000830152610e9981610e5d565b9050919050565b7f6f6e6c7920746865206f776e65722063616e2063616c6c20746869732066756e60008201527f6374696f6e000000000000000000000000000000000000000000000000000000602082015250565b6000610efc602583610e23565b9150610f0782610ea0565b604082019050919050565b60006020820190508181036000830152610f2b81610eef565b9050919050565b7f746869732061646472657373206973206e6f742061207369676e657200000000600082015250565b6000610f68601c83610e23565b9150610f7382610f32565b602082019050919050565b60006020820190508181036000830152610f9781610f5b565b9050919050565b6000819050919050565b6000819050919050565b610fc3610fbe82610f9e565b610fa8565b82525050565b60008160601b9050919050565b6000610fe182610fc9565b9050919050565b6000610ff382610fd6565b9050919050565b61100b61100682610ac6565b610fe8565b82525050565b6000819050919050565b61102c61102782610cd7565b611011565b82525050565b600061103e8288610fb2565b60208201915061104e8287610fb2565b60208201915061105e8286610ffa565b60148201915061106e828561101b565b60208201915061107e828461101b565b6020820191508190509695505050505050565b7f43616e206f6e6c79207375626d697474656420627920617574686f72697a656460008201527f207369676e657200000000000000000000000000000000000000000000000000602082015250565b60006110ed602783610e23565b91506110f882611091565b604082019050919050565b6000602082019050818103600083015261111c816110e0565b9050919050565b7f74686973206164647265737320697320616c72656164792061207369676e6572600082015250565b6000611159602083610e23565b915061116482611123565b602082019050919050565b600060208201905081810360008301526111888161114c565b9050919050565b600081905092915050565b7f19457468657265756d205369676e6564204d6573736167653a0a333200000000600082015250565b60006111d0601c8361118f565b91506111db8261119a565b601c82019050919050565b60006111f1826111c3565b91506111fd8284610fb2565b60208201915081905092915050565b7f4e487b7100000000000000000000000000000000000000000000000000000000600052602160045260246000fd5b7f45434453413a20696e76616c6964207369676e61747572650000000000000000600082015250565b6000611271601883610e23565b915061127c8261123b565b602082019050919050565b600060208201905081810360008301526112a081611264565b9050919050565b7f45434453413a20696e76616c6964207369676e6174757265206c656e67746800600082015250565b60006112dd601f83610e23565b91506112e8826112a7565b602082019050919050565b6000602082019050818103600083015261130c816112d0565b9050919050565b7f45434453413a20696e76616c6964207369676e6174757265202773272076616c60008201527f7565000000000000000000000000000000000000000000000000000000000000602082015250565b600061136f602283610e23565b915061137a82611313565b604082019050919050565b6000602082019050818103600083015261139e81611362565b9050919050565b7f45434453413a20696e76616c6964207369676e6174757265202776272076616c60008201527f7565000000000000000000000000000000000000000000000000000000000000602082015250565b6000611401602283610e23565b915061140c826113a5565b604082019050919050565b60006020820190508181036000830152611430816113f4565b9050919050565b61144081610f9e565b82525050565b600060ff82169050919050565b61145c81611446565b82525050565b60006080820190506114776000830187611437565b6114846020830186611453565b6114916040830185611437565b61149e6060830184611437565b9594505050505056fea2646970667358221220fb109de6909f5680a06127c4b6ae4356bec9a926064c302f5dd6590a8784447f64736f6c63430008090033",
  "immutableReferences": {},
  "source": "// SPDX-License-Identifier: MIT\npragma solidity 0.8.9;\n\nimport \"./interfaces/ISigManager.sol\";\nimport \"@openzeppelin/contracts/utils/cryptography/draft-EIP712.sol\";\n\n/**\n * @title  Signature Manager\n * @notice Signature is used when submitting new applications.\n *         The premium should be decided by the pricing model and be signed by a private key.\n *         Other submission will not be accepted.\n *         Please keep the signer key safe.\n */\ncontract SigManager is ISigManager {\n    using ECDSA for bytes32;\n\n    address public owner;\n\n    mapping(address => bool) _isValidSigner;\n\n    bytes32 internal _SUBMIT_APPLICATION_TYPEHASH;\n    bytes32 internal _SUBMIT_CLAIM_TYPEHASH;\n\n    /**\n     *\n     */\n    constructor() {\n        owner = msg.sender;\n\n        _SUBMIT_APPLICATION_TYPEHASH = keccak256(\n            \"5G is great, physical lab is difficult to find\"\n        );\n    }\n\n    modifier onlyOwner() {\n        require(msg.sender == owner, \"only the owner can call this function\");\n        _;\n    }\n\n    modifier notZeroAddress() {\n        require(msg.sender != address(0), \"can not use zero address\");\n        _;\n    }\n\n    /**\n     * @notice Add a signer into valid signer list\n     * @param _newSigner The new signer address\n     */\n    function addSigner(address _newSigner) external notZeroAddress onlyOwner {\n        require(\n            isValidSigner(_newSigner) == false,\n            \"this address is already a signer\"\n        );\n        _isValidSigner[_newSigner] = true;\n        emit SignerAdded(_newSigner);\n    }\n\n    /**\n     * @notice Remove a signer from the valid signer list\n     * @param _oldSigner The old signer address to be removed\n     */\n    function removeSigner(address _oldSigner)\n        external\n        notZeroAddress\n        onlyOwner\n    {\n        require(\n            isValidSigner(_oldSigner) == true,\n            \"this address is not a signer\"\n        );\n        _isValidSigner[_oldSigner] = false;\n        emit SignerRemoved(_oldSigner);\n    }\n\n    /**\n     * @notice Check whether the address is a valid signer\n     * @param _address The input address\n     * @return isValidSigner Whether this address is\n     */\n    function isValidSigner(address _address) public view returns (bool) {\n        return _isValidSigner[_address];\n    }\n\n    /**\n     * @notice Check signature when buying a new policy (avoid arbitrary premium amount)\n     * @param signature 65 byte array: [[v (1)], [r (32)], [s (32)]]\n     * @param _flightNumber Flight number\n     * @param _userAddress User address\n     * @param _premium Policy premium\n     * @param _deadline Deadline of a policy\n     */\n    function checkSignature(\n        bytes calldata signature,\n        string memory _flightNumber,\n        address _userAddress,\n        uint256 _premium,\n        uint256 _deadline\n    ) external view {\n        bytes32 hashedFlightNumber = keccak256(bytes(_flightNumber));\n        bytes32 hashData = keccak256(\n            abi.encodePacked(\n                _SUBMIT_CLAIM_TYPEHASH,\n                hashedFlightNumber,\n                _userAddress,\n                _premium,\n                _deadline\n            )\n        );\n        address signer = hashData.toEthSignedMessageHash().recover(signature);\n        require(\n            _isValidSigner[signer],\n            \"Can only submitted by authorized signer\"\n        );\n    }\n}\n",
  "sourcePath": "/Volumes/Store/src/Degis-Contracts-1/contracts/SigManager.sol",
  "compiler": {
    "name": "solc",
    "version": "0.8.9+commit.e5eed63a.Emscripten.clang"
  },
  "schemaVersion": "3.4.3",
  "updatedAt": "2021-12-03T13:07:36.222Z",
  "networkType": "ethereum",
  "devdoc": {
    "kind": "dev",
    "methods": {
      "addSigner(address)": {
        "params": {
          "_newSigner": "The new signer address"
        }
      },
      "checkSignature(bytes,string,address,uint256,uint256)": {
        "params": {
          "_deadline": "Deadline of a policy",
          "_flightNumber": "Flight number",
          "_premium": "Policy premium",
          "_userAddress": "User address",
          "signature": "65 byte array: [[v (1)], [r (32)], [s (32)]]"
        }
      },
      "isValidSigner(address)": {
        "params": {
          "_address": "The input address"
        },
        "returns": {
          "_0": "isValidSigner Whether this address is"
        }
      },
      "removeSigner(address)": {
        "params": {
          "_oldSigner": "The old signer address to be removed"
        }
      }
    },
    "title": "Signature Manager",
    "version": 1
  },
  "userdoc": {
    "kind": "user",
    "methods": {
      "addSigner(address)": {
        "notice": "Add a signer into valid signer list"
      },
      "checkSignature(bytes,string,address,uint256,uint256)": {
        "notice": "Check signature when buying a new policy (avoid arbitrary premium amount)"
      },
      "isValidSigner(address)": {
        "notice": "Check whether the address is a valid signer"
      },
      "removeSigner(address)": {
        "notice": "Remove a signer from the valid signer list"
      }
    },
    "notice": "Signature is used when submitting new applications.         The premium should be decided by the pricing model and be signed by a private key.         Other submission will not be accepted.         Please keep the signer key safe.",
    "version": 1
  }
}