{
  "contractName": "ToStrings",
  "abi": [
    {
      "inputs": [
        {
          "internalType": "address",
          "name": "_addr",
          "type": "address"
        }
      ],
      "name": "addressToString",
      "outputs": [
        {
          "internalType": "string",
          "name": "",
          "type": "string"
        }
      ],
      "stateMutability": "pure",
      "type": "function"
    },
    {
      "inputs": [
        {
          "internalType": "bytes32",
          "name": "_bytes",
          "type": "bytes32"
        }
      ],
      "name": "bytes32ToString",
      "outputs": [
        {
          "internalType": "string",
          "name": "",
          "type": "string"
        }
      ],
      "stateMutability": "pure",
      "type": "function"
    },
    {
      "inputs": [
        {
          "internalType": "bytes32",
          "name": "_bytes",
          "type": "bytes32"
        }
      ],
      "name": "bytes32ToHumanString",
      "outputs": [
        {
          "internalType": "string",
          "name": "",
          "type": "string"
        }
      ],
      "stateMutability": "pure",
      "type": "function"
    },
    {
      "inputs": [
        {
          "internalType": "bytes32",
          "name": "s",
          "type": "bytes32"
        }
      ],
      "name": "bytesToUint",
      "outputs": [
        {
          "internalType": "uint256",
          "name": "",
          "type": "uint256"
        }
      ],
      "stateMutability": "pure",
      "type": "function"
    },
    {
      "inputs": [
        {
          "internalType": "uint256",
          "name": "_order",
          "type": "uint256"
        },
        {
          "internalType": "string",
          "name": "_flightNumber",
          "type": "string"
        },
        {
          "internalType": "uint256",
          "name": "_policyId",
          "type": "uint256"
        },
        {
          "internalType": "uint256",
          "name": "_productId",
          "type": "uint256"
        },
        {
          "internalType": "address",
          "name": "_userAddress",
          "type": "address"
        }
      ],
      "name": "encodePack1",
      "outputs": [
        {
          "internalType": "string",
          "name": "_result1",
          "type": "string"
        }
      ],
      "stateMutability": "pure",
      "type": "function"
    },
    {
      "inputs": [
        {
          "internalType": "uint256",
          "name": "_premium",
          "type": "uint256"
        },
        {
          "internalType": "uint256",
          "name": "_payoff",
          "type": "uint256"
        },
        {
          "internalType": "uint256",
          "name": "_purchaseDate",
          "type": "uint256"
        },
        {
          "internalType": "uint256",
          "name": "_departureDate",
          "type": "uint256"
        },
        {
          "internalType": "uint256",
          "name": "_landingDate",
          "type": "uint256"
        },
        {
          "internalType": "uint256",
          "name": "_status",
          "type": "uint256"
        },
        {
          "internalType": "string",
          "name": "_isUsed",
          "type": "string"
        },
        {
          "internalType": "uint256",
          "name": "_delayResult",
          "type": "uint256"
        }
      ],
      "name": "encodePack2",
      "outputs": [
        {
          "internalType": "string",
          "name": "_result2",
          "type": "string"
        }
      ],
      "stateMutability": "pure",
      "type": "function"
    }
  ],
  "bytecode": "0x608060405234801561001057600080fd5b5061167b806100206000396000f3fe608060405234801561001057600080fd5b50600436106100625760003560e01c80630f4e47e9146100675780635890b484146100975780635e57966d146100c75780639201de55146100f7578063cfc5a96914610127578063e25f3fc814610157575b600080fd5b610081600480360381019061007c9190610a6c565b610187565b60405161008e9190610bc6565b60405180910390f35b6100b160048036038101906100ac9190610c46565b610223565b6040516100be9190610bc6565b60405180910390f35b6100e160048036038101906100dc9190610cdd565b610278565b6040516100ee9190610bc6565b60405180910390f35b610111600480360381019061010c9190610d40565b6102ab565b60405161011e9190610bc6565b60405180910390f35b610141600480360381019061013c9190610d40565b6102cb565b60405161014e9190610d7c565b60405180910390f35b610171600480360381019061016c9190610d40565b610469565b60405161017e9190610bc6565b60405180910390f35b60606101a5670de0b6b3a76400008a6101a09190610df5565b61053f565b6101c1670de0b6b3a76400008a6101bc9190610df5565b61053f565b6101ca8961053f565b6101d38961053f565b6101dc8961053f565b6101e58961053f565b886101ef8961053f565b60405160200161020698979695949392919061110e565b604051602081830303815290604052905098975050505050505050565b606061022e8661053f565b856102388661053f565b6102418661053f565b61024a86610278565b60405160200161025e95949392919061135f565b604051602081830303815290604052905095945050505050565b60606102a460148373ffffffffffffffffffffffffffffffffffffffff166106a090919063ffffffff16565b9050919050565b60606102c460208360001c6106a090919063ffffffff16565b9050919050565b600080602067ffffffffffffffff8111156102e9576102e8610941565b5b6040519080825280601f01601f19166020018201604052801561031b5781602001600182028036833780820191505090505b50905060005b60208110156103965783816020811061033d5761033c6113e1565b5b1a60f81b828281518110610354576103536113e1565b5b60200101907effffffffffffffffffffffffffffffffffffffffffffffffffffffffffffff1916908160001a905350808061038e90611410565b915050610321565b506000805b825181101561045e5760308382815181106103b9576103b86113e1565b5b602001015160f81c60f81b60f81c60ff16101580156103fc575060398382815181106103e8576103e76113e1565b5b602001015160f81c60f81b60f81c60ff1611155b1561044b576030838281518110610416576104156113e1565b5b602001015160f81c60f81b60f81c61042e9190611466565b60ff16600a8361043e919061149a565b61044891906114f4565b91505b808061045690611410565b91505061039b565b508092505050919050565b60606000602067ffffffffffffffff81111561048857610487610941565b5b6040519080825280601f01601f1916602001820160405280156104ba5781602001600182028036833780820191505090505b50905060005b6020811015610535578381602081106104dc576104db6113e1565b5b1a60f81b8282815181106104f3576104f26113e1565b5b60200101907effffffffffffffffffffffffffffffffffffffffffffffffffffffffffffff1916908160001a905350808061052d90611410565b9150506104c0565b5080915050919050565b60606000821415610587576040518060400160405280600181526020017f3000000000000000000000000000000000000000000000000000000000000000815250905061069b565b600082905060005b600082146105b95780806105a290611410565b915050600a826105b29190610df5565b915061058f565b60008167ffffffffffffffff8111156105d5576105d4610941565b5b6040519080825280601f01601f1916602001820160405280156106075781602001600182028036833780820191505090505b5090505b6000851461069457600182610620919061154a565b9150600a8561062f919061157e565b603061063b91906114f4565b60f81b818381518110610651576106506113e1565b5b60200101907effffffffffffffffffffffffffffffffffffffffffffffffffffffffffffff1916908160001a905350600a8561068d9190610df5565b945061060b565b8093505050505b919050565b6060600060028360026106b3919061149a565b6106bd91906114f4565b67ffffffffffffffff8111156106d6576106d5610941565b5b6040519080825280601f01601f1916602001820160405280156107085781602001600182028036833780820191505090505b5090507f3000000000000000000000000000000000000000000000000000000000000000816000815181106107405761073f6113e1565b5b60200101907effffffffffffffffffffffffffffffffffffffffffffffffffffffffffffff1916908160001a9053507f7800000000000000000000000000000000000000000000000000000000000000816001815181106107a4576107a36113e1565b5b60200101907effffffffffffffffffffffffffffffffffffffffffffffffffffffffffffff1916908160001a905350600060018460026107e4919061149a565b6107ee91906114f4565b90505b600181111561088e577f3031323334353637383961626364656600000000000000000000000000000000600f8616601081106108305761082f6113e1565b5b1a60f81b828281518110610847576108466113e1565b5b60200101907effffffffffffffffffffffffffffffffffffffffffffffffffffffffffffff1916908160001a905350600485901c945080610887906115af565b90506107f1565b50600084146108d2576040517f08c379a00000000000000000000000000000000000000000000000000000000081526004016108c990611625565b60405180910390fd5b8091505092915050565b6000604051905090565b600080fd5b600080fd5b6000819050919050565b610903816108f0565b811461090e57600080fd5b50565b600081359050610920816108fa565b92915050565b600080fd5b600080fd5b6000601f19601f8301169050919050565b7f4e487b7100000000000000000000000000000000000000000000000000000000600052604160045260246000fd5b61097982610930565b810181811067ffffffffffffffff8211171561099857610997610941565b5b80604052505050565b60006109ab6108dc565b90506109b78282610970565b919050565b600067ffffffffffffffff8211156109d7576109d6610941565b5b6109e082610930565b9050602081019050919050565b82818337600083830152505050565b6000610a0f610a0a846109bc565b6109a1565b905082815260208101848484011115610a2b57610a2a61092b565b5b610a368482856109ed565b509392505050565b600082601f830112610a5357610a52610926565b5b8135610a638482602086016109fc565b91505092915050565b600080600080600080600080610100898b031215610a8d57610a8c6108e6565b5b6000610a9b8b828c01610911565b9850506020610aac8b828c01610911565b9750506040610abd8b828c01610911565b9650506060610ace8b828c01610911565b9550506080610adf8b828c01610911565b94505060a0610af08b828c01610911565b93505060c089013567ffffffffffffffff811115610b1157610b106108eb565b5b610b1d8b828c01610a3e565b92505060e0610b2e8b828c01610911565b9150509295985092959890939650565b600081519050919050565b600082825260208201905092915050565b60005b83811015610b78578082015181840152602081019050610b5d565b83811115610b87576000848401525b50505050565b6000610b9882610b3e565b610ba28185610b49565b9350610bb2818560208601610b5a565b610bbb81610930565b840191505092915050565b60006020820190508181036000830152610be08184610b8d565b905092915050565b600073ffffffffffffffffffffffffffffffffffffffff82169050919050565b6000610c1382610be8565b9050919050565b610c2381610c08565b8114610c2e57600080fd5b50565b600081359050610c4081610c1a565b92915050565b600080600080600060a08688031215610c6257610c616108e6565b5b6000610c7088828901610911565b955050602086013567ffffffffffffffff811115610c9157610c906108eb565b5b610c9d88828901610a3e565b9450506040610cae88828901610911565b9350506060610cbf88828901610911565b9250506080610cd088828901610c31565b9150509295509295909350565b600060208284031215610cf357610cf26108e6565b5b6000610d0184828501610c31565b91505092915050565b6000819050919050565b610d1d81610d0a565b8114610d2857600080fd5b50565b600081359050610d3a81610d14565b92915050565b600060208284031215610d5657610d556108e6565b5b6000610d6484828501610d2b565b91505092915050565b610d76816108f0565b82525050565b6000602082019050610d916000830184610d6d565b92915050565b7f4e487b7100000000000000000000000000000000000000000000000000000000600052601260045260246000fd5b7f4e487b7100000000000000000000000000000000000000000000000000000000600052601160045260246000fd5b6000610e00826108f0565b9150610e0b836108f0565b925082610e1b57610e1a610d97565b5b828204905092915050565b600081905092915050565b7f2c200a5072656d69756d3a200000000000000000000000000000000000000000600082015250565b6000610e67600c83610e26565b9150610e7282610e31565b600c82019050919050565b6000610e8882610b3e565b610e928185610e26565b9350610ea2818560208601610b5a565b80840191505092915050565b7f2c200a5061796f66663a20000000000000000000000000000000000000000000600082015250565b6000610ee4600b83610e26565b9150610eef82610eae565b600b82019050919050565b7f2c200a5075726368617365446174653a20000000000000000000000000000000600082015250565b6000610f30601183610e26565b9150610f3b82610efa565b601182019050919050565b7f2c200a446570617274757265446174653a200000000000000000000000000000600082015250565b6000610f7c601283610e26565b9150610f8782610f46565b601282019050919050565b7f2c200a4c616e64696e67446174653a2000000000000000000000000000000000600082015250565b6000610fc8601083610e26565b9150610fd382610f92565b601082019050919050565b7f2c200a5374617475733a20000000000000000000000000000000000000000000600082015250565b6000611014600b83610e26565b915061101f82610fde565b600b82019050919050565b7f2c200a4973557365643a20000000000000000000000000000000000000000000600082015250565b6000611060600b83610e26565b915061106b8261102a565b600b82019050919050565b7f2c200a44656c617920526573756c74733a200000000000000000000000000000600082015250565b60006110ac601283610e26565b91506110b782611076565b601282019050919050565b7f7d00000000000000000000000000000000000000000000000000000000000000600082015250565b60006110f8600183610e26565b9150611103826110c2565b600182019050919050565b600061111982610e5a565b9150611125828b610e7d565b915061113082610ed7565b915061113c828a610e7d565b915061114782610f23565b91506111538289610e7d565b915061115e82610f6f565b915061116a8288610e7d565b915061117582610fbb565b91506111818287610e7d565b915061118c82611007565b91506111988286610e7d565b91506111a382611053565b91506111af8285610e7d565b91506111ba8261109f565b91506111c68284610e7d565b91506111d1826110eb565b91508190509998505050505050505050565b7f0a506f6c69637900000000000000000000000000000000000000000000000000600082015250565b6000611219600783610e26565b9150611224826111e3565b600782019050919050565b7f3a200a7b466c696768744e756d6265723a200000000000000000000000000000600082015250565b6000611265601283610e26565b91506112708261122f565b601282019050919050565b7f3a200a506f6c69637949643a2000000000000000000000000000000000000000600082015250565b60006112b1600d83610e26565b91506112bc8261127b565b600d82019050919050565b7f2c200a50726f6475637449643a20000000000000000000000000000000000000600082015250565b60006112fd600e83610e26565b9150611308826112c7565b600e82019050919050565b7f2c200a4275796572416464726573733a20000000000000000000000000000000600082015250565b6000611349601183610e26565b915061135482611313565b601182019050919050565b600061136a8261120c565b91506113768288610e7d565b915061138182611258565b915061138d8287610e7d565b9150611398826112a4565b91506113a48286610e7d565b91506113af826112f0565b91506113bb8285610e7d565b91506113c68261133c565b91506113d28284610e7d565b91508190509695505050505050565b7f4e487b7100000000000000000000000000000000000000000000000000000000600052603260045260246000fd5b600061141b826108f0565b91507fffffffffffffffffffffffffffffffffffffffffffffffffffffffffffffffff82141561144e5761144d610dc6565b5b600182019050919050565b600060ff82169050919050565b600061147182611459565b915061147c83611459565b92508282101561148f5761148e610dc6565b5b828203905092915050565b60006114a5826108f0565b91506114b0836108f0565b9250817fffffffffffffffffffffffffffffffffffffffffffffffffffffffffffffffff04831182151516156114e9576114e8610dc6565b5b828202905092915050565b60006114ff826108f0565b915061150a836108f0565b9250827fffffffffffffffffffffffffffffffffffffffffffffffffffffffffffffffff0382111561153f5761153e610dc6565b5b828201905092915050565b6000611555826108f0565b9150611560836108f0565b92508282101561157357611572610dc6565b5b828203905092915050565b6000611589826108f0565b9150611594836108f0565b9250826115a4576115a3610d97565b5b828206905092915050565b60006115ba826108f0565b915060008214156115ce576115cd610dc6565b5b600182039050919050565b7f537472696e67733a20686578206c656e67746820696e73756666696369656e74600082015250565b600061160f602083610b49565b915061161a826115d9565b602082019050919050565b6000602082019050818103600083015261163e81611602565b905091905056fea26469706673582212202e59f3bedbeb006f684b2caf2e8b6f51844be6fd2daadf2c82a39f34ff94241c64736f6c63430008090033",
  "immutableReferences": {},
  "source": "// SPDX-License-Identifier: MIT\npragma solidity ^0.8.0;\nimport \"@openzeppelin/contracts/utils/Strings.sol\";\n\ncontract ToStrings {\n    using Strings for uint256;\n\n    /**\n     * @notice transfer an address to a string\n     * @param _addr: input address\n     * @return string form of _addr\n     */\n    function addressToString(address _addr)\n        public\n        pure\n        returns (string memory)\n    {\n        return (uint256(uint160(_addr))).toHexString(20);\n    }\n\n    /**\n     * @notice transfer bytes32 to string (not change the content)\n     * @param _bytes: input bytes32\n     * @return string form of _bytes\n     */\n    function bytes32ToString(bytes32 _bytes)\n        public\n        pure\n        returns (string memory)\n    {\n        return (uint256(_bytes)).toHexString(32);\n    }\n\n    /**\n     * @notice transfer bytes32 to string (human-readable form)\n     * @param _bytes: input bytes32\n     * @return string form of _bytes\n     */\n    function bytes32ToHumanString(bytes32 _bytes)\n        public\n        pure\n        returns (string memory)\n    {\n        bytes memory bytesArray = new bytes(32);\n        for (uint256 i; i < 32; i++) {\n            bytesArray[i] = _bytes[i];\n        }\n        return string(bytesArray);\n    }\n\n    /**\n     * @notice Transfer a bytes(ascii) to uint\n     * @param s input bytes\n     * @return the number\n     */\n    function bytesToUint(bytes32 s) public pure returns (uint256) {\n        bytes memory b = new bytes(32);\n        for (uint256 i; i < 32; i++) {\n            b[i] = s[i];\n        }\n        uint256 result = 0;\n        for (uint256 i = 0; i < b.length; i++) {\n            if (uint8(b[i]) >= 48 && uint8(b[i]) <= 57) {\n                result = result * 10 + (uint8(b[i]) - 48);\n            }\n        }\n        return result;\n    }\n\n    /**\n     * @notice Just a function for encodePacked some strings\n     */\n    function encodePack1(\n        uint256 _order,\n        string memory _flightNumber,\n        uint256 _policyId,\n        uint256 _productId,\n        address _userAddress\n    ) public pure returns (string memory _result1) {\n        _result1 = string(\n            abi.encodePacked(\n                \"\\nPolicy\",\n                _order.toString(),\n                \": \\n{FlightNumber: \",\n                _flightNumber,\n                \": \\nPolicyId: \",\n                _policyId.toString(),\n                \", \\nProductId: \",\n                _productId.toString(),\n                \", \\nBuyerAddress: \",\n                addressToString(_userAddress)\n            )\n        );\n    }\n\n    function encodePack2(\n        uint256 _premium,\n        uint256 _payoff,\n        uint256 _purchaseDate,\n        uint256 _departureDate,\n        uint256 _landingDate,\n        uint256 _status,\n        string memory _isUsed,\n        uint256 _delayResult\n    ) public pure returns (string memory _result2) {\n        _result2 = string(\n            abi.encodePacked(\n                \", \\nPremium: \",\n                (_premium / 10**18).toString(),\n                \", \\nPayoff: \",\n                (_payoff / 10**18).toString(),\n                \", \\nPurchaseDate: \",\n                (_purchaseDate).toString(),\n                \", \\nDepartureDate: \",\n                (_departureDate).toString(),\n                \", \\nLandingDate: \",\n                (_landingDate).toString(),\n                \", \\nStatus: \",\n                uint256(_status).toString(),\n                \", \\nIsUsed: \",\n                _isUsed,\n                \", \\nDelay Results: \",\n                _delayResult.toString(),\n                \"}\"\n            )\n        );\n    }\n}\n",
  "sourcePath": "/Volumes/Store/src/Degis-Contracts-1/contracts/libraries/ToStrings.sol",
  "compiler": {
    "name": "solc",
    "version": "0.8.9+commit.e5eed63a.Emscripten.clang"
  },
  "schemaVersion": "3.4.3",
  "updatedAt": "2021-12-02T08:12:03.753Z",
  "devdoc": {
    "kind": "dev",
    "methods": {
      "addressToString(address)": {
        "params": {
          "_addr": ": input address"
        },
        "returns": {
          "_0": "string form of _addr"
        }
      },
      "bytes32ToHumanString(bytes32)": {
        "params": {
          "_bytes": ": input bytes32"
        },
        "returns": {
          "_0": "string form of _bytes"
        }
      },
      "bytes32ToString(bytes32)": {
        "params": {
          "_bytes": ": input bytes32"
        },
        "returns": {
          "_0": "string form of _bytes"
        }
      },
      "bytesToUint(bytes32)": {
        "params": {
          "s": "input bytes"
        },
        "returns": {
          "_0": "the number"
        }
      }
    },
    "version": 1
  },
  "userdoc": {
    "kind": "user",
    "methods": {
      "addressToString(address)": {
        "notice": "transfer an address to a string"
      },
      "bytes32ToHumanString(bytes32)": {
        "notice": "transfer bytes32 to string (human-readable form)"
      },
      "bytes32ToString(bytes32)": {
        "notice": "transfer bytes32 to string (not change the content)"
      },
      "bytesToUint(bytes32)": {
        "notice": "Transfer a bytes(ascii) to uint"
      },
      "encodePack1(uint256,string,uint256,uint256,address)": {
        "notice": "Just a function for encodePacked some strings"
      }
    },
    "version": 1
  }
}