{
  "contractName": "NaughtyLibrary",
  "abi": [
    {
      "inputs": [
        {
          "internalType": "address",
          "name": "factory",
          "type": "address"
        },
        {
          "internalType": "address",
          "name": "tokenA",
          "type": "address"
        },
        {
          "internalType": "address",
          "name": "tokenB",
          "type": "address"
        }
      ],
      "name": "getReserves",
      "outputs": [
        {
          "internalType": "uint112",
          "name": "reserve0",
          "type": "uint112"
        },
        {
          "internalType": "uint112",
          "name": "reserve1",
          "type": "uint112"
        }
      ],
      "stateMutability": "view",
      "type": "function",
      "constant": true
    },
    {
      "inputs": [
        {
          "internalType": "address",
          "name": "factory",
          "type": "address"
        },
        {
          "internalType": "address",
          "name": "tokenA",
          "type": "address"
        },
        {
          "internalType": "address",
          "name": "tokenB",
          "type": "address"
        }
      ],
      "name": "getPairAddress",
      "outputs": [
        {
          "internalType": "address",
          "name": "",
          "type": "address"
        }
      ],
      "stateMutability": "view",
      "type": "function",
      "constant": true
    },
    {
      "inputs": [
        {
          "internalType": "address",
          "name": "policyCore",
          "type": "address"
        },
        {
          "internalType": "address",
          "name": "_coinAddress",
          "type": "address"
        }
      ],
      "name": "checkStablecoin",
      "outputs": [
        {
          "internalType": "bool",
          "name": "",
          "type": "bool"
        }
      ],
      "stateMutability": "view",
      "type": "function",
      "constant": true
    }
  ],
  "bytecode": "0x610718610053600b82828239805160001a607314610046577f4e487b7100000000000000000000000000000000000000000000000000000000600052600060045260246000fd5b30600052607381538281f3fe73000000000000000000000000000000000000000030146080604052600436106100565760003560e01c8063327494611461005b578063524d01f814610093578063a327a361146100be578063bf4a1b5f146100e0575b600080fd5b61006e610069366004610426565b610103565b604080516001600160701b039384168152929091166020830152015b60405180910390f35b6100a66100a1366004610426565b61020b565b6040516001600160a01b03909116815260200161008a565b8180156100ca57600080fd5b506100de6100d9366004610471565b61029a565b005b6100f36100ee3660046104d9565b61038a565b604051901515815260200161008a565b60405163b4f69a2f60e01b81526001600160a01b0383811660048301528281166024830152600091829182919087169063b4f69a2f9060440160206040518083038186803b15801561015457600080fd5b505afa158015610168573d6000803e3d6000fd5b505050506040513d601f19601f8201168201806040525081019061018c9190610512565b9050806001600160a01b0316630902f1ac6040518163ffffffff1660e01b8152600401604080518083038186803b1580156101c657600080fd5b505afa1580156101da573d6000803e3d6000fd5b505050506040513d601f19601f820116820180604052508101906101fe919061054b565b9097909650945050505050565b60405163b4f69a2f60e01b81526001600160a01b0383811660048301528281166024830152600091829186169063b4f69a2f9060440160206040518083038186803b15801561025957600080fd5b505afa15801561026d573d6000803e3d6000fd5b505050506040513d601f19601f820116820180604052508101906102919190610512565b95945050505050565b604051631c040ef160e11b81526001600160a01b038581166004830152600091908716906338081de29060240160006040518083038186803b1580156102df57600080fd5b505afa1580156102f3573d6000803e3d6000fd5b505050506040513d6000823e601f3d908101601f1916820160405261031b91908101906105c4565b604051633c572b0d60e21b81529091506001600160a01b0387169063f15cac3490610350908490889088908890600401610671565b600060405180830381600087803b15801561036a57600080fd5b505af115801561037e573d6000803e3d6000fd5b50505050505050505050565b60405163237dd6ed60e11b81526001600160a01b038281166004830152600091908416906346fbadda9060240160206040518083038186803b1580156103cf57600080fd5b505afa1580156103e3573d6000803e3d6000fd5b505050506040513d601f19601f8201168201806040525081019061040791906106c0565b9392505050565b6001600160a01b038116811461042357600080fd5b50565b60008060006060848603121561043b57600080fd5b83356104468161040e565b925060208401356104568161040e565b915060408401356104668161040e565b809150509250925092565b600080600080600060a0868803121561048957600080fd5b85356104948161040e565b945060208601356104a48161040e565b935060408601356104b48161040e565b92506060860135915060808601356104cb8161040e565b809150509295509295909350565b600080604083850312156104ec57600080fd5b82356104f78161040e565b915060208301356105078161040e565b809150509250929050565b60006020828403121561052457600080fd5b81516104078161040e565b80516001600160701b038116811461054657600080fd5b919050565b6000806040838503121561055e57600080fd5b6105678361052f565b91506105756020840161052f565b90509250929050565b634e487b7160e01b600052604160045260246000fd5b60005b838110156105af578181015183820152602001610597565b838111156105be576000848401525b50505050565b6000602082840312156105d657600080fd5b815167ffffffffffffffff808211156105ee57600080fd5b818401915084601f83011261060257600080fd5b8151818111156106145761061461057e565b604051601f8201601f19908116603f0116810190838211818310171561063c5761063c61057e565b8160405282815287602084870101111561065557600080fd5b610666836020830160208801610594565b979650505050505050565b60808152600085518060808401526106908160a0850160208a01610594565b6001600160a01b03958616602084015260408301949094525092166060830152601f01601f19160160a001919050565b6000602082840312156106d257600080fd5b8151801515811461040757600080fdfea2646970667358221220c10b0c45a03fff84e04f1261768c24ee61ced80a697c580f7d9e8cf982ce2e8a64736f6c63430008090033",
  "immutableReferences": {},
  "source": "// SPDX-License-Identifier: MIT\npragma solidity 0.8.9;\n\nimport \"../interfaces/INaughtyPair.sol\";\nimport \"../interfaces/INaughtyFactory.sol\";\nimport \"../interfaces/IPolicyCore.sol\";\n\nlibrary NaughtyLibrary {\n    /**\n     * @notice Used when swap exact tokens for tokens (in is fixed)\n     */\n    function getAmountsOut(\n        address factory,\n        uint256 _amountIn,\n        address _tokenIn,\n        address _tokenOut\n    ) internal view returns (uint256 amounts) {\n        (uint256 reserveIn, uint256 reserveOut) = getReserves(\n            factory,\n            _tokenIn,\n            _tokenOut\n        );\n        amounts = getAmountOut(_amountIn, reserveIn, reserveOut);\n    }\n\n    /**\n     * @notice Used when swap tokens for exact tokens (out is fixed)\n     */\n    function getAmountsIn(\n        address factory,\n        uint256 _amountOut,\n        address _tokenIn,\n        address _tokenOut\n    ) internal view returns (uint256 amounts) {\n        (uint256 reserveIn, uint256 reserveOut) = getReserves(\n            factory,\n            _tokenIn,\n            _tokenOut\n        );\n        amounts = getAmountIn(_amountOut, reserveIn, reserveOut);\n    }\n\n    // given an input amount of an asset and pair reserves, returns the maximum output amount of the other asset\n    function getAmountOut(\n        uint256 amountIn,\n        uint256 reserveIn,\n        uint256 reserveOut\n    ) internal pure returns (uint256 amountOut) {\n        require(amountIn > 0, \"insufficient input amount\");\n        require(reserveIn > 0 && reserveOut > 0, \"insufficient liquidity\");\n\n        uint256 amountInWithFee = amountIn * 980;\n        uint256 numerator = amountInWithFee * reserveOut;\n        uint256 denominator = reserveIn * 1000 + amountInWithFee;\n\n        amountOut = numerator / denominator;\n    }\n\n    // given an output amount of an asset and pair reserves, returns a required input amount of the other asset\n    function getAmountIn(\n        uint256 amountOut,\n        uint256 reserveIn,\n        uint256 reserveOut\n    ) internal pure returns (uint256 amountIn) {\n        require(amountOut > 0, \"insufficient output amount\");\n        require(reserveIn > 0 && reserveOut > 0, \"insufficient liquidity\");\n\n        uint256 numerator = reserveIn * amountOut * 1000;\n        uint256 denominator = (reserveOut - amountOut) * 980;\n        amountIn = (numerator / denominator) + 1;\n    }\n\n    // fetches and sorts the reserves for a pair\n    function getReserves(\n        address factory,\n        address tokenA,\n        address tokenB\n    ) public view returns (uint112 reserve0, uint112 reserve1) {\n        address pairAddress = INaughtyFactory(factory).getPairAddress(\n            tokenA,\n            tokenB\n        );\n\n        (reserve0, reserve1) = INaughtyPair(pairAddress).getReserves();\n    }\n\n    /**\n     * @notice Get pair address\n     * @param factory: Naughty price factory address\n     * @param tokenA: TokenA address\n     * @param tokenB: TokenB address\n     */\n    function getPairAddress(\n        address factory,\n        address tokenA,\n        address tokenB\n    ) external view returns (address) {\n        address pairAddress = INaughtyFactory(factory).getPairAddress(\n            tokenA,\n            tokenB\n        );\n\n        return pairAddress;\n    }\n\n    // given some amount of an asset and pair reserves, returns an equivalent amount of the other asset\n    function quote(\n        uint256 amountA,\n        uint256 reserveA,\n        uint256 reserveB\n    ) internal pure returns (uint256 amountB) {\n        require(amountA > 0, \"insufficient amount\");\n        require(reserveA > 0 && reserveB > 0, \"insufficient liquidity\");\n\n        amountB = (amountA * reserveB) / reserveA;\n    }\n\n    function checkStablecoin(address policyCore, address _coinAddress)\n        public\n        view\n        returns (bool)\n    {\n        return IPolicyCore(policyCore).isStablecoinAddress(_coinAddress);\n    }\n\n    /**\n     * @notice Used when users only provide stablecoins and want to mint & add liquidity in one step\n     */\n    function mintPolicyTokensForUser(\n        address policyCore,\n        address _policyTokenAddress,\n        address _stablecoin,\n        uint256 _amount,\n        address _userAddress\n    ) public {\n        string memory policyTokenName = IPolicyCore(policyCore)\n            .findNamebyAddress(_policyTokenAddress);\n        IPolicyCore(policyCore).delegateDeposit(\n            policyTokenName,\n            _stablecoin,\n            _amount,\n            _userAddress\n        );\n    }\n}\n",
  "sourcePath": "/Volumes/Store/src/naughty-price/contracts/libraries/NaughtyLibrary.sol",
  "compiler": {
    "name": "solc",
    "version": "0.8.9+commit.e5eed63a.Emscripten.clang"
  },
  "schemaVersion": "3.4.3",
  "updatedAt": "2021-11-26T13:08:13.779Z",
  "networkType": "ethereum",
  "devdoc": {
    "kind": "dev",
    "methods": {
      "getPairAddress(address,address,address)": {
        "params": {
          "factory": ": Naughty price factory address",
          "tokenA": ": TokenA address",
          "tokenB": ": TokenB address"
        }
      }
    },
    "version": 1
  },
  "userdoc": {
    "kind": "user",
    "methods": {
      "getPairAddress(address,address,address)": {
        "notice": "Get pair address"
      },
      "mintPolicyTokensForUser(address,address,address,uint256,address)": {
        "notice": "Used when users only provide stablecoins and want to mint & add liquidity in one step"
      }
    },
    "version": 1
  }
}