{
  "contractName": "NaughtyProxy",
  "abi": [
    {
      "inputs": [
        {
          "internalType": "address",
          "name": "_policyCore",
          "type": "address"
        },
        {
          "internalType": "address",
          "name": "_naughtyRouter",
          "type": "address"
        }
      ],
      "stateMutability": "nonpayable",
      "type": "constructor"
    },
    {
      "inputs": [],
      "name": "naughtyRouter",
      "outputs": [
        {
          "internalType": "address",
          "name": "",
          "type": "address"
        }
      ],
      "stateMutability": "view",
      "type": "function"
    },
    {
      "inputs": [],
      "name": "owner",
      "outputs": [
        {
          "internalType": "address",
          "name": "",
          "type": "address"
        }
      ],
      "stateMutability": "view",
      "type": "function"
    },
    {
      "inputs": [],
      "name": "policyCore",
      "outputs": [
        {
          "internalType": "address",
          "name": "",
          "type": "address"
        }
      ],
      "stateMutability": "view",
      "type": "function"
    },
    {
      "inputs": [
        {
          "internalType": "address",
          "name": "_newPolicyCore",
          "type": "address"
        }
      ],
      "name": "setPolicyCore",
      "outputs": [],
      "stateMutability": "nonpayable",
      "type": "function"
    },
    {
      "inputs": [
        {
          "internalType": "address",
          "name": "_newRouter",
          "type": "address"
        }
      ],
      "name": "setNaughtyRouter",
      "outputs": [],
      "stateMutability": "nonpayable",
      "type": "function"
    },
    {
      "inputs": [
        {
          "internalType": "string",
          "name": "_policyTokenName",
          "type": "string"
        },
        {
          "internalType": "address",
          "name": "_tokenAddress",
          "type": "address"
        },
        {
          "internalType": "bool",
          "name": "_isHigher",
          "type": "bool"
        },
        {
          "internalType": "uint256",
          "name": "_strikePrice",
          "type": "uint256"
        },
        {
          "internalType": "uint256",
          "name": "_deadline",
          "type": "uint256"
        },
        {
          "internalType": "uint256",
          "name": "_settleTimestamp",
          "type": "uint256"
        }
      ],
      "name": "deployPolicyToken",
      "outputs": [
        {
          "internalType": "address",
          "name": "policyTokenAddress",
          "type": "address"
        }
      ],
      "stateMutability": "nonpayable",
      "type": "function"
    },
    {
      "inputs": [
        {
          "internalType": "string",
          "name": "_policyTokenName",
          "type": "string"
        },
        {
          "internalType": "address",
          "name": "_stablecoin",
          "type": "address"
        },
        {
          "internalType": "uint256",
          "name": "_poolDeadline",
          "type": "uint256"
        }
      ],
      "name": "deployPool",
      "outputs": [
        {
          "internalType": "address",
          "name": "poolAddress",
          "type": "address"
        }
      ],
      "stateMutability": "nonpayable",
      "type": "function"
    },
    {
      "inputs": [
        {
          "internalType": "string",
          "name": "_policyTokenName",
          "type": "string"
        },
        {
          "internalType": "address",
          "name": "_stablecoin",
          "type": "address"
        },
        {
          "internalType": "uint256",
          "name": "_amount",
          "type": "uint256"
        }
      ],
      "name": "deposit",
      "outputs": [],
      "stateMutability": "nonpayable",
      "type": "function"
    },
    {
      "inputs": [
        {
          "internalType": "string",
          "name": "_policyTokenName",
          "type": "string"
        },
        {
          "internalType": "address",
          "name": "_stablecoin",
          "type": "address"
        },
        {
          "internalType": "uint256",
          "name": "_amount",
          "type": "uint256"
        }
      ],
      "name": "redeem",
      "outputs": [],
      "stateMutability": "nonpayable",
      "type": "function"
    },
    {
      "inputs": [
        {
          "internalType": "string",
          "name": "_policyTokenName",
          "type": "string"
        },
        {
          "internalType": "address",
          "name": "_stablecoin",
          "type": "address"
        },
        {
          "internalType": "uint256",
          "name": "_amount",
          "type": "uint256"
        }
      ],
      "name": "claim",
      "outputs": [],
      "stateMutability": "nonpayable",
      "type": "function"
    },
    {
      "inputs": [
        {
          "internalType": "uint256",
          "name": "_amountIn",
          "type": "uint256"
        },
        {
          "internalType": "uint256",
          "name": "_amountOutMin",
          "type": "uint256"
        },
        {
          "internalType": "address",
          "name": "_tokenIn",
          "type": "address"
        },
        {
          "internalType": "address",
          "name": "_tokenOut",
          "type": "address"
        },
        {
          "internalType": "address",
          "name": "_to",
          "type": "address"
        },
        {
          "internalType": "uint256",
          "name": "_deadline",
          "type": "uint256"
        }
      ],
      "name": "swapExactTokensforTokens",
      "outputs": [],
      "stateMutability": "nonpayable",
      "type": "function"
    },
    {
      "inputs": [
        {
          "internalType": "uint256",
          "name": "_amountInMax",
          "type": "uint256"
        },
        {
          "internalType": "uint256",
          "name": "_amountOut",
          "type": "uint256"
        },
        {
          "internalType": "address",
          "name": "_tokenIn",
          "type": "address"
        },
        {
          "internalType": "address",
          "name": "_tokenOut",
          "type": "address"
        },
        {
          "internalType": "address",
          "name": "_to",
          "type": "address"
        },
        {
          "internalType": "uint256",
          "name": "_deadline",
          "type": "uint256"
        }
      ],
      "name": "swapTokensforExactTokens",
      "outputs": [],
      "stateMutability": "nonpayable",
      "type": "function"
    },
    {
      "inputs": [
        {
          "internalType": "address",
          "name": "_token0",
          "type": "address"
        },
        {
          "internalType": "address",
          "name": "_token1",
          "type": "address"
        },
        {
          "internalType": "uint256",
          "name": "_amountADesired",
          "type": "uint256"
        },
        {
          "internalType": "uint256",
          "name": "_amountBDesired",
          "type": "uint256"
        },
        {
          "internalType": "uint256",
          "name": "_amountAMin",
          "type": "uint256"
        },
        {
          "internalType": "uint256",
          "name": "_amountBMin",
          "type": "uint256"
        },
        {
          "internalType": "address",
          "name": "_to",
          "type": "address"
        },
        {
          "internalType": "uint256",
          "name": "_deadline",
          "type": "uint256"
        }
      ],
      "name": "addLiquidity",
      "outputs": [],
      "stateMutability": "nonpayable",
      "type": "function"
    },
    {
      "inputs": [
        {
          "internalType": "address",
          "name": "_tokenA",
          "type": "address"
        },
        {
          "internalType": "address",
          "name": "_tokenB",
          "type": "address"
        },
        {
          "internalType": "uint256",
          "name": "_liquidity",
          "type": "uint256"
        },
        {
          "internalType": "uint256",
          "name": "_amountAMin",
          "type": "uint256"
        },
        {
          "internalType": "uint256",
          "name": "_amountBMin",
          "type": "uint256"
        },
        {
          "internalType": "address",
          "name": "_to",
          "type": "address"
        },
        {
          "internalType": "uint256",
          "name": "_deadline",
          "type": "uint256"
        }
      ],
      "name": "removeLiquidity",
      "outputs": [],
      "stateMutability": "nonpayable",
      "type": "function"
    }
  ],
  "bytecode": "0x608060405234801561001057600080fd5b50604051610cc4380380610cc483398101604081905261002f9161008c565b600080546001600160a01b039384166001600160a01b03199182161790915560018054929093169181169190911790915560028054909116331790556100bf565b80516001600160a01b038116811461008757600080fd5b919050565b6000806040838503121561009f57600080fd5b6100a883610070565b91506100b660208401610070565b90509250929050565b610bf6806100ce6000396000f3fe608060405234801561001057600080fd5b50600436106100ea5760003560e01c8063a815a2211161008c578063dd76753411610066578063dd767534146101cb578063e30145e0146101de578063e6251237146101f1578063e8e337001461020457600080fd5b8063a815a22114610192578063baa2abde146101a5578063bf72c0c7146101b857600080fd5b80632a48ac9a116100c85780632a48ac9a1461012a578063378649991461013d5780637336c38d146101505780638da5cb5b1461016357600080fd5b806308d89d5f146100ef5780630a7af5c6146101045780631a771f0a14610117575b600080fd5b6101026100fd3660046107dd565b610217565b005b610102610112366004610837565b610282565b610102610125366004610837565b610327565b6101026101383660046107dd565b61037e565b61010261014b36600461089e565b6103b2565b61010261015e3660046107dd565b610407565b600254610176906001600160a01b031681565b6040516001600160a01b03909116815260200160405180910390f35b6101026101a036600461089e565b61043b565b6101026101b33660046108c2565b610487565b6101766101c6366004610934565b61053c565b6101766101d93660046107dd565b6105d4565b600054610176906001600160a01b031681565b600154610176906001600160a01b031681565b6101026102123660046109b7565b610663565b6000546040516308d89d5f60e01b81526001600160a01b03909116906308d89d5f9061024b90869086908690600401610a80565b600060405180830381600087803b15801561026557600080fd5b505af1158015610279573d6000803e3d6000fd5b50505050505050565b60015460405163053d7ae360e11b815260048101889052602481018790526001600160a01b0386811660448301528581166064830152848116608483015260a4820184905290911690630a7af5c69060c4015b602060405180830381600087803b1580156102ef57600080fd5b505af1158015610303573d6000803e3d6000fd5b505050506040513d601f19601f820116820180604052508101906102799190610aae565b600154604051630d3b8f8560e11b815260048101889052602481018790526001600160a01b0386811660448301528581166064830152848116608483015260a4820184905290911690631a771f0a9060c4016102d5565b600054604051631524564d60e11b81526001600160a01b0390911690632a48ac9a9061024b90869086908690600401610a80565b6002546001600160a01b031633146103e55760405162461bcd60e51b81526004016103dc90610ac7565b60405180910390fd5b600080546001600160a01b0319166001600160a01b0392909216919091179055565b600054604051637336c38d60e01b81526001600160a01b0390911690637336c38d9061024b90869086908690600401610a80565b6002546001600160a01b031633146104655760405162461bcd60e51b81526004016103dc90610ac7565b600180546001600160a01b0319166001600160a01b0392909216919091179055565b600154604051635d5155ef60e11b81526001600160a01b038981166004830152888116602483015260448201889052606482018790526084820186905284811660a483015260c482018490529091169063baa2abde9060e4016040805180830381600087803b1580156104f957600080fd5b505af115801561050d573d6000803e3d6000fd5b505050506040513d601f19601f820116820180604052508101906105319190610b0c565b505050505050505050565b6000805460405163bf72c0c760e01b81526001600160a01b039091169063bf72c0c790610577908a908a908a908a908a908a90600401610b30565b602060405180830381600087803b15801561059157600080fd5b505af11580156105a5573d6000803e3d6000fd5b505050506040513d601f19601f820116820180604052508101906105c99190610b75565b979650505050505050565b6000805460405163375d9d4d60e21b81526001600160a01b039091169063dd7675349061060990879087908790600401610a80565b602060405180830381600087803b15801561062357600080fd5b505af1158015610637573d6000803e3d6000fd5b505050506040513d601f19601f8201168201806040525081019061065b9190610b75565b949350505050565b60015460405162e8e33760e81b81526001600160a01b038a81166004830152898116602483015260448201899052606482018890526084820187905260a4820186905284811660c483015260e482018490529091169063e8e337009061010401606060405180830381600087803b1580156106dd57600080fd5b505af11580156106f1573d6000803e3d6000fd5b505050506040513d601f19601f820116820180604052508101906107159190610b92565b5050505050505050505050565b634e487b7160e01b600052604160045260246000fd5b600082601f83011261074957600080fd5b813567ffffffffffffffff8082111561076457610764610722565b604051601f8301601f19908116603f0116810190828211818310171561078c5761078c610722565b816040528381528660208588010111156107a557600080fd5b836020870160208301376000602085830101528094505050505092915050565b6001600160a01b03811681146107da57600080fd5b50565b6000806000606084860312156107f257600080fd5b833567ffffffffffffffff81111561080957600080fd5b61081586828701610738565b9350506020840135610826816107c5565b929592945050506040919091013590565b60008060008060008060c0878903121561085057600080fd5b86359550602087013594506040870135610869816107c5565b93506060870135610879816107c5565b92506080870135610889816107c5565b8092505060a087013590509295509295509295565b6000602082840312156108b057600080fd5b81356108bb816107c5565b9392505050565b600080600080600080600060e0888a0312156108dd57600080fd5b87356108e8816107c5565b965060208801356108f8816107c5565b955060408801359450606088013593506080880135925060a088013561091d816107c5565b8092505060c0880135905092959891949750929550565b60008060008060008060c0878903121561094d57600080fd5b863567ffffffffffffffff81111561096457600080fd5b61097089828a01610738565b9650506020870135610981816107c5565b94506040870135801515811461099657600080fd5b959894975094956060810135955060808101359460a0909101359350915050565b600080600080600080600080610100898b0312156109d457600080fd5b88356109df816107c5565b975060208901356109ef816107c5565b965060408901359550606089013594506080890135935060a0890135925060c0890135610a1b816107c5565b8092505060e089013590509295985092959890939650565b6000815180845260005b81811015610a5957602081850181015186830182015201610a3d565b81811115610a6b576000602083870101525b50601f01601f19169290920160200192915050565b606081526000610a936060830186610a33565b6001600160a01b039490941660208301525060400152919050565b600060208284031215610ac057600080fd5b5051919050565b60208082526025908201527f4f6e6c7920746865206f776e65722063616e2063616c6c20746869732066756e60408201526431ba34b7b760d91b606082015260800190565b60008060408385031215610b1f57600080fd5b505080516020909101519092909150565b60c081526000610b4360c0830189610a33565b6001600160a01b039790971660208301525093151560408501526060840192909252608083015260a090910152919050565b600060208284031215610b8757600080fd5b81516108bb816107c5565b600080600060608486031215610ba757600080fd5b835192506020840151915060408401519050925092509256fea2646970667358221220df3d3be977921a88092e3c8ad6e137488f554f4c0a746f9a13370b9cf385803364736f6c63430008090033",
  "immutableReferences": {},
  "source": "// SPDX-License-Identifier: MIT\npragma solidity 0.8.9;\nimport \"./interfaces/IPolicyCore.sol\";\nimport \"./interfaces/INaughtyRouter.sol\";\n\n/**\n * @title  NaughtyProxy\n * @notice Proxy contract for naughty price containing all functions\n *         that need to be called from the outside\n */\ncontract NaughtyProxy {\n    address public policyCore;\n    address public naughtyRouter;\n\n    address public owner;\n\n    constructor(address _policyCore, address _naughtyRouter) {\n        policyCore = _policyCore;\n        naughtyRouter = _naughtyRouter;\n\n        owner = msg.sender;\n    }\n\n    modifier onlyOwner() {\n        require(msg.sender == owner, \"Only the owner can call this function\");\n        _;\n    }\n\n    function setPolicyCore(address _newPolicyCore) external onlyOwner {\n        policyCore = _newPolicyCore;\n    }\n\n    function setNaughtyRouter(address _newRouter) external onlyOwner {\n        naughtyRouter = _newRouter;\n    }\n\n    /**\n     * @notice Deploy a new policy token\n     * @param _policyTokenName: Policy token name \"AVAX30L202101\"\n     * @param _tokenAddress: Original token address (e.g. AVAX)\n     * @param _isHigher: \"L\" or \"H\". L: Pay out when lower than\n     * @param _strikePrice: Used for oracle settlement\n     * @param _deadline: Deadline for deposit/redeem/swap\n     * @param _settleTimestamp: After this time, can call oracle to settle the final result\n     */\n    function deployPolicyToken(\n        string memory _policyTokenName,\n        address _tokenAddress,\n        bool _isHigher,\n        uint256 _strikePrice,\n        uint256 _deadline,\n        uint256 _settleTimestamp\n    ) external returns (address policyTokenAddress) {\n        policyTokenAddress = IPolicyCore(policyCore).deployPolicyToken(\n            _policyTokenName,\n            _tokenAddress,\n            _isHigher,\n            _strikePrice,\n            _deadline,\n            _settleTimestamp\n        );\n    }\n\n    /**\n     * @notice Depoly a new pool with policy token and stable coin\n     * @param _policyTokenName: Policy toke name \"AVAX30L202101\"\n     */\n    function deployPool(\n        string memory _policyTokenName,\n        address _stablecoin,\n        uint256 _poolDeadline\n    ) external returns (address poolAddress) {\n        poolAddress = IPolicyCore(policyCore).deployPool(\n            _policyTokenName,\n            _stablecoin,\n            _poolDeadline\n        );\n    }\n\n    function deposit(\n        string memory _policyTokenName,\n        address _stablecoin,\n        uint256 _amount\n    ) external {\n        IPolicyCore(policyCore).deposit(_policyTokenName, _stablecoin, _amount);\n    }\n\n    function redeem(\n        string memory _policyTokenName,\n        address _stablecoin,\n        uint256 _amount\n    ) external {\n        IPolicyCore(policyCore).redeem(_policyTokenName, _stablecoin, _amount);\n    }\n\n    function claim(\n        string memory _policyTokenName,\n        address _stablecoin,\n        uint256 _amount\n    ) external {\n        IPolicyCore(policyCore).claim(_policyTokenName, _stablecoin, _amount);\n    }\n\n    function swapExactTokensforTokens(\n        uint256 _amountIn,\n        uint256 _amountOutMin,\n        address _tokenIn,\n        address _tokenOut,\n        address _to,\n        uint256 _deadline\n    ) external {\n        INaughtyRouter(naughtyRouter).swapExactTokensforTokens(\n            _amountIn,\n            _amountOutMin,\n            _tokenIn,\n            _tokenOut,\n            _to,\n            _deadline\n        );\n    }\n\n    function swapTokensforExactTokens(\n        uint256 _amountInMax,\n        uint256 _amountOut,\n        address _tokenIn,\n        address _tokenOut,\n        address _to,\n        uint256 _deadline\n    ) external {\n        INaughtyRouter(naughtyRouter).swapTokensforExactTokens(\n            _amountInMax,\n            _amountOut,\n            _tokenIn,\n            _tokenOut,\n            _to,\n            _deadline\n        );\n    }\n\n    function addLiquidity(\n        address _token0,\n        address _token1,\n        uint256 _amountADesired,\n        uint256 _amountBDesired,\n        uint256 _amountAMin,\n        uint256 _amountBMin,\n        address _to,\n        uint256 _deadline\n    ) external {\n        INaughtyRouter(naughtyRouter).addLiquidity(\n            _token0,\n            _token1,\n            _amountADesired,\n            _amountBDesired,\n            _amountAMin,\n            _amountBMin,\n            _to,\n            _deadline\n        );\n    }\n\n    function removeLiquidity(\n        address _tokenA,\n        address _tokenB,\n        uint256 _liquidity,\n        uint256 _amountAMin,\n        uint256 _amountBMin,\n        address _to,\n        uint256 _deadline\n    ) external {\n        INaughtyRouter(naughtyRouter).removeLiquidity(\n            _tokenA,\n            _tokenB,\n            _liquidity,\n            _amountAMin,\n            _amountBMin,\n            _to,\n            _deadline\n        );\n    }\n}\n",
  "sourcePath": "/Volumes/Store/src/naughty-price/contracts/NaughtyProxy.sol",
  "compiler": {
    "name": "solc",
    "version": "0.8.9+commit.e5eed63a.Emscripten.clang"
  },
  "schemaVersion": "3.4.3",
  "updatedAt": "2021-11-17T15:31:22.230Z",
  "networkType": "ethereum",
  "devdoc": {
    "kind": "dev",
    "methods": {
      "deployPolicyToken(string,address,bool,uint256,uint256,uint256)": {
        "params": {
          "_deadline": ": Deadline for deposit/redeem/swap",
          "_isHigher": ": \"L\" or \"H\". L: Pay out when lower than",
          "_policyTokenName": ": Policy token name \"AVAX30L202101\"",
          "_settleTimestamp": ": After this time, can call oracle to settle the final result",
          "_strikePrice": ": Used for oracle settlement",
          "_tokenAddress": ": Original token address (e.g. AVAX)"
        }
      },
      "deployPool(string,address,uint256)": {
        "params": {
          "_policyTokenName": ": Policy toke name \"AVAX30L202101\""
        }
      }
    },
    "title": "NaughtyProxy",
    "version": 1
  },
  "userdoc": {
    "kind": "user",
    "methods": {
      "deployPolicyToken(string,address,bool,uint256,uint256,uint256)": {
        "notice": "Deploy a new policy token"
      },
      "deployPool(string,address,uint256)": {
        "notice": "Depoly a new pool with policy token and stable coin"
      }
    },
    "notice": "Proxy contract for naughty price containing all functions         that need to be called from the outside",
    "version": 1
  }
}