{
  "contractName": "NaughtyRouter",
  "abi": [
    {
      "inputs": [
        {
          "internalType": "address",
          "name": "_factory",
          "type": "address"
        },
        {
          "internalType": "address",
          "name": "_buyerToken",
          "type": "address"
        }
      ],
      "stateMutability": "nonpayable",
      "type": "constructor"
    },
    {
      "inputs": [],
      "name": "buyerToken",
      "outputs": [
        {
          "internalType": "address",
          "name": "",
          "type": "address"
        }
      ],
      "stateMutability": "view",
      "type": "function",
      "constant": true
    },
    {
      "inputs": [],
      "name": "factory",
      "outputs": [
        {
          "internalType": "address",
          "name": "",
          "type": "address"
        }
      ],
      "stateMutability": "view",
      "type": "function",
      "constant": true
    },
    {
      "inputs": [],
      "name": "owner",
      "outputs": [
        {
          "internalType": "address",
          "name": "",
          "type": "address"
        }
      ],
      "stateMutability": "view",
      "type": "function",
      "constant": true
    },
    {
      "inputs": [],
      "name": "policyCore",
      "outputs": [
        {
          "internalType": "address",
          "name": "",
          "type": "address"
        }
      ],
      "stateMutability": "view",
      "type": "function",
      "constant": true
    },
    {
      "inputs": [
        {
          "internalType": "address",
          "name": "_coreAddress",
          "type": "address"
        }
      ],
      "name": "setPolicyCore",
      "outputs": [],
      "stateMutability": "nonpayable",
      "type": "function"
    },
    {
      "inputs": [
        {
          "internalType": "address",
          "name": "_buyerToken",
          "type": "address"
        }
      ],
      "name": "setBuyerToken",
      "outputs": [],
      "stateMutability": "nonpayable",
      "type": "function"
    },
    {
      "inputs": [
        {
          "internalType": "address",
          "name": "_tokenA",
          "type": "address"
        },
        {
          "internalType": "address",
          "name": "_tokenB",
          "type": "address"
        },
        {
          "internalType": "uint256",
          "name": "_amountUSD",
          "type": "uint256"
        },
        {
          "internalType": "address",
          "name": "_to",
          "type": "address"
        },
        {
          "internalType": "uint256",
          "name": "_minRatio",
          "type": "uint256"
        },
        {
          "internalType": "uint256",
          "name": "_deadline",
          "type": "uint256"
        }
      ],
      "name": "addLiquidityWithUSD",
      "outputs": [],
      "stateMutability": "nonpayable",
      "type": "function"
    },
    {
      "inputs": [
        {
          "internalType": "address",
          "name": "_tokenA",
          "type": "address"
        },
        {
          "internalType": "address",
          "name": "_tokenB",
          "type": "address"
        },
        {
          "internalType": "uint256",
          "name": "_amountADesired",
          "type": "uint256"
        },
        {
          "internalType": "uint256",
          "name": "_amountBDesired",
          "type": "uint256"
        },
        {
          "internalType": "uint256",
          "name": "_amountAMin",
          "type": "uint256"
        },
        {
          "internalType": "uint256",
          "name": "_amountBMin",
          "type": "uint256"
        },
        {
          "internalType": "address",
          "name": "_to",
          "type": "address"
        },
        {
          "internalType": "uint256",
          "name": "_deadline",
          "type": "uint256"
        }
      ],
      "name": "addLiquidity",
      "outputs": [
        {
          "internalType": "uint256",
          "name": "amountA",
          "type": "uint256"
        },
        {
          "internalType": "uint256",
          "name": "amountB",
          "type": "uint256"
        },
        {
          "internalType": "uint256",
          "name": "liquidity",
          "type": "uint256"
        }
      ],
      "stateMutability": "nonpayable",
      "type": "function"
    },
    {
      "inputs": [
        {
          "internalType": "address",
          "name": "_tokenA",
          "type": "address"
        },
        {
          "internalType": "address",
          "name": "_tokenB",
          "type": "address"
        },
        {
          "internalType": "uint256",
          "name": "_liquidity",
          "type": "uint256"
        },
        {
          "internalType": "uint256",
          "name": "_amountAMin",
          "type": "uint256"
        },
        {
          "internalType": "uint256",
          "name": "_amountBMin",
          "type": "uint256"
        },
        {
          "internalType": "address",
          "name": "_to",
          "type": "address"
        },
        {
          "internalType": "uint256",
          "name": "_deadline",
          "type": "uint256"
        }
      ],
      "name": "removeLiquidity",
      "outputs": [
        {
          "internalType": "uint256",
          "name": "amountA",
          "type": "uint256"
        },
        {
          "internalType": "uint256",
          "name": "amountB",
          "type": "uint256"
        }
      ],
      "stateMutability": "nonpayable",
      "type": "function"
    },
    {
      "inputs": [
        {
          "internalType": "uint256",
          "name": "_amountInMax",
          "type": "uint256"
        },
        {
          "internalType": "uint256",
          "name": "_amountOut",
          "type": "uint256"
        },
        {
          "internalType": "address",
          "name": "_tokenIn",
          "type": "address"
        },
        {
          "internalType": "address",
          "name": "_tokenOut",
          "type": "address"
        },
        {
          "internalType": "address",
          "name": "_to",
          "type": "address"
        },
        {
          "internalType": "uint256",
          "name": "_deadline",
          "type": "uint256"
        }
      ],
      "name": "swapTokensforExactTokens",
      "outputs": [
        {
          "internalType": "uint256",
          "name": "amounts",
          "type": "uint256"
        }
      ],
      "stateMutability": "nonpayable",
      "type": "function"
    },
    {
      "inputs": [
        {
          "internalType": "uint256",
          "name": "_amountIn",
          "type": "uint256"
        },
        {
          "internalType": "uint256",
          "name": "_amountOutMin",
          "type": "uint256"
        },
        {
          "internalType": "address",
          "name": "_tokenIn",
          "type": "address"
        },
        {
          "internalType": "address",
          "name": "_tokenOut",
          "type": "address"
        },
        {
          "internalType": "address",
          "name": "_to",
          "type": "address"
        },
        {
          "internalType": "uint256",
          "name": "_deadline",
          "type": "uint256"
        }
      ],
      "name": "swapExactTokensforTokens",
      "outputs": [
        {
          "internalType": "uint256",
          "name": "amounts",
          "type": "uint256"
        }
      ],
      "stateMutability": "nonpayable",
      "type": "function"
    }
  ],
  "bytecode": "0x60806040523480156200001157600080fd5b5060405162001e5c38038062001e5c83398101604081905262000034916200008e565b600380546001600160a01b03199081163317909155600080546001600160a01b0394851690831617905560028054929093169116179055620000c6565b80516001600160a01b03811681146200008957600080fd5b919050565b60008060408385031215620000a257600080fd5b620000ad8362000071565b9150620000bd6020840162000071565b90509250929050565b611d8680620000d66000396000f3fe608060405234801561001057600080fd5b50600436106100a95760003560e01c8063a5d2a71511610071578063a5d2a7151461013a578063b8b6022e1461014d578063baa2abde14610160578063c45a015514610188578063e30145e01461019b578063e8e33700146101ae57600080fd5b80630a7af5c6146100ae5780631a771f0a146100d457806337864999146100e75780638da5cb5b146100fc57806393822b2114610127575b600080fd5b6100c16100bc366004611859565b6101dc565b6040519081526020015b60405180910390f35b6100c16100e2366004611859565b61055a565b6100fa6100f53660046118c0565b610848565b005b60035461010f906001600160a01b031681565b6040516001600160a01b0390911681526020016100cb565b6100fa6101353660046118c0565b610894565b60025461010f906001600160a01b031681565b6100fa61015b3660046118dd565b6108e0565b61017361016e366004611942565b610bd2565b604080519283526020830191909152016100cb565b60005461010f906001600160a01b031681565b60015461010f906001600160a01b031681565b6101c16101bc3660046119b4565b610ddc565b604080519384526020840192909252908201526060016100cb565b6000818042106102075760405162461bcd60e51b81526004016101fe90611a30565b60405180910390fd5b60008054604051630a49a03f60e31b815273__NaughtyLibrary________________________9163524d01f89161024e916001600160a01b0316908b908b90600401611a5d565b60206040518083038186803b15801561026657600080fd5b505af415801561027a573d6000803e3d6000fd5b505050506040513d601f19601f8201168201806040525081019061029e9190611a80565b90506000816001600160a01b03166329dcb0cf6040518163ffffffff1660e01b815260040160206040518083038186803b1580156102db57600080fd5b505afa1580156102ef573d6000803e3d6000fd5b505050506040513d601f19601f820116820180604052508101906103139190611a9d565b9050804211156103355760405162461bcd60e51b81526004016101fe90611ab6565b60005461034d906001600160a01b03168b8a8a610f5e565b93508884101561039f5760405162461bcd60e51b815260206004820152601760248201527f657863657373697665206f757470757420616d6f756e7400000000000000000060448201526064016101fe565b6103b46001600160a01b03891633848d610f9a565b60015460405163bf4a1b5f60e01b81526001600160a01b039182166004820152908916602482015260009073__NaughtyLibrary________________________9063bf4a1b5f9060440160206040518083038186803b15801561041657600080fd5b505af415801561042a573d6000803e3d6000fd5b505050506040513d601f19601f8201168201806040525081019061044e9190611afc565b905080156104bb576002546040516340c10f1960e01b8152336004820152602481018790526001600160a01b03909116906340c10f1990604401600060405180830381600087803b1580156104a257600080fd5b505af11580156104b6573d6000803e3d6000fd5b505050505b6000816104c95760006104cb565b855b90506000826104da57866104dd565b60005b6040516336cd320560e11b815260048101849052602481018290526001600160a01b038b8116604483015291925090861690636d9a640a90606401600060405180830381600087803b15801561053257600080fd5b505af1158015610546573d6000803e3d6000fd5b505050505050505050509695505050505050565b60008180421061057c5760405162461bcd60e51b81526004016101fe90611a30565b60008054604051630a49a03f60e31b815273__NaughtyLibrary________________________9163524d01f8916105c3916001600160a01b0316908b908b90600401611a5d565b60206040518083038186803b1580156105db57600080fd5b505af41580156105ef573d6000803e3d6000fd5b505050506040513d601f19601f820116820180604052508101906106139190611a80565b90506000816001600160a01b03166329dcb0cf6040518163ffffffff1660e01b815260040160206040518083038186803b15801561065057600080fd5b505afa158015610664573d6000803e3d6000fd5b505050506040513d601f19601f820116820180604052508101906106889190611a9d565b9050804211156106aa5760405162461bcd60e51b81526004016101fe90611ab6565b6000546106c2906001600160a01b03168a8a8a610ffa565b93508984111561070d5760405162461bcd60e51b8152602060048201526016602482015275195e18d95cdcda5d99481a5b9c1d5d08185b5bdd5b9d60521b60448201526064016101fe565b6107226001600160a01b038916338487610f9a565b60015460405163bf4a1b5f60e01b81526001600160a01b039182166004820152908916602482015260009073__NaughtyLibrary________________________9063bf4a1b5f9060440160206040518083038186803b15801561078457600080fd5b505af4158015610798573d6000803e3d6000fd5b505050506040513d601f19601f820116820180604052508101906107bc9190611afc565b90508015610829576002546040516340c10f1960e01b8152336004820152602481018790526001600160a01b03909116906340c10f1990604401600060405180830381600087803b15801561081057600080fd5b505af1158015610824573d6000803e3d6000fd5b505050505b600081610837576000610839565b8a5b90506000826104da578b6104dd565b6003546001600160a01b031633146108725760405162461bcd60e51b81526004016101fe90611b1e565b600180546001600160a01b0319166001600160a01b0392909216919091179055565b6003546001600160a01b031633146108be5760405162461bcd60e51b81526004016101fe90611b1e565b600280546001600160a01b0319166001600160a01b0392909216919091179055565b808042106109005760405162461bcd60e51b81526004016101fe90611a30565b60648311156109515760405162461bcd60e51b815260206004820181905260248201527f4d696e696d756d20726174696f2063616e206e6f74206578636565642031303060448201526064016101fe565b60015460405163bf4a1b5f60e01b81526001600160a01b039182166004820152908716602482015260009073__NaughtyLibrary________________________9063bf4a1b5f9060440160206040518083038186803b1580156109b357600080fd5b505af41580156109c7573d6000803e3d6000fd5b505050506040513d601f19601f820116820180604052508101906109eb9190611afc565b905080610a0a5760405162461bcd60e51b81526004016101fe90611b63565b60008054604051633274946160e01b8152829173__NaughtyLibrary________________________91633274946191610a55916001600160a01b03909116908e908e90600401611a5d565b604080518083038186803b158015610a6c57600080fd5b505af4158015610a80573d6000803e3d6000fd5b505050506040513d601f19601f82011682018060405250810190610aa49190611bc8565b6001600160701b0391821693501690506000610ac08284611c11565b610aca848b611c29565b610ad49190611c48565b90506000610ae28385611c11565b610aec848c611c29565b610af69190611c48565b60015460405163a327a36160e01b81526001600160a01b0391821660048201528e82166024820152908d1660448201526064810184905233608482015290915073__NaughtyLibrary________________________9063a327a3619060a40160006040518083038186803b158015610b6d57600080fd5b505af4158015610b81573d6000803e3d6000fd5b50505050610bc18c8c848460648d88610b9a9190611c29565b610ba49190611c48565b6064610bb08f89611c29565b610bba9190611c48565b8f8e610ddc565b505050505050505050505050505050565b60008082804210610bf55760405162461bcd60e51b81526004016101fe90611a30565b60008054604051630a49a03f60e31b815273__NaughtyLibrary________________________9163524d01f891610c3c916001600160a01b0316908f908f90600401611a5d565b60206040518083038186803b158015610c5457600080fd5b505af4158015610c68573d6000803e3d6000fd5b505050506040513d601f19601f82011682018060405250810190610c8c9190611a80565b9050610ca36001600160a01b03821633838c610f9a565b60405163226bf2d160e21b81526001600160a01b0387811660048301528216906389afcb44906024016040805180830381600087803b158015610ce557600080fd5b505af1158015610cf9573d6000803e3d6000fd5b505050506040513d601f19601f82011682018060405250810190610d1d9190611c6a565b909450925087841015610d7e5760405162461bcd60e51b815260206004820152602360248201527f496e73756666696369656e7420696e737572616e636520746f6b656e20616d6f6044820152621d5b9d60ea1b60648201526084016101fe565b86831015610dce5760405162461bcd60e51b815260206004820152601760248201527f496e73756666696369656e74205553445420746f6b656e00000000000000000060448201526064016101fe565b505097509795505050505050565b600080600083804210610e015760405162461bcd60e51b81526004016101fe90611a30565b610e0f8c8c8c8c8c8c61102b565b8094508195505050600073__NaughtyLibrary________________________63524d01f860008054906101000a90046001600160a01b03168f8f6040518463ffffffff1660e01b8152600401610e6793929190611a5d565b60206040518083038186803b158015610e7f57600080fd5b505af4158015610e93573d6000803e3d6000fd5b505050506040513d601f19601f82011682018060405250810190610eb79190611a80565b9050610ec58d3383886112c5565b610ed18c3383876112c5565b6040516335313c2160e11b81526001600160a01b038881166004830152821690636a62784290602401602060405180830381600087803b158015610f1457600080fd5b505af1158015610f28573d6000803e3d6000fd5b505050506040513d601f19601f82011682018060405250810190610f4c9190611a9d565b92505050985098509895505050505050565b6000806000610f6e8786866112da565b6001600160701b031691506001600160701b03169150610f8f8683836113e2565b979650505050505050565b604080516001600160a01b0385811660248301528416604482015260648082018490528251808303909101815260849091019091526020810180516001600160e01b03166323b872dd60e01b179052610ff49085906114a2565b50505050565b600080600061100a8786866112da565b6001600160701b031691506001600160701b03169150610f8f868383611579565b60015460405163bf4a1b5f60e01b81526001600160a01b03918216600482015290861660248201526000908190819073__NaughtyLibrary________________________9063bf4a1b5f9060440160206040518083038186803b15801561109157600080fd5b505af41580156110a5573d6000803e3d6000fd5b505050506040513d601f19601f820116820180604052508101906110c99190611afc565b9050806110e85760405162461bcd60e51b81526004016101fe90611b63565b60008054604051633274946160e01b8152829173__NaughtyLibrary________________________91633274946191611133916001600160a01b03909116908f908f90600401611a5d565b604080518083038186803b15801561114a57600080fd5b505af415801561115e573d6000803e3d6000fd5b505050506040513d601f19601f820116820180604052508101906111829190611bc8565b6001600160701b031691506001600160701b031691508160001480156111a6575080155b156111b6578894508793506112b7565b60006111c38a8484611649565b905088811161121f57868110156112145760405162461bcd60e51b8152602060048201526015602482015274125394d551919250d251539517d097d05353d55395605a1b60448201526064016101fe565b8995509350836112b5565b600061122c8a8486611649565b90508a8111156112675760405162461bcd60e51b81526020600482015260066024820152656e6f6e6f6e6f60d01b60448201526064016101fe565b888110156112af5760405162461bcd60e51b8152602060048201526015602482015274125394d551919250d251539517d057d05353d55395605a1b60448201526064016101fe565b95508894505b505b505050965096945050505050565b610ff46001600160a01b038516848484610f9a565b60405163b4f69a2f60e01b81526001600160a01b0383811660048301528281166024830152600091829182919087169063b4f69a2f9060440160206040518083038186803b15801561132b57600080fd5b505afa15801561133f573d6000803e3d6000fd5b505050506040513d601f19601f820116820180604052508101906113639190611a80565b9050806001600160a01b0316630902f1ac6040518163ffffffff1660e01b8152600401604080518083038186803b15801561139d57600080fd5b505afa1580156113b1573d6000803e3d6000fd5b505050506040513d601f19601f820116820180604052508101906113d59190611bc8565b9097909650945050505050565b60008084116114335760405162461bcd60e51b815260206004820152601960248201527f696e73756666696369656e7420696e70757420616d6f756e740000000000000060448201526064016101fe565b6000831180156114435750600082115b61145f5760405162461bcd60e51b81526004016101fe90611c8e565b600061146d856103d4611c29565b9050600061147b8483611c29565b905060008261148c876103e8611c29565b6114969190611c11565b9050610f8f8183611c48565b60006114f7826040518060400160405280602081526020017f5361666545524332303a206c6f772d6c6576656c2063616c6c206661696c6564815250856001600160a01b03166116d99092919063ffffffff16565b80519091501561157457808060200190518101906115159190611afc565b6115745760405162461bcd60e51b815260206004820152602a60248201527f5361666545524332303a204552433230206f7065726174696f6e20646964206e6044820152691bdd081cdd58d8d9595960b21b60648201526084016101fe565b505050565b60008084116115ca5760405162461bcd60e51b815260206004820152601a60248201527f696e73756666696369656e74206f757470757420616d6f756e7400000000000060448201526064016101fe565b6000831180156115da5750600082115b6115f65760405162461bcd60e51b81526004016101fe90611c8e565b60006116028585611c29565b61160e906103e8611c29565b9050600061161c8685611cbe565b611628906103d4611c29565b90506116348183611c48565b61163f906001611c11565b9695505050505050565b60008084116116905760405162461bcd60e51b81526020600482015260136024820152721a5b9cdd59999a58da595b9d08185b5bdd5b9d606a1b60448201526064016101fe565b6000831180156116a05750600082115b6116bc5760405162461bcd60e51b81526004016101fe90611c8e565b826116c78386611c29565b6116d19190611c48565b949350505050565b60606116d184846000856116ef565b9392505050565b606030318311156117515760405162461bcd60e51b815260206004820152602660248201527f416464726573733a20696e73756666696369656e742062616c616e636520666f6044820152651c8818d85b1b60d21b60648201526084016101fe565b843b61179f5760405162461bcd60e51b815260206004820152601d60248201527f416464726573733a2063616c6c20746f206e6f6e2d636f6e747261637400000060448201526064016101fe565b600080866001600160a01b031685876040516117bb9190611d01565b60006040518083038185875af1925050503d80600081146117f8576040519150601f19603f3d011682016040523d82523d6000602084013e6117fd565b606091505b5091509150610f8f828286606083156118175750816116e8565b8251156118275782518084602001fd5b8160405162461bcd60e51b81526004016101fe9190611d1d565b6001600160a01b038116811461185657600080fd5b50565b60008060008060008060c0878903121561187257600080fd5b8635955060208701359450604087013561188b81611841565b9350606087013561189b81611841565b925060808701356118ab81611841565b8092505060a087013590509295509295509295565b6000602082840312156118d257600080fd5b81356116e881611841565b60008060008060008060c087890312156118f657600080fd5b863561190181611841565b9550602087013561191181611841565b945060408701359350606087013561192881611841565b9598949750929560808101359460a0909101359350915050565b600080600080600080600060e0888a03121561195d57600080fd5b873561196881611841565b9650602088013561197881611841565b955060408801359450606088013593506080880135925060a088013561199d81611841565b8092505060c0880135905092959891949750929550565b600080600080600080600080610100898b0312156119d157600080fd5b88356119dc81611841565b975060208901356119ec81611841565b965060408901359550606089013594506080890135935060a0890135925060c0890135611a1881611841565b8092505060e089013590509295985092959890939650565b60208082526013908201527232bc3834b932b2103a3930b739b0b1ba34b7b760691b604082015260600190565b6001600160a01b0393841681529183166020830152909116604082015260600190565b600060208284031215611a9257600080fd5b81516116e881611841565b600060208284031215611aaf57600080fd5b5051919050565b60208082526026908201527f5468697320706f6f6c20686173206265656e2066726f7a656e20666f72207377604082015265617070696e6760d01b606082015260800190565b600060208284031215611b0e57600080fd5b815180151581146116e857600080fd5b60208082526025908201527f4f6e6c7920746865206f776e65722063616e2063616c6c20746869732066756e60408201526431ba34b7b760d91b606082015260800190565b60208082526029908201527f706c656173652070757420737461626c65636f696e20617320746f6b656e42206040820152683830b930b6b2ba32b960b91b606082015260800190565b80516001600160701b0381168114611bc357600080fd5b919050565b60008060408385031215611bdb57600080fd5b611be483611bac565b9150611bf260208401611bac565b90509250929050565b634e487b7160e01b600052601160045260246000fd5b60008219821115611c2457611c24611bfb565b500190565b6000816000190483118215151615611c4357611c43611bfb565b500290565b600082611c6557634e487b7160e01b600052601260045260246000fd5b500490565b60008060408385031215611c7d57600080fd5b505080516020909101519092909150565b602080825260169082015275696e73756666696369656e74206c697175696469747960501b604082015260600190565b600082821015611cd057611cd0611bfb565b500390565b60005b83811015611cf0578181015183820152602001611cd8565b83811115610ff45750506000910152565b60008251611d13818460208701611cd5565b9190910192915050565b6020815260008251806020840152611d3c816040850160208701611cd5565b601f01601f1916919091016040019291505056fea2646970667358221220ed1ae6095f86abca619afab6c7123fe5bf020b202e63dbf72c7a9478128f814464736f6c63430008090033",
  "immutableReferences": {},
  "source": "// SPDX-License-Identifier: MIT\npragma solidity 0.8.9;\nimport \"@openzeppelin/contracts/token/ERC20/IERC20.sol\";\nimport \"@openzeppelin/contracts/token/ERC20/utils/SafeERC20.sol\";\nimport \"./libraries/NaughtyLibrary.sol\";\nimport \"./interfaces/IBuyerToken.sol\";\nimport \"./interfaces/IPolicyToken.sol\";\n\n/**\n * @title  NaughtyRouter\n * @notice Router for the pool, you can add/remove liquidity or swap A for B.\n *         Swapping fee rate is 2% and all of them are given to LP.\n *\n */\ncontract NaughtyRouter {\n    using SafeERC20 for IERC20;\n    using SafeERC20 for INaughtyPair;\n\n    // Some other contracts\n    address public factory;\n    address public policyCore;\n    address public buyerToken;\n\n    address public owner;\n\n    constructor(address _factory, address _buyerToken) {\n        owner = msg.sender;\n\n        factory = _factory;\n        buyerToken = _buyerToken;\n    }\n\n    // ---------------------------------------------------------------------------------------- //\n    // ************************************** Modifiers *************************************** //\n    // ---------------------------------------------------------------------------------------- //\n\n    /**\n     * @notice Transactions are available only before the deadline\n     * @param _deadLine Deadline of the pool\n     */\n    modifier beforeDeadline(uint256 _deadLine) {\n        require(block.timestamp < _deadLine, \"expired transaction\");\n        _;\n    }\n\n    /**\n     * @notice Only the owner can call some functions\n     */\n    modifier onlyOwner() {\n        require(msg.sender == owner, \"Only the owner can call this function\");\n        _;\n    }\n\n    // ---------------------------------------------------------------------------------------- //\n    // ************************************ Set Functions ************************************* //\n    // ---------------------------------------------------------------------------------------- //\n\n    /**\n     * @notice Set the address of policyCore\n     * @param _coreAddress Address of new policyCore\n     */\n    function setPolicyCore(address _coreAddress) public onlyOwner {\n        policyCore = _coreAddress;\n    }\n\n    /**\n     * @notice Set the address of buyer token\n     * @param _buyerToken Address of new buyer token\n     */\n    function setBuyerToken(address _buyerToken) public onlyOwner {\n        buyerToken = _buyerToken;\n    }\n\n    // ---------------------------------------------------------------------------------------- //\n    // *********************************** Helper Functions *********************************** //\n    // ---------------------------------------------------------------------------------------- //\n\n    /**\n     * @notice Add liquidity but only provide stablecoins\n     * @param _tokenA Address of policyToken\n     * @param _tokenB Address of stablecoin\n     * @param _amountUSD Amount of stablecoins provided\n     * @param _to Address that receive the lp token, normally the user himself\n     * @param _minRatio Minimum ratio (divided by 100)(amountMin / amountDesired)\n     * @param _deadline Transaction will revert after this deadline\n     */\n    function addLiquidityWithUSD(\n        address _tokenA,\n        address _tokenB,\n        uint256 _amountUSD,\n        address _to,\n        uint256 _minRatio,\n        uint256 _deadline\n    ) external beforeDeadline(_deadline) {\n        require(_minRatio <= 100, \"Minimum ratio can not exceed 100\");\n\n        bool isStablecoin = NaughtyLibrary.checkStablecoin(policyCore, _tokenB);\n        require(isStablecoin, \"please put stablecoin as tokenB parameter\");\n\n        (uint256 reserveA, uint256 reserveB) = NaughtyLibrary.getReserves(\n            factory,\n            _tokenA,\n            _tokenB\n        );\n\n        uint256 _amountADesired = (_amountUSD * reserveA) /\n            (reserveA + reserveB);\n        uint256 _amountBDesired = (_amountUSD * reserveB) /\n            (reserveA + reserveB);\n\n        // Mint _amountADesired policy tokens for users\n        NaughtyLibrary.mintPolicyTokensForUser(\n            policyCore,\n            _tokenA,\n            _tokenB,\n            _amountADesired,\n            msg.sender\n        );\n\n        addLiquidity(\n            _tokenA,\n            _tokenB,\n            _amountADesired,\n            _amountBDesired,\n            (_amountADesired * _minRatio) / 100,\n            (_amountBDesired * _minRatio) / 100,\n            _to,\n            _deadline\n        );\n    }\n\n    // ---------------------------------------------------------------------------------------- //\n    // ************************************ Main Functions ************************************ //\n    // ---------------------------------------------------------------------------------------- //\n\n    /**\n     * @notice Add liquidity function\n     * @param _tokenA Address of policyToken\n     * @param _tokenB Address of stablecoin\n     * @param _amountADesired Amount of policyToken desired\n     * @param _amountBDesired Amount of stablecoin desired\n     * @param _amountAMin Minimum amoutn of policy token\n     * @param _amountBMin Minimum amount of stablecoin\n     * @param _to Address that receive the lp token, normally the user himself\n     * @param _deadline Transaction will revert after this deadline\n     * @return amountA Amount of tokenA to be input\n     * @return amountB Amount of tokenB to be input\n     * @return liquidity LP token to be mint\n     */\n    function addLiquidity(\n        address _tokenA,\n        address _tokenB,\n        uint256 _amountADesired,\n        uint256 _amountBDesired,\n        uint256 _amountAMin,\n        uint256 _amountBMin,\n        address _to,\n        uint256 _deadline\n    )\n        public\n        beforeDeadline(_deadline)\n        returns (\n            uint256 amountA,\n            uint256 amountB,\n            uint256 liquidity\n        )\n    {\n        {\n            (amountA, amountB) = _addLiquidity(\n                _tokenA,\n                _tokenB,\n                _amountADesired,\n                _amountBDesired,\n                _amountAMin,\n                _amountBMin\n            );\n        }\n\n        address pair = NaughtyLibrary.getPairAddress(factory, _tokenA, _tokenB);\n\n        transferHelper(_tokenA, msg.sender, pair, amountA);\n        transferHelper(_tokenB, msg.sender, pair, amountB);\n\n        liquidity = INaughtyPair(pair).mint(_to);\n    }\n\n    /**\n     * @notice Remove liquidity from the pool\n     * @param _tokenA Address of policy token\n     * @param _tokenB Address of stablecoin\n     * @param _liquidity The lptoken amount to be removed\n     * @param _amountAMin Minimum amount of tokenA given out\n     * @param _amountBMin Minimum amount of tokenB given out\n     * @param _to User address\n     * @param _deadline Deadline of this transaction\n     * @return amountA Amount of token0 given out\n     * @return amountB Amount of token1 given out\n     */\n    function removeLiquidity(\n        address _tokenA,\n        address _tokenB,\n        uint256 _liquidity,\n        uint256 _amountAMin,\n        uint256 _amountBMin,\n        address _to,\n        uint256 _deadline\n    )\n        public\n        beforeDeadline(_deadline)\n        returns (uint256 amountA, uint256 amountB)\n    {\n        address pair = NaughtyLibrary.getPairAddress(factory, _tokenA, _tokenB);\n\n        INaughtyPair(pair).safeTransferFrom(msg.sender, pair, _liquidity); // send liquidity to pair\n\n        // Amount0: insurance token\n        (amountA, amountB) = INaughtyPair(pair).burn(_to);\n\n        require(amountA >= _amountAMin, \"Insufficient insurance token amount\");\n        require(amountB >= _amountBMin, \"Insufficient USDT token\");\n    }\n\n    /**\n     * @notice Amount out is fixed\n     * @param _amountInMax Maximum token input\n     * @param _amountOut Fixed token output\n     * @param _tokenIn Address of input token\n     * @param _tokenOut Address of output token\n     * @param _to User address\n     * @param _deadline Deadline for this specific swap\n     * @return amounts Amounts to be really put in\n     */\n    function swapTokensforExactTokens(\n        uint256 _amountInMax,\n        uint256 _amountOut,\n        address _tokenIn,\n        address _tokenOut,\n        address _to,\n        uint256 _deadline\n    ) external beforeDeadline(_deadline) returns (uint256 amounts) {\n        address pair = NaughtyLibrary.getPairAddress(\n            factory,\n            _tokenIn,\n            _tokenOut\n        );\n        // Each pool has a deadline\n        uint256 poolDeadline = INaughtyPair(pair).deadline();\n        require(\n            block.timestamp <= poolDeadline,\n            \"This pool has been frozen for swapping\"\n        );\n\n        // Get how many tokens should be put in\n        amounts = NaughtyLibrary.getAmountsIn(\n            factory,\n            _amountOut,\n            _tokenIn,\n            _tokenOut\n        );\n\n        require(amounts <= _amountInMax, \"excessive input amount\");\n\n        IERC20(_tokenIn).safeTransferFrom(msg.sender, pair, amounts);\n\n        // If tokenIn is usd then amount0Out = amountOut\n        bool isStablecoin = NaughtyLibrary.checkStablecoin(\n            policyCore,\n            _tokenIn\n        );\n\n        // If the user is buying insurances, give them buyer tokens\n        if (isStablecoin) {\n            IBuyerToken(buyerToken).mint(msg.sender, amounts);\n        }\n\n        uint256 amount0Out = isStablecoin ? _amountOut : 0;\n        uint256 amount1Out = isStablecoin ? 0 : _amountOut;\n\n        INaughtyPair(pair).swap(amount0Out, amount1Out, _to);\n    }\n\n    /**\n     * @notice Amount in is fixed\n     * @param _amountIn Fixed token input\n     * @param _amountOutMin Minimum token output\n     * @param _tokenIn Address of input token\n     * @param _tokenOut Address of output token\n     * @param _to User address\n     * @param _deadline Deadline for this specific swap\n     * @return amounts Amounts to be really given out\n     */\n    function swapExactTokensforTokens(\n        uint256 _amountIn,\n        uint256 _amountOutMin,\n        address _tokenIn,\n        address _tokenOut,\n        address _to,\n        uint256 _deadline\n    ) external beforeDeadline(_deadline) returns (uint256 amounts) {\n        address pair = NaughtyLibrary.getPairAddress(\n            factory,\n            _tokenIn,\n            _tokenOut\n        );\n        // Each pool has a deadline\n        uint256 poolDeadline = INaughtyPair(pair).deadline();\n        require(\n            block.timestamp <= poolDeadline,\n            \"This pool has been frozen for swapping\"\n        );\n\n        amounts = NaughtyLibrary.getAmountsOut(\n            factory,\n            _amountIn,\n            _tokenIn,\n            _tokenOut\n        );\n\n        require(amounts >= _amountOutMin, \"excessive output amount\");\n\n        IERC20(_tokenIn).safeTransferFrom(msg.sender, pair, _amountIn);\n\n        // Check if the tokenIn is stablecoin\n        bool isStablecoin = NaughtyLibrary.checkStablecoin(\n            policyCore,\n            _tokenIn\n        );\n\n        // If the user is buying insurances, give them buyer tokens\n        if (isStablecoin) {\n            IBuyerToken(buyerToken).mint(msg.sender, amounts);\n        }\n\n        uint256 amount0Out = isStablecoin ? amounts : 0;\n        uint256 amount1Out = isStablecoin ? 0 : amounts;\n\n        INaughtyPair(pair).swap(amount0Out, amount1Out, _to);\n    }\n\n    /**\n     * @notice Internal function to finish adding liquidity\n     * @param _tokenA Address of tokenA\n     * @param _tokenB Address of tokenB\n     * @param _amountADesired Amount of tokenA to be added\n     * @param _amountBDesired Amount of tokenB to be added\n     * @param _amountAMin Minimum amount of tokenA\n     * @param _amountBMin Minimum amount of tokenB\n     * @return amountA Real amount of tokenA\n     * @return amountB Real amount of tokenB\n     */\n    function _addLiquidity(\n        address _tokenA,\n        address _tokenB,\n        uint256 _amountADesired,\n        uint256 _amountBDesired,\n        uint256 _amountAMin,\n        uint256 _amountBMin\n    ) private view returns (uint256 amountA, uint256 amountB) {\n        bool isStablecoin = NaughtyLibrary.checkStablecoin(policyCore, _tokenB);\n        require(isStablecoin, \"please put stablecoin as tokenB parameter\");\n\n        (uint256 reserveA, uint256 reserveB) = NaughtyLibrary.getReserves(\n            factory,\n            _tokenA,\n            _tokenB\n        );\n        if (reserveA == 0 && reserveB == 0) {\n            (amountA, amountB) = (_amountADesired, _amountBDesired);\n        } else {\n            uint256 amountBOptimal = NaughtyLibrary.quote(\n                _amountADesired,\n                reserveA,\n                reserveB\n            );\n            if (amountBOptimal <= _amountBDesired) {\n                require(amountBOptimal >= _amountBMin, \"INSUFFICIENT_B_AMOUNT\");\n                (amountA, amountB) = (_amountADesired, amountBOptimal);\n            } else {\n                uint256 amountAOptimal = NaughtyLibrary.quote(\n                    _amountBDesired,\n                    reserveB,\n                    reserveA\n                );\n                require(amountAOptimal <= _amountADesired, \"nonono\");\n                require(amountAOptimal >= _amountAMin, \"INSUFFICIENT_A_AMOUNT\");\n                (amountA, amountB) = (amountAOptimal, _amountBDesired);\n            }\n        }\n    }\n\n    // ---------------------------------------------------------------------------------------- //\n    // *********************************** Internal Functions ********************************* //\n    // ---------------------------------------------------------------------------------------- //\n\n    /**\n     * @notice Finish the erc20 transfer operation\n     * @param _token ERC20 token address\n     * @param _from Address to give out the token\n     * @param _to Pair address to receive the token\n     * @param _amount Transfer amount\n     */\n    function transferHelper(\n        address _token,\n        address _from,\n        address _to,\n        uint256 _amount\n    ) internal {\n        IERC20(_token).safeTransferFrom(_from, _to, _amount);\n    }\n}\n",
  "sourcePath": "/Volumes/Store/src/naughty-price/contracts/NaughtyRouter.sol",
  "compiler": {
    "name": "solc",
    "version": "0.8.9+commit.e5eed63a.Emscripten.clang"
  },
  "schemaVersion": "3.4.3",
  "updatedAt": "2021-11-26T13:08:13.740Z",
  "networkType": "ethereum",
  "devdoc": {
    "kind": "dev",
    "methods": {
      "addLiquidity(address,address,uint256,uint256,uint256,uint256,address,uint256)": {
        "params": {
          "_amountADesired": "Amount of policyToken desired",
          "_amountAMin": "Minimum amoutn of policy token",
          "_amountBDesired": "Amount of stablecoin desired",
          "_amountBMin": "Minimum amount of stablecoin",
          "_deadline": "Transaction will revert after this deadline",
          "_to": "Address that receive the lp token, normally the user himself",
          "_tokenA": "Address of policyToken",
          "_tokenB": "Address of stablecoin"
        },
        "returns": {
          "amountA": "Amount of tokenA to be input",
          "amountB": "Amount of tokenB to be input",
          "liquidity": "LP token to be mint"
        }
      },
      "addLiquidityWithUSD(address,address,uint256,address,uint256,uint256)": {
        "params": {
          "_amountUSD": "Amount of stablecoins provided",
          "_deadline": "Transaction will revert after this deadline",
          "_minRatio": "Minimum ratio (divided by 100)(amountMin / amountDesired)",
          "_to": "Address that receive the lp token, normally the user himself",
          "_tokenA": "Address of policyToken",
          "_tokenB": "Address of stablecoin"
        }
      },
      "removeLiquidity(address,address,uint256,uint256,uint256,address,uint256)": {
        "params": {
          "_amountAMin": "Minimum amount of tokenA given out",
          "_amountBMin": "Minimum amount of tokenB given out",
          "_deadline": "Deadline of this transaction",
          "_liquidity": "The lptoken amount to be removed",
          "_to": "User address",
          "_tokenA": "Address of policy token",
          "_tokenB": "Address of stablecoin"
        },
        "returns": {
          "amountA": "Amount of token0 given out",
          "amountB": "Amount of token1 given out"
        }
      },
      "setBuyerToken(address)": {
        "params": {
          "_buyerToken": "Address of new buyer token"
        }
      },
      "setPolicyCore(address)": {
        "params": {
          "_coreAddress": "Address of new policyCore"
        }
      },
      "swapExactTokensforTokens(uint256,uint256,address,address,address,uint256)": {
        "params": {
          "_amountIn": "Fixed token input",
          "_amountOutMin": "Minimum token output",
          "_deadline": "Deadline for this specific swap",
          "_to": "User address",
          "_tokenIn": "Address of input token",
          "_tokenOut": "Address of output token"
        },
        "returns": {
          "amounts": "Amounts to be really given out"
        }
      },
      "swapTokensforExactTokens(uint256,uint256,address,address,address,uint256)": {
        "params": {
          "_amountInMax": "Maximum token input",
          "_amountOut": "Fixed token output",
          "_deadline": "Deadline for this specific swap",
          "_to": "User address",
          "_tokenIn": "Address of input token",
          "_tokenOut": "Address of output token"
        },
        "returns": {
          "amounts": "Amounts to be really put in"
        }
      }
    },
    "title": "NaughtyRouter",
    "version": 1
  },
  "userdoc": {
    "kind": "user",
    "methods": {
      "addLiquidity(address,address,uint256,uint256,uint256,uint256,address,uint256)": {
        "notice": "Add liquidity function"
      },
      "addLiquidityWithUSD(address,address,uint256,address,uint256,uint256)": {
        "notice": "Add liquidity but only provide stablecoins"
      },
      "removeLiquidity(address,address,uint256,uint256,uint256,address,uint256)": {
        "notice": "Remove liquidity from the pool"
      },
      "setBuyerToken(address)": {
        "notice": "Set the address of buyer token"
      },
      "setPolicyCore(address)": {
        "notice": "Set the address of policyCore"
      },
      "swapExactTokensforTokens(uint256,uint256,address,address,address,uint256)": {
        "notice": "Amount in is fixed"
      },
      "swapTokensforExactTokens(uint256,uint256,address,address,address,uint256)": {
        "notice": "Amount out is fixed"
      }
    },
    "notice": "Router for the pool, you can add/remove liquidity or swap A for B.         Swapping fee rate is 2% and all of them are given to LP.",
    "version": 1
  }
}