{
  "contractName": "NaughtyLibrary",
  "abi": [
    {
      "inputs": [
        {
          "internalType": "address",
          "name": "factory",
          "type": "address"
        },
        {
          "internalType": "address",
          "name": "tokenA",
          "type": "address"
        },
        {
          "internalType": "address",
          "name": "tokenB",
          "type": "address"
        }
      ],
      "name": "getReserves",
      "outputs": [
        {
          "internalType": "uint112",
          "name": "reserveA",
          "type": "uint112"
        },
        {
          "internalType": "uint112",
          "name": "reserveB",
          "type": "uint112"
        }
      ],
      "stateMutability": "view",
      "type": "function",
      "constant": true
    },
    {
      "inputs": [
        {
          "internalType": "address",
          "name": "factory",
          "type": "address"
        },
        {
          "internalType": "address",
          "name": "tokenA",
          "type": "address"
        },
        {
          "internalType": "address",
          "name": "tokenB",
          "type": "address"
        }
      ],
      "name": "getPairAddress",
      "outputs": [
        {
          "internalType": "address",
          "name": "",
          "type": "address"
        }
      ],
      "stateMutability": "view",
      "type": "function",
      "constant": true
    },
    {
      "inputs": [
        {
          "internalType": "address",
          "name": "_policyCore",
          "type": "address"
        },
        {
          "internalType": "address",
          "name": "_coinAddress",
          "type": "address"
        }
      ],
      "name": "checkStablecoin",
      "outputs": [
        {
          "internalType": "bool",
          "name": "",
          "type": "bool"
        }
      ],
      "stateMutability": "view",
      "type": "function",
      "constant": true
    }
  ],
  "bytecode": "0x610718610053600b82828239805160001a607314610046577f4e487b7100000000000000000000000000000000000000000000000000000000600052600060045260246000fd5b30600052607381538281f3fe73000000000000000000000000000000000000000030146080604052600436106100565760003560e01c8063327494611461005b578063524d01f814610093578063a327a361146100be578063bf4a1b5f146100e0575b600080fd5b61006e610069366004610426565b610103565b604080516001600160701b039384168152929091166020830152015b60405180910390f35b6100a66100a1366004610426565b61020b565b6040516001600160a01b03909116815260200161008a565b8180156100ca57600080fd5b506100de6100d9366004610471565b61029a565b005b6100f36100ee3660046104d9565b61038a565b604051901515815260200161008a565b60405163b4f69a2f60e01b81526001600160a01b0383811660048301528281166024830152600091829182919087169063b4f69a2f9060440160206040518083038186803b15801561015457600080fd5b505afa158015610168573d6000803e3d6000fd5b505050506040513d601f19601f8201168201806040525081019061018c9190610512565b9050806001600160a01b0316630902f1ac6040518163ffffffff1660e01b8152600401604080518083038186803b1580156101c657600080fd5b505afa1580156101da573d6000803e3d6000fd5b505050506040513d601f19601f820116820180604052508101906101fe919061054b565b9097909650945050505050565b60405163b4f69a2f60e01b81526001600160a01b0383811660048301528281166024830152600091829186169063b4f69a2f9060440160206040518083038186803b15801561025957600080fd5b505afa15801561026d573d6000803e3d6000fd5b505050506040513d601f19601f820116820180604052508101906102919190610512565b95945050505050565b604051631c040ef160e11b81526001600160a01b038581166004830152600091908716906338081de29060240160006040518083038186803b1580156102df57600080fd5b505afa1580156102f3573d6000803e3d6000fd5b505050506040513d6000823e601f3d908101601f1916820160405261031b91908101906105c4565b604051633c572b0d60e21b81529091506001600160a01b0387169063f15cac3490610350908490889088908890600401610671565b600060405180830381600087803b15801561036a57600080fd5b505af115801561037e573d6000803e3d6000fd5b50505050505050505050565b60405163237dd6ed60e11b81526001600160a01b038281166004830152600091908416906346fbadda9060240160206040518083038186803b1580156103cf57600080fd5b505afa1580156103e3573d6000803e3d6000fd5b505050506040513d601f19601f8201168201806040525081019061040791906106c0565b9392505050565b6001600160a01b038116811461042357600080fd5b50565b60008060006060848603121561043b57600080fd5b83356104468161040e565b925060208401356104568161040e565b915060408401356104668161040e565b809150509250925092565b600080600080600060a0868803121561048957600080fd5b85356104948161040e565b945060208601356104a48161040e565b935060408601356104b48161040e565b92506060860135915060808601356104cb8161040e565b809150509295509295909350565b600080604083850312156104ec57600080fd5b82356104f78161040e565b915060208301356105078161040e565b809150509250929050565b60006020828403121561052457600080fd5b81516104078161040e565b80516001600160701b038116811461054657600080fd5b919050565b6000806040838503121561055e57600080fd5b6105678361052f565b91506105756020840161052f565b90509250929050565b634e487b7160e01b600052604160045260246000fd5b60005b838110156105af578181015183820152602001610597565b838111156105be576000848401525b50505050565b6000602082840312156105d657600080fd5b815167ffffffffffffffff808211156105ee57600080fd5b818401915084601f83011261060257600080fd5b8151818111156106145761061461057e565b604051601f8201601f19908116603f0116810190838211818310171561063c5761063c61057e565b8160405282815287602084870101111561065557600080fd5b610666836020830160208801610594565b979650505050505050565b60808152600085518060808401526106908160a0850160208a01610594565b6001600160a01b03958616602084015260408301949094525092166060830152601f01601f19160160a001919050565b6000602082840312156106d257600080fd5b8151801515811461040757600080fdfea2646970667358221220b22c930ab3c325814570404bcfbfe23df988dded3556ce9b0128dc17ca5cff3c64736f6c63430008090033",
  "immutableReferences": {},
  "source": "// SPDX-License-Identifier: MIT\npragma solidity 0.8.9;\n\nimport \"../interfaces/INaughtyPair.sol\";\nimport \"../interfaces/INaughtyFactory.sol\";\nimport \"../interfaces/IPolicyCore.sol\";\n\nlibrary NaughtyLibrary {\n    /**\n     * @notice Used when swap exact tokens for tokens (in is fixed)\n     * @param factory Address of naughtyFactory contract\n     * @param isBuying Whether the user is buying policy tokens\n     * @param _amountIn Amount of tokens put in\n     * @param _tokenIn Address of the input token\n     * @param _tokenOut Address of the output token\n     */\n    function getAmountOut(\n        address factory,\n        bool isBuying,\n        uint256 _amountIn,\n        address _tokenIn,\n        address _tokenOut\n    ) internal view returns (uint256 amounts) {\n        (uint256 reserveA, uint256 reserveB) = getReserves(\n            factory,\n            _tokenIn,\n            _tokenOut\n        );\n\n        // If tokenIn is stablecoin (isBuying), then tokeIn should be tokenB\n        // Get the right order\n        (uint256 reserveIn, uint256 reserveOut) = isBuying\n            ? (reserveB, reserveA)\n            : (reserveA, reserveB);\n\n        amounts = _calcAmountOut(_amountIn, reserveIn, reserveOut);\n    }\n\n    /**\n     * @notice Used when swap tokens for exact tokens (out is fixed)\n     * @param factory Address of naughtyFactory contract\n     * @param isBuying Whether the user is buying policy tokens\n     * @param _amountOut Amount of tokens given out\n     * @param _tokenIn Address of the input token\n     * @param _tokenOut Address of the output token\n     */\n    function getAmountIn(\n        address factory,\n        bool isBuying,\n        uint256 _amountOut,\n        address _tokenIn,\n        address _tokenOut\n    ) internal view returns (uint256 amounts) {\n        (uint256 reserveA, uint256 reserveB) = getReserves(\n            factory,\n            _tokenIn,\n            _tokenOut\n        );\n        // If tokenIn is stablecoin (isBuying), then tokeIn should be tokenB\n        // Get the right order\n        (uint256 reserveIn, uint256 reserveOut) = isBuying\n            ? (reserveB, reserveA)\n            : (reserveA, reserveB);\n\n        amounts = _calcAmountIn(_amountOut, reserveIn, reserveOut);\n    }\n\n    /**\n     * @notice given an input amount of an asset and pair reserves, returns the maximum output amount of the other asset\n     * @param _amountIn Amout of input tokens\n     * @param _reserveIn Reserve of the input token\n     * @param _reserveOut Reserve of the output token\n     * @return amountOut Amount of output tokens\n     */\n    function _calcAmountOut(\n        uint256 _amountIn,\n        uint256 _reserveIn,\n        uint256 _reserveOut\n    ) internal pure returns (uint256 amountOut) {\n        require(_amountIn > 0, \"insufficient input amount\");\n        require(_reserveIn > 0 && _reserveOut > 0, \"insufficient liquidity\");\n\n        uint256 amountInWithFee = _amountIn * 980;\n        uint256 numerator = amountInWithFee * _reserveOut;\n        uint256 denominator = _reserveIn * 1000 + amountInWithFee;\n\n        amountOut = numerator / denominator;\n    }\n\n    /**\n     * @notice given an output amount of an asset and pair reserves, returns a required input amount of the other asset\n     * @param _amountOut Amout of output tokens\n     * @param _reserveIn Reserve of the input token\n     * @param _reserveOut Reserve of the output token\n     * @return amountIn Amount of input tokens\n     */\n    function _calcAmountIn(\n        uint256 _amountOut,\n        uint256 _reserveIn,\n        uint256 _reserveOut\n    ) internal pure returns (uint256 amountIn) {\n        require(_amountOut > 0, \"insufficient output amount\");\n        require(_reserveIn > 0 && _reserveOut > 0, \"insufficient liquidity\");\n\n        uint256 numerator = _reserveIn * _amountOut * 1000;\n        uint256 denominator = (_reserveOut - _amountOut) * 980;\n        amountIn = (numerator / denominator) + 1;\n    }\n\n    /**\n     * @notice Fetche the reserves for a pair\n     * @dev You need to sort the token order by yourself!\n     *      No matter your input order, the return value will always start with policy token reserve.\n     */\n    function getReserves(\n        address factory,\n        address tokenA,\n        address tokenB\n    ) public view returns (uint112 reserveA, uint112 reserveB) {\n        address pairAddress = INaughtyFactory(factory).getPairAddress(\n            tokenA,\n            tokenB\n        );\n\n        // (Policy token reserve, stablecoin reserve)\n        (reserveA, reserveB) = INaughtyPair(pairAddress).getReserves();\n    }\n\n    /**\n     * @notice Get pair address\n     * @param factory: Naughty price factory address\n     * @param tokenA: TokenA address\n     * @param tokenB: TokenB address\n     */\n    function getPairAddress(\n        address factory,\n        address tokenA,\n        address tokenB\n    ) external view returns (address) {\n        address pairAddress = INaughtyFactory(factory).getPairAddress(\n            tokenA,\n            tokenB\n        );\n\n        return pairAddress;\n    }\n\n    /**\n     * @notice Given some amount of an asset and pair reserves, returns an equivalent amount of the other asset\n     * @dev Used when add or remove liquidity\n     * @param _amountA Amount of tokenA ( can be policytoken or stablecoin)\n     * @param _reserveA Reserve of tokenA\n     * @param _reserveB Reserve of tokenB\n     */\n    function quote(\n        uint256 _amountA,\n        uint256 _reserveA,\n        uint256 _reserveB\n    ) internal pure returns (uint256 amountB) {\n        require(_amountA > 0, \"insufficient amount\");\n        require(_reserveA > 0 && _reserveB > 0, \"insufficient liquidity\");\n\n        amountB = (_amountA * _reserveB) / _reserveA;\n    }\n\n    /**\n     * @notice Check if a token is stablecoin (supported in naughty price)\n     * @param _policyCore Address of policyCore contract\n     * @param _coinAddress Address of the token to be checked\n     * @return isStablecoin Whether this token is a stablecoin\n     */\n    function checkStablecoin(address _policyCore, address _coinAddress)\n        public\n        view\n        returns (bool)\n    {\n        return IPolicyCore(_policyCore).isStablecoinAddress(_coinAddress);\n    }\n\n    /**\n     * @notice Used when users only provide stablecoins and want to mint & add liquidity in one step\n     * @dev Need have approval before\n     * @param _policyCore Address of the policyCore contract\n     * @param _policyTokenAddress Address of the policy token\n     * @param _stablecoin Address of the stablecoin\n     * @param _amount Amount to be used for minting policy tokens\n     * @param _userAddress The user's address\n     */\n    function mintPolicyTokensForUser(\n        address _policyCore,\n        address _policyTokenAddress,\n        address _stablecoin,\n        uint256 _amount,\n        address _userAddress\n    ) public {\n        // Find the policy token name\n        string memory policyTokenName = IPolicyCore(_policyCore)\n            .findNamebyAddress(_policyTokenAddress);\n\n        IPolicyCore(_policyCore).delegateDeposit(\n            policyTokenName,\n            _stablecoin,\n            _amount,\n            _userAddress\n        );\n    }\n}\n",
  "sourcePath": "/Volumes/Store/Degis/naughty-price/contracts/libraries/NaughtyLibrary.sol",
  "compiler": {
    "name": "solc",
    "version": "0.8.9+commit.e5eed63a.Emscripten.clang"
  },
  "schemaVersion": "3.4.3",
  "updatedAt": "2021-12-06T10:35:17.881Z",
  "networkType": "ethereum",
  "devdoc": {
    "kind": "dev",
    "methods": {
      "checkStablecoin(address,address)": {
        "params": {
          "_coinAddress": "Address of the token to be checked",
          "_policyCore": "Address of policyCore contract"
        },
        "returns": {
          "_0": "isStablecoin Whether this token is a stablecoin"
        }
      },
      "getPairAddress(address,address,address)": {
        "params": {
          "factory": ": Naughty price factory address",
          "tokenA": ": TokenA address",
          "tokenB": ": TokenB address"
        }
      },
      "getReserves(address,address,address)": {
        "details": "You need to sort the token order by yourself!      No matter your input order, the return value will always start with policy token reserve."
      },
      "mintPolicyTokensForUser(address,address,address,uint256,address)": {
        "details": "Need have approval before",
        "params": {
          "_amount": "Amount to be used for minting policy tokens",
          "_policyCore": "Address of the policyCore contract",
          "_policyTokenAddress": "Address of the policy token",
          "_stablecoin": "Address of the stablecoin",
          "_userAddress": "The user's address"
        }
      }
    },
    "version": 1
  },
  "userdoc": {
    "kind": "user",
    "methods": {
      "checkStablecoin(address,address)": {
        "notice": "Check if a token is stablecoin (supported in naughty price)"
      },
      "getPairAddress(address,address,address)": {
        "notice": "Get pair address"
      },
      "getReserves(address,address,address)": {
        "notice": "Fetche the reserves for a pair"
      },
      "mintPolicyTokensForUser(address,address,address,uint256,address)": {
        "notice": "Used when users only provide stablecoins and want to mint & add liquidity in one step"
      }
    },
    "version": 1
  }
}