{
  "contractName": "NaughtyPair",
  "abi": [
    {
      "inputs": [],
      "stateMutability": "nonpayable",
      "type": "constructor"
    },
    {
      "anonymous": false,
      "inputs": [
        {
          "indexed": true,
          "internalType": "address",
          "name": "owner",
          "type": "address"
        },
        {
          "indexed": true,
          "internalType": "address",
          "name": "spender",
          "type": "address"
        },
        {
          "indexed": false,
          "internalType": "uint256",
          "name": "value",
          "type": "uint256"
        }
      ],
      "name": "Approval",
      "type": "event"
    },
    {
      "anonymous": false,
      "inputs": [
        {
          "indexed": false,
          "internalType": "uint256",
          "name": "reserve0",
          "type": "uint256"
        },
        {
          "indexed": false,
          "internalType": "uint256",
          "name": "reserve1",
          "type": "uint256"
        }
      ],
      "name": "ReserveUpdated",
      "type": "event"
    },
    {
      "anonymous": false,
      "inputs": [
        {
          "indexed": true,
          "internalType": "address",
          "name": "sender",
          "type": "address"
        },
        {
          "indexed": false,
          "internalType": "uint256",
          "name": "amount0In",
          "type": "uint256"
        },
        {
          "indexed": false,
          "internalType": "uint256",
          "name": "amount1In",
          "type": "uint256"
        },
        {
          "indexed": false,
          "internalType": "uint256",
          "name": "amount0Out",
          "type": "uint256"
        },
        {
          "indexed": false,
          "internalType": "uint256",
          "name": "amount1Out",
          "type": "uint256"
        },
        {
          "indexed": true,
          "internalType": "address",
          "name": "to",
          "type": "address"
        }
      ],
      "name": "Swap",
      "type": "event"
    },
    {
      "anonymous": false,
      "inputs": [
        {
          "indexed": true,
          "internalType": "address",
          "name": "from",
          "type": "address"
        },
        {
          "indexed": true,
          "internalType": "address",
          "name": "to",
          "type": "address"
        },
        {
          "indexed": false,
          "internalType": "uint256",
          "name": "value",
          "type": "uint256"
        }
      ],
      "name": "Transfer",
      "type": "event"
    },
    {
      "inputs": [
        {
          "internalType": "address",
          "name": "_account",
          "type": "address"
        }
      ],
      "name": "LPBalanceOf",
      "outputs": [
        {
          "internalType": "uint256",
          "name": "",
          "type": "uint256"
        }
      ],
      "stateMutability": "view",
      "type": "function"
    },
    {
      "inputs": [
        {
          "internalType": "address",
          "name": "_account",
          "type": "address"
        },
        {
          "internalType": "uint256",
          "name": "_amount",
          "type": "uint256"
        }
      ],
      "name": "LPBurn",
      "outputs": [],
      "stateMutability": "nonpayable",
      "type": "function"
    },
    {
      "inputs": [
        {
          "internalType": "address",
          "name": "_account",
          "type": "address"
        },
        {
          "internalType": "uint256",
          "name": "_amount",
          "type": "uint256"
        }
      ],
      "name": "LPMint",
      "outputs": [],
      "stateMutability": "nonpayable",
      "type": "function"
    },
    {
      "inputs": [],
      "name": "MINIMUM_LIQUIDITY",
      "outputs": [
        {
          "internalType": "uint256",
          "name": "",
          "type": "uint256"
        }
      ],
      "stateMutability": "view",
      "type": "function"
    },
    {
      "inputs": [
        {
          "internalType": "address",
          "name": "owner",
          "type": "address"
        },
        {
          "internalType": "address",
          "name": "spender",
          "type": "address"
        }
      ],
      "name": "allowance",
      "outputs": [
        {
          "internalType": "uint256",
          "name": "",
          "type": "uint256"
        }
      ],
      "stateMutability": "view",
      "type": "function"
    },
    {
      "inputs": [
        {
          "internalType": "address",
          "name": "spender",
          "type": "address"
        },
        {
          "internalType": "uint256",
          "name": "amount",
          "type": "uint256"
        }
      ],
      "name": "approve",
      "outputs": [
        {
          "internalType": "bool",
          "name": "",
          "type": "bool"
        }
      ],
      "stateMutability": "nonpayable",
      "type": "function"
    },
    {
      "inputs": [
        {
          "internalType": "address",
          "name": "account",
          "type": "address"
        }
      ],
      "name": "balanceOf",
      "outputs": [
        {
          "internalType": "uint256",
          "name": "",
          "type": "uint256"
        }
      ],
      "stateMutability": "view",
      "type": "function"
    },
    {
      "inputs": [],
      "name": "deadline",
      "outputs": [
        {
          "internalType": "uint256",
          "name": "",
          "type": "uint256"
        }
      ],
      "stateMutability": "view",
      "type": "function"
    },
    {
      "inputs": [],
      "name": "decimals",
      "outputs": [
        {
          "internalType": "uint8",
          "name": "",
          "type": "uint8"
        }
      ],
      "stateMutability": "view",
      "type": "function"
    },
    {
      "inputs": [
        {
          "internalType": "address",
          "name": "spender",
          "type": "address"
        },
        {
          "internalType": "uint256",
          "name": "subtractedValue",
          "type": "uint256"
        }
      ],
      "name": "decreaseAllowance",
      "outputs": [
        {
          "internalType": "bool",
          "name": "",
          "type": "bool"
        }
      ],
      "stateMutability": "nonpayable",
      "type": "function"
    },
    {
      "inputs": [],
      "name": "factory",
      "outputs": [
        {
          "internalType": "address",
          "name": "",
          "type": "address"
        }
      ],
      "stateMutability": "view",
      "type": "function"
    },
    {
      "inputs": [
        {
          "internalType": "address",
          "name": "spender",
          "type": "address"
        },
        {
          "internalType": "uint256",
          "name": "addedValue",
          "type": "uint256"
        }
      ],
      "name": "increaseAllowance",
      "outputs": [
        {
          "internalType": "bool",
          "name": "",
          "type": "bool"
        }
      ],
      "stateMutability": "nonpayable",
      "type": "function"
    },
    {
      "inputs": [],
      "name": "name",
      "outputs": [
        {
          "internalType": "string",
          "name": "",
          "type": "string"
        }
      ],
      "stateMutability": "view",
      "type": "function"
    },
    {
      "inputs": [],
      "name": "symbol",
      "outputs": [
        {
          "internalType": "string",
          "name": "",
          "type": "string"
        }
      ],
      "stateMutability": "view",
      "type": "function"
    },
    {
      "inputs": [],
      "name": "token0",
      "outputs": [
        {
          "internalType": "address",
          "name": "",
          "type": "address"
        }
      ],
      "stateMutability": "view",
      "type": "function"
    },
    {
      "inputs": [],
      "name": "token1",
      "outputs": [
        {
          "internalType": "address",
          "name": "",
          "type": "address"
        }
      ],
      "stateMutability": "view",
      "type": "function"
    },
    {
      "inputs": [],
      "name": "totalSupply",
      "outputs": [
        {
          "internalType": "uint256",
          "name": "",
          "type": "uint256"
        }
      ],
      "stateMutability": "view",
      "type": "function"
    },
    {
      "inputs": [
        {
          "internalType": "address",
          "name": "recipient",
          "type": "address"
        },
        {
          "internalType": "uint256",
          "name": "amount",
          "type": "uint256"
        }
      ],
      "name": "transfer",
      "outputs": [
        {
          "internalType": "bool",
          "name": "",
          "type": "bool"
        }
      ],
      "stateMutability": "nonpayable",
      "type": "function"
    },
    {
      "inputs": [
        {
          "internalType": "address",
          "name": "sender",
          "type": "address"
        },
        {
          "internalType": "address",
          "name": "recipient",
          "type": "address"
        },
        {
          "internalType": "uint256",
          "name": "amount",
          "type": "uint256"
        }
      ],
      "name": "transferFrom",
      "outputs": [
        {
          "internalType": "bool",
          "name": "",
          "type": "bool"
        }
      ],
      "stateMutability": "nonpayable",
      "type": "function"
    },
    {
      "inputs": [],
      "name": "unlocked",
      "outputs": [
        {
          "internalType": "bool",
          "name": "",
          "type": "bool"
        }
      ],
      "stateMutability": "view",
      "type": "function"
    },
    {
      "inputs": [
        {
          "internalType": "address",
          "name": "_token0",
          "type": "address"
        },
        {
          "internalType": "address",
          "name": "_token1",
          "type": "address"
        },
        {
          "internalType": "uint256",
          "name": "_deadline",
          "type": "uint256"
        }
      ],
      "name": "initialize",
      "outputs": [],
      "stateMutability": "nonpayable",
      "type": "function"
    },
    {
      "inputs": [],
      "name": "getReserves",
      "outputs": [
        {
          "internalType": "uint112",
          "name": "_reserve0",
          "type": "uint112"
        },
        {
          "internalType": "uint112",
          "name": "_reserve1",
          "type": "uint112"
        }
      ],
      "stateMutability": "view",
      "type": "function"
    },
    {
      "inputs": [
        {
          "internalType": "address",
          "name": "to",
          "type": "address"
        }
      ],
      "name": "mint",
      "outputs": [
        {
          "internalType": "uint256",
          "name": "liquidity",
          "type": "uint256"
        }
      ],
      "stateMutability": "nonpayable",
      "type": "function"
    },
    {
      "inputs": [
        {
          "internalType": "address",
          "name": "_to",
          "type": "address"
        }
      ],
      "name": "burn",
      "outputs": [
        {
          "internalType": "uint256",
          "name": "amount0",
          "type": "uint256"
        },
        {
          "internalType": "uint256",
          "name": "amount1",
          "type": "uint256"
        }
      ],
      "stateMutability": "nonpayable",
      "type": "function"
    },
    {
      "inputs": [
        {
          "internalType": "uint256",
          "name": "_amount0Out",
          "type": "uint256"
        },
        {
          "internalType": "uint256",
          "name": "_amount1Out",
          "type": "uint256"
        },
        {
          "internalType": "address",
          "name": "_to",
          "type": "address"
        }
      ],
      "name": "swap",
      "outputs": [],
      "stateMutability": "nonpayable",
      "type": "function"
    },
    {
      "inputs": [],
      "name": "sync",
      "outputs": [],
      "stateMutability": "nonpayable",
      "type": "function"
    }
  ],
  "bytecode": "0x60806040526008805460ff60e01b19167c01000000000000000000000000000000000000000000000000000000001790553480156200003d57600080fd5b506040518060400160405280600f81526020017f4e61756768747920506f6f6c204c5000000000000000000000000000000000008152506040518060400160405280600381526020017f4e4c5000000000000000000000000000000000000000000000000000000000008152508160039080519060200190620000c2929190620000f3565b508051620000d8906004906020840190620000f3565b5050600580546001600160a01b0319163317905550620001ef565b828054620001019062000199565b90600052602060002090601f01602090048101928262000125576000855562000170565b82601f106200014057805160ff191683800117855562000170565b8280016001018555821562000170579182015b828111156200017057825182559160200191906001019062000153565b506200017e92915062000182565b5090565b5b808211156200017e576000815560010162000183565b600181811c90821680620001ae57607f821691505b60208210811415620001e9577f4e487b7100000000000000000000000000000000000000000000000000000000600052602260045260246000fd5b50919050565b611f2980620001ff6000396000f3fe608060405234801561001057600080fd5b506004361061018e5760003560e01c80636a627842116100de578063a9059cbb11610097578063d21220a711610071578063d21220a714610389578063dd62ed3e1461039c578063f952f01a146102ee578063fff6cae9146103d557600080fd5b8063a9059cbb1461035a578063ba9a7a561461036d578063c45a01551461037657600080fd5b80636a627842146102c85780636d9a640a146102db57806370a08231146102ee57806389afcb441461031757806395d89b411461033f578063a457c2d71461034757600080fd5b806323b872dd1161014b5780633950935111610125578063395093511461027b5780633c756e141461028e578063570c7c39146102a15780636a5e2650146102b457600080fd5b806323b872dd1461025057806329dcb0cf14610263578063313ce5671461026c57600080fd5b806306fdde03146101935780630902f1ac146101b1578063095ea7b3146101db5780630dfe1681146101fe5780631794bb3c1461022957806318160ddd1461023e575b600080fd5b61019b6103dd565b6040516101a89190611c6d565b60405180910390f35b600854604080516001600160701b038084168252600160701b9093049092166020830152016101a8565b6101ee6101e9366004611cbc565b61046f565b60405190151581526020016101a8565b600654610211906001600160a01b031681565b6040516001600160a01b0390911681526020016101a8565b61023c610237366004611ce6565b610485565b005b6002545b6040519081526020016101a8565b6101ee61025e366004611ce6565b610531565b61024260095481565b604051601281526020016101a8565b6101ee610289366004611cbc565b6105dd565b61023c61029c366004611cbc565b610619565b61023c6102af366004611cbc565b610627565b6008546101ee90600160e01b900460ff1681565b6102426102d6366004611d22565b610631565b61023c6102e9366004611d3d565b610884565b6102426102fc366004611d22565b6001600160a01b031660009081526020819052604090205490565b61032a610325366004611d22565b610d6a565b604080519283526020830191909152016101a8565b61019b6110a5565b6101ee610355366004611cbc565b6110b4565b6101ee610368366004611cbc565b61114d565b6102426103e881565b600554610211906001600160a01b031681565b600754610211906001600160a01b031681565b6102426103aa366004611d72565b6001600160a01b03918216600090815260016020908152604080832093909416825291909152205490565b61023c61115a565b6060600380546103ec90611da5565b80601f016020809104026020016040519081016040528092919081815260200182805461041890611da5565b80156104655780601f1061043a57610100808354040283529160200191610465565b820191906000526020600020905b81548152906001019060200180831161044857829003601f168201915b5050505050905090565b600061047c3384846112a7565b50600192915050565b6005546001600160a01b031633146104fc5760405162461bcd60e51b815260206004820152602f60248201527f63616e206f6e6c7920626520696e697469616c697a656420627920746865206660448201526e1858dd1bdc9e4818dbdb9d1c9858dd608a1b60648201526084015b60405180910390fd5b600680546001600160a01b039485166001600160a01b0319918216179091556007805493909416921691909117909155600955565b600061053e8484846113cc565b6001600160a01b0384166000908152600160209081526040808320338452909152902054828110156105c35760405162461bcd60e51b815260206004820152602860248201527f45524332303a207472616e7366657220616d6f756e74206578636565647320616044820152676c6c6f77616e636560c01b60648201526084016104f3565b6105d085338584036112a7565b60019150505b9392505050565b3360008181526001602090815260408083206001600160a01b0387168452909152812054909161047c918590610614908690611df6565b6112a7565b610623828261159c565b5050565b61062382826116e7565b60008060006106546008546001600160701b0380821692600160701b9092041690565b6006546040516370a0823160e01b81523060048201529294509092506000916001600160a01b03909116906370a082319060240160206040518083038186803b1580156106a057600080fd5b505afa1580156106b4573d6000803e3d6000fd5b505050506040513d601f19601f820116820180604052508101906106d89190611e0e565b6007546040516370a0823160e01b81523060048201529192506000916001600160a01b03909116906370a082319060240160206040518083038186803b15801561072157600080fd5b505afa158015610735573d6000803e3d6000fd5b505050506040513d601f19601f820116820180604052508101906107599190611e0e565b905060006107706001600160701b03861684611e27565b905060006107876001600160701b03861684611e27565b9050600061079460025490565b9050806107cd576103e86107b06107ab8486611e3e565b6117c6565b6107ba9190611e27565b97506107c8306103e8610627565b610814565b6108116001600160701b0388166107e48386611e3e565b6107ee9190611e73565b6001600160701b0388166108028486611e3e565b61080c9190611e73565b611941565b97505b600088116108645760405162461bcd60e51b815260206004820152601d60248201527f696e73756666696369656e74206c6971756964697479206d696e74656400000060448201526064016104f3565b61086e8989610627565b6108788585611957565b50505050505050919050565b6009544211156108d65760405162461bcd60e51b815260206004820152601b60248201527f43616e206e6f74207377617020616674657220646561646c696e65000000000060448201526064016104f3565b600854600160e01b900460ff1615156001146109045760405162461bcd60e51b81526004016104f390611e95565b6008805460ff60e01b191690558215158061091f5750600082115b61096b5760405162461bcd60e51b815260206004820152601b60248201527f4f757470757420616d6f756e74206e65656420746f206265203e30000000000060448201526064016104f3565b60008061098c6008546001600160701b0380821692600160701b9092041690565b6001600160701b031691506001600160701b0316915081851080156109b057508084105b6109f35760405162461bcd60e51b81526020600482015260146024820152734e6f7420656e6f756768206c697175696469747960601b60448201526064016104f3565b60065460075460009182916001600160a01b03918216919081169087168214801590610a315750806001600160a01b0316876001600160a01b031614155b610a6a5760405162461bcd60e51b815260206004820152600a602482015269494e56414c49445f544f60b01b60448201526064016104f3565b8815610a8457610a846001600160a01b038316888b611a29565b8715610a9e57610a9e6001600160a01b038216888a611a29565b6040516370a0823160e01b81523060048201526001600160a01b038316906370a082319060240160206040518083038186803b158015610add57600080fd5b505afa158015610af1573d6000803e3d6000fd5b505050506040513d601f19601f82011682018060405250810190610b159190611e0e565b6040516370a0823160e01b81523060048201529094506001600160a01b038216906370a082319060240160206040518083038186803b158015610b5757600080fd5b505afa158015610b6b573d6000803e3d6000fd5b505050506040513d601f19601f82011682018060405250810190610b8f9190611e0e565b9250505060008785610ba19190611e27565b8311610bae576000610bc2565b610bb88886611e27565b610bc29084611e27565b90506000610bd08886611e27565b8311610bdd576000610bf1565b610be78886611e27565b610bf19084611e27565b90506000821180610c025750600081115b610c4e5760405162461bcd60e51b815260206004820152601960248201527f494e53554646494349454e545f494e5055545f414d4f554e540000000000000060448201526064016104f3565b6000610c5b836014611e3e565b610c67866103e8611e3e565b610c719190611e27565b90506000610c80836014611e3e565b610c8c866103e8611e3e565b610c969190611e27565b9050610ca28789611e3e565b610caf90620f4240611e3e565b610cb98284611e3e565b1015610ceb5760405162461bcd60e51b81526020600482015260016024820152604b60f81b60448201526064016104f3565b5050610cf78484611957565b60408051838152602081018390529081018a9052606081018990526001600160a01b0388169033907fd78ad95fa46c994b6551d0da85fc275fe613ce37657fb8d5e3d130840159d8229060800160405180910390a350506008805460ff60e01b1916600160e01b17905550505050505050565b6000806008601c9054906101000a900460ff1615156001151514610da05760405162461bcd60e51b81526004016104f390611e95565b6008805460ff60e01b191690556006546040516370a0823160e01b81523060048201526000916001600160a01b0316906370a082319060240160206040518083038186803b158015610df157600080fd5b505afa158015610e05573d6000803e3d6000fd5b505050506040513d601f19601f82011682018060405250810190610e299190611e0e565b6007546040516370a0823160e01b81523060048201529192506000916001600160a01b03909116906370a082319060240160206040518083038186803b158015610e7257600080fd5b505afa158015610e86573d6000803e3d6000fd5b505050506040513d601f19601f82011682018060405250810190610eaa9190611e0e565b306000908152602081905260409020546002549192509080610ecc8584611e3e565b610ed69190611e73565b955080610ee38484611e3e565b610eed9190611e73565b9450600086118015610eff5750600085115b610f4b5760405162461bcd60e51b815260206004820152601d60248201527f496e73756666696369656e74206c6971756964697479206275726e656400000060448201526064016104f3565b610f553083610619565b600654610f6c906001600160a01b03168888611a29565b600754610f83906001600160a01b03168887611a29565b6006546040516370a0823160e01b81523060048201526001600160a01b03909116906370a082319060240160206040518083038186803b158015610fc657600080fd5b505afa158015610fda573d6000803e3d6000fd5b505050506040513d601f19601f82011682018060405250810190610ffe9190611e0e565b6007546040516370a0823160e01b81523060048201529195506001600160a01b0316906370a082319060240160206040518083038186803b15801561104257600080fd5b505afa158015611056573d6000803e3d6000fd5b505050506040513d601f19601f8201168201806040525081019061107a9190611e0e565b92506110868484611957565b50506008805460ff60e01b1916600160e01b1790555091939092509050565b6060600480546103ec90611da5565b3360009081526001602090815260408083206001600160a01b0386168452909152812054828110156111365760405162461bcd60e51b815260206004820152602560248201527f45524332303a2064656372656173656420616c6c6f77616e63652062656c6f77604482015264207a65726f60d81b60648201526084016104f3565b61114333858584036112a7565b5060019392505050565b600061047c3384846113cc565b600854600160e01b900460ff1615156001146111885760405162461bcd60e51b81526004016104f390611e95565b6008805460ff60e01b191690556006546040516370a0823160e01b8152306004820152611292916001600160a01b0316906370a082319060240160206040518083038186803b1580156111da57600080fd5b505afa1580156111ee573d6000803e3d6000fd5b505050506040513d601f19601f820116820180604052508101906112129190611e0e565b6007546040516370a0823160e01b81523060048201526001600160a01b03909116906370a082319060240160206040518083038186803b15801561125557600080fd5b505afa158015611269573d6000803e3d6000fd5b505050506040513d601f19601f8201168201806040525081019061128d9190611e0e565b611957565b6008805460ff60e01b1916600160e01b179055565b6001600160a01b0383166113095760405162461bcd60e51b8152602060048201526024808201527f45524332303a20617070726f76652066726f6d20746865207a65726f206164646044820152637265737360e01b60648201526084016104f3565b6001600160a01b03821661136a5760405162461bcd60e51b815260206004820152602260248201527f45524332303a20617070726f766520746f20746865207a65726f206164647265604482015261737360f01b60648201526084016104f3565b6001600160a01b0383811660008181526001602090815260408083209487168084529482529182902085905590518481527f8c5be1e5ebec7d5bd14f71427d1e84f3dd0314c0f7b2291e5b200ac8c7c3b92591015b60405180910390a3505050565b6001600160a01b0383166114305760405162461bcd60e51b815260206004820152602560248201527f45524332303a207472616e736665722066726f6d20746865207a65726f206164604482015264647265737360d81b60648201526084016104f3565b6001600160a01b0382166114925760405162461bcd60e51b815260206004820152602360248201527f45524332303a207472616e7366657220746f20746865207a65726f206164647260448201526265737360e81b60648201526084016104f3565b6001600160a01b0383166000908152602081905260409020548181101561150a5760405162461bcd60e51b815260206004820152602660248201527f45524332303a207472616e7366657220616d6f756e7420657863656564732062604482015265616c616e636560d01b60648201526084016104f3565b6001600160a01b03808516600090815260208190526040808220858503905591851681529081208054849290611541908490611df6565b92505081905550826001600160a01b0316846001600160a01b03167fddf252ad1be2c89b69c2b068fc378daa952ba7f163c4a11628f55a4df523b3ef8460405161158d91815260200190565b60405180910390a35b50505050565b6001600160a01b0382166115fc5760405162461bcd60e51b815260206004820152602160248201527f45524332303a206275726e2066726f6d20746865207a65726f206164647265736044820152607360f81b60648201526084016104f3565b6001600160a01b038216600090815260208190526040902054818110156116705760405162461bcd60e51b815260206004820152602260248201527f45524332303a206275726e20616d6f756e7420657863656564732062616c616e604482015261636560f01b60648201526084016104f3565b6001600160a01b038316600090815260208190526040812083830390556002805484929061169f908490611e27565b90915550506040518281526000906001600160a01b038516907fddf252ad1be2c89b69c2b068fc378daa952ba7f163c4a11628f55a4df523b3ef906020016113bf565b505050565b6001600160a01b03821661173d5760405162461bcd60e51b815260206004820152601f60248201527f45524332303a206d696e7420746f20746865207a65726f20616464726573730060448201526064016104f3565b806002600082825461174f9190611df6565b90915550506001600160a01b0382166000908152602081905260408120805483929061177c908490611df6565b90915550506040518181526001600160a01b038316906000907fddf252ad1be2c89b69c2b068fc378daa952ba7f163c4a11628f55a4df523b3ef9060200160405180910390a35050565b6000816117d557506000919050565b50600181600160801b81106117ef5760409190911b9060801c5b68010000000000000000811061180a5760209190911b9060401c5b64010000000081106118215760109190911b9060201c5b6201000081106118365760089190911b9060101c5b610100811061184a5760049190911b9060081c5b6010811061185d5760029190911b9060041c5b6008811061186d57600182901b91505b600182848161187e5761187e611e5d565b048301901c9150600182848161189657611896611e5d565b048301901c915060018284816118ae576118ae611e5d565b048301901c915060018284816118c6576118c6611e5d565b048301901c915060018284816118de576118de611e5d565b048301901c915060018284816118f6576118f6611e5d565b048301901c9150600182848161190e5761190e611e5d565b048301901c9150600082848161192657611926611e5d565b049050808310156119375782611939565b805b949350505050565b600081831061195057816105d6565b5090919050565b6001600160701b038083118015906119785750806001600160701b03168211155b6119b75760405162461bcd60e51b815260206004820152601060248201526f55696e74313132204f564552464c4f5760801b60448201526064016104f3565b600880546001600160701b03848116600160701b9081026001600160e01b0319909316878316179290921792839055604080518483168152929093041660208201527f32dc813d3f262a05478ad1165d5701040e411d9a6e1684c8c2da1c8e6f3b8022910160405180910390a1505050565b604080516001600160a01b03848116602483015260448083018590528351808403909101815260649092018352602080830180516001600160e01b031663a9059cbb60e01b17905283518085019094528084527f5361666545524332303a206c6f772d6c6576656c2063616c6c206661696c6564908401526116e292869291600091611ab9918516908490611b36565b8051909150156116e25780806020019051810190611ad79190611eb5565b6116e25760405162461bcd60e51b815260206004820152602a60248201527f5361666545524332303a204552433230206f7065726174696f6e20646964206e6044820152691bdd081cdd58d8d9595960b21b60648201526084016104f3565b6060611939848460008585843b611b8f5760405162461bcd60e51b815260206004820152601d60248201527f416464726573733a2063616c6c20746f206e6f6e2d636f6e747261637400000060448201526064016104f3565b600080866001600160a01b03168587604051611bab9190611ed7565b60006040518083038185875af1925050503d8060008114611be8576040519150601f19603f3d011682016040523d82523d6000602084013e611bed565b606091505b5091509150611bfd828286611c08565b979650505050505050565b60608315611c175750816105d6565b825115611c275782518084602001fd5b8160405162461bcd60e51b81526004016104f39190611c6d565b60005b83811015611c5c578181015183820152602001611c44565b838111156115965750506000910152565b6020815260008251806020840152611c8c816040850160208701611c41565b601f01601f19169190910160400192915050565b80356001600160a01b0381168114611cb757600080fd5b919050565b60008060408385031215611ccf57600080fd5b611cd883611ca0565b946020939093013593505050565b600080600060608486031215611cfb57600080fd5b611d0484611ca0565b9250611d1260208501611ca0565b9150604084013590509250925092565b600060208284031215611d3457600080fd5b6105d682611ca0565b600080600060608486031215611d5257600080fd5b8335925060208401359150611d6960408501611ca0565b90509250925092565b60008060408385031215611d8557600080fd5b611d8e83611ca0565b9150611d9c60208401611ca0565b90509250929050565b600181811c90821680611db957607f821691505b60208210811415611dda57634e487b7160e01b600052602260045260246000fd5b50919050565b634e487b7160e01b600052601160045260246000fd5b60008219821115611e0957611e09611de0565b500190565b600060208284031215611e2057600080fd5b5051919050565b600082821015611e3957611e39611de0565b500390565b6000816000190483118215151615611e5857611e58611de0565b500290565b634e487b7160e01b600052601260045260246000fd5b600082611e9057634e487b7160e01b600052601260045260246000fd5b500490565b6020808252600690820152651313d0d2d15160d21b604082015260600190565b600060208284031215611ec757600080fd5b815180151581146105d657600080fd5b60008251611ee9818460208701611c41565b919091019291505056fea26469706673582212207e7c2a5a6c18c6938a920feb10b6632f323a1c240064abd0a7f280f3868b144564736f6c63430008090033",
  "immutableReferences": {},
  "source": "// SPDX-License-Identifier: MIT\npragma solidity 0.8.9;\n\nimport \"./PoolLPToken.sol\";\nimport \"prb-math/contracts/PRBMath.sol\";\nimport \"@openzeppelin/contracts/token/ERC20/IERC20.sol\";\nimport \"@openzeppelin/contracts/token/ERC20/utils/SafeERC20.sol\";\nimport \"./interfaces/INaughtyFactory.sol\";\n\ncontract NaughtyPair is PoolLPToken {\n    using SafeERC20 for IERC20;\n\n    address public factory; // Factory contract address\n\n    address public token0; // Insurance Token\n    address public token1; // USDT\n\n    uint112 private reserve0; // Amount of Insurance Token\n    uint112 private reserve1; // Amount of USDT\n\n    bool public unlocked = true;\n\n    uint256 public deadline; // Every pool will have a deadline\n\n    uint256 public constant MINIMUM_LIQUIDITY = 10**3; // minimum liquidity locked\n\n    // uint256 public kLast;\n\n    event ReserveUpdated(uint256 reserve0, uint256 reserve1);\n    event Swap(\n        address indexed sender,\n        uint256 amount0In,\n        uint256 amount1In,\n        uint256 amount0Out,\n        uint256 amount1Out,\n        address indexed to\n    );\n\n    constructor() {\n        factory = msg.sender; // deployed by factory contract\n    }\n\n    /**\n     * @notice Check Unlock? => Lock => Function => Unlock\n     */\n    modifier lock() {\n        require(unlocked == true, \"LOCKED\");\n        unlocked = false;\n        _;\n        unlocked = true;\n    }\n\n    modifier beforeDeadline() {\n        require(block.timestamp <= deadline, \"Can not swap after deadline\");\n        _;\n    }\n\n    /**\n     * @notice Initialize the contract status after the deployment by factory\n     * @param _token0 Token0 address\n     * @param _token1 Token1 address\n     * @param _deadline Deadline for this pool\n     */\n    function initialize(\n        address _token0,\n        address _token1,\n        uint256 _deadline\n    ) external {\n        require(\n            msg.sender == factory,\n            \"can only be initialized by the factory contract\"\n        );\n\n        token0 = _token0;\n        token1 = _token1;\n        deadline = _deadline; // deadline for the whole pool after which no swap will be allowed\n    }\n\n    /**\n     * @notice Get reserve0 (Policy token) and reserve1 (stablecoin).\n     * @return _reserve0 Reserve of token0\n     * @return _reserve1 Reserve of token1\n     */\n    function getReserves()\n        public\n        view\n        returns (uint112 _reserve0, uint112 _reserve1)\n    {\n        _reserve0 = reserve0;\n        _reserve1 = reserve1;\n    }\n\n    /**\n     * @notice Mint LP Token to liquidity providers\n     *         Called when adding liquidity.\n     * @param to The user address\n     * @return liquidity The LP token number\n     */\n    function mint(address to) external returns (uint256 liquidity) {\n        (uint112 _reserve0, uint112 _reserve1) = getReserves(); // gas savings\n\n        uint256 balance0 = IERC20(token0).balanceOf(address(this)); // policy token balance after deposit\n        uint256 balance1 = IERC20(token1).balanceOf(address(this)); // stablecoin balance after deposit\n\n        uint256 amount0 = balance0 - _reserve0; // just deposit\n        uint256 amount1 = balance1 - _reserve1;\n\n        // bool feeOn = _mintFee(_reserve0, _reserve1);\n\n        uint256 _totalSupply = totalSupply(); // gas savings\n        if (_totalSupply == 0) {\n            liquidity = PRBMath.sqrt(amount0 * amount1) - MINIMUM_LIQUIDITY;\n            LPMint(address(this), MINIMUM_LIQUIDITY); // permanently lock the first MINIMUM_LIQUIDITY tokens\n        } else {\n            liquidity = min(\n                (amount0 * _totalSupply) / _reserve0,\n                (amount1 * _totalSupply) / _reserve1\n            );\n        }\n        require(liquidity > 0, \"insufficient liquidity minted\");\n        LPMint(to, liquidity);\n\n        _update(balance0, balance1);\n\n        // if (feeOn) kLast = uint256(reserve0 * reserve1);\n    }\n\n    // if fee is on, mint liquidity equivalent to 1/6th of the growth in sqrt(k)\n    // function _mintFee(uint112 _reserve0, uint112 _reserve1)\n    //     private\n    //     returns (bool feeOn)\n    // {\n    //     address feeTo = INaughtyFactory(factory).feeTo();\n    //     feeOn = feeTo != address(0); // If has feeTo then returns feeOn(true)\n\n    //     uint256 _kLast = kLast;\n    //     if (feeOn) {\n    //         if (_kLast != 0) {\n    //             uint256 rootK = PRBMath.sqrt(uint256(_reserve0) * _reserve1);\n    //             uint256 rootKLast = PRBMath.sqrt(_kLast);\n\n    //             if (rootK > rootKLast) {\n    //                 uint256 numerator = totalSupply() * rootK - rootKLast;\n    //                 uint256 denominator = rootK * 5 + rootKLast * 3;\n    //                 uint256 liquidity = numerator / denominator;\n    //                 if (liquidity > 0) _mint(feeTo, liquidity);\n    //             }\n    //         }\n    //     } else if (_kLast != 0) {\n    //         kLast = 0;\n    //     }\n    // }\n\n    /**\n     * @notice Burn LP tokens give back the original tokens\n     * @param _to User address\n     * @return amount0 Amount of token0 to be sent back\n     * @return amount1 Amount of token1 to be sent back\n     */\n    function burn(address _to)\n        external\n        lock\n        returns (uint256 amount0, uint256 amount1)\n    {\n        // (uint112 _reserve0, uint112 _reserve1) = getReserves(); // gas savings\n\n        uint256 balance0 = IERC20(token0).balanceOf(address(this)); // policy token balance\n        uint256 balance1 = IERC20(token1).balanceOf(address(this)); // stablecoin balance\n\n        uint256 liquidity = LPBalanceOf(address(this)); // lp token balance\n\n        // bool feeOn = _mintFee(_reserve0, _reserve1);\n\n        uint256 _totalSupply = totalSupply(); // gas savings\n        // How many tokens to be sent back\n        amount0 = (liquidity * balance0) / _totalSupply;\n        amount1 = (liquidity * balance1) / _totalSupply;\n\n        require(amount0 > 0 && amount1 > 0, \"Insufficient liquidity burned\");\n\n        // Currently all the liquidity in the pool was just sent by the user, so burn all\n        LPBurn(address(this), liquidity);\n\n        // Transfer tokens out and update the balance\n        IERC20(token0).safeTransfer(_to, amount0);\n        IERC20(token1).safeTransfer(_to, amount1);\n        balance0 = IERC20(token0).balanceOf(address(this));\n        balance1 = IERC20(token1).balanceOf(address(this));\n\n        _update(balance0, balance1);\n\n        // if (feeOn) kLast = uint256(reserve0 * reserve1);\n    }\n\n    /**\n     * @notice Finish the swap process\n     * @param _amount0Out Amount of token0 to be given out (may be 0)\n     * @param _amount1Out Amount of token1 to be given out (may be 0)\n     * @param _to Address to receive the swap result\n     */\n    function swap(\n        uint256 _amount0Out,\n        uint256 _amount1Out,\n        address _to\n    ) external beforeDeadline lock {\n        require(\n            _amount0Out > 0 || _amount1Out > 0,\n            \"Output amount need to be >0\"\n        );\n\n        (uint256 _reserve0, uint256 _reserve1) = getReserves(); // gas savings\n        require(\n            _amount0Out < _reserve0 && _amount1Out < _reserve1,\n            \"Not enough liquidity\"\n        );\n\n        uint256 balance0;\n        uint256 balance1;\n        {\n            // scope for _token{0,1}, avoids stack too deep errors\n            address _token0 = token0;\n            address _token1 = token1;\n            require(_to != _token0 && _to != _token1, \"INVALID_TO\");\n\n            if (_amount0Out > 0) IERC20(_token0).safeTransfer(_to, _amount0Out); // optimistically transfer tokens\n            if (_amount1Out > 0) IERC20(_token1).safeTransfer(_to, _amount1Out); // optimistically transfer tokens\n\n            balance0 = IERC20(_token0).balanceOf(address(this));\n            balance1 = IERC20(_token1).balanceOf(address(this));\n        }\n        uint256 amount0In = balance0 > _reserve0 - _amount0Out\n            ? balance0 - (_reserve0 - _amount0Out)\n            : 0;\n        uint256 amount1In = balance1 > _reserve1 - _amount1Out\n            ? balance1 - (_reserve1 - _amount1Out)\n            : 0;\n\n        require(amount0In > 0 || amount1In > 0, \"INSUFFICIENT_INPUT_AMOUNT\");\n\n        {\n            uint256 balance0Adjusted = balance0 * 1000 - amount0In * 20;\n            uint256 balance1Adjusted = balance1 * 1000 - amount1In * 20;\n            require(\n                balance0Adjusted * balance1Adjusted >=\n                    _reserve0 * _reserve1 * 1000**2,\n                \"K\"\n            );\n        }\n\n        _update(balance0, balance1);\n        emit Swap(\n            msg.sender,\n            amount0In,\n            amount1In,\n            _amount0Out,\n            _amount1Out,\n            _to\n        );\n    }\n\n    /**\n     * @notice Update the reserves of the pool\n     * @param balance0 Balance of token0\n     * @param balance1 Balance of token1\n     */\n    function _update(uint256 balance0, uint256 balance1) private {\n        uint112 MAX_NUM = type(uint112).max;\n        require(balance0 <= MAX_NUM && balance1 <= MAX_NUM, \"Uint112 OVERFLOW\");\n\n        reserve0 = uint112(balance0);\n        reserve1 = uint112(balance1);\n\n        emit ReserveUpdated(reserve0, reserve1);\n    }\n\n    /**\n     * @notice Syncrinize the status of this pool\n     */\n    function sync() external lock {\n        _update(\n            IERC20(token0).balanceOf(address(this)),\n            IERC20(token1).balanceOf(address(this))\n        );\n    }\n\n    /**\n     * @notice Get the smaller one of two numbers\n     * @param x The first number\n     * @param y The second number\n     * @return z The smaller one\n     */\n    function min(uint256 x, uint256 y) internal pure returns (uint256 z) {\n        z = x < y ? x : y;\n    }\n}\n",
  "sourcePath": "/Volumes/Store/src/naughty-price/contracts/NaughtyPair.sol",
  "compiler": {
    "name": "solc",
    "version": "0.8.9+commit.e5eed63a.Emscripten.clang"
  },
  "schemaVersion": "3.4.3",
  "updatedAt": "2021-11-26T07:41:20.356Z",
  "devdoc": {
    "kind": "dev",
    "methods": {
      "allowance(address,address)": {
        "details": "See {IERC20-allowance}."
      },
      "approve(address,uint256)": {
        "details": "See {IERC20-approve}. Requirements: - `spender` cannot be the zero address."
      },
      "balanceOf(address)": {
        "details": "See {IERC20-balanceOf}."
      },
      "burn(address)": {
        "params": {
          "_to": "User address"
        },
        "returns": {
          "amount0": "Amount of token0 to be sent back",
          "amount1": "Amount of token1 to be sent back"
        }
      },
      "decimals()": {
        "details": "Returns the number of decimals used to get its user representation. For example, if `decimals` equals `2`, a balance of `505` tokens should be displayed to a user as `5.05` (`505 / 10 ** 2`). Tokens usually opt for a value of 18, imitating the relationship between Ether and Wei. This is the value {ERC20} uses, unless this function is overridden; NOTE: This information is only used for _display_ purposes: it in no way affects any of the arithmetic of the contract, including {IERC20-balanceOf} and {IERC20-transfer}."
      },
      "decreaseAllowance(address,uint256)": {
        "details": "Atomically decreases the allowance granted to `spender` by the caller. This is an alternative to {approve} that can be used as a mitigation for problems described in {IERC20-approve}. Emits an {Approval} event indicating the updated allowance. Requirements: - `spender` cannot be the zero address. - `spender` must have allowance for the caller of at least `subtractedValue`."
      },
      "getReserves()": {
        "returns": {
          "_reserve0": "Reserve of token0",
          "_reserve1": "Reserve of token1"
        }
      },
      "increaseAllowance(address,uint256)": {
        "details": "Atomically increases the allowance granted to `spender` by the caller. This is an alternative to {approve} that can be used as a mitigation for problems described in {IERC20-approve}. Emits an {Approval} event indicating the updated allowance. Requirements: - `spender` cannot be the zero address."
      },
      "initialize(address,address,uint256)": {
        "params": {
          "_deadline": "Deadline for this pool",
          "_token0": "Token0 address",
          "_token1": "Token1 address"
        }
      },
      "mint(address)": {
        "params": {
          "to": "The user address"
        },
        "returns": {
          "liquidity": "The LP token number"
        }
      },
      "name()": {
        "details": "Returns the name of the token."
      },
      "swap(uint256,uint256,address)": {
        "params": {
          "_amount0Out": "Amount of token0 to be given out (may be 0)",
          "_amount1Out": "Amount of token1 to be given out (may be 0)",
          "_to": "Address to receive the swap result"
        }
      },
      "symbol()": {
        "details": "Returns the symbol of the token, usually a shorter version of the name."
      },
      "totalSupply()": {
        "details": "See {IERC20-totalSupply}."
      },
      "transfer(address,uint256)": {
        "details": "See {IERC20-transfer}. Requirements: - `recipient` cannot be the zero address. - the caller must have a balance of at least `amount`."
      },
      "transferFrom(address,address,uint256)": {
        "details": "See {IERC20-transferFrom}. Emits an {Approval} event indicating the updated allowance. This is not required by the EIP. See the note at the beginning of {ERC20}. Requirements: - `sender` and `recipient` cannot be the zero address. - `sender` must have a balance of at least `amount`. - the caller must have allowance for ``sender``'s tokens of at least `amount`."
      }
    },
    "version": 1
  },
  "userdoc": {
    "kind": "user",
    "methods": {
      "burn(address)": {
        "notice": "Burn LP tokens give back the original tokens"
      },
      "getReserves()": {
        "notice": "Get reserve0 (Policy token) and reserve1 (stablecoin)."
      },
      "initialize(address,address,uint256)": {
        "notice": "Initialize the contract status after the deployment by factory"
      },
      "mint(address)": {
        "notice": "Mint LP Token to liquidity providers         Called when adding liquidity."
      },
      "swap(uint256,uint256,address)": {
        "notice": "Finish the swap process"
      },
      "sync()": {
        "notice": "Syncrinize the status of this pool"
      }
    },
    "version": 1
  }
}