{
  "contractName": "NaughtyRouter",
  "abi": [
    {
      "inputs": [
        {
          "internalType": "address",
          "name": "_factory",
          "type": "address"
        },
        {
          "internalType": "address",
          "name": "_buyerToken",
          "type": "address"
        }
      ],
      "stateMutability": "nonpayable",
      "type": "constructor"
    },
    {
      "inputs": [],
      "name": "buyerToken",
      "outputs": [
        {
          "internalType": "address",
          "name": "",
          "type": "address"
        }
      ],
      "stateMutability": "view",
      "type": "function",
      "constant": true
    },
    {
      "inputs": [],
      "name": "factory",
      "outputs": [
        {
          "internalType": "address",
          "name": "",
          "type": "address"
        }
      ],
      "stateMutability": "view",
      "type": "function",
      "constant": true
    },
    {
      "inputs": [],
      "name": "owner",
      "outputs": [
        {
          "internalType": "address",
          "name": "",
          "type": "address"
        }
      ],
      "stateMutability": "view",
      "type": "function",
      "constant": true
    },
    {
      "inputs": [],
      "name": "policyCore",
      "outputs": [
        {
          "internalType": "address",
          "name": "",
          "type": "address"
        }
      ],
      "stateMutability": "view",
      "type": "function",
      "constant": true
    },
    {
      "inputs": [
        {
          "internalType": "address",
          "name": "_coreAddress",
          "type": "address"
        }
      ],
      "name": "setPolicyCore",
      "outputs": [],
      "stateMutability": "nonpayable",
      "type": "function"
    },
    {
      "inputs": [
        {
          "internalType": "address",
          "name": "_buyerToken",
          "type": "address"
        }
      ],
      "name": "setBuyerToken",
      "outputs": [],
      "stateMutability": "nonpayable",
      "type": "function"
    },
    {
      "inputs": [
        {
          "internalType": "address",
          "name": "_tokenA",
          "type": "address"
        },
        {
          "internalType": "address",
          "name": "_tokenB",
          "type": "address"
        },
        {
          "internalType": "uint256",
          "name": "_amountUSD",
          "type": "uint256"
        },
        {
          "internalType": "address",
          "name": "_to",
          "type": "address"
        },
        {
          "internalType": "uint256",
          "name": "_minRatio",
          "type": "uint256"
        },
        {
          "internalType": "uint256",
          "name": "_deadline",
          "type": "uint256"
        }
      ],
      "name": "addLiquidityWithUSD",
      "outputs": [],
      "stateMutability": "nonpayable",
      "type": "function"
    },
    {
      "inputs": [
        {
          "internalType": "address",
          "name": "_tokenA",
          "type": "address"
        },
        {
          "internalType": "address",
          "name": "_tokenB",
          "type": "address"
        },
        {
          "internalType": "uint256",
          "name": "_amountADesired",
          "type": "uint256"
        },
        {
          "internalType": "uint256",
          "name": "_amountBDesired",
          "type": "uint256"
        },
        {
          "internalType": "uint256",
          "name": "_amountAMin",
          "type": "uint256"
        },
        {
          "internalType": "uint256",
          "name": "_amountBMin",
          "type": "uint256"
        },
        {
          "internalType": "address",
          "name": "_to",
          "type": "address"
        },
        {
          "internalType": "uint256",
          "name": "_deadline",
          "type": "uint256"
        }
      ],
      "name": "addLiquidity",
      "outputs": [
        {
          "internalType": "uint256",
          "name": "amountA",
          "type": "uint256"
        },
        {
          "internalType": "uint256",
          "name": "amountB",
          "type": "uint256"
        },
        {
          "internalType": "uint256",
          "name": "liquidity",
          "type": "uint256"
        }
      ],
      "stateMutability": "nonpayable",
      "type": "function"
    },
    {
      "inputs": [
        {
          "internalType": "address",
          "name": "_tokenA",
          "type": "address"
        },
        {
          "internalType": "address",
          "name": "_tokenB",
          "type": "address"
        },
        {
          "internalType": "uint256",
          "name": "_liquidity",
          "type": "uint256"
        },
        {
          "internalType": "uint256",
          "name": "_amountAMin",
          "type": "uint256"
        },
        {
          "internalType": "uint256",
          "name": "_amountBMin",
          "type": "uint256"
        },
        {
          "internalType": "address",
          "name": "_to",
          "type": "address"
        },
        {
          "internalType": "uint256",
          "name": "_deadline",
          "type": "uint256"
        }
      ],
      "name": "removeLiquidity",
      "outputs": [
        {
          "internalType": "uint256",
          "name": "amountA",
          "type": "uint256"
        },
        {
          "internalType": "uint256",
          "name": "amountB",
          "type": "uint256"
        }
      ],
      "stateMutability": "nonpayable",
      "type": "function"
    },
    {
      "inputs": [
        {
          "internalType": "uint256",
          "name": "_amountInMax",
          "type": "uint256"
        },
        {
          "internalType": "uint256",
          "name": "_amountOut",
          "type": "uint256"
        },
        {
          "internalType": "address",
          "name": "_tokenIn",
          "type": "address"
        },
        {
          "internalType": "address",
          "name": "_tokenOut",
          "type": "address"
        },
        {
          "internalType": "address",
          "name": "_to",
          "type": "address"
        },
        {
          "internalType": "uint256",
          "name": "_deadline",
          "type": "uint256"
        }
      ],
      "name": "swapTokensforExactTokens",
      "outputs": [
        {
          "internalType": "uint256",
          "name": "amountIn",
          "type": "uint256"
        }
      ],
      "stateMutability": "nonpayable",
      "type": "function"
    },
    {
      "inputs": [
        {
          "internalType": "uint256",
          "name": "_amountIn",
          "type": "uint256"
        },
        {
          "internalType": "uint256",
          "name": "_amountOutMin",
          "type": "uint256"
        },
        {
          "internalType": "address",
          "name": "_tokenIn",
          "type": "address"
        },
        {
          "internalType": "address",
          "name": "_tokenOut",
          "type": "address"
        },
        {
          "internalType": "address",
          "name": "_to",
          "type": "address"
        },
        {
          "internalType": "uint256",
          "name": "_deadline",
          "type": "uint256"
        }
      ],
      "name": "swapExactTokensforTokens",
      "outputs": [
        {
          "internalType": "uint256",
          "name": "amountOut",
          "type": "uint256"
        }
      ],
      "stateMutability": "nonpayable",
      "type": "function"
    }
  ],
  "bytecode": "0x60806040523480156200001157600080fd5b5060405162001e1f38038062001e1f83398101604081905262000034916200008e565b600380546001600160a01b03199081163317909155600080546001600160a01b0394851690831617905560028054929093169116179055620000c6565b80516001600160a01b03811681146200008957600080fd5b919050565b60008060408385031215620000a257600080fd5b620000ad8362000071565b9150620000bd6020840162000071565b90509250929050565b611d4980620000d66000396000f3fe608060405234801561001057600080fd5b50600436106100a95760003560e01c8063a5d2a71511610071578063a5d2a7151461013a578063b8b6022e1461014d578063baa2abde14610160578063c45a015514610188578063e30145e01461019b578063e8e33700146101ae57600080fd5b80630a7af5c6146100ae5780631a771f0a146100d457806337864999146100e75780638da5cb5b146100fc57806393822b2114610127575b600080fd5b6100c16100bc36600461181c565b6101dc565b6040519081526020015b60405180910390f35b6100c16100e236600461181c565b610464565b6100fa6100f5366004611883565b6106ce565b005b60035461010f906001600160a01b031681565b6040516001600160a01b0390911681526020016100cb565b6100fa610135366004611883565b61071a565b60025461010f906001600160a01b031681565b6100fa61015b3660046118a0565b610766565b61017361016e366004611905565b610a58565b604080519283526020830191909152016100cb565b60005461010f906001600160a01b031681565b60015461010f906001600160a01b031681565b6101c16101bc366004611977565b610c62565b604080519384526020840192909252908201526060016100cb565b6000818042106102075760405162461bcd60e51b81526004016101fe906119f3565b60405180910390fd5b60008054604051630a49a03f60e31b815273__NaughtyLibrary________________________9163524d01f89161024e916001600160a01b0316908b908b90600401611a20565b60206040518083038186803b15801561026657600080fd5b505af415801561027a573d6000803e3d6000fd5b505050506040513d601f19601f8201168201806040525081019061029e9190611a43565b90506000816001600160a01b03166329dcb0cf6040518163ffffffff1660e01b815260040160206040518083038186803b1580156102db57600080fd5b505afa1580156102ef573d6000803e3d6000fd5b505050506040513d601f19601f820116820180604052508101906103139190611a60565b9050804211156103355760405162461bcd60e51b81526004016101fe90611a79565b60015460405163bf4a1b5f60e01b81526001600160a01b039182166004820152908916602482015260009073__NaughtyLibrary________________________9063bf4a1b5f9060440160206040518083038186803b15801561039757600080fd5b505af41580156103ab573d6000803e3d6000fd5b505050506040513d601f19601f820116820180604052508101906103cf9190611abf565b6000549091506103eb906001600160a01b0316828d8c8c610de4565b94508985101561043d5760405162461bcd60e51b815260206004820152601760248201527f657863657373697665206f757470757420616d6f756e7400000000000000000060448201526064016101fe565b6104498933858e610e39565b610456838c87848b610e54565b505050509695505050505050565b6000818042106104865760405162461bcd60e51b81526004016101fe906119f3565b60008054604051630a49a03f60e31b815273__NaughtyLibrary________________________9163524d01f8916104cd916001600160a01b0316908b908b90600401611a20565b60206040518083038186803b1580156104e557600080fd5b505af41580156104f9573d6000803e3d6000fd5b505050506040513d601f19601f8201168201806040525081019061051d9190611a43565b90506000816001600160a01b03166329dcb0cf6040518163ffffffff1660e01b815260040160206040518083038186803b15801561055a57600080fd5b505afa15801561056e573d6000803e3d6000fd5b505050506040513d601f19601f820116820180604052508101906105929190611a60565b9050804211156105b45760405162461bcd60e51b81526004016101fe90611a79565b60015460405163bf4a1b5f60e01b81526001600160a01b039182166004820152908916602482015260009073__NaughtyLibrary________________________9063bf4a1b5f9060440160206040518083038186803b15801561061657600080fd5b505af415801561062a573d6000803e3d6000fd5b505050506040513d601f19601f8201168201806040525081019061064e9190611abf565b60005490915061066a906001600160a01b0316828c8c8c610f57565b94508a8511156106b55760405162461bcd60e51b8152602060048201526016602482015275195e18d95cdcda5d99481a5b9c1d5d08185b5bdd5b9d60521b60448201526064016101fe565b6106c189338588610e39565b61045683868c848b610e54565b6003546001600160a01b031633146106f85760405162461bcd60e51b81526004016101fe90611ae1565b600180546001600160a01b0319166001600160a01b0392909216919091179055565b6003546001600160a01b031633146107445760405162461bcd60e51b81526004016101fe90611ae1565b600280546001600160a01b0319166001600160a01b0392909216919091179055565b808042106107865760405162461bcd60e51b81526004016101fe906119f3565b60648311156107d75760405162461bcd60e51b815260206004820181905260248201527f4d696e696d756d20726174696f2063616e206e6f74206578636565642031303060448201526064016101fe565b60015460405163bf4a1b5f60e01b81526001600160a01b039182166004820152908716602482015260009073__NaughtyLibrary________________________9063bf4a1b5f9060440160206040518083038186803b15801561083957600080fd5b505af415801561084d573d6000803e3d6000fd5b505050506040513d601f19601f820116820180604052508101906108719190611abf565b9050806108905760405162461bcd60e51b81526004016101fe90611b26565b60008054604051633274946160e01b8152829173__NaughtyLibrary________________________916332749461916108db916001600160a01b03909116908e908e90600401611a20565b604080518083038186803b1580156108f257600080fd5b505af4158015610906573d6000803e3d6000fd5b505050506040513d601f19601f8201168201806040525081019061092a9190611b8b565b6001600160701b03918216935016905060006109468284611bd4565b610950848b611bec565b61095a9190611c0b565b905060006109688385611bd4565b610972848c611bec565b61097c9190611c0b565b60015460405163a327a36160e01b81526001600160a01b0391821660048201528e82166024820152908d1660448201526064810184905233608482015290915073__NaughtyLibrary________________________9063a327a3619060a40160006040518083038186803b1580156109f357600080fd5b505af4158015610a07573d6000803e3d6000fd5b50505050610a478c8c848460648d88610a209190611bec565b610a2a9190611c0b565b6064610a368f89611bec565b610a409190611c0b565b8f8e610c62565b505050505050505050505050505050565b60008082804210610a7b5760405162461bcd60e51b81526004016101fe906119f3565b60008054604051630a49a03f60e31b815273__NaughtyLibrary________________________9163524d01f891610ac2916001600160a01b0316908f908f90600401611a20565b60206040518083038186803b158015610ada57600080fd5b505af4158015610aee573d6000803e3d6000fd5b505050506040513d601f19601f82011682018060405250810190610b129190611a43565b9050610b296001600160a01b03821633838c610f9e565b60405163226bf2d160e21b81526001600160a01b0387811660048301528216906389afcb44906024016040805180830381600087803b158015610b6b57600080fd5b505af1158015610b7f573d6000803e3d6000fd5b505050506040513d601f19601f82011682018060405250810190610ba39190611c2d565b909450925087841015610c045760405162461bcd60e51b815260206004820152602360248201527f496e73756666696369656e7420696e737572616e636520746f6b656e20616d6f6044820152621d5b9d60ea1b60648201526084016101fe565b86831015610c545760405162461bcd60e51b815260206004820152601760248201527f496e73756666696369656e74205553445420746f6b656e00000000000000000060448201526064016101fe565b505097509795505050505050565b600080600083804210610c875760405162461bcd60e51b81526004016101fe906119f3565b610c958c8c8c8c8c8c610ff8565b8094508195505050600073__NaughtyLibrary________________________63524d01f860008054906101000a90046001600160a01b03168f8f6040518463ffffffff1660e01b8152600401610ced93929190611a20565b60206040518083038186803b158015610d0557600080fd5b505af4158015610d19573d6000803e3d6000fd5b505050506040513d601f19601f82011682018060405250810190610d3d9190611a43565b9050610d4b8d338388610e39565b610d578c338387610e39565b6040516335313c2160e11b81526001600160a01b038881166004830152821690636a62784290602401602060405180830381600087803b158015610d9a57600080fd5b505af1158015610dae573d6000803e3d6000fd5b505050506040513d601f19601f82011682018060405250810190610dd29190611a60565b92505050985098509895505050505050565b6000806000610df4888686611292565b6001600160701b031691506001600160701b0316915060008088610e19578383610e1c565b82845b91509150610e2b88838361139a565b9a9950505050505050505050565b610e4e6001600160a01b038516848484610f9e565b50505050565b8115610ebf576002546040516340c10f1960e01b8152336004820152602481018690526001600160a01b03909116906340c10f1990604401600060405180830381600087803b158015610ea657600080fd5b505af1158015610eba573d6000803e3d6000fd5b505050505b600082610ecd576000610ecf565b835b9050600083610ede5784610ee1565b60005b6040516336cd320560e11b815260048101849052602481018290526001600160a01b03858116604483015291925090881690636d9a640a90606401600060405180830381600087803b158015610f3657600080fd5b505af1158015610f4a573d6000803e3d6000fd5b5050505050505050505050565b6000806000610f67888686611292565b6001600160701b031691506001600160701b0316915060008088610f8c578383610f8f565b82845b91509150610e2b888383611465565b604080516001600160a01b0385811660248301528416604482015260648082018490528251808303909101815260849091019091526020810180516001600160e01b03166323b872dd60e01b179052610e4e908590611535565b60015460405163bf4a1b5f60e01b81526001600160a01b03918216600482015290861660248201526000908190819073__NaughtyLibrary________________________9063bf4a1b5f9060440160206040518083038186803b15801561105e57600080fd5b505af4158015611072573d6000803e3d6000fd5b505050506040513d601f19601f820116820180604052508101906110969190611abf565b9050806110b55760405162461bcd60e51b81526004016101fe90611b26565b60008054604051633274946160e01b8152829173__NaughtyLibrary________________________91633274946191611100916001600160a01b03909116908f908f90600401611a20565b604080518083038186803b15801561111757600080fd5b505af415801561112b573d6000803e3d6000fd5b505050506040513d601f19601f8201168201806040525081019061114f9190611b8b565b6001600160701b031691506001600160701b03169150816000148015611173575080155b1561118357889450879350611284565b60006111908a848461160c565b90508881116111ec57868110156111e15760405162461bcd60e51b8152602060048201526015602482015274125394d551919250d251539517d097d05353d55395605a1b60448201526064016101fe565b899550935083611282565b60006111f98a848661160c565b90508a8111156112345760405162461bcd60e51b81526020600482015260066024820152656e6f6e6f6e6f60d01b60448201526064016101fe565b8881101561127c5760405162461bcd60e51b8152602060048201526015602482015274125394d551919250d251539517d057d05353d55395605a1b60448201526064016101fe565b95508894505b505b505050965096945050505050565b60405163b4f69a2f60e01b81526001600160a01b0383811660048301528281166024830152600091829182919087169063b4f69a2f9060440160206040518083038186803b1580156112e357600080fd5b505afa1580156112f7573d6000803e3d6000fd5b505050506040513d601f19601f8201168201806040525081019061131b9190611a43565b9050806001600160a01b0316630902f1ac6040518163ffffffff1660e01b8152600401604080518083038186803b15801561135557600080fd5b505afa158015611369573d6000803e3d6000fd5b505050506040513d601f19601f8201168201806040525081019061138d9190611b8b565b9097909650945050505050565b60008084116113eb5760405162461bcd60e51b815260206004820152601960248201527f696e73756666696369656e7420696e70757420616d6f756e740000000000000060448201526064016101fe565b6000831180156113fb5750600082115b6114175760405162461bcd60e51b81526004016101fe90611c51565b6000611425856103d4611bec565b905060006114338483611bec565b9050600082611444876103e8611bec565b61144e9190611bd4565b905061145a8183611c0b565b979650505050505050565b60008084116114b65760405162461bcd60e51b815260206004820152601a60248201527f696e73756666696369656e74206f757470757420616d6f756e7400000000000060448201526064016101fe565b6000831180156114c65750600082115b6114e25760405162461bcd60e51b81526004016101fe90611c51565b60006114ee8585611bec565b6114fa906103e8611bec565b905060006115088685611c81565b611514906103d4611bec565b90506115208183611c0b565b61152b906001611bd4565b9695505050505050565b600061158a826040518060400160405280602081526020017f5361666545524332303a206c6f772d6c6576656c2063616c6c206661696c6564815250856001600160a01b031661169c9092919063ffffffff16565b80519091501561160757808060200190518101906115a89190611abf565b6116075760405162461bcd60e51b815260206004820152602a60248201527f5361666545524332303a204552433230206f7065726174696f6e20646964206e6044820152691bdd081cdd58d8d9595960b21b60648201526084016101fe565b505050565b60008084116116535760405162461bcd60e51b81526020600482015260136024820152721a5b9cdd59999a58da595b9d08185b5bdd5b9d606a1b60448201526064016101fe565b6000831180156116635750600082115b61167f5760405162461bcd60e51b81526004016101fe90611c51565b8261168a8386611bec565b6116949190611c0b565b949350505050565b606061169484846000856116b2565b9392505050565b606030318311156117145760405162461bcd60e51b815260206004820152602660248201527f416464726573733a20696e73756666696369656e742062616c616e636520666f6044820152651c8818d85b1b60d21b60648201526084016101fe565b843b6117625760405162461bcd60e51b815260206004820152601d60248201527f416464726573733a2063616c6c20746f206e6f6e2d636f6e747261637400000060448201526064016101fe565b600080866001600160a01b0316858760405161177e9190611cc4565b60006040518083038185875af1925050503d80600081146117bb576040519150601f19603f3d011682016040523d82523d6000602084013e6117c0565b606091505b509150915061145a828286606083156117da5750816116ab565b8251156117ea5782518084602001fd5b8160405162461bcd60e51b81526004016101fe9190611ce0565b6001600160a01b038116811461181957600080fd5b50565b60008060008060008060c0878903121561183557600080fd5b8635955060208701359450604087013561184e81611804565b9350606087013561185e81611804565b9250608087013561186e81611804565b8092505060a087013590509295509295509295565b60006020828403121561189557600080fd5b81356116ab81611804565b60008060008060008060c087890312156118b957600080fd5b86356118c481611804565b955060208701356118d481611804565b94506040870135935060608701356118eb81611804565b9598949750929560808101359460a0909101359350915050565b600080600080600080600060e0888a03121561192057600080fd5b873561192b81611804565b9650602088013561193b81611804565b955060408801359450606088013593506080880135925060a088013561196081611804565b8092505060c0880135905092959891949750929550565b600080600080600080600080610100898b03121561199457600080fd5b883561199f81611804565b975060208901356119af81611804565b965060408901359550606089013594506080890135935060a0890135925060c08901356119db81611804565b8092505060e089013590509295985092959890939650565b60208082526013908201527232bc3834b932b2103a3930b739b0b1ba34b7b760691b604082015260600190565b6001600160a01b0393841681529183166020830152909116604082015260600190565b600060208284031215611a5557600080fd5b81516116ab81611804565b600060208284031215611a7257600080fd5b5051919050565b60208082526026908201527f5468697320706f6f6c20686173206265656e2066726f7a656e20666f72207377604082015265617070696e6760d01b606082015260800190565b600060208284031215611ad157600080fd5b815180151581146116ab57600080fd5b60208082526025908201527f4f6e6c7920746865206f776e65722063616e2063616c6c20746869732066756e60408201526431ba34b7b760d91b606082015260800190565b60208082526029908201527f706c656173652070757420737461626c65636f696e20617320746f6b656e42206040820152683830b930b6b2ba32b960b91b606082015260800190565b80516001600160701b0381168114611b8657600080fd5b919050565b60008060408385031215611b9e57600080fd5b611ba783611b6f565b9150611bb560208401611b6f565b90509250929050565b634e487b7160e01b600052601160045260246000fd5b60008219821115611be757611be7611bbe565b500190565b6000816000190483118215151615611c0657611c06611bbe565b500290565b600082611c2857634e487b7160e01b600052601260045260246000fd5b500490565b60008060408385031215611c4057600080fd5b505080516020909101519092909150565b602080825260169082015275696e73756666696369656e74206c697175696469747960501b604082015260600190565b600082821015611c9357611c93611bbe565b500390565b60005b83811015611cb3578181015183820152602001611c9b565b83811115610e4e5750506000910152565b60008251611cd6818460208701611c98565b9190910192915050565b6020815260008251806020840152611cff816040850160208701611c98565b601f01601f1916919091016040019291505056fea26469706673582212203b8a4daa3105f7d26d4fa9c62484d6ca0ccb7eed66aeba54a1e58fed05c720dd64736f6c63430008090033",
  "immutableReferences": {},
  "source": "// SPDX-License-Identifier: MIT\npragma solidity 0.8.9;\nimport \"@openzeppelin/contracts/token/ERC20/IERC20.sol\";\nimport \"@openzeppelin/contracts/token/ERC20/utils/SafeERC20.sol\";\nimport \"./libraries/NaughtyLibrary.sol\";\nimport \"./interfaces/IBuyerToken.sol\";\nimport \"./interfaces/IPolicyToken.sol\";\n\n/**\n * @title  NaughtyRouter\n * @notice Router for the pool, you can add/remove liquidity or swap A for B.\n *         Swapping fee rate is 2% and all of them are given to LP.\n *         Very similar logic with Uniswap V2.\n *\n */\ncontract NaughtyRouter {\n    using SafeERC20 for IERC20;\n    using SafeERC20 for INaughtyPair;\n\n    // Some other contracts\n    address public factory;\n    address public policyCore;\n    address public buyerToken;\n\n    address public owner;\n\n    constructor(address _factory, address _buyerToken) {\n        owner = msg.sender;\n\n        factory = _factory;\n        buyerToken = _buyerToken;\n    }\n\n    // ---------------------------------------------------------------------------------------- //\n    // ************************************** Modifiers *************************************** //\n    // ---------------------------------------------------------------------------------------- //\n\n    /**\n     * @notice Transactions are available only before the deadline\n     * @param _deadLine Deadline of the pool\n     */\n    modifier beforeDeadline(uint256 _deadLine) {\n        require(block.timestamp < _deadLine, \"expired transaction\");\n        _;\n    }\n\n    /**\n     * @notice Only the owner can call some functions\n     */\n    modifier onlyOwner() {\n        require(msg.sender == owner, \"Only the owner can call this function\");\n        _;\n    }\n\n    // ---------------------------------------------------------------------------------------- //\n    // ************************************ Set Functions ************************************* //\n    // ---------------------------------------------------------------------------------------- //\n\n    /**\n     * @notice Set the address of policyCore\n     * @param _coreAddress Address of new policyCore\n     */\n    function setPolicyCore(address _coreAddress) public onlyOwner {\n        policyCore = _coreAddress;\n    }\n\n    /**\n     * @notice Set the address of buyer token\n     * @param _buyerToken Address of new buyer token\n     */\n    function setBuyerToken(address _buyerToken) public onlyOwner {\n        buyerToken = _buyerToken;\n    }\n\n    // ---------------------------------------------------------------------------------------- //\n    // *********************************** Helper Functions *********************************** //\n    // ---------------------------------------------------------------------------------------- //\n\n    /**\n     * @notice Add liquidity but only provide stablecoins\n     * @param _tokenA Address of policyToken\n     * @param _tokenB Address of stablecoin\n     * @param _amountUSD Amount of stablecoins provided\n     * @param _to Address that receive the lp token, normally the user himself\n     * @param _minRatio Minimum ratio (divided by 100)(amountMin / amountDesired)\n     * @param _deadline Transaction will revert after this deadline\n     */\n    function addLiquidityWithUSD(\n        address _tokenA,\n        address _tokenB,\n        uint256 _amountUSD,\n        address _to,\n        uint256 _minRatio,\n        uint256 _deadline\n    ) external beforeDeadline(_deadline) {\n        require(_minRatio <= 100, \"Minimum ratio can not exceed 100\");\n\n        bool isStablecoin = NaughtyLibrary.checkStablecoin(policyCore, _tokenB);\n        require(isStablecoin, \"please put stablecoin as tokenB parameter\");\n\n        (uint256 reserveA, uint256 reserveB) = NaughtyLibrary.getReserves(\n            factory,\n            _tokenA,\n            _tokenB\n        );\n\n        uint256 _amountADesired = (_amountUSD * reserveA) /\n            (reserveA + reserveB);\n        uint256 _amountBDesired = (_amountUSD * reserveB) /\n            (reserveA + reserveB);\n\n        // Mint _amountADesired policy tokens for users\n        NaughtyLibrary.mintPolicyTokensForUser(\n            policyCore,\n            _tokenA,\n            _tokenB,\n            _amountADesired,\n            msg.sender\n        );\n\n        addLiquidity(\n            _tokenA,\n            _tokenB,\n            _amountADesired,\n            _amountBDesired,\n            (_amountADesired * _minRatio) / 100,\n            (_amountBDesired * _minRatio) / 100,\n            _to,\n            _deadline\n        );\n    }\n\n    // ---------------------------------------------------------------------------------------- //\n    // ************************************ Main Functions ************************************ //\n    // ---------------------------------------------------------------------------------------- //\n\n    /**\n     * @notice Add liquidity function\n     * @param _tokenA Address of policyToken\n     * @param _tokenB Address of stablecoin\n     * @param _amountADesired Amount of policyToken desired\n     * @param _amountBDesired Amount of stablecoin desired\n     * @param _amountAMin Minimum amoutn of policy token\n     * @param _amountBMin Minimum amount of stablecoin\n     * @param _to Address that receive the lp token, normally the user himself\n     * @param _deadline Transaction will revert after this deadline\n     * @return amountA Amount of tokenA to be input\n     * @return amountB Amount of tokenB to be input\n     * @return liquidity LP token to be mint\n     */\n    function addLiquidity(\n        address _tokenA,\n        address _tokenB,\n        uint256 _amountADesired,\n        uint256 _amountBDesired,\n        uint256 _amountAMin,\n        uint256 _amountBMin,\n        address _to,\n        uint256 _deadline\n    )\n        public\n        beforeDeadline(_deadline)\n        returns (\n            uint256 amountA,\n            uint256 amountB,\n            uint256 liquidity\n        )\n    {\n        {\n            (amountA, amountB) = _addLiquidity(\n                _tokenA,\n                _tokenB,\n                _amountADesired,\n                _amountBDesired,\n                _amountAMin,\n                _amountBMin\n            );\n        }\n\n        address pair = NaughtyLibrary.getPairAddress(factory, _tokenA, _tokenB);\n\n        transferHelper(_tokenA, msg.sender, pair, amountA);\n        transferHelper(_tokenB, msg.sender, pair, amountB);\n\n        liquidity = INaughtyPair(pair).mint(_to);\n    }\n\n    /**\n     * @notice Remove liquidity from the pool\n     * @param _tokenA Address of policy token\n     * @param _tokenB Address of stablecoin\n     * @param _liquidity The lptoken amount to be removed\n     * @param _amountAMin Minimum amount of tokenA given out\n     * @param _amountBMin Minimum amount of tokenB given out\n     * @param _to User address\n     * @param _deadline Deadline of this transaction\n     * @return amountA Amount of token0 given out\n     * @return amountB Amount of token1 given out\n     */\n    function removeLiquidity(\n        address _tokenA,\n        address _tokenB,\n        uint256 _liquidity,\n        uint256 _amountAMin,\n        uint256 _amountBMin,\n        address _to,\n        uint256 _deadline\n    )\n        public\n        beforeDeadline(_deadline)\n        returns (uint256 amountA, uint256 amountB)\n    {\n        address pair = NaughtyLibrary.getPairAddress(factory, _tokenA, _tokenB);\n\n        INaughtyPair(pair).safeTransferFrom(msg.sender, pair, _liquidity); // send liquidity to pair\n\n        // Amount0: insurance token\n        (amountA, amountB) = INaughtyPair(pair).burn(_to);\n\n        require(amountA >= _amountAMin, \"Insufficient insurance token amount\");\n        require(amountB >= _amountBMin, \"Insufficient USDT token\");\n    }\n\n    /**\n     * @notice Amount out is fixed\n     * @param _amountInMax Maximum token input\n     * @param _amountOut Fixed token output\n     * @param _tokenIn Address of input token\n     * @param _tokenOut Address of output token\n     * @param _to User address\n     * @param _deadline Deadline for this specific swap\n     * @return amountIn Amounts to be really put in\n     */\n    function swapTokensforExactTokens(\n        uint256 _amountInMax,\n        uint256 _amountOut,\n        address _tokenIn,\n        address _tokenOut,\n        address _to,\n        uint256 _deadline\n    ) external beforeDeadline(_deadline) returns (uint256 amountIn) {\n        address pair = NaughtyLibrary.getPairAddress(\n            factory,\n            _tokenIn,\n            _tokenOut\n        );\n        // Each pool has a deadline\n        uint256 poolDeadline = INaughtyPair(pair).deadline();\n        require(\n            block.timestamp <= poolDeadline,\n            \"This pool has been frozen for swapping\"\n        );\n\n        bool isBuying = NaughtyLibrary.checkStablecoin(policyCore, _tokenIn);\n\n        // Get how many tokens should be put in (the order depends on isBuying)\n        amountIn = NaughtyLibrary.getAmountIn(\n            factory,\n            isBuying,\n            _amountOut,\n            _tokenIn,\n            _tokenOut\n        );\n        require(amountIn <= _amountInMax, \"excessive input amount\");\n\n        transferHelper(_tokenIn, msg.sender, pair, amountIn);\n\n        _swap(pair, amountIn, _amountOut, isBuying, _to);\n    }\n\n    /**\n     * @notice Amount in is fixed\n     * @param _amountIn Fixed token input\n     * @param _amountOutMin Minimum token output\n     * @param _tokenIn Address of input token\n     * @param _tokenOut Address of output token\n     * @param _to User address\n     * @param _deadline Deadline for this specific swap\n     * @return amountOut Amounts to be really given out\n     */\n    function swapExactTokensforTokens(\n        uint256 _amountIn,\n        uint256 _amountOutMin,\n        address _tokenIn,\n        address _tokenOut,\n        address _to,\n        uint256 _deadline\n    ) external beforeDeadline(_deadline) returns (uint256 amountOut) {\n        address pair = NaughtyLibrary.getPairAddress(\n            factory,\n            _tokenIn,\n            _tokenOut\n        );\n        // Each pool has a deadline\n        uint256 poolDeadline = INaughtyPair(pair).deadline();\n        require(\n            block.timestamp <= poolDeadline,\n            \"This pool has been frozen for swapping\"\n        );\n\n        // Check if the tokenIn is stablecoin\n        bool isBuying = NaughtyLibrary.checkStablecoin(policyCore, _tokenIn);\n\n        // Get how many tokens should be given out (the order depends on isBuying)\n        amountOut = NaughtyLibrary.getAmountOut(\n            factory,\n            isBuying,\n            _amountIn,\n            _tokenIn,\n            _tokenOut\n        );\n        require(amountOut >= _amountOutMin, \"excessive output amount\");\n\n        transferHelper(_tokenIn, msg.sender, pair, _amountIn);\n\n        _swap(pair, _amountIn, amountOut, isBuying, _to);\n    }\n\n    /**\n     * @notice Internal function to finish adding liquidity\n     * @param _tokenA Address of tokenA\n     * @param _tokenB Address of tokenB\n     * @param _amountADesired Amount of tokenA to be added\n     * @param _amountBDesired Amount of tokenB to be added\n     * @param _amountAMin Minimum amount of tokenA\n     * @param _amountBMin Minimum amount of tokenB\n     * @return amountA Real amount of tokenA\n     * @return amountB Real amount of tokenB\n     */\n    function _addLiquidity(\n        address _tokenA,\n        address _tokenB,\n        uint256 _amountADesired,\n        uint256 _amountBDesired,\n        uint256 _amountAMin,\n        uint256 _amountBMin\n    ) private view returns (uint256 amountA, uint256 amountB) {\n        bool isStablecoin = NaughtyLibrary.checkStablecoin(policyCore, _tokenB);\n        require(isStablecoin, \"please put stablecoin as tokenB parameter\");\n\n        (uint256 reserveA, uint256 reserveB) = NaughtyLibrary.getReserves(\n            factory,\n            _tokenA,\n            _tokenB\n        );\n        if (reserveA == 0 && reserveB == 0) {\n            (amountA, amountB) = (_amountADesired, _amountBDesired);\n        } else {\n            uint256 amountBOptimal = NaughtyLibrary.quote(\n                _amountADesired,\n                reserveA,\n                reserveB\n            );\n            if (amountBOptimal <= _amountBDesired) {\n                require(amountBOptimal >= _amountBMin, \"INSUFFICIENT_B_AMOUNT\");\n                (amountA, amountB) = (_amountADesired, amountBOptimal);\n            } else {\n                uint256 amountAOptimal = NaughtyLibrary.quote(\n                    _amountBDesired,\n                    reserveB,\n                    reserveA\n                );\n                require(amountAOptimal <= _amountADesired, \"nonono\");\n                require(amountAOptimal >= _amountAMin, \"INSUFFICIENT_A_AMOUNT\");\n                (amountA, amountB) = (amountAOptimal, _amountBDesired);\n            }\n        }\n    }\n\n    // ---------------------------------------------------------------------------------------- //\n    // *********************************** Internal Functions ********************************* //\n    // ---------------------------------------------------------------------------------------- //\n\n    /**\n     * @notice Finish the erc20 transfer operation\n     * @param _token ERC20 token address\n     * @param _from Address to give out the token\n     * @param _to Pair address to receive the token\n     * @param _amount Transfer amount\n     */\n    function transferHelper(\n        address _token,\n        address _from,\n        address _to,\n        uint256 _amount\n    ) internal {\n        IERC20(_token).safeTransferFrom(_from, _to, _amount);\n    }\n\n    /**\n     * @notice Finish swap process\n     * @param _pair Address of the pair\n     * @param _amountIn Amount of tokens put in\n     * @param _amountOut Amount of tokens get out\n     * @param _isBuying Whether this is a purchase or a sell\n     * @param _to Address of the user\n     */\n    function _swap(\n        address _pair,\n        uint256 _amountIn,\n        uint256 _amountOut,\n        bool _isBuying,\n        address _to\n    ) internal {\n        // Only give buyer tokens when this is a purchase\n        if (_isBuying) {\n            IBuyerToken(buyerToken).mint(msg.sender, _amountIn);\n        }\n\n        // If the user is buying policies => amount1Out = 0\n        // One of these two variables will be 0\n        uint256 amountAOut = _isBuying ? _amountOut : 0;\n        uint256 amountBOut = _isBuying ? 0 : _amountOut;\n\n        INaughtyPair(_pair).swap(amountAOut, amountBOut, _to);\n    }\n}\n",
  "sourcePath": "/Volumes/Store/src/naughty-price/contracts/NaughtyRouter.sol",
  "compiler": {
    "name": "solc",
    "version": "0.8.9+commit.e5eed63a.Emscripten.clang"
  },
  "schemaVersion": "3.4.3",
  "updatedAt": "2021-12-02T14:27:11.498Z",
  "networkType": "ethereum",
  "devdoc": {
    "kind": "dev",
    "methods": {
      "addLiquidity(address,address,uint256,uint256,uint256,uint256,address,uint256)": {
        "params": {
          "_amountADesired": "Amount of policyToken desired",
          "_amountAMin": "Minimum amoutn of policy token",
          "_amountBDesired": "Amount of stablecoin desired",
          "_amountBMin": "Minimum amount of stablecoin",
          "_deadline": "Transaction will revert after this deadline",
          "_to": "Address that receive the lp token, normally the user himself",
          "_tokenA": "Address of policyToken",
          "_tokenB": "Address of stablecoin"
        },
        "returns": {
          "amountA": "Amount of tokenA to be input",
          "amountB": "Amount of tokenB to be input",
          "liquidity": "LP token to be mint"
        }
      },
      "addLiquidityWithUSD(address,address,uint256,address,uint256,uint256)": {
        "params": {
          "_amountUSD": "Amount of stablecoins provided",
          "_deadline": "Transaction will revert after this deadline",
          "_minRatio": "Minimum ratio (divided by 100)(amountMin / amountDesired)",
          "_to": "Address that receive the lp token, normally the user himself",
          "_tokenA": "Address of policyToken",
          "_tokenB": "Address of stablecoin"
        }
      },
      "removeLiquidity(address,address,uint256,uint256,uint256,address,uint256)": {
        "params": {
          "_amountAMin": "Minimum amount of tokenA given out",
          "_amountBMin": "Minimum amount of tokenB given out",
          "_deadline": "Deadline of this transaction",
          "_liquidity": "The lptoken amount to be removed",
          "_to": "User address",
          "_tokenA": "Address of policy token",
          "_tokenB": "Address of stablecoin"
        },
        "returns": {
          "amountA": "Amount of token0 given out",
          "amountB": "Amount of token1 given out"
        }
      },
      "setBuyerToken(address)": {
        "params": {
          "_buyerToken": "Address of new buyer token"
        }
      },
      "setPolicyCore(address)": {
        "params": {
          "_coreAddress": "Address of new policyCore"
        }
      },
      "swapExactTokensforTokens(uint256,uint256,address,address,address,uint256)": {
        "params": {
          "_amountIn": "Fixed token input",
          "_amountOutMin": "Minimum token output",
          "_deadline": "Deadline for this specific swap",
          "_to": "User address",
          "_tokenIn": "Address of input token",
          "_tokenOut": "Address of output token"
        },
        "returns": {
          "amountOut": "Amounts to be really given out"
        }
      },
      "swapTokensforExactTokens(uint256,uint256,address,address,address,uint256)": {
        "params": {
          "_amountInMax": "Maximum token input",
          "_amountOut": "Fixed token output",
          "_deadline": "Deadline for this specific swap",
          "_to": "User address",
          "_tokenIn": "Address of input token",
          "_tokenOut": "Address of output token"
        },
        "returns": {
          "amountIn": "Amounts to be really put in"
        }
      }
    },
    "title": "NaughtyRouter",
    "version": 1
  },
  "userdoc": {
    "kind": "user",
    "methods": {
      "addLiquidity(address,address,uint256,uint256,uint256,uint256,address,uint256)": {
        "notice": "Add liquidity function"
      },
      "addLiquidityWithUSD(address,address,uint256,address,uint256,uint256)": {
        "notice": "Add liquidity but only provide stablecoins"
      },
      "removeLiquidity(address,address,uint256,uint256,uint256,address,uint256)": {
        "notice": "Remove liquidity from the pool"
      },
      "setBuyerToken(address)": {
        "notice": "Set the address of buyer token"
      },
      "setPolicyCore(address)": {
        "notice": "Set the address of policyCore"
      },
      "swapExactTokensforTokens(uint256,uint256,address,address,address,uint256)": {
        "notice": "Amount in is fixed"
      },
      "swapTokensforExactTokens(uint256,uint256,address,address,address,uint256)": {
        "notice": "Amount out is fixed"
      }
    },
    "notice": "Router for the pool, you can add/remove liquidity or swap A for B.         Swapping fee rate is 2% and all of them are given to LP.         Very similar logic with Uniswap V2.",
    "version": 1
  }
}