{
  "contractName": "NaughtyFactory",
  "abi": [
    {
      "inputs": [
        {
          "internalType": "address",
          "name": "_feeToSetter",
          "type": "address"
        }
      ],
      "stateMutability": "nonpayable",
      "type": "constructor"
    },
    {
      "inputs": [],
      "name": "INIT_CODE_HASH",
      "outputs": [
        {
          "internalType": "bytes32",
          "name": "",
          "type": "bytes32"
        }
      ],
      "stateMutability": "view",
      "type": "function",
      "constant": true
    },
    {
      "inputs": [],
      "name": "_nextId",
      "outputs": [
        {
          "internalType": "uint256",
          "name": "",
          "type": "uint256"
        }
      ],
      "stateMutability": "view",
      "type": "function",
      "constant": true
    },
    {
      "inputs": [],
      "name": "feeTo",
      "outputs": [
        {
          "internalType": "address",
          "name": "",
          "type": "address"
        }
      ],
      "stateMutability": "view",
      "type": "function",
      "constant": true
    },
    {
      "inputs": [],
      "name": "feeToSetter",
      "outputs": [
        {
          "internalType": "address",
          "name": "",
          "type": "address"
        }
      ],
      "stateMutability": "view",
      "type": "function",
      "constant": true
    },
    {
      "inputs": [],
      "name": "policyCore",
      "outputs": [
        {
          "internalType": "address",
          "name": "",
          "type": "address"
        }
      ],
      "stateMutability": "view",
      "type": "function",
      "constant": true
    },
    {
      "inputs": [],
      "name": "getLatestTokenAddress",
      "outputs": [
        {
          "internalType": "address",
          "name": "",
          "type": "address"
        }
      ],
      "stateMutability": "view",
      "type": "function",
      "constant": true
    },
    {
      "inputs": [],
      "name": "getAllPairs",
      "outputs": [
        {
          "internalType": "address[]",
          "name": "",
          "type": "address[]"
        }
      ],
      "stateMutability": "view",
      "type": "function",
      "constant": true
    },
    {
      "inputs": [],
      "name": "getAllTokens",
      "outputs": [
        {
          "internalType": "address[]",
          "name": "",
          "type": "address[]"
        }
      ],
      "stateMutability": "view",
      "type": "function",
      "constant": true
    },
    {
      "inputs": [
        {
          "internalType": "address",
          "name": "_tokenAddress1",
          "type": "address"
        },
        {
          "internalType": "address",
          "name": "_tokenAddress2",
          "type": "address"
        }
      ],
      "name": "getPairAddress",
      "outputs": [
        {
          "internalType": "address",
          "name": "",
          "type": "address"
        }
      ],
      "stateMutability": "view",
      "type": "function",
      "constant": true
    },
    {
      "inputs": [
        {
          "internalType": "address",
          "name": "_policyCore",
          "type": "address"
        }
      ],
      "name": "setPolicyCoreAddress",
      "outputs": [],
      "stateMutability": "nonpayable",
      "type": "function"
    },
    {
      "inputs": [
        {
          "internalType": "address",
          "name": "_feeTo",
          "type": "address"
        }
      ],
      "name": "setFeeTo",
      "outputs": [],
      "stateMutability": "nonpayable",
      "type": "function"
    },
    {
      "inputs": [
        {
          "internalType": "address",
          "name": "_feeToSetter",
          "type": "address"
        }
      ],
      "name": "setFeeToSetter",
      "outputs": [],
      "stateMutability": "nonpayable",
      "type": "function"
    },
    {
      "inputs": [
        {
          "internalType": "address",
          "name": "_policyTokenAddress",
          "type": "address"
        },
        {
          "internalType": "address",
          "name": "_stablecoin",
          "type": "address"
        },
        {
          "internalType": "uint256",
          "name": "_deadline",
          "type": "uint256"
        }
      ],
      "name": "deployPool",
      "outputs": [
        {
          "internalType": "address",
          "name": "",
          "type": "address"
        }
      ],
      "stateMutability": "nonpayable",
      "type": "function"
    },
    {
      "inputs": [
        {
          "internalType": "string",
          "name": "_policyTokenName",
          "type": "string"
        }
      ],
      "name": "deployPolicyToken",
      "outputs": [
        {
          "internalType": "address",
          "name": "",
          "type": "address"
        }
      ],
      "stateMutability": "nonpayable",
      "type": "function"
    }
  ],
  "bytecode": "0x608060405234801561001057600080fd5b5060405161416d38038061416d83398101604081905261002f91610054565b600680546001600160a01b0319166001600160a01b0392909216919091179055610084565b60006020828403121561006657600080fd5b81516001600160a01b038116811461007d57600080fd5b9392505050565b6140da806100936000396000f3fe60806040523480156200001157600080fd5b5060043610620000fd5760003560e01c8063a3232bf31162000097578063f03c6132116200006e578063f03c61321462000211578063f2f2fff51462000228578063f46901ed1462000232578063f800ece9146200024957600080fd5b8063a3232bf314620001cf578063b4f69a2f14620001e6578063e30145e014620001fd57600080fd5b80632a5c792a11620000d85780632a5c792a146200016057806361c8f99d14620001795780639fd2650e14620001ae578063a2e74af614620001b857600080fd5b8063017e7e581462000102578063094b74151462000133578063257671f51462000147575b600080fd5b60055462000116906001600160a01b031681565b6040516001600160a01b0390911681526020015b60405180910390f35b60065462000116906001600160a01b031681565b6200015162000253565b6040519081526020016200012a565b6200016a620002a1565b6040516200012a919062000acb565b620001ac6200018a36600462000b37565b600480546001600160a01b0319166001600160a01b0392909216919091179055565b005b6200011662000305565b620001ac620001c936600462000b37565b6200034c565b62000116620001e036600462000b55565b620003a4565b62000116620001f736600462000b96565b62000603565b60045462000116906001600160a01b031681565b620001166200022236600462000be4565b620006cd565b6200015160035481565b620001ac6200024336600462000b37565b62000783565b6200016a620007d2565b604051620002646020820162000aaf565b601f1982820381018352601f90910116604081905262000288919060200162000cd2565b6040516020818303038152906040528051906020012081565b60606002805480602002602001604051908101604052809291908181526020018280548015620002fb57602002820191906000526020600020905b81546001600160a01b03168152600190910190602001808311620002dc575b5050505050905090565b600080600160035462000319919062000d06565b90506002818154811062000331576200033162000d20565b6000918252602090912001546001600160a01b031692915050565b6006546001600160a01b03163314620003825760405162461bcd60e51b8152600401620003799062000d36565b60405180910390fd5b600680546001600160a01b0319166001600160a01b0392909216919091179055565b6004805460405163237dd6ed60e11b81526001600160a01b0385811693820193909352600092909116906346fbadda9060240160206040518083038186803b158015620003f057600080fd5b505afa15801562000405573d6000803e3d6000fd5b505050506040513d601f19601f820116820180604052508101906200042b919062000d7d565b15156001146200049d5760405162461bcd60e51b815260206004820152603660248201527f596f752067697665207468652077726f6e67206f72646572206f6620706f6c6960448201527531bcaa37b5b2b71030b7321039ba30b13632b1b7b4b760511b606482015260840162000379565b600060405180602001620004b19062000aaf565b601f1982820381018352601f9091011660405290506000620004d38662000834565b620004de8662000834565b604051602001620004f192919062000da1565b60405160208183030381529060405280519060200120905060006200051783836200084c565b6040516305e52ecf60e21b81526001600160a01b03898116600483015288811660248301526044820188905291925090821690631794bb3c90606401600060405180830381600087803b1580156200056e57600080fd5b505af115801562000583573d6000803e3d6000fd5b5050506001600160a01b038089166000908152602081815260408083208b85168452909152812080549285166001600160a01b0319938416811790915560018054808201825592527fb10e2d527612073b26eecdfd717e6a320cf44b4afac2b0732d9fcbe2b7fa0cf6909101805490921617905550925050509392505050565b6004805460405163237dd6ed60e11b81526001600160a01b0384811693820193909352600092839283929116906346fbadda9060240160206040518083038186803b1580156200065257600080fd5b505afa15801562000667573d6000803e3d6000fd5b505050506040513d601f19601f820116820180604052508101906200068d919062000d7d565b6200069a5783856200069d565b84845b6001600160a01b039182166000908152602081815260408083209385168352929052205416925050505b92915050565b60008082604051602001620006e3919062000cd2565b6040516020818303038152906040528051906020012090506000620007088462000866565b905060006200071882846200084c565b6002805460018101825560009182527f405787fa12a823e0f2b7631cc41b3ba8828b3321ca811111fa75cd3aa3bb5ace0180546001600160a01b0319166001600160a01b0384161790556003805492935090620007758362000dd4565b909155509095945050505050565b6006546001600160a01b03163314620007b05760405162461bcd60e51b8152600401620003799062000d36565b600580546001600160a01b0319166001600160a01b0392909216919091179055565b60606001805480602002602001604051908101604052809291908181526020018280548015620002fb576020028201919060005260206000209081546001600160a01b03168152600190910190602001808311620002dc575050505050905090565b6060620006c76001600160a01b0383166014620008ee565b6000818351602085016000f59050803b620006c757600080fd5b60606000604051806020016200087c9062000abd565b601f1982820381018352601f9091011660408190526004549192508291620008b791869182916001600160a01b039091169060200162000e20565b60408051601f1981840301815290829052620008d7929160200162000da1565b604051602081830303815290604052915050919050565b60606000620008ff83600262000e62565b6200090c90600262000e84565b67ffffffffffffffff81111562000927576200092762000bce565b6040519080825280601f01601f19166020018201604052801562000952576020820181803683370190505b509050600360fc1b8160008151811062000970576200097062000d20565b60200101906001600160f81b031916908160001a905350600f60fb1b81600181518110620009a257620009a262000d20565b60200101906001600160f81b031916908160001a9053506000620009c884600262000e62565b620009d590600162000e84565b90505b600181111562000a57576f181899199a1a9b1b9c1cb0b131b232b360811b85600f166010811062000a0d5762000a0d62000d20565b1a60f81b82828151811062000a265762000a2662000d20565b60200101906001600160f81b031916908160001a90535060049490941c9362000a4f8162000e9f565b9050620009d8565b50831562000aa85760405162461bcd60e51b815260206004820181905260248201527f537472696e67733a20686578206c656e67746820696e73756666696369656e74604482015260640162000379565b9392505050565b6121868062000eba83390190565b611065806200304083390190565b6020808252825182820181905260009190848201906040850190845b8181101562000b0e5783516001600160a01b03168352928401929184019160010162000ae7565b50909695505050505050565b80356001600160a01b038116811462000b3257600080fd5b919050565b60006020828403121562000b4a57600080fd5b62000aa88262000b1a565b60008060006060848603121562000b6b57600080fd5b62000b768462000b1a565b925062000b866020850162000b1a565b9150604084013590509250925092565b6000806040838503121562000baa57600080fd5b62000bb58362000b1a565b915062000bc56020840162000b1a565b90509250929050565b634e487b7160e01b600052604160045260246000fd5b60006020828403121562000bf757600080fd5b813567ffffffffffffffff8082111562000c1057600080fd5b818401915084601f83011262000c2557600080fd5b81358181111562000c3a5762000c3a62000bce565b604051601f8201601f19908116603f0116810190838211818310171562000c655762000c6562000bce565b8160405282815287602084870101111562000c7f57600080fd5b826020860160208301376000928101602001929092525095945050505050565b60005b8381101562000cbc57818101518382015260200162000ca2565b8381111562000ccc576000848401525b50505050565b6000825162000ce681846020870162000c9f565b9190910192915050565b634e487b7160e01b600052601160045260246000fd5b60008282101562000d1b5762000d1b62000cf0565b500390565b634e487b7160e01b600052603260045260246000fd5b60208082526027908201527f4f6e6c7920666565546f5365747465722063616e2063616c6c207468697320666040820152663ab731ba34b7b760c91b606082015260800190565b60006020828403121562000d9057600080fd5b8151801515811462000aa857600080fd5b6000835162000db581846020880162000c9f565b83519083019062000dcb81836020880162000c9f565b01949350505050565b600060001982141562000deb5762000deb62000cf0565b5060010190565b6000815180845262000e0c81602086016020860162000c9f565b601f01601f19169290920160200192915050565b60608152600062000e35606083018662000df2565b828103602084015262000e49818662000df2565b91505060018060a01b0383166040830152949350505050565b600081600019048311821515161562000e7f5762000e7f62000cf0565b500290565b6000821982111562000e9a5762000e9a62000cf0565b500190565b60008162000eb15762000eb162000cf0565b50600019019056fe60806040526008805460ff60e01b19167c01000000000000000000000000000000000000000000000000000000001790553480156200003d57600080fd5b506040518060400160405280600f81526020017f4e61756768747920506f6f6c204c5000000000000000000000000000000000008152506040518060400160405280600381526020017f4e4c5000000000000000000000000000000000000000000000000000000000008152508160039080519060200190620000c2929190620000f3565b508051620000d8906004906020840190620000f3565b5050600580546001600160a01b0319163317905550620001ef565b828054620001019062000199565b90600052602060002090601f01602090048101928262000125576000855562000170565b82601f106200014057805160ff191683800117855562000170565b8280016001018555821562000170579182015b828111156200017057825182559160200191906001019062000153565b506200017e92915062000182565b5090565b5b808211156200017e576000815560010162000183565b600181811c90821680620001ae57607f821691505b60208210811415620001e9577f4e487b7100000000000000000000000000000000000000000000000000000000600052602260045260246000fd5b50919050565b611f8780620001ff6000396000f3fe608060405234801561001057600080fd5b50600436106101585760003560e01c80636d9a640a116100c3578063ba9a7a561161007c578063ba9a7a5614610311578063c45a01551461031a578063d21220a71461032d578063dd62ed3e14610340578063f952f01a14610292578063fff6cae91461037957600080fd5b80636d9a640a1461027f57806370a082311461029257806389afcb44146102bb57806395d89b41146102e3578063a457c2d7146102eb578063a9059cbb146102fe57600080fd5b806323b872dd1161011557806323b872dd1461021a57806329dcb0cf1461022d578063313ce5671461023657806339509351146102455780636a5e2650146102585780636a6278421461026c57600080fd5b806306fdde031461015d5780630902f1ac1461017b578063095ea7b3146101a55780630dfe1681146101c85780631794bb3c146101f357806318160ddd14610208575b600080fd5b610165610381565b6040516101729190611ccb565b60405180910390f35b600854604080516001600160701b038084168252600160701b909304909216602083015201610172565b6101b86101b3366004611d1a565b610413565b6040519015158152602001610172565b6006546101db906001600160a01b031681565b6040516001600160a01b039091168152602001610172565b610206610201366004611d44565b610429565b005b6002545b604051908152602001610172565b6101b8610228366004611d44565b6104d5565b61020c60095481565b60405160128152602001610172565b6101b8610253366004611d1a565b610581565b6008546101b890600160e01b900460ff1681565b61020c61027a366004611d80565b6105bd565b61020661028d366004611d9b565b61084b565b61020c6102a0366004611d80565b6001600160a01b031660009081526020819052604090205490565b6102ce6102c9366004611d80565b610d4c565b60408051928352602083019190915201610172565b6101656110cd565b6101b86102f9366004611d1a565b6110dc565b6101b861030c366004611d1a565b611175565b61020c6103e881565b6005546101db906001600160a01b031681565b6007546101db906001600160a01b031681565b61020c61034e366004611dd0565b6001600160a01b03918216600090815260016020908152604080832093909416825291909152205490565b610206611182565b60606003805461039090611e03565b80601f01602080910402602001604051908101604052809291908181526020018280546103bc90611e03565b80156104095780601f106103de57610100808354040283529160200191610409565b820191906000526020600020905b8154815290600101906020018083116103ec57829003601f168201915b5050505050905090565b60006104203384846112cf565b50600192915050565b6005546001600160a01b031633146104a05760405162461bcd60e51b815260206004820152602f60248201527f63616e206f6e6c7920626520696e697469616c697a656420627920746865206660448201526e1858dd1bdc9e4818dbdb9d1c9858dd608a1b60648201526084015b60405180910390fd5b600680546001600160a01b039485166001600160a01b0319918216179091556007805493909416921691909117909155600955565b60006104e28484846113f3565b6001600160a01b0384166000908152600160209081526040808320338452909152902054828110156105675760405162461bcd60e51b815260206004820152602860248201527f45524332303a207472616e7366657220616d6f756e74206578636565647320616044820152676c6c6f77616e636560c01b6064820152608401610497565b61057485338584036112cf565b60019150505b9392505050565b3360008181526001602090815260408083206001600160a01b038716845290915281205490916104209185906105b8908690611e54565b6112cf565b60008060006105e06008546001600160701b0380821692600160701b9092041690565b6006546040516370a0823160e01b81523060048201529294509092506000916001600160a01b03909116906370a082319060240160206040518083038186803b15801561062c57600080fd5b505afa158015610640573d6000803e3d6000fd5b505050506040513d601f19601f820116820180604052508101906106649190611e6c565b6007546040516370a0823160e01b81523060048201529192506000916001600160a01b03909116906370a082319060240160206040518083038186803b1580156106ad57600080fd5b505afa1580156106c1573d6000803e3d6000fd5b505050506040513d601f19601f820116820180604052508101906106e59190611e6c565b905060006106fc6001600160701b03861684611e85565b905060006107136001600160701b03861684611e85565b9050600061072060025490565b905080610759576103e861073c6107378486611e9c565b6115c3565b6107469190611e85565b9750610754306103e861173e565b6107a0565b61079d6001600160701b0388166107708386611e9c565b61077a9190611ed1565b6001600160701b03881661078e8486611e9c565b6107989190611ed1565b61174c565b97505b600088116107f05760405162461bcd60e51b815260206004820152601d60248201527f696e73756666696369656e74206c6971756964697479206d696e7465640000006044820152606401610497565b6107fa898961173e565b6108048585611762565b604080518481526020810184905233917f4c209b5fc8ad50758f13e2e1088ba56a560dff690a1c6fef26394f4c03821c4f910160405180910390a250505050505050919050565b60095442111561089d5760405162461bcd60e51b815260206004820152601b60248201527f43616e206e6f74207377617020616674657220646561646c696e6500000000006044820152606401610497565b600854600160e01b900460ff1615156001146108cb5760405162461bcd60e51b815260040161049790611ef3565b6008805460ff60e01b19169055821515806108e65750600082115b6109325760405162461bcd60e51b815260206004820152601b60248201527f4f757470757420616d6f756e74206e65656420746f206265203e3000000000006044820152606401610497565b6000806109536008546001600160701b0380821692600160701b9092041690565b6001600160701b031691506001600160701b03169150818510801561097757508084105b6109ba5760405162461bcd60e51b81526020600482015260146024820152734e6f7420656e6f756768206c697175696469747960601b6044820152606401610497565b60065460075460009182916001600160a01b039182169190811690871682148015906109f85750806001600160a01b0316876001600160a01b031614155b610a315760405162461bcd60e51b815260206004820152600a602482015269494e56414c49445f544f60b01b6044820152606401610497565b8815610a4b57610a4b6001600160a01b038316888b611834565b8715610a6557610a656001600160a01b038216888a611834565b6040516370a0823160e01b81523060048201526001600160a01b038316906370a082319060240160206040518083038186803b158015610aa457600080fd5b505afa158015610ab8573d6000803e3d6000fd5b505050506040513d601f19601f82011682018060405250810190610adc9190611e6c565b6040516370a0823160e01b81523060048201529094506001600160a01b038216906370a082319060240160206040518083038186803b158015610b1e57600080fd5b505afa158015610b32573d6000803e3d6000fd5b505050506040513d601f19601f82011682018060405250810190610b569190611e6c565b9250505060008785610b689190611e85565b8311610b75576000610b89565b610b7f8886611e85565b610b899084611e85565b90506000610b978886611e85565b8311610ba4576000610bb8565b610bae8886611e85565b610bb89084611e85565b90506000821180610bc95750600081115b610c155760405162461bcd60e51b815260206004820152601960248201527f494e53554646494349454e545f494e5055545f414d4f554e54000000000000006044820152606401610497565b6000610c22836014611e9c565b610c2e866103e8611e9c565b610c389190611e85565b90506000610c47836014611e9c565b610c53866103e8611e9c565b610c5d9190611e85565b9050610c698789611e9c565b610c7590612710611e9c565b610c7f8284611e9c565b1015610ccd5760405162461bcd60e51b815260206004820181905260248201527f5468652072656d61696e696e6720782a79206973206c657373207468616e204b6044820152606401610497565b5050610cd98484611762565b60408051838152602081018390529081018a9052606081018990526001600160a01b0388169033907fd78ad95fa46c994b6551d0da85fc275fe613ce37657fb8d5e3d130840159d8229060800160405180910390a350506008805460ff60e01b1916600160e01b17905550505050505050565b6000806008601c9054906101000a900460ff1615156001151514610d825760405162461bcd60e51b815260040161049790611ef3565b6008805460ff60e01b191690556006546040516370a0823160e01b81523060048201526000916001600160a01b0316906370a082319060240160206040518083038186803b158015610dd357600080fd5b505afa158015610de7573d6000803e3d6000fd5b505050506040513d601f19601f82011682018060405250810190610e0b9190611e6c565b6007546040516370a0823160e01b81523060048201529192506000916001600160a01b03909116906370a082319060240160206040518083038186803b158015610e5457600080fd5b505afa158015610e68573d6000803e3d6000fd5b505050506040513d601f19601f82011682018060405250810190610e8c9190611e6c565b306000908152602081905260409020546002549192509080610eae8584611e9c565b610eb89190611ed1565b955080610ec58484611e9c565b610ecf9190611ed1565b9450600086118015610ee15750600085115b610f2d5760405162461bcd60e51b815260206004820152601d60248201527f496e73756666696369656e74206c6971756964697479206275726e65640000006044820152606401610497565b610f37308361188b565b600654610f4e906001600160a01b03168888611834565b600754610f65906001600160a01b03168887611834565b6006546040516370a0823160e01b81523060048201526001600160a01b03909116906370a082319060240160206040518083038186803b158015610fa857600080fd5b505afa158015610fbc573d6000803e3d6000fd5b505050506040513d601f19601f82011682018060405250810190610fe09190611e6c565b6007546040516370a0823160e01b81523060048201529195506001600160a01b0316906370a082319060240160206040518083038186803b15801561102457600080fd5b505afa158015611038573d6000803e3d6000fd5b505050506040513d601f19601f8201168201806040525081019061105c9190611e6c565b92506110688484611762565b60408051878152602081018790526001600160a01b0389169133917fdccd412f0b1252819cb1fd330b93224ca42612892bb3f4f789976e6d81936496910160405180910390a350506008805460ff60e01b1916600160e01b1790555091939092509050565b60606004805461039090611e03565b3360009081526001602090815260408083206001600160a01b03861684529091528120548281101561115e5760405162461bcd60e51b815260206004820152602560248201527f45524332303a2064656372656173656420616c6c6f77616e63652062656c6f77604482015264207a65726f60d81b6064820152608401610497565b61116b33858584036112cf565b5060019392505050565b60006104203384846113f3565b600854600160e01b900460ff1615156001146111b05760405162461bcd60e51b815260040161049790611ef3565b6008805460ff60e01b191690556006546040516370a0823160e01b81523060048201526112ba916001600160a01b0316906370a082319060240160206040518083038186803b15801561120257600080fd5b505afa158015611216573d6000803e3d6000fd5b505050506040513d601f19601f8201168201806040525081019061123a9190611e6c565b6007546040516370a0823160e01b81523060048201526001600160a01b03909116906370a082319060240160206040518083038186803b15801561127d57600080fd5b505afa158015611291573d6000803e3d6000fd5b505050506040513d601f19601f820116820180604052508101906112b59190611e6c565b611762565b6008805460ff60e01b1916600160e01b179055565b6001600160a01b0383166113315760405162461bcd60e51b8152602060048201526024808201527f45524332303a20617070726f76652066726f6d20746865207a65726f206164646044820152637265737360e01b6064820152608401610497565b6001600160a01b0382166113925760405162461bcd60e51b815260206004820152602260248201527f45524332303a20617070726f766520746f20746865207a65726f206164647265604482015261737360f01b6064820152608401610497565b6001600160a01b0383811660008181526001602090815260408083209487168084529482529182902085905590518481527f8c5be1e5ebec7d5bd14f71427d1e84f3dd0314c0f7b2291e5b200ac8c7c3b925910160405180910390a3505050565b6001600160a01b0383166114575760405162461bcd60e51b815260206004820152602560248201527f45524332303a207472616e736665722066726f6d20746865207a65726f206164604482015264647265737360d81b6064820152608401610497565b6001600160a01b0382166114b95760405162461bcd60e51b815260206004820152602360248201527f45524332303a207472616e7366657220746f20746865207a65726f206164647260448201526265737360e81b6064820152608401610497565b6001600160a01b038316600090815260208190526040902054818110156115315760405162461bcd60e51b815260206004820152602660248201527f45524332303a207472616e7366657220616d6f756e7420657863656564732062604482015265616c616e636560d01b6064820152608401610497565b6001600160a01b03808516600090815260208190526040808220858503905591851681529081208054849290611568908490611e54565b92505081905550826001600160a01b0316846001600160a01b03167fddf252ad1be2c89b69c2b068fc378daa952ba7f163c4a11628f55a4df523b3ef846040516115b491815260200190565b60405180910390a35b50505050565b6000816115d257506000919050565b50600181600160801b81106115ec5760409190911b9060801c5b6801000000000000000081106116075760209190911b9060401c5b640100000000811061161e5760109190911b9060201c5b6201000081106116335760089190911b9060101c5b61010081106116475760049190911b9060081c5b6010811061165a5760029190911b9060041c5b6008811061166a57600182901b91505b600182848161167b5761167b611ebb565b048301901c9150600182848161169357611693611ebb565b048301901c915060018284816116ab576116ab611ebb565b048301901c915060018284816116c3576116c3611ebb565b048301901c915060018284816116db576116db611ebb565b048301901c915060018284816116f3576116f3611ebb565b048301901c9150600182848161170b5761170b611ebb565b048301901c9150600082848161172357611723611ebb565b049050808310156117345782611736565b805b949350505050565b6117488282611895565b5050565b600081831061175b578161057a565b5090919050565b6001600160701b038083118015906117835750806001600160701b03168211155b6117c25760405162461bcd60e51b815260206004820152601060248201526f55696e74313132204f564552464c4f5760801b6044820152606401610497565b600880546001600160701b03848116600160701b9081026001600160e01b0319909316878316179290921792839055604080518483168152929093041660208201527f32dc813d3f262a05478ad1165d5701040e411d9a6e1684c8c2da1c8e6f3b8022910160405180910390a1505050565b604080516001600160a01b038416602482015260448082018490528251808303909101815260649091019091526020810180516001600160e01b031663a9059cbb60e01b179052611886908490611974565b505050565b6117488282611a46565b6001600160a01b0382166118eb5760405162461bcd60e51b815260206004820152601f60248201527f45524332303a206d696e7420746f20746865207a65726f2061646472657373006044820152606401610497565b80600260008282546118fd9190611e54565b90915550506001600160a01b0382166000908152602081905260408120805483929061192a908490611e54565b90915550506040518181526001600160a01b038316906000907fddf252ad1be2c89b69c2b068fc378daa952ba7f163c4a11628f55a4df523b3ef9060200160405180910390a35050565b60006119c9826040518060400160405280602081526020017f5361666545524332303a206c6f772d6c6576656c2063616c6c206661696c6564815250856001600160a01b0316611b949092919063ffffffff16565b80519091501561188657808060200190518101906119e79190611f13565b6118865760405162461bcd60e51b815260206004820152602a60248201527f5361666545524332303a204552433230206f7065726174696f6e20646964206e6044820152691bdd081cdd58d8d9595960b21b6064820152608401610497565b6001600160a01b038216611aa65760405162461bcd60e51b815260206004820152602160248201527f45524332303a206275726e2066726f6d20746865207a65726f206164647265736044820152607360f81b6064820152608401610497565b6001600160a01b03821660009081526020819052604090205481811015611b1a5760405162461bcd60e51b815260206004820152602260248201527f45524332303a206275726e20616d6f756e7420657863656564732062616c616e604482015261636560f01b6064820152608401610497565b6001600160a01b0383166000908152602081905260408120838303905560028054849290611b49908490611e85565b90915550506040518281526000906001600160a01b038516907fddf252ad1be2c89b69c2b068fc378daa952ba7f163c4a11628f55a4df523b3ef9060200160405180910390a3505050565b6060611736848460008585843b611bed5760405162461bcd60e51b815260206004820152601d60248201527f416464726573733a2063616c6c20746f206e6f6e2d636f6e74726163740000006044820152606401610497565b600080866001600160a01b03168587604051611c099190611f35565b60006040518083038185875af1925050503d8060008114611c46576040519150601f19603f3d011682016040523d82523d6000602084013e611c4b565b606091505b5091509150611c5b828286611c66565b979650505050505050565b60608315611c7557508161057a565b825115611c855782518084602001fd5b8160405162461bcd60e51b81526004016104979190611ccb565b60005b83811015611cba578181015183820152602001611ca2565b838111156115bd5750506000910152565b6020815260008251806020840152611cea816040850160208701611c9f565b601f01601f19169190910160400192915050565b80356001600160a01b0381168114611d1557600080fd5b919050565b60008060408385031215611d2d57600080fd5b611d3683611cfe565b946020939093013593505050565b600080600060608486031215611d5957600080fd5b611d6284611cfe565b9250611d7060208501611cfe565b9150604084013590509250925092565b600060208284031215611d9257600080fd5b61057a82611cfe565b600080600060608486031215611db057600080fd5b8335925060208401359150611dc760408501611cfe565b90509250925092565b60008060408385031215611de357600080fd5b611dec83611cfe565b9150611dfa60208401611cfe565b90509250929050565b600181811c90821680611e1757607f821691505b60208210811415611e3857634e487b7160e01b600052602260045260246000fd5b50919050565b634e487b7160e01b600052601160045260246000fd5b60008219821115611e6757611e67611e3e565b500190565b600060208284031215611e7e57600080fd5b5051919050565b600082821015611e9757611e97611e3e565b500390565b6000816000190483118215151615611eb657611eb6611e3e565b500290565b634e487b7160e01b600052601260045260246000fd5b600082611eee57634e487b7160e01b600052601260045260246000fd5b500490565b6020808252600690820152651313d0d2d15160d21b604082015260600190565b600060208284031215611f2557600080fd5b8151801515811461057a57600080fd5b60008251611f47818460208701611c9f565b919091019291505056fea264697066735822122004c749ef2d6a6c632914b7ef014227a9038de97b64a9d30873854e9d7ef6b51b64736f6c6343000809003360806040523480156200001157600080fd5b506040516200106538038062001065833981016040819052620000349162000226565b8251839083906200004d9060039060208501906200009a565b508051620000639060049060208401906200009a565b5050600580546001600160a01b039093166001600160a01b0319938416811790915560068054909316179091555062000309915050565b828054620000a890620002b3565b90600052602060002090601f016020900481019282620000cc576000855562000117565b82601f10620000e757805160ff191683800117855562000117565b8280016001018555821562000117579182015b8281111562000117578251825591602001919060010190620000fa565b506200012592915062000129565b5090565b5b808211156200012557600081556001016200012a565b7f4e487b7100000000000000000000000000000000000000000000000000000000600052604160045260246000fd5b600082601f8301126200018157600080fd5b81516001600160401b03808211156200019e576200019e62000140565b604051601f8301601f19908116603f01168101908282118183101715620001c957620001c962000140565b81604052838152602092508683858801011115620001e657600080fd5b600091505b838210156200020a5785820183015181830184015290820190620001eb565b838211156200021c5760008385830101525b9695505050505050565b6000806000606084860312156200023c57600080fd5b83516001600160401b03808211156200025457600080fd5b62000262878388016200016f565b945060208601519150808211156200027957600080fd5b5062000288868287016200016f565b604086015190935090506001600160a01b0381168114620002a857600080fd5b809150509250925092565b600181811c90821680620002c857607f821691505b6020821081141562000303577f4e487b7100000000000000000000000000000000000000000000000000000000600052602260045260246000fd5b50919050565b610d4c80620003196000396000f3fe608060405234801561001057600080fd5b50600436106101005760003560e01c806370a0823111610097578063a457c2d711610066578063a457c2d714610224578063a9059cbb14610237578063d7fc5b151461024a578063dd62ed3e1461025d57600080fd5b806370a08231146101cd5780638da5cb5b146101f657806395d89b41146102095780639dc29fac1461021157600080fd5b806323b872dd116100d357806323b872dd14610183578063313ce5671461019657806339509351146101a557806340c10f19146101b857600080fd5b806306fdde03146101055780630754617214610123578063095ea7b31461014e57806318160ddd14610171575b600080fd5b61010d610296565b60405161011a9190610b28565b60405180910390f35b600654610136906001600160a01b031681565b6040516001600160a01b03909116815260200161011a565b61016161015c366004610b99565b610328565b604051901515815260200161011a565b6002545b60405190815260200161011a565b610161610191366004610bc3565b61033e565b6040516012815260200161011a565b6101616101b3366004610b99565b6103ed565b6101cb6101c6366004610b99565b610429565b005b6101756101db366004610bff565b6001600160a01b031660009081526020819052604090205490565b600554610136906001600160a01b031681565b61010d610461565b6101cb61021f366004610b99565b610470565b610161610232366004610b99565b6104a4565b610161610245366004610b99565b61053d565b6101cb610258366004610bff565b61054a565b61017561026b366004610c21565b6001600160a01b03918216600090815260016020908152604080832093909416825291909152205490565b6060600380546102a590610c54565b80601f01602080910402602001604051908101604052809291908181526020018280546102d190610c54565b801561031e5780601f106102f35761010080835404028352916020019161031e565b820191906000526020600020905b81548152906001019060200180831161030157829003601f168201915b5050505050905090565b600061033533848461060f565b50600192915050565b600061034b848484610734565b6001600160a01b0384166000908152600160209081526040808320338452909152902054828110156103d55760405162461bcd60e51b815260206004820152602860248201527f45524332303a207472616e7366657220616d6f756e74206578636565647320616044820152676c6c6f77616e636560c01b60648201526084015b60405180910390fd5b6103e2853385840361060f565b506001949350505050565b3360008181526001602090815260408083206001600160a01b03871684529091528120549091610335918590610424908690610ca5565b61060f565b6006546001600160a01b031633146104535760405162461bcd60e51b81526004016103cc90610cbd565b61045d8282610903565b5050565b6060600480546102a590610c54565b6006546001600160a01b0316331461049a5760405162461bcd60e51b81526004016103cc90610cbd565b61045d82826109e2565b3360009081526001602090815260408083206001600160a01b0386168452909152812054828110156105265760405162461bcd60e51b815260206004820152602560248201527f45524332303a2064656372656173656420616c6c6f77616e63652062656c6f77604482015264207a65726f60d81b60648201526084016103cc565b610533338585840361060f565b5060019392505050565b6000610335338484610734565b6005546001600160a01b031633146105ae5760405162461bcd60e51b815260206004820152602160248201527f6f6e6c79206f776e65722063616e2063616c6c20746869732066756e6374696f6044820152603760f91b60648201526084016103cc565b600680546001600160a01b038381166001600160a01b031983168117909355604080519190921680825260208201939093527f7d18367aacbd671e57a27b568d6e1afbcc4c28b30a1b898aacf1e3a4b7d19cd1910160405180910390a15050565b6001600160a01b0383166106715760405162461bcd60e51b8152602060048201526024808201527f45524332303a20617070726f76652066726f6d20746865207a65726f206164646044820152637265737360e01b60648201526084016103cc565b6001600160a01b0382166106d25760405162461bcd60e51b815260206004820152602260248201527f45524332303a20617070726f766520746f20746865207a65726f206164647265604482015261737360f01b60648201526084016103cc565b6001600160a01b0383811660008181526001602090815260408083209487168084529482529182902085905590518481527f8c5be1e5ebec7d5bd14f71427d1e84f3dd0314c0f7b2291e5b200ac8c7c3b92591015b60405180910390a3505050565b6001600160a01b0383166107985760405162461bcd60e51b815260206004820152602560248201527f45524332303a207472616e736665722066726f6d20746865207a65726f206164604482015264647265737360d81b60648201526084016103cc565b6001600160a01b0382166107fa5760405162461bcd60e51b815260206004820152602360248201527f45524332303a207472616e7366657220746f20746865207a65726f206164647260448201526265737360e81b60648201526084016103cc565b6001600160a01b038316600090815260208190526040902054818110156108725760405162461bcd60e51b815260206004820152602660248201527f45524332303a207472616e7366657220616d6f756e7420657863656564732062604482015265616c616e636560d01b60648201526084016103cc565b6001600160a01b038085166000908152602081905260408082208585039055918516815290812080548492906108a9908490610ca5565b92505081905550826001600160a01b0316846001600160a01b03167fddf252ad1be2c89b69c2b068fc378daa952ba7f163c4a11628f55a4df523b3ef846040516108f591815260200190565b60405180910390a350505050565b6001600160a01b0382166109595760405162461bcd60e51b815260206004820152601f60248201527f45524332303a206d696e7420746f20746865207a65726f20616464726573730060448201526064016103cc565b806002600082825461096b9190610ca5565b90915550506001600160a01b03821660009081526020819052604081208054839290610998908490610ca5565b90915550506040518181526001600160a01b038316906000907fddf252ad1be2c89b69c2b068fc378daa952ba7f163c4a11628f55a4df523b3ef9060200160405180910390a35050565b6001600160a01b038216610a425760405162461bcd60e51b815260206004820152602160248201527f45524332303a206275726e2066726f6d20746865207a65726f206164647265736044820152607360f81b60648201526084016103cc565b6001600160a01b03821660009081526020819052604090205481811015610ab65760405162461bcd60e51b815260206004820152602260248201527f45524332303a206275726e20616d6f756e7420657863656564732062616c616e604482015261636560f01b60648201526084016103cc565b6001600160a01b0383166000908152602081905260408120838303905560028054849290610ae5908490610cff565b90915550506040518281526000906001600160a01b038516907fddf252ad1be2c89b69c2b068fc378daa952ba7f163c4a11628f55a4df523b3ef90602001610727565b600060208083528351808285015260005b81811015610b5557858101830151858201604001528201610b39565b81811115610b67576000604083870101525b50601f01601f1916929092016040019392505050565b80356001600160a01b0381168114610b9457600080fd5b919050565b60008060408385031215610bac57600080fd5b610bb583610b7d565b946020939093013593505050565b600080600060608486031215610bd857600080fd5b610be184610b7d565b9250610bef60208501610b7d565b9150604084013590509250925092565b600060208284031215610c1157600080fd5b610c1a82610b7d565b9392505050565b60008060408385031215610c3457600080fd5b610c3d83610b7d565b9150610c4b60208401610b7d565b90509250929050565b600181811c90821680610c6857607f821691505b60208210811415610c8957634e487b7160e01b600052602260045260246000fd5b50919050565b634e487b7160e01b600052601160045260246000fd5b60008219821115610cb857610cb8610c8f565b500190565b60208082526022908201527f6f6e6c79206d696e7465722063616e2063616c6c20746869732066756e63746960408201526137b760f11b606082015260800190565b600082821015610d1157610d11610c8f565b50039056fea26469706673582212206c56203f2a38e7f35d74c3435cd98e0bbfe769a2ce5195584c57470907148ae064736f6c63430008090033a264697066735822122060ba3c72acdb9b49b45e2559071a8ed3025e43439f883c54a9908b4c681a967b64736f6c63430008090033",
  "immutableReferences": {},
  "source": "// SPDX-License-Identifier: MIT\npragma solidity 0.8.9;\n\nimport \"./NPPolicyToken.sol\";\nimport \"./NaughtyPair.sol\";\n\nimport \"@openzeppelin/contracts/token/ERC20/IERC20.sol\";\nimport \"./interfaces/INaughtyPair.sol\";\nimport \"./interfaces/INaughtyFactory.sol\";\nimport \"./interfaces/IPolicyCore.sol\";\n\nimport \"@openzeppelin/contracts/utils/Strings.sol\";\n\n/**\n * @title Naughty Factory\n * @dev Factory contract to deploy new pools periodically\n *      Each pool(product) will have a unique naughtyId\n *      Each pool will have its pool token\n *      PolicyToken - Stablecoin\n *      Token 0 may change but Token 1 is always stablecoin.\n */\n\ncontract NaughtyFactory is INaughtyFactory {\n    using Strings for uint256;\n\n    // PolicyToken Address => StableCoin Address => Pool Address\n    mapping(address => mapping(address => address)) getPair;\n\n    // Store all the pairs' addresses\n    address[] allPairs;\n\n    // Store all policy token addresses\n    address[] allTokens;\n\n    uint256 public _nextId;\n\n    // Address of policyCore\n    address public policyCore;\n\n    // Used for the management fee (currently not open)\n    address public feeTo;\n    address public feeToSetter;\n\n    // INIT_CODE_HASH, we do not use it, but put it here\n    bytes32 public constant INIT_CODE_HASH =\n        keccak256(abi.encodePacked(type(NaughtyPair).creationCode));\n\n    constructor(address _feeToSetter) {\n        feeToSetter = _feeToSetter;\n    }\n\n    // ---------------------------------------------------------------------------------------- //\n    // *************************************** Modifiers ************************************** //\n    // ---------------------------------------------------------------------------------------- //\n\n    /**\n     * @notice Only feeToSetter can call some functions\n     */\n    modifier onlyFeeToSetter() {\n        require(\n            msg.sender == feeToSetter,\n            \"Only feeToSetter can call this function\"\n        );\n        _;\n    }\n\n    // ---------------------------------------------------------------------------------------- //\n    // ************************************ View Functions ************************************ //\n    // ---------------------------------------------------------------------------------------- //\n\n    /**\n     * @notice Next token to be deployed\n     * @return Latest token address\n     */\n    function getLatestTokenAddress() public view returns (address) {\n        uint256 currentToken = _nextId - 1;\n        return allTokens[currentToken];\n    }\n\n    /**\n     * @notice Get all pair addresses\n     */\n    function getAllPairs() external view returns (address[] memory) {\n        return allPairs;\n    }\n\n    /**\n     * @notice Get all token addresses\n     */\n    function getAllTokens() external view returns (address[] memory) {\n        return allTokens;\n    }\n\n    /**\n     * @notice Get the pair address deployed by the factory\n     *         PolicyToken address first, and then stablecoin address\n     *         The order of the tokens will be sorted inside the function\n     * @param _tokenAddress1 Address of token1\n     * @param _tokenAddress2 Address of toekn2\n     * @return Pool address of the two tokens\n     */\n    function getPairAddress(address _tokenAddress1, address _tokenAddress2)\n        public\n        view\n        returns (address)\n    {\n        // Policy token address at the first place\n        (address token0, address token1) = IPolicyCore(policyCore)\n            .isStablecoinAddress(_tokenAddress2)\n            ? (_tokenAddress1, _tokenAddress2)\n            : (_tokenAddress2, _tokenAddress1);\n\n        address _pairAddress = getPair[token0][token1];\n\n        return _pairAddress;\n    }\n\n    // ---------------------------------------------------------------------------------------- //\n    // ************************************* Set Functions ************************************ //\n    // ---------------------------------------------------------------------------------------- //\n\n    /**\n     * @notice Remember to call this function to set the policyCore address\n     *         < PolicyCore should be the owner of policyToken >\n     * @param _policyCore: Address of policyCore contract\n     */\n    function setPolicyCoreAddress(address _policyCore) external {\n        policyCore = _policyCore;\n    }\n\n    /**\n     * @notice Set feeTo address\n     * @param _feeTo Address to receive the fee\n     */\n    function setFeeTo(address _feeTo) external onlyFeeToSetter {\n        feeTo = _feeTo;\n    }\n\n    /**\n     * @notice Set feeToSetter address\n     * @param _feeToSetter Address to control the feeTo\n     */\n    function setFeeToSetter(address _feeToSetter) external onlyFeeToSetter {\n        feeToSetter = _feeToSetter;\n    }\n\n    // ---------------------------------------------------------------------------------------- //\n    // ************************************* Main Functions *********************************** //\n    // ---------------------------------------------------------------------------------------- //\n\n    /**\n     * @notice After deploy the policytoken and get the address,\n     *         we deploy the policyToken - stablecoin pool contract\n     * @param _policyTokenAddress: Address of policy token\n     * @param _stablecoin: Address of the stable coin\n     * @return Address of the pool\n     */\n    function deployPool(\n        address _policyTokenAddress,\n        address _stablecoin,\n        uint256 _deadline\n    ) public returns (address) {\n        require(\n            IPolicyCore(policyCore).isStablecoinAddress(_stablecoin) == true,\n            \"You give the wrong order of policyToken and stablecoin\"\n        );\n\n        bytes memory bytecode = type(NaughtyPair).creationCode;\n\n        bytes32 salt = keccak256(\n            abi.encodePacked(\n                addressToString(_policyTokenAddress),\n                addressToString(_stablecoin)\n            )\n        );\n\n        address _poolAddress = _deploy(bytecode, salt);\n\n        INaughtyPair(_poolAddress).initialize(\n            _policyTokenAddress,\n            _stablecoin,\n            _deadline\n        );\n\n        getPair[_policyTokenAddress][_stablecoin] = _poolAddress;\n\n        allPairs.push(_poolAddress);\n\n        return _poolAddress;\n    }\n\n    /**\n     * @notice For each round we need to first create the policytoken(ERC20)\n     * @param _policyTokenName: Name of the policyToken\n     * @return PolicyToken address\n     */\n    function deployPolicyToken(string memory _policyTokenName)\n        public\n        returns (address)\n    {\n        bytes32 salt = keccak256(abi.encodePacked(_policyTokenName));\n\n        bytes memory bytecode = getPolicyTokenBytecode(_policyTokenName);\n\n        address _policTokenAddress = _deploy(bytecode, salt);\n\n        allTokens.push(_policTokenAddress);\n\n        _nextId++;\n\n        return _policTokenAddress;\n    }\n\n    /**\n     * @notice Deploy function with create2\n     */\n    function _deploy(bytes memory code, bytes32 salt)\n        internal\n        returns (address addr)\n    {\n        assembly {\n            addr := create2(0, add(code, 0x20), mload(code), salt)\n            if iszero(extcodesize(addr)) {\n                revert(0, 0)\n            }\n        }\n    }\n\n    /**\n     * @notice Transfer address to string\n     * @param _addr: Input address\n     * @return Output string form\n     */\n    function addressToString(address _addr)\n        internal\n        pure\n        returns (string memory)\n    {\n        return (uint256(uint160(_addr))).toHexString(20);\n    }\n\n    /**\n     * @notice Get the policyToken bytecode (with parameters)\n     * @param _tokenName: Name of policyToken\n     */\n    function getPolicyTokenBytecode(string memory _tokenName)\n        internal\n        view\n        returns (bytes memory)\n    {\n        bytes memory bytecode = type(NPPolicyToken).creationCode;\n\n        // Encodepacked the parameters\n        // The owner & minter is set to be the policyCore address\n        return\n            abi.encodePacked(\n                bytecode,\n                abi.encode(_tokenName, _tokenName, policyCore)\n            );\n    }\n}\n",
  "sourcePath": "/Volumes/Store/Degis/naughty-price/contracts/NaughtyFactory.sol",
  "compiler": {
    "name": "solc",
    "version": "0.8.9+commit.e5eed63a.Emscripten.clang"
  },
  "schemaVersion": "3.4.3",
  "updatedAt": "2021-12-09T09:50:36.691Z",
  "networkType": "ethereum",
  "devdoc": {
    "details": "Factory contract to deploy new pools periodically      Each pool(product) will have a unique naughtyId      Each pool will have its pool token      PolicyToken - Stablecoin      Token 0 may change but Token 1 is always stablecoin.",
    "kind": "dev",
    "methods": {
      "deployPolicyToken(string)": {
        "params": {
          "_policyTokenName": ": Name of the policyToken"
        },
        "returns": {
          "_0": "PolicyToken address"
        }
      },
      "deployPool(address,address,uint256)": {
        "params": {
          "_policyTokenAddress": ": Address of policy token",
          "_stablecoin": ": Address of the stable coin"
        },
        "returns": {
          "_0": "Address of the pool"
        }
      },
      "getLatestTokenAddress()": {
        "returns": {
          "_0": "Latest token address"
        }
      },
      "getPairAddress(address,address)": {
        "params": {
          "_tokenAddress1": "Address of token1",
          "_tokenAddress2": "Address of toekn2"
        },
        "returns": {
          "_0": "Pool address of the two tokens"
        }
      },
      "setFeeTo(address)": {
        "params": {
          "_feeTo": "Address to receive the fee"
        }
      },
      "setFeeToSetter(address)": {
        "params": {
          "_feeToSetter": "Address to control the feeTo"
        }
      },
      "setPolicyCoreAddress(address)": {
        "params": {
          "_policyCore": ": Address of policyCore contract"
        }
      }
    },
    "title": "Naughty Factory",
    "version": 1
  },
  "userdoc": {
    "kind": "user",
    "methods": {
      "deployPolicyToken(string)": {
        "notice": "For each round we need to first create the policytoken(ERC20)"
      },
      "deployPool(address,address,uint256)": {
        "notice": "After deploy the policytoken and get the address,         we deploy the policyToken - stablecoin pool contract"
      },
      "getAllPairs()": {
        "notice": "Get all pair addresses"
      },
      "getAllTokens()": {
        "notice": "Get all token addresses"
      },
      "getLatestTokenAddress()": {
        "notice": "Next token to be deployed"
      },
      "getPairAddress(address,address)": {
        "notice": "Get the pair address deployed by the factory         PolicyToken address first, and then stablecoin address         The order of the tokens will be sorted inside the function"
      },
      "setFeeTo(address)": {
        "notice": "Set feeTo address"
      },
      "setFeeToSetter(address)": {
        "notice": "Set feeToSetter address"
      },
      "setPolicyCoreAddress(address)": {
        "notice": "Remember to call this function to set the policyCore address         < PolicyCore should be the owner of policyToken >"
      }
    },
    "version": 1
  }
}