{
  "contractName": "PolicyToken",
  "abi": [
    {
      "inputs": [
        {
          "internalType": "string",
          "name": "_name",
          "type": "string"
        },
        {
          "internalType": "string",
          "name": "_symbol",
          "type": "string"
        },
        {
          "internalType": "address",
          "name": "_owner",
          "type": "address"
        }
      ],
      "stateMutability": "nonpayable",
      "type": "constructor"
    },
    {
      "anonymous": false,
      "inputs": [
        {
          "indexed": true,
          "internalType": "address",
          "name": "owner",
          "type": "address"
        },
        {
          "indexed": true,
          "internalType": "address",
          "name": "spender",
          "type": "address"
        },
        {
          "indexed": false,
          "internalType": "uint256",
          "name": "value",
          "type": "uint256"
        }
      ],
      "name": "Approval",
      "type": "event"
    },
    {
      "anonymous": false,
      "inputs": [
        {
          "indexed": false,
          "internalType": "address",
          "name": "_oldMinter",
          "type": "address"
        },
        {
          "indexed": false,
          "internalType": "address",
          "name": "_newMinter",
          "type": "address"
        }
      ],
      "name": "MinterRoleChanged",
      "type": "event"
    },
    {
      "anonymous": false,
      "inputs": [
        {
          "indexed": true,
          "internalType": "address",
          "name": "from",
          "type": "address"
        },
        {
          "indexed": true,
          "internalType": "address",
          "name": "to",
          "type": "address"
        },
        {
          "indexed": false,
          "internalType": "uint256",
          "name": "value",
          "type": "uint256"
        }
      ],
      "name": "Transfer",
      "type": "event"
    },
    {
      "inputs": [
        {
          "internalType": "address",
          "name": "owner",
          "type": "address"
        },
        {
          "internalType": "address",
          "name": "spender",
          "type": "address"
        }
      ],
      "name": "allowance",
      "outputs": [
        {
          "internalType": "uint256",
          "name": "",
          "type": "uint256"
        }
      ],
      "stateMutability": "view",
      "type": "function"
    },
    {
      "inputs": [
        {
          "internalType": "address",
          "name": "spender",
          "type": "address"
        },
        {
          "internalType": "uint256",
          "name": "amount",
          "type": "uint256"
        }
      ],
      "name": "approve",
      "outputs": [
        {
          "internalType": "bool",
          "name": "",
          "type": "bool"
        }
      ],
      "stateMutability": "nonpayable",
      "type": "function"
    },
    {
      "inputs": [
        {
          "internalType": "address",
          "name": "account",
          "type": "address"
        }
      ],
      "name": "balanceOf",
      "outputs": [
        {
          "internalType": "uint256",
          "name": "",
          "type": "uint256"
        }
      ],
      "stateMutability": "view",
      "type": "function"
    },
    {
      "inputs": [],
      "name": "decimals",
      "outputs": [
        {
          "internalType": "uint8",
          "name": "",
          "type": "uint8"
        }
      ],
      "stateMutability": "view",
      "type": "function"
    },
    {
      "inputs": [
        {
          "internalType": "address",
          "name": "spender",
          "type": "address"
        },
        {
          "internalType": "uint256",
          "name": "subtractedValue",
          "type": "uint256"
        }
      ],
      "name": "decreaseAllowance",
      "outputs": [
        {
          "internalType": "bool",
          "name": "",
          "type": "bool"
        }
      ],
      "stateMutability": "nonpayable",
      "type": "function"
    },
    {
      "inputs": [
        {
          "internalType": "address",
          "name": "spender",
          "type": "address"
        },
        {
          "internalType": "uint256",
          "name": "addedValue",
          "type": "uint256"
        }
      ],
      "name": "increaseAllowance",
      "outputs": [
        {
          "internalType": "bool",
          "name": "",
          "type": "bool"
        }
      ],
      "stateMutability": "nonpayable",
      "type": "function"
    },
    {
      "inputs": [],
      "name": "minter",
      "outputs": [
        {
          "internalType": "address",
          "name": "",
          "type": "address"
        }
      ],
      "stateMutability": "view",
      "type": "function"
    },
    {
      "inputs": [],
      "name": "name",
      "outputs": [
        {
          "internalType": "string",
          "name": "",
          "type": "string"
        }
      ],
      "stateMutability": "view",
      "type": "function"
    },
    {
      "inputs": [],
      "name": "owner",
      "outputs": [
        {
          "internalType": "address",
          "name": "",
          "type": "address"
        }
      ],
      "stateMutability": "view",
      "type": "function"
    },
    {
      "inputs": [],
      "name": "symbol",
      "outputs": [
        {
          "internalType": "string",
          "name": "",
          "type": "string"
        }
      ],
      "stateMutability": "view",
      "type": "function"
    },
    {
      "inputs": [],
      "name": "totalSupply",
      "outputs": [
        {
          "internalType": "uint256",
          "name": "",
          "type": "uint256"
        }
      ],
      "stateMutability": "view",
      "type": "function"
    },
    {
      "inputs": [
        {
          "internalType": "address",
          "name": "recipient",
          "type": "address"
        },
        {
          "internalType": "uint256",
          "name": "amount",
          "type": "uint256"
        }
      ],
      "name": "transfer",
      "outputs": [
        {
          "internalType": "bool",
          "name": "",
          "type": "bool"
        }
      ],
      "stateMutability": "nonpayable",
      "type": "function"
    },
    {
      "inputs": [
        {
          "internalType": "address",
          "name": "sender",
          "type": "address"
        },
        {
          "internalType": "address",
          "name": "recipient",
          "type": "address"
        },
        {
          "internalType": "uint256",
          "name": "amount",
          "type": "uint256"
        }
      ],
      "name": "transferFrom",
      "outputs": [
        {
          "internalType": "bool",
          "name": "",
          "type": "bool"
        }
      ],
      "stateMutability": "nonpayable",
      "type": "function"
    },
    {
      "inputs": [
        {
          "internalType": "address",
          "name": "_newMinter",
          "type": "address"
        }
      ],
      "name": "passMinterRole",
      "outputs": [],
      "stateMutability": "nonpayable",
      "type": "function"
    },
    {
      "inputs": [
        {
          "internalType": "address",
          "name": "_account",
          "type": "address"
        },
        {
          "internalType": "uint256",
          "name": "_amount",
          "type": "uint256"
        }
      ],
      "name": "mint",
      "outputs": [],
      "stateMutability": "nonpayable",
      "type": "function"
    },
    {
      "inputs": [
        {
          "internalType": "address",
          "name": "_account",
          "type": "address"
        },
        {
          "internalType": "uint256",
          "name": "_amount",
          "type": "uint256"
        }
      ],
      "name": "burn",
      "outputs": [],
      "stateMutability": "nonpayable",
      "type": "function"
    }
  ],
  "bytecode": "0x60806040523480156200001157600080fd5b506040516200106538038062001065833981016040819052620000349162000226565b8251839083906200004d9060039060208501906200009a565b508051620000639060049060208401906200009a565b5050600580546001600160a01b039093166001600160a01b0319938416811790915560068054909316179091555062000309915050565b828054620000a890620002b3565b90600052602060002090601f016020900481019282620000cc576000855562000117565b82601f10620000e757805160ff191683800117855562000117565b8280016001018555821562000117579182015b8281111562000117578251825591602001919060010190620000fa565b506200012592915062000129565b5090565b5b808211156200012557600081556001016200012a565b7f4e487b7100000000000000000000000000000000000000000000000000000000600052604160045260246000fd5b600082601f8301126200018157600080fd5b81516001600160401b03808211156200019e576200019e62000140565b604051601f8301601f19908116603f01168101908282118183101715620001c957620001c962000140565b81604052838152602092508683858801011115620001e657600080fd5b600091505b838210156200020a5785820183015181830184015290820190620001eb565b838211156200021c5760008385830101525b9695505050505050565b6000806000606084860312156200023c57600080fd5b83516001600160401b03808211156200025457600080fd5b62000262878388016200016f565b945060208601519150808211156200027957600080fd5b5062000288868287016200016f565b604086015190935090506001600160a01b0381168114620002a857600080fd5b809150509250925092565b600181811c90821680620002c857607f821691505b6020821081141562000303577f4e487b7100000000000000000000000000000000000000000000000000000000600052602260045260246000fd5b50919050565b610d4c80620003196000396000f3fe608060405234801561001057600080fd5b50600436106101005760003560e01c806370a0823111610097578063a457c2d711610066578063a457c2d714610224578063a9059cbb14610237578063d7fc5b151461024a578063dd62ed3e1461025d57600080fd5b806370a08231146101cd5780638da5cb5b146101f657806395d89b41146102095780639dc29fac1461021157600080fd5b806323b872dd116100d357806323b872dd14610183578063313ce5671461019657806339509351146101a557806340c10f19146101b857600080fd5b806306fdde03146101055780630754617214610123578063095ea7b31461014e57806318160ddd14610171575b600080fd5b61010d610296565b60405161011a9190610b28565b60405180910390f35b600654610136906001600160a01b031681565b6040516001600160a01b03909116815260200161011a565b61016161015c366004610b99565b610328565b604051901515815260200161011a565b6002545b60405190815260200161011a565b610161610191366004610bc3565b61033e565b6040516012815260200161011a565b6101616101b3366004610b99565b6103ed565b6101cb6101c6366004610b99565b610429565b005b6101756101db366004610bff565b6001600160a01b031660009081526020819052604090205490565b600554610136906001600160a01b031681565b61010d610461565b6101cb61021f366004610b99565b610470565b610161610232366004610b99565b6104a4565b610161610245366004610b99565b61053d565b6101cb610258366004610bff565b61054a565b61017561026b366004610c21565b6001600160a01b03918216600090815260016020908152604080832093909416825291909152205490565b6060600380546102a590610c54565b80601f01602080910402602001604051908101604052809291908181526020018280546102d190610c54565b801561031e5780601f106102f35761010080835404028352916020019161031e565b820191906000526020600020905b81548152906001019060200180831161030157829003601f168201915b5050505050905090565b600061033533848461060f565b50600192915050565b600061034b848484610734565b6001600160a01b0384166000908152600160209081526040808320338452909152902054828110156103d55760405162461bcd60e51b815260206004820152602860248201527f45524332303a207472616e7366657220616d6f756e74206578636565647320616044820152676c6c6f77616e636560c01b60648201526084015b60405180910390fd5b6103e2853385840361060f565b506001949350505050565b3360008181526001602090815260408083206001600160a01b03871684529091528120549091610335918590610424908690610ca5565b61060f565b6006546001600160a01b031633146104535760405162461bcd60e51b81526004016103cc90610cbd565b61045d8282610903565b5050565b6060600480546102a590610c54565b6006546001600160a01b0316331461049a5760405162461bcd60e51b81526004016103cc90610cbd565b61045d82826109e2565b3360009081526001602090815260408083206001600160a01b0386168452909152812054828110156105265760405162461bcd60e51b815260206004820152602560248201527f45524332303a2064656372656173656420616c6c6f77616e63652062656c6f77604482015264207a65726f60d81b60648201526084016103cc565b610533338585840361060f565b5060019392505050565b6000610335338484610734565b6005546001600160a01b031633146105ae5760405162461bcd60e51b815260206004820152602160248201527f6f6e6c79206f776e65722063616e2063616c6c20746869732066756e6374696f6044820152603760f91b60648201526084016103cc565b600680546001600160a01b038381166001600160a01b031983168117909355604080519190921680825260208201939093527f7d18367aacbd671e57a27b568d6e1afbcc4c28b30a1b898aacf1e3a4b7d19cd1910160405180910390a15050565b6001600160a01b0383166106715760405162461bcd60e51b8152602060048201526024808201527f45524332303a20617070726f76652066726f6d20746865207a65726f206164646044820152637265737360e01b60648201526084016103cc565b6001600160a01b0382166106d25760405162461bcd60e51b815260206004820152602260248201527f45524332303a20617070726f766520746f20746865207a65726f206164647265604482015261737360f01b60648201526084016103cc565b6001600160a01b0383811660008181526001602090815260408083209487168084529482529182902085905590518481527f8c5be1e5ebec7d5bd14f71427d1e84f3dd0314c0f7b2291e5b200ac8c7c3b92591015b60405180910390a3505050565b6001600160a01b0383166107985760405162461bcd60e51b815260206004820152602560248201527f45524332303a207472616e736665722066726f6d20746865207a65726f206164604482015264647265737360d81b60648201526084016103cc565b6001600160a01b0382166107fa5760405162461bcd60e51b815260206004820152602360248201527f45524332303a207472616e7366657220746f20746865207a65726f206164647260448201526265737360e81b60648201526084016103cc565b6001600160a01b038316600090815260208190526040902054818110156108725760405162461bcd60e51b815260206004820152602660248201527f45524332303a207472616e7366657220616d6f756e7420657863656564732062604482015265616c616e636560d01b60648201526084016103cc565b6001600160a01b038085166000908152602081905260408082208585039055918516815290812080548492906108a9908490610ca5565b92505081905550826001600160a01b0316846001600160a01b03167fddf252ad1be2c89b69c2b068fc378daa952ba7f163c4a11628f55a4df523b3ef846040516108f591815260200190565b60405180910390a350505050565b6001600160a01b0382166109595760405162461bcd60e51b815260206004820152601f60248201527f45524332303a206d696e7420746f20746865207a65726f20616464726573730060448201526064016103cc565b806002600082825461096b9190610ca5565b90915550506001600160a01b03821660009081526020819052604081208054839290610998908490610ca5565b90915550506040518181526001600160a01b038316906000907fddf252ad1be2c89b69c2b068fc378daa952ba7f163c4a11628f55a4df523b3ef9060200160405180910390a35050565b6001600160a01b038216610a425760405162461bcd60e51b815260206004820152602160248201527f45524332303a206275726e2066726f6d20746865207a65726f206164647265736044820152607360f81b60648201526084016103cc565b6001600160a01b03821660009081526020819052604090205481811015610ab65760405162461bcd60e51b815260206004820152602260248201527f45524332303a206275726e20616d6f756e7420657863656564732062616c616e604482015261636560f01b60648201526084016103cc565b6001600160a01b0383166000908152602081905260408120838303905560028054849290610ae5908490610cff565b90915550506040518281526000906001600160a01b038516907fddf252ad1be2c89b69c2b068fc378daa952ba7f163c4a11628f55a4df523b3ef90602001610727565b600060208083528351808285015260005b81811015610b5557858101830151858201604001528201610b39565b81811115610b67576000604083870101525b50601f01601f1916929092016040019392505050565b80356001600160a01b0381168114610b9457600080fd5b919050565b60008060408385031215610bac57600080fd5b610bb583610b7d565b946020939093013593505050565b600080600060608486031215610bd857600080fd5b610be184610b7d565b9250610bef60208501610b7d565b9150604084013590509250925092565b600060208284031215610c1157600080fd5b610c1a82610b7d565b9392505050565b60008060408385031215610c3457600080fd5b610c3d83610b7d565b9150610c4b60208401610b7d565b90509250929050565b600181811c90821680610c6857607f821691505b60208210811415610c8957634e487b7160e01b600052602260045260246000fd5b50919050565b634e487b7160e01b600052601160045260246000fd5b60008219821115610cb857610cb8610c8f565b500190565b60208082526022908201527f6f6e6c79206d696e7465722063616e2063616c6c20746869732066756e63746960408201526137b760f11b606082015260800190565b600082821015610d1157610d11610c8f565b50039056fea26469706673582212205f3c339cae5c66f6fbb7a19f873964ffa658c14b91ae392aa9f6836b7858224664736f6c63430008090033",
  "immutableReferences": {},
  "source": "// SPDX-License-Identifier: MIT\npragma solidity 0.8.9;\nimport \"@openzeppelin/contracts/token/ERC20/ERC20.sol\";\nimport \"./interfaces/IPolicyToken.sol\";\n\n/**\n * @title  Policy Token\n * @notice This is the contract for token price policy token.\n *         It is a ERC20 token with an owner and a minter.\n *         The owner should be the deployer at first.\n *         The minter should be the policyCore contract.\n */\ncontract PolicyToken is ERC20, IPolicyToken {\n    address public owner;\n\n    address public minter;\n\n    constructor(\n        string memory _name,\n        string memory _symbol,\n        address _owner\n    ) ERC20(_name, _symbol) {\n        owner = _owner;\n        minter = _owner;\n    }\n\n    /**\n     * @notice Only the owner can call some functions\n     */\n    modifier onlyOwner() {\n        require(msg.sender == owner, \"only owner can call this function\");\n        _;\n    }\n\n    /**\n     * @notice Only the minter can mint\n     */\n    modifier onlyMinter() {\n        require(msg.sender == minter, \"only minter can call this function\");\n        _;\n    }\n\n    /**\n     * @notice Pass the minter role to a new address\n     * @param _newMinter Address of new minter\n     */\n    function passMinterRole(address _newMinter) public onlyOwner {\n        address oldMinter = minter;\n        minter = _newMinter;\n        emit MinterRoleChanged(oldMinter, _newMinter);\n    }\n\n    /**\n     * @notice Mint some policy tokens\n     * @param _account Address to receive the tokens\n     * @param _amount Amount to be minted\n     */\n    function mint(address _account, uint256 _amount) public onlyMinter {\n        _mint(_account, _amount);\n    }\n\n    /**\n     * @notice Burn some policy tokens\n     * @param _account Address to burn tokens\n     * @param _amount Amount to be burned\n     */\n    function burn(address _account, uint256 _amount) public onlyMinter {\n        _burn(_account, _amount);\n    }\n}\n",
  "sourcePath": "/Volumes/Store/src/naughty-price/contracts/PolicyToken.sol",
  "compiler": {
    "name": "solc",
    "version": "0.8.9+commit.e5eed63a.Emscripten.clang"
  },
  "schemaVersion": "3.4.3",
  "updatedAt": "2021-11-29T11:33:50.979Z",
  "devdoc": {
    "kind": "dev",
    "methods": {
      "allowance(address,address)": {
        "details": "See {IERC20-allowance}."
      },
      "approve(address,uint256)": {
        "details": "See {IERC20-approve}. Requirements: - `spender` cannot be the zero address."
      },
      "balanceOf(address)": {
        "details": "See {IERC20-balanceOf}."
      },
      "burn(address,uint256)": {
        "params": {
          "_account": "Address to burn tokens",
          "_amount": "Amount to be burned"
        }
      },
      "decimals()": {
        "details": "Returns the number of decimals used to get its user representation. For example, if `decimals` equals `2`, a balance of `505` tokens should be displayed to a user as `5.05` (`505 / 10 ** 2`). Tokens usually opt for a value of 18, imitating the relationship between Ether and Wei. This is the value {ERC20} uses, unless this function is overridden; NOTE: This information is only used for _display_ purposes: it in no way affects any of the arithmetic of the contract, including {IERC20-balanceOf} and {IERC20-transfer}."
      },
      "decreaseAllowance(address,uint256)": {
        "details": "Atomically decreases the allowance granted to `spender` by the caller. This is an alternative to {approve} that can be used as a mitigation for problems described in {IERC20-approve}. Emits an {Approval} event indicating the updated allowance. Requirements: - `spender` cannot be the zero address. - `spender` must have allowance for the caller of at least `subtractedValue`."
      },
      "increaseAllowance(address,uint256)": {
        "details": "Atomically increases the allowance granted to `spender` by the caller. This is an alternative to {approve} that can be used as a mitigation for problems described in {IERC20-approve}. Emits an {Approval} event indicating the updated allowance. Requirements: - `spender` cannot be the zero address."
      },
      "mint(address,uint256)": {
        "params": {
          "_account": "Address to receive the tokens",
          "_amount": "Amount to be minted"
        }
      },
      "name()": {
        "details": "Returns the name of the token."
      },
      "passMinterRole(address)": {
        "params": {
          "_newMinter": "Address of new minter"
        }
      },
      "symbol()": {
        "details": "Returns the symbol of the token, usually a shorter version of the name."
      },
      "totalSupply()": {
        "details": "See {IERC20-totalSupply}."
      },
      "transfer(address,uint256)": {
        "details": "See {IERC20-transfer}. Requirements: - `recipient` cannot be the zero address. - the caller must have a balance of at least `amount`."
      },
      "transferFrom(address,address,uint256)": {
        "details": "See {IERC20-transferFrom}. Emits an {Approval} event indicating the updated allowance. This is not required by the EIP. See the note at the beginning of {ERC20}. Requirements: - `sender` and `recipient` cannot be the zero address. - `sender` must have a balance of at least `amount`. - the caller must have allowance for ``sender``'s tokens of at least `amount`."
      }
    },
    "title": "Policy Token",
    "version": 1
  },
  "userdoc": {
    "kind": "user",
    "methods": {
      "burn(address,uint256)": {
        "notice": "Burn some policy tokens"
      },
      "mint(address,uint256)": {
        "notice": "Mint some policy tokens"
      },
      "passMinterRole(address)": {
        "notice": "Pass the minter role to a new address"
      }
    },
    "notice": "This is the contract for token price policy token.         It is a ERC20 token with an owner and a minter.         The owner should be the deployer at first.         The minter should be the policyCore contract.",
    "version": 1
  }
}