{
  "contractName": "PolicyCore",
  "abi": [
    {
      "inputs": [
        {
          "internalType": "address",
          "name": "_usdt",
          "type": "address"
        },
        {
          "internalType": "address",
          "name": "_factory",
          "type": "address"
        },
        {
          "internalType": "address",
          "name": "_priceGetter",
          "type": "address"
        }
      ],
      "stateMutability": "nonpayable",
      "type": "constructor"
    },
    {
      "anonymous": false,
      "inputs": [
        {
          "indexed": false,
          "internalType": "string",
          "name": "_policyTokenName",
          "type": "string"
        },
        {
          "indexed": false,
          "internalType": "int256",
          "name": "price",
          "type": "int256"
        },
        {
          "indexed": false,
          "internalType": "bool",
          "name": "isHappened",
          "type": "bool"
        }
      ],
      "name": "FinalResultSettled",
      "type": "event"
    },
    {
      "anonymous": false,
      "inputs": [
        {
          "indexed": false,
          "internalType": "address",
          "name": "_policyTokenAddress",
          "type": "address"
        },
        {
          "indexed": false,
          "internalType": "address",
          "name": "_stablecoin",
          "type": "address"
        }
      ],
      "name": "FinishSettlementPolicies",
      "type": "event"
    },
    {
      "anonymous": false,
      "inputs": [
        {
          "indexed": false,
          "internalType": "address",
          "name": "_newStablecoin",
          "type": "address"
        }
      ],
      "name": "NewStablecoinAdded",
      "type": "event"
    },
    {
      "anonymous": false,
      "inputs": [
        {
          "indexed": false,
          "internalType": "uint256",
          "name": "_newRatio",
          "type": "uint256"
        }
      ],
      "name": "PurchaseIncentiveRatioSet",
      "type": "event"
    },
    {
      "inputs": [
        {
          "internalType": "address",
          "name": "",
          "type": "address"
        },
        {
          "internalType": "uint256",
          "name": "",
          "type": "uint256"
        }
      ],
      "name": "allDepositors",
      "outputs": [
        {
          "internalType": "address",
          "name": "",
          "type": "address"
        }
      ],
      "stateMutability": "view",
      "type": "function",
      "constant": true
    },
    {
      "inputs": [],
      "name": "currentDistributionIndex",
      "outputs": [
        {
          "internalType": "uint256",
          "name": "",
          "type": "uint256"
        }
      ],
      "stateMutability": "view",
      "type": "function",
      "constant": true
    },
    {
      "inputs": [],
      "name": "factory",
      "outputs": [
        {
          "internalType": "contract INaughtyFactory",
          "name": "",
          "type": "address"
        }
      ],
      "stateMutability": "view",
      "type": "function",
      "constant": true
    },
    {
      "inputs": [],
      "name": "lottery",
      "outputs": [
        {
          "internalType": "address",
          "name": "",
          "type": "address"
        }
      ],
      "stateMutability": "view",
      "type": "function",
      "constant": true
    },
    {
      "inputs": [],
      "name": "owner",
      "outputs": [
        {
          "internalType": "address",
          "name": "",
          "type": "address"
        }
      ],
      "stateMutability": "view",
      "type": "function",
      "constant": true
    },
    {
      "inputs": [],
      "name": "priceGetter",
      "outputs": [
        {
          "internalType": "contract IPriceGetter",
          "name": "",
          "type": "address"
        }
      ],
      "stateMutability": "view",
      "type": "function",
      "constant": true
    },
    {
      "inputs": [
        {
          "internalType": "string",
          "name": "_policyTokenName",
          "type": "string"
        }
      ],
      "name": "findAddressbyName",
      "outputs": [
        {
          "internalType": "address",
          "name": "",
          "type": "address"
        }
      ],
      "stateMutability": "view",
      "type": "function",
      "constant": true
    },
    {
      "inputs": [
        {
          "internalType": "address",
          "name": "_policyTokenAddress",
          "type": "address"
        }
      ],
      "name": "findNamebyAddress",
      "outputs": [
        {
          "internalType": "string",
          "name": "",
          "type": "string"
        }
      ],
      "stateMutability": "view",
      "type": "function",
      "constant": true
    },
    {
      "inputs": [
        {
          "internalType": "string",
          "name": "_policyTokenName",
          "type": "string"
        }
      ],
      "name": "getPolicyTokenInfo",
      "outputs": [
        {
          "components": [
            {
              "internalType": "address",
              "name": "policyTokenAddress",
              "type": "address"
            },
            {
              "internalType": "bool",
              "name": "isCall",
              "type": "bool"
            },
            {
              "internalType": "uint256",
              "name": "strikePrice",
              "type": "uint256"
            },
            {
              "internalType": "uint256",
              "name": "deadline",
              "type": "uint256"
            },
            {
              "internalType": "uint256",
              "name": "settleTimestamp",
              "type": "uint256"
            }
          ],
          "internalType": "struct IPolicyCore.PolicyTokenInfo",
          "name": "",
          "type": "tuple"
        }
      ],
      "stateMutability": "view",
      "type": "function",
      "constant": true
    },
    {
      "inputs": [
        {
          "internalType": "address",
          "name": "_coinAddress",
          "type": "address"
        }
      ],
      "name": "isStablecoinAddress",
      "outputs": [
        {
          "internalType": "bool",
          "name": "",
          "type": "bool"
        }
      ],
      "stateMutability": "view",
      "type": "function",
      "constant": true
    },
    {
      "inputs": [
        {
          "internalType": "address",
          "name": "_userAddress",
          "type": "address"
        },
        {
          "internalType": "address",
          "name": "_policyTokenAddress",
          "type": "address"
        }
      ],
      "name": "checkUserQuota",
      "outputs": [
        {
          "internalType": "uint256",
          "name": "_quota",
          "type": "uint256"
        }
      ],
      "stateMutability": "view",
      "type": "function",
      "constant": true
    },
    {
      "inputs": [],
      "name": "getAllTokens",
      "outputs": [
        {
          "components": [
            {
              "internalType": "address",
              "name": "policyTokenAddress",
              "type": "address"
            },
            {
              "internalType": "bool",
              "name": "isCall",
              "type": "bool"
            },
            {
              "internalType": "uint256",
              "name": "strikePrice",
              "type": "uint256"
            },
            {
              "internalType": "uint256",
              "name": "deadline",
              "type": "uint256"
            },
            {
              "internalType": "uint256",
              "name": "settleTimestamp",
              "type": "uint256"
            }
          ],
          "internalType": "struct IPolicyCore.PolicyTokenInfo[]",
          "name": "",
          "type": "tuple[]"
        }
      ],
      "stateMutability": "view",
      "type": "function",
      "constant": true
    },
    {
      "inputs": [
        {
          "internalType": "address",
          "name": "_newStablecoin",
          "type": "address"
        }
      ],
      "name": "addStablecoin",
      "outputs": [],
      "stateMutability": "nonpayable",
      "type": "function"
    },
    {
      "inputs": [
        {
          "internalType": "string",
          "name": "_tokenName",
          "type": "string"
        },
        {
          "internalType": "bool",
          "name": "_isCall",
          "type": "bool"
        },
        {
          "internalType": "uint256",
          "name": "_strikePrice",
          "type": "uint256"
        },
        {
          "internalType": "uint256",
          "name": "_round",
          "type": "uint256"
        },
        {
          "internalType": "uint256",
          "name": "_deadline",
          "type": "uint256"
        },
        {
          "internalType": "uint256",
          "name": "_settleTimestamp",
          "type": "uint256"
        }
      ],
      "name": "deployPolicyToken",
      "outputs": [
        {
          "internalType": "address",
          "name": "",
          "type": "address"
        }
      ],
      "stateMutability": "nonpayable",
      "type": "function"
    },
    {
      "inputs": [
        {
          "internalType": "string",
          "name": "_policyTokenName",
          "type": "string"
        },
        {
          "internalType": "address",
          "name": "_stablecoin",
          "type": "address"
        },
        {
          "internalType": "uint256",
          "name": "_poolDeadline",
          "type": "uint256"
        }
      ],
      "name": "deployPool",
      "outputs": [
        {
          "internalType": "address",
          "name": "",
          "type": "address"
        }
      ],
      "stateMutability": "nonpayable",
      "type": "function"
    },
    {
      "inputs": [
        {
          "internalType": "string",
          "name": "_policyTokenName",
          "type": "string"
        },
        {
          "internalType": "address",
          "name": "_stablecoin",
          "type": "address"
        },
        {
          "internalType": "uint256",
          "name": "_amount",
          "type": "uint256"
        }
      ],
      "name": "deposit",
      "outputs": [],
      "stateMutability": "nonpayable",
      "type": "function"
    },
    {
      "inputs": [
        {
          "internalType": "string",
          "name": "_policyTokenName",
          "type": "string"
        },
        {
          "internalType": "address",
          "name": "_stablecoin",
          "type": "address"
        },
        {
          "internalType": "uint256",
          "name": "_amount",
          "type": "uint256"
        },
        {
          "internalType": "address",
          "name": "_userAddress",
          "type": "address"
        }
      ],
      "name": "delegateDeposit",
      "outputs": [],
      "stateMutability": "nonpayable",
      "type": "function"
    },
    {
      "inputs": [
        {
          "internalType": "string",
          "name": "_policyTokenName",
          "type": "string"
        },
        {
          "internalType": "address",
          "name": "_stablecoin",
          "type": "address"
        },
        {
          "internalType": "uint256",
          "name": "_amount",
          "type": "uint256"
        }
      ],
      "name": "redeem",
      "outputs": [],
      "stateMutability": "nonpayable",
      "type": "function"
    },
    {
      "inputs": [
        {
          "internalType": "string",
          "name": "_policyTokenName",
          "type": "string"
        },
        {
          "internalType": "address",
          "name": "_stablecoin",
          "type": "address"
        },
        {
          "internalType": "uint256",
          "name": "_amount",
          "type": "uint256"
        }
      ],
      "name": "claim",
      "outputs": [],
      "stateMutability": "nonpayable",
      "type": "function"
    },
    {
      "inputs": [
        {
          "internalType": "string",
          "name": "_policyTokenName",
          "type": "string"
        }
      ],
      "name": "settleFinalResult",
      "outputs": [],
      "stateMutability": "nonpayable",
      "type": "function"
    },
    {
      "inputs": [
        {
          "internalType": "address",
          "name": "_policyTokenAddress",
          "type": "address"
        },
        {
          "internalType": "address",
          "name": "_stablecoin",
          "type": "address"
        },
        {
          "internalType": "uint256",
          "name": "_startIndex",
          "type": "uint256"
        },
        {
          "internalType": "uint256",
          "name": "_stopIndex",
          "type": "uint256"
        }
      ],
      "name": "settleAllPolicyTokens",
      "outputs": [],
      "stateMutability": "nonpayable",
      "type": "function"
    }
  ],
  "bytecode": "0x60806040523480156200001157600080fd5b5060405162002b9d38038062002b9d8339810160408190526200003491620000ab565b6001600160a01b039283166000908152600860205260408120805460ff1916600190811790915581549385166001600160a01b031994851617909155805491909316908216179091556003805490911633179055620000f5565b80516001600160a01b0381168114620000a657600080fd5b919050565b600080600060608486031215620000c157600080fd5b620000cc846200008e565b9250620000dc602085016200008e565b9150620000ec604085016200008e565b90509250925092565b612a9880620001056000396000f3fe608060405234801561001057600080fd5b50600436106101375760003560e01c80634e75ce89116100b8578063bd75660b1161007c578063bd75660b146102b4578063c45a0155146102ed578063ceed1b9014610300578063d9e85c8414610313578063dd76753414610333578063f15cac341461034657600080fd5b80634e75ce89146102515780636ff85ea9146102645780637336c38d1461027b5780638da5cb5b1461028e578063ba13a572146102a157600080fd5b80632a48ac9a116100ff5780632a48ac9a146101ba5780632a5c792a146101cd57806338081de2146101e257806341792a9b1461020257806346fbadda1461021557600080fd5b8063038440971461013c5780630418945a1461015157806308d89d5f146101645780631306c0a514610177578063247bce2a146101a7575b600080fd5b61014f61014a366004612285565b610359565b005b61014f61015f3660046122d2565b610781565b61014f6101723660046122ef565b610805565b61018a610185366004612349565b610ac5565b6040516001600160a01b0390911681526020015b60405180910390f35b61018a6101b5366004612383565b610afd565b61014f6101c83660046122ef565b610cfa565b6101d5610e4f565b60405161019e919061242d565b6101f56101f03660046122d2565b610f75565b60405161019e91906124d3565b61014f6102103660046124e6565b611021565b6102416102233660046122d2565b6001600160a01b031660009081526008602052604090205460ff1690565b604051901515815260200161019e565b61018a61025f366004612285565b61125d565b61026d60045481565b60405190815260200161019e565b61014f6102893660046122ef565b61128e565b60035461018a906001600160a01b031681565b60025461018a906001600160a01b031681565b61026d6102c236600461252c565b6001600160a01b039182166000908152600b6020908152604080832093909416825291909152205490565b60005461018a906001600160a01b031681565b60015461018a906001600160a01b031681565b610326610321366004612285565b61141d565b60405161019e9190612565565b61018a6103413660046122ef565b611494565b61014f610354366004612579565b6116d8565b80600060058260405161036c91906125e5565b9081526020016040518091039020600301549050804210156103a95760405162461bcd60e51b81526004016103a090612601565b60405180910390fd5b8260006005826040516103bc91906125e5565b9081526040805160209281900383019020546001600160a01b03166000818152600d909352912060010154909150610100900460ff161561044b5760405162461bcd60e51b8152602060048201526024808201527f5468697320706f6c6963792068617320616c7265616479206265656e207365746044820152631d1b195960e21b60648201526084016103a0565b600060058660405161045d91906125e5565b908152604080516020928190038301812060a08201835280546001600160a01b038116808452600160a01b90910460ff1615159483019490945260018101549282019290925260028201546060820152600390910154608082015291508061052d5760405162461bcd60e51b815260206004820152603e60248201527f5468697320706f6c69637920746f6b656e20646f6573206e6f7420657869737460448201527f2c206d6179626520796f7520696e70757420612077726f6e67206e616d65000060648201526084016103a0565b6001600160a01b0381166000908152600d60209081526040808320600a9092528220805491929161055d90612657565b80601f016020809104026020016040519081016040528092919081815260200182805461058990612657565b80156105d65780601f106105ab576101008083540402835291602001916105d6565b820191906000526020600020905b8154815290600101906020018083116105b957829003601f168201915b505060015460405163f66a1b7160e01b81529495506000946001600160a01b03909116935063f66a1b719250610611915085906004016124d3565b602060405180830381600087803b15801561062b57600080fd5b505af115801561063f573d6000803e3d6000fd5b505050506040513d601f19601f820116820180604052508101906106639190612692565b9050600081136106c15760405162461bcd60e51b8152602060048201526024808201527f536574746c65206661696c65642c2070726963652063616e206e6f742062652060448201526303c3d20360e41b60648201526084016103a0565b808355604085015160009082108015906106dc575085602001515b90506000866040015183111580156106f657508660200151155b905081806107015750805b61070c57600061070f565b60015b60018601805461010061ffff1990911692151561ff0019169290921791909117908190556040517fd18955e5ac1cd171b29755bb87b81ab713b7c4c19b8bded14d56c3bcb525b8349161076b918f91879160ff909116906126ab565b60405180910390a1505050505050505050505050565b6003546001600160a01b031633146107ab5760405162461bcd60e51b81526004016103a0906126d5565b6001600160a01b038116600081815260086020908152604091829020805460ff1916600117905590519182527f86b377b6d485043d4a8b2b0c26051f82529ea2d7c23b1188598416473c123093910160405180910390a150565b6040516370a0823160e01b81523060048201528290829081906001600160a01b038416906370a082319060240160206040518083038186803b15801561084a57600080fd5b505afa15801561085e573d6000803e3d6000fd5b505050506040513d601f19601f820116820180604052508101906108829190612692565b10156108a05760405162461bcd60e51b81526004016103a09061271a565b8460006005826040516108b391906125e5565b9081526020016040518091039020600301549050804210156108e75760405162461bcd60e51b81526004016103a090612601565b60006005886040516108f991906125e5565b9081526040805160209281900383019020546001600160a01b03166000818152600d909352912060019081015491925061010090910460ff161515146109815760405162461bcd60e51b815260206004820152601e60248201527f48617665206e6f7420676f7420746865206f7261636c6520726573756c74000060448201526064016103a0565b60006103e8610992886103de61277a565b61099c91906127af565b6001600160a01b0383166000908152600d6020526040902060019081015491925060ff90911615151415610aba576040516370a0823160e01b8152336004820152829088906001600160a01b038316906370a082319060240160206040518083038186803b158015610a0d57600080fd5b505afa158015610a21573d6000803e3d6000fd5b505050506040513d601f19601f82011682018060405250810190610a459190612692565b1015610aad5760405162461bcd60e51b815260206004820152603160248201527f596f7520646f206e6f7420686176652073756666696369656e7420706f6c69636044820152707920746f6b656e7320746f20636c61696d60781b60648201526084016103a0565b610ab8838a84611831565b505b505050505050505050565b600c6020528160005260406000208181548110610ae157600080fd5b6000918252602090912001546001600160a01b03169150829050565b6003546000906001600160a01b03163314610b2a5760405162461bcd60e51b81526004016103a0906126d5565b6000610b3888878988611932565b6000805460405163781e309960e11b815292935090916001600160a01b039091169063f03c613290610b6e9085906004016124d3565b602060405180830381600087803b158015610b8857600080fd5b505af1158015610b9c573d6000803e3d6000fd5b505050506040513d601f19601f82011682018060405250810190610bc091906127c3565b90506040518060a00160405280826001600160a01b03168152602001891515815260200188815260200186815260200185815250600583604051610c0491906125e5565b9081526040805191829003602090810190922083518154858501511515600160a01b026001600160a81b03199091166001600160a01b0392831617178255848301516001830155606085015160028301556080909401516003909101559183166000908152600a8252919091208a51610c7f928c019061210f565b506001600160a01b03811660009081526006602090815260409091208351610ca99285019061210f565b50600780546001810182556000919091528251610ced917fa66cc928b5edb82af9bd49922954155ab7b0942694bea4ce44661d9a8736c6880190602085019061210f565b5098975050505050505050565b826000600582604051610d0d91906125e5565b908152602001604051809103902060020154905080421115610d415760405162461bcd60e51b81526004016103a0906127e0565b6000600586604051610d5391906125e5565b9081526040805160209281900383019020546001600160a01b03908116600081815260099094529190922054909250868216911614610da45760405162461bcd60e51b81526004016103a09061282f565b6040516370a0823160e01b815233600482015284906001600160a01b038716906370a082319060240160206040518083038186803b158015610de557600080fd5b505afa158015610df9573d6000803e3d6000fd5b505050506040513d601f19601f82011682018060405250810190610e1d9190612692565b1015610e3b5760405162461bcd60e51b81526004016103a090612875565b610e47818686336119d2565b505050505050565b60075460609060008167ffffffffffffffff811115610e7057610e706121e2565b604051908082528060200260200182016040528015610ea957816020015b610e96612193565b815260200190600190039081610e8e5790505b50905060005b82811015610f6e57600560078281548110610ecc57610ecc6128bd565b90600052602060002001604051610ee391906128d3565b90815260408051918290036020908101832060a08401835280546001600160a01b038116855260ff600160a01b90910416151591840191909152600181015491830191909152600281015460608301526003015460808201528251839083908110610f5057610f506128bd565b60200260200101819052508080610f669061296f565b915050610eaf565b5092915050565b6001600160a01b0381166000908152600660205260409020805460609190610f9c90612657565b80601f0160208091040260200160405190810160405280929190818152602001828054610fc890612657565b80156110155780601f10610fea57610100808354040283529160200191611015565b820191906000526020600020905b815481529060010190602001808311610ff857829003601f168201915b50505050509050919050565b6003546001600160a01b0316331461104b5760405162461bcd60e51b81526004016103a0906126d5565b6001600160a01b0384166000908152600d60209081526040918290208251606081018452815480825260019092015460ff808216151594830194909452610100900490921615159282019290925290158015906110ae5750604081015115156001145b6110fa5760405162461bcd60e51b815260206004820152601e60248201527f48617665206e6f7420676f7420746865206f7261636c6520726573756c74000060448201526064016103a0565b60208101511561116b5760405162461bcd60e51b815260206004820152603660248201527f4f6e6c792063616c6c20746869732066756e6374696f6e207768656e207468656044820152751032bb32b73a103237b2b9903737ba103430b83832b760511b60648201526084016103a0565b82158015611177575081155b156111ac576001600160a01b0385166000908152600c6020526040812054906111a4908790879084611af6565b60045561122a565b82600454146112185760405162461bcd60e51b815260206004820152603260248201527f596f75206e65656420746f2073746172742066726f6d20746865206c61737420604482015271191a5cdd1c9a589d5d1a5bdb881c1bda5b9d60721b60648201526084016103a0565b61122485858585611af6565b60048290555b6001600160a01b0385166000908152600c60205260409020546004541415611256576112568585611bdf565b5050505050565b600060058260405161126f91906125e5565b908152604051908190036020019020546001600160a01b031692915050565b6040516370a0823160e01b81523060048201528290829081906001600160a01b038416906370a082319060240160206040518083038186803b1580156112d357600080fd5b505afa1580156112e7573d6000803e3d6000fd5b505050506040513d601f19601f8201168201806040525081019061130b9190612692565b10156113295760405162461bcd60e51b81526004016103a09061271a565b84600060058260405161133c91906125e5565b9081526020016040518091039020600201549050804211156113705760405162461bcd60e51b81526004016103a0906127e0565b600060058860405161138291906125e5565b908152604080516020928190038301902054336000908152600b84528281206001600160a01b03909216808252919093529120549091508611156114085760405162461bcd60e51b815260206004820152601b60248201527f5573657227732071756f7461206e6f742073756666696369656e74000000000060448201526064016103a0565b611413818888611831565b5050505050505050565b611425612193565b60058260405161143591906125e5565b90815260408051918290036020908101832060a08401835280546001600160a01b038116855260ff600160a01b909104161515918401919091526001810154918301919091526002810154606083015260030154608082015292915050565b6003546000906001600160a01b031633146114c15760405162461bcd60e51b81526004016103a0906126d5565b6001600160a01b038316600090815260086020526040902054839060ff1615156001146115415760405162461bcd60e51b815260206004820152602860248201527f446f206e6f7420737570706f7274207468697320737461626c65636f696e2063604482015267757272656e746c7960c01b60648201526084016103a0565b8460006001600160a01b031660058260405161155d91906125e5565b908152604051908190036020019020546001600160a01b031614156115ea5760405162461bcd60e51b815260206004820152603f60248201527f5468697320706f6c69637920746f6b656e20686173206e6f74206265656e206460448201527f65706c6f7965642c20706c65617365206465706c6f792069742066697273740060648201526084016103a0565b60006005876040516115fc91906125e5565b908152604051908190036020018120546000805463a3232bf360e01b84526001600160a01b03928316600485018190528a84166024860152604485018a90529450909291169063a3232bf390606401602060405180830381600087803b15801561166557600080fd5b505af1158015611679573d6000803e3d6000fd5b505050506040513d601f19601f8201168201806040525081019061169d91906127c3565b6001600160a01b03928316600090815260096020526040902080546001600160a01b0319169890931697909717909155509395945050505050565b8360006005826040516116eb91906125e5565b90815260200160405180910390206002015490508042111561171f5760405162461bcd60e51b81526004016103a0906127e0565b600060058760405161173191906125e5565b9081526040805160209281900383019020546001600160a01b039081166000818152600990945291909220549092508782169116146117825760405162461bcd60e51b81526004016103a09061282f565b6040516370a0823160e01b81526001600160a01b0385811660048301528691908816906370a082319060240160206040518083038186803b1580156117c657600080fd5b505afa1580156117da573d6000803e3d6000fd5b505050506040513d601f19601f820116820180604052508101906117fe9190612692565b101561181c5760405162461bcd60e51b81526004016103a090612875565b611828818787876119d2565b50505050505050565b826118466001600160a01b0384163384611d1c565b604051632770a7eb60e21b8152336004820152602481018390526001600160a01b03821690639dc29fac90604401600060405180830381600087803b15801561188e57600080fd5b505af11580156118a2573d6000803e3d6000fd5b5050336000908152600b602090815260408083206001600160a01b038a168452909152812080548694509092506118da90849061298a565b9091555050336000908152600b602090815260408083206001600160a01b038816845290915290205461192c57336000908152600b602090815260408083206001600160a01b03881684529091528120555b50505050565b606060008361195a57604051806040016040528060018152602001601360fa1b815250611975565b604051806040016040528060018152602001600960fb1b8152505b9050600061198b670de0b6b3a7640000876127af565b905060008761199983611d84565b846119a388611d84565b6040516020016119b694939291906129a1565b60408051808303601f1901815291905298975050505050505050565b836119e86001600160a01b038516833086611e8a565b6040516340c10f1960e01b81526001600160a01b038381166004830152602482018590528216906340c10f1990604401600060405180830381600087803b158015611a3257600080fd5b505af1158015611a46573d6000803e3d6000fd5b505050506001600160a01b038281166000908152600b6020908152604080832093891683529290522054611ab3576001600160a01b038581166000908152600c602090815260408220805460018101825590835291200180546001600160a01b0319169184169190911790555b6001600160a01b038083166000908152600b6020908152604080832093891683529290529081208054859290611aea908490612a19565b90915550505050505050565b815b81811015611256576001600160a01b0385166000908152600c60205260408120805483908110611b2a57611b2a6128bd565b60009182526020808320909101546001600160a01b03908116808452600b83526040808520928b16855291909252822054909250906103e8611b6e836103de61277a565b611b7891906127af565b90508015611bc157611b946001600160a01b0388168483611d1c565b6001600160a01b038084166000908152600b60209081526040808320938c16835292905290812055611bc9565b505050611bcd565b5050505b80611bd78161296f565b915050611af8565b600060048181556040516370a0823160e01b815230918101919091526001600160a01b038316906370a082319060240160206040518083038186803b158015611c2757600080fd5b505afa158015611c3b573d6000803e3d6000fd5b505050506040513d601f19601f82011682018060405250810190611c5f9190612692565b6002549091506001600160a01b0316611cba5760405162461bcd60e51b815260206004820152601e60248201527f506c656173652073657420746865206c6f74746572792061646472657373000060448201526064016103a0565b600254611cd4906001600160a01b03848116911683611d1c565b604080516001600160a01b038086168252841660208201527f9be8aebde8bc066adab8cd0ac86eaa76eddd5d8e421a8c4428f1b2811dee890d910160405180910390a1505050565b6040516001600160a01b038316602482015260448101829052611d7f90849063a9059cbb60e01b906064015b60408051601f198184030181529190526020810180516001600160e01b03166001600160e01b031990931692909217909152611ec2565b505050565b606081611da85750506040805180820190915260018152600360fc1b602082015290565b8160005b8115611dd25780611dbc8161296f565b9150611dcb9050600a836127af565b9150611dac565b60008167ffffffffffffffff811115611ded57611ded6121e2565b6040519080825280601f01601f191660200182016040528015611e17576020820181803683370190505b5090505b8415611e8257611e2c60018361298a565b9150611e39600a86612a31565b611e44906030612a19565b60f81b818381518110611e5957611e596128bd565b60200101906001600160f81b031916908160001a905350611e7b600a866127af565b9450611e1b565b949350505050565b6040516001600160a01b038085166024830152831660448201526064810182905261192c9085906323b872dd60e01b90608401611d48565b6000611f17826040518060400160405280602081526020017f5361666545524332303a206c6f772d6c6576656c2063616c6c206661696c6564815250856001600160a01b0316611f949092919063ffffffff16565b805190915015611d7f5780806020019051810190611f359190612a45565b611d7f5760405162461bcd60e51b815260206004820152602a60248201527f5361666545524332303a204552433230206f7065726174696f6e20646964206e6044820152691bdd081cdd58d8d9595960b21b60648201526084016103a0565b6060611fa38484600085611fad565b90505b9392505050565b6060303183111561200f5760405162461bcd60e51b815260206004820152602660248201527f416464726573733a20696e73756666696369656e742062616c616e636520666f6044820152651c8818d85b1b60d21b60648201526084016103a0565b843b61205d5760405162461bcd60e51b815260206004820152601d60248201527f416464726573733a2063616c6c20746f206e6f6e2d636f6e747261637400000060448201526064016103a0565b600080866001600160a01b0316858760405161207991906125e5565b60006040518083038185875af1925050503d80600081146120b6576040519150601f19603f3d011682016040523d82523d6000602084013e6120bb565b606091505b50915091506120cb8282866120d6565b979650505050505050565b606083156120e5575081611fa6565b8251156120f55782518084602001fd5b8160405162461bcd60e51b81526004016103a091906124d3565b82805461211b90612657565b90600052602060002090601f01602090048101928261213d5760008555612183565b82601f1061215657805160ff1916838001178555612183565b82800160010185558215612183579182015b82811115612183578251825591602001919060010190612168565b5061218f9291506121cd565b5090565b6040518060a0016040528060006001600160a01b031681526020016000151581526020016000815260200160008152602001600081525090565b5b8082111561218f57600081556001016121ce565b634e487b7160e01b600052604160045260246000fd5b600082601f83011261220957600080fd5b813567ffffffffffffffff80821115612224576122246121e2565b604051601f8301601f19908116603f0116810190828211818310171561224c5761224c6121e2565b8160405283815286602085880101111561226557600080fd5b836020870160208301376000602085830101528094505050505092915050565b60006020828403121561229757600080fd5b813567ffffffffffffffff8111156122ae57600080fd5b611e82848285016121f8565b6001600160a01b03811681146122cf57600080fd5b50565b6000602082840312156122e457600080fd5b8135611fa6816122ba565b60008060006060848603121561230457600080fd5b833567ffffffffffffffff81111561231b57600080fd5b612327868287016121f8565b9350506020840135612338816122ba565b929592945050506040919091013590565b6000806040838503121561235c57600080fd5b8235612367816122ba565b946020939093013593505050565b80151581146122cf57600080fd5b60008060008060008060c0878903121561239c57600080fd5b863567ffffffffffffffff8111156123b357600080fd5b6123bf89828a016121f8565b96505060208701356123d081612375565b95989597505050506040840135936060810135936080820135935060a0909101359150565b80516001600160a01b031682526020808201511515908301526040808201519083015260608082015190830152608090810151910152565b6020808252825182820181905260009190848201906040850190845b8181101561246f5761245c8385516123f5565b9284019260a09290920191600101612449565b50909695505050505050565b60005b8381101561249657818101518382015260200161247e565b8381111561192c5750506000910152565b600081518084526124bf81602086016020860161247b565b601f01601f19169290920160200192915050565b602081526000611fa660208301846124a7565b600080600080608085870312156124fc57600080fd5b8435612507816122ba565b93506020850135612517816122ba565b93969395505050506040820135916060013590565b6000806040838503121561253f57600080fd5b823561254a816122ba565b9150602083013561255a816122ba565b809150509250929050565b60a0810161257382846123f5565b92915050565b6000806000806080858703121561258f57600080fd5b843567ffffffffffffffff8111156125a657600080fd5b6125b2878288016121f8565b94505060208501356125c3816122ba565b92506040850135915060608501356125da816122ba565b939692955090935050565b600082516125f781846020870161247b565b9190910192915050565b60208082526036908201527f43616e206e6f7420736574746c652f636c61696d2c2068617665206e6f742072604082015275065616368656420736574746c6554696d657374616d760541b606082015260800190565b600181811c9082168061266b57607f821691505b6020821081141561268c57634e487b7160e01b600052602260045260246000fd5b50919050565b6000602082840312156126a457600080fd5b5051919050565b6060815260006126be60608301866124a7565b602083019490945250901515604090910152919050565b60208082526025908201527f4f6e6c7920746865206f776e65722063616e2063616c6c20746869732066756e60408201526431ba34b7b760d91b606082015260800190565b6020808252602a908201527f4e6f742073756666696369656e7420737461626c65636f696e7320696e207468604082015269194818dbdb9d1c9858dd60b21b606082015260800190565b634e487b7160e01b600052601160045260246000fd5b600081600019048311821515161561279457612794612764565b500290565b634e487b7160e01b600052601260045260246000fd5b6000826127be576127be612799565b500490565b6000602082840312156127d557600080fd5b8151611fa6816122ba565b6020808252602f908201527f43616e206e6f74206465706f7369742f72656465656d2c20686173207061737360408201526e65642074686520646561646c696e6560881b606082015260800190565b60208082526026908201527f506f6c696379546f6b656e20616e6420737461626c65636f696e206e6f74206d604082015265185d18da195960d21b606082015260800190565b60208082526028908201527f55736572277320737461626c65636f696e2062616c616e6365206e6f7420737560408201526719999a58da595b9d60c21b606082015260800190565b634e487b7160e01b600052603260045260246000fd5b600080835481600182811c9150808316806128ef57607f831692505b602080841082141561290f57634e487b7160e01b86526022600452602486fd5b818015612923576001811461293457612961565b60ff19861689528489019650612961565b60008a81526020902060005b868110156129595781548b820152908501908301612940565b505084890196505b509498975050505050505050565b600060001982141561298357612983612764565b5060010190565b60008282101561299c5761299c612764565b500390565b600085516129b3818460208a0161247b565b8083019050605f60f81b80825286516129d3816001850160208b0161247b565b6001920191820181905285516129f0816002850160208a0161247b565b60029201918201528351612a0b81600384016020880161247b565b016003019695505050505050565b60008219821115612a2c57612a2c612764565b500190565b600082612a4057612a40612799565b500690565b600060208284031215612a5757600080fd5b8151611fa68161237556fea2646970667358221220a8b8652d0a71dc63c69bdefdca4f9a9eac30e80848a90c6e209a177838e17f2c64736f6c63430008090033",
  "immutableReferences": {},
  "source": "// SPDX-License-Identifier: MIT\npragma solidity 0.8.9;\n\nimport \"@openzeppelin/contracts/token/ERC20/IERC20.sol\";\nimport \"@openzeppelin/contracts/token/ERC20/utils/SafeERC20.sol\";\nimport \"@openzeppelin/contracts/utils/Strings.sol\";\nimport \"./libraries/NaughtyLibrary.sol\";\nimport \"./interfaces/IPolicyToken.sol\";\nimport \"./interfaces/INaughtyFactory.sol\";\nimport \"./interfaces/IPriceGetter.sol\";\nimport \"./interfaces/IPolicyCore.sol\";\n\n/**\n * @title  PolicyCore\n * @notice Core logic of Naughty Price Product\n *         Preset:\n *              (Done in the naughtyFactory contract)\n *              1. Deploy policyToken contract\n *              2. Deploy policyToken-Stablecoin pool contract\n *         User Interaction:\n *              1. Deposit Stablecoin and mint PolicyTokens\n *              2. Redeem their Stablecoin and burn the PolicyTokens (before settlement)\n *              3. Claim for payout with PolicyTokens (after settlement)\n *         PolicyTokens are minted with the ratio 1:1 to Stablecoin\n *         The PolicyTokens are traded in the pool with CFMM (xy=k)\n *         When the event happens, a PolicyToken can be burned for claiming 1 Stablecoin.\n *         When the event does not happen, the PolicyToken depositors can\n *         redeem their 1 deposited Stablecoin\n * @dev    Most of the functions to be called from outside will use the name of policyToken\n *         rather than the address(easy to read).\n *         Other variables or functions still use address to index.\n *         The rule of policyToken naming is Original Token Name + Strike Price + Lower or Higher + Date\n *         E.g.  AVAX30L202101, BTC30000L202102, ETH8000H202109\n */\ncontract PolicyCore is IPolicyCore {\n    using SafeERC20 for IERC20;\n    using Strings for uint256;\n\n    // Factory contract, responsible for deploying new contracts\n    INaughtyFactory public factory;\n\n    // Oracle contract, responsible for getting the final price\n    IPriceGetter public priceGetter;\n\n    // Lottery address\n    address public lottery;\n\n    // Owner address\n    address public owner;\n\n    // Current distribution index\n    uint256 public currentDistributionIndex;\n\n    // Policy toke name => Policy token information\n    mapping(string => PolicyTokenInfo) policyTokenInfoMapping;\n\n    mapping(address => string) policyTokenAddressToName;\n\n    // Policy token name list\n    string[] allPolicyTokens;\n\n    // Stablecoin address => Supported or not\n    mapping(address => bool) stablecoin;\n\n    // Policy token address => Stablecoin address\n    mapping(address => address) whichStablecoin;\n\n    // PolicyToken => Strike Token (e.g. AVAX30L202101 address => AVAX address)\n    mapping(address => string) policyTokenToOriginal;\n\n    // User Address => Token Address => User Quota Amount\n    mapping(address => mapping(address => uint256)) userQuota;\n\n    // Policy token address => All the depositors for this round (store all the depositors in an array)\n    mapping(address => address[]) public allDepositors;\n\n    struct SettlementInfo {\n        int256 price;\n        bool isHappened;\n        bool alreadySettled;\n    }\n    // Policy token address => Settlement result information\n    mapping(address => SettlementInfo) settleResult;\n\n    /**\n     * @notice Constructor, for some addresses\n     * @param _usdt USDT is the first stablecoin supported in the pool\n     * @param _factory Address of naughty factory\n     * @param _priceGetter Address of the oracle contract\n     */\n    constructor(\n        address _usdt,\n        address _factory,\n        address _priceGetter\n    ) {\n        stablecoin[_usdt] = true;\n\n        factory = INaughtyFactory(_factory);\n        priceGetter = IPriceGetter(_priceGetter);\n\n        owner = msg.sender;\n    }\n\n    // ---------------------------------------------------------------------------------------- //\n    // ************************************** Modifiers *************************************** //\n    // ---------------------------------------------------------------------------------------- //\n\n    /**\n     * @notice Only the owner can call some functions\n     */\n    modifier onlyOwner() {\n        require(msg.sender == owner, \"Only the owner can call this function\");\n        _;\n    }\n\n    /**\n     * @notice Check if this stablecoin is supported\n     * @param _stablecoin Stablecoin address\n     */\n    modifier supportedStablecoin(address _stablecoin) {\n        require(\n            stablecoin[_stablecoin] == true,\n            \"Do not support this stablecoin currently\"\n        );\n        _;\n    }\n\n    /**\n     * @notice Check if the policy token has been deployed, used when deploying pools\n     * @param _policyTokenName Name of the policy token inside the pair\n     */\n    modifier deployedPolicy(string memory _policyTokenName) {\n        require(\n            policyTokenInfoMapping[_policyTokenName].policyTokenAddress !=\n                address(0),\n            \"This policy token has not been deployed, please deploy it first\"\n        );\n        _;\n    }\n\n    /**\n     * @notice Check if there are enough stablecoins in this contract\n     * @param _stablecoin Address of the stablecoin\n     * @param _amount Amount to be checked\n     */\n    modifier enoughUSD(address _stablecoin, uint256 _amount) {\n        require(\n            IERC20(_stablecoin).balanceOf(address(this)) >= _amount,\n            \"Not sufficient stablecoins in the contract\"\n        );\n        _;\n    }\n\n    /**\n     * @notice Deposit/Redeem/Swap only before deadline\n     * @dev Each pool will also have this deadline\n     *      That needs to be set inside naughtyFactory\n     * @param _policyTokenName Name of the policy token\n     */\n    modifier beforeDeadline(string memory _policyTokenName) {\n        uint256 deadline = policyTokenInfoMapping[_policyTokenName].deadline;\n        require(\n            block.timestamp <= deadline,\n            \"Can not deposit/redeem, has passed the deadline\"\n        );\n        _;\n    }\n\n    /**\n     * @notice Can only settle the result after the \"_settleTimestamp\"\n     * @param _policyTokenName Name of the policy token\n     */\n    modifier afterSettlement(string memory _policyTokenName) {\n        uint256 settleTimestamp = policyTokenInfoMapping[_policyTokenName]\n            .settleTimestamp;\n        require(\n            block.timestamp >= settleTimestamp,\n            \"Can not settle/claim, have not reached settleTimestamp\"\n        );\n        _;\n    }\n\n    /**\n     * @notice Avoid multiple settlements\n     * @param _policyTokenName Name of the policy token\n     */\n    modifier notAlreadySettled(string memory _policyTokenName) {\n        address policyTokenAddress = policyTokenInfoMapping[_policyTokenName]\n            .policyTokenAddress;\n        require(\n            settleResult[policyTokenAddress].alreadySettled == false,\n            \"This policy has already been settled\"\n        );\n        _;\n    }\n\n    // ---------------------------------------------------------------------------------------- //\n    // ************************************ View Functions ************************************ //\n    // ---------------------------------------------------------------------------------------- //\n\n    /**\n     * @notice Find the token address by its name\n     * @param _policyTokenName Name of the policy token (e.g. \"AVAX30L202103\")\n     * @return policyTokenAddress Address of the policy token\n     */\n    function findAddressbyName(string memory _policyTokenName)\n        external\n        view\n        returns (address)\n    {\n        return policyTokenInfoMapping[_policyTokenName].policyTokenAddress;\n    }\n\n    /**\n     * @notice Find the token name by its address\n     * @param _policyTokenAddress Address of the policy token\n     * @return policyTokenName Name of the policy token\n     */\n    function findNamebyAddress(address _policyTokenAddress)\n        external\n        view\n        returns (string memory)\n    {\n        return policyTokenAddressToName[_policyTokenAddress];\n    }\n\n    /**\n     * @notice Find the token information by its name\n     * @param _policyTokenName Name of the policy token (e.g. \"AVAX30L202103\")\n     * @return policyTokenInfo PolicyToken detail information\n     */\n    function getPolicyTokenInfo(string memory _policyTokenName)\n        external\n        view\n        returns (PolicyTokenInfo memory)\n    {\n        return policyTokenInfoMapping[_policyTokenName];\n    }\n\n    /**\n     * @notice Check if this is a stablecoin address supported, used in naughtyFactory\n     * @param _coinAddress Address of the stablecoin\n     * @return Whether it is a supported stablecoin\n     */\n    function isStablecoinAddress(address _coinAddress)\n        external\n        view\n        returns (bool)\n    {\n        return stablecoin[_coinAddress];\n    }\n\n    /**\n     * @notice Check a user's quota for a certain policy token\n     * @param _userAddress Address of the user to be checked\n     * @param _policyTokenAddress Address of the policy token\n     * @return _quota User's quota result\n     */\n    function checkUserQuota(address _userAddress, address _policyTokenAddress)\n        external\n        view\n        returns (uint256 _quota)\n    {\n        _quota = userQuota[_userAddress][_policyTokenAddress];\n    }\n\n    /**\n     * @notice Get the information about all the tokens\n     * @return tokensInfo Token information list\n     */\n    function getAllTokens() external view returns (PolicyTokenInfo[] memory) {\n        uint256 length = allPolicyTokens.length;\n        PolicyTokenInfo[] memory tokensInfo = new PolicyTokenInfo[](length);\n\n        for (uint256 i = 0; i < length; i++) {\n            tokensInfo[i] = policyTokenInfoMapping[allPolicyTokens[i]];\n        }\n\n        return tokensInfo;\n    }\n\n    // ---------------------------------------------------------------------------------------- //\n    // ************************************ Set Functions ************************************* //\n    // ---------------------------------------------------------------------------------------- //\n\n    /**\n     * @notice Add a newly supported stablecoin\n     * @param _newStablecoin Address of the new stablecoin\n     */\n    function addStablecoin(address _newStablecoin) external onlyOwner {\n        stablecoin[_newStablecoin] = true;\n        emit NewStablecoinAdded(_newStablecoin);\n    }\n\n    // ---------------------------------------------------------------------------------------- //\n    // ************************************ Main Functions ************************************ //\n    // ---------------------------------------------------------------------------------------- //\n\n    /**\n     * @notice Deploy a new policy token and return the token address\n     * @dev Only the owner can deploy new policy token\n     *      The name form is like \"AVAX_50_L_202101\" and is built inside the contract.\n     * @param _tokenName Name of the original token (e.g. AVAX, BTC, ETH...)\n     * @param _isCall The policy is for higher or lower than the strike price (call / put)\n     * @param _strikePrice Strike price of the policy\n     * @param _deadline Deadline of this policy token (deposit / redeem / swap)\n     * @param _settleTimestamp Can settle after this timestamp (for oracle)\n     * @return policyTokenAddress The address of the policy token just deployed\n     */\n    function deployPolicyToken(\n        string memory _tokenName,\n        bool _isCall,\n        uint256 _strikePrice,\n        uint256 _round,\n        uint256 _deadline,\n        uint256 _settleTimestamp\n    ) public onlyOwner returns (address) {\n        string memory policyTokenName = _generateName(\n            _tokenName,\n            _strikePrice,\n            _isCall,\n            _round\n        );\n        // Deploy a new policy token by the factory contract\n        address policyTokenAddress = factory.deployPolicyToken(policyTokenName);\n\n        // Store the policyToken information in the mapping\n        policyTokenInfoMapping[policyTokenName] = PolicyTokenInfo(\n            policyTokenAddress,\n            _isCall,\n            _strikePrice,\n            _deadline,\n            _settleTimestamp\n        );\n\n        // Keep the record from policy token to original token\n        policyTokenToOriginal[policyTokenAddress] = _tokenName;\n\n        // Record the address to name mapping\n        policyTokenAddressToName[policyTokenAddress] = policyTokenName;\n\n        // Push the policytokenName into the list\n        allPolicyTokens.push(policyTokenName);\n\n        // You can not get the return value from outside, but keep it here.\n        return policyTokenAddress;\n    }\n\n    /**\n     * @notice Deploy a new pair (pool)\n     * @param _policyTokenName Name of the policy token\n     * @param _stablecoin Address of the stable coin\n     * @param _poolDeadline Swapping deadline of the pool\n     * @return poolAddress The address of the pool just deployed\n     */\n    function deployPool(\n        string memory _policyTokenName,\n        address _stablecoin,\n        uint256 _poolDeadline\n    )\n        public\n        onlyOwner\n        supportedStablecoin(_stablecoin)\n        deployedPolicy(_policyTokenName)\n        returns (address)\n    {\n        address policyTokenAddress = policyTokenInfoMapping[_policyTokenName]\n            .policyTokenAddress;\n\n        // Deploy a new pool (policyToken <=> stablecoin)\n        address poolAddress = factory.deployPool(\n            policyTokenAddress,\n            _stablecoin,\n            _poolDeadline\n        );\n\n        // Record the mapping\n        whichStablecoin[policyTokenAddress] = _stablecoin;\n        return poolAddress;\n    }\n\n    /**\n     * @notice Deposit stablecoins and get policy tokens\n     * @param _policyTokenName Name of the policy token\n     * @param _stablecoin Address of the sable coin\n     * @param _amount Amount of stablecoin (also the amount of policy tokens)\n     */\n    function deposit(\n        string memory _policyTokenName,\n        address _stablecoin,\n        uint256 _amount\n    ) public beforeDeadline(_policyTokenName) {\n        address policyTokenAddress = policyTokenInfoMapping[_policyTokenName]\n            .policyTokenAddress;\n\n        // Check if the user gives the right stablecoin\n        require(\n            whichStablecoin[policyTokenAddress] == _stablecoin,\n            \"PolicyToken and stablecoin not matched\"\n        );\n\n        // Check if the user has enough balance\n        require(\n            IERC20(_stablecoin).balanceOf(msg.sender) >= _amount,\n            \"User's stablecoin balance not sufficient\"\n        );\n\n        _mintPolicyToken(policyTokenAddress, _stablecoin, _amount, msg.sender);\n    }\n\n    /**\n     * @notice Delegate deposit (deposit and mint for other addresses)\n     * @param _policyTokenName Name of the policy token\n     * @param _stablecoin Address of the sable coin\n     * @param _amount Amount of stablecoin (also the amount of policy tokens)\n     * @param _userAddress Address to receive the policy tokens\n     */\n    function delegateDeposit(\n        string memory _policyTokenName,\n        address _stablecoin,\n        uint256 _amount,\n        address _userAddress\n    ) external beforeDeadline(_policyTokenName) {\n        address policyTokenAddress = policyTokenInfoMapping[_policyTokenName]\n            .policyTokenAddress;\n\n        // Check if the user gives the right stablecoin\n        require(\n            whichStablecoin[policyTokenAddress] == _stablecoin,\n            \"PolicyToken and stablecoin not matched\"\n        );\n\n        // Check if the user has enough balance\n        require(\n            IERC20(_stablecoin).balanceOf(_userAddress) >= _amount,\n            \"User's stablecoin balance not sufficient\"\n        );\n\n        _mintPolicyToken(\n            policyTokenAddress,\n            _stablecoin,\n            _amount,\n            _userAddress\n        );\n    }\n\n    /**\n     * @notice Burn policy tokens and redeem USDT\n     * @dev Redeem happens before the deadline and is different from claim/settle\n     * @param _policyTokenName Name of the policy token\n     * @param _stablecoin Address of the stablecoin\n     * @param _amount Amount of USDT (also the amount of policy tokens)\n     */\n    function redeem(\n        string memory _policyTokenName,\n        address _stablecoin,\n        uint256 _amount\n    ) public enoughUSD(_stablecoin, _amount) beforeDeadline(_policyTokenName) {\n        address policyTokenAddress = policyTokenInfoMapping[_policyTokenName]\n            .policyTokenAddress;\n\n        // Check if the user has enough quota (quota is only for those who mint policy tokens)\n        require(\n            userQuota[msg.sender][policyTokenAddress] >= _amount,\n            \"User's quota not sufficient\"\n        );\n\n        _redeemPolicyToken(policyTokenAddress, _stablecoin, _amount);\n    }\n\n    /**\n     * @notice Claim a payoff based on policy tokens\n     * @dev It is done after result settlement and only if the result is true\n     * @param _policyTokenName Name of the policy token\n     * @param _stablecoin Address of the stable coin\n     * @param _amount Amount of USDT (also the amount of policy tokens)\n     */\n    function claim(\n        string memory _policyTokenName,\n        address _stablecoin,\n        uint256 _amount\n    ) public enoughUSD(_stablecoin, _amount) afterSettlement(_policyTokenName) {\n        address policyTokenAddress = policyTokenInfoMapping[_policyTokenName]\n            .policyTokenAddress;\n\n        // Check if we have already settle the final price\n        require(\n            settleResult[policyTokenAddress].alreadySettled == true,\n            \"Have not got the oracle result\"\n        );\n\n        uint256 amountWithFee = (_amount * 990) / 1000;\n\n        // If the event happens, let users claim the payoff\n        if (settleResult[policyTokenAddress].isHappened == true) {\n            IPolicyToken policyToken = IPolicyToken(policyTokenAddress);\n            require(\n                policyToken.balanceOf(msg.sender) >= _amount,\n                \"You do not have sufficient policy tokens to claim\"\n            );\n\n            _claimPolicyToken(policyTokenAddress, _stablecoin, amountWithFee);\n        }\n    }\n\n    /**\n     * @notice Get the final price from the PriceGetter contract\n     * @param _policyTokenName Name of the policy token\n     */\n    function settleFinalResult(string memory _policyTokenName)\n        public\n        afterSettlement(_policyTokenName)\n        notAlreadySettled(_policyTokenName)\n    {\n        PolicyTokenInfo memory policyTokenInfo = policyTokenInfoMapping[\n            _policyTokenName\n        ];\n\n        address policyTokenAddress = policyTokenInfo.policyTokenAddress;\n        require(\n            policyTokenAddress != address(0),\n            \"This policy token does not exist, maybe you input a wrong name\"\n        );\n\n        SettlementInfo storage result = settleResult[policyTokenAddress];\n\n        // Get the final price from oracle\n        string memory originalTokenName = policyTokenToOriginal[\n            policyTokenAddress\n        ];\n        int256 price = IPriceGetter(priceGetter).getLatestPrice(\n            originalTokenName\n        );\n        require(price > 0, \"Settle failed, price can not be <= 0\");\n        result.price = price;\n\n        // Get the final result\n        bool situationT1 = (uint256(price) >= policyTokenInfo.strikePrice) &&\n            policyTokenInfo.isCall;\n        bool situationT2 = (uint256(price) <= policyTokenInfo.strikePrice) &&\n            !policyTokenInfo.isCall;\n\n        result.isHappened = (situationT1 || situationT2) ? true : false;\n\n        result.alreadySettled = true;\n\n        emit FinalResultSettled(_policyTokenName, price, result.isHappened);\n    }\n\n    /**\n     * @notice Settle the policies when then insurance event do not happen\n     *         Funds are automatically distributed back to the depositors\n     * @dev    Take care of the gas cost and can use the _startIndex and _stopIndex to control the size\n     * @param _policyTokenAddress Address of policy token\n     * @param _stablecoin Address of stablecoin\n     * @param _startIndex Settlement start index\n     * @param _stopIndex Settlement stop index\n     */\n    function settleAllPolicyTokens(\n        address _policyTokenAddress,\n        address _stablecoin,\n        uint256 _startIndex,\n        uint256 _stopIndex\n    ) public onlyOwner {\n        // Copy to memory (will not change the result)\n        SettlementInfo memory result = settleResult[_policyTokenAddress];\n\n        // Must have got the final price\n        require(\n            result.price != 0 && result.alreadySettled == true,\n            \"Have not got the oracle result\"\n        );\n\n        // The event must be \"not happend\"\n        require(\n            result.isHappened == false,\n            \"Only call this function when the event does not happen\"\n        );\n\n        // Settle the policies in [_startIndex, _stopIndex)\n        if (_startIndex == 0 && _stopIndex == 0) {\n            uint256 length = allDepositors[_policyTokenAddress].length;\n            _settlePolicy(_policyTokenAddress, _stablecoin, 0, length);\n            currentDistributionIndex = length;\n        } else {\n            require(\n                currentDistributionIndex == _startIndex,\n                \"You need to start from the last distribution point\"\n            );\n            _settlePolicy(\n                _policyTokenAddress,\n                _stablecoin,\n                _startIndex,\n                _stopIndex\n            );\n            currentDistributionIndex = _stopIndex;\n        }\n\n        if (\n            currentDistributionIndex ==\n            allDepositors[_policyTokenAddress].length\n        ) {\n            _finishSettlement(_policyTokenAddress, _stablecoin);\n        }\n    }\n\n    // ---------------------------------------------------------------------------------------- //\n    // *********************************** Internal Functions ********************************* //\n    // ---------------------------------------------------------------------------------------- //\n\n    /**\n     * @notice Finish settlement process\n     * @param _policyTokenAddress Address of the policy token\n     * @param _stablecoin Address of stable coin\n     */\n    function _finishSettlement(address _policyTokenAddress, address _stablecoin)\n        internal\n    {\n        currentDistributionIndex = 0;\n\n        uint256 feeToLottery = IERC20(_stablecoin).balanceOf(address(this));\n\n        require(\n            address(lottery) != address(0),\n            \"Please set the lottery address\"\n        );\n\n        IERC20(_stablecoin).safeTransfer(lottery, feeToLottery);\n\n        emit FinishSettlementPolicies(_policyTokenAddress, _stablecoin);\n    }\n\n    /**\n     * @notice Mint Policy Token 1:1 USD\n     *         The policy token need to be deployed first!\n     * @param _policyTokenAddress Address of the policy token\n     * @param _stablecoin Address of the stablecoin\n     * @param _amount Amount to mint\n     */\n    function _mintPolicyToken(\n        address _policyTokenAddress,\n        address _stablecoin,\n        uint256 _amount,\n        address _userAddress\n    ) internal {\n        IPolicyToken policyToken = IPolicyToken(_policyTokenAddress);\n\n        // Transfer stablecoins to this contract\n        IERC20(_stablecoin).safeTransferFrom(\n            _userAddress,\n            address(this),\n            _amount\n        );\n\n        // Mint new policy tokens\n        policyToken.mint(_userAddress, _amount);\n\n        // If this is the first deposit, store the user address\n        if (userQuota[_userAddress][_policyTokenAddress] == 0) {\n            allDepositors[_policyTokenAddress].push(_userAddress);\n        }\n\n        // Update the user quota\n        userQuota[_userAddress][_policyTokenAddress] += _amount;\n    }\n\n    /**\n     * @notice Redeem policy tokens back, only for depositors\n     * @param _policyTokenAddress Address of the policy token\n     * @param _stablecoin Address of the stablecoin\n     * @param _amount Amount to redeem\n     */\n    function _redeemPolicyToken(\n        address _policyTokenAddress,\n        address _stablecoin,\n        uint256 _amount\n    ) internal {\n        IPolicyToken policyToken = IPolicyToken(_policyTokenAddress);\n\n        // Give back the stablecoins\n        IERC20(_stablecoin).safeTransfer(msg.sender, _amount);\n\n        // Burn the policy tokens\n        policyToken.burn(msg.sender, _amount);\n\n        userQuota[msg.sender][_policyTokenAddress] -= _amount;\n\n        if (userQuota[msg.sender][_policyTokenAddress] == 0)\n            delete userQuota[msg.sender][_policyTokenAddress];\n    }\n\n    /**\n     * @notice Claim policies when the insurance event happens\n     * @param _policyTokenAddress Address of policy token\n     * @param _stablecoin Address of stable coin\n     * @param _amount Amount to claim\n     */\n    function _claimPolicyToken(\n        address _policyTokenAddress,\n        address _stablecoin,\n        uint256 _amount\n    ) internal {\n        IPolicyToken policyToken = IPolicyToken(_policyTokenAddress);\n\n        IERC20(_stablecoin).safeTransfer(msg.sender, _amount);\n\n        policyToken.burn(msg.sender, _amount);\n\n        userQuota[msg.sender][_policyTokenAddress] -= _amount;\n\n        if (userQuota[msg.sender][_policyTokenAddress] == 0)\n            delete userQuota[msg.sender][_policyTokenAddress];\n    }\n\n    /**\n     * @notice Settle the policy\n     * @param _policyTokenAddress Address of policy token\n     * @param _stablecoin Address of stable coin\n     * @param _start Start index\n     * @param _stop Stop index\n     */\n    function _settlePolicy(\n        address _policyTokenAddress,\n        address _stablecoin,\n        uint256 _start,\n        uint256 _stop\n    ) internal {\n        for (uint256 i = _start; i < _stop; i++) {\n            address user = allDepositors[_policyTokenAddress][i];\n            uint256 amount = userQuota[user][_policyTokenAddress];\n            uint256 amountWithFee = (amount * 990) / 1000;\n\n            if (amountWithFee > 0) {\n                IERC20(_stablecoin).safeTransfer(user, amountWithFee);\n\n                // userQuota[user][_policyTokenAddress] -= amount;\n                // if (userQuota[user][_policyTokenAddress] == 0)\n                delete userQuota[user][_policyTokenAddress];\n            } else continue;\n        }\n    }\n\n    /**\n     * @notice Generate the policy token name\n     * @param _tokenName Name of the token\n     * @param _strikePrice Strike price of the policy\n     * @param _isCall The policy is higher or lower\n     * @param _round Round of the policy (e.g. 202101)\n     */\n    function _generateName(\n        string memory _tokenName,\n        uint256 _strikePrice,\n        bool _isCall,\n        uint256 _round\n    ) internal pure returns (string memory) {\n        string memory call = _isCall ? \"H\" : \"L\";\n        uint256 _price = _strikePrice / 1e18;\n        string memory name = string(\n            abi.encodePacked(\n                _tokenName,\n                \"_\",\n                _price.toString(),\n                \"_\",\n                call,\n                \"_\",\n                _round.toString()\n            )\n        );\n        return name;\n    }\n}\n",
  "sourcePath": "/Volumes/Store/src/naughty-price/contracts/PolicyCore.sol",
  "compiler": {
    "name": "solc",
    "version": "0.8.9+commit.e5eed63a.Emscripten.clang"
  },
  "schemaVersion": "3.4.3",
  "updatedAt": "2021-11-26T07:46:38.637Z",
  "networkType": "ethereum",
  "devdoc": {
    "details": "Most of the functions to be called from outside will use the name of policyToken         rather than the address(easy to read).         Other variables or functions still use address to index.         The rule of policyToken naming is Original Token Name + Strike Price + Lower or Higher + Date         E.g.  AVAX30L202101, BTC30000L202102, ETH8000H202109",
    "kind": "dev",
    "methods": {
      "addStablecoin(address)": {
        "params": {
          "_newStablecoin": "Address of the new stablecoin"
        }
      },
      "checkUserQuota(address,address)": {
        "params": {
          "_policyTokenAddress": "Address of the policy token",
          "_userAddress": "Address of the user to be checked"
        },
        "returns": {
          "_quota": "User's quota result"
        }
      },
      "claim(string,address,uint256)": {
        "details": "It is done after result settlement and only if the result is true",
        "params": {
          "_amount": "Amount of USDT (also the amount of policy tokens)",
          "_policyTokenName": "Name of the policy token",
          "_stablecoin": "Address of the stable coin"
        }
      },
      "constructor": {
        "params": {
          "_factory": "Address of naughty factory",
          "_priceGetter": "Address of the oracle contract",
          "_usdt": "USDT is the first stablecoin supported in the pool"
        }
      },
      "delegateDeposit(string,address,uint256,address)": {
        "params": {
          "_amount": "Amount of stablecoin (also the amount of policy tokens)",
          "_policyTokenName": "Name of the policy token",
          "_stablecoin": "Address of the sable coin",
          "_userAddress": "Address to receive the policy tokens"
        }
      },
      "deployPolicyToken(string,bool,uint256,uint256,uint256,uint256)": {
        "details": "Only the owner can deploy new policy token      The name form is like \"AVAX_50_L_202101\" and is built inside the contract.",
        "params": {
          "_deadline": "Deadline of this policy token (deposit / redeem / swap)",
          "_isCall": "The policy is for higher or lower than the strike price (call / put)",
          "_settleTimestamp": "Can settle after this timestamp (for oracle)",
          "_strikePrice": "Strike price of the policy",
          "_tokenName": "Name of the original token (e.g. AVAX, BTC, ETH...)"
        },
        "returns": {
          "_0": "policyTokenAddress The address of the policy token just deployed"
        }
      },
      "deployPool(string,address,uint256)": {
        "params": {
          "_policyTokenName": "Name of the policy token",
          "_poolDeadline": "Swapping deadline of the pool",
          "_stablecoin": "Address of the stable coin"
        },
        "returns": {
          "_0": "poolAddress The address of the pool just deployed"
        }
      },
      "deposit(string,address,uint256)": {
        "params": {
          "_amount": "Amount of stablecoin (also the amount of policy tokens)",
          "_policyTokenName": "Name of the policy token",
          "_stablecoin": "Address of the sable coin"
        }
      },
      "findAddressbyName(string)": {
        "params": {
          "_policyTokenName": "Name of the policy token (e.g. \"AVAX30L202103\")"
        },
        "returns": {
          "_0": "policyTokenAddress Address of the policy token"
        }
      },
      "findNamebyAddress(address)": {
        "params": {
          "_policyTokenAddress": "Address of the policy token"
        },
        "returns": {
          "_0": "policyTokenName Name of the policy token"
        }
      },
      "getAllTokens()": {
        "returns": {
          "_0": "tokensInfo Token information list"
        }
      },
      "getPolicyTokenInfo(string)": {
        "params": {
          "_policyTokenName": "Name of the policy token (e.g. \"AVAX30L202103\")"
        },
        "returns": {
          "_0": "policyTokenInfo PolicyToken detail information"
        }
      },
      "isStablecoinAddress(address)": {
        "params": {
          "_coinAddress": "Address of the stablecoin"
        },
        "returns": {
          "_0": "Whether it is a supported stablecoin"
        }
      },
      "redeem(string,address,uint256)": {
        "details": "Redeem happens before the deadline and is different from claim/settle",
        "params": {
          "_amount": "Amount of USDT (also the amount of policy tokens)",
          "_policyTokenName": "Name of the policy token",
          "_stablecoin": "Address of the stablecoin"
        }
      },
      "settleAllPolicyTokens(address,address,uint256,uint256)": {
        "details": "Take care of the gas cost and can use the _startIndex and _stopIndex to control the size",
        "params": {
          "_policyTokenAddress": "Address of policy token",
          "_stablecoin": "Address of stablecoin",
          "_startIndex": "Settlement start index",
          "_stopIndex": "Settlement stop index"
        }
      },
      "settleFinalResult(string)": {
        "params": {
          "_policyTokenName": "Name of the policy token"
        }
      }
    },
    "title": "PolicyCore",
    "version": 1
  },
  "userdoc": {
    "kind": "user",
    "methods": {
      "addStablecoin(address)": {
        "notice": "Add a newly supported stablecoin"
      },
      "checkUserQuota(address,address)": {
        "notice": "Check a user's quota for a certain policy token"
      },
      "claim(string,address,uint256)": {
        "notice": "Claim a payoff based on policy tokens"
      },
      "constructor": {
        "notice": "Constructor, for some addresses"
      },
      "delegateDeposit(string,address,uint256,address)": {
        "notice": "Delegate deposit (deposit and mint for other addresses)"
      },
      "deployPolicyToken(string,bool,uint256,uint256,uint256,uint256)": {
        "notice": "Deploy a new policy token and return the token address"
      },
      "deployPool(string,address,uint256)": {
        "notice": "Deploy a new pair (pool)"
      },
      "deposit(string,address,uint256)": {
        "notice": "Deposit stablecoins and get policy tokens"
      },
      "findAddressbyName(string)": {
        "notice": "Find the token address by its name"
      },
      "findNamebyAddress(address)": {
        "notice": "Find the token name by its address"
      },
      "getAllTokens()": {
        "notice": "Get the information about all the tokens"
      },
      "getPolicyTokenInfo(string)": {
        "notice": "Find the token information by its name"
      },
      "isStablecoinAddress(address)": {
        "notice": "Check if this is a stablecoin address supported, used in naughtyFactory"
      },
      "redeem(string,address,uint256)": {
        "notice": "Burn policy tokens and redeem USDT"
      },
      "settleAllPolicyTokens(address,address,uint256,uint256)": {
        "notice": "Settle the policies when then insurance event do not happen         Funds are automatically distributed back to the depositors"
      },
      "settleFinalResult(string)": {
        "notice": "Get the final price from the PriceGetter contract"
      }
    },
    "notice": "Core logic of Naughty Price Product         Preset:              (Done in the naughtyFactory contract)              1. Deploy policyToken contract              2. Deploy policyToken-Stablecoin pool contract         User Interaction:              1. Deposit Stablecoin and mint PolicyTokens              2. Redeem their Stablecoin and burn the PolicyTokens (before settlement)              3. Claim for payout with PolicyTokens (after settlement)         PolicyTokens are minted with the ratio 1:1 to Stablecoin         The PolicyTokens are traded in the pool with CFMM (xy=k)         When the event happens, a PolicyToken can be burned for claiming 1 Stablecoin.         When the event does not happen, the PolicyToken depositors can         redeem their 1 deposited Stablecoin",
    "version": 1
  }
}