{
  "contractName": "PriceGetter",
  "abi": [
    {
      "inputs": [],
      "stateMutability": "nonpayable",
      "type": "constructor"
    },
    {
      "anonymous": false,
      "inputs": [
        {
          "indexed": false,
          "internalType": "uint80",
          "name": "roundID",
          "type": "uint80"
        },
        {
          "indexed": false,
          "internalType": "int256",
          "name": "price",
          "type": "int256"
        },
        {
          "indexed": false,
          "internalType": "uint256",
          "name": "startedAt",
          "type": "uint256"
        },
        {
          "indexed": false,
          "internalType": "uint256",
          "name": "timeStamp",
          "type": "uint256"
        },
        {
          "indexed": false,
          "internalType": "uint80",
          "name": "answeredInRound",
          "type": "uint80"
        }
      ],
      "name": "GetLatestPrice",
      "type": "event"
    },
    {
      "anonymous": false,
      "inputs": [
        {
          "indexed": false,
          "internalType": "string",
          "name": "_tokenName",
          "type": "string"
        },
        {
          "indexed": false,
          "internalType": "address",
          "name": "_feedAddress",
          "type": "address"
        }
      ],
      "name": "SetPriceFeed",
      "type": "event"
    },
    {
      "inputs": [],
      "name": "owner",
      "outputs": [
        {
          "internalType": "address",
          "name": "",
          "type": "address"
        }
      ],
      "stateMutability": "view",
      "type": "function",
      "constant": true
    },
    {
      "inputs": [
        {
          "internalType": "string",
          "name": "_tokenName",
          "type": "string"
        }
      ],
      "name": "getPriceFeedAddress",
      "outputs": [
        {
          "internalType": "address",
          "name": "",
          "type": "address"
        }
      ],
      "stateMutability": "view",
      "type": "function",
      "constant": true
    },
    {
      "inputs": [
        {
          "internalType": "string",
          "name": "_tokenName",
          "type": "string"
        },
        {
          "internalType": "address",
          "name": "_feedAddress",
          "type": "address"
        }
      ],
      "name": "setPriceFeed",
      "outputs": [],
      "stateMutability": "nonpayable",
      "type": "function"
    },
    {
      "inputs": [
        {
          "internalType": "string",
          "name": "_tokenName",
          "type": "string"
        }
      ],
      "name": "getLatestPrice",
      "outputs": [
        {
          "internalType": "int256",
          "name": "",
          "type": "int256"
        }
      ],
      "stateMutability": "nonpayable",
      "type": "function"
    }
  ],
  "bytecode": "0x608060405234801561001057600080fd5b50738a753747a1fa494ec906ce90e9f37563a8af630e6000604051610058907f4554480000000000000000000000000000000000000000000000000000000000815260030190565b9081526040805191829003602001822080546001600160a01b03949094166001600160a01b03199485161790557f4554480000000000000000000000000000000000000000000000000000000000825260016003808401829052825193849003602390810185208054738a753747a1fa494ec906ce90e9f37563a8af630e9088161790557f4254430000000000000000000000000000000000000000000000000000000000808652600086840181905285519687900383018720805473ece365b379e1dd183b20fc5f022230c044d51404908a168117909155918752928601939093529251938490039092019092208054841690921790915560028054909216331790915561060690819061016d90396000f3fe608060405234801561001057600080fd5b506004361061004c5760003560e01c80638da5cb5b14610051578063f3b3347e14610081578063f66a1b7114610096578063f6ccbadd146100b7575b600080fd5b600254610064906001600160a01b031681565b6040516001600160a01b0390911681526020015b60405180910390f35b61009461008f366004610436565b6100ca565b005b6100a96100a4366004610494565b61024e565b604051908152602001610078565b6100646100c5366004610494565b610362565b6002546001600160a01b031633146101375760405162461bcd60e51b815260206004820152602560248201527f4f6e6c7920746865206f776e65722063616e2063616c6c20746869732066756e60448201526431ba34b7b760d91b60648201526084015b60405180910390fd5b806001600160a01b03811661018e5760405162461bcd60e51b815260206004820152601960248201527f63616e206e6f742067697665207a65726f206164647265737300000000000000604482015260640161012e565b8160008460405161019f9190610501565b908152602001604051809103902060006101000a8154816001600160a01b0302191690836001600160a01b03160217905550816001846040516101e29190610501565b90815260405190819003602001812080546001600160a01b03939093166001600160a01b0319909316929092179091557faafa3dfe4b8923de827aadb4ef57cbc6181149e7f3cbe7e32373d5874e5a779690610241908590859061051d565b60405180910390a1505050565b6000806000806000806000876040516102679190610501565b9081526040805191829003602001822054633fabe5a360e21b835290516001600160a01b039091169163feaf968c9160048083019260a0929190829003018186803b1580156102b557600080fd5b505afa1580156102c9573d6000803e3d6000fd5b505050506040513d601f19601f820116820180604052508101906102ed9190610580565b6040805169ffffffffffffffffffff808816825260208201879052918101859052606081018490529082166080820152949950929750909550935091507f68c7874aa1fa61e184534d6a53a8a15b5bec1fb5a73a56bee2f7d2853934e0f39060a00160405180910390a1509195945050505050565b60006001826040516103749190610501565b908152604051908190036020019020546001600160a01b031692915050565b634e487b7160e01b600052604160045260246000fd5b600082601f8301126103ba57600080fd5b813567ffffffffffffffff808211156103d5576103d5610393565b604051601f8301601f19908116603f011681019082821181831017156103fd576103fd610393565b8160405283815286602085880101111561041657600080fd5b836020870160208301376000602085830101528094505050505092915050565b6000806040838503121561044957600080fd5b823567ffffffffffffffff81111561046057600080fd5b61046c858286016103a9565b92505060208301356001600160a01b038116811461048957600080fd5b809150509250929050565b6000602082840312156104a657600080fd5b813567ffffffffffffffff8111156104bd57600080fd5b6104c9848285016103a9565b949350505050565b60005b838110156104ec5781810151838201526020016104d4565b838111156104fb576000848401525b50505050565b600082516105138184602087016104d1565b9190910192915050565b604081526000835180604084015261053c8160608501602088016104d1565b6001600160a01b0393909316602083015250601f91909101601f191601606001919050565b805169ffffffffffffffffffff8116811461057b57600080fd5b919050565b600080600080600060a0868803121561059857600080fd5b6105a186610561565b94506020860151935060408601519250606086015191506105c460808701610561565b9050929550929590935056fea264697066735822122055db0714dc76a09c4b9cd32bce744c898c8b0bfa48bf07329612c3e06436753664736f6c63430008090033",
  "immutableReferences": {},
  "source": "// SPDX-License-Identifier: MIT\npragma solidity 0.8.9;\n\nimport \"@chainlink/contracts/src/v0.8/interfaces/AggregatorV3Interface.sol\";\nimport \"./interfaces/IPriceGetter.sol\";\n\n/**\n * @title  Price Getter\n * @notice This is the contract for getting price feed from chainlink.\n *         The contract will keep a record from tokenName => priceFeed Address.\n */\ncontract PriceGetter is IPriceGetter {\n    // Use token name (string) as the mapping key\n    mapping(string => AggregatorV3Interface) internal priceFeed;\n    mapping(string => address) currentPriceFeed;\n\n    address public owner;\n\n    /**\n     * @notice Constructor function, initialize some price feed\n     */\n    constructor() {\n        // At first, launch three kind of pools\n\n        // This is the rinkeby eth price feed\n        priceFeed[\"ETH\"] = AggregatorV3Interface(\n            0x8A753747A1Fa494EC906cE90E9f37563A8AF630e\n        );\n        currentPriceFeed[\"ETH\"] = 0x8A753747A1Fa494EC906cE90E9f37563A8AF630e;\n\n        priceFeed[\"BTC\"] = AggregatorV3Interface(\n            0xECe365B379E1dD183B20fc5f022230C044d51404\n        );\n        currentPriceFeed[\"BTC\"] = 0xECe365B379E1dD183B20fc5f022230C044d51404;\n\n        // Uncomment below when launched on Avalanche\n        // priceFeed[\"AVAX\"] = AggregatorV3Interface(\n        //     0x0A77230d17318075983913bC2145DB16C7366156\n        // );\n\n        // priceFeed[\"ETH\"] = AggregatorV3Interface(\n        //     0x976B3D034E162d8bD72D6b9C989d545b839003b0\n        // );\n\n        // priceFeed[\"BTC\"] = AggregatorV3Interface(\n        //     0x2779D32d5166BAaa2B2b658333bA7e6Ec0C65743\n        // );\n\n        owner = msg.sender;\n    }\n\n    /**\n     * @notice Only the owner can call this function\n     */\n    modifier onlyOwner() {\n        require(msg.sender == owner, \"Only the owner can call this function\");\n        _;\n    }\n\n    /**\n     * @notice Can not give zero address\n     */\n    modifier notZeroAddress(address _address) {\n        require(_address != address(0), \"can not give zero address\");\n        _;\n    }\n\n    /**\n     * @notice Get the price feed address of a token\n     * @param _tokenName Name of the strike token\n     */\n    function getPriceFeedAddress(string memory _tokenName)\n        public\n        view\n        returns (address)\n    {\n        return currentPriceFeed[_tokenName];\n    }\n\n    /**\n     * @notice Set a price feed oracle address for a token\n     * @param _tokenName Address of the token\n     * @param _feedAddress Price feed oracle address\n     */\n    function setPriceFeed(string memory _tokenName, address _feedAddress)\n        public\n        onlyOwner\n        notZeroAddress(_feedAddress)\n    {\n        priceFeed[_tokenName] = AggregatorV3Interface(_feedAddress);\n        currentPriceFeed[_tokenName] = _feedAddress;\n\n        emit SetPriceFeed(_tokenName, _feedAddress);\n    }\n\n    /**\n     * @notice Get latest price of a token\n     * @param _tokenName Address of the token\n     * @return price The latest price\n     */\n    function getLatestPrice(string memory _tokenName) public returns (int256) {\n        (\n            uint80 roundID,\n            int256 price,\n            uint256 startedAt,\n            uint256 timeStamp,\n            uint80 answeredInRound\n        ) = priceFeed[_tokenName].latestRoundData();\n\n        emit GetLatestPrice(\n            roundID,\n            price,\n            startedAt,\n            timeStamp,\n            answeredInRound\n        );\n        return price;\n    }\n}\n",
  "sourcePath": "/Volumes/Store/src/naughty-price/contracts/PriceGetter.sol",
  "compiler": {
    "name": "solc",
    "version": "0.8.9+commit.e5eed63a.Emscripten.clang"
  },
  "schemaVersion": "3.4.3",
  "updatedAt": "2021-11-26T13:08:13.785Z",
  "networkType": "ethereum",
  "devdoc": {
    "kind": "dev",
    "methods": {
      "getLatestPrice(string)": {
        "params": {
          "_tokenName": "Address of the token"
        },
        "returns": {
          "_0": "price The latest price"
        }
      },
      "getPriceFeedAddress(string)": {
        "params": {
          "_tokenName": "Name of the strike token"
        }
      },
      "setPriceFeed(string,address)": {
        "params": {
          "_feedAddress": "Price feed oracle address",
          "_tokenName": "Address of the token"
        }
      }
    },
    "title": "Price Getter",
    "version": 1
  },
  "userdoc": {
    "kind": "user",
    "methods": {
      "constructor": {
        "notice": "Constructor function, initialize some price feed"
      },
      "getLatestPrice(string)": {
        "notice": "Get latest price of a token"
      },
      "getPriceFeedAddress(string)": {
        "notice": "Get the price feed address of a token"
      },
      "setPriceFeed(string,address)": {
        "notice": "Set a price feed oracle address for a token"
      }
    },
    "notice": "This is the contract for getting price feed from chainlink.         The contract will keep a record from tokenName => priceFeed Address.",
    "version": 1
  }
}