{
  "contractName": "BuyerToken",
  "abi": [
    {
      "inputs": [],
      "stateMutability": "nonpayable",
      "type": "constructor"
    },
    {
      "anonymous": false,
      "inputs": [
        {
          "indexed": true,
          "internalType": "address",
          "name": "owner",
          "type": "address"
        },
        {
          "indexed": true,
          "internalType": "address",
          "name": "spender",
          "type": "address"
        },
        {
          "indexed": false,
          "internalType": "uint256",
          "name": "value",
          "type": "uint256"
        }
      ],
      "name": "Approval",
      "type": "event"
    },
    {
      "anonymous": false,
      "inputs": [
        {
          "indexed": false,
          "internalType": "address",
          "name": "_newBurner",
          "type": "address"
        }
      ],
      "name": "BurnerAdded",
      "type": "event"
    },
    {
      "anonymous": false,
      "inputs": [
        {
          "indexed": false,
          "internalType": "address",
          "name": "_oldBurner",
          "type": "address"
        }
      ],
      "name": "BurnerRemoved",
      "type": "event"
    },
    {
      "anonymous": false,
      "inputs": [
        {
          "indexed": false,
          "internalType": "address",
          "name": "_newMinter",
          "type": "address"
        }
      ],
      "name": "MinterAdded",
      "type": "event"
    },
    {
      "anonymous": false,
      "inputs": [
        {
          "indexed": false,
          "internalType": "address",
          "name": "_oldMinter",
          "type": "address"
        }
      ],
      "name": "MinterRemoved",
      "type": "event"
    },
    {
      "anonymous": false,
      "inputs": [
        {
          "indexed": false,
          "internalType": "address",
          "name": "_oldOwner",
          "type": "address"
        },
        {
          "indexed": false,
          "internalType": "address",
          "name": "_newOwner",
          "type": "address"
        }
      ],
      "name": "OwnerChanged",
      "type": "event"
    },
    {
      "anonymous": false,
      "inputs": [
        {
          "indexed": false,
          "internalType": "address",
          "name": "_oldOwner",
          "type": "address"
        }
      ],
      "name": "OwnershipReleased",
      "type": "event"
    },
    {
      "anonymous": false,
      "inputs": [
        {
          "indexed": true,
          "internalType": "address",
          "name": "from",
          "type": "address"
        },
        {
          "indexed": true,
          "internalType": "address",
          "name": "to",
          "type": "address"
        },
        {
          "indexed": false,
          "internalType": "uint256",
          "name": "value",
          "type": "uint256"
        }
      ],
      "name": "Transfer",
      "type": "event"
    },
    {
      "inputs": [
        {
          "internalType": "address",
          "name": "owner",
          "type": "address"
        },
        {
          "internalType": "address",
          "name": "spender",
          "type": "address"
        }
      ],
      "name": "allowance",
      "outputs": [
        {
          "internalType": "uint256",
          "name": "",
          "type": "uint256"
        }
      ],
      "stateMutability": "view",
      "type": "function",
      "constant": true
    },
    {
      "inputs": [
        {
          "internalType": "address",
          "name": "spender",
          "type": "address"
        },
        {
          "internalType": "uint256",
          "name": "amount",
          "type": "uint256"
        }
      ],
      "name": "approve",
      "outputs": [
        {
          "internalType": "bool",
          "name": "",
          "type": "bool"
        }
      ],
      "stateMutability": "nonpayable",
      "type": "function"
    },
    {
      "inputs": [
        {
          "internalType": "address",
          "name": "account",
          "type": "address"
        }
      ],
      "name": "balanceOf",
      "outputs": [
        {
          "internalType": "uint256",
          "name": "",
          "type": "uint256"
        }
      ],
      "stateMutability": "view",
      "type": "function",
      "constant": true
    },
    {
      "inputs": [
        {
          "internalType": "uint256",
          "name": "",
          "type": "uint256"
        }
      ],
      "name": "burnerList",
      "outputs": [
        {
          "internalType": "address",
          "name": "",
          "type": "address"
        }
      ],
      "stateMutability": "view",
      "type": "function",
      "constant": true
    },
    {
      "inputs": [],
      "name": "decimals",
      "outputs": [
        {
          "internalType": "uint8",
          "name": "",
          "type": "uint8"
        }
      ],
      "stateMutability": "view",
      "type": "function",
      "constant": true
    },
    {
      "inputs": [
        {
          "internalType": "address",
          "name": "spender",
          "type": "address"
        },
        {
          "internalType": "uint256",
          "name": "subtractedValue",
          "type": "uint256"
        }
      ],
      "name": "decreaseAllowance",
      "outputs": [
        {
          "internalType": "bool",
          "name": "",
          "type": "bool"
        }
      ],
      "stateMutability": "nonpayable",
      "type": "function"
    },
    {
      "inputs": [
        {
          "internalType": "address",
          "name": "spender",
          "type": "address"
        },
        {
          "internalType": "uint256",
          "name": "addedValue",
          "type": "uint256"
        }
      ],
      "name": "increaseAllowance",
      "outputs": [
        {
          "internalType": "bool",
          "name": "",
          "type": "bool"
        }
      ],
      "stateMutability": "nonpayable",
      "type": "function"
    },
    {
      "inputs": [
        {
          "internalType": "address",
          "name": "",
          "type": "address"
        }
      ],
      "name": "isBurner",
      "outputs": [
        {
          "internalType": "bool",
          "name": "",
          "type": "bool"
        }
      ],
      "stateMutability": "view",
      "type": "function",
      "constant": true
    },
    {
      "inputs": [
        {
          "internalType": "address",
          "name": "",
          "type": "address"
        }
      ],
      "name": "isMinter",
      "outputs": [
        {
          "internalType": "bool",
          "name": "",
          "type": "bool"
        }
      ],
      "stateMutability": "view",
      "type": "function",
      "constant": true
    },
    {
      "inputs": [
        {
          "internalType": "uint256",
          "name": "",
          "type": "uint256"
        }
      ],
      "name": "minterList",
      "outputs": [
        {
          "internalType": "address",
          "name": "",
          "type": "address"
        }
      ],
      "stateMutability": "view",
      "type": "function",
      "constant": true
    },
    {
      "inputs": [],
      "name": "name",
      "outputs": [
        {
          "internalType": "string",
          "name": "",
          "type": "string"
        }
      ],
      "stateMutability": "view",
      "type": "function",
      "constant": true
    },
    {
      "inputs": [],
      "name": "owner",
      "outputs": [
        {
          "internalType": "address",
          "name": "",
          "type": "address"
        }
      ],
      "stateMutability": "view",
      "type": "function",
      "constant": true
    },
    {
      "inputs": [],
      "name": "symbol",
      "outputs": [
        {
          "internalType": "string",
          "name": "",
          "type": "string"
        }
      ],
      "stateMutability": "view",
      "type": "function",
      "constant": true
    },
    {
      "inputs": [],
      "name": "totalSupply",
      "outputs": [
        {
          "internalType": "uint256",
          "name": "",
          "type": "uint256"
        }
      ],
      "stateMutability": "view",
      "type": "function",
      "constant": true
    },
    {
      "inputs": [
        {
          "internalType": "address",
          "name": "recipient",
          "type": "address"
        },
        {
          "internalType": "uint256",
          "name": "amount",
          "type": "uint256"
        }
      ],
      "name": "transfer",
      "outputs": [
        {
          "internalType": "bool",
          "name": "",
          "type": "bool"
        }
      ],
      "stateMutability": "nonpayable",
      "type": "function"
    },
    {
      "inputs": [
        {
          "internalType": "address",
          "name": "sender",
          "type": "address"
        },
        {
          "internalType": "address",
          "name": "recipient",
          "type": "address"
        },
        {
          "internalType": "uint256",
          "name": "amount",
          "type": "uint256"
        }
      ],
      "name": "transferFrom",
      "outputs": [
        {
          "internalType": "bool",
          "name": "",
          "type": "bool"
        }
      ],
      "stateMutability": "nonpayable",
      "type": "function"
    },
    {
      "inputs": [
        {
          "internalType": "address",
          "name": "_newMinter",
          "type": "address"
        }
      ],
      "name": "addMinter",
      "outputs": [],
      "stateMutability": "nonpayable",
      "type": "function"
    },
    {
      "inputs": [
        {
          "internalType": "address",
          "name": "_oldMinter",
          "type": "address"
        }
      ],
      "name": "removeMinter",
      "outputs": [],
      "stateMutability": "nonpayable",
      "type": "function"
    },
    {
      "inputs": [
        {
          "internalType": "address",
          "name": "_newBurner",
          "type": "address"
        }
      ],
      "name": "addBurner",
      "outputs": [],
      "stateMutability": "nonpayable",
      "type": "function"
    },
    {
      "inputs": [
        {
          "internalType": "address",
          "name": "_oldBurner",
          "type": "address"
        }
      ],
      "name": "removeBurner",
      "outputs": [],
      "stateMutability": "nonpayable",
      "type": "function"
    },
    {
      "inputs": [
        {
          "internalType": "address",
          "name": "_newOwner",
          "type": "address"
        }
      ],
      "name": "passOwnership",
      "outputs": [],
      "stateMutability": "nonpayable",
      "type": "function"
    },
    {
      "inputs": [],
      "name": "releaseOwnership",
      "outputs": [],
      "stateMutability": "nonpayable",
      "type": "function"
    },
    {
      "inputs": [
        {
          "internalType": "address",
          "name": "_account",
          "type": "address"
        },
        {
          "internalType": "uint256",
          "name": "_amount",
          "type": "uint256"
        }
      ],
      "name": "mint",
      "outputs": [],
      "stateMutability": "nonpayable",
      "type": "function"
    },
    {
      "inputs": [
        {
          "internalType": "address",
          "name": "_account",
          "type": "address"
        },
        {
          "internalType": "uint256",
          "name": "_amount",
          "type": "uint256"
        }
      ],
      "name": "burn",
      "outputs": [],
      "stateMutability": "nonpayable",
      "type": "function"
    }
  ],
  "bytecode": "0x60806040523480156200001157600080fd5b506040518060400160405280600f81526020016e2232b3b4b9a13abcb2b92a37b5b2b760891b8152506040518060400160405280600381526020016211109560ea1b81525081600390805190602001906200006e929190620000f5565b50805162000084906004906020840190620000f5565b505060058054336001600160a01b031991821681179092556006805460018181019092557ff652222313e28459528d920b65115c16c04f3efc82aaedc97be59f3f377c0d3f0180549092168317909155600091825260076020526040909120805460ff1916909117905550620001d8565b82805462000103906200019b565b90600052602060002090601f01602090048101928262000127576000855562000172565b82601f106200014257805160ff191683800117855562000172565b8280016001018555821562000172579182015b828111156200017257825182559160200191906001019062000155565b506200018092915062000184565b5090565b5b8082111562000180576000815560010162000185565b600181811c90821680620001b057607f821691505b60208210811415620001d257634e487b7160e01b600052602260045260246000fd5b50919050565b61160d80620001e86000396000f3fe608060405234801561001057600080fd5b50600436106101585760003560e01c806370a08231116100c3578063a9059cbb1161007c578063a9059cbb146102fe578063aa271e1a14610311578063abd8e23d14610334578063d85633ec14610347578063dd62ed3e1461034f578063f44637ba1461038857600080fd5b806370a08231146102815780638da5cb5b146102aa57806395d89b41146102bd578063983b2d56146102c55780639dc29fac146102d8578063a457c2d7146102eb57600080fd5b80633092afd5116101155780633092afd514610203578063313ce56714610216578063395093511461022557806340c10f19146102385780634334614a1461024b578063620996df1461026e57600080fd5b8063028468581461015d57806306fdde0314610172578063095ea7b31461019057806318160ddd146101b357806323b872dd146101c5578063279ad7ab146101d8575b600080fd5b61017061016b366004611345565b61039b565b005b61017a6105ba565b6040516101879190611367565b60405180910390f35b6101a361019e3660046113bc565b61064c565b6040519015158152602001610187565b6002545b604051908152602001610187565b6101a36101d33660046113e6565b610662565b6101eb6101e6366004611422565b61070c565b6040516001600160a01b039091168152602001610187565b610170610211366004611345565b610736565b60405160128152602001610187565b6101a36102333660046113bc565b610944565b6101706102463660046113bc565b610980565b6101a3610259366004611345565b60096020526000908152604090205460ff1681565b61017061027c366004611345565b6109c3565b6101b761028f366004611345565b6001600160a01b031660009081526020819052604090205490565b6005546101eb906001600160a01b031681565b61017a610a49565b6101706102d3366004611345565b610a58565b6101706102e63660046113bc565b610b7f565b6101a36102f93660046113bc565b610bbd565b6101a361030c3660046113bc565b610c56565b6101a361031f366004611345565b60076020526000908152604090205460ff1681565b6101eb610342366004611422565b610c63565b610170610c73565b6101b761035d36600461143b565b6001600160a01b03918216600090815260016020908152604080832093909416825291909152205490565b610170610396366004611345565b610ce2565b6005546001600160a01b031633146103ce5760405162461bcd60e51b81526004016103c59061146e565b60405180910390fd5b6001600160a01b03811660009081526007602052604090205460ff16151560011461043b5760405162461bcd60e51b815260206004820152601c60248201527f546869732061646472657373206973206e6f742061206275726e65720000000060448201526064016103c5565b60085460005b8181101561056057826001600160a01b031660088281548110610466576104666114b3565b6000918252602090912001546001600160a01b0316141561054e57805b61048e6001846114df565b8110156105195760086104a28260016114f6565b815481106104b2576104b26114b3565b600091825260209091200154600880546001600160a01b0390921691839081106104de576104de6114b3565b600091825260209091200180546001600160a01b0319166001600160a01b0392909216919091179055806105118161150e565b915050610483565b50600880548061052b5761052b611529565b600082815260209020810160001990810180546001600160a01b03191690550190555b806105588161150e565b915050610441565b506001600160a01b038216600081815260096020908152604091829020805460ff1916905590519182527f90eabbc0c667db2a5029ed6bc0f5fe9f356d11684a4ca9fcfaec0e53f12b9c8e91015b60405180910390a15050565b6060600380546105c99061153f565b80601f01602080910402602001604051908101604052809291908181526020018280546105f59061153f565b80156106425780601f1061061757610100808354040283529160200191610642565b820191906000526020600020905b81548152906001019060200180831161062557829003601f168201915b5050505050905090565b6000610659338484610e09565b50600192915050565b600061066f848484610f2d565b6001600160a01b0384166000908152600160209081526040808320338452909152902054828110156106f45760405162461bcd60e51b815260206004820152602860248201527f45524332303a207472616e7366657220616d6f756e74206578636565647320616044820152676c6c6f77616e636560c01b60648201526084016103c5565b6107018533858403610e09565b506001949350505050565b6006818154811061071c57600080fd5b6000918252602090912001546001600160a01b0316905081565b6005546001600160a01b031633146107605760405162461bcd60e51b81526004016103c59061146e565b6001600160a01b03811660009081526007602052604090205460ff1615156001146107cd5760405162461bcd60e51b815260206004820152601c60248201527f546869732061646472657373206973206e6f742061206d696e7465720000000060448201526064016103c5565b60065460005b818110156108f257826001600160a01b0316600682815481106107f8576107f86114b3565b6000918252602090912001546001600160a01b031614156108e057805b6108206001846114df565b8110156108ab5760066108348260016114f6565b81548110610844576108446114b3565b600091825260209091200154600680546001600160a01b039092169183908110610870576108706114b3565b600091825260209091200180546001600160a01b0319166001600160a01b0392909216919091179055806108a38161150e565b915050610815565b5060068054806108bd576108bd611529565b600082815260209020810160001990810180546001600160a01b03191690550190555b806108ea8161150e565b9150506107d3565b506001600160a01b038216600081815260076020908152604091829020805460ff1916905590519182527fe94479a9f7e1952cc78f2d6baab678adc1b772d936c6583def489e524cb6669291016105ae565b3360008181526001602090815260408083206001600160a01b0387168452909152812054909161065991859061097b9086906114f6565b610e09565b3360008181526007602052604090205460ff1615156001146109b45760405162461bcd60e51b81526004016103c59061157a565b6109be83836110fc565b505050565b6005546001600160a01b031633146109ed5760405162461bcd60e51b81526004016103c59061146e565b600580546001600160a01b0319166001600160a01b0383169081179091556040805133815260208101929092527fb532073b38c83145e3e5135377a08bf9aab55bc0fd7c1179cd4fb995d2a5159c91015b60405180910390a150565b6060600480546105c99061153f565b6005546001600160a01b03163314610a825760405162461bcd60e51b81526004016103c59061146e565b6001600160a01b03811660009081526007602052604090205460ff1615610aeb5760405162461bcd60e51b815260206004820181905260248201527f54686973206164647265737320697320616c72656164792061206d696e74657260448201526064016103c5565b6006805460018082019092557ff652222313e28459528d920b65115c16c04f3efc82aaedc97be59f3f377c0d3f0180546001600160a01b0319166001600160a01b038416908117909155600081815260076020908152604091829020805460ff1916909417909355519081527f6ae172837ea30b801fbfcdd4108aa1d5bf8ff775444fd70256b44e6bf3dfc3f69101610a3e565b3360008181526009602052604090205460ff161515600114610bb35760405162461bcd60e51b81526004016103c59061157a565b6109be83836111db565b3360009081526001602090815260408083206001600160a01b038616845290915281205482811015610c3f5760405162461bcd60e51b815260206004820152602560248201527f45524332303a2064656372656173656420616c6c6f77616e63652062656c6f77604482015264207a65726f60d81b60648201526084016103c5565b610c4c3385858403610e09565b5060019392505050565b6000610659338484610f2d565b6008818154811061071c57600080fd5b6005546001600160a01b03163314610c9d5760405162461bcd60e51b81526004016103c59061146e565b600580546001600160a01b03191690556040513381527f32c346b3c4ea71856e1bc1250e3fe1e28e38ade8ec8b1bb2fde56ee07a5d3e9d9060200160405180910390a1565b6005546001600160a01b03163314610d0c5760405162461bcd60e51b81526004016103c59061146e565b6001600160a01b03811660009081526009602052604090205460ff1615610d755760405162461bcd60e51b815260206004820181905260248201527f54686973206164647265737320697320616c72656164792061206275726e657260448201526064016103c5565b6008805460018082019092557ff3f7a9fe364faab93b216da50a3214154f22a0a2b415b23a84c8169e8b636ee30180546001600160a01b0319166001600160a01b038416908117909155600081815260096020908152604091829020805460ff1916909417909355519081527f86e57fd2b90329052917118de7c3f521f400d439b9650deaa906a25b08b945609101610a3e565b6001600160a01b038316610e6b5760405162461bcd60e51b8152602060048201526024808201527f45524332303a20617070726f76652066726f6d20746865207a65726f206164646044820152637265737360e01b60648201526084016103c5565b6001600160a01b038216610ecc5760405162461bcd60e51b815260206004820152602260248201527f45524332303a20617070726f766520746f20746865207a65726f206164647265604482015261737360f01b60648201526084016103c5565b6001600160a01b0383811660008181526001602090815260408083209487168084529482529182902085905590518481527f8c5be1e5ebec7d5bd14f71427d1e84f3dd0314c0f7b2291e5b200ac8c7c3b925910160405180910390a3505050565b6001600160a01b038316610f915760405162461bcd60e51b815260206004820152602560248201527f45524332303a207472616e736665722066726f6d20746865207a65726f206164604482015264647265737360d81b60648201526084016103c5565b6001600160a01b038216610ff35760405162461bcd60e51b815260206004820152602360248201527f45524332303a207472616e7366657220746f20746865207a65726f206164647260448201526265737360e81b60648201526084016103c5565b6001600160a01b0383166000908152602081905260409020548181101561106b5760405162461bcd60e51b815260206004820152602660248201527f45524332303a207472616e7366657220616d6f756e7420657863656564732062604482015265616c616e636560d01b60648201526084016103c5565b6001600160a01b038085166000908152602081905260408082208585039055918516815290812080548492906110a29084906114f6565b92505081905550826001600160a01b0316846001600160a01b03167fddf252ad1be2c89b69c2b068fc378daa952ba7f163c4a11628f55a4df523b3ef846040516110ee91815260200190565b60405180910390a350505050565b6001600160a01b0382166111525760405162461bcd60e51b815260206004820152601f60248201527f45524332303a206d696e7420746f20746865207a65726f20616464726573730060448201526064016103c5565b806002600082825461116491906114f6565b90915550506001600160a01b038216600090815260208190526040812080548392906111919084906114f6565b90915550506040518181526001600160a01b038316906000907fddf252ad1be2c89b69c2b068fc378daa952ba7f163c4a11628f55a4df523b3ef9060200160405180910390a35050565b6001600160a01b03821661123b5760405162461bcd60e51b815260206004820152602160248201527f45524332303a206275726e2066726f6d20746865207a65726f206164647265736044820152607360f81b60648201526084016103c5565b6001600160a01b038216600090815260208190526040902054818110156112af5760405162461bcd60e51b815260206004820152602260248201527f45524332303a206275726e20616d6f756e7420657863656564732062616c616e604482015261636560f01b60648201526084016103c5565b6001600160a01b03831660009081526020819052604081208383039055600280548492906112de9084906114df565b90915550506040518281526000906001600160a01b038516907fddf252ad1be2c89b69c2b068fc378daa952ba7f163c4a11628f55a4df523b3ef9060200160405180910390a3505050565b80356001600160a01b038116811461134057600080fd5b919050565b60006020828403121561135757600080fd5b61136082611329565b9392505050565b600060208083528351808285015260005b8181101561139457858101830151858201604001528201611378565b818111156113a6576000604083870101525b50601f01601f1916929092016040019392505050565b600080604083850312156113cf57600080fd5b6113d883611329565b946020939093013593505050565b6000806000606084860312156113fb57600080fd5b61140484611329565b925061141260208501611329565b9150604084013590509250925092565b60006020828403121561143457600080fd5b5035919050565b6000806040838503121561144e57600080fd5b61145783611329565b915061146560208401611329565b90509250929050565b60208082526025908201527f4f6e6c7920746865206f776e65722063616e2063616c6c20746869732066756e60408201526431ba34b7b760d91b606082015260800190565b634e487b7160e01b600052603260045260246000fd5b634e487b7160e01b600052601160045260246000fd5b6000828210156114f1576114f16114c9565b500390565b60008219821115611509576115096114c9565b500190565b6000600019821415611522576115226114c9565b5060010190565b634e487b7160e01b600052603160045260246000fd5b600181811c9082168061155357607f821691505b6020821081141561157457634e487b7160e01b600052602260045260246000fd5b50919050565b6020808252603a908201527f4f6e6c7920746865206164647265737320696e20746865206d696e746572206c60408201527f6973742063616e2063616c6c20746869732066756e6374696f6e00000000000060608201526080019056fea264697066735822122016513a85cb43e46a393c428d63db48d5d90297e45e7b15a277276abcfac332a164736f6c63430008090033",
  "immutableReferences": {},
  "source": "// SPDX-License-Identifier: MIT\npragma solidity 0.8.9;\n\nimport \"@openzeppelin/contracts/token/ERC20/ERC20.sol\";\nimport \"./interfaces/IBuyerToken.sol\";\n\n/**\n * @title  Buyer Token\n * @notice Buyer tokens are distributed to buyers corresponding to the usd value they spend.\n *         Users can deposit their buyer tokens into purchaseIncentiveVault.\n *         Periodical reward will be given to the participants in purchaseIncentiveVault.\n *         When distributing purchase incentive reward, the buyer tokens will be burned.\n * @dev    Need to set the correct minters and burners when reploying this contract.\n */\n\ncontract BuyerToken is ERC20(\"DegisBuyerToken\", \"DBT\"), IBuyerToken {\n    // Owner address\n    address public owner;\n\n    // List of all minters\n    address[] public minterList;\n    mapping(address => bool) public isMinter;\n\n    // List of all burners\n    address[] public burnerList;\n    mapping(address => bool) public isBurner;\n\n    // ---------------------------------------------------------------------------------------- //\n    // ************************************ Constructor *************************************** //\n    // ---------------------------------------------------------------------------------------- //\n\n    constructor() {\n        owner = msg.sender;\n        // Originally set the owner as a minter\n        // FIXME: This may be removed on mainnet\n        minterList.push(msg.sender);\n        isMinter[msg.sender] = true;\n    }\n\n    // ---------------------------------------------------------------------------------------- //\n    // ************************************* Modifiers **************************************** //\n    // ---------------------------------------------------------------------------------------- //\n\n    // Only the owner can call some functions\n    modifier onlyOwner() {\n        require(msg.sender == owner, \"Only the owner can call this function\");\n        _;\n    }\n\n    // Check if the msg.sender is in the minter list\n    modifier inMinterList(address _sender) {\n        require(\n            isMinter[_sender] == true,\n            \"Only the address in the minter list can call this function\"\n        );\n        _;\n    }\n\n    // Check if the msg.sender is in the burner list\n    modifier inBurnerList(address _sender) {\n        require(\n            isBurner[_sender] == true,\n            \"Only the address in the minter list can call this function\"\n        );\n        _;\n    }\n\n    // ---------------------------------------------------------------------------------------- //\n    // ************************************ Set Functions ************************************* //\n    // ---------------------------------------------------------------------------------------- //\n\n    /**\n     * @notice Add a new minter into the list\n     * @param _newMinter Address of the new minter\n     */\n    function addMinter(address _newMinter) public onlyOwner {\n        require(\n            isMinter[_newMinter] == false,\n            \"This address is already a minter\"\n        );\n        minterList.push(_newMinter);\n        isMinter[_newMinter] = true;\n\n        emit MinterAdded(_newMinter);\n    }\n\n    /**\n     * @notice Remove a minter from the list\n     * @param _oldMinter Address of the minter to be removed\n     */\n    function removeMinter(address _oldMinter) external onlyOwner {\n        require(isMinter[_oldMinter] == true, \"This address is not a minter\");\n\n        uint256 length = minterList.length;\n        for (uint256 i = 0; i < length; i++) {\n            if (minterList[i] == _oldMinter) {\n                for (uint256 j = i; j < length - 1; j++) {\n                    minterList[j] = minterList[j + 1];\n                }\n                minterList.pop();\n            } else continue;\n        }\n        isMinter[_oldMinter] = false;\n\n        emit MinterRemoved(_oldMinter);\n    }\n\n    /**\n     * @notice Add a new burner into the list\n     * @param _newBurner Address of the new burner\n     */\n    function addBurner(address _newBurner) external onlyOwner {\n        require(\n            isBurner[_newBurner] == false,\n            \"This address is already a burner\"\n        );\n        burnerList.push(_newBurner);\n        isBurner[_newBurner] = true;\n\n        emit BurnerAdded(_newBurner);\n    }\n\n    /**\n     * @notice Remove a minter from the list\n     * @param _oldBurner Address of the minter to be removed\n     */\n    function removeBurner(address _oldBurner) external onlyOwner {\n        require(isMinter[_oldBurner] == true, \"This address is not a burner\");\n\n        uint256 length = burnerList.length;\n        for (uint256 i = 0; i < length; i++) {\n            if (burnerList[i] == _oldBurner) {\n                for (uint256 j = i; j < length - 1; j++) {\n                    burnerList[j] = burnerList[j + 1];\n                }\n                burnerList.pop();\n            } else continue;\n        }\n        isBurner[_oldBurner] = false;\n\n        emit BurnerRemoved(_oldBurner);\n    }\n\n    /**\n     * @notice Pass the owner role to a new address, only the owner can change the owner\n     * @param _newOwner New owner's address\n     */\n    function passOwnership(address _newOwner) external onlyOwner {\n        owner = _newOwner;\n        emit OwnerChanged(msg.sender, _newOwner);\n    }\n\n    /**\n     * @notice Release the ownership to zero address, can never get back !\n     */\n    function releaseOwnership() external onlyOwner {\n        owner = address(0);\n        emit OwnershipReleased(msg.sender);\n    }\n\n    // ---------------------------------------------------------------------------------------- //\n    // *********************************** Main Functions ************************************* //\n    // ---------------------------------------------------------------------------------------- //\n\n    /**\n     * @notice Mint some buyer tokens\n     * @param _account Address to receive the tokens\n     * @param _amount Amount to be minted\n     */\n    function mint(address _account, uint256 _amount)\n        public\n        inMinterList(msg.sender)\n    {\n        _mint(_account, _amount);\n    }\n\n    /**\n     * @notice Burn some buyer tokens\n     * @param _account Address to burn tokens\n     * @param _amount Amount to be burned\n     */\n    function burn(address _account, uint256 _amount)\n        public\n        inBurnerList(msg.sender)\n    {\n        _burn(_account, _amount);\n    }\n}\n",
  "sourcePath": "/Volumes/Store/Degis/Degis-Staking/contracts/BuyerToken.sol",
  "compiler": {
    "name": "solc",
    "version": "0.8.9+commit.e5eed63a.Emscripten.clang"
  },
  "schemaVersion": "3.4.3",
  "updatedAt": "2021-12-09T16:23:38.214Z",
  "networkType": "ethereum",
  "devdoc": {
    "details": "Need to set the correct minters and burners when reploying this contract.",
    "kind": "dev",
    "methods": {
      "addBurner(address)": {
        "params": {
          "_newBurner": "Address of the new burner"
        }
      },
      "addMinter(address)": {
        "params": {
          "_newMinter": "Address of the new minter"
        }
      },
      "allowance(address,address)": {
        "details": "See {IERC20-allowance}."
      },
      "approve(address,uint256)": {
        "details": "See {IERC20-approve}. Requirements: - `spender` cannot be the zero address."
      },
      "balanceOf(address)": {
        "details": "See {IERC20-balanceOf}."
      },
      "burn(address,uint256)": {
        "params": {
          "_account": "Address to burn tokens",
          "_amount": "Amount to be burned"
        }
      },
      "decimals()": {
        "details": "Returns the number of decimals used to get its user representation. For example, if `decimals` equals `2`, a balance of `505` tokens should be displayed to a user as `5.05` (`505 / 10 ** 2`). Tokens usually opt for a value of 18, imitating the relationship between Ether and Wei. This is the value {ERC20} uses, unless this function is overridden; NOTE: This information is only used for _display_ purposes: it in no way affects any of the arithmetic of the contract, including {IERC20-balanceOf} and {IERC20-transfer}."
      },
      "decreaseAllowance(address,uint256)": {
        "details": "Atomically decreases the allowance granted to `spender` by the caller. This is an alternative to {approve} that can be used as a mitigation for problems described in {IERC20-approve}. Emits an {Approval} event indicating the updated allowance. Requirements: - `spender` cannot be the zero address. - `spender` must have allowance for the caller of at least `subtractedValue`."
      },
      "increaseAllowance(address,uint256)": {
        "details": "Atomically increases the allowance granted to `spender` by the caller. This is an alternative to {approve} that can be used as a mitigation for problems described in {IERC20-approve}. Emits an {Approval} event indicating the updated allowance. Requirements: - `spender` cannot be the zero address."
      },
      "mint(address,uint256)": {
        "params": {
          "_account": "Address to receive the tokens",
          "_amount": "Amount to be minted"
        }
      },
      "name()": {
        "details": "Returns the name of the token."
      },
      "passOwnership(address)": {
        "params": {
          "_newOwner": "New owner's address"
        }
      },
      "removeBurner(address)": {
        "params": {
          "_oldBurner": "Address of the minter to be removed"
        }
      },
      "removeMinter(address)": {
        "params": {
          "_oldMinter": "Address of the minter to be removed"
        }
      },
      "symbol()": {
        "details": "Returns the symbol of the token, usually a shorter version of the name."
      },
      "totalSupply()": {
        "details": "See {IERC20-totalSupply}."
      },
      "transfer(address,uint256)": {
        "details": "See {IERC20-transfer}. Requirements: - `recipient` cannot be the zero address. - the caller must have a balance of at least `amount`."
      },
      "transferFrom(address,address,uint256)": {
        "details": "See {IERC20-transferFrom}. Emits an {Approval} event indicating the updated allowance. This is not required by the EIP. See the note at the beginning of {ERC20}. Requirements: - `sender` and `recipient` cannot be the zero address. - `sender` must have a balance of at least `amount`. - the caller must have allowance for ``sender``'s tokens of at least `amount`."
      }
    },
    "title": "Buyer Token",
    "version": 1
  },
  "userdoc": {
    "kind": "user",
    "methods": {
      "addBurner(address)": {
        "notice": "Add a new burner into the list"
      },
      "addMinter(address)": {
        "notice": "Add a new minter into the list"
      },
      "burn(address,uint256)": {
        "notice": "Burn some buyer tokens"
      },
      "mint(address,uint256)": {
        "notice": "Mint some buyer tokens"
      },
      "passOwnership(address)": {
        "notice": "Pass the owner role to a new address, only the owner can change the owner"
      },
      "releaseOwnership()": {
        "notice": "Release the ownership to zero address, can never get back !"
      },
      "removeBurner(address)": {
        "notice": "Remove a minter from the list"
      },
      "removeMinter(address)": {
        "notice": "Remove a minter from the list"
      }
    },
    "notice": "Buyer tokens are distributed to buyers corresponding to the usd value they spend.         Users can deposit their buyer tokens into purchaseIncentiveVault.         Periodical reward will be given to the participants in purchaseIncentiveVault.         When distributing purchase incentive reward, the buyer tokens will be burned.",
    "version": 1
  }
}