{
  "contractName": "BuyerToken",
  "abi": [
    {
      "inputs": [],
      "stateMutability": "nonpayable",
      "type": "constructor"
    },
    {
      "anonymous": false,
      "inputs": [
        {
          "indexed": true,
          "internalType": "address",
          "name": "owner",
          "type": "address"
        },
        {
          "indexed": true,
          "internalType": "address",
          "name": "spender",
          "type": "address"
        },
        {
          "indexed": false,
          "internalType": "uint256",
          "name": "value",
          "type": "uint256"
        }
      ],
      "name": "Approval",
      "type": "event"
    },
    {
      "anonymous": false,
      "inputs": [
        {
          "indexed": false,
          "internalType": "address",
          "name": "_newBurner",
          "type": "address"
        }
      ],
      "name": "BurnerAdded",
      "type": "event"
    },
    {
      "anonymous": false,
      "inputs": [
        {
          "indexed": false,
          "internalType": "address",
          "name": "_oldBurner",
          "type": "address"
        }
      ],
      "name": "BurnerRemoved",
      "type": "event"
    },
    {
      "anonymous": false,
      "inputs": [
        {
          "indexed": false,
          "internalType": "address",
          "name": "_newMinter",
          "type": "address"
        }
      ],
      "name": "MinterAdded",
      "type": "event"
    },
    {
      "anonymous": false,
      "inputs": [
        {
          "indexed": false,
          "internalType": "address",
          "name": "_oldMinter",
          "type": "address"
        }
      ],
      "name": "MinterRemoved",
      "type": "event"
    },
    {
      "anonymous": false,
      "inputs": [
        {
          "indexed": true,
          "internalType": "address",
          "name": "_oldOwner",
          "type": "address"
        },
        {
          "indexed": true,
          "internalType": "address",
          "name": "_newOwner",
          "type": "address"
        }
      ],
      "name": "OwnerChanged",
      "type": "event"
    },
    {
      "anonymous": false,
      "inputs": [
        {
          "indexed": true,
          "internalType": "address",
          "name": "_oldOwner",
          "type": "address"
        }
      ],
      "name": "ReleaseOwnership",
      "type": "event"
    },
    {
      "anonymous": false,
      "inputs": [
        {
          "indexed": true,
          "internalType": "address",
          "name": "from",
          "type": "address"
        },
        {
          "indexed": true,
          "internalType": "address",
          "name": "to",
          "type": "address"
        },
        {
          "indexed": false,
          "internalType": "uint256",
          "name": "value",
          "type": "uint256"
        }
      ],
      "name": "Transfer",
      "type": "event"
    },
    {
      "inputs": [
        {
          "internalType": "address",
          "name": "owner",
          "type": "address"
        },
        {
          "internalType": "address",
          "name": "spender",
          "type": "address"
        }
      ],
      "name": "allowance",
      "outputs": [
        {
          "internalType": "uint256",
          "name": "",
          "type": "uint256"
        }
      ],
      "stateMutability": "view",
      "type": "function",
      "constant": true
    },
    {
      "inputs": [
        {
          "internalType": "address",
          "name": "spender",
          "type": "address"
        },
        {
          "internalType": "uint256",
          "name": "amount",
          "type": "uint256"
        }
      ],
      "name": "approve",
      "outputs": [
        {
          "internalType": "bool",
          "name": "",
          "type": "bool"
        }
      ],
      "stateMutability": "nonpayable",
      "type": "function"
    },
    {
      "inputs": [
        {
          "internalType": "address",
          "name": "account",
          "type": "address"
        }
      ],
      "name": "balanceOf",
      "outputs": [
        {
          "internalType": "uint256",
          "name": "",
          "type": "uint256"
        }
      ],
      "stateMutability": "view",
      "type": "function",
      "constant": true
    },
    {
      "inputs": [
        {
          "internalType": "uint256",
          "name": "",
          "type": "uint256"
        }
      ],
      "name": "burnerList",
      "outputs": [
        {
          "internalType": "address",
          "name": "",
          "type": "address"
        }
      ],
      "stateMutability": "view",
      "type": "function",
      "constant": true
    },
    {
      "inputs": [],
      "name": "decimals",
      "outputs": [
        {
          "internalType": "uint8",
          "name": "",
          "type": "uint8"
        }
      ],
      "stateMutability": "view",
      "type": "function",
      "constant": true
    },
    {
      "inputs": [
        {
          "internalType": "address",
          "name": "spender",
          "type": "address"
        },
        {
          "internalType": "uint256",
          "name": "subtractedValue",
          "type": "uint256"
        }
      ],
      "name": "decreaseAllowance",
      "outputs": [
        {
          "internalType": "bool",
          "name": "",
          "type": "bool"
        }
      ],
      "stateMutability": "nonpayable",
      "type": "function"
    },
    {
      "inputs": [
        {
          "internalType": "address",
          "name": "spender",
          "type": "address"
        },
        {
          "internalType": "uint256",
          "name": "addedValue",
          "type": "uint256"
        }
      ],
      "name": "increaseAllowance",
      "outputs": [
        {
          "internalType": "bool",
          "name": "",
          "type": "bool"
        }
      ],
      "stateMutability": "nonpayable",
      "type": "function"
    },
    {
      "inputs": [
        {
          "internalType": "uint256",
          "name": "",
          "type": "uint256"
        }
      ],
      "name": "minterList",
      "outputs": [
        {
          "internalType": "address",
          "name": "",
          "type": "address"
        }
      ],
      "stateMutability": "view",
      "type": "function",
      "constant": true
    },
    {
      "inputs": [],
      "name": "name",
      "outputs": [
        {
          "internalType": "string",
          "name": "",
          "type": "string"
        }
      ],
      "stateMutability": "view",
      "type": "function",
      "constant": true
    },
    {
      "inputs": [],
      "name": "owner",
      "outputs": [
        {
          "internalType": "address",
          "name": "",
          "type": "address"
        }
      ],
      "stateMutability": "view",
      "type": "function",
      "constant": true
    },
    {
      "inputs": [],
      "name": "symbol",
      "outputs": [
        {
          "internalType": "string",
          "name": "",
          "type": "string"
        }
      ],
      "stateMutability": "view",
      "type": "function",
      "constant": true
    },
    {
      "inputs": [],
      "name": "totalSupply",
      "outputs": [
        {
          "internalType": "uint256",
          "name": "",
          "type": "uint256"
        }
      ],
      "stateMutability": "view",
      "type": "function",
      "constant": true
    },
    {
      "inputs": [
        {
          "internalType": "address",
          "name": "recipient",
          "type": "address"
        },
        {
          "internalType": "uint256",
          "name": "amount",
          "type": "uint256"
        }
      ],
      "name": "transfer",
      "outputs": [
        {
          "internalType": "bool",
          "name": "",
          "type": "bool"
        }
      ],
      "stateMutability": "nonpayable",
      "type": "function"
    },
    {
      "inputs": [
        {
          "internalType": "address",
          "name": "sender",
          "type": "address"
        },
        {
          "internalType": "address",
          "name": "recipient",
          "type": "address"
        },
        {
          "internalType": "uint256",
          "name": "amount",
          "type": "uint256"
        }
      ],
      "name": "transferFrom",
      "outputs": [
        {
          "internalType": "bool",
          "name": "",
          "type": "bool"
        }
      ],
      "stateMutability": "nonpayable",
      "type": "function"
    },
    {
      "inputs": [
        {
          "internalType": "address",
          "name": "_newMinter",
          "type": "address"
        }
      ],
      "name": "addMinter",
      "outputs": [],
      "stateMutability": "nonpayable",
      "type": "function"
    },
    {
      "inputs": [
        {
          "internalType": "address",
          "name": "_oldMinter",
          "type": "address"
        }
      ],
      "name": "removeMinter",
      "outputs": [],
      "stateMutability": "nonpayable",
      "type": "function"
    },
    {
      "inputs": [
        {
          "internalType": "address",
          "name": "_newBurner",
          "type": "address"
        }
      ],
      "name": "addBurner",
      "outputs": [],
      "stateMutability": "nonpayable",
      "type": "function"
    },
    {
      "inputs": [
        {
          "internalType": "address",
          "name": "_oldBurner",
          "type": "address"
        }
      ],
      "name": "removeBurner",
      "outputs": [],
      "stateMutability": "nonpayable",
      "type": "function"
    },
    {
      "inputs": [
        {
          "internalType": "address",
          "name": "_newOwner",
          "type": "address"
        }
      ],
      "name": "passOwnership",
      "outputs": [],
      "stateMutability": "nonpayable",
      "type": "function"
    },
    {
      "inputs": [],
      "name": "releaseOwnership",
      "outputs": [],
      "stateMutability": "nonpayable",
      "type": "function"
    },
    {
      "inputs": [
        {
          "internalType": "address",
          "name": "_account",
          "type": "address"
        },
        {
          "internalType": "uint256",
          "name": "_amount",
          "type": "uint256"
        }
      ],
      "name": "mint",
      "outputs": [],
      "stateMutability": "nonpayable",
      "type": "function"
    },
    {
      "inputs": [
        {
          "internalType": "address",
          "name": "_account",
          "type": "address"
        },
        {
          "internalType": "uint256",
          "name": "_amount",
          "type": "uint256"
        }
      ],
      "name": "burn",
      "outputs": [],
      "stateMutability": "nonpayable",
      "type": "function"
    }
  ],
  "bytecode": "0x60806040523480156200001157600080fd5b506040518060400160405280600f81526020016e2232b3b4b9a13abcb2b92a37b5b2b760891b8152506040518060400160405280600381526020016211109560ea1b81525081600390805190602001906200006e929190620000f5565b50805162000084906004906020840190620000f5565b505060058054336001600160a01b031991821681179092556006805460018181019092557ff652222313e28459528d920b65115c16c04f3efc82aaedc97be59f3f377c0d3f0180549092168317909155600091825260076020526040909120805460ff1916909117905550620001d8565b82805462000103906200019b565b90600052602060002090601f01602090048101928262000127576000855562000172565b82601f106200014257805160ff191683800117855562000172565b8280016001018555821562000172579182015b828111156200017257825182559160200191906001019062000155565b506200018092915062000184565b5090565b5b8082111562000180576000815560010162000185565b600181811c90821680620001b057607f821691505b60208210811415620001d257634e487b7160e01b600052602260045260246000fd5b50919050565b6115a080620001e86000396000f3fe608060405234801561001057600080fd5b50600436106101425760003560e01c806370a08231116100b8578063a457c2d71161007c578063a457c2d7146102b2578063a9059cbb146102c5578063abd8e23d146102d8578063d85633ec146102eb578063dd62ed3e146102f3578063f44637ba1461032c57600080fd5b806370a08231146102485780638da5cb5b1461027157806395d89b4114610284578063983b2d561461028c5780639dc29fac1461029f57600080fd5b8063279ad7ab1161010a578063279ad7ab146101c25780633092afd5146101ed578063313ce56714610200578063395093511461020f57806340c10f1914610222578063620996df1461023557600080fd5b8063028468581461014757806306fdde031461015c578063095ea7b31461017a57806318160ddd1461019d57806323b872dd146101af575b600080fd5b61015a6101553660046112d8565b61033f565b005b61016461055e565b60405161017191906112fa565b60405180910390f35b61018d61018836600461134f565b6105f0565b6040519015158152602001610171565b6002545b604051908152602001610171565b61018d6101bd366004611379565b610606565b6101d56101d03660046113b5565b6106b0565b6040516001600160a01b039091168152602001610171565b61015a6101fb3660046112d8565b6106da565b60405160128152602001610171565b61018d61021d36600461134f565b6108e8565b61015a61023036600461134f565b610924565b61015a6102433660046112d8565b610967565b6101a16102563660046112d8565b6001600160a01b031660009081526020819052604090205490565b6005546101d5906001600160a01b031681565b6101646109dd565b61015a61029a3660046112d8565b6109ec565b61015a6102ad36600461134f565b610b1a565b61018d6102c036600461134f565b610b58565b61018d6102d336600461134f565b610bf1565b6101d56102e63660046113b5565b610bfe565b61015a610c0e565b6101a16103013660046113ce565b6001600160a01b03918216600090815260016020908152604080832093909416825291909152205490565b61015a61033a3660046112d8565b610c75565b6005546001600160a01b031633146103725760405162461bcd60e51b815260040161036990611401565b60405180910390fd5b6001600160a01b03811660009081526007602052604090205460ff1615156001146103df5760405162461bcd60e51b815260206004820152601c60248201527f546869732061646472657373206973206e6f742061206275726e6572000000006044820152606401610369565b60085460005b8181101561050457826001600160a01b03166008828154811061040a5761040a611446565b6000918252602090912001546001600160a01b031614156104f257805b610432600184611472565b8110156104bd576008610446826001611489565b8154811061045657610456611446565b600091825260209091200154600880546001600160a01b03909216918390811061048257610482611446565b600091825260209091200180546001600160a01b0319166001600160a01b0392909216919091179055806104b5816114a1565b915050610427565b5060088054806104cf576104cf6114bc565b600082815260209020810160001990810180546001600160a01b03191690550190555b806104fc816114a1565b9150506103e5565b506001600160a01b038216600081815260096020908152604091829020805460ff1916905590519182527f90eabbc0c667db2a5029ed6bc0f5fe9f356d11684a4ca9fcfaec0e53f12b9c8e91015b60405180910390a15050565b60606003805461056d906114d2565b80601f0160208091040260200160405190810160405280929190818152602001828054610599906114d2565b80156105e65780601f106105bb576101008083540402835291602001916105e6565b820191906000526020600020905b8154815290600101906020018083116105c957829003601f168201915b5050505050905090565b60006105fd338484610d9c565b50600192915050565b6000610613848484610ec0565b6001600160a01b0384166000908152600160209081526040808320338452909152902054828110156106985760405162461bcd60e51b815260206004820152602860248201527f45524332303a207472616e7366657220616d6f756e74206578636565647320616044820152676c6c6f77616e636560c01b6064820152608401610369565b6106a58533858403610d9c565b506001949350505050565b600681815481106106c057600080fd5b6000918252602090912001546001600160a01b0316905081565b6005546001600160a01b031633146107045760405162461bcd60e51b815260040161036990611401565b6001600160a01b03811660009081526007602052604090205460ff1615156001146107715760405162461bcd60e51b815260206004820152601c60248201527f546869732061646472657373206973206e6f742061206d696e746572000000006044820152606401610369565b60065460005b8181101561089657826001600160a01b03166006828154811061079c5761079c611446565b6000918252602090912001546001600160a01b0316141561088457805b6107c4600184611472565b81101561084f5760066107d8826001611489565b815481106107e8576107e8611446565b600091825260209091200154600680546001600160a01b03909216918390811061081457610814611446565b600091825260209091200180546001600160a01b0319166001600160a01b039290921691909117905580610847816114a1565b9150506107b9565b506006805480610861576108616114bc565b600082815260209020810160001990810180546001600160a01b03191690550190555b8061088e816114a1565b915050610777565b506001600160a01b038216600081815260076020908152604091829020805460ff1916905590519182527fe94479a9f7e1952cc78f2d6baab678adc1b772d936c6583def489e524cb666929101610552565b3360008181526001602090815260408083206001600160a01b038716845290915281205490916105fd91859061091f908690611489565b610d9c565b3360008181526007602052604090205460ff1615156001146109585760405162461bcd60e51b81526004016103699061150d565b610962838361108f565b505050565b6005546001600160a01b031633146109915760405162461bcd60e51b815260040161036990611401565b600580546001600160a01b0319166001600160a01b03831690811790915560405133907fb532073b38c83145e3e5135377a08bf9aab55bc0fd7c1179cd4fb995d2a5159c90600090a350565b60606004805461056d906114d2565b6005546001600160a01b03163314610a165760405162461bcd60e51b815260040161036990611401565b6001600160a01b03811660009081526007602052604090205460ff1615610a7f5760405162461bcd60e51b815260206004820181905260248201527f54686973206164647265737320697320616c72656164792061206d696e7465726044820152606401610369565b6006805460018082019092557ff652222313e28459528d920b65115c16c04f3efc82aaedc97be59f3f377c0d3f0180546001600160a01b0319166001600160a01b038416908117909155600081815260076020908152604091829020805460ff1916909417909355519081527f6ae172837ea30b801fbfcdd4108aa1d5bf8ff775444fd70256b44e6bf3dfc3f691015b60405180910390a150565b3360008181526009602052604090205460ff161515600114610b4e5760405162461bcd60e51b81526004016103699061150d565b610962838361116e565b3360009081526001602090815260408083206001600160a01b038616845290915281205482811015610bda5760405162461bcd60e51b815260206004820152602560248201527f45524332303a2064656372656173656420616c6c6f77616e63652062656c6f77604482015264207a65726f60d81b6064820152608401610369565b610be73385858403610d9c565b5060019392505050565b60006105fd338484610ec0565b600881815481106106c057600080fd5b6005546001600160a01b03163314610c385760405162461bcd60e51b815260040161036990611401565b600580546001600160a01b031916905560405133907f304f6683eb447bb2735a3ff9e8cb4fc95da891f1ccdf933f2583f0222d26718290600090a2565b6005546001600160a01b03163314610c9f5760405162461bcd60e51b815260040161036990611401565b6001600160a01b03811660009081526009602052604090205460ff1615610d085760405162461bcd60e51b815260206004820181905260248201527f54686973206164647265737320697320616c72656164792061206275726e65726044820152606401610369565b6008805460018082019092557ff3f7a9fe364faab93b216da50a3214154f22a0a2b415b23a84c8169e8b636ee30180546001600160a01b0319166001600160a01b038416908117909155600081815260096020908152604091829020805460ff1916909417909355519081527f86e57fd2b90329052917118de7c3f521f400d439b9650deaa906a25b08b945609101610b0f565b6001600160a01b038316610dfe5760405162461bcd60e51b8152602060048201526024808201527f45524332303a20617070726f76652066726f6d20746865207a65726f206164646044820152637265737360e01b6064820152608401610369565b6001600160a01b038216610e5f5760405162461bcd60e51b815260206004820152602260248201527f45524332303a20617070726f766520746f20746865207a65726f206164647265604482015261737360f01b6064820152608401610369565b6001600160a01b0383811660008181526001602090815260408083209487168084529482529182902085905590518481527f8c5be1e5ebec7d5bd14f71427d1e84f3dd0314c0f7b2291e5b200ac8c7c3b925910160405180910390a3505050565b6001600160a01b038316610f245760405162461bcd60e51b815260206004820152602560248201527f45524332303a207472616e736665722066726f6d20746865207a65726f206164604482015264647265737360d81b6064820152608401610369565b6001600160a01b038216610f865760405162461bcd60e51b815260206004820152602360248201527f45524332303a207472616e7366657220746f20746865207a65726f206164647260448201526265737360e81b6064820152608401610369565b6001600160a01b03831660009081526020819052604090205481811015610ffe5760405162461bcd60e51b815260206004820152602660248201527f45524332303a207472616e7366657220616d6f756e7420657863656564732062604482015265616c616e636560d01b6064820152608401610369565b6001600160a01b03808516600090815260208190526040808220858503905591851681529081208054849290611035908490611489565b92505081905550826001600160a01b0316846001600160a01b03167fddf252ad1be2c89b69c2b068fc378daa952ba7f163c4a11628f55a4df523b3ef8460405161108191815260200190565b60405180910390a350505050565b6001600160a01b0382166110e55760405162461bcd60e51b815260206004820152601f60248201527f45524332303a206d696e7420746f20746865207a65726f2061646472657373006044820152606401610369565b80600260008282546110f79190611489565b90915550506001600160a01b03821660009081526020819052604081208054839290611124908490611489565b90915550506040518181526001600160a01b038316906000907fddf252ad1be2c89b69c2b068fc378daa952ba7f163c4a11628f55a4df523b3ef9060200160405180910390a35050565b6001600160a01b0382166111ce5760405162461bcd60e51b815260206004820152602160248201527f45524332303a206275726e2066726f6d20746865207a65726f206164647265736044820152607360f81b6064820152608401610369565b6001600160a01b038216600090815260208190526040902054818110156112425760405162461bcd60e51b815260206004820152602260248201527f45524332303a206275726e20616d6f756e7420657863656564732062616c616e604482015261636560f01b6064820152608401610369565b6001600160a01b0383166000908152602081905260408120838303905560028054849290611271908490611472565b90915550506040518281526000906001600160a01b038516907fddf252ad1be2c89b69c2b068fc378daa952ba7f163c4a11628f55a4df523b3ef9060200160405180910390a3505050565b80356001600160a01b03811681146112d357600080fd5b919050565b6000602082840312156112ea57600080fd5b6112f3826112bc565b9392505050565b600060208083528351808285015260005b818110156113275785810183015185820160400152820161130b565b81811115611339576000604083870101525b50601f01601f1916929092016040019392505050565b6000806040838503121561136257600080fd5b61136b836112bc565b946020939093013593505050565b60008060006060848603121561138e57600080fd5b611397846112bc565b92506113a5602085016112bc565b9150604084013590509250925092565b6000602082840312156113c757600080fd5b5035919050565b600080604083850312156113e157600080fd5b6113ea836112bc565b91506113f8602084016112bc565b90509250929050565b60208082526025908201527f4f6e6c7920746865206f776e65722063616e2063616c6c20746869732066756e60408201526431ba34b7b760d91b606082015260800190565b634e487b7160e01b600052603260045260246000fd5b634e487b7160e01b600052601160045260246000fd5b6000828210156114845761148461145c565b500390565b6000821982111561149c5761149c61145c565b500190565b60006000198214156114b5576114b561145c565b5060010190565b634e487b7160e01b600052603160045260246000fd5b600181811c908216806114e657607f821691505b6020821081141561150757634e487b7160e01b600052602260045260246000fd5b50919050565b6020808252603a908201527f4f6e6c7920746865206164647265737320696e20746865206d696e746572206c60408201527f6973742063616e2063616c6c20746869732066756e6374696f6e00000000000060608201526080019056fea2646970667358221220b4664fce333229aa6763efc123c2bd391267e7033b3310ad3cc6060db0331bc964736f6c63430008090033",
  "immutableReferences": {},
  "source": "// SPDX-License-Identifier: MIT\npragma solidity 0.8.9;\n\nimport \"@openzeppelin/contracts/token/ERC20/ERC20.sol\";\nimport \"./interfaces/IBuyerToken.sol\";\n\n/**\n * @title  Buyer Token\n * @notice Buyer tokens are distributed to buyers corresponding to the usd value they spend.\n *         You can deposit and burn your buyer tokens into purchaseIncentiveVault.\n *         Periodical reward will be given to the participants in purchaseIncentiveVault.\n */\n\ncontract BuyerToken is ERC20(\"DegisBuyerToken\", \"DBT\"), IBuyerToken {\n    address public owner;\n\n    address[] public minterList;\n    mapping(address => bool) isMinter;\n\n    address[] public burnerList;\n    mapping(address => bool) isBurner;\n\n    constructor() {\n        owner = msg.sender;\n        minterList.push(msg.sender);\n        isMinter[msg.sender] = true;\n    }\n\n    modifier onlyOwner() {\n        require(msg.sender == owner, \"Only the owner can call this function\");\n        _;\n    }\n\n    // Check if the msg.sender is in the minter list\n    modifier inMinterList(address _sender) {\n        require(\n            isMinter[_sender] == true,\n            \"Only the address in the minter list can call this function\"\n        );\n        _;\n    }\n\n    // Check if the msg.sender is in the burner list\n    modifier inBurnerList(address _sender) {\n        require(\n            isBurner[_sender] == true,\n            \"Only the address in the minter list can call this function\"\n        );\n        _;\n    }\n\n    /**\n     * @notice Add a new minter into the list\n     * @param _newMinter Address of the new minter\n     */\n    function addMinter(address _newMinter) public onlyOwner {\n        require(\n            isMinter[_newMinter] == false,\n            \"This address is already a minter\"\n        );\n        minterList.push(_newMinter);\n        isMinter[_newMinter] = true;\n\n        emit MinterAdded(_newMinter);\n    }\n\n    /**\n     * @notice Remove a minter from the list\n     * @param _oldMinter Address of the minter to be removed\n     */\n    function removeMinter(address _oldMinter) public onlyOwner {\n        require(isMinter[_oldMinter] == true, \"This address is not a minter\");\n\n        uint256 length = minterList.length;\n        for (uint256 i = 0; i < length; i++) {\n            if (minterList[i] == _oldMinter) {\n                for (uint256 j = i; j < length - 1; j++) {\n                    minterList[j] = minterList[j + 1];\n                }\n                minterList.pop();\n            } else continue;\n        }\n\n        isMinter[_oldMinter] = false;\n\n        emit MinterRemoved(_oldMinter);\n    }\n\n    /**\n     * @notice Add a new burner into the list\n     * @param _newBurner Address of the new burner\n     */\n    function addBurner(address _newBurner) public onlyOwner {\n        require(\n            isBurner[_newBurner] == false,\n            \"This address is already a burner\"\n        );\n        burnerList.push(_newBurner);\n        isBurner[_newBurner] = true;\n\n        emit BurnerAdded(_newBurner);\n    }\n\n    /**\n     * @notice Remove a minter from the list\n     * @param _oldBurner Address of the minter to be removed\n     */\n    function removeBurner(address _oldBurner) public onlyOwner {\n        require(isMinter[_oldBurner] == true, \"This address is not a burner\");\n\n        uint256 length = burnerList.length;\n        for (uint256 i = 0; i < length; i++) {\n            if (burnerList[i] == _oldBurner) {\n                for (uint256 j = i; j < length - 1; j++) {\n                    burnerList[j] = burnerList[j + 1];\n                }\n                burnerList.pop();\n            } else continue;\n        }\n        isBurner[_oldBurner] = false;\n\n        emit BurnerRemoved(_oldBurner);\n    }\n\n    /**\n     * @notice Pass the owner role to a new address, only the owner can change the owner\n     * @param _newOwner New owner's address\n     */\n    function passOwnership(address _newOwner) public onlyOwner {\n        owner = _newOwner;\n        emit OwnerChanged(msg.sender, _newOwner);\n    }\n\n    /**\n     * @notice Release the ownership to zero address, can never get back !\n     */\n    function releaseOwnership() public onlyOwner {\n        owner = address(0);\n        emit ReleaseOwnership(msg.sender);\n    }\n\n    /**\n     * @notice Mint some buyer tokens\n     * @param _account Address to receive the tokens\n     * @param _amount Amount to be minted\n     */\n    function mint(address _account, uint256 _amount)\n        public\n        inMinterList(msg.sender)\n    {\n        _mint(_account, _amount);\n    }\n\n    /**\n     * @notice Burn some buyer tokens\n     * @param _account Address to burn tokens\n     * @param _amount Amount to be burned\n     */\n    function burn(address _account, uint256 _amount)\n        public\n        inBurnerList(msg.sender)\n    {\n        _burn(_account, _amount);\n    }\n}\n",
  "sourcePath": "/Volumes/Store/src/Degis-Staking/contracts/BuyerToken.sol",
  "compiler": {
    "name": "solc",
    "version": "0.8.9+commit.e5eed63a.Emscripten.clang"
  },
  "schemaVersion": "3.4.3",
  "updatedAt": "2021-12-02T13:56:56.543Z",
  "networkType": "ethereum",
  "devdoc": {
    "kind": "dev",
    "methods": {
      "addBurner(address)": {
        "params": {
          "_newBurner": "Address of the new burner"
        }
      },
      "addMinter(address)": {
        "params": {
          "_newMinter": "Address of the new minter"
        }
      },
      "allowance(address,address)": {
        "details": "See {IERC20-allowance}."
      },
      "approve(address,uint256)": {
        "details": "See {IERC20-approve}. Requirements: - `spender` cannot be the zero address."
      },
      "balanceOf(address)": {
        "details": "See {IERC20-balanceOf}."
      },
      "burn(address,uint256)": {
        "params": {
          "_account": "Address to burn tokens",
          "_amount": "Amount to be burned"
        }
      },
      "decimals()": {
        "details": "Returns the number of decimals used to get its user representation. For example, if `decimals` equals `2`, a balance of `505` tokens should be displayed to a user as `5.05` (`505 / 10 ** 2`). Tokens usually opt for a value of 18, imitating the relationship between Ether and Wei. This is the value {ERC20} uses, unless this function is overridden; NOTE: This information is only used for _display_ purposes: it in no way affects any of the arithmetic of the contract, including {IERC20-balanceOf} and {IERC20-transfer}."
      },
      "decreaseAllowance(address,uint256)": {
        "details": "Atomically decreases the allowance granted to `spender` by the caller. This is an alternative to {approve} that can be used as a mitigation for problems described in {IERC20-approve}. Emits an {Approval} event indicating the updated allowance. Requirements: - `spender` cannot be the zero address. - `spender` must have allowance for the caller of at least `subtractedValue`."
      },
      "increaseAllowance(address,uint256)": {
        "details": "Atomically increases the allowance granted to `spender` by the caller. This is an alternative to {approve} that can be used as a mitigation for problems described in {IERC20-approve}. Emits an {Approval} event indicating the updated allowance. Requirements: - `spender` cannot be the zero address."
      },
      "mint(address,uint256)": {
        "params": {
          "_account": "Address to receive the tokens",
          "_amount": "Amount to be minted"
        }
      },
      "name()": {
        "details": "Returns the name of the token."
      },
      "passOwnership(address)": {
        "params": {
          "_newOwner": "New owner's address"
        }
      },
      "removeBurner(address)": {
        "params": {
          "_oldBurner": "Address of the minter to be removed"
        }
      },
      "removeMinter(address)": {
        "params": {
          "_oldMinter": "Address of the minter to be removed"
        }
      },
      "symbol()": {
        "details": "Returns the symbol of the token, usually a shorter version of the name."
      },
      "totalSupply()": {
        "details": "See {IERC20-totalSupply}."
      },
      "transfer(address,uint256)": {
        "details": "See {IERC20-transfer}. Requirements: - `recipient` cannot be the zero address. - the caller must have a balance of at least `amount`."
      },
      "transferFrom(address,address,uint256)": {
        "details": "See {IERC20-transferFrom}. Emits an {Approval} event indicating the updated allowance. This is not required by the EIP. See the note at the beginning of {ERC20}. Requirements: - `sender` and `recipient` cannot be the zero address. - `sender` must have a balance of at least `amount`. - the caller must have allowance for ``sender``'s tokens of at least `amount`."
      }
    },
    "title": "Buyer Token",
    "version": 1
  },
  "userdoc": {
    "kind": "user",
    "methods": {
      "addBurner(address)": {
        "notice": "Add a new burner into the list"
      },
      "addMinter(address)": {
        "notice": "Add a new minter into the list"
      },
      "burn(address,uint256)": {
        "notice": "Burn some buyer tokens"
      },
      "mint(address,uint256)": {
        "notice": "Mint some buyer tokens"
      },
      "passOwnership(address)": {
        "notice": "Pass the owner role to a new address, only the owner can change the owner"
      },
      "releaseOwnership()": {
        "notice": "Release the ownership to zero address, can never get back !"
      },
      "removeBurner(address)": {
        "notice": "Remove a minter from the list"
      },
      "removeMinter(address)": {
        "notice": "Remove a minter from the list"
      }
    },
    "notice": "Buyer tokens are distributed to buyers corresponding to the usd value they spend.         You can deposit and burn your buyer tokens into purchaseIncentiveVault.         Periodical reward will be given to the participants in purchaseIncentiveVault.",
    "version": 1
  }
}