{
  "contractName": "DegisToken",
  "abi": [
    {
      "inputs": [],
      "stateMutability": "nonpayable",
      "type": "constructor"
    },
    {
      "anonymous": false,
      "inputs": [
        {
          "indexed": true,
          "internalType": "address",
          "name": "owner",
          "type": "address"
        },
        {
          "indexed": true,
          "internalType": "address",
          "name": "spender",
          "type": "address"
        },
        {
          "indexed": false,
          "internalType": "uint256",
          "name": "value",
          "type": "uint256"
        }
      ],
      "name": "Approval",
      "type": "event"
    },
    {
      "anonymous": false,
      "inputs": [
        {
          "indexed": false,
          "internalType": "address",
          "name": "_newBurner",
          "type": "address"
        }
      ],
      "name": "BurnerAdded",
      "type": "event"
    },
    {
      "anonymous": false,
      "inputs": [
        {
          "indexed": false,
          "internalType": "address",
          "name": "_oldBurner",
          "type": "address"
        }
      ],
      "name": "BurnerRemoved",
      "type": "event"
    },
    {
      "anonymous": false,
      "inputs": [
        {
          "indexed": true,
          "internalType": "address",
          "name": "_owner",
          "type": "address"
        },
        {
          "indexed": false,
          "internalType": "uint256",
          "name": "_blockNumber",
          "type": "uint256"
        }
      ],
      "name": "CloseOwnerMint",
      "type": "event"
    },
    {
      "anonymous": false,
      "inputs": [
        {
          "indexed": false,
          "internalType": "address",
          "name": "_account",
          "type": "address"
        },
        {
          "indexed": false,
          "internalType": "uint256",
          "name": "_amount",
          "type": "uint256"
        }
      ],
      "name": "MintByOwner",
      "type": "event"
    },
    {
      "anonymous": false,
      "inputs": [
        {
          "indexed": false,
          "internalType": "address",
          "name": "_newMinter",
          "type": "address"
        }
      ],
      "name": "MinterAdded",
      "type": "event"
    },
    {
      "anonymous": false,
      "inputs": [
        {
          "indexed": false,
          "internalType": "address",
          "name": "_oldMinter",
          "type": "address"
        }
      ],
      "name": "MinterRemoved",
      "type": "event"
    },
    {
      "anonymous": false,
      "inputs": [
        {
          "indexed": true,
          "internalType": "address",
          "name": "_oldOwner",
          "type": "address"
        },
        {
          "indexed": true,
          "internalType": "address",
          "name": "_newOwner",
          "type": "address"
        }
      ],
      "name": "OwnerChanged",
      "type": "event"
    },
    {
      "anonymous": false,
      "inputs": [
        {
          "indexed": true,
          "internalType": "address",
          "name": "_oldOwner",
          "type": "address"
        }
      ],
      "name": "ReleaseOwnership",
      "type": "event"
    },
    {
      "anonymous": false,
      "inputs": [
        {
          "indexed": true,
          "internalType": "address",
          "name": "from",
          "type": "address"
        },
        {
          "indexed": true,
          "internalType": "address",
          "name": "to",
          "type": "address"
        },
        {
          "indexed": false,
          "internalType": "uint256",
          "name": "value",
          "type": "uint256"
        }
      ],
      "name": "Transfer",
      "type": "event"
    },
    {
      "inputs": [],
      "name": "DEGIS_CAP",
      "outputs": [
        {
          "internalType": "uint256",
          "name": "",
          "type": "uint256"
        }
      ],
      "stateMutability": "view",
      "type": "function",
      "constant": true
    },
    {
      "inputs": [],
      "name": "DOMAIN_SEPARATOR",
      "outputs": [
        {
          "internalType": "bytes32",
          "name": "",
          "type": "bytes32"
        }
      ],
      "stateMutability": "view",
      "type": "function",
      "constant": true
    },
    {
      "inputs": [
        {
          "internalType": "address",
          "name": "owner",
          "type": "address"
        },
        {
          "internalType": "address",
          "name": "spender",
          "type": "address"
        }
      ],
      "name": "allowance",
      "outputs": [
        {
          "internalType": "uint256",
          "name": "",
          "type": "uint256"
        }
      ],
      "stateMutability": "view",
      "type": "function",
      "constant": true
    },
    {
      "inputs": [
        {
          "internalType": "address",
          "name": "spender",
          "type": "address"
        },
        {
          "internalType": "uint256",
          "name": "amount",
          "type": "uint256"
        }
      ],
      "name": "approve",
      "outputs": [
        {
          "internalType": "bool",
          "name": "",
          "type": "bool"
        }
      ],
      "stateMutability": "nonpayable",
      "type": "function"
    },
    {
      "inputs": [
        {
          "internalType": "address",
          "name": "account",
          "type": "address"
        }
      ],
      "name": "balanceOf",
      "outputs": [
        {
          "internalType": "uint256",
          "name": "",
          "type": "uint256"
        }
      ],
      "stateMutability": "view",
      "type": "function",
      "constant": true
    },
    {
      "inputs": [
        {
          "internalType": "uint256",
          "name": "",
          "type": "uint256"
        }
      ],
      "name": "burnerList",
      "outputs": [
        {
          "internalType": "address",
          "name": "",
          "type": "address"
        }
      ],
      "stateMutability": "view",
      "type": "function",
      "constant": true
    },
    {
      "inputs": [],
      "name": "decimals",
      "outputs": [
        {
          "internalType": "uint8",
          "name": "",
          "type": "uint8"
        }
      ],
      "stateMutability": "view",
      "type": "function",
      "constant": true
    },
    {
      "inputs": [
        {
          "internalType": "address",
          "name": "spender",
          "type": "address"
        },
        {
          "internalType": "uint256",
          "name": "subtractedValue",
          "type": "uint256"
        }
      ],
      "name": "decreaseAllowance",
      "outputs": [
        {
          "internalType": "bool",
          "name": "",
          "type": "bool"
        }
      ],
      "stateMutability": "nonpayable",
      "type": "function"
    },
    {
      "inputs": [
        {
          "internalType": "address",
          "name": "spender",
          "type": "address"
        },
        {
          "internalType": "uint256",
          "name": "addedValue",
          "type": "uint256"
        }
      ],
      "name": "increaseAllowance",
      "outputs": [
        {
          "internalType": "bool",
          "name": "",
          "type": "bool"
        }
      ],
      "stateMutability": "nonpayable",
      "type": "function"
    },
    {
      "inputs": [
        {
          "internalType": "uint256",
          "name": "",
          "type": "uint256"
        }
      ],
      "name": "minterList",
      "outputs": [
        {
          "internalType": "address",
          "name": "",
          "type": "address"
        }
      ],
      "stateMutability": "view",
      "type": "function",
      "constant": true
    },
    {
      "inputs": [],
      "name": "name",
      "outputs": [
        {
          "internalType": "string",
          "name": "",
          "type": "string"
        }
      ],
      "stateMutability": "view",
      "type": "function",
      "constant": true
    },
    {
      "inputs": [
        {
          "internalType": "address",
          "name": "owner",
          "type": "address"
        }
      ],
      "name": "nonces",
      "outputs": [
        {
          "internalType": "uint256",
          "name": "",
          "type": "uint256"
        }
      ],
      "stateMutability": "view",
      "type": "function",
      "constant": true
    },
    {
      "inputs": [],
      "name": "owner",
      "outputs": [
        {
          "internalType": "address",
          "name": "",
          "type": "address"
        }
      ],
      "stateMutability": "view",
      "type": "function",
      "constant": true
    },
    {
      "inputs": [],
      "name": "ownerMintEnabled",
      "outputs": [
        {
          "internalType": "bool",
          "name": "",
          "type": "bool"
        }
      ],
      "stateMutability": "view",
      "type": "function",
      "constant": true
    },
    {
      "inputs": [
        {
          "internalType": "address",
          "name": "owner",
          "type": "address"
        },
        {
          "internalType": "address",
          "name": "spender",
          "type": "address"
        },
        {
          "internalType": "uint256",
          "name": "value",
          "type": "uint256"
        },
        {
          "internalType": "uint256",
          "name": "deadline",
          "type": "uint256"
        },
        {
          "internalType": "uint8",
          "name": "v",
          "type": "uint8"
        },
        {
          "internalType": "bytes32",
          "name": "r",
          "type": "bytes32"
        },
        {
          "internalType": "bytes32",
          "name": "s",
          "type": "bytes32"
        }
      ],
      "name": "permit",
      "outputs": [],
      "stateMutability": "nonpayable",
      "type": "function"
    },
    {
      "inputs": [],
      "name": "symbol",
      "outputs": [
        {
          "internalType": "string",
          "name": "",
          "type": "string"
        }
      ],
      "stateMutability": "view",
      "type": "function",
      "constant": true
    },
    {
      "inputs": [],
      "name": "totalSupply",
      "outputs": [
        {
          "internalType": "uint256",
          "name": "",
          "type": "uint256"
        }
      ],
      "stateMutability": "view",
      "type": "function",
      "constant": true
    },
    {
      "inputs": [
        {
          "internalType": "address",
          "name": "recipient",
          "type": "address"
        },
        {
          "internalType": "uint256",
          "name": "amount",
          "type": "uint256"
        }
      ],
      "name": "transfer",
      "outputs": [
        {
          "internalType": "bool",
          "name": "",
          "type": "bool"
        }
      ],
      "stateMutability": "nonpayable",
      "type": "function"
    },
    {
      "inputs": [
        {
          "internalType": "address",
          "name": "sender",
          "type": "address"
        },
        {
          "internalType": "address",
          "name": "recipient",
          "type": "address"
        },
        {
          "internalType": "uint256",
          "name": "amount",
          "type": "uint256"
        }
      ],
      "name": "transferFrom",
      "outputs": [
        {
          "internalType": "bool",
          "name": "",
          "type": "bool"
        }
      ],
      "stateMutability": "nonpayable",
      "type": "function"
    },
    {
      "inputs": [],
      "name": "cap",
      "outputs": [
        {
          "internalType": "uint256",
          "name": "",
          "type": "uint256"
        }
      ],
      "stateMutability": "pure",
      "type": "function",
      "constant": true
    },
    {
      "inputs": [],
      "name": "closeOwnerMint",
      "outputs": [],
      "stateMutability": "nonpayable",
      "type": "function"
    },
    {
      "inputs": [
        {
          "internalType": "address",
          "name": "_newMinter",
          "type": "address"
        }
      ],
      "name": "addMinter",
      "outputs": [],
      "stateMutability": "nonpayable",
      "type": "function"
    },
    {
      "inputs": [
        {
          "internalType": "address",
          "name": "_oldMinter",
          "type": "address"
        }
      ],
      "name": "removeMinter",
      "outputs": [],
      "stateMutability": "nonpayable",
      "type": "function"
    },
    {
      "inputs": [
        {
          "internalType": "address",
          "name": "_newBurner",
          "type": "address"
        }
      ],
      "name": "addBurner",
      "outputs": [],
      "stateMutability": "nonpayable",
      "type": "function"
    },
    {
      "inputs": [
        {
          "internalType": "address",
          "name": "_oldBurner",
          "type": "address"
        }
      ],
      "name": "removeBurner",
      "outputs": [],
      "stateMutability": "nonpayable",
      "type": "function"
    },
    {
      "inputs": [
        {
          "internalType": "address",
          "name": "_newOwner",
          "type": "address"
        }
      ],
      "name": "passOwnership",
      "outputs": [],
      "stateMutability": "nonpayable",
      "type": "function"
    },
    {
      "inputs": [],
      "name": "releaseOwnership",
      "outputs": [],
      "stateMutability": "nonpayable",
      "type": "function"
    },
    {
      "inputs": [
        {
          "internalType": "address",
          "name": "_account",
          "type": "address"
        },
        {
          "internalType": "uint256",
          "name": "_amount",
          "type": "uint256"
        }
      ],
      "name": "mint",
      "outputs": [],
      "stateMutability": "nonpayable",
      "type": "function"
    },
    {
      "inputs": [
        {
          "internalType": "address",
          "name": "_account",
          "type": "address"
        },
        {
          "internalType": "uint256",
          "name": "_amount",
          "type": "uint256"
        }
      ],
      "name": "mintByOwner",
      "outputs": [],
      "stateMutability": "nonpayable",
      "type": "function"
    },
    {
      "inputs": [
        {
          "internalType": "address",
          "name": "_account",
          "type": "address"
        },
        {
          "internalType": "uint256",
          "name": "_amount",
          "type": "uint256"
        }
      ],
      "name": "burn",
      "outputs": [],
      "stateMutability": "nonpayable",
      "type": "function"
    }
  ],
  "bytecode": "0x6101406040527f6e71edae12b1b97f4d1f60370fef10105fa2faae0126114a169c64845d6126c9610120523480156200003757600080fd5b506040518060400160405280600a8152602001692232b3b4b9aa37b5b2b760b11b81525080604051806040016040528060018152602001603160f81b8152506040518060400160405280600a8152602001692232b3b4b9aa37b5b2b760b11b81525060405180604001604052806005815260200164444547495360d81b8152508160039080519060200190620000cf9291906200019a565b508051620000e59060049060208401906200019a565b5050825160208085019190912083518483012060c082815260e08290524660a0818152604080517f8b73c3c69bb8fe3d512ecc4cf759cc79239f7b179b0ffacaa9a75d522b39400f818901819052818301889052606082018790526080820194909452308184015281518082039093018352909301909252815191909401209193509190608052610100525050600680546001600160a01b031916331790555050600b805460ff19166001179055506200027d565b828054620001a89062000240565b90600052602060002090601f016020900481019282620001cc576000855562000217565b82601f10620001e757805160ff191683800117855562000217565b8280016001018555821562000217579182015b8281111562000217578251825591602001919060010190620001fa565b506200022592915062000229565b5090565b5b808211156200022557600081556001016200022a565b600181811c908216806200025557607f821691505b602082108114156200027757634e487b7160e01b600052602260045260246000fd5b50919050565b60805160a05160c05160e0516101005161012051611e69620002cd6000396000610ed701526000611586015260006115d5015260006115b0015260006115340152600061155d0152611e696000f3fe608060405234801561001057600080fd5b50600436106101da5760003560e01c80636250ed9b11610104578063a457c2d7116100a2578063d85633ec11610071578063d85633ec146103eb578063dd62ed3e146103f3578063e15709e41461042c578063f44637ba1461043f57600080fd5b8063a457c2d71461039f578063a9059cbb146103b2578063abd8e23d146103c5578063d505accf146103d857600080fd5b80638da5cb5b116100de5780638da5cb5b1461035e57806395d89b4114610371578063983b2d56146103795780639dc29fac1461038c57600080fd5b80636250ed9b1461031557806370a08231146103225780637ecebe001461034b57600080fd5b80633092afd51161017c5780633644e5151161014b5780633644e515146102d457806339509351146102dc57806340c10f19146102ef578063620996df1461030257600080fd5b80633092afd51461028d578063313ce567146102a05780633542aee2146102af578063355274ea146102c257600080fd5b806318160ddd116101b857806318160ddd146102355780631f673b5e1461024757806323b872dd1461024f578063279ad7ab1461026257600080fd5b806302846858146101df57806306fdde03146101f4578063095ea7b314610212575b600080fd5b6101f26101ed366004611ad6565b610452565b005b6101fc610659565b6040516102099190611af8565b60405180910390f35b610225610220366004611b4d565b6106eb565b6040519015158152602001610209565b6002545b604051908152602001610209565b6101f2610701565b61022561025d366004611b77565b610779565b610275610270366004611bb3565b610823565b6040516001600160a01b039091168152602001610209565b6101f261029b366004611ad6565b61084d565b60405160128152602001610209565b6101f26102bd366004611b4d565b610a43565b6b033b2e3c9fd0803ce8000000610239565b610239610afe565b6102256102ea366004611b4d565b610b0d565b6101f26102fd366004611b4d565b610b49565b6101f2610310366004611ad6565b610bcd565b600b546102259060ff1681565b610239610330366004611ad6565b6001600160a01b031660009081526020819052604090205490565b610239610359366004611ad6565b610c43565b600654610275906001600160a01b031681565b6101fc610c63565b6101f2610387366004611ad6565b610c72565b6101f261039a366004611b4d565b610d8a565b6102256103ad366004611b4d565b610dcd565b6102256103c0366004611b4d565b610e66565b6102756103d3366004611bb3565b610e73565b6101f26103e6366004611bcc565b610e83565b6101f2610fe7565b610239610401366004611c3f565b6001600160a01b03918216600090815260016020908152604080832093909416825291909152205490565b6102396b033b2e3c9fd0803ce800000081565b6101f261044d366004611ad6565b61104e565b6006546001600160a01b031633146104855760405162461bcd60e51b815260040161047c90611c72565b60405180910390fd5b6001600160a01b03811660009081526008602052604090205460ff1615156001146104f25760405162461bcd60e51b815260206004820152601c60248201527f546869732061646472657373206973206e6f742061206275726e657200000000604482015260640161047c565b60095460005b8181101561061757826001600160a01b03166009828154811061051d5761051d611cb7565b6000918252602090912001546001600160a01b0316141561060557805b610545600184611ce3565b8110156105d0576009610559826001611cfa565b8154811061056957610569611cb7565b600091825260209091200154600980546001600160a01b03909216918390811061059557610595611cb7565b600091825260209091200180546001600160a01b0319166001600160a01b0392909216919091179055806105c881611d12565b91505061053a565b5060098054806105e2576105e2611d2d565b600082815260209020810160001990810180546001600160a01b03191690550190555b8061060f81611d12565b9150506104f8565b506040516001600160a01b03831681527f90eabbc0c667db2a5029ed6bc0f5fe9f356d11684a4ca9fcfaec0e53f12b9c8e906020015b60405180910390a15050565b60606003805461066890611d43565b80601f016020809104026020016040519081016040528092919081815260200182805461069490611d43565b80156106e15780601f106106b6576101008083540402835291602001916106e1565b820191906000526020600020905b8154815290600101906020018083116106c457829003601f168201915b5050505050905090565b60006106f833848461115f565b50600192915050565b6006546001600160a01b0316331461072b5760405162461bcd60e51b815260040161047c90611c72565b600b805460ff191690556006546040514381526001600160a01b03909116907fa8bcfb88bfde722985fab2c8216e877bc4d1c3302896c978881b39a895338f7b9060200160405180910390a2565b6000610786848484611283565b6001600160a01b03841660009081526001602090815260408083203384529091529020548281101561080b5760405162461bcd60e51b815260206004820152602860248201527f45524332303a207472616e7366657220616d6f756e74206578636565647320616044820152676c6c6f77616e636560c01b606482015260840161047c565b610818853385840361115f565b506001949350505050565b6007818154811061083357600080fd5b6000918252602090912001546001600160a01b0316905081565b6006546001600160a01b031633146108775760405162461bcd60e51b815260040161047c90611c72565b6001600160a01b03811660009081526008602052604090205460ff1615156001146108e45760405162461bcd60e51b815260206004820152601c60248201527f546869732061646472657373206973206e6f742061206d696e74657200000000604482015260640161047c565b60075460005b81811015610a0957826001600160a01b03166007828154811061090f5761090f611cb7565b6000918252602090912001546001600160a01b031614156109f757805b610937600184611ce3565b8110156109c257600761094b826001611cfa565b8154811061095b5761095b611cb7565b600091825260209091200154600780546001600160a01b03909216918390811061098757610987611cb7565b600091825260209091200180546001600160a01b0319166001600160a01b0392909216919091179055806109ba81611d12565b91505061092c565b5060078054806109d4576109d4611d2d565b600082815260209020810160001990810180546001600160a01b03191690550190555b80610a0181611d12565b9150506108ea565b506040516001600160a01b03831681527fe94479a9f7e1952cc78f2d6baab678adc1b772d936c6583def489e524cb666929060200161064d565b6006546001600160a01b03163314610a6d5760405162461bcd60e51b815260040161047c90611c72565b806b033b2e3c9fd0803ce800000081610a8560025490565b610a8f9190611cfa565b1115610aad5760405162461bcd60e51b815260040161047c90611d78565b610ab78383611451565b604080516001600160a01b0385168152602081018490527fbfa26a581be175e9b5994742c96f70b3f64fd28f242ad54aa26ac9df857566f5910160405180910390a1505050565b6000610b08611530565b905090565b3360008181526001602090815260408083206001600160a01b038716845290915281205490916106f8918590610b44908690611cfa565b61115f565b806b033b2e3c9fd0803ce800000081610b6160025490565b610b6b9190611cfa565b1115610b895760405162461bcd60e51b815260040161047c90611d78565b3360008181526008602052604090205460ff161515600114610bbd5760405162461bcd60e51b815260040161047c90611dc0565b610bc78484611451565b50505050565b6006546001600160a01b03163314610bf75760405162461bcd60e51b815260040161047c90611c72565b600680546001600160a01b0319166001600160a01b03831690811790915560405133907fb532073b38c83145e3e5135377a08bf9aab55bc0fd7c1179cd4fb995d2a5159c90600090a350565b6001600160a01b0381166000908152600560205260408120545b92915050565b60606004805461066890611d43565b6006546001600160a01b03163314610c9c5760405162461bcd60e51b815260040161047c90611c72565b6001600160a01b03811660009081526008602052604090205460ff1615610d055760405162461bcd60e51b815260206004820181905260248201527f54686973206164647265737320697320616c72656164792061206d696e746572604482015260640161047c565b600780546001810182556000919091527fa66cc928b5edb82af9bd49922954155ab7b0942694bea4ce44661d9a8736c6880180546001600160a01b0319166001600160a01b0383169081179091556040519081527f6ae172837ea30b801fbfcdd4108aa1d5bf8ff775444fd70256b44e6bf3dfc3f6906020015b60405180910390a150565b336000818152600a602052604090205460ff161515600114610dbe5760405162461bcd60e51b815260040161047c90611dc0565b610dc88383611623565b505050565b3360009081526001602090815260408083206001600160a01b038616845290915281205482811015610e4f5760405162461bcd60e51b815260206004820152602560248201527f45524332303a2064656372656173656420616c6c6f77616e63652062656c6f77604482015264207a65726f60d81b606482015260840161047c565b610e5c338585840361115f565b5060019392505050565b60006106f8338484611283565b6009818154811061083357600080fd5b83421115610ed35760405162461bcd60e51b815260206004820152601d60248201527f45524332305065726d69743a206578706972656420646561646c696e65000000604482015260640161047c565b60007f0000000000000000000000000000000000000000000000000000000000000000888888610f028c611771565b6040805160208101969096526001600160a01b0394851690860152929091166060840152608083015260a082015260c0810186905260e0016040516020818303038152906040528051906020012090506000610f5d82611799565b90506000610f6d828787876117e7565b9050896001600160a01b0316816001600160a01b031614610fd05760405162461bcd60e51b815260206004820152601e60248201527f45524332305065726d69743a20696e76616c6964207369676e61747572650000604482015260640161047c565b610fdb8a8a8a61115f565b50505050505050505050565b6006546001600160a01b031633146110115760405162461bcd60e51b815260040161047c90611c72565b600680546001600160a01b031916905560405133907f304f6683eb447bb2735a3ff9e8cb4fc95da891f1ccdf933f2583f0222d26718290600090a2565b6006546001600160a01b031633146110785760405162461bcd60e51b815260040161047c90611c72565b6001600160a01b0381166000908152600a602052604090205460ff16156110e15760405162461bcd60e51b815260206004820181905260248201527f54686973206164647265737320697320616c72656164792061206275726e6572604482015260640161047c565b600980546001810182556000919091527f6e1540171b6c0c960b71a7020d9f60077f6af931a8bbf590da0223dacf75c7af0180546001600160a01b0319166001600160a01b0383169081179091556040519081527f86e57fd2b90329052917118de7c3f521f400d439b9650deaa906a25b08b9456090602001610d7f565b6001600160a01b0383166111c15760405162461bcd60e51b8152602060048201526024808201527f45524332303a20617070726f76652066726f6d20746865207a65726f206164646044820152637265737360e01b606482015260840161047c565b6001600160a01b0382166112225760405162461bcd60e51b815260206004820152602260248201527f45524332303a20617070726f766520746f20746865207a65726f206164647265604482015261737360f01b606482015260840161047c565b6001600160a01b0383811660008181526001602090815260408083209487168084529482529182902085905590518481527f8c5be1e5ebec7d5bd14f71427d1e84f3dd0314c0f7b2291e5b200ac8c7c3b925910160405180910390a3505050565b6001600160a01b0383166112e75760405162461bcd60e51b815260206004820152602560248201527f45524332303a207472616e736665722066726f6d20746865207a65726f206164604482015264647265737360d81b606482015260840161047c565b6001600160a01b0382166113495760405162461bcd60e51b815260206004820152602360248201527f45524332303a207472616e7366657220746f20746865207a65726f206164647260448201526265737360e81b606482015260840161047c565b6001600160a01b038316600090815260208190526040902054818110156113c15760405162461bcd60e51b815260206004820152602660248201527f45524332303a207472616e7366657220616d6f756e7420657863656564732062604482015265616c616e636560d01b606482015260840161047c565b6001600160a01b038085166000908152602081905260408082208585039055918516815290812080548492906113f8908490611cfa565b92505081905550826001600160a01b0316846001600160a01b03167fddf252ad1be2c89b69c2b068fc378daa952ba7f163c4a11628f55a4df523b3ef8460405161144491815260200190565b60405180910390a3610bc7565b6001600160a01b0382166114a75760405162461bcd60e51b815260206004820152601f60248201527f45524332303a206d696e7420746f20746865207a65726f206164647265737300604482015260640161047c565b80600260008282546114b99190611cfa565b90915550506001600160a01b038216600090815260208190526040812080548392906114e6908490611cfa565b90915550506040518181526001600160a01b038316906000907fddf252ad1be2c89b69c2b068fc378daa952ba7f163c4a11628f55a4df523b3ef9060200160405180910390a35050565b60007f000000000000000000000000000000000000000000000000000000000000000046141561157f57507f000000000000000000000000000000000000000000000000000000000000000090565b50604080517f00000000000000000000000000000000000000000000000000000000000000006020808301919091527f0000000000000000000000000000000000000000000000000000000000000000828401527f000000000000000000000000000000000000000000000000000000000000000060608301524660808301523060a0808401919091528351808403909101815260c0909201909252805191012090565b6001600160a01b0382166116835760405162461bcd60e51b815260206004820152602160248201527f45524332303a206275726e2066726f6d20746865207a65726f206164647265736044820152607360f81b606482015260840161047c565b6001600160a01b038216600090815260208190526040902054818110156116f75760405162461bcd60e51b815260206004820152602260248201527f45524332303a206275726e20616d6f756e7420657863656564732062616c616e604482015261636560f01b606482015260840161047c565b6001600160a01b0383166000908152602081905260408120838303905560028054849290611726908490611ce3565b90915550506040518281526000906001600160a01b038516907fddf252ad1be2c89b69c2b068fc378daa952ba7f163c4a11628f55a4df523b3ef9060200160405180910390a3505050565b6001600160a01b03811660009081526005602052604090208054600181018255905b50919050565b6000610c5d6117a6611530565b8360405161190160f01b6020820152602281018390526042810182905260009060620160405160208183030381529060405280519060200120905092915050565b60008060006117f88787878761180f565b91509150611805816118fc565b5095945050505050565b6000807f7fffffffffffffffffffffffffffffff5d576e7357a4501ddfe92f46681b20a083111561184657506000905060036118f3565b8460ff16601b1415801561185e57508460ff16601c14155b1561186f57506000905060046118f3565b6040805160008082526020820180845289905260ff881692820192909252606081018690526080810185905260019060a0016020604051602081039080840390855afa1580156118c3573d6000803e3d6000fd5b5050604051601f1901519150506001600160a01b0381166118ec576000600192509250506118f3565b9150600090505b94509492505050565b600081600481111561191057611910611e1d565b14156119195750565b600181600481111561192d5761192d611e1d565b141561197b5760405162461bcd60e51b815260206004820152601860248201527f45434453413a20696e76616c6964207369676e61747572650000000000000000604482015260640161047c565b600281600481111561198f5761198f611e1d565b14156119dd5760405162461bcd60e51b815260206004820152601f60248201527f45434453413a20696e76616c6964207369676e6174757265206c656e67746800604482015260640161047c565b60038160048111156119f1576119f1611e1d565b1415611a4a5760405162461bcd60e51b815260206004820152602260248201527f45434453413a20696e76616c6964207369676e6174757265202773272076616c604482015261756560f01b606482015260840161047c565b6004816004811115611a5e57611a5e611e1d565b1415611ab75760405162461bcd60e51b815260206004820152602260248201527f45434453413a20696e76616c6964207369676e6174757265202776272076616c604482015261756560f01b606482015260840161047c565b50565b80356001600160a01b0381168114611ad157600080fd5b919050565b600060208284031215611ae857600080fd5b611af182611aba565b9392505050565b600060208083528351808285015260005b81811015611b2557858101830151858201604001528201611b09565b81811115611b37576000604083870101525b50601f01601f1916929092016040019392505050565b60008060408385031215611b6057600080fd5b611b6983611aba565b946020939093013593505050565b600080600060608486031215611b8c57600080fd5b611b9584611aba565b9250611ba360208501611aba565b9150604084013590509250925092565b600060208284031215611bc557600080fd5b5035919050565b600080600080600080600060e0888a031215611be757600080fd5b611bf088611aba565b9650611bfe60208901611aba565b95506040880135945060608801359350608088013560ff81168114611c2257600080fd5b9699959850939692959460a0840135945060c09093013592915050565b60008060408385031215611c5257600080fd5b611c5b83611aba565b9150611c6960208401611aba565b90509250929050565b60208082526025908201527f4f6e6c7920746865206f776e65722063616e2063616c6c20746869732066756e60408201526431b4ba37b760d91b606082015260800190565b634e487b7160e01b600052603260045260246000fd5b634e487b7160e01b600052601160045260246000fd5b600082821015611cf557611cf5611ccd565b500390565b60008219821115611d0d57611d0d611ccd565b500190565b6000600019821415611d2657611d26611ccd565b5060010190565b634e487b7160e01b600052603160045260246000fd5b600181811c90821680611d5757607f821691505b6020821081141561179357634e487b7160e01b600052602260045260246000fd5b60208082526028908201527f4465676973546f6b656e206578636565647320746865206361702028313030206040820152676d696c6c696f6e2960c01b606082015260800190565b6020808252603a908201527f4f6e6c7920746865206164647265737320696e20746865206d696e746572206c60408201527f6973742063616e2063616c6c20746869732066756e6374696f6e000000000000606082015260800190565b634e487b7160e01b600052602160045260246000fdfea2646970667358221220eed06765e5b18b6f96129fe27951b38204e9a705b2e4177d72b79aa8f374912864736f6c63430008090033",
  "immutableReferences": {
    "676": [
      {
        "length": 32,
        "start": 3799
      }
    ],
    "1843": [
      {
        "length": 32,
        "start": 5469
      }
    ],
    "1845": [
      {
        "length": 32,
        "start": 5428
      }
    ],
    "1847": [
      {
        "length": 32,
        "start": 5552
      }
    ],
    "1849": [
      {
        "length": 32,
        "start": 5589
      }
    ],
    "1851": [
      {
        "length": 32,
        "start": 5510
      }
    ]
  },
  "source": "// SPDX-License-Identifier: MIT\npragma solidity 0.8.9;\n\nimport \"@openzeppelin/contracts/token/ERC20/extensions/draft-ERC20Permit.sol\";\nimport \"./interfaces/IDegisToken.sol\";\n\n/**@title  Degis Token\n * @notice DegisToken inherits from ERC20Votes which contains the ERC20 Permit.\n *         DegisToken can use the permit function rather than approve + transferFrom.\n *\n *         DegisToken has an owner, a minter and a burner.\n *         When lauched on mainnet, the owner may be removed or tranferred to a multisig.\n *         By default, the owner & minter account will be the one that deploys the contract.\n *         The minter may(and should) later be passed to InsurancePool.\n *         The burner may(and should) later be passed to EmergencyPool.\n */\ncontract DegisToken is ERC20Permit, IDegisToken {\n    address public owner;\n\n    address[] public minterList;\n    mapping(address => bool) isMinter;\n\n    address[] public burnerList;\n    mapping(address => bool) isBurner;\n\n    uint256 public constant DEGIS_CAP = 10e8 ether;\n\n    bool public ownerMintEnabled; // Whether enable the owner to mint\n\n    /**\n     * @notice Use ERC20 + ERC20Permit constructor and set the owner, minter and burner\n     */\n    constructor() ERC20(\"DegisToken\", \"DEGIS\") ERC20Permit(\"DegisToken\") {\n        owner = msg.sender;\n        // At the beginning, owner can mint tokens to the lock degis contract\n        ownerMintEnabled = true;\n    }\n\n    // Only the owner can call some functions\n    modifier onlyOwner() {\n        require(msg.sender == owner, \"Only the owner can call this funciton\");\n        _;\n    }\n\n    // Degis toke has a hard cap of 100 million\n    modifier notExceedCap(uint256 _amount) {\n        require(\n            totalSupply() + _amount <= cap(),\n            \"DegisToken exceeds the cap (100 million)\"\n        );\n        _;\n    }\n\n    // Check if the msg.sender is in the minter list\n    modifier inMinterList(address _sender) {\n        require(\n            isMinter[_sender] == true,\n            \"Only the address in the minter list can call this function\"\n        );\n        _;\n    }\n\n    // Check if the msg.sender is in the burner list\n    modifier inBurnerList(address _sender) {\n        require(\n            isBurner[_sender] == true,\n            \"Only the address in the minter list can call this function\"\n        );\n        _;\n    }\n\n    /**\n     * @dev Returns the cap on the token's total supply.\n     */\n    function cap() public pure returns (uint256) {\n        return DEGIS_CAP;\n    }\n\n    /**\n     * @notice Owner will not be able to mint tokens, used when investor tokens are minted\n     */\n    function closeOwnerMint() public onlyOwner {\n        ownerMintEnabled = false;\n        emit CloseOwnerMint(owner, block.number);\n    }\n\n    /**\n     * @notice Add a new minter into the list\n     * @param _newMinter Address of the new minter\n     */\n    function addMinter(address _newMinter) public onlyOwner {\n        require(\n            isMinter[_newMinter] == false,\n            \"This address is already a minter\"\n        );\n        minterList.push(_newMinter);\n\n        emit MinterAdded(_newMinter);\n    }\n\n    /**\n     * @notice Remove a minter from the list\n     * @param _oldMinter Address of the minter to be removed\n     */\n    function removeMinter(address _oldMinter) public onlyOwner {\n        require(isMinter[_oldMinter] == true, \"This address is not a minter\");\n\n        uint256 length = minterList.length;\n        for (uint256 i = 0; i < length; i++) {\n            if (minterList[i] == _oldMinter) {\n                for (uint256 j = i; j < length - 1; j++) {\n                    minterList[j] = minterList[j + 1];\n                }\n                minterList.pop();\n            } else continue;\n        }\n\n        emit MinterRemoved(_oldMinter);\n    }\n\n    /**\n     * @notice Add a new burner into the list\n     * @param _newBurner Address of the new burner\n     */\n    function addBurner(address _newBurner) public onlyOwner {\n        require(\n            isBurner[_newBurner] == false,\n            \"This address is already a burner\"\n        );\n        burnerList.push(_newBurner);\n\n        emit BurnerAdded(_newBurner);\n    }\n\n    /**\n     * @notice Remove a minter from the list\n     * @param _oldBurner Address of the minter to be removed\n     */\n    function removeBurner(address _oldBurner) public onlyOwner {\n        require(isMinter[_oldBurner] == true, \"This address is not a burner\");\n\n        uint256 length = burnerList.length;\n        for (uint256 i = 0; i < length; i++) {\n            if (burnerList[i] == _oldBurner) {\n                for (uint256 j = i; j < length - 1; j++) {\n                    burnerList[j] = burnerList[j + 1];\n                }\n                burnerList.pop();\n            } else continue;\n        }\n\n        emit BurnerRemoved(_oldBurner);\n    }\n\n    /**\n     * @notice Pass the owner role to a new address, only the owner can change the owner\n     * @param _newOwner New owner's address\n     */\n    function passOwnership(address _newOwner) public onlyOwner {\n        owner = _newOwner;\n        emit OwnerChanged(msg.sender, _newOwner);\n    }\n\n    /**\n     * @notice Release the ownership to zero address, can never get back !\n     */\n    function releaseOwnership() public onlyOwner {\n        owner = address(0);\n        emit ReleaseOwnership(msg.sender);\n    }\n\n    /**\n     * @notice Mint tokens\n     * @param _account Receiver's address\n     * @param _amount Amount to be minted\n     */\n    function mint(address _account, uint256 _amount)\n        public\n        notExceedCap(_amount)\n        inMinterList(msg.sender)\n    {\n        _mint(_account, _amount); // ERC20 method with an event\n    }\n\n    /**\n     * @notice Mint tokens by the owner\n     * @param _account Receiver's address (Should be the lockDegis contract)\n     * @param _amount Amount to be minted\n     */\n    function mintByOwner(address _account, uint256 _amount)\n        public\n        onlyOwner\n        notExceedCap(_amount)\n    {\n        _mint(_account, _amount);\n\n        emit MintByOwner(_account, _amount);\n    }\n\n    /**\n     * @notice Burn tokens\n     * @param _account address\n     * @param _amount amount to be burned\n     */\n    function burn(address _account, uint256 _amount)\n        public\n        inBurnerList(msg.sender)\n    {\n        _burn(_account, _amount);\n    }\n}\n",
  "sourcePath": "/Volumes/Store/src/Degis-Staking/contracts/DegisToken.sol",
  "compiler": {
    "name": "solc",
    "version": "0.8.9+commit.e5eed63a.Emscripten.clang"
  },
  "schemaVersion": "3.4.3",
  "updatedAt": "2021-11-29T11:16:29.931Z",
  "networkType": "ethereum",
  "devdoc": {
    "kind": "dev",
    "methods": {
      "DOMAIN_SEPARATOR()": {
        "details": "See {IERC20Permit-DOMAIN_SEPARATOR}."
      },
      "addBurner(address)": {
        "params": {
          "_newBurner": "Address of the new burner"
        }
      },
      "addMinter(address)": {
        "params": {
          "_newMinter": "Address of the new minter"
        }
      },
      "allowance(address,address)": {
        "details": "See {IERC20-allowance}."
      },
      "approve(address,uint256)": {
        "details": "See {IERC20-approve}. Requirements: - `spender` cannot be the zero address."
      },
      "balanceOf(address)": {
        "details": "See {IERC20-balanceOf}."
      },
      "burn(address,uint256)": {
        "params": {
          "_account": "address",
          "_amount": "amount to be burned"
        }
      },
      "cap()": {
        "details": "Returns the cap on the token's total supply."
      },
      "decimals()": {
        "details": "Returns the number of decimals used to get its user representation. For example, if `decimals` equals `2`, a balance of `505` tokens should be displayed to a user as `5.05` (`505 / 10 ** 2`). Tokens usually opt for a value of 18, imitating the relationship between Ether and Wei. This is the value {ERC20} uses, unless this function is overridden; NOTE: This information is only used for _display_ purposes: it in no way affects any of the arithmetic of the contract, including {IERC20-balanceOf} and {IERC20-transfer}."
      },
      "decreaseAllowance(address,uint256)": {
        "details": "Atomically decreases the allowance granted to `spender` by the caller. This is an alternative to {approve} that can be used as a mitigation for problems described in {IERC20-approve}. Emits an {Approval} event indicating the updated allowance. Requirements: - `spender` cannot be the zero address. - `spender` must have allowance for the caller of at least `subtractedValue`."
      },
      "increaseAllowance(address,uint256)": {
        "details": "Atomically increases the allowance granted to `spender` by the caller. This is an alternative to {approve} that can be used as a mitigation for problems described in {IERC20-approve}. Emits an {Approval} event indicating the updated allowance. Requirements: - `spender` cannot be the zero address."
      },
      "mint(address,uint256)": {
        "params": {
          "_account": "Receiver's address",
          "_amount": "Amount to be minted"
        }
      },
      "mintByOwner(address,uint256)": {
        "params": {
          "_account": "Receiver's address (Should be the lockDegis contract)",
          "_amount": "Amount to be minted"
        }
      },
      "name()": {
        "details": "Returns the name of the token."
      },
      "nonces(address)": {
        "details": "See {IERC20Permit-nonces}."
      },
      "passOwnership(address)": {
        "params": {
          "_newOwner": "New owner's address"
        }
      },
      "permit(address,address,uint256,uint256,uint8,bytes32,bytes32)": {
        "details": "See {IERC20Permit-permit}."
      },
      "removeBurner(address)": {
        "params": {
          "_oldBurner": "Address of the minter to be removed"
        }
      },
      "removeMinter(address)": {
        "params": {
          "_oldMinter": "Address of the minter to be removed"
        }
      },
      "symbol()": {
        "details": "Returns the symbol of the token, usually a shorter version of the name."
      },
      "totalSupply()": {
        "details": "See {IERC20-totalSupply}."
      },
      "transfer(address,uint256)": {
        "details": "See {IERC20-transfer}. Requirements: - `recipient` cannot be the zero address. - the caller must have a balance of at least `amount`."
      },
      "transferFrom(address,address,uint256)": {
        "details": "See {IERC20-transferFrom}. Emits an {Approval} event indicating the updated allowance. This is not required by the EIP. See the note at the beginning of {ERC20}. Requirements: - `sender` and `recipient` cannot be the zero address. - `sender` must have a balance of at least `amount`. - the caller must have allowance for ``sender``'s tokens of at least `amount`."
      }
    },
    "title": "Degis Token",
    "version": 1
  },
  "userdoc": {
    "kind": "user",
    "methods": {
      "addBurner(address)": {
        "notice": "Add a new burner into the list"
      },
      "addMinter(address)": {
        "notice": "Add a new minter into the list"
      },
      "burn(address,uint256)": {
        "notice": "Burn tokens"
      },
      "closeOwnerMint()": {
        "notice": "Owner will not be able to mint tokens, used when investor tokens are minted"
      },
      "constructor": {
        "notice": "Use ERC20 + ERC20Permit constructor and set the owner, minter and burner"
      },
      "mint(address,uint256)": {
        "notice": "Mint tokens"
      },
      "mintByOwner(address,uint256)": {
        "notice": "Mint tokens by the owner"
      },
      "passOwnership(address)": {
        "notice": "Pass the owner role to a new address, only the owner can change the owner"
      },
      "releaseOwnership()": {
        "notice": "Release the ownership to zero address, can never get back !"
      },
      "removeBurner(address)": {
        "notice": "Remove a minter from the list"
      },
      "removeMinter(address)": {
        "notice": "Remove a minter from the list"
      }
    },
    "notice": "DegisToken inherits from ERC20Votes which contains the ERC20 Permit.         DegisToken can use the permit function rather than approve + transferFrom.         DegisToken has an owner, a minter and a burner.         When lauched on mainnet, the owner may be removed or tranferred to a multisig.         By default, the owner & minter account will be the one that deploys the contract.         The minter may(and should) later be passed to InsurancePool.         The burner may(and should) later be passed to EmergencyPool.",
    "version": 1
  }
}