{
  "contractName": "DegisStaking",
  "abi": [
    {
      "inputs": [
        {
          "internalType": "address",
          "name": "_degis",
          "type": "address"
        }
      ],
      "stateMutability": "nonpayable",
      "type": "constructor"
    },
    {
      "anonymous": false,
      "inputs": [
        {
          "indexed": true,
          "internalType": "address",
          "name": "owner",
          "type": "address"
        },
        {
          "indexed": true,
          "internalType": "address",
          "name": "spender",
          "type": "address"
        },
        {
          "indexed": false,
          "internalType": "uint256",
          "name": "value",
          "type": "uint256"
        }
      ],
      "name": "Approval",
      "type": "event"
    },
    {
      "anonymous": false,
      "inputs": [
        {
          "indexed": true,
          "internalType": "address",
          "name": "from",
          "type": "address"
        },
        {
          "indexed": true,
          "internalType": "address",
          "name": "to",
          "type": "address"
        },
        {
          "indexed": false,
          "internalType": "uint256",
          "name": "value",
          "type": "uint256"
        }
      ],
      "name": "Transfer",
      "type": "event"
    },
    {
      "inputs": [
        {
          "internalType": "address",
          "name": "owner",
          "type": "address"
        },
        {
          "internalType": "address",
          "name": "spender",
          "type": "address"
        }
      ],
      "name": "allowance",
      "outputs": [
        {
          "internalType": "uint256",
          "name": "",
          "type": "uint256"
        }
      ],
      "stateMutability": "view",
      "type": "function"
    },
    {
      "inputs": [
        {
          "internalType": "address",
          "name": "spender",
          "type": "address"
        },
        {
          "internalType": "uint256",
          "name": "amount",
          "type": "uint256"
        }
      ],
      "name": "approve",
      "outputs": [
        {
          "internalType": "bool",
          "name": "",
          "type": "bool"
        }
      ],
      "stateMutability": "nonpayable",
      "type": "function"
    },
    {
      "inputs": [
        {
          "internalType": "address",
          "name": "account",
          "type": "address"
        }
      ],
      "name": "balanceOf",
      "outputs": [
        {
          "internalType": "uint256",
          "name": "",
          "type": "uint256"
        }
      ],
      "stateMutability": "view",
      "type": "function"
    },
    {
      "inputs": [],
      "name": "decimals",
      "outputs": [
        {
          "internalType": "uint8",
          "name": "",
          "type": "uint8"
        }
      ],
      "stateMutability": "view",
      "type": "function"
    },
    {
      "inputs": [
        {
          "internalType": "address",
          "name": "spender",
          "type": "address"
        },
        {
          "internalType": "uint256",
          "name": "subtractedValue",
          "type": "uint256"
        }
      ],
      "name": "decreaseAllowance",
      "outputs": [
        {
          "internalType": "bool",
          "name": "",
          "type": "bool"
        }
      ],
      "stateMutability": "nonpayable",
      "type": "function"
    },
    {
      "inputs": [],
      "name": "degisPerBlock",
      "outputs": [
        {
          "internalType": "uint256",
          "name": "",
          "type": "uint256"
        }
      ],
      "stateMutability": "view",
      "type": "function"
    },
    {
      "inputs": [
        {
          "internalType": "address",
          "name": "spender",
          "type": "address"
        },
        {
          "internalType": "uint256",
          "name": "addedValue",
          "type": "uint256"
        }
      ],
      "name": "increaseAllowance",
      "outputs": [
        {
          "internalType": "bool",
          "name": "",
          "type": "bool"
        }
      ],
      "stateMutability": "nonpayable",
      "type": "function"
    },
    {
      "inputs": [],
      "name": "name",
      "outputs": [
        {
          "internalType": "string",
          "name": "",
          "type": "string"
        }
      ],
      "stateMutability": "view",
      "type": "function"
    },
    {
      "inputs": [],
      "name": "owner",
      "outputs": [
        {
          "internalType": "address",
          "name": "",
          "type": "address"
        }
      ],
      "stateMutability": "view",
      "type": "function"
    },
    {
      "inputs": [],
      "name": "symbol",
      "outputs": [
        {
          "internalType": "string",
          "name": "",
          "type": "string"
        }
      ],
      "stateMutability": "view",
      "type": "function"
    },
    {
      "inputs": [],
      "name": "totalScores",
      "outputs": [
        {
          "internalType": "uint256",
          "name": "",
          "type": "uint256"
        }
      ],
      "stateMutability": "view",
      "type": "function"
    },
    {
      "inputs": [],
      "name": "totalSupply",
      "outputs": [
        {
          "internalType": "uint256",
          "name": "",
          "type": "uint256"
        }
      ],
      "stateMutability": "view",
      "type": "function"
    },
    {
      "inputs": [
        {
          "internalType": "address",
          "name": "recipient",
          "type": "address"
        },
        {
          "internalType": "uint256",
          "name": "amount",
          "type": "uint256"
        }
      ],
      "name": "transfer",
      "outputs": [
        {
          "internalType": "bool",
          "name": "",
          "type": "bool"
        }
      ],
      "stateMutability": "nonpayable",
      "type": "function"
    },
    {
      "inputs": [
        {
          "internalType": "address",
          "name": "sender",
          "type": "address"
        },
        {
          "internalType": "address",
          "name": "recipient",
          "type": "address"
        },
        {
          "internalType": "uint256",
          "name": "amount",
          "type": "uint256"
        }
      ],
      "name": "transferFrom",
      "outputs": [
        {
          "internalType": "bool",
          "name": "",
          "type": "bool"
        }
      ],
      "stateMutability": "nonpayable",
      "type": "function"
    },
    {
      "inputs": [
        {
          "internalType": "address",
          "name": "_userAddress",
          "type": "address"
        }
      ],
      "name": "pendingReward",
      "outputs": [],
      "stateMutability": "view",
      "type": "function"
    },
    {
      "inputs": [
        {
          "internalType": "uint256",
          "name": "_type",
          "type": "uint256"
        },
        {
          "internalType": "uint256",
          "name": "_amount",
          "type": "uint256"
        },
        {
          "internalType": "uint256",
          "name": "_length",
          "type": "uint256"
        }
      ],
      "name": "stake",
      "outputs": [],
      "stateMutability": "nonpayable",
      "type": "function"
    },
    {
      "inputs": [],
      "name": "unstake",
      "outputs": [],
      "stateMutability": "nonpayable",
      "type": "function"
    },
    {
      "inputs": [],
      "name": "settle",
      "outputs": [],
      "stateMutability": "nonpayable",
      "type": "function"
    }
  ],
  "bytecode": "0x60806040523480156200001157600080fd5b5060405162000f9438038062000f9483398101604081905262000034916200016c565b604080518082018252600c81526b44656769735374616b696e6760a01b60208083019182528351808501909452600684526578446567697360d01b9084015281519192916200008691600391620000c6565b5080516200009c906004906020840190620000c6565b5050600680546001600160a01b0319166001600160a01b03939093169290921790915550620001db565b828054620000d4906200019e565b90600052602060002090601f016020900481019282620000f8576000855562000143565b82601f106200011357805160ff191683800117855562000143565b8280016001018555821562000143579182015b828111156200014357825182559160200191906001019062000126565b506200015192915062000155565b5090565b5b8082111562000151576000815560010162000156565b6000602082840312156200017f57600080fd5b81516001600160a01b03811681146200019757600080fd5b9392505050565b600181811c90821680620001b357607f821691505b60208210811415620001d557634e487b7160e01b600052602260045260246000fd5b50919050565b610da980620001eb6000396000f3fe608060405234801561001057600080fd5b50600436106101165760003560e01c806370a08231116100a2578063a457c2d711610071578063a457c2d714610217578063a638f2e21461022a578063a9059cbb1461023d578063dd62ed3e14610250578063f40f0f521461028957600080fd5b806370a08231146101b25780638354d1c8146101db5780638da5cb5b146101e457806395d89b411461020f57600080fd5b806318160ddd116100e957806318160ddd1461017557806323b872dd1461017d5780632def66201461015c578063313ce56714610190578063395093511461019f57600080fd5b806306fdde031461011b578063095ea7b31461013957806311da60b41461015c57806313408ffb1461015e575b600080fd5b61012361029a565b6040516101309190610b8c565b60405180910390f35b61014c610147366004610bdb565b61032c565b6040519015158152602001610130565b005b61016760085481565b604051908152602001610130565b600254610167565b61014c61018b366004610c05565b610342565b60405160128152602001610130565b61014c6101ad366004610bdb565b6103f3565b6101676101c0366004610c41565b6001600160a01b031660009081526020819052604090205490565b61016760075481565b6005546101f7906001600160a01b031681565b6040516001600160a01b039091168152602001610130565b61012361042f565b61014c610225366004610bdb565b61043e565b61015c610238366004610c5c565b6104d7565b61014c61024b366004610bdb565b6105d2565b61016761025e366004610c88565b6001600160a01b03918216600090815260016020908152604080832093909416825291909152205490565b61015c610297366004610c41565b50565b6060600380546102a990610cbb565b80601f01602080910402602001604051908101604052809291908181526020018280546102d590610cbb565b80156103225780601f106102f757610100808354040283529160200191610322565b820191906000526020600020905b81548152906001019060200180831161030557829003601f168201915b5050505050905090565b60006103393384846105df565b50600192915050565b600061034f848484610703565b6001600160a01b0384166000908152600160209081526040808320338452909152902054828110156103d95760405162461bcd60e51b815260206004820152602860248201527f45524332303a207472616e7366657220616d6f756e74206578636565647320616044820152676c6c6f77616e636560c01b60648201526084015b60405180910390fd5b6103e685338584036105df565b60019150505b9392505050565b3360008181526001602090815260408083206001600160a01b0387168452909152812054909161033991859061042a908690610cf6565b6105df565b6060600480546102a990610cbb565b3360009081526001602090815260408083206001600160a01b0386168452909152812054828110156104c05760405162461bcd60e51b815260206004820152602560248201527f45524332303a2064656372656173656420616c6c6f77616e63652062656c6f77604482015264207a65726f60d81b60648201526084016103d0565b6104cd33858584036105df565b5060019392505050565b6006546040516370a0823160e01b815233600482015283916001600160a01b0316906370a082319060240160206040518083038186803b15801561051a57600080fd5b505afa15801561052e573d6000803e3d6000fd5b505050506040513d601f19601f820116820180604052508101906105529190610d1c565b10156105ab5760405162461bcd60e51b815260206004820152602260248201527f596f7520646f206e6f74206861766520656e6f75676820646567697320746f6b60448201526132b760f11b60648201526084016103d0565b6006546105c3906001600160a01b03163330856108d3565b826105cd57505050565b505050565b6000610339338484610703565b6001600160a01b0383166106415760405162461bcd60e51b8152602060048201526024808201527f45524332303a20617070726f76652066726f6d20746865207a65726f206164646044820152637265737360e01b60648201526084016103d0565b6001600160a01b0382166106a25760405162461bcd60e51b815260206004820152602260248201527f45524332303a20617070726f766520746f20746865207a65726f206164647265604482015261737360f01b60648201526084016103d0565b6001600160a01b0383811660008181526001602090815260408083209487168084529482529182902085905590518481527f8c5be1e5ebec7d5bd14f71427d1e84f3dd0314c0f7b2291e5b200ac8c7c3b925910160405180910390a3505050565b6001600160a01b0383166107675760405162461bcd60e51b815260206004820152602560248201527f45524332303a207472616e736665722066726f6d20746865207a65726f206164604482015264647265737360d81b60648201526084016103d0565b6001600160a01b0382166107c95760405162461bcd60e51b815260206004820152602360248201527f45524332303a207472616e7366657220746f20746865207a65726f206164647260448201526265737360e81b60648201526084016103d0565b6001600160a01b038316600090815260208190526040902054818110156108415760405162461bcd60e51b815260206004820152602660248201527f45524332303a207472616e7366657220616d6f756e7420657863656564732062604482015265616c616e636560d01b60648201526084016103d0565b6001600160a01b03808516600090815260208190526040808220858503905591851681529081208054849290610878908490610cf6565b92505081905550826001600160a01b0316846001600160a01b03167fddf252ad1be2c89b69c2b068fc378daa952ba7f163c4a11628f55a4df523b3ef846040516108c491815260200190565b60405180910390a35b50505050565b604080516001600160a01b038581166024830152848116604483015260648083018590528351808403909101815260849092018352602080830180516001600160e01b03166323b872dd60e01b17905283518085019094528084527f5361666545524332303a206c6f772d6c6576656c2063616c6c206661696c6564908401526108cd9287929160009161096b9185169084906109e8565b8051909150156105cd57808060200190518101906109899190610d35565b6105cd5760405162461bcd60e51b815260206004820152602a60248201527f5361666545524332303a204552433230206f7065726174696f6e20646964206e6044820152691bdd081cdd58d8d9595960b21b60648201526084016103d0565b60606109f784846000856109ff565b949350505050565b606082471015610a605760405162461bcd60e51b815260206004820152602660248201527f416464726573733a20696e73756666696369656e742062616c616e636520666f6044820152651c8818d85b1b60d21b60648201526084016103d0565b843b610aae5760405162461bcd60e51b815260206004820152601d60248201527f416464726573733a2063616c6c20746f206e6f6e2d636f6e747261637400000060448201526064016103d0565b600080866001600160a01b03168587604051610aca9190610d57565b60006040518083038185875af1925050503d8060008114610b07576040519150601f19603f3d011682016040523d82523d6000602084013e610b0c565b606091505b5091509150610b1c828286610b27565b979650505050505050565b60608315610b365750816103ec565b825115610b465782518084602001fd5b8160405162461bcd60e51b81526004016103d09190610b8c565b60005b83811015610b7b578181015183820152602001610b63565b838111156108cd5750506000910152565b6020815260008251806020840152610bab816040850160208701610b60565b601f01601f19169190910160400192915050565b80356001600160a01b0381168114610bd657600080fd5b919050565b60008060408385031215610bee57600080fd5b610bf783610bbf565b946020939093013593505050565b600080600060608486031215610c1a57600080fd5b610c2384610bbf565b9250610c3160208501610bbf565b9150604084013590509250925092565b600060208284031215610c5357600080fd5b6103ec82610bbf565b600080600060608486031215610c7157600080fd5b505081359360208301359350604090920135919050565b60008060408385031215610c9b57600080fd5b610ca483610bbf565b9150610cb260208401610bbf565b90509250929050565b600181811c90821680610ccf57607f821691505b60208210811415610cf057634e487b7160e01b600052602260045260246000fd5b50919050565b60008219821115610d1757634e487b7160e01b600052601160045260246000fd5b500190565b600060208284031215610d2e57600080fd5b5051919050565b600060208284031215610d4757600080fd5b815180151581146103ec57600080fd5b60008251610d69818460208701610b60565b919091019291505056fea264697066735822122016c0a789645e4606ef9153b92ef44bee2ef8ca49dc3d01316ce99fc28068340f64736f6c63430008090033",
  "immutableReferences": {},
  "source": "// SPDX-License-Identifier: MIT\npragma solidity 0.8.9;\n\nimport \"@openzeppelin/contracts/token/ERC20/ERC20.sol\";\nimport \"@openzeppelin/contracts/token/ERC20/IERC20.sol\";\nimport \"@openzeppelin/contracts/token/ERC20/utils/SafeERC20.sol\";\nimport \"./interfaces/IDegisToken.sol\";\n\ncontract DegisStaking is ERC20(\"DegisStaking\", \"xDegis\") {\n    using SafeERC20 for IDegisToken;\n\n    address public owner;\n\n    IDegisToken degis;\n\n    uint256 public degisPerBlock;\n\n    uint256 public totalScores;\n\n    mapping(address => uint256) userScores;\n\n    constructor(address _degis) {\n        degis = IDegisToken(_degis);\n    }\n\n    function pendingReward(address _userAddress) external view {}\n\n    function stake(\n        uint256 _type,\n        uint256 _amount,\n        uint256 _length\n    ) external {\n        require(\n            degis.balanceOf(msg.sender) >= _amount,\n            \"You do not have enough degis token\"\n        );\n\n        degis.safeTransferFrom(msg.sender, address(this), _amount);\n\n        if (_type == 0) {\n            _flexibleStake(_amount);\n        } else if (_type == 1) {\n            _stableStake(_length, _amount);\n        } else {}\n    }\n\n    function _flexibleStake(uint256 _amount) internal {}\n\n    function _stableStake(uint256 _length, uint256 _amount) internal {}\n\n    function unstake() external {}\n\n    function settle() external {}\n}\n",
  "sourcePath": "/Volumes/Store/Degis/Degis-Staking/contracts/DegisStaking.sol",
  "compiler": {
    "name": "solc",
    "version": "0.8.9+commit.e5eed63a.Emscripten.clang"
  },
  "schemaVersion": "3.4.3",
  "updatedAt": "2021-12-09T16:23:16.806Z",
  "devdoc": {
    "kind": "dev",
    "methods": {
      "allowance(address,address)": {
        "details": "See {IERC20-allowance}."
      },
      "approve(address,uint256)": {
        "details": "See {IERC20-approve}. Requirements: - `spender` cannot be the zero address."
      },
      "balanceOf(address)": {
        "details": "See {IERC20-balanceOf}."
      },
      "decimals()": {
        "details": "Returns the number of decimals used to get its user representation. For example, if `decimals` equals `2`, a balance of `505` tokens should be displayed to a user as `5.05` (`505 / 10 ** 2`). Tokens usually opt for a value of 18, imitating the relationship between Ether and Wei. This is the value {ERC20} uses, unless this function is overridden; NOTE: This information is only used for _display_ purposes: it in no way affects any of the arithmetic of the contract, including {IERC20-balanceOf} and {IERC20-transfer}."
      },
      "decreaseAllowance(address,uint256)": {
        "details": "Atomically decreases the allowance granted to `spender` by the caller. This is an alternative to {approve} that can be used as a mitigation for problems described in {IERC20-approve}. Emits an {Approval} event indicating the updated allowance. Requirements: - `spender` cannot be the zero address. - `spender` must have allowance for the caller of at least `subtractedValue`."
      },
      "increaseAllowance(address,uint256)": {
        "details": "Atomically increases the allowance granted to `spender` by the caller. This is an alternative to {approve} that can be used as a mitigation for problems described in {IERC20-approve}. Emits an {Approval} event indicating the updated allowance. Requirements: - `spender` cannot be the zero address."
      },
      "name()": {
        "details": "Returns the name of the token."
      },
      "symbol()": {
        "details": "Returns the symbol of the token, usually a shorter version of the name."
      },
      "totalSupply()": {
        "details": "See {IERC20-totalSupply}."
      },
      "transfer(address,uint256)": {
        "details": "See {IERC20-transfer}. Requirements: - `recipient` cannot be the zero address. - the caller must have a balance of at least `amount`."
      },
      "transferFrom(address,address,uint256)": {
        "details": "See {IERC20-transferFrom}. Emits an {Approval} event indicating the updated allowance. This is not required by the EIP. See the note at the beginning of {ERC20}. Requirements: - `sender` and `recipient` cannot be the zero address. - `sender` must have a balance of at least `amount`. - the caller must have allowance for ``sender``'s tokens of at least `amount`."
      }
    },
    "version": 1
  },
  "userdoc": {
    "kind": "user",
    "methods": {},
    "version": 1
  }
}