{
  "contractName": "DegisToken",
  "abi": [
    {
      "inputs": [],
      "stateMutability": "nonpayable",
      "type": "constructor"
    },
    {
      "anonymous": false,
      "inputs": [
        {
          "indexed": true,
          "internalType": "address",
          "name": "owner",
          "type": "address"
        },
        {
          "indexed": true,
          "internalType": "address",
          "name": "spender",
          "type": "address"
        },
        {
          "indexed": false,
          "internalType": "uint256",
          "name": "value",
          "type": "uint256"
        }
      ],
      "name": "Approval",
      "type": "event"
    },
    {
      "anonymous": false,
      "inputs": [
        {
          "indexed": false,
          "internalType": "address",
          "name": "_newBurner",
          "type": "address"
        }
      ],
      "name": "BurnerAdded",
      "type": "event"
    },
    {
      "anonymous": false,
      "inputs": [
        {
          "indexed": false,
          "internalType": "address",
          "name": "_oldBurner",
          "type": "address"
        }
      ],
      "name": "BurnerRemoved",
      "type": "event"
    },
    {
      "anonymous": false,
      "inputs": [
        {
          "indexed": false,
          "internalType": "address",
          "name": "_userAddress",
          "type": "address"
        }
      ],
      "name": "Mint",
      "type": "event"
    },
    {
      "anonymous": false,
      "inputs": [
        {
          "indexed": false,
          "internalType": "address",
          "name": "_newMinter",
          "type": "address"
        }
      ],
      "name": "MinterAdded",
      "type": "event"
    },
    {
      "anonymous": false,
      "inputs": [
        {
          "indexed": false,
          "internalType": "address",
          "name": "_oldMinter",
          "type": "address"
        }
      ],
      "name": "MinterRemoved",
      "type": "event"
    },
    {
      "anonymous": false,
      "inputs": [
        {
          "indexed": true,
          "internalType": "address",
          "name": "_oldOwner",
          "type": "address"
        },
        {
          "indexed": true,
          "internalType": "address",
          "name": "_newOwner",
          "type": "address"
        }
      ],
      "name": "OwnerChanged",
      "type": "event"
    },
    {
      "anonymous": false,
      "inputs": [
        {
          "indexed": true,
          "internalType": "address",
          "name": "_oldOwner",
          "type": "address"
        }
      ],
      "name": "OwnershipReleased",
      "type": "event"
    },
    {
      "anonymous": false,
      "inputs": [
        {
          "indexed": true,
          "internalType": "address",
          "name": "from",
          "type": "address"
        },
        {
          "indexed": true,
          "internalType": "address",
          "name": "to",
          "type": "address"
        },
        {
          "indexed": false,
          "internalType": "uint256",
          "name": "value",
          "type": "uint256"
        }
      ],
      "name": "Transfer",
      "type": "event"
    },
    {
      "inputs": [],
      "name": "CAP",
      "outputs": [
        {
          "internalType": "uint256",
          "name": "",
          "type": "uint256"
        }
      ],
      "stateMutability": "view",
      "type": "function",
      "constant": true
    },
    {
      "inputs": [],
      "name": "DOMAIN_SEPARATOR",
      "outputs": [
        {
          "internalType": "bytes32",
          "name": "",
          "type": "bytes32"
        }
      ],
      "stateMutability": "view",
      "type": "function",
      "constant": true
    },
    {
      "inputs": [
        {
          "internalType": "address",
          "name": "owner",
          "type": "address"
        },
        {
          "internalType": "address",
          "name": "spender",
          "type": "address"
        }
      ],
      "name": "allowance",
      "outputs": [
        {
          "internalType": "uint256",
          "name": "",
          "type": "uint256"
        }
      ],
      "stateMutability": "view",
      "type": "function",
      "constant": true
    },
    {
      "inputs": [
        {
          "internalType": "address",
          "name": "spender",
          "type": "address"
        },
        {
          "internalType": "uint256",
          "name": "amount",
          "type": "uint256"
        }
      ],
      "name": "approve",
      "outputs": [
        {
          "internalType": "bool",
          "name": "",
          "type": "bool"
        }
      ],
      "stateMutability": "nonpayable",
      "type": "function"
    },
    {
      "inputs": [
        {
          "internalType": "address",
          "name": "account",
          "type": "address"
        }
      ],
      "name": "balanceOf",
      "outputs": [
        {
          "internalType": "uint256",
          "name": "",
          "type": "uint256"
        }
      ],
      "stateMutability": "view",
      "type": "function",
      "constant": true
    },
    {
      "inputs": [
        {
          "internalType": "uint256",
          "name": "",
          "type": "uint256"
        }
      ],
      "name": "burnerList",
      "outputs": [
        {
          "internalType": "address",
          "name": "",
          "type": "address"
        }
      ],
      "stateMutability": "view",
      "type": "function",
      "constant": true
    },
    {
      "inputs": [],
      "name": "decimals",
      "outputs": [
        {
          "internalType": "uint8",
          "name": "",
          "type": "uint8"
        }
      ],
      "stateMutability": "view",
      "type": "function",
      "constant": true
    },
    {
      "inputs": [
        {
          "internalType": "address",
          "name": "spender",
          "type": "address"
        },
        {
          "internalType": "uint256",
          "name": "subtractedValue",
          "type": "uint256"
        }
      ],
      "name": "decreaseAllowance",
      "outputs": [
        {
          "internalType": "bool",
          "name": "",
          "type": "bool"
        }
      ],
      "stateMutability": "nonpayable",
      "type": "function"
    },
    {
      "inputs": [
        {
          "internalType": "address",
          "name": "spender",
          "type": "address"
        },
        {
          "internalType": "uint256",
          "name": "addedValue",
          "type": "uint256"
        }
      ],
      "name": "increaseAllowance",
      "outputs": [
        {
          "internalType": "bool",
          "name": "",
          "type": "bool"
        }
      ],
      "stateMutability": "nonpayable",
      "type": "function"
    },
    {
      "inputs": [
        {
          "internalType": "address",
          "name": "",
          "type": "address"
        }
      ],
      "name": "isBurner",
      "outputs": [
        {
          "internalType": "bool",
          "name": "",
          "type": "bool"
        }
      ],
      "stateMutability": "view",
      "type": "function",
      "constant": true
    },
    {
      "inputs": [
        {
          "internalType": "address",
          "name": "",
          "type": "address"
        }
      ],
      "name": "isMinter",
      "outputs": [
        {
          "internalType": "bool",
          "name": "",
          "type": "bool"
        }
      ],
      "stateMutability": "view",
      "type": "function",
      "constant": true
    },
    {
      "inputs": [
        {
          "internalType": "uint256",
          "name": "",
          "type": "uint256"
        }
      ],
      "name": "minterList",
      "outputs": [
        {
          "internalType": "address",
          "name": "",
          "type": "address"
        }
      ],
      "stateMutability": "view",
      "type": "function",
      "constant": true
    },
    {
      "inputs": [],
      "name": "name",
      "outputs": [
        {
          "internalType": "string",
          "name": "",
          "type": "string"
        }
      ],
      "stateMutability": "view",
      "type": "function",
      "constant": true
    },
    {
      "inputs": [
        {
          "internalType": "address",
          "name": "owner",
          "type": "address"
        }
      ],
      "name": "nonces",
      "outputs": [
        {
          "internalType": "uint256",
          "name": "",
          "type": "uint256"
        }
      ],
      "stateMutability": "view",
      "type": "function",
      "constant": true
    },
    {
      "inputs": [],
      "name": "owner",
      "outputs": [
        {
          "internalType": "address",
          "name": "",
          "type": "address"
        }
      ],
      "stateMutability": "view",
      "type": "function",
      "constant": true
    },
    {
      "inputs": [
        {
          "internalType": "address",
          "name": "owner",
          "type": "address"
        },
        {
          "internalType": "address",
          "name": "spender",
          "type": "address"
        },
        {
          "internalType": "uint256",
          "name": "value",
          "type": "uint256"
        },
        {
          "internalType": "uint256",
          "name": "deadline",
          "type": "uint256"
        },
        {
          "internalType": "uint8",
          "name": "v",
          "type": "uint8"
        },
        {
          "internalType": "bytes32",
          "name": "r",
          "type": "bytes32"
        },
        {
          "internalType": "bytes32",
          "name": "s",
          "type": "bytes32"
        }
      ],
      "name": "permit",
      "outputs": [],
      "stateMutability": "nonpayable",
      "type": "function"
    },
    {
      "inputs": [],
      "name": "symbol",
      "outputs": [
        {
          "internalType": "string",
          "name": "",
          "type": "string"
        }
      ],
      "stateMutability": "view",
      "type": "function",
      "constant": true
    },
    {
      "inputs": [],
      "name": "totalSupply",
      "outputs": [
        {
          "internalType": "uint256",
          "name": "",
          "type": "uint256"
        }
      ],
      "stateMutability": "view",
      "type": "function",
      "constant": true
    },
    {
      "inputs": [
        {
          "internalType": "address",
          "name": "recipient",
          "type": "address"
        },
        {
          "internalType": "uint256",
          "name": "amount",
          "type": "uint256"
        }
      ],
      "name": "transfer",
      "outputs": [
        {
          "internalType": "bool",
          "name": "",
          "type": "bool"
        }
      ],
      "stateMutability": "nonpayable",
      "type": "function"
    },
    {
      "inputs": [
        {
          "internalType": "address",
          "name": "sender",
          "type": "address"
        },
        {
          "internalType": "address",
          "name": "recipient",
          "type": "address"
        },
        {
          "internalType": "uint256",
          "name": "amount",
          "type": "uint256"
        }
      ],
      "name": "transferFrom",
      "outputs": [
        {
          "internalType": "bool",
          "name": "",
          "type": "bool"
        }
      ],
      "stateMutability": "nonpayable",
      "type": "function"
    },
    {
      "inputs": [
        {
          "internalType": "address",
          "name": "_newMinter",
          "type": "address"
        }
      ],
      "name": "addMinter",
      "outputs": [],
      "stateMutability": "nonpayable",
      "type": "function"
    },
    {
      "inputs": [
        {
          "internalType": "address",
          "name": "_oldMinter",
          "type": "address"
        }
      ],
      "name": "removeMinter",
      "outputs": [],
      "stateMutability": "nonpayable",
      "type": "function"
    },
    {
      "inputs": [
        {
          "internalType": "address",
          "name": "_newBurner",
          "type": "address"
        }
      ],
      "name": "addBurner",
      "outputs": [],
      "stateMutability": "nonpayable",
      "type": "function"
    },
    {
      "inputs": [
        {
          "internalType": "address",
          "name": "_oldBurner",
          "type": "address"
        }
      ],
      "name": "removeBurner",
      "outputs": [],
      "stateMutability": "nonpayable",
      "type": "function"
    },
    {
      "inputs": [
        {
          "internalType": "address",
          "name": "_newOwner",
          "type": "address"
        }
      ],
      "name": "passOwnership",
      "outputs": [],
      "stateMutability": "nonpayable",
      "type": "function"
    },
    {
      "inputs": [],
      "name": "releaseOwnership",
      "outputs": [],
      "stateMutability": "nonpayable",
      "type": "function"
    },
    {
      "inputs": [
        {
          "internalType": "address",
          "name": "_account",
          "type": "address"
        },
        {
          "internalType": "uint256",
          "name": "_amount",
          "type": "uint256"
        }
      ],
      "name": "mint",
      "outputs": [],
      "stateMutability": "nonpayable",
      "type": "function"
    },
    {
      "inputs": [
        {
          "internalType": "address",
          "name": "_account",
          "type": "address"
        },
        {
          "internalType": "uint256",
          "name": "_amount",
          "type": "uint256"
        }
      ],
      "name": "burn",
      "outputs": [],
      "stateMutability": "nonpayable",
      "type": "function"
    }
  ],
  "bytecode": "0x6101606040527f6e71edae12b1b97f4d1f60370fef10105fa2faae0126114a169c64845d6126c9610140523480156200003757600080fd5b506040518060400160405280600a8152602001692232b3b4b9aa37b5b2b760b11b81525080604051806040016040528060018152602001603160f81b8152506040518060400160405280600a8152602001692232b3b4b9aa37b5b2b760b11b81525060405180604001604052806005815260200164444547495360d81b8152508160039080519060200190620000cf929190620001e9565b508051620000e5906004906020840190620001e9565b5050825160208085019190912083518483012060e08290526101008190524660a0818152604080517f8b73c3c69bb8fe3d512ecc4cf759cc79239f7b179b0ffacaa9a75d522b39400f81880181905281830187905260608201869052608082019490945230818401528151808203909301835260c0019052805194019390932091935091906080523060c05261012052505060068054336001600160a01b031991821681179092556007805460018181019092557fa66cc928b5edb82af9bd49922954155ab7b0942694bea4ce44661d9a8736c6880180549092168317909155600091825260086020526040909120805460ff1916909117905550620002cc915050565b828054620001f7906200028f565b90600052602060002090601f0160209004810192826200021b576000855562000266565b82601f106200023657805160ff191683800117855562000266565b8280016001018555821562000266579182015b828111156200026657825182559160200191906001019062000249565b506200027492915062000278565b5090565b5b8082111562000274576000815560010162000279565b600181811c90821680620002a457607f821691505b60208210811415620002c657634e487b7160e01b600052602260045260246000fd5b50919050565b60805160a05160c05160e051610100516101205161014051611df0620003276000396000610e5b01526000611476015260006114c5015260006114a0015260006113f9015260006114230152600061144d0152611df06000f3fe608060405234801561001057600080fd5b50600436106101c45760003560e01c80637ecebe00116100f9578063aa271e1a11610097578063d85633ec11610071578063d85633ec146103e1578063dd62ed3e146103e9578063ec81b48314610422578063f44637ba1461043457600080fd5b8063aa271e1a14610398578063abd8e23d146103bb578063d505accf146103ce57600080fd5b8063983b2d56116100d3578063983b2d561461034c5780639dc29fac1461035f578063a457c2d714610372578063a9059cbb1461038557600080fd5b80637ecebe001461031e5780638da5cb5b1461033157806395d89b411461034457600080fd5b8063313ce5671161016657806340c10f191161014057806340c10f19146102ac5780634334614a146102bf578063620996df146102e257806370a08231146102f557600080fd5b8063313ce567146102825780633644e51514610291578063395093511461029957600080fd5b806318160ddd116101a257806318160ddd1461021f57806323b872dd14610231578063279ad7ab146102445780633092afd51461026f57600080fd5b806302846858146101c957806306fdde03146101de578063095ea7b3146101fc575b600080fd5b6101dc6101d7366004611aa5565b610447565b005b6101e6610666565b6040516101f39190611ac7565b60405180910390f35b61020f61020a366004611b1c565b6106f8565b60405190151581526020016101f3565b6002545b6040519081526020016101f3565b61020f61023f366004611b46565b61070e565b610257610252366004611b82565b6107b8565b6040516001600160a01b0390911681526020016101f3565b6101dc61027d366004611aa5565b6107e2565b604051601281526020016101f3565b6102236109f0565b61020f6102a7366004611b1c565b6109ff565b6101dc6102ba366004611b1c565b610a3b565b61020f6102cd366004611aa5565b600a6020526000908152604090205460ff1681565b6101dc6102f0366004611aa5565b610b3b565b610223610303366004611aa5565b6001600160a01b031660009081526020819052604090205490565b61022361032c366004611aa5565b610bb1565b600654610257906001600160a01b031681565b6101e6610bd1565b6101dc61035a366004611aa5565b610be0565b6101dc61036d366004611b1c565b610d0e565b61020f610380366004611b1c565b610d51565b61020f610393366004611b1c565b610dea565b61020f6103a6366004611aa5565b60086020526000908152604090205460ff1681565b6102576103c9366004611b82565b610df7565b6101dc6103dc366004611b9b565b610e07565b6101dc610f6b565b6102236103f7366004611c0e565b6001600160a01b03918216600090815260016020908152604080832093909416825291909152205490565b6102236a52b7d2dcc80cd2e400000081565b6101dc610442366004611aa5565b610fd2565b6006546001600160a01b0316331461047a5760405162461bcd60e51b815260040161047190611c41565b60405180910390fd5b6001600160a01b03811660009081526008602052604090205460ff1615156001146104e75760405162461bcd60e51b815260206004820152601c60248201527f546869732061646472657373206973206e6f742061206275726e6572000000006044820152606401610471565b60095460005b8181101561060c57826001600160a01b03166009828154811061051257610512611c86565b6000918252602090912001546001600160a01b031614156105fa57805b61053a600184611cb2565b8110156105c557600961054e826001611cc9565b8154811061055e5761055e611c86565b600091825260209091200154600980546001600160a01b03909216918390811061058a5761058a611c86565b600091825260209091200180546001600160a01b0319166001600160a01b0392909216919091179055806105bd81611ce1565b91505061052f565b5060098054806105d7576105d7611cfc565b600082815260209020810160001990810180546001600160a01b03191690550190555b8061060481611ce1565b9150506104ed565b506001600160a01b0382166000818152600a6020908152604091829020805460ff1916905590519182527f90eabbc0c667db2a5029ed6bc0f5fe9f356d11684a4ca9fcfaec0e53f12b9c8e91015b60405180910390a15050565b60606003805461067590611d12565b80601f01602080910402602001604051908101604052809291908181526020018280546106a190611d12565b80156106ee5780601f106106c3576101008083540402835291602001916106ee565b820191906000526020600020905b8154815290600101906020018083116106d157829003601f168201915b5050505050905090565b60006107053384846110f9565b50600192915050565b600061071b84848461121d565b6001600160a01b0384166000908152600160209081526040808320338452909152902054828110156107a05760405162461bcd60e51b815260206004820152602860248201527f45524332303a207472616e7366657220616d6f756e74206578636565647320616044820152676c6c6f77616e636560c01b6064820152608401610471565b6107ad85338584036110f9565b506001949350505050565b600781815481106107c857600080fd5b6000918252602090912001546001600160a01b0316905081565b6006546001600160a01b0316331461080c5760405162461bcd60e51b815260040161047190611c41565b6001600160a01b03811660009081526008602052604090205460ff1615156001146108795760405162461bcd60e51b815260206004820152601c60248201527f546869732061646472657373206973206e6f742061206d696e746572000000006044820152606401610471565b60075460005b8181101561099e57826001600160a01b0316600782815481106108a4576108a4611c86565b6000918252602090912001546001600160a01b0316141561098c57805b6108cc600184611cb2565b8110156109575760076108e0826001611cc9565b815481106108f0576108f0611c86565b600091825260209091200154600780546001600160a01b03909216918390811061091c5761091c611c86565b600091825260209091200180546001600160a01b0319166001600160a01b03929092169190911790558061094f81611ce1565b9150506108c1565b50600780548061096957610969611cfc565b600082815260209020810160001990810180546001600160a01b03191690550190555b8061099681611ce1565b91505061087f565b506001600160a01b038216600081815260086020908152604091829020805460ff1916905590519182527fe94479a9f7e1952cc78f2d6baab678adc1b772d936c6583def489e524cb66692910161065a565b60006109fa6113ec565b905090565b3360008181526001602090815260408083206001600160a01b03871684529091528120549091610705918590610a36908690611cc9565b6110f9565b806a52b7d2dcc80cd2e400000081610a5260025490565b610a5c9190611cc9565b1115610abb5760405162461bcd60e51b815260206004820152602860248201527f4465676973546f6b656e206578636565647320746865206361702028313030206044820152676d696c6c696f6e2960c01b6064820152608401610471565b3360008181526008602052604090205460ff161515600114610aef5760405162461bcd60e51b815260040161047190611d47565b610af98484611513565b6040516001600160a01b03851681527f3c3284d117c92d0b1699230960384e794dcba184cc48ff114fe4fed20c9b05659060200160405180910390a150505050565b6006546001600160a01b03163314610b655760405162461bcd60e51b815260040161047190611c41565b600680546001600160a01b0319166001600160a01b03831690811790915560405133907fb532073b38c83145e3e5135377a08bf9aab55bc0fd7c1179cd4fb995d2a5159c90600090a350565b6001600160a01b0381166000908152600560205260408120545b92915050565b60606004805461067590611d12565b6006546001600160a01b03163314610c0a5760405162461bcd60e51b815260040161047190611c41565b6001600160a01b03811660009081526008602052604090205460ff1615610c735760405162461bcd60e51b815260206004820181905260248201527f54686973206164647265737320697320616c72656164792061206d696e7465726044820152606401610471565b6007805460018082019092557fa66cc928b5edb82af9bd49922954155ab7b0942694bea4ce44661d9a8736c6880180546001600160a01b0319166001600160a01b038416908117909155600081815260086020908152604091829020805460ff1916909417909355519081527f6ae172837ea30b801fbfcdd4108aa1d5bf8ff775444fd70256b44e6bf3dfc3f691015b60405180910390a150565b336000818152600a602052604090205460ff161515600114610d425760405162461bcd60e51b815260040161047190611d47565b610d4c83836115f2565b505050565b3360009081526001602090815260408083206001600160a01b038616845290915281205482811015610dd35760405162461bcd60e51b815260206004820152602560248201527f45524332303a2064656372656173656420616c6c6f77616e63652062656c6f77604482015264207a65726f60d81b6064820152608401610471565b610de033858584036110f9565b5060019392505050565b600061070533848461121d565b600981815481106107c857600080fd5b83421115610e575760405162461bcd60e51b815260206004820152601d60248201527f45524332305065726d69743a206578706972656420646561646c696e650000006044820152606401610471565b60007f0000000000000000000000000000000000000000000000000000000000000000888888610e868c611740565b6040805160208101969096526001600160a01b0394851690860152929091166060840152608083015260a082015260c0810186905260e0016040516020818303038152906040528051906020012090506000610ee182611768565b90506000610ef1828787876117b6565b9050896001600160a01b0316816001600160a01b031614610f545760405162461bcd60e51b815260206004820152601e60248201527f45524332305065726d69743a20696e76616c6964207369676e617475726500006044820152606401610471565b610f5f8a8a8a6110f9565b50505050505050505050565b6006546001600160a01b03163314610f955760405162461bcd60e51b815260040161047190611c41565b600680546001600160a01b031916905560405133907f32c346b3c4ea71856e1bc1250e3fe1e28e38ade8ec8b1bb2fde56ee07a5d3e9d90600090a2565b6006546001600160a01b03163314610ffc5760405162461bcd60e51b815260040161047190611c41565b6001600160a01b0381166000908152600a602052604090205460ff16156110655760405162461bcd60e51b815260206004820181905260248201527f54686973206164647265737320697320616c72656164792061206275726e65726044820152606401610471565b6009805460018082019092557f6e1540171b6c0c960b71a7020d9f60077f6af931a8bbf590da0223dacf75c7af0180546001600160a01b0319166001600160a01b0384169081179091556000818152600a6020908152604091829020805460ff1916909417909355519081527f86e57fd2b90329052917118de7c3f521f400d439b9650deaa906a25b08b945609101610d03565b6001600160a01b03831661115b5760405162461bcd60e51b8152602060048201526024808201527f45524332303a20617070726f76652066726f6d20746865207a65726f206164646044820152637265737360e01b6064820152608401610471565b6001600160a01b0382166111bc5760405162461bcd60e51b815260206004820152602260248201527f45524332303a20617070726f766520746f20746865207a65726f206164647265604482015261737360f01b6064820152608401610471565b6001600160a01b0383811660008181526001602090815260408083209487168084529482529182902085905590518481527f8c5be1e5ebec7d5bd14f71427d1e84f3dd0314c0f7b2291e5b200ac8c7c3b925910160405180910390a3505050565b6001600160a01b0383166112815760405162461bcd60e51b815260206004820152602560248201527f45524332303a207472616e736665722066726f6d20746865207a65726f206164604482015264647265737360d81b6064820152608401610471565b6001600160a01b0382166112e35760405162461bcd60e51b815260206004820152602360248201527f45524332303a207472616e7366657220746f20746865207a65726f206164647260448201526265737360e81b6064820152608401610471565b6001600160a01b0383166000908152602081905260409020548181101561135b5760405162461bcd60e51b815260206004820152602660248201527f45524332303a207472616e7366657220616d6f756e7420657863656564732062604482015265616c616e636560d01b6064820152608401610471565b6001600160a01b03808516600090815260208190526040808220858503905591851681529081208054849290611392908490611cc9565b92505081905550826001600160a01b0316846001600160a01b03167fddf252ad1be2c89b69c2b068fc378daa952ba7f163c4a11628f55a4df523b3ef846040516113de91815260200190565b60405180910390a350505050565b6000306001600160a01b037f00000000000000000000000000000000000000000000000000000000000000001614801561144557507f000000000000000000000000000000000000000000000000000000000000000046145b1561146f57507f000000000000000000000000000000000000000000000000000000000000000090565b50604080517f00000000000000000000000000000000000000000000000000000000000000006020808301919091527f0000000000000000000000000000000000000000000000000000000000000000828401527f000000000000000000000000000000000000000000000000000000000000000060608301524660808301523060a0808401919091528351808403909101815260c0909201909252805191012090565b6001600160a01b0382166115695760405162461bcd60e51b815260206004820152601f60248201527f45524332303a206d696e7420746f20746865207a65726f2061646472657373006044820152606401610471565b806002600082825461157b9190611cc9565b90915550506001600160a01b038216600090815260208190526040812080548392906115a8908490611cc9565b90915550506040518181526001600160a01b038316906000907fddf252ad1be2c89b69c2b068fc378daa952ba7f163c4a11628f55a4df523b3ef9060200160405180910390a35050565b6001600160a01b0382166116525760405162461bcd60e51b815260206004820152602160248201527f45524332303a206275726e2066726f6d20746865207a65726f206164647265736044820152607360f81b6064820152608401610471565b6001600160a01b038216600090815260208190526040902054818110156116c65760405162461bcd60e51b815260206004820152602260248201527f45524332303a206275726e20616d6f756e7420657863656564732062616c616e604482015261636560f01b6064820152608401610471565b6001600160a01b03831660009081526020819052604081208383039055600280548492906116f5908490611cb2565b90915550506040518281526000906001600160a01b038516907fddf252ad1be2c89b69c2b068fc378daa952ba7f163c4a11628f55a4df523b3ef9060200160405180910390a3505050565b6001600160a01b03811660009081526005602052604090208054600181018255905b50919050565b6000610bcb6117756113ec565b8360405161190160f01b6020820152602281018390526042810182905260009060620160405160208183030381529060405280519060200120905092915050565b60008060006117c7878787876117de565b915091506117d4816118cb565b5095945050505050565b6000807f7fffffffffffffffffffffffffffffff5d576e7357a4501ddfe92f46681b20a083111561181557506000905060036118c2565b8460ff16601b1415801561182d57508460ff16601c14155b1561183e57506000905060046118c2565b6040805160008082526020820180845289905260ff881692820192909252606081018690526080810185905260019060a0016020604051602081039080840390855afa158015611892573d6000803e3d6000fd5b5050604051601f1901519150506001600160a01b0381166118bb576000600192509250506118c2565b9150600090505b94509492505050565b60008160048111156118df576118df611da4565b14156118e85750565b60018160048111156118fc576118fc611da4565b141561194a5760405162461bcd60e51b815260206004820152601860248201527f45434453413a20696e76616c6964207369676e617475726500000000000000006044820152606401610471565b600281600481111561195e5761195e611da4565b14156119ac5760405162461bcd60e51b815260206004820152601f60248201527f45434453413a20696e76616c6964207369676e6174757265206c656e677468006044820152606401610471565b60038160048111156119c0576119c0611da4565b1415611a195760405162461bcd60e51b815260206004820152602260248201527f45434453413a20696e76616c6964207369676e6174757265202773272076616c604482015261756560f01b6064820152608401610471565b6004816004811115611a2d57611a2d611da4565b1415611a865760405162461bcd60e51b815260206004820152602260248201527f45434453413a20696e76616c6964207369676e6174757265202776272076616c604482015261756560f01b6064820152608401610471565b50565b80356001600160a01b0381168114611aa057600080fd5b919050565b600060208284031215611ab757600080fd5b611ac082611a89565b9392505050565b600060208083528351808285015260005b81811015611af457858101830151858201604001528201611ad8565b81811115611b06576000604083870101525b50601f01601f1916929092016040019392505050565b60008060408385031215611b2f57600080fd5b611b3883611a89565b946020939093013593505050565b600080600060608486031215611b5b57600080fd5b611b6484611a89565b9250611b7260208501611a89565b9150604084013590509250925092565b600060208284031215611b9457600080fd5b5035919050565b600080600080600080600060e0888a031215611bb657600080fd5b611bbf88611a89565b9650611bcd60208901611a89565b95506040880135945060608801359350608088013560ff81168114611bf157600080fd5b9699959850939692959460a0840135945060c09093013592915050565b60008060408385031215611c2157600080fd5b611c2a83611a89565b9150611c3860208401611a89565b90509250929050565b60208082526025908201527f4f6e6c7920746865206f776e65722063616e2063616c6c20746869732066756e60408201526431b4ba37b760d91b606082015260800190565b634e487b7160e01b600052603260045260246000fd5b634e487b7160e01b600052601160045260246000fd5b600082821015611cc457611cc4611c9c565b500390565b60008219821115611cdc57611cdc611c9c565b500190565b6000600019821415611cf557611cf5611c9c565b5060010190565b634e487b7160e01b600052603160045260246000fd5b600181811c90821680611d2657607f821691505b6020821081141561176257634e487b7160e01b600052602260045260246000fd5b6020808252603a908201527f4f6e6c7920746865206164647265737320696e20746865206d696e746572206c60408201527f6973742063616e2063616c6c20746869732066756e6374696f6e000000000000606082015260800190565b634e487b7160e01b600052602160045260246000fdfea264697066735822122072c442f5e3ff60fbcab9a0108e645be5453f80efbb7186b10fcc28a056f9fe5664736f6c63430008090033",
  "immutableReferences": {
    "676": [
      {
        "length": 32,
        "start": 3675
      }
    ],
    "2069": [
      {
        "length": 32,
        "start": 5197
      }
    ],
    "2071": [
      {
        "length": 32,
        "start": 5155
      }
    ],
    "2073": [
      {
        "length": 32,
        "start": 5113
      }
    ],
    "2075": [
      {
        "length": 32,
        "start": 5280
      }
    ],
    "2077": [
      {
        "length": 32,
        "start": 5317
      }
    ],
    "2079": [
      {
        "length": 32,
        "start": 5238
      }
    ]
  },
  "source": "// SPDX-License-Identifier: MIT\npragma solidity 0.8.9;\n\nimport \"@openzeppelin/contracts/token/ERC20/extensions/draft-ERC20Permit.sol\";\nimport \"./interfaces/IDegisToken.sol\";\n\n/**@title  Degis Token\n * @notice DegisToken inherits from ERC20Votes which contains the ERC20 Permit.\n *         DegisToken can use the permit function rather than approve + transferFrom.\n *\n *         DegisToken has an owner, a minter and a burner.\n *         When lauched on mainnet, the owner may be removed or tranferred to a multisig.\n *         By default, the owner & minter account will be the one that deploys the contract.\n *         The minter may(and should) later be passed to InsurancePool.\n *         The burner may(and should) later be passed to EmergencyPool.\n */\ncontract DegisToken is ERC20Permit, IDegisToken {\n    address public owner;\n\n    // List of all minters\n    address[] public minterList;\n    mapping(address => bool) public isMinter;\n\n    // List of all burners\n    address[] public burnerList;\n    mapping(address => bool) public isBurner;\n\n    // Degis has a total supply of 100 million\n    uint256 public constant CAP = 1e8 ether;\n\n    // ---------------------------------------------------------------------------------------- //\n    // ************************************ Constructor *************************************** //\n    // ---------------------------------------------------------------------------------------- //\n\n    /**\n     * @notice Use ERC20 + ERC20Permit constructor and set the owner, minter and burner\n     */\n    constructor() ERC20(\"DegisToken\", \"DEGIS\") ERC20Permit(\"DegisToken\") {\n        owner = msg.sender;\n        // Originally set the owner as a minter\n        // FIXME: This may be removed on mainnet\n        minterList.push(msg.sender);\n        isMinter[msg.sender] = true;\n    }\n\n    // ---------------------------------------------------------------------------------------- //\n    // ************************************* Modifiers **************************************** //\n    // ---------------------------------------------------------------------------------------- //\n\n    // Only the owner can call some functions\n    modifier onlyOwner() {\n        require(msg.sender == owner, \"Only the owner can call this funciton\");\n        _;\n    }\n\n    // Degis toke has a hard cap of 100 million\n    modifier notExceedCap(uint256 _amount) {\n        require(\n            totalSupply() + _amount <= CAP,\n            \"DegisToken exceeds the cap (100 million)\"\n        );\n        _;\n    }\n\n    // Check if the msg.sender is in the minter list\n    modifier inMinterList(address _sender) {\n        require(\n            isMinter[_sender] == true,\n            \"Only the address in the minter list can call this function\"\n        );\n        _;\n    }\n\n    // Check if the msg.sender is in the burner list\n    modifier inBurnerList(address _sender) {\n        require(\n            isBurner[_sender] == true,\n            \"Only the address in the minter list can call this function\"\n        );\n        _;\n    }\n\n    // ---------------------------------------------------------------------------------------- //\n    // *********************************** Set Functions ************************************** //\n    // ---------------------------------------------------------------------------------------- //\n\n    /**\n     * @notice Add a new minter into the list\n     * @param _newMinter Address of the new minter\n     */\n    function addMinter(address _newMinter) external onlyOwner {\n        require(\n            isMinter[_newMinter] == false,\n            \"This address is already a minter\"\n        );\n        minterList.push(_newMinter);\n        isMinter[_newMinter] = true;\n\n        emit MinterAdded(_newMinter);\n    }\n\n    /**\n     * @notice Remove a minter from the list\n     * @param _oldMinter Address of the minter to be removed\n     */\n    function removeMinter(address _oldMinter) external onlyOwner {\n        require(isMinter[_oldMinter] == true, \"This address is not a minter\");\n\n        uint256 length = minterList.length;\n        for (uint256 i = 0; i < length; i++) {\n            if (minterList[i] == _oldMinter) {\n                for (uint256 j = i; j < length - 1; j++) {\n                    minterList[j] = minterList[j + 1];\n                }\n                minterList.pop();\n            } else continue;\n        }\n        isMinter[_oldMinter] = false;\n\n        emit MinterRemoved(_oldMinter);\n    }\n\n    /**\n     * @notice Add a new burner into the list\n     * @param _newBurner Address of the new burner\n     */\n    function addBurner(address _newBurner) external onlyOwner {\n        require(\n            isBurner[_newBurner] == false,\n            \"This address is already a burner\"\n        );\n        burnerList.push(_newBurner);\n        isBurner[_newBurner] = true;\n\n        emit BurnerAdded(_newBurner);\n    }\n\n    /**\n     * @notice Remove a minter from the list\n     * @param _oldBurner Address of the minter to be removed\n     */\n    function removeBurner(address _oldBurner) external onlyOwner {\n        require(isMinter[_oldBurner] == true, \"This address is not a burner\");\n\n        uint256 length = burnerList.length;\n        for (uint256 i = 0; i < length; i++) {\n            if (burnerList[i] == _oldBurner) {\n                for (uint256 j = i; j < length - 1; j++) {\n                    burnerList[j] = burnerList[j + 1];\n                }\n                burnerList.pop();\n            } else continue;\n        }\n        isBurner[_oldBurner] = false;\n\n        emit BurnerRemoved(_oldBurner);\n    }\n\n    /**\n     * @notice Pass the owner role to a new address, only the owner can change the owner\n     * @param _newOwner New owner's address\n     */\n    function passOwnership(address _newOwner) external onlyOwner {\n        owner = _newOwner;\n        emit OwnerChanged(msg.sender, _newOwner);\n    }\n\n    /**\n     * @notice Release the ownership to zero address, can never get back !\n     */\n    function releaseOwnership() public onlyOwner {\n        owner = address(0);\n        emit OwnershipReleased(msg.sender);\n    }\n\n    // ---------------------------------------------------------------------------------------- //\n    // *********************************** Main Functions ************************************* //\n    // ---------------------------------------------------------------------------------------- //\n    event Mint(address _userAddress);\n\n    /**\n     * @notice Mint tokens\n     * @param _account Receiver's address\n     * @param _amount Amount to be minted\n     */\n    function mint(address _account, uint256 _amount)\n        public\n        notExceedCap(_amount)\n        inMinterList(msg.sender)\n    {\n        _mint(_account, _amount); // ERC20 method with an event\n        emit Mint(_account);\n    }\n\n    /**\n     * @notice Burn tokens\n     * @param _account address\n     * @param _amount amount to be burned\n     */\n    function burn(address _account, uint256 _amount)\n        public\n        inBurnerList(msg.sender)\n    {\n        _burn(_account, _amount);\n    }\n}\n",
  "sourcePath": "/Volumes/Store/Degis/Degis-Staking/contracts/DegisToken.sol",
  "compiler": {
    "name": "solc",
    "version": "0.8.9+commit.e5eed63a.Emscripten.clang"
  },
  "schemaVersion": "3.4.3",
  "updatedAt": "2021-12-09T16:23:40.424Z",
  "networkType": "ethereum",
  "devdoc": {
    "kind": "dev",
    "methods": {
      "DOMAIN_SEPARATOR()": {
        "details": "See {IERC20Permit-DOMAIN_SEPARATOR}."
      },
      "addBurner(address)": {
        "params": {
          "_newBurner": "Address of the new burner"
        }
      },
      "addMinter(address)": {
        "params": {
          "_newMinter": "Address of the new minter"
        }
      },
      "allowance(address,address)": {
        "details": "See {IERC20-allowance}."
      },
      "approve(address,uint256)": {
        "details": "See {IERC20-approve}. Requirements: - `spender` cannot be the zero address."
      },
      "balanceOf(address)": {
        "details": "See {IERC20-balanceOf}."
      },
      "burn(address,uint256)": {
        "params": {
          "_account": "address",
          "_amount": "amount to be burned"
        }
      },
      "decimals()": {
        "details": "Returns the number of decimals used to get its user representation. For example, if `decimals` equals `2`, a balance of `505` tokens should be displayed to a user as `5.05` (`505 / 10 ** 2`). Tokens usually opt for a value of 18, imitating the relationship between Ether and Wei. This is the value {ERC20} uses, unless this function is overridden; NOTE: This information is only used for _display_ purposes: it in no way affects any of the arithmetic of the contract, including {IERC20-balanceOf} and {IERC20-transfer}."
      },
      "decreaseAllowance(address,uint256)": {
        "details": "Atomically decreases the allowance granted to `spender` by the caller. This is an alternative to {approve} that can be used as a mitigation for problems described in {IERC20-approve}. Emits an {Approval} event indicating the updated allowance. Requirements: - `spender` cannot be the zero address. - `spender` must have allowance for the caller of at least `subtractedValue`."
      },
      "increaseAllowance(address,uint256)": {
        "details": "Atomically increases the allowance granted to `spender` by the caller. This is an alternative to {approve} that can be used as a mitigation for problems described in {IERC20-approve}. Emits an {Approval} event indicating the updated allowance. Requirements: - `spender` cannot be the zero address."
      },
      "mint(address,uint256)": {
        "params": {
          "_account": "Receiver's address",
          "_amount": "Amount to be minted"
        }
      },
      "name()": {
        "details": "Returns the name of the token."
      },
      "nonces(address)": {
        "details": "See {IERC20Permit-nonces}."
      },
      "passOwnership(address)": {
        "params": {
          "_newOwner": "New owner's address"
        }
      },
      "permit(address,address,uint256,uint256,uint8,bytes32,bytes32)": {
        "details": "See {IERC20Permit-permit}."
      },
      "removeBurner(address)": {
        "params": {
          "_oldBurner": "Address of the minter to be removed"
        }
      },
      "removeMinter(address)": {
        "params": {
          "_oldMinter": "Address of the minter to be removed"
        }
      },
      "symbol()": {
        "details": "Returns the symbol of the token, usually a shorter version of the name."
      },
      "totalSupply()": {
        "details": "See {IERC20-totalSupply}."
      },
      "transfer(address,uint256)": {
        "details": "See {IERC20-transfer}. Requirements: - `recipient` cannot be the zero address. - the caller must have a balance of at least `amount`."
      },
      "transferFrom(address,address,uint256)": {
        "details": "See {IERC20-transferFrom}. Emits an {Approval} event indicating the updated allowance. This is not required by the EIP. See the note at the beginning of {ERC20}. Requirements: - `sender` and `recipient` cannot be the zero address. - `sender` must have a balance of at least `amount`. - the caller must have allowance for ``sender``'s tokens of at least `amount`."
      }
    },
    "title": "Degis Token",
    "version": 1
  },
  "userdoc": {
    "kind": "user",
    "methods": {
      "addBurner(address)": {
        "notice": "Add a new burner into the list"
      },
      "addMinter(address)": {
        "notice": "Add a new minter into the list"
      },
      "burn(address,uint256)": {
        "notice": "Burn tokens"
      },
      "constructor": {
        "notice": "Use ERC20 + ERC20Permit constructor and set the owner, minter and burner"
      },
      "mint(address,uint256)": {
        "notice": "Mint tokens"
      },
      "passOwnership(address)": {
        "notice": "Pass the owner role to a new address, only the owner can change the owner"
      },
      "releaseOwnership()": {
        "notice": "Release the ownership to zero address, can never get back !"
      },
      "removeBurner(address)": {
        "notice": "Remove a minter from the list"
      },
      "removeMinter(address)": {
        "notice": "Remove a minter from the list"
      }
    },
    "notice": "DegisToken inherits from ERC20Votes which contains the ERC20 Permit.         DegisToken can use the permit function rather than approve + transferFrom.         DegisToken has an owner, a minter and a burner.         When lauched on mainnet, the owner may be removed or tranferred to a multisig.         By default, the owner & minter account will be the one that deploys the contract.         The minter may(and should) later be passed to InsurancePool.         The burner may(and should) later be passed to EmergencyPool.",
    "version": 1
  }
}