{
  "contractName": "MockUSD",
  "abi": [
    {
      "inputs": [],
      "stateMutability": "nonpayable",
      "type": "constructor"
    },
    {
      "anonymous": false,
      "inputs": [
        {
          "indexed": true,
          "internalType": "address",
          "name": "owner",
          "type": "address"
        },
        {
          "indexed": true,
          "internalType": "address",
          "name": "spender",
          "type": "address"
        },
        {
          "indexed": false,
          "internalType": "uint256",
          "name": "value",
          "type": "uint256"
        }
      ],
      "name": "Approval",
      "type": "event"
    },
    {
      "anonymous": false,
      "inputs": [
        {
          "indexed": true,
          "internalType": "address",
          "name": "from",
          "type": "address"
        },
        {
          "indexed": true,
          "internalType": "address",
          "name": "to",
          "type": "address"
        },
        {
          "indexed": false,
          "internalType": "uint256",
          "name": "value",
          "type": "uint256"
        }
      ],
      "name": "Transfer",
      "type": "event"
    },
    {
      "inputs": [],
      "name": "MAX_CAP",
      "outputs": [
        {
          "internalType": "uint256",
          "name": "",
          "type": "uint256"
        }
      ],
      "stateMutability": "view",
      "type": "function",
      "constant": true
    },
    {
      "inputs": [],
      "name": "MOCK_SUPPLY",
      "outputs": [
        {
          "internalType": "uint256",
          "name": "",
          "type": "uint256"
        }
      ],
      "stateMutability": "view",
      "type": "function",
      "constant": true
    },
    {
      "inputs": [
        {
          "internalType": "address",
          "name": "owner",
          "type": "address"
        },
        {
          "internalType": "address",
          "name": "spender",
          "type": "address"
        }
      ],
      "name": "allowance",
      "outputs": [
        {
          "internalType": "uint256",
          "name": "",
          "type": "uint256"
        }
      ],
      "stateMutability": "view",
      "type": "function",
      "constant": true
    },
    {
      "inputs": [
        {
          "internalType": "address",
          "name": "spender",
          "type": "address"
        },
        {
          "internalType": "uint256",
          "name": "amount",
          "type": "uint256"
        }
      ],
      "name": "approve",
      "outputs": [
        {
          "internalType": "bool",
          "name": "",
          "type": "bool"
        }
      ],
      "stateMutability": "nonpayable",
      "type": "function"
    },
    {
      "inputs": [
        {
          "internalType": "address",
          "name": "account",
          "type": "address"
        }
      ],
      "name": "balanceOf",
      "outputs": [
        {
          "internalType": "uint256",
          "name": "",
          "type": "uint256"
        }
      ],
      "stateMutability": "view",
      "type": "function",
      "constant": true
    },
    {
      "inputs": [],
      "name": "decimals",
      "outputs": [
        {
          "internalType": "uint8",
          "name": "",
          "type": "uint8"
        }
      ],
      "stateMutability": "view",
      "type": "function",
      "constant": true
    },
    {
      "inputs": [
        {
          "internalType": "address",
          "name": "spender",
          "type": "address"
        },
        {
          "internalType": "uint256",
          "name": "subtractedValue",
          "type": "uint256"
        }
      ],
      "name": "decreaseAllowance",
      "outputs": [
        {
          "internalType": "bool",
          "name": "",
          "type": "bool"
        }
      ],
      "stateMutability": "nonpayable",
      "type": "function"
    },
    {
      "inputs": [
        {
          "internalType": "address",
          "name": "spender",
          "type": "address"
        },
        {
          "internalType": "uint256",
          "name": "addedValue",
          "type": "uint256"
        }
      ],
      "name": "increaseAllowance",
      "outputs": [
        {
          "internalType": "bool",
          "name": "",
          "type": "bool"
        }
      ],
      "stateMutability": "nonpayable",
      "type": "function"
    },
    {
      "inputs": [],
      "name": "name",
      "outputs": [
        {
          "internalType": "string",
          "name": "",
          "type": "string"
        }
      ],
      "stateMutability": "view",
      "type": "function",
      "constant": true
    },
    {
      "inputs": [],
      "name": "symbol",
      "outputs": [
        {
          "internalType": "string",
          "name": "",
          "type": "string"
        }
      ],
      "stateMutability": "view",
      "type": "function",
      "constant": true
    },
    {
      "inputs": [],
      "name": "totalSupply",
      "outputs": [
        {
          "internalType": "uint256",
          "name": "",
          "type": "uint256"
        }
      ],
      "stateMutability": "view",
      "type": "function",
      "constant": true
    },
    {
      "inputs": [
        {
          "internalType": "address",
          "name": "recipient",
          "type": "address"
        },
        {
          "internalType": "uint256",
          "name": "amount",
          "type": "uint256"
        }
      ],
      "name": "transfer",
      "outputs": [
        {
          "internalType": "bool",
          "name": "",
          "type": "bool"
        }
      ],
      "stateMutability": "nonpayable",
      "type": "function"
    },
    {
      "inputs": [
        {
          "internalType": "address",
          "name": "sender",
          "type": "address"
        },
        {
          "internalType": "address",
          "name": "recipient",
          "type": "address"
        },
        {
          "internalType": "uint256",
          "name": "amount",
          "type": "uint256"
        }
      ],
      "name": "transferFrom",
      "outputs": [
        {
          "internalType": "bool",
          "name": "",
          "type": "bool"
        }
      ],
      "stateMutability": "nonpayable",
      "type": "function"
    },
    {
      "inputs": [],
      "name": "getAllUsers",
      "outputs": [
        {
          "internalType": "address[]",
          "name": "",
          "type": "address[]"
        }
      ],
      "stateMutability": "view",
      "type": "function",
      "constant": true
    },
    {
      "inputs": [
        {
          "internalType": "address",
          "name": "account",
          "type": "address"
        },
        {
          "internalType": "uint256",
          "name": "value",
          "type": "uint256"
        }
      ],
      "name": "mint",
      "outputs": [],
      "stateMutability": "nonpayable",
      "type": "function"
    }
  ],
  "bytecode": "0x60806040526969e10de76676d08000006005553480156200001f57600080fd5b5060408051808201825260078152661353d0d2d554d160ca1b6020808301918252835180850190945260048452635553444360e01b9084015281519192916200006b916003916200018e565b508051620000819060049060208401906200018e565b505050620000a03369152d02c7e14af6800000620000a660201b60201c565b62000298565b6001600160a01b038216620001015760405162461bcd60e51b815260206004820152601f60248201527f45524332303a206d696e7420746f20746865207a65726f206164647265737300604482015260640160405180910390fd5b806002600082825462000115919062000234565b90915550506001600160a01b038216600090815260208190526040812080548392906200014490849062000234565b90915550506040518181526001600160a01b038316906000907fddf252ad1be2c89b69c2b068fc378daa952ba7f163c4a11628f55a4df523b3ef9060200160405180910390a35050565b8280546200019c906200025b565b90600052602060002090601f016020900481019282620001c057600085556200020b565b82601f10620001db57805160ff19168380011785556200020b565b828001600101855582156200020b579182015b828111156200020b578251825591602001919060010190620001ee565b50620002199291506200021d565b5090565b5b808211156200021957600081556001016200021e565b600082198211156200025657634e487b7160e01b600052601160045260246000fd5b500190565b600181811c908216806200027057607f821691505b602082108114156200029257634e487b7160e01b600052602260045260246000fd5b50919050565b610c6080620002a86000396000f3fe608060405234801561001057600080fd5b50600436106100f55760003560e01c806370a0823111610097578063a9059cbb11610066578063a9059cbb146101ec578063d669e1d4146101ff578063dd62ed3e14610208578063e2842d791461024157600080fd5b806370a082311461019757806395d89b41146101c0578063a457c2d7146101c8578063a70d2da3146101db57600080fd5b806323b872dd116100d357806323b872dd1461014d578063313ce56714610160578063395093511461016f57806340c10f191461018257600080fd5b806306fdde03146100fa578063095ea7b31461011857806318160ddd1461013b575b600080fd5b610102610256565b60405161010f9190610a50565b60405180910390f35b61012b610126366004610ac1565b6102e8565b604051901515815260200161010f565b6002545b60405190815260200161010f565b61012b61015b366004610aeb565b6102fe565b6040516012815260200161010f565b61012b61017d366004610ac1565b6103ad565b610195610190366004610ac1565b6103e9565b005b61013f6101a5366004610b27565b6001600160a01b031660009081526020819052604090205490565b610102610568565b61012b6101d6366004610ac1565b610577565b61013f69152d02c7e14af680000081565b61012b6101fa366004610ac1565b610610565b61013f60055481565b61013f610216366004610b49565b6001600160a01b03918216600090815260016020908152604080832093909416825291909152205490565b61024961061d565b60405161010f9190610b7c565b60606003805461026590610bc9565b80601f016020809104026020016040519081016040528092919081815260200182805461029190610bc9565b80156102de5780601f106102b3576101008083540402835291602001916102de565b820191906000526020600020905b8154815290600101906020018083116102c157829003601f168201915b5050505050905090565b60006102f533848461067e565b50600192915050565b600061030b8484846107a2565b6001600160a01b0384166000908152600160209081526040808320338452909152902054828110156103955760405162461bcd60e51b815260206004820152602860248201527f45524332303a207472616e7366657220616d6f756e74206578636565647320616044820152676c6c6f77616e636560c01b60648201526084015b60405180910390fd5b6103a2853385840361067e565b506001949350505050565b3360008181526001602090815260408083206001600160a01b038716845290915281205490916102f59185906103e4908690610c04565b61067e565b69152d02c7e14af680000081111561044f5760405162461bcd60e51b8152602060048201526024808201527f506c65617365206d696e74206c657373207468616e2031306b2065766572792060448201526374696d6560e01b606482015260840161038c565b6005546001600160a01b038316600090815260066020526040902054610476908390610c04565b11156104c45760405162461bcd60e51b815260206004820152601c60248201527f596f752068617665206d696e74656420746f6f206d616e792075736400000000604482015260640161038c565b6001600160a01b03821660009081526006602052604090205461052d57600780546001810182556000919091527fa66cc928b5edb82af9bd49922954155ab7b0942694bea4ce44661d9a8736c6880180546001600160a01b0319166001600160a01b0384161790555b6105378282610971565b6001600160a01b0382166000908152600660205260408120805483929061055f908490610c04565b90915550505050565b60606004805461026590610bc9565b3360009081526001602090815260408083206001600160a01b0386168452909152812054828110156105f95760405162461bcd60e51b815260206004820152602560248201527f45524332303a2064656372656173656420616c6c6f77616e63652062656c6f77604482015264207a65726f60d81b606482015260840161038c565b610606338585840361067e565b5060019392505050565b60006102f53384846107a2565b606060078054806020026020016040519081016040528092919081815260200182805480156102de57602002820191906000526020600020905b81546001600160a01b03168152600190910190602001808311610657575050505050905090565b6001600160a01b0383166106e05760405162461bcd60e51b8152602060048201526024808201527f45524332303a20617070726f76652066726f6d20746865207a65726f206164646044820152637265737360e01b606482015260840161038c565b6001600160a01b0382166107415760405162461bcd60e51b815260206004820152602260248201527f45524332303a20617070726f766520746f20746865207a65726f206164647265604482015261737360f01b606482015260840161038c565b6001600160a01b0383811660008181526001602090815260408083209487168084529482529182902085905590518481527f8c5be1e5ebec7d5bd14f71427d1e84f3dd0314c0f7b2291e5b200ac8c7c3b925910160405180910390a3505050565b6001600160a01b0383166108065760405162461bcd60e51b815260206004820152602560248201527f45524332303a207472616e736665722066726f6d20746865207a65726f206164604482015264647265737360d81b606482015260840161038c565b6001600160a01b0382166108685760405162461bcd60e51b815260206004820152602360248201527f45524332303a207472616e7366657220746f20746865207a65726f206164647260448201526265737360e81b606482015260840161038c565b6001600160a01b038316600090815260208190526040902054818110156108e05760405162461bcd60e51b815260206004820152602660248201527f45524332303a207472616e7366657220616d6f756e7420657863656564732062604482015265616c616e636560d01b606482015260840161038c565b6001600160a01b03808516600090815260208190526040808220858503905591851681529081208054849290610917908490610c04565b92505081905550826001600160a01b0316846001600160a01b03167fddf252ad1be2c89b69c2b068fc378daa952ba7f163c4a11628f55a4df523b3ef8460405161096391815260200190565b60405180910390a350505050565b6001600160a01b0382166109c75760405162461bcd60e51b815260206004820152601f60248201527f45524332303a206d696e7420746f20746865207a65726f206164647265737300604482015260640161038c565b80600260008282546109d99190610c04565b90915550506001600160a01b03821660009081526020819052604081208054839290610a06908490610c04565b90915550506040518181526001600160a01b038316906000907fddf252ad1be2c89b69c2b068fc378daa952ba7f163c4a11628f55a4df523b3ef9060200160405180910390a35050565b600060208083528351808285015260005b81811015610a7d57858101830151858201604001528201610a61565b81811115610a8f576000604083870101525b50601f01601f1916929092016040019392505050565b80356001600160a01b0381168114610abc57600080fd5b919050565b60008060408385031215610ad457600080fd5b610add83610aa5565b946020939093013593505050565b600080600060608486031215610b0057600080fd5b610b0984610aa5565b9250610b1760208501610aa5565b9150604084013590509250925092565b600060208284031215610b3957600080fd5b610b4282610aa5565b9392505050565b60008060408385031215610b5c57600080fd5b610b6583610aa5565b9150610b7360208401610aa5565b90509250929050565b6020808252825182820181905260009190848201906040850190845b81811015610bbd5783516001600160a01b031683529284019291840191600101610b98565b50909695505050505050565b600181811c90821680610bdd57607f821691505b60208210811415610bfe57634e487b7160e01b600052602260045260246000fd5b50919050565b60008219821115610c2557634e487b7160e01b600052601160045260246000fd5b50019056fea2646970667358221220dcb8b112c95b2c64f4c30d90374c69e907bcf49c7ef2638681848adc1ababf9364736f6c63430008090033",
  "immutableReferences": {},
  "source": "// SPDX-License-Identifier: MIT\npragma solidity 0.8.9;\n\nimport \"@openzeppelin/contracts/token/ERC20/ERC20.sol\";\n\n/**\n * @notice This is the MockUSD used in fuji testnet\n */\ncontract MockUSD is ERC20 {\n    uint256 public constant MOCK_SUPPLY = 100000e18;\n\n    uint256 public MAX_CAP = 500000e18;\n\n    mapping(address => uint256) userHaveMinted;\n    address[] allUsers;\n\n    constructor() ERC20(\"MOCKUSD\", \"USDC\") {\n        // When first deployed, give the owner some coins\n        _mint(msg.sender, MOCK_SUPPLY);\n    }\n\n    function getAllUsers() external view returns (address[] memory) {\n        return allUsers;\n    }\n\n    // Everyone can mint, have fun for test\n    function mint(address account, uint256 value) public {\n        require(value <= 100000e18, \"Please mint less than 10k every time\");\n        require(\n            userHaveMinted[account] + value <= MAX_CAP,\n            \"You have minted too many usd\"\n        );\n\n        if (userHaveMinted[account] == 0) allUsers.push(account);\n\n        _mint(account, value);\n        userHaveMinted[account] += value;\n    }\n}\n",
  "sourcePath": "/Volumes/Store/Degis/Degis-Staking/contracts/Mock/MockUSD.sol",
  "compiler": {
    "name": "solc",
    "version": "0.8.9+commit.e5eed63a.Emscripten.clang"
  },
  "schemaVersion": "3.4.3",
  "updatedAt": "2021-12-09T16:23:42.637Z",
  "networkType": "ethereum",
  "devdoc": {
    "kind": "dev",
    "methods": {
      "allowance(address,address)": {
        "details": "See {IERC20-allowance}."
      },
      "approve(address,uint256)": {
        "details": "See {IERC20-approve}. Requirements: - `spender` cannot be the zero address."
      },
      "balanceOf(address)": {
        "details": "See {IERC20-balanceOf}."
      },
      "decimals()": {
        "details": "Returns the number of decimals used to get its user representation. For example, if `decimals` equals `2`, a balance of `505` tokens should be displayed to a user as `5.05` (`505 / 10 ** 2`). Tokens usually opt for a value of 18, imitating the relationship between Ether and Wei. This is the value {ERC20} uses, unless this function is overridden; NOTE: This information is only used for _display_ purposes: it in no way affects any of the arithmetic of the contract, including {IERC20-balanceOf} and {IERC20-transfer}."
      },
      "decreaseAllowance(address,uint256)": {
        "details": "Atomically decreases the allowance granted to `spender` by the caller. This is an alternative to {approve} that can be used as a mitigation for problems described in {IERC20-approve}. Emits an {Approval} event indicating the updated allowance. Requirements: - `spender` cannot be the zero address. - `spender` must have allowance for the caller of at least `subtractedValue`."
      },
      "increaseAllowance(address,uint256)": {
        "details": "Atomically increases the allowance granted to `spender` by the caller. This is an alternative to {approve} that can be used as a mitigation for problems described in {IERC20-approve}. Emits an {Approval} event indicating the updated allowance. Requirements: - `spender` cannot be the zero address."
      },
      "name()": {
        "details": "Returns the name of the token."
      },
      "symbol()": {
        "details": "Returns the symbol of the token, usually a shorter version of the name."
      },
      "totalSupply()": {
        "details": "See {IERC20-totalSupply}."
      },
      "transfer(address,uint256)": {
        "details": "See {IERC20-transfer}. Requirements: - `recipient` cannot be the zero address. - the caller must have a balance of at least `amount`."
      },
      "transferFrom(address,address,uint256)": {
        "details": "See {IERC20-transferFrom}. Emits an {Approval} event indicating the updated allowance. This is not required by the EIP. See the note at the beginning of {ERC20}. Requirements: - `sender` and `recipient` cannot be the zero address. - `sender` must have a balance of at least `amount`. - the caller must have allowance for ``sender``'s tokens of at least `amount`."
      }
    },
    "version": 1
  },
  "userdoc": {
    "kind": "user",
    "methods": {},
    "notice": "This is the MockUSD used in fuji testnet",
    "version": 1
  }
}