{
  "contractName": "PurchaseIncentiveVault",
  "abi": [
    {
      "inputs": [
        {
          "internalType": "address",
          "name": "_buyerToken",
          "type": "address"
        },
        {
          "internalType": "address",
          "name": "_degisToken",
          "type": "address"
        }
      ],
      "stateMutability": "nonpayable",
      "type": "constructor"
    },
    {
      "anonymous": false,
      "inputs": [
        {
          "indexed": false,
          "internalType": "uint256",
          "name": "_oldPerRound",
          "type": "uint256"
        },
        {
          "indexed": false,
          "internalType": "uint256",
          "name": "_newPerRound",
          "type": "uint256"
        }
      ],
      "name": "ChangeDegisPerRound",
      "type": "event"
    },
    {
      "anonymous": false,
      "inputs": [
        {
          "indexed": false,
          "internalType": "uint256",
          "name": "_oldInterval",
          "type": "uint256"
        },
        {
          "indexed": false,
          "internalType": "uint256",
          "name": "_newInterval",
          "type": "uint256"
        }
      ],
      "name": "ChangeDistributionInterval",
      "type": "event"
    },
    {
      "anonymous": false,
      "inputs": [
        {
          "indexed": false,
          "internalType": "address",
          "name": "_oldOwner",
          "type": "address"
        },
        {
          "indexed": false,
          "internalType": "address",
          "name": "_newOwner",
          "type": "address"
        }
      ],
      "name": "OwnershipTransferred",
      "type": "event"
    },
    {
      "anonymous": false,
      "inputs": [
        {
          "indexed": false,
          "internalType": "address",
          "name": "_userAddress",
          "type": "address"
        },
        {
          "indexed": false,
          "internalType": "uint256",
          "name": "_userReward",
          "type": "uint256"
        }
      ],
      "name": "RewardClaimed",
      "type": "event"
    },
    {
      "inputs": [],
      "name": "currentDistributionIndex",
      "outputs": [
        {
          "internalType": "uint256",
          "name": "",
          "type": "uint256"
        }
      ],
      "stateMutability": "view",
      "type": "function",
      "constant": true
    },
    {
      "inputs": [],
      "name": "currentRound",
      "outputs": [
        {
          "internalType": "uint256",
          "name": "",
          "type": "uint256"
        }
      ],
      "stateMutability": "view",
      "type": "function",
      "constant": true
    },
    {
      "inputs": [],
      "name": "degisPerRound",
      "outputs": [
        {
          "internalType": "uint256",
          "name": "",
          "type": "uint256"
        }
      ],
      "stateMutability": "view",
      "type": "function",
      "constant": true
    },
    {
      "inputs": [],
      "name": "distributionInterval",
      "outputs": [
        {
          "internalType": "uint256",
          "name": "",
          "type": "uint256"
        }
      ],
      "stateMutability": "view",
      "type": "function",
      "constant": true
    },
    {
      "inputs": [
        {
          "internalType": "uint256",
          "name": "",
          "type": "uint256"
        }
      ],
      "name": "hasDistributed",
      "outputs": [
        {
          "internalType": "bool",
          "name": "",
          "type": "bool"
        }
      ],
      "stateMutability": "view",
      "type": "function",
      "constant": true
    },
    {
      "inputs": [],
      "name": "lastDistribution",
      "outputs": [
        {
          "internalType": "uint256",
          "name": "",
          "type": "uint256"
        }
      ],
      "stateMutability": "view",
      "type": "function",
      "constant": true
    },
    {
      "inputs": [],
      "name": "owner",
      "outputs": [
        {
          "internalType": "address",
          "name": "",
          "type": "address"
        }
      ],
      "stateMutability": "view",
      "type": "function",
      "constant": true
    },
    {
      "inputs": [
        {
          "internalType": "uint256",
          "name": "",
          "type": "uint256"
        }
      ],
      "name": "sharesInRound",
      "outputs": [
        {
          "internalType": "uint256",
          "name": "",
          "type": "uint256"
        }
      ],
      "stateMutability": "view",
      "type": "function",
      "constant": true
    },
    {
      "inputs": [
        {
          "internalType": "address",
          "name": "",
          "type": "address"
        }
      ],
      "name": "userRewards",
      "outputs": [
        {
          "internalType": "uint256",
          "name": "",
          "type": "uint256"
        }
      ],
      "stateMutability": "view",
      "type": "function",
      "constant": true
    },
    {
      "inputs": [
        {
          "internalType": "address",
          "name": "",
          "type": "address"
        },
        {
          "internalType": "uint256",
          "name": "",
          "type": "uint256"
        }
      ],
      "name": "userSharesInRound",
      "outputs": [
        {
          "internalType": "uint256",
          "name": "",
          "type": "uint256"
        }
      ],
      "stateMutability": "view",
      "type": "function",
      "constant": true
    },
    {
      "inputs": [
        {
          "internalType": "uint256",
          "name": "",
          "type": "uint256"
        },
        {
          "internalType": "uint256",
          "name": "",
          "type": "uint256"
        }
      ],
      "name": "usersInRound",
      "outputs": [
        {
          "internalType": "address",
          "name": "",
          "type": "address"
        }
      ],
      "stateMutability": "view",
      "type": "function",
      "constant": true
    },
    {
      "inputs": [
        {
          "internalType": "address",
          "name": "_userAddress",
          "type": "address"
        }
      ],
      "name": "pendingReward",
      "outputs": [
        {
          "internalType": "uint256",
          "name": "",
          "type": "uint256"
        }
      ],
      "stateMutability": "view",
      "type": "function",
      "constant": true
    },
    {
      "inputs": [],
      "name": "checkIfCanStake",
      "outputs": [
        {
          "internalType": "bool",
          "name": "",
          "type": "bool"
        }
      ],
      "stateMutability": "view",
      "type": "function",
      "constant": true
    },
    {
      "inputs": [
        {
          "internalType": "uint256",
          "name": "_round",
          "type": "uint256"
        }
      ],
      "name": "getTotalUsersInRound",
      "outputs": [
        {
          "internalType": "uint256",
          "name": "",
          "type": "uint256"
        }
      ],
      "stateMutability": "view",
      "type": "function",
      "constant": true
    },
    {
      "inputs": [
        {
          "internalType": "address",
          "name": "_userAddress",
          "type": "address"
        }
      ],
      "name": "getUserShares",
      "outputs": [
        {
          "internalType": "uint256",
          "name": "",
          "type": "uint256"
        }
      ],
      "stateMutability": "view",
      "type": "function",
      "constant": true
    },
    {
      "inputs": [
        {
          "internalType": "address",
          "name": "_newOwner",
          "type": "address"
        }
      ],
      "name": "transferOwnerShip",
      "outputs": [],
      "stateMutability": "nonpayable",
      "type": "function"
    },
    {
      "inputs": [
        {
          "internalType": "uint256",
          "name": "_degisPerRound",
          "type": "uint256"
        }
      ],
      "name": "setDegisPerRound",
      "outputs": [],
      "stateMutability": "nonpayable",
      "type": "function"
    },
    {
      "inputs": [
        {
          "internalType": "uint256",
          "name": "_newInterval",
          "type": "uint256"
        }
      ],
      "name": "setDistributionInterval",
      "outputs": [],
      "stateMutability": "nonpayable",
      "type": "function"
    },
    {
      "inputs": [
        {
          "internalType": "uint256",
          "name": "_amount",
          "type": "uint256"
        }
      ],
      "name": "stakeBuyerToken",
      "outputs": [],
      "stateMutability": "nonpayable",
      "type": "function"
    },
    {
      "inputs": [
        {
          "internalType": "uint256",
          "name": "_amount",
          "type": "uint256"
        }
      ],
      "name": "redeemBuyerToken",
      "outputs": [],
      "stateMutability": "nonpayable",
      "type": "function"
    },
    {
      "inputs": [
        {
          "internalType": "uint256",
          "name": "_startIndex",
          "type": "uint256"
        },
        {
          "internalType": "uint256",
          "name": "_stopIndex",
          "type": "uint256"
        }
      ],
      "name": "distributeReward",
      "outputs": [],
      "stateMutability": "nonpayable",
      "type": "function"
    },
    {
      "inputs": [],
      "name": "claimReward",
      "outputs": [],
      "stateMutability": "nonpayable",
      "type": "function"
    }
  ],
  "bytecode": "0x608060405234801561001057600080fd5b50604051610fbd380380610fbd83398101604081905261002f9161008b565b600080546001600160a01b03199081163317909155600180546001600160a01b039485169083161790556002805492909316911617905543600c556100be565b80516001600160a01b038116811461008657600080fd5b919050565b6000806040838503121561009e57600080fd5b6100a78361006f565b91506100b56020840161006f565b90509250929050565b610ef0806100cd6000396000f3fe608060405234801561001057600080fd5b50600436106101425760003560e01c80638da5cb5b116100b8578063bb81b5d41161007c578063bb81b5d4146102cb578063c708c5f4146102eb578063e3bcd27c146102f4578063e6848ead14610307578063f371f53f1461031a578063f40f0f521461033d57600080fd5b80638da5cb5b14610246578063a0b412a614610271578063a717639c14610284578063b88a802f1461028d578063ba0cb22b1461029557600080fd5b806371201a0e1161010a57806371201a0e146101e657806371e71d4d146101ef5780637a16a49e146102045780638863dd1a1461021757806388a11d141461022a5780638a19c8bc1461023d57600080fd5b806304af5418146101475780630660f1e8146101645780631aeee41d146101925780632f017901146101b25780636ff85ea9146101dd575b600080fd5b61014f610366565b60405190151581526020015b60405180910390f35b610184610172366004610d1e565b60076020526000908152604090205481565b60405190815260200161015b565b6101846101a0366004610d40565b60009081526004602052604090205490565b6101846101c0366004610d59565b600660209081526000928352604080842090915290825290205481565b61018460095481565b610184600b5481565b6102026101fd366004610d40565b61038a565b005b610202610212366004610d40565b6104a0565b610202610225366004610d1e565b610510565b610202610238366004610d40565b610594565b61018460085481565b600054610259906001600160a01b031681565b6040516001600160a01b03909116815260200161015b565b61025961027f366004610d83565b61071d565b610184600c5481565b610202610755565b6101846102a3366004610d1e565b6001600160a01b03166000908152600660209081526040808320600854845290915290205490565b6101846102d9366004610d40565b60036020526000908152604090205481565b610184600a5481565b610202610302366004610d83565b61085f565b610202610315366004610d40565b610b1d565b61014f610328366004610d40565b60056020526000908152604090205460ff1681565b61018461034b366004610d1e565b6001600160a01b031660009081526007602052604090205490565b6000600b54600c54436103799190610dbb565b116103845750600190565b50600090565b3360009081526006602090815260408083206008548452909152902054818110156104065760405162461bcd60e51b815260206004820152602160248201527f4e6f7420656e6f75676820627579657220746f6b656e7320746f2072656465656044820152606d60f81b60648201526084015b60405180910390fd5b336000908152600660209081526040808320600854845290915281208054849290610432908490610dbb565b909155505060085460009081526003602052604081208054849290610458908490610dbb565b9091555050336000908152600660209081526040808320600854845290915290205461049c5733600090815260066020908152604080832060085484529091528120555b5050565b6000546001600160a01b031633146104ca5760405162461bcd60e51b81526004016103fd90610dd2565b600b80549082905560408051828152602081018490527f16251f0547943d63961e7d9293b1954795943a3e06afe20238eed85284df4cc991015b60405180910390a15050565b6000546001600160a01b0316331461053a5760405162461bcd60e51b81526004016103fd90610dd2565b600080546001600160a01b038381166001600160a01b031983168117909355604080519190921680825260208201939093527f8be0079c531659141344cd1fd0a4f28419497f9722a3daafe3b4186f6b6457e09101610504565b6001546040516370a0823160e01b81523360048201526000916001600160a01b0316906370a082319060240160206040518083038186803b1580156105d857600080fd5b505afa1580156105ec573d6000803e3d6000fd5b505050506040513d601f19601f820116820180604052508101906106109190610e17565b116106705760405162461bcd60e51b815260206004820152602a60248201527f596f7520646f206e6f74206861766520616e7920627579657220746f6b656e206044820152691d1bc819195c1bdcda5d60b21b60648201526084016103fd565b33600090815260066020908152604080832060085484529091529020546106c35760085460009081526004602090815260408220805460018101825590835291200180546001600160a01b031916331790555b3360009081526006602090815260408083206008548452909152812080548392906106ef908490610e30565b909155505060085460009081526003602052604081208054839290610715908490610e30565b909155505050565b6004602052816000526040600020818154811061073957600080fd5b6000918252602090912001546001600160a01b03169150829050565b33600090815260076020526040902054806107be5760405162461bcd60e51b8152602060048201526024808201527f596f7520646f206e6f74206861766520616e79207265776172647320746f20636044820152636c61696d60e01b60648201526084016103fd565b6002546040516340c10f1960e01b8152336004820152602481018390526001600160a01b03909116906340c10f1990604401600060405180830381600087803b15801561080a57600080fd5b505af115801561081e573d6000803e3d6000fd5b505060408051338152602081018590527f106f923f993c2149d49b4255ff723acafa1f2d94393f561d3eda32ae348f7241935001905060405180910390a150565b6000546001600160a01b031633146108895760405162461bcd60e51b81526004016103fd90610dd2565b600b54600c546108999043610dbb565b116108fa5760405162461bcd60e51b815260206004820152602b60248201527f54776f20646973747269627574696f6e73206e65656420746f2068617665206160448201526a0371034b73a32b93b30b6160ad1b60648201526084016103fd565b6000600a54116109725760405162461bcd60e51b815260206004820152603960248201527f43757272656e746c79206e6f204465676973207265776172642c20706c65617360448201527f6520736574206465676973506572526f756e642066697273740000000000000060648201526084016103fd565b60085460009081526005602052604090205460ff16156109df5760405162461bcd60e51b815260206004820152602260248201527f43757272656e7420726f756e6420686173206265656e20646973747269627574604482015261195960f21b60648201526084016103fd565b600854600090815260036020526040812054600a54909190610a02908390610e48565b610a1490670de0b6b3a7640000610e6a565b90506000610a3060085460009081526004602052604090205490565b905084158015610a3e575083155b15610a5c57610a5260085460008385610b85565b6009819055610af3565b8460095414610ac85760405162461bcd60e51b815260206004820152603260248201527f596f75206e65656420746f2073746172742066726f6d20746865206c61737420604482015271191a5cdd1c9a589d5d1a5bdb881c1bda5b9d60721b60648201526084016103fd565b808411610ad55783610ad7565b805b93508315610aed57610aed600854868685610b85565b60098490555b6008546000908152600460205260409020546009541415610b1657610b16610cc3565b5050505050565b6000546001600160a01b03163314610b475760405162461bcd60e51b81526004016103fd90610dd2565b600a80549082905560408051828152602081018490527f3cef0f18c511ddb4219fabca0a75681231ffd5933fe81624d67420eab675e71f9101610504565b825b82811015610b16576000858152600460205260408120805483908110610baf57610baf610e89565b6000918252602080832091909101546001600160a01b039081168084526006835260408085208b865290935292829020546001549251632770a7eb60e21b8152600481018590526024810182905293945092911690639dc29fac90604401600060405180830381600087803b158015610c2757600080fd5b505af1158015610c3b573d6000803e3d6000fd5b5050505080600014610ca757610c518482610e6a565b6001600160a01b03831660009081526007602052604081208054909190610c79908490610e30565b90915550506001600160a01b03821660009081526006602090815260408083208a8452909152812055610cae565b5050610cb1565b50505b80610cbb81610e9f565b915050610b87565b60006009819055600880548252600560205260408220805460ff191660019081179091558154909290610cf7908490610e30565b909155505043600c55565b80356001600160a01b0381168114610d1957600080fd5b919050565b600060208284031215610d3057600080fd5b610d3982610d02565b9392505050565b600060208284031215610d5257600080fd5b5035919050565b60008060408385031215610d6c57600080fd5b610d7583610d02565b946020939093013593505050565b60008060408385031215610d9657600080fd5b50508035926020909101359150565b634e487b7160e01b600052601160045260246000fd5b600082821015610dcd57610dcd610da5565b500390565b60208082526025908201527f4f6e6c7920746865206f776e65722063616e2063616c6c20746869732066756e60408201526431ba34b7b760d91b606082015260800190565b600060208284031215610e2957600080fd5b5051919050565b60008219821115610e4357610e43610da5565b500190565b600082610e6557634e487b7160e01b600052601260045260246000fd5b500490565b6000816000190483118215151615610e8457610e84610da5565b500290565b634e487b7160e01b600052603260045260246000fd5b6000600019821415610eb357610eb3610da5565b506001019056fea2646970667358221220cd4c8871b5e37a87cfcf79189bfe3b94aebfa94aff693b012da5a075383c634364736f6c63430008090033",
  "immutableReferences": {},
  "source": "// SPDX-License-Identifier: MIT\npragma solidity 0.8.9;\nimport \"./interfaces/IBuyerToken.sol\";\nimport \"./interfaces/IDegisToken.sol\";\nimport \"@openzeppelin/contracts/token/ERC20/utils/SafeERC20.sol\";\nimport \"./interfaces/IPurchaseIncentiveVault.sol\";\n\ncontract PurchaseIncentiveVault is IPurchaseIncentiveVault {\n    using SafeERC20 for IBuyerToken;\n\n    address public owner;\n\n    IBuyerToken buyerToken;\n    IDegisToken degis;\n\n    mapping(uint256 => uint256) public sharesInRound;\n\n    mapping(uint256 => address[]) public usersInRound;\n\n    mapping(uint256 => bool) public hasDistributed;\n\n    mapping(address => mapping(uint256 => uint256)) public userSharesInRound;\n    mapping(address => uint256) public userRewards;\n\n    uint256 public currentRound;\n\n    uint256 public currentDistributionIndex;\n\n    uint256 public degisPerRound;\n    uint256 public distributionInterval; // in block numbers\n    uint256 public lastDistribution; // in block numbers\n\n    constructor(address _buyerToken, address _degisToken) {\n        owner = msg.sender;\n        buyerToken = IBuyerToken(_buyerToken);\n        degis = IDegisToken(_degisToken);\n\n        lastDistribution = block.number;\n    }\n\n    modifier onlyOwner() {\n        require(msg.sender == owner, \"Only the owner can call this function\");\n        _;\n    }\n\n    /**\n     * @notice Check if admins can distribute at this time, oppsite to \"canStake\"\n     */\n    modifier canDistribute() {\n        require(\n            block.number - lastDistribution > distributionInterval,\n            \"Two distributions need to have an interval \"\n        );\n        _;\n    }\n\n    // ---------------------------------------------------------------------------------------- //\n    // ************************************ View Functions ************************************ //\n    // ---------------------------------------------------------------------------------------- //\n\n    /**\n     * @notice Check a user's pending reward\n     * @param _userAddress Address of the user\n     * @return userRewards Pending degis amount of this user\n     */\n    function pendingReward(address _userAddress) public view returns (uint256) {\n        return userRewards[_userAddress];\n    }\n\n    /**\n     * @notice Check if users can stake buyer tokens now\n     * @dev Used for frontend\n     *      If exceed the interval, can not deposit and need to wait for distribution\n     * @return ifCanStake Whether users can stake now\n     */\n    function checkIfCanStake() external view returns (bool) {\n        if (block.number - lastDistribution <= distributionInterval)\n            return true;\n        else return false;\n    }\n\n    /**\n     * @notice Get the amount of users in _round, used for distribution\n     * @param _round Round number to check\n     * @return totalUsers Total amount of users in _round\n     */\n    function getTotalUsersInRound(uint256 _round)\n        public\n        view\n        returns (uint256)\n    {\n        return usersInRound[_round].length;\n    }\n\n    /**\n     * @notice Get your shares in the current round\n     * @param _userAddress Address of the user\n     */\n    function getUserShares(address _userAddress) public view returns (uint256) {\n        return userSharesInRound[_userAddress][currentRound];\n    }\n\n    // ---------------------------------------------------------------------------------------- //\n    // ************************************ Set Functions ************************************* //\n    // ---------------------------------------------------------------------------------------- //\n\n    /**\n     * @notice Transfer the ownership\n     * @param _newOwner Address of the new owner\n     */\n    function transferOwnerShip(address _newOwner) external onlyOwner {\n        address oldOwner = owner;\n        owner = _newOwner;\n        emit OwnershipTransferred(oldOwner, _newOwner);\n    }\n\n    /**\n     * @notice Set degis distribution per round\n     * @param _degisPerRound Degis distribution per round to be set\n     */\n    function setDegisPerRound(uint256 _degisPerRound) external onlyOwner {\n        uint256 oldPerRound = degisPerRound;\n        degisPerRound = _degisPerRound;\n        emit ChangeDegisPerRound(oldPerRound, _degisPerRound);\n    }\n\n    /**\n     * @notice Set a new distribution interval\n     * @param _newInterval The new interval\n     */\n    function setDistributionInterval(uint256 _newInterval) external onlyOwner {\n        uint256 oldInterval = distributionInterval;\n        distributionInterval = _newInterval;\n        emit ChangeDistributionInterval(oldInterval, _newInterval);\n    }\n\n    // ---------------------------------------------------------------------------------------- //\n    // ************************************ Main Functions ************************************ //\n    // ---------------------------------------------------------------------------------------- //\n\n    /**\n     * @notice Stake buyer token into this contract\n     * @param _amount Amount of buyer tokens to stake\n     */\n    function stakeBuyerToken(uint256 _amount) public {\n        require(\n            buyerToken.balanceOf(msg.sender) > 0,\n            \"You do not have any buyer token to deposit\"\n        );\n\n        if (userSharesInRound[msg.sender][currentRound] == 0) {\n            usersInRound[currentRound].push(msg.sender);\n        }\n\n        userSharesInRound[msg.sender][currentRound] += _amount;\n        sharesInRound[currentRound] += _amount;\n    }\n\n    /**\n     * @notice Redeem buyer token from the vault\n     * @param _amount Amount to redeem\n     */\n    function redeemBuyerToken(uint256 _amount) public {\n        uint256 userBalance = userSharesInRound[msg.sender][currentRound];\n        require(userBalance >= _amount, \"Not enough buyer tokens to redeem\");\n\n        userSharesInRound[msg.sender][currentRound] -= _amount;\n        sharesInRound[currentRound] -= _amount;\n\n        if (userSharesInRound[msg.sender][currentRound] == 0) {\n            delete userSharesInRound[msg.sender][currentRound];\n        }\n    }\n\n    /**\n     * @notice Distribute the reward in this round, the total number depends on the blocks during this period\n     * @param _startIndex Distribution start index\n     * @param _stopIndex Distribution stop index\n     */\n    function distributeReward(uint256 _startIndex, uint256 _stopIndex)\n        public\n        onlyOwner\n        canDistribute\n    {\n        require(\n            degisPerRound > 0,\n            \"Currently no Degis reward, please set degisPerRound first\"\n        );\n        require(\n            hasDistributed[currentRound] == false,\n            \"Current round has been distributed\"\n        );\n\n        uint256 totalShares = sharesInRound[currentRound];\n        uint256 degisPerShare = (degisPerRound / totalShares) * 1e18;\n\n        uint256 length = getTotalUsersInRound(currentRound);\n\n        // Distribute all at once (maybe not enough gas in one tx)\n        if (_startIndex == 0 && _stopIndex == 0) {\n            _distributeReward(currentRound, 0, length, degisPerShare);\n            currentDistributionIndex = length;\n        }\n        // Distribute in a certain range (need several times distribution)\n        else {\n            // Check if you start from the last check point\n            require(\n                currentDistributionIndex == _startIndex,\n                \"You need to start from the last distribution point\"\n            );\n            // Check if the stopindex exceeds the length\n            _stopIndex = _stopIndex > length ? length : _stopIndex;\n\n            if (_stopIndex != 0) {\n                _distributeReward(\n                    currentRound,\n                    _startIndex,\n                    _stopIndex,\n                    degisPerShare\n                );\n            }\n\n            currentDistributionIndex = _stopIndex;\n        }\n\n        if (currentDistributionIndex == usersInRound[currentRound].length) {\n            _finishDistribution();\n        }\n    }\n\n    // ---------------------------------------------------------------------------------------- //\n    // *********************************** Internal Functions ********************************* //\n    // ---------------------------------------------------------------------------------------- //\n\n    /**\n     * @notice Finish the distribution process\n     * @param _round Distribution round\n     * @param _startIndex Start index\n     * @param _stopIndex Stop index\n     * @param _degisPerShare Amount of degis per share\n     */\n    function _distributeReward(\n        uint256 _round,\n        uint256 _startIndex,\n        uint256 _stopIndex,\n        uint256 _degisPerShare\n    ) internal {\n        for (uint256 i = _startIndex; i < _stopIndex; i++) {\n            address userAddress = usersInRound[_round][i];\n            uint256 userShares = userSharesInRound[userAddress][_round];\n\n            buyerToken.burn(userAddress, userShares);\n\n            if (userShares != 0) {\n                // degis.mint(userAddress, userShares * _degisPerShare);\n                // Update the pending reward of a user\n                userRewards[userAddress] += userShares * _degisPerShare;\n                delete userSharesInRound[userAddress][_round];\n            } else continue;\n        }\n    }\n\n    /**\n     * @notice You can claim your own reward if you want\n     * @dev Can claim reward of the previous rounds\n     */\n    function claimReward() external {\n        uint256 reward = userRewards[msg.sender];\n\n        require(reward > 0, \"You do not have any rewards to claim\");\n\n        degis.mint(msg.sender, reward);\n        emit RewardClaimed(msg.sender, reward);\n    }\n\n    /**\n     * @notice Finish the distribution process and move to next round\n     */\n    function _finishDistribution() internal {\n        currentDistributionIndex = 0;\n        hasDistributed[currentRound] = true;\n        currentRound += 1;\n        lastDistribution = block.number;\n    }\n}\n",
  "sourcePath": "/Volumes/Store/src/Degis-Staking/contracts/PurchaseIncentiveVault.sol",
  "compiler": {
    "name": "solc",
    "version": "0.8.9+commit.e5eed63a.Emscripten.clang"
  },
  "schemaVersion": "3.4.3",
  "updatedAt": "2021-12-05T09:41:51.831Z",
  "networkType": "ethereum",
  "devdoc": {
    "kind": "dev",
    "methods": {
      "checkIfCanStake()": {
        "details": "Used for frontend      If exceed the interval, can not deposit and need to wait for distribution",
        "returns": {
          "_0": "ifCanStake Whether users can stake now"
        }
      },
      "claimReward()": {
        "details": "Can claim reward of the previous rounds"
      },
      "distributeReward(uint256,uint256)": {
        "params": {
          "_startIndex": "Distribution start index",
          "_stopIndex": "Distribution stop index"
        }
      },
      "getTotalUsersInRound(uint256)": {
        "params": {
          "_round": "Round number to check"
        },
        "returns": {
          "_0": "totalUsers Total amount of users in _round"
        }
      },
      "getUserShares(address)": {
        "params": {
          "_userAddress": "Address of the user"
        }
      },
      "pendingReward(address)": {
        "params": {
          "_userAddress": "Address of the user"
        },
        "returns": {
          "_0": "userRewards Pending degis amount of this user"
        }
      },
      "redeemBuyerToken(uint256)": {
        "params": {
          "_amount": "Amount to redeem"
        }
      },
      "setDegisPerRound(uint256)": {
        "params": {
          "_degisPerRound": "Degis distribution per round to be set"
        }
      },
      "setDistributionInterval(uint256)": {
        "params": {
          "_newInterval": "The new interval"
        }
      },
      "stakeBuyerToken(uint256)": {
        "params": {
          "_amount": "Amount of buyer tokens to stake"
        }
      },
      "transferOwnerShip(address)": {
        "params": {
          "_newOwner": "Address of the new owner"
        }
      }
    },
    "version": 1
  },
  "userdoc": {
    "kind": "user",
    "methods": {
      "checkIfCanStake()": {
        "notice": "Check if users can stake buyer tokens now"
      },
      "claimReward()": {
        "notice": "You can claim your own reward if you want"
      },
      "distributeReward(uint256,uint256)": {
        "notice": "Distribute the reward in this round, the total number depends on the blocks during this period"
      },
      "getTotalUsersInRound(uint256)": {
        "notice": "Get the amount of users in _round, used for distribution"
      },
      "getUserShares(address)": {
        "notice": "Get your shares in the current round"
      },
      "pendingReward(address)": {
        "notice": "Check a user's pending reward"
      },
      "redeemBuyerToken(uint256)": {
        "notice": "Redeem buyer token from the vault"
      },
      "setDegisPerRound(uint256)": {
        "notice": "Set degis distribution per round"
      },
      "setDistributionInterval(uint256)": {
        "notice": "Set a new distribution interval"
      },
      "stakeBuyerToken(uint256)": {
        "notice": "Stake buyer token into this contract"
      },
      "transferOwnerShip(address)": {
        "notice": "Transfer the ownership"
      }
    },
    "version": 1
  }
}