{
  "contractName": "PurchaseIncentiveVault",
  "abi": [
    {
      "inputs": [
        {
          "internalType": "address",
          "name": "_buyerToken",
          "type": "address"
        },
        {
          "internalType": "address",
          "name": "_degisToken",
          "type": "address"
        }
      ],
      "stateMutability": "nonpayable",
      "type": "constructor"
    },
    {
      "anonymous": false,
      "inputs": [
        {
          "indexed": false,
          "internalType": "uint256",
          "name": "_oldPerRound",
          "type": "uint256"
        },
        {
          "indexed": false,
          "internalType": "uint256",
          "name": "_newPerRound",
          "type": "uint256"
        }
      ],
      "name": "DegisPerRoundChanged",
      "type": "event"
    },
    {
      "anonymous": false,
      "inputs": [
        {
          "indexed": false,
          "internalType": "uint256",
          "name": "_oldInterval",
          "type": "uint256"
        },
        {
          "indexed": false,
          "internalType": "uint256",
          "name": "_newInterval",
          "type": "uint256"
        }
      ],
      "name": "DistributionIntervalChanged",
      "type": "event"
    },
    {
      "anonymous": false,
      "inputs": [
        {
          "indexed": false,
          "internalType": "address",
          "name": "_oldOwner",
          "type": "address"
        },
        {
          "indexed": false,
          "internalType": "address",
          "name": "_newOwner",
          "type": "address"
        }
      ],
      "name": "OwnerChanged",
      "type": "event"
    },
    {
      "anonymous": false,
      "inputs": [
        {
          "indexed": false,
          "internalType": "address",
          "name": "_userAddress",
          "type": "address"
        },
        {
          "indexed": false,
          "internalType": "uint256",
          "name": "_userReward",
          "type": "uint256"
        }
      ],
      "name": "RewardClaimed",
      "type": "event"
    },
    {
      "inputs": [],
      "name": "currentDistributionIndex",
      "outputs": [
        {
          "internalType": "uint256",
          "name": "",
          "type": "uint256"
        }
      ],
      "stateMutability": "view",
      "type": "function",
      "constant": true
    },
    {
      "inputs": [],
      "name": "currentRound",
      "outputs": [
        {
          "internalType": "uint256",
          "name": "",
          "type": "uint256"
        }
      ],
      "stateMutability": "view",
      "type": "function",
      "constant": true
    },
    {
      "inputs": [],
      "name": "degisPerRound",
      "outputs": [
        {
          "internalType": "uint256",
          "name": "",
          "type": "uint256"
        }
      ],
      "stateMutability": "view",
      "type": "function",
      "constant": true
    },
    {
      "inputs": [],
      "name": "distributionInterval",
      "outputs": [
        {
          "internalType": "uint256",
          "name": "",
          "type": "uint256"
        }
      ],
      "stateMutability": "view",
      "type": "function",
      "constant": true
    },
    {
      "inputs": [
        {
          "internalType": "uint256",
          "name": "",
          "type": "uint256"
        }
      ],
      "name": "hasDistributed",
      "outputs": [
        {
          "internalType": "bool",
          "name": "",
          "type": "bool"
        }
      ],
      "stateMutability": "view",
      "type": "function",
      "constant": true
    },
    {
      "inputs": [],
      "name": "lastDistribution",
      "outputs": [
        {
          "internalType": "uint256",
          "name": "",
          "type": "uint256"
        }
      ],
      "stateMutability": "view",
      "type": "function",
      "constant": true
    },
    {
      "inputs": [],
      "name": "owner",
      "outputs": [
        {
          "internalType": "address",
          "name": "",
          "type": "address"
        }
      ],
      "stateMutability": "view",
      "type": "function",
      "constant": true
    },
    {
      "inputs": [
        {
          "internalType": "uint256",
          "name": "",
          "type": "uint256"
        }
      ],
      "name": "sharesInRound",
      "outputs": [
        {
          "internalType": "uint256",
          "name": "",
          "type": "uint256"
        }
      ],
      "stateMutability": "view",
      "type": "function",
      "constant": true
    },
    {
      "inputs": [
        {
          "internalType": "address",
          "name": "",
          "type": "address"
        }
      ],
      "name": "userRewards",
      "outputs": [
        {
          "internalType": "uint256",
          "name": "",
          "type": "uint256"
        }
      ],
      "stateMutability": "view",
      "type": "function",
      "constant": true
    },
    {
      "inputs": [
        {
          "internalType": "address",
          "name": "",
          "type": "address"
        },
        {
          "internalType": "uint256",
          "name": "",
          "type": "uint256"
        }
      ],
      "name": "userSharesInRound",
      "outputs": [
        {
          "internalType": "uint256",
          "name": "",
          "type": "uint256"
        }
      ],
      "stateMutability": "view",
      "type": "function",
      "constant": true
    },
    {
      "inputs": [
        {
          "internalType": "uint256",
          "name": "",
          "type": "uint256"
        },
        {
          "internalType": "uint256",
          "name": "",
          "type": "uint256"
        }
      ],
      "name": "usersInRound",
      "outputs": [
        {
          "internalType": "address",
          "name": "",
          "type": "address"
        }
      ],
      "stateMutability": "view",
      "type": "function",
      "constant": true
    },
    {
      "inputs": [
        {
          "internalType": "address",
          "name": "_userAddress",
          "type": "address"
        }
      ],
      "name": "pendingReward",
      "outputs": [
        {
          "internalType": "uint256",
          "name": "",
          "type": "uint256"
        }
      ],
      "stateMutability": "view",
      "type": "function",
      "constant": true
    },
    {
      "inputs": [
        {
          "internalType": "uint256",
          "name": "_round",
          "type": "uint256"
        }
      ],
      "name": "getTotalUsersInRound",
      "outputs": [
        {
          "internalType": "uint256",
          "name": "",
          "type": "uint256"
        }
      ],
      "stateMutability": "view",
      "type": "function",
      "constant": true
    },
    {
      "inputs": [
        {
          "internalType": "address",
          "name": "_userAddress",
          "type": "address"
        }
      ],
      "name": "getUserShares",
      "outputs": [
        {
          "internalType": "uint256",
          "name": "",
          "type": "uint256"
        }
      ],
      "stateMutability": "view",
      "type": "function",
      "constant": true
    },
    {
      "inputs": [
        {
          "internalType": "address",
          "name": "_newOwner",
          "type": "address"
        }
      ],
      "name": "passOwnership",
      "outputs": [],
      "stateMutability": "nonpayable",
      "type": "function"
    },
    {
      "inputs": [
        {
          "internalType": "uint256",
          "name": "_degisPerRound",
          "type": "uint256"
        }
      ],
      "name": "setDegisPerRound",
      "outputs": [],
      "stateMutability": "nonpayable",
      "type": "function"
    },
    {
      "inputs": [
        {
          "internalType": "uint256",
          "name": "_newInterval",
          "type": "uint256"
        }
      ],
      "name": "setDistributionInterval",
      "outputs": [],
      "stateMutability": "nonpayable",
      "type": "function"
    },
    {
      "inputs": [
        {
          "internalType": "uint256",
          "name": "_amount",
          "type": "uint256"
        }
      ],
      "name": "stake",
      "outputs": [],
      "stateMutability": "nonpayable",
      "type": "function"
    },
    {
      "inputs": [
        {
          "internalType": "uint256",
          "name": "_amount",
          "type": "uint256"
        }
      ],
      "name": "redeem",
      "outputs": [],
      "stateMutability": "nonpayable",
      "type": "function"
    },
    {
      "inputs": [
        {
          "internalType": "uint256",
          "name": "_startIndex",
          "type": "uint256"
        },
        {
          "internalType": "uint256",
          "name": "_stopIndex",
          "type": "uint256"
        }
      ],
      "name": "distributeReward",
      "outputs": [],
      "stateMutability": "nonpayable",
      "type": "function"
    },
    {
      "inputs": [],
      "name": "claimReward",
      "outputs": [],
      "stateMutability": "nonpayable",
      "type": "function"
    }
  ],
  "bytecode": "0x608060405234801561001057600080fd5b5060405161126838038061126883398101604081905261002f9161008b565b600080546001600160a01b03199081163317909155600180546001600160a01b039485169083161790556002805492909316911617905543600c556100be565b80516001600160a01b038116811461008657600080fd5b919050565b6000806040838503121561009e57600080fd5b6100a78361006f565b91506100b56020840161006f565b90509250929050565b61119b806100cd6000396000f3fe608060405234801561001057600080fd5b50600436106101375760003560e01c8063a694fc3a116100b8578063c708c5f41161007c578063c708c5f4146102b5578063db006a75146102be578063e3bcd27c146102d1578063e6848ead146102e4578063f371f53f146102f7578063f40f0f521461032a57600080fd5b8063a694fc3a1461023b578063a717639c1461024e578063b88a802f14610257578063ba0cb22b1461025f578063bb81b5d41461029557600080fd5b806371201a0e116100ff57806371201a0e146101d85780637a16a49e146101e15780638a19c8bc146101f45780638da5cb5b146101fd578063a0b412a61461022857600080fd5b80630660f1e81461013c5780631aeee41d1461016f5780632f0179011461018f578063620996df146101ba5780636ff85ea9146101cf575b600080fd5b61015c61014a366004610f4c565b60076020526000908152604090205481565b6040519081526020015b60405180910390f35b61015c61017d366004610f67565b60009081526004602052604090205490565b61015c61019d366004610f80565b600660209081526000928352604080842090915290825290205481565b6101cd6101c8366004610f4c565b610353565b005b61015c60095481565b61015c600b5481565b6101cd6101ef366004610f67565b6103e8565b61015c60085481565b600054610210906001600160a01b031681565b6040516001600160a01b039091168152602001610166565b610210610236366004610faa565b610450565b6101cd610249366004610f67565b610488565b61015c600c5481565b6101cd61054d565b61015c61026d366004610f4c565b6001600160a01b03166000908152600660209081526040808320600854845290915290205490565b61015c6102a3366004610f67565b60036020526000908152604090205481565b61015c600a5481565b6101cd6102cc366004610f67565b610669565b6101cd6102df366004610faa565b610799565b6101cd6102f2366004610f67565b610a47565b61031a610305366004610f67565b60056020526000908152604090205460ff1681565b6040519015158152602001610166565b61015c610338366004610f4c565b6001600160a01b031660009081526007602052604090205490565b6000546001600160a01b031633146103865760405162461bcd60e51b815260040161037d90610fcc565b60405180910390fd5b600080546001600160a01b038381166001600160a01b031983168117909355604080519190921680825260208201939093527fb532073b38c83145e3e5135377a08bf9aab55bc0fd7c1179cd4fb995d2a5159c91015b60405180910390a15050565b6000546001600160a01b031633146104125760405162461bcd60e51b815260040161037d90610fcc565b600b80549082905560408051828152602081018490527f0bcbec4c9da357687b1300891e9be5627182572bb49e955ea7d37afcd927598491016103dc565b6004602052816000526040600020818154811061046c57600080fd5b6000918252602090912001546001600160a01b03169150829050565b6001546104a0906001600160a01b0316333084610aaf565b33600090815260066020908152604080832060085484529091529020546104f35760085460009081526004602090815260408220805460018101825590835291200180546001600160a01b031916331790555b33600090815260066020908152604080832060085484529091528120805483929061051f908490611027565b909155505060085460009081526003602052604081208054839290610545908490611027565b909155505050565b33600090815260076020526040902054806105b65760405162461bcd60e51b8152602060048201526024808201527f596f7520646f206e6f74206861766520616e79207265776172647320746f20636044820152636c61696d60e01b606482015260840161037d565b6002546040516340c10f1960e01b8152336004820152602481018390526001600160a01b03909116906340c10f1990604401600060405180830381600087803b15801561060257600080fd5b505af1158015610616573d6000803e3d6000fd5b505033600081815260076020908152604080832092909255815192835282018590527f106f923f993c2149d49b4255ff723acafa1f2d94393f561d3eda32ae348f7241935001905060405180910390a150565b3360009081526006602090815260408083206008548452909152902054818110156106e85760405162461bcd60e51b815260206004820152602960248201527f4e6f7420656e6f75676820627579657220746f6b656e7320666f7220796f7520604482015268746f2072656465656d60b81b606482015260840161037d565b6001546106ff906001600160a01b03163384610b20565b336000908152600660209081526040808320600854845290915290205461073e5733600090815260066020908152604080832060085484529091528120555b33600090815260066020908152604080832060085484529091528120805484929061076a90849061103f565b90915550506008546000908152600360205260408120805484929061079090849061103f565b90915550505050565b6000546001600160a01b031633146107c35760405162461bcd60e51b815260040161037d90610fcc565b600b54600c546107d3904361103f565b116108345760405162461bcd60e51b815260206004820152602b60248201527f54776f20646973747269627574696f6e73206e65656420746f2068617665206160448201526a0371034b73a32b93b30b6160ad1b606482015260840161037d565b6000600a54116108ac5760405162461bcd60e51b815260206004820152603960248201527f43757272656e746c79206e6f204465676973207265776172642c20706c65617360448201527f6520736574206465676973506572526f756e6420666972737400000000000000606482015260840161037d565b60085460009081526005602052604090205460ff16156109195760405162461bcd60e51b815260206004820152602260248201527f43757272656e7420726f756e6420686173206265656e20646973747269627574604482015261195960f21b606482015260840161037d565b600854600090815260036020526040812054600a54909190829061094590670de0b6b3a7640000611056565b61094f9190611075565b9050600061096b60085460009081526004602052604090205490565b905084158015610979575083155b156109975761098d60085460008385610b55565b6009819055610a2e565b8460095414610a035760405162461bcd60e51b815260206004820152603260248201527f596f75206e65656420746f2073746172742066726f6d20746865206c61737420604482015271191a5cdd1c9a589d5d1a5bdb881c1bda5b9d60721b606482015260840161037d565b808411610a105783610a12565b805b93508315610a2857610a28600854868685610b55565b60098490555b806009541415610a4057610a40610ca5565b5050505050565b6000546001600160a01b03163314610a715760405162461bcd60e51b815260040161037d90610fcc565b600a80549082905560408051828152602081018490527fa1c3380bad48ec737194c876d07b4d6c49471396974e2bdc613491a82a3c8c8691016103dc565b6040516001600160a01b0380851660248301528316604482015260648101829052610b1a9085906323b872dd60e01b906084015b60408051601f198184030181529190526020810180516001600160e01b03166001600160e01b031990931692909217909152610ce4565b50505050565b6040516001600160a01b038316602482015260448101829052610b5090849063a9059cbb60e01b90606401610ae3565b505050565b825b82811015610a40576000858152600460205260408120805483908110610b7f57610b7f611097565b6000918252602080832091909101546001600160a01b039081168084526006835260408085208b865290935292829020546001549251632770a7eb60e21b81523060048201526024810182905293945092911690639dc29fac90604401600060405180830381600087803b158015610bf657600080fd5b505af1158015610c0a573d6000803e3d6000fd5b5050505080600014610c8957670de0b6b3a7640000610c298583611056565b610c339190611075565b6001600160a01b03831660009081526007602052604081208054909190610c5b908490611027565b90915550506001600160a01b03821660009081526006602090815260408083208a8452909152812055610c90565b5050610c93565b50505b80610c9d816110ad565b915050610b57565b60006009819055600880548252600560205260408220805460ff191660019081179091558154909290610cd9908490611027565b909155505043600c55565b6000610d39826040518060400160405280602081526020017f5361666545524332303a206c6f772d6c6576656c2063616c6c206661696c6564815250856001600160a01b0316610db69092919063ffffffff16565b805190915015610b505780806020019051810190610d5791906110c8565b610b505760405162461bcd60e51b815260206004820152602a60248201527f5361666545524332303a204552433230206f7065726174696f6e20646964206e6044820152691bdd081cdd58d8d9595960b21b606482015260840161037d565b6060610dc58484600085610dcf565b90505b9392505050565b606082471015610e305760405162461bcd60e51b815260206004820152602660248201527f416464726573733a20696e73756666696369656e742062616c616e636520666f6044820152651c8818d85b1b60d21b606482015260840161037d565b843b610e7e5760405162461bcd60e51b815260206004820152601d60248201527f416464726573733a2063616c6c20746f206e6f6e2d636f6e7472616374000000604482015260640161037d565b600080866001600160a01b03168587604051610e9a9190611116565b60006040518083038185875af1925050503d8060008114610ed7576040519150601f19603f3d011682016040523d82523d6000602084013e610edc565b606091505b5091509150610eec828286610ef7565b979650505050505050565b60608315610f06575081610dc8565b825115610f165782518084602001fd5b8160405162461bcd60e51b815260040161037d9190611132565b80356001600160a01b0381168114610f4757600080fd5b919050565b600060208284031215610f5e57600080fd5b610dc882610f30565b600060208284031215610f7957600080fd5b5035919050565b60008060408385031215610f9357600080fd5b610f9c83610f30565b946020939093013593505050565b60008060408385031215610fbd57600080fd5b50508035926020909101359150565b60208082526025908201527f4f6e6c7920746865206f776e65722063616e2063616c6c20746869732066756e60408201526431ba34b7b760d91b606082015260800190565b634e487b7160e01b600052601160045260246000fd5b6000821982111561103a5761103a611011565b500190565b60008282101561105157611051611011565b500390565b600081600019048311821515161561107057611070611011565b500290565b60008261109257634e487b7160e01b600052601260045260246000fd5b500490565b634e487b7160e01b600052603260045260246000fd5b60006000198214156110c1576110c1611011565b5060010190565b6000602082840312156110da57600080fd5b81518015158114610dc857600080fd5b60005b838110156111055781810151838201526020016110ed565b83811115610b1a5750506000910152565b600082516111288184602087016110ea565b9190910192915050565b60208152600082518060208401526111518160408501602087016110ea565b601f01601f1916919091016040019291505056fea26469706673582212203693055347e878692dbbf590fbfc084abbb29fb001e5bf50641037821098df8d64736f6c63430008090033",
  "immutableReferences": {},
  "source": "// SPDX-License-Identifier: MIT\npragma solidity 0.8.9;\n\nimport \"@openzeppelin/contracts/token/ERC20/utils/SafeERC20.sol\";\nimport \"./interfaces/IBuyerToken.sol\";\nimport \"./interfaces/IDegisToken.sol\";\nimport \"./interfaces/IPurchaseIncentiveVault.sol\";\n\n/**\n * @title  Purchase Incentive Vault\n * @notice This is the purchase incentive vault for staking buyer tokens.\n *         Users first stake their buyer tokens and wait for distribution.\n *         About every 24 hours, the reward will be calculated to users' account.\n *         After disrtribution, users' reward balance will update but they still need to manually claim the reward.\n */\ncontract PurchaseIncentiveVault is IPurchaseIncentiveVault {\n    using SafeERC20 for IBuyerToken;\n\n    address public owner;\n\n    // Other tokens' interfaces\n    IBuyerToken buyerToken;\n    IDegisToken degis;\n\n    // Round number => Total shares(buyer tokens)\n    mapping(uint256 => uint256) public sharesInRound;\n\n    // Round number => User address list\n    mapping(uint256 => address[]) public usersInRound;\n\n    // Round number => Whether has been distributed\n    mapping(uint256 => bool) public hasDistributed;\n\n    // User address => Round number => User shares\n    mapping(address => mapping(uint256 => uint256)) public userSharesInRound;\n\n    // User address => Pending rewards\n    mapping(address => uint256) public userRewards;\n\n    uint256 public currentRound;\n\n    // Distribution may need several times so we keep an index\n    uint256 public currentDistributionIndex;\n\n    // Reward per round in DEG\n    uint256 public degisPerRound;\n\n    // The interval will only limit the distribution (not the staking)\n    uint256 public distributionInterval;\n\n    // Last distribution time (block numbers)\n    uint256 public lastDistribution;\n\n    // ---------------------------------------------------------------------------------------- //\n    // ************************************* Constructor ************************************** //\n    // ---------------------------------------------------------------------------------------- //\n\n    constructor(address _buyerToken, address _degisToken) {\n        owner = msg.sender;\n\n        // Initialize two tokens\n        buyerToken = IBuyerToken(_buyerToken);\n        degis = IDegisToken(_degisToken);\n\n        // Initialize the last distribution block\n        lastDistribution = block.number;\n    }\n\n    // ---------------------------------------------------------------------------------------- //\n    // ************************************** Modifiers *************************************** //\n    // ---------------------------------------------------------------------------------------- //\n\n    modifier onlyOwner() {\n        require(msg.sender == owner, \"Only the owner can call this function\");\n        _;\n    }\n\n    /**\n     * @notice Check if admins can distribute at this time\n     */\n    modifier hasPassedInterval() {\n        require(\n            block.number - lastDistribution > distributionInterval,\n            \"Two distributions need to have an interval \"\n        );\n        _;\n    }\n\n    // ---------------------------------------------------------------------------------------- //\n    // ************************************ View Functions ************************************ //\n    // ---------------------------------------------------------------------------------------- //\n\n    /**\n     * @notice Check a user's pending reward\n     * @param _userAddress Address of the user\n     * @return userRewards Pending degis amount of this user\n     */\n    // TODO: Test whether we need this view function\n    function pendingReward(address _userAddress) public view returns (uint256) {\n        return userRewards[_userAddress];\n    }\n\n    /**\n     * @notice Get the amount of users in _round, used for distribution\n     * @param _round Round number to check\n     * @return totalUsers Total amount of users in _round\n     */\n    function getTotalUsersInRound(uint256 _round)\n        public\n        view\n        returns (uint256)\n    {\n        return usersInRound[_round].length;\n    }\n\n    /**\n     * @notice Get your shares in the current round\n     * @param _userAddress Address of the user\n     */\n    function getUserShares(address _userAddress) public view returns (uint256) {\n        return userSharesInRound[_userAddress][currentRound];\n    }\n\n    // ---------------------------------------------------------------------------------------- //\n    // ************************************ Set Functions ************************************* //\n    // ---------------------------------------------------------------------------------------- //\n\n    /**\n     * @notice Transfer the ownership\n     * @param _newOwner Address of the new owner\n     */\n    function passOwnership(address _newOwner) external onlyOwner {\n        address oldOwner = owner;\n        owner = _newOwner;\n        emit OwnerChanged(oldOwner, _newOwner);\n    }\n\n    /**\n     * @notice Set degis distribution per round\n     * @param _degisPerRound Degis distribution per round to be set\n     */\n    function setDegisPerRound(uint256 _degisPerRound) external onlyOwner {\n        uint256 oldPerRound = degisPerRound;\n        degisPerRound = _degisPerRound;\n        emit DegisPerRoundChanged(oldPerRound, _degisPerRound);\n    }\n\n    /**\n     * @notice Set a new distribution interval\n     * @param _newInterval The new interval\n     */\n    function setDistributionInterval(uint256 _newInterval) external onlyOwner {\n        uint256 oldInterval = distributionInterval;\n        distributionInterval = _newInterval;\n        emit DistributionIntervalChanged(oldInterval, _newInterval);\n    }\n\n    // ---------------------------------------------------------------------------------------- //\n    // ************************************ Main Functions ************************************ //\n    // ---------------------------------------------------------------------------------------- //\n\n    /**\n     * @notice Stake buyer tokens into this contract\n     * @param _amount Amount of buyer tokens to stake\n     */\n    function stake(uint256 _amount) external {\n        buyerToken.safeTransferFrom(msg.sender, address(this), _amount);\n\n        if (userSharesInRound[msg.sender][currentRound] == 0) {\n            usersInRound[currentRound].push(msg.sender);\n        }\n\n        userSharesInRound[msg.sender][currentRound] += _amount;\n        sharesInRound[currentRound] += _amount;\n    }\n\n    /**\n     * @notice Redeem buyer token from the vault\n     * @param _amount Amount to redeem\n     */\n    function redeem(uint256 _amount) external {\n        uint256 userBalance = userSharesInRound[msg.sender][currentRound];\n        require(\n            userBalance >= _amount,\n            \"Not enough buyer tokens for you to redeem\"\n        );\n\n        buyerToken.safeTransfer(msg.sender, _amount);\n\n        if (userSharesInRound[msg.sender][currentRound] == 0) {\n            delete userSharesInRound[msg.sender][currentRound];\n        }\n\n        userSharesInRound[msg.sender][currentRound] -= _amount;\n        sharesInRound[currentRound] -= _amount;\n    }\n\n    /**\n     * @notice Distribute the reward in this round, the total number depends on the blocks during this period\n     * @param _startIndex Distribution start index\n     * @param _stopIndex Distribution stop index\n     */\n    function distributeReward(uint256 _startIndex, uint256 _stopIndex)\n        external\n        onlyOwner\n        hasPassedInterval\n    {\n        require(\n            degisPerRound > 0,\n            \"Currently no Degis reward, please set degisPerRound first\"\n        );\n        require(\n            hasDistributed[currentRound] == false,\n            \"Current round has been distributed\"\n        );\n\n        uint256 totalShares = sharesInRound[currentRound];\n        uint256 degisPerShare = (degisPerRound * 1e18) / totalShares;\n\n        uint256 length = getTotalUsersInRound(currentRound);\n\n        // Distribute all at once\n        // Maybe not enough gas in one tx, the judgement should be done by backend)\n        if (_startIndex == 0 && _stopIndex == 0) {\n            _distributeReward(currentRound, 0, length, degisPerShare);\n            currentDistributionIndex = length;\n        }\n        // Distribute in a certain range (need several times distribution)\n        else {\n            // Check if you start from the last check point\n            require(\n                currentDistributionIndex == _startIndex,\n                \"You need to start from the last distribution point\"\n            );\n            // Check if the stopindex exceeds the length\n            _stopIndex = _stopIndex > length ? length : _stopIndex;\n\n            if (_stopIndex != 0) {\n                _distributeReward(\n                    currentRound,\n                    _startIndex,\n                    _stopIndex,\n                    degisPerShare\n                );\n            }\n\n            currentDistributionIndex = _stopIndex;\n        }\n\n        if (currentDistributionIndex == length) {\n            _finishDistribution();\n        }\n    }\n\n    /**\n     * @notice Users need to claim their overall rewards\n     */\n    function claimReward() external {\n        uint256 userReward = userRewards[msg.sender];\n\n        require(userReward > 0, \"You do not have any rewards to claim\");\n\n        degis.mint(msg.sender, userReward);\n\n        delete userRewards[msg.sender];\n\n        emit RewardClaimed(msg.sender, userReward);\n    }\n\n    // ---------------------------------------------------------------------------------------- //\n    // *********************************** Internal Functions ********************************* //\n    // ---------------------------------------------------------------------------------------- //\n\n    /**\n     * @notice Finish the distribution process\n     * @param _round Distribution round\n     * @param _startIndex Start index\n     * @param _stopIndex Stop index\n     * @param _degisPerShare Amount of degis per share\n     */\n    function _distributeReward(\n        uint256 _round,\n        uint256 _startIndex,\n        uint256 _stopIndex,\n        uint256 _degisPerShare\n    ) internal {\n        for (uint256 i = _startIndex; i < _stopIndex; i++) {\n            address userAddress = usersInRound[_round][i];\n            uint256 userShares = userSharesInRound[userAddress][_round];\n\n            buyerToken.burn(address(this), userShares);\n\n            if (userShares != 0) {\n                // Update the pending reward of a user\n                userRewards[userAddress] +=\n                    (userShares * _degisPerShare) /\n                    1e18;\n                delete userSharesInRound[userAddress][_round];\n            } else continue;\n        }\n    }\n\n    /**\n     * @notice Finish the distribution process and move to next round\n     */\n    function _finishDistribution() internal {\n        currentDistributionIndex = 0;\n        hasDistributed[currentRound] = true;\n        currentRound += 1;\n        lastDistribution = block.number;\n    }\n}\n",
  "sourcePath": "/Volumes/Store/Degis/Degis-Staking/contracts/PurchaseIncentiveVault.sol",
  "compiler": {
    "name": "solc",
    "version": "0.8.9+commit.e5eed63a.Emscripten.clang"
  },
  "schemaVersion": "3.4.3",
  "updatedAt": "2021-12-09T16:23:44.840Z",
  "networkType": "ethereum",
  "devdoc": {
    "kind": "dev",
    "methods": {
      "distributeReward(uint256,uint256)": {
        "params": {
          "_startIndex": "Distribution start index",
          "_stopIndex": "Distribution stop index"
        }
      },
      "getTotalUsersInRound(uint256)": {
        "params": {
          "_round": "Round number to check"
        },
        "returns": {
          "_0": "totalUsers Total amount of users in _round"
        }
      },
      "getUserShares(address)": {
        "params": {
          "_userAddress": "Address of the user"
        }
      },
      "passOwnership(address)": {
        "params": {
          "_newOwner": "Address of the new owner"
        }
      },
      "pendingReward(address)": {
        "params": {
          "_userAddress": "Address of the user"
        },
        "returns": {
          "_0": "userRewards Pending degis amount of this user"
        }
      },
      "redeem(uint256)": {
        "params": {
          "_amount": "Amount to redeem"
        }
      },
      "setDegisPerRound(uint256)": {
        "params": {
          "_degisPerRound": "Degis distribution per round to be set"
        }
      },
      "setDistributionInterval(uint256)": {
        "params": {
          "_newInterval": "The new interval"
        }
      },
      "stake(uint256)": {
        "params": {
          "_amount": "Amount of buyer tokens to stake"
        }
      }
    },
    "title": "Purchase Incentive Vault",
    "version": 1
  },
  "userdoc": {
    "kind": "user",
    "methods": {
      "claimReward()": {
        "notice": "Users need to claim their overall rewards"
      },
      "distributeReward(uint256,uint256)": {
        "notice": "Distribute the reward in this round, the total number depends on the blocks during this period"
      },
      "getTotalUsersInRound(uint256)": {
        "notice": "Get the amount of users in _round, used for distribution"
      },
      "getUserShares(address)": {
        "notice": "Get your shares in the current round"
      },
      "passOwnership(address)": {
        "notice": "Transfer the ownership"
      },
      "pendingReward(address)": {
        "notice": "Check a user's pending reward"
      },
      "redeem(uint256)": {
        "notice": "Redeem buyer token from the vault"
      },
      "setDegisPerRound(uint256)": {
        "notice": "Set degis distribution per round"
      },
      "setDistributionInterval(uint256)": {
        "notice": "Set a new distribution interval"
      },
      "stake(uint256)": {
        "notice": "Stake buyer tokens into this contract"
      }
    },
    "notice": "This is the purchase incentive vault for staking buyer tokens.         Users first stake their buyer tokens and wait for distribution.         About every 24 hours, the reward will be calculated to users' account.         After disrtribution, users' reward balance will update but they still need to manually claim the reward.",
    "version": 1
  }
}