{
  "contractName": "PurchaseIncentiveVault",
  "abi": [
    {
      "inputs": [
        {
          "internalType": "address",
          "name": "_buyerToken",
          "type": "address"
        },
        {
          "internalType": "address",
          "name": "_degisToken",
          "type": "address"
        }
      ],
      "stateMutability": "nonpayable",
      "type": "constructor"
    },
    {
      "anonymous": false,
      "inputs": [
        {
          "indexed": false,
          "internalType": "uint256",
          "name": "_oldPerRound",
          "type": "uint256"
        },
        {
          "indexed": false,
          "internalType": "uint256",
          "name": "_newPerRound",
          "type": "uint256"
        }
      ],
      "name": "ChangeDegisPerRound",
      "type": "event"
    },
    {
      "anonymous": false,
      "inputs": [
        {
          "indexed": false,
          "internalType": "uint256",
          "name": "_oldInterval",
          "type": "uint256"
        },
        {
          "indexed": false,
          "internalType": "uint256",
          "name": "_newInterval",
          "type": "uint256"
        }
      ],
      "name": "ChangeDistributionInterval",
      "type": "event"
    },
    {
      "anonymous": false,
      "inputs": [
        {
          "indexed": false,
          "internalType": "address",
          "name": "_oldOwner",
          "type": "address"
        },
        {
          "indexed": false,
          "internalType": "address",
          "name": "_newOwner",
          "type": "address"
        }
      ],
      "name": "OwnershipTransferred",
      "type": "event"
    },
    {
      "inputs": [],
      "name": "currentDistributionIndex",
      "outputs": [
        {
          "internalType": "uint256",
          "name": "",
          "type": "uint256"
        }
      ],
      "stateMutability": "view",
      "type": "function",
      "constant": true
    },
    {
      "inputs": [],
      "name": "currentRound",
      "outputs": [
        {
          "internalType": "uint256",
          "name": "",
          "type": "uint256"
        }
      ],
      "stateMutability": "view",
      "type": "function",
      "constant": true
    },
    {
      "inputs": [],
      "name": "degisPerRound",
      "outputs": [
        {
          "internalType": "uint256",
          "name": "",
          "type": "uint256"
        }
      ],
      "stateMutability": "view",
      "type": "function",
      "constant": true
    },
    {
      "inputs": [],
      "name": "distributionInterval",
      "outputs": [
        {
          "internalType": "uint256",
          "name": "",
          "type": "uint256"
        }
      ],
      "stateMutability": "view",
      "type": "function",
      "constant": true
    },
    {
      "inputs": [],
      "name": "lastDistribution",
      "outputs": [
        {
          "internalType": "uint256",
          "name": "",
          "type": "uint256"
        }
      ],
      "stateMutability": "view",
      "type": "function",
      "constant": true
    },
    {
      "inputs": [],
      "name": "owner",
      "outputs": [
        {
          "internalType": "address",
          "name": "",
          "type": "address"
        }
      ],
      "stateMutability": "view",
      "type": "function",
      "constant": true
    },
    {
      "inputs": [],
      "name": "checkIfCanStake",
      "outputs": [
        {
          "internalType": "bool",
          "name": "",
          "type": "bool"
        }
      ],
      "stateMutability": "view",
      "type": "function",
      "constant": true
    },
    {
      "inputs": [
        {
          "internalType": "address",
          "name": "_newOwner",
          "type": "address"
        }
      ],
      "name": "transferOwnerShip",
      "outputs": [],
      "stateMutability": "nonpayable",
      "type": "function"
    },
    {
      "inputs": [
        {
          "internalType": "uint256",
          "name": "_degisPerRound",
          "type": "uint256"
        }
      ],
      "name": "setDegisPerRound",
      "outputs": [],
      "stateMutability": "nonpayable",
      "type": "function"
    },
    {
      "inputs": [
        {
          "internalType": "uint256",
          "name": "_newInterval",
          "type": "uint256"
        }
      ],
      "name": "setDistributionInterval",
      "outputs": [],
      "stateMutability": "nonpayable",
      "type": "function"
    },
    {
      "inputs": [
        {
          "internalType": "uint256",
          "name": "_amount",
          "type": "uint256"
        }
      ],
      "name": "stakeBuyerToken",
      "outputs": [],
      "stateMutability": "nonpayable",
      "type": "function"
    },
    {
      "inputs": [
        {
          "internalType": "uint256",
          "name": "_startIndex",
          "type": "uint256"
        },
        {
          "internalType": "uint256",
          "name": "_stopIndex",
          "type": "uint256"
        }
      ],
      "name": "distributeReward",
      "outputs": [],
      "stateMutability": "nonpayable",
      "type": "function"
    },
    {
      "inputs": [
        {
          "internalType": "uint256",
          "name": "_round",
          "type": "uint256"
        }
      ],
      "name": "claimReward",
      "outputs": [],
      "stateMutability": "nonpayable",
      "type": "function"
    }
  ],
  "bytecode": "0x608060405234801561001057600080fd5b50604051610d91380380610d9183398101604081905261002f91610087565b600080546001600160a01b03199081163317909155600180546001600160a01b03948516908316179055600280549290931691161790556100ba565b80516001600160a01b038116811461008257600080fd5b919050565b6000806040838503121561009a57600080fd5b6100a38361006b565b91506100b16020840161006b565b90509250929050565b610cc8806100c96000396000f3fe608060405234801561001057600080fd5b50600436106100cf5760003560e01c80638a19c8bc1161008c578063ae169a5011610066578063ae169a5014610189578063c708c5f41461019c578063e3bcd27c146101a5578063e6848ead146101b857600080fd5b80638a19c8bc1461014c5780638da5cb5b14610155578063a717639c1461018057600080fd5b806304af5418146100d45780636ff85ea9146100f157806371201a0e146101085780637a16a49e146101115780638863dd1a1461012657806388a11d1414610139575b600080fd5b6100dc6101cb565b60405190151581526020015b60405180910390f35b6100fa60095481565b6040519081526020016100e8565b6100fa600b5481565b61012461011f366004610b12565b6101ef565b005b610124610134366004610b2b565b610268565b610124610147366004610b12565b6102ec565b6100fa60085481565b600054610168906001600160a01b031681565b6040516001600160a01b0390911681526020016100e8565b6100fa600c5481565b610124610197366004610b12565b610561565b6100fa600a5481565b6101246101b3366004610b5b565b6106af565b6101246101c6366004610b12565b610946565b6000600b54600c54436101de9190610b93565b116101e95750600190565b50600090565b6000546001600160a01b031633146102225760405162461bcd60e51b815260040161021990610baa565b60405180910390fd5b600b80549082905560408051828152602081018490527f16251f0547943d63961e7d9293b1954795943a3e06afe20238eed85284df4cc991015b60405180910390a15050565b6000546001600160a01b031633146102925760405162461bcd60e51b815260040161021990610baa565b600080546001600160a01b038381166001600160a01b031983168117909355604080519190921680825260208201939093527f8be0079c531659141344cd1fd0a4f28419497f9722a3daafe3b4186f6b6457e0910161025c565b600b54600c546102fc9043610b93565b11156103705760405162461bcd60e51b815260206004820152603760248201527f43616e206e6f74207374616b6520627579657220746f6b656e206e6f772c207760448201527f616974696e6720666f7220646973747269627574696f6e0000000000000000006064820152608401610219565b6001546040516370a0823160e01b81523360048201526000916001600160a01b0316906370a082319060240160206040518083038186803b1580156103b457600080fd5b505afa1580156103c8573d6000803e3d6000fd5b505050506040513d601f19601f820116820180604052508101906103ec9190610bef565b1161044c5760405162461bcd60e51b815260206004820152602a60248201527f596f7520646f206e6f74206861766520616e7920627579657220746f6b656e206044820152691d1bc819195c1bdcda5d60b21b6064820152608401610219565b600154604051632770a7eb60e21b8152336004820152602481018390526001600160a01b0390911690639dc29fac90604401600060405180830381600087803b15801561049857600080fd5b505af11580156104ac573d6000803e3d6000fd5b505033600090815260066020908152604080832060085484529091529020541515915061050790505760085460009081526004602090815260408220805460018101825590835291200180546001600160a01b031916331790555b336000908152600660209081526040808320600854845290915281208054839290610533908490610c08565b909155505060085460009081526003602052604081208054839290610559908490610c08565b909155505050565b336000908152600660209081526040808320848452909152902054806105dc5760405162461bcd60e51b815260206004820152602a60248201527f596f7520646f206e6f74206861766520656e6f75676820646567697320696e206044820152691d1a1a5cc81c9bdd5b9960b21b6064820152608401610219565b600082815260036020526040812054600a549091906105fc908390610c20565b61060e90670de0b6b3a7640000610c42565b6002549091506001600160a01b03166340c10f193361062d8487610c42565b6040516001600160e01b031960e085901b1681526001600160a01b0390921660048301526024820152604401600060405180830381600087803b15801561067357600080fd5b505af1158015610687573d6000803e3d6000fd5b5050336000908152600660209081526040808320988352979052958620959095555050505050565b6000546001600160a01b031633146106d95760405162461bcd60e51b815260040161021990610baa565b600b54600c546106e99043610b93565b1161074a5760405162461bcd60e51b815260206004820152602b60248201527f54776f20646973747269627574696f6e73206e65656420746f2068617665206160448201526a0371034b73a32b93b30b6160ad1b6064820152608401610219565b6000600a54116107c25760405162461bcd60e51b815260206004820152603960248201527f43757272656e746c79206e6f204465676973207265776172642c20706c65617360448201527f6520736574206465676973506572526f756e64206669727374000000000000006064820152608401610219565b60085460009081526005602052604090205460ff161561082f5760405162461bcd60e51b815260206004820152602260248201527f43757272656e7420726f756e6420686173206265656e20646973747269627574604482015261195960f21b6064820152608401610219565b600854600090815260036020526040812054600a54909190610852908390610c20565b61086490670de0b6b3a7640000610c42565b905083158015610872575082155b1561089d57600854600081815260046020526040812054916108959183856109ae565b60095561091d565b83600954146109095760405162461bcd60e51b815260206004820152603260248201527f596f75206e65656420746f2073746172742066726f6d20746865206c61737420604482015271191a5cdd1c9a589d5d1a5bdb881c1bda5b9d60721b6064820152608401610219565b6109176008548585846109ae565b60098390555b600854600090815260046020526040902054600954141561094057610940610ad3565b50505050565b6000546001600160a01b031633146109705760405162461bcd60e51b815260040161021990610baa565b600a80549082905560408051828152602081018490527f3cef0f18c511ddb4219fabca0a75681231ffd5933fe81624d67420eab675e71f910161025c565b825b82811015610acc5760008581526004602052604081208054839081106109d8576109d8610c61565b60009182526020808320909101546001600160a01b03168083526006825260408084208a85529092529120549091508015610ab0576002546001600160a01b03166340c10f1983610a298785610c42565b6040516001600160e01b031960e085901b1681526001600160a01b0390921660048301526024820152604401600060405180830381600087803b158015610a6f57600080fd5b505af1158015610a83573d6000803e3d6000fd5b5050506001600160a01b03831660009081526006602090815260408083208b845290915281205550610ab7565b5050610aba565b50505b80610ac481610c77565b9150506109b0565b5050505050565b60006009819055600880548252600560205260408220805460ff191660019081179091558154909290610b07908490610c08565b909155505043600c55565b600060208284031215610b2457600080fd5b5035919050565b600060208284031215610b3d57600080fd5b81356001600160a01b0381168114610b5457600080fd5b9392505050565b60008060408385031215610b6e57600080fd5b50508035926020909101359150565b634e487b7160e01b600052601160045260246000fd5b600082821015610ba557610ba5610b7d565b500390565b60208082526025908201527f4f6e6c7920746865206f776e65722063616e2063616c6c20746869732066756e60408201526431ba34b7b760d91b606082015260800190565b600060208284031215610c0157600080fd5b5051919050565b60008219821115610c1b57610c1b610b7d565b500190565b600082610c3d57634e487b7160e01b600052601260045260246000fd5b500490565b6000816000190483118215151615610c5c57610c5c610b7d565b500290565b634e487b7160e01b600052603260045260246000fd5b6000600019821415610c8b57610c8b610b7d565b506001019056fea2646970667358221220817bd95657b79c338ec32769b7e696f984af71f0a00d066855c2b3d1a17e75a464736f6c63430008090033",
  "immutableReferences": {},
  "source": "// SPDX-License-Identifier: MIT\npragma solidity 0.8.9;\nimport \"./interfaces/IBuyerToken.sol\";\nimport \"./interfaces/IDegisToken.sol\";\nimport \"@openzeppelin/contracts/token/ERC20/utils/SafeERC20.sol\";\n\ncontract PurchaseIncentiveVault {\n    using SafeERC20 for IBuyerToken;\n\n    address public owner;\n\n    IBuyerToken buyerToken;\n    IDegisToken degis;\n\n    mapping(uint256 => uint256) sharesInRound;\n\n    mapping(uint256 => address[]) usersInRound;\n\n    mapping(uint256 => bool) hasDistributed;\n\n    mapping(address => mapping(uint256 => uint256)) userSharesInRound;\n    mapping(address => uint256) userRewards;\n\n    uint256 public currentRound;\n\n    uint256 public currentDistributionIndex;\n\n    uint256 public degisPerRound;\n    uint256 public distributionInterval; // in blocks\n    uint256 public lastDistribution;\n\n    event OwnershipTransferred(address _oldOwner, address _newOwner);\n    event ChangeDegisPerRound(uint256 _oldPerRound, uint256 _newPerRound);\n    event ChangeDistributionInterval(\n        uint256 _oldInterval,\n        uint256 _newInterval\n    );\n\n    constructor(address _buyerToken, address _degisToken) {\n        owner = msg.sender;\n        buyerToken = IBuyerToken(_buyerToken);\n        degis = IDegisToken(_degisToken);\n    }\n\n    modifier onlyOwner() {\n        require(msg.sender == owner, \"Only the owner can call this function\");\n        _;\n    }\n\n    modifier canStake() {\n        require(\n            block.number - lastDistribution <= distributionInterval,\n            \"Can not stake buyer token now, waiting for distribution\"\n        );\n        _;\n    }\n\n    modifier canDistribute() {\n        require(\n            block.number - lastDistribution > distributionInterval,\n            \"Two distributions need to have an interval \"\n        );\n        _;\n    }\n\n    /**\n     * @notice Check if users can stake buyer tokens now\n     * @dev Used for frontend\n     * @return ifCanStake Whether users can stake now\n     */\n    function checkIfCanStake() external view returns (bool) {\n        if (block.number - lastDistribution <= distributionInterval)\n            return true;\n        else return false;\n    }\n\n    function transferOwnerShip(address _newOwner) external onlyOwner {\n        address oldOwner = owner;\n        owner = _newOwner;\n        emit OwnershipTransferred(oldOwner, _newOwner);\n    }\n\n    /**\n     * @notice Set degis distribution per round\n     * @param _degisPerRound Degis distribution per round to be set\n     */\n    function setDegisPerRound(uint256 _degisPerRound) external onlyOwner {\n        uint256 oldPerRound = degisPerRound;\n        degisPerRound = _degisPerRound;\n        emit ChangeDegisPerRound(oldPerRound, _degisPerRound);\n    }\n\n    /**\n     * @notice Set a new distribution interval\n     * @param _newInterval The new interval\n     */\n    function setDistributionInterval(uint256 _newInterval) external onlyOwner {\n        uint256 oldInterval = distributionInterval;\n        distributionInterval = _newInterval;\n        emit ChangeDistributionInterval(oldInterval, _newInterval);\n    }\n\n    /**\n     * @notice Stake buyer token into this contract\n     * @param _amount Amount of buyer tokens to stake\n     */\n    function stakeBuyerToken(uint256 _amount) public canStake {\n        require(\n            buyerToken.balanceOf(msg.sender) > 0,\n            \"You do not have any buyer token to deposit\"\n        );\n\n        buyerToken.burn(msg.sender, _amount);\n\n        if (userSharesInRound[msg.sender][currentRound] == 0) {\n            usersInRound[currentRound].push(msg.sender);\n        }\n\n        userSharesInRound[msg.sender][currentRound] += _amount;\n        sharesInRound[currentRound] += _amount;\n    }\n\n    /**\n     * @notice Distribute the reward in this round, the total number depends on the blocks during this period\n     * @param _startIndex Distribution start index\n     * @param _stopIndex Distribution stop index\n     */\n    function distributeReward(uint256 _startIndex, uint256 _stopIndex)\n        public\n        onlyOwner\n        canDistribute\n    {\n        require(\n            degisPerRound > 0,\n            \"Currently no Degis reward, please set degisPerRound first\"\n        );\n        require(\n            hasDistributed[currentRound] == false,\n            \"Current round has been distributed\"\n        );\n\n        uint256 totalShares = sharesInRound[currentRound];\n        uint256 degisPerShare = (degisPerRound / totalShares) * 1e18;\n\n        // Distribute all at once (maybe not enough gas in one tx)\n        if (_startIndex == 0 && _stopIndex == 0) {\n            uint256 length = usersInRound[currentRound].length;\n            _distributeReward(currentRound, 0, length, degisPerShare);\n            currentDistributionIndex = length;\n        }\n        // Distribute in a certain range (need several times distribution)\n        else {\n            require(\n                currentDistributionIndex == _startIndex,\n                \"You need to start from the last distribution point\"\n            );\n            _distributeReward(\n                currentRound,\n                _startIndex,\n                _stopIndex,\n                degisPerShare\n            );\n            currentDistributionIndex = _stopIndex;\n        }\n\n        if (currentDistributionIndex == usersInRound[currentRound].length) {\n            _finishDistribution();\n        }\n    }\n\n    /**\n     * @notice Finish the distribution process\n     * @param _round Distribution round\n     * @param _startIndex Start index\n     * @param _stopIndex Stop index\n     * @param _degisPerShare Amount of degis per share\n     */\n    function _distributeReward(\n        uint256 _round,\n        uint256 _startIndex,\n        uint256 _stopIndex,\n        uint256 _degisPerShare\n    ) internal {\n        for (uint256 i = _startIndex; i < _stopIndex; i++) {\n            address userAddress = usersInRound[_round][i];\n            uint256 userShares = userSharesInRound[userAddress][_round];\n\n            if (userShares != 0) {\n                degis.mint(userAddress, userShares * _degisPerShare);\n                delete userSharesInRound[userAddress][_round];\n            } else continue;\n        }\n    }\n\n    /**\n     * @notice You can claim your own reward if you want\n     * @dev Can claim reward of the previous rounds\n     * @param _round Which round to claim\n     */\n    function claimReward(uint256 _round) external {\n        uint256 userShares = userSharesInRound[msg.sender][_round];\n\n        require(userShares > 0, \"You do not have enough degis in this round\");\n\n        uint256 totalShares = sharesInRound[_round];\n        uint256 degisPerShare = (degisPerRound / totalShares) * 1e18;\n\n        degis.mint(msg.sender, userShares * degisPerShare);\n\n        delete userSharesInRound[msg.sender][_round];\n    }\n\n    /**\n     * @notice Finish the distribution process and move to next round\n     */\n    function _finishDistribution() internal {\n        currentDistributionIndex = 0;\n        hasDistributed[currentRound] = true;\n        currentRound += 1;\n        lastDistribution = block.number;\n    }\n}\n",
  "sourcePath": "/Volumes/Store/src/Degis-Staking/contracts/PurchaseIncentiveVault.sol",
  "compiler": {
    "name": "solc",
    "version": "0.8.9+commit.e5eed63a.Emscripten.clang"
  },
  "schemaVersion": "3.4.3",
  "updatedAt": "2021-11-24T13:28:06.092Z",
  "networkType": "ethereum",
  "devdoc": {
    "kind": "dev",
    "methods": {
      "checkIfCanStake()": {
        "details": "Used for frontend",
        "returns": {
          "_0": "ifCanStake Whether users can stake now"
        }
      },
      "claimReward(uint256)": {
        "details": "Can claim reward of the previous rounds",
        "params": {
          "_round": "Which round to claim"
        }
      },
      "distributeReward(uint256,uint256)": {
        "params": {
          "_startIndex": "Distribution start index",
          "_stopIndex": "Distribution stop index"
        }
      },
      "setDegisPerRound(uint256)": {
        "params": {
          "_degisPerRound": "Degis distribution per round to be set"
        }
      },
      "setDistributionInterval(uint256)": {
        "params": {
          "_newInterval": "The new interval"
        }
      },
      "stakeBuyerToken(uint256)": {
        "params": {
          "_amount": "Amount of buyer tokens to stake"
        }
      }
    },
    "version": 1
  },
  "userdoc": {
    "kind": "user",
    "methods": {
      "checkIfCanStake()": {
        "notice": "Check if users can stake buyer tokens now"
      },
      "claimReward(uint256)": {
        "notice": "You can claim your own reward if you want"
      },
      "distributeReward(uint256,uint256)": {
        "notice": "Distribute the reward in this round, the total number depends on the blocks during this period"
      },
      "setDegisPerRound(uint256)": {
        "notice": "Set degis distribution per round"
      },
      "setDistributionInterval(uint256)": {
        "notice": "Set a new distribution interval"
      },
      "stakeBuyerToken(uint256)": {
        "notice": "Stake buyer token into this contract"
      }
    },
    "version": 1
  }
}