{
  "contractName": "PurchaseIncentiveVault",
  "abi": [
    {
      "inputs": [
        {
          "internalType": "address",
          "name": "_buyerToken",
          "type": "address"
        },
        {
          "internalType": "address",
          "name": "_degisToken",
          "type": "address"
        }
      ],
      "stateMutability": "nonpayable",
      "type": "constructor"
    },
    {
      "anonymous": false,
      "inputs": [
        {
          "indexed": false,
          "internalType": "uint256",
          "name": "_oldPerRound",
          "type": "uint256"
        },
        {
          "indexed": false,
          "internalType": "uint256",
          "name": "_newPerRound",
          "type": "uint256"
        }
      ],
      "name": "ChangeDegisPerRound",
      "type": "event"
    },
    {
      "anonymous": false,
      "inputs": [
        {
          "indexed": false,
          "internalType": "uint256",
          "name": "_oldInterval",
          "type": "uint256"
        },
        {
          "indexed": false,
          "internalType": "uint256",
          "name": "_newInterval",
          "type": "uint256"
        }
      ],
      "name": "ChangeDistributionInterval",
      "type": "event"
    },
    {
      "anonymous": false,
      "inputs": [
        {
          "indexed": false,
          "internalType": "address",
          "name": "_oldOwner",
          "type": "address"
        },
        {
          "indexed": false,
          "internalType": "address",
          "name": "_newOwner",
          "type": "address"
        }
      ],
      "name": "OwnershipTransferred",
      "type": "event"
    },
    {
      "inputs": [],
      "name": "currentDistributionIndex",
      "outputs": [
        {
          "internalType": "uint256",
          "name": "",
          "type": "uint256"
        }
      ],
      "stateMutability": "view",
      "type": "function",
      "constant": true
    },
    {
      "inputs": [],
      "name": "currentRound",
      "outputs": [
        {
          "internalType": "uint256",
          "name": "",
          "type": "uint256"
        }
      ],
      "stateMutability": "view",
      "type": "function",
      "constant": true
    },
    {
      "inputs": [],
      "name": "degisPerRound",
      "outputs": [
        {
          "internalType": "uint256",
          "name": "",
          "type": "uint256"
        }
      ],
      "stateMutability": "view",
      "type": "function",
      "constant": true
    },
    {
      "inputs": [],
      "name": "distributionInterval",
      "outputs": [
        {
          "internalType": "uint256",
          "name": "",
          "type": "uint256"
        }
      ],
      "stateMutability": "view",
      "type": "function",
      "constant": true
    },
    {
      "inputs": [],
      "name": "lastDistribution",
      "outputs": [
        {
          "internalType": "uint256",
          "name": "",
          "type": "uint256"
        }
      ],
      "stateMutability": "view",
      "type": "function",
      "constant": true
    },
    {
      "inputs": [],
      "name": "owner",
      "outputs": [
        {
          "internalType": "address",
          "name": "",
          "type": "address"
        }
      ],
      "stateMutability": "view",
      "type": "function",
      "constant": true
    },
    {
      "inputs": [
        {
          "internalType": "address",
          "name": "_userAddress",
          "type": "address"
        }
      ],
      "name": "pendingReward",
      "outputs": [
        {
          "internalType": "uint256",
          "name": "",
          "type": "uint256"
        }
      ],
      "stateMutability": "view",
      "type": "function",
      "constant": true
    },
    {
      "inputs": [],
      "name": "checkIfCanStake",
      "outputs": [
        {
          "internalType": "bool",
          "name": "",
          "type": "bool"
        }
      ],
      "stateMutability": "view",
      "type": "function",
      "constant": true
    },
    {
      "inputs": [
        {
          "internalType": "uint256",
          "name": "_round",
          "type": "uint256"
        }
      ],
      "name": "getTotalUsersInRound",
      "outputs": [
        {
          "internalType": "uint256",
          "name": "",
          "type": "uint256"
        }
      ],
      "stateMutability": "view",
      "type": "function",
      "constant": true
    },
    {
      "inputs": [
        {
          "internalType": "address",
          "name": "_newOwner",
          "type": "address"
        }
      ],
      "name": "transferOwnerShip",
      "outputs": [],
      "stateMutability": "nonpayable",
      "type": "function"
    },
    {
      "inputs": [
        {
          "internalType": "uint256",
          "name": "_degisPerRound",
          "type": "uint256"
        }
      ],
      "name": "setDegisPerRound",
      "outputs": [],
      "stateMutability": "nonpayable",
      "type": "function"
    },
    {
      "inputs": [
        {
          "internalType": "uint256",
          "name": "_newInterval",
          "type": "uint256"
        }
      ],
      "name": "setDistributionInterval",
      "outputs": [],
      "stateMutability": "nonpayable",
      "type": "function"
    },
    {
      "inputs": [
        {
          "internalType": "uint256",
          "name": "_amount",
          "type": "uint256"
        }
      ],
      "name": "stakeBuyerToken",
      "outputs": [],
      "stateMutability": "nonpayable",
      "type": "function"
    },
    {
      "inputs": [
        {
          "internalType": "uint256",
          "name": "_startIndex",
          "type": "uint256"
        },
        {
          "internalType": "uint256",
          "name": "_stopIndex",
          "type": "uint256"
        }
      ],
      "name": "distributeReward",
      "outputs": [],
      "stateMutability": "nonpayable",
      "type": "function"
    },
    {
      "inputs": [
        {
          "internalType": "uint256",
          "name": "_round",
          "type": "uint256"
        }
      ],
      "name": "claimReward",
      "outputs": [],
      "stateMutability": "nonpayable",
      "type": "function"
    }
  ],
  "bytecode": "0x608060405234801561001057600080fd5b50604051610dd7380380610dd783398101604081905261002f91610087565b600080546001600160a01b03199081163317909155600180546001600160a01b03948516908316179055600280549290931691161790556100ba565b80516001600160a01b038116811461008257600080fd5b919050565b6000806040838503121561009a57600080fd5b6100a38361006b565b91506100b16020840161006b565b90509250929050565b610d0e806100c96000396000f3fe608060405234801561001057600080fd5b50600436106100f55760003560e01c80638a19c8bc11610097578063c708c5f411610066578063c708c5f4146101e2578063e3bcd27c146101eb578063e6848ead146101fe578063f40f0f521461021157600080fd5b80638a19c8bc146101925780638da5cb5b1461019b578063a717639c146101c6578063ae169a50146101cf57600080fd5b806371201a0e116100d357806371201a0e1461014e5780637a16a49e146101575780638863dd1a1461016c57806388a11d141461017f57600080fd5b806304af5418146100fa5780631aeee41d146101175780636ff85ea914610145575b600080fd5b61010261023a565b60405190151581526020015b60405180910390f35b610137610125366004610b58565b60009081526004602052604090205490565b60405190815260200161010e565b61013760095481565b610137600b5481565b61016a610165366004610b58565b61025e565b005b61016a61017a366004610b71565b6102d7565b61016a61018d366004610b58565b61035b565b61013760085481565b6000546101ae906001600160a01b031681565b6040516001600160a01b03909116815260200161010e565b610137600c5481565b61016a6101dd366004610b58565b6105d0565b610137600a5481565b61016a6101f9366004610ba1565b61071e565b61016a61020c366004610b58565b6109d6565b61013761021f366004610b71565b6001600160a01b031660009081526007602052604090205490565b6000600b54600c544361024d9190610bd9565b116102585750600190565b50600090565b6000546001600160a01b031633146102915760405162461bcd60e51b815260040161028890610bf0565b60405180910390fd5b600b80549082905560408051828152602081018490527f16251f0547943d63961e7d9293b1954795943a3e06afe20238eed85284df4cc991015b60405180910390a15050565b6000546001600160a01b031633146103015760405162461bcd60e51b815260040161028890610bf0565b600080546001600160a01b038381166001600160a01b031983168117909355604080519190921680825260208201939093527f8be0079c531659141344cd1fd0a4f28419497f9722a3daafe3b4186f6b6457e091016102cb565b600b54600c5461036b9043610bd9565b11156103df5760405162461bcd60e51b815260206004820152603760248201527f43616e206e6f74207374616b6520627579657220746f6b656e206e6f772c207760448201527f616974696e6720666f7220646973747269627574696f6e0000000000000000006064820152608401610288565b6001546040516370a0823160e01b81523360048201526000916001600160a01b0316906370a082319060240160206040518083038186803b15801561042357600080fd5b505afa158015610437573d6000803e3d6000fd5b505050506040513d601f19601f8201168201806040525081019061045b9190610c35565b116104bb5760405162461bcd60e51b815260206004820152602a60248201527f596f7520646f206e6f74206861766520616e7920627579657220746f6b656e206044820152691d1bc819195c1bdcda5d60b21b6064820152608401610288565b600154604051632770a7eb60e21b8152336004820152602481018390526001600160a01b0390911690639dc29fac90604401600060405180830381600087803b15801561050757600080fd5b505af115801561051b573d6000803e3d6000fd5b505033600090815260066020908152604080832060085484529091529020541515915061057690505760085460009081526004602090815260408220805460018101825590835291200180546001600160a01b031916331790555b3360009081526006602090815260408083206008548452909152812080548392906105a2908490610c4e565b9091555050600854600090815260036020526040812080548392906105c8908490610c4e565b909155505050565b3360009081526006602090815260408083208484529091529020548061064b5760405162461bcd60e51b815260206004820152602a60248201527f596f7520646f206e6f74206861766520656e6f75676820646567697320696e206044820152691d1a1a5cc81c9bdd5b9960b21b6064820152608401610288565b600082815260036020526040812054600a5490919061066b908390610c66565b61067d90670de0b6b3a7640000610c88565b6002549091506001600160a01b03166340c10f193361069c8487610c88565b6040516001600160e01b031960e085901b1681526001600160a01b0390921660048301526024820152604401600060405180830381600087803b1580156106e257600080fd5b505af11580156106f6573d6000803e3d6000fd5b5050336000908152600660209081526040808320988352979052958620959095555050505050565b6000546001600160a01b031633146107485760405162461bcd60e51b815260040161028890610bf0565b600b54600c546107589043610bd9565b116107b95760405162461bcd60e51b815260206004820152602b60248201527f54776f20646973747269627574696f6e73206e65656420746f2068617665206160448201526a0371034b73a32b93b30b6160ad1b6064820152608401610288565b6000600a54116108315760405162461bcd60e51b815260206004820152603960248201527f43757272656e746c79206e6f204465676973207265776172642c20706c65617360448201527f6520736574206465676973506572526f756e64206669727374000000000000006064820152608401610288565b60085460009081526005602052604090205460ff161561089e5760405162461bcd60e51b815260206004820152602260248201527f43757272656e7420726f756e6420686173206265656e20646973747269627574604482015261195960f21b6064820152608401610288565b600854600090815260036020526040812054600a549091906108c1908390610c66565b6108d390670de0b6b3a7640000610c88565b905060006108ef60085460009081526004602052604090205490565b9050841580156108fd575083155b1561091b5761091160085460008385610a3e565b60098190556109ac565b84600954146109875760405162461bcd60e51b815260206004820152603260248201527f596f75206e65656420746f2073746172742066726f6d20746865206c61737420604482015271191a5cdd1c9a589d5d1a5bdb881c1bda5b9d60721b6064820152608401610288565b8084116109945780610996565b835b93506109a6600854868685610a3e565b60098490555b60085460009081526004602052604090205460095414156109cf576109cf610b19565b5050505050565b6000546001600160a01b03163314610a005760405162461bcd60e51b815260040161028890610bf0565b600a80549082905560408051828152602081018490527f3cef0f18c511ddb4219fabca0a75681231ffd5933fe81624d67420eab675e71f91016102cb565b825b828110156109cf576000858152600460205260408120805483908110610a6857610a68610ca7565b60009182526020808320909101546001600160a01b03168083526006825260408084208a85529092529120549091508015610afd57610aa78482610c88565b6001600160a01b03831660009081526007602052604081208054909190610acf908490610c4e565b90915550506001600160a01b03821660009081526006602090815260408083208a8452909152812055610b04565b5050610b07565b50505b80610b1181610cbd565b915050610a40565b60006009819055600880548252600560205260408220805460ff191660019081179091558154909290610b4d908490610c4e565b909155505043600c55565b600060208284031215610b6a57600080fd5b5035919050565b600060208284031215610b8357600080fd5b81356001600160a01b0381168114610b9a57600080fd5b9392505050565b60008060408385031215610bb457600080fd5b50508035926020909101359150565b634e487b7160e01b600052601160045260246000fd5b600082821015610beb57610beb610bc3565b500390565b60208082526025908201527f4f6e6c7920746865206f776e65722063616e2063616c6c20746869732066756e60408201526431ba34b7b760d91b606082015260800190565b600060208284031215610c4757600080fd5b5051919050565b60008219821115610c6157610c61610bc3565b500190565b600082610c8357634e487b7160e01b600052601260045260246000fd5b500490565b6000816000190483118215151615610ca257610ca2610bc3565b500290565b634e487b7160e01b600052603260045260246000fd5b6000600019821415610cd157610cd1610bc3565b506001019056fea26469706673582212208e1afcded5db8e78aaf82326235b6647239d2ad215c6b6784688289a897d137764736f6c63430008090033",
  "immutableReferences": {},
  "source": "// SPDX-License-Identifier: MIT\npragma solidity 0.8.9;\nimport \"./interfaces/IBuyerToken.sol\";\nimport \"./interfaces/IDegisToken.sol\";\nimport \"@openzeppelin/contracts/token/ERC20/utils/SafeERC20.sol\";\nimport \"./interfaces/IPurchaseIncentiveVault.sol\";\n\ncontract PurchaseIncentiveVault is IPurchaseIncentiveVault {\n    using SafeERC20 for IBuyerToken;\n\n    address public owner;\n\n    IBuyerToken buyerToken;\n    IDegisToken degis;\n\n    mapping(uint256 => uint256) sharesInRound;\n\n    mapping(uint256 => address[]) usersInRound;\n\n    mapping(uint256 => bool) hasDistributed;\n\n    mapping(address => mapping(uint256 => uint256)) userSharesInRound;\n    mapping(address => uint256) userRewards;\n\n    uint256 public currentRound;\n\n    uint256 public currentDistributionIndex;\n\n    uint256 public degisPerRound;\n    uint256 public distributionInterval; // in block numbers\n    uint256 public lastDistribution; // in block numbers\n\n    constructor(address _buyerToken, address _degisToken) {\n        owner = msg.sender;\n        buyerToken = IBuyerToken(_buyerToken);\n        degis = IDegisToken(_degisToken);\n    }\n\n    modifier onlyOwner() {\n        require(msg.sender == owner, \"Only the owner can call this function\");\n        _;\n    }\n\n    /**\n     * @notice Check if users can stake at this time\n     */\n    modifier canStake() {\n        require(\n            block.number - lastDistribution <= distributionInterval,\n            \"Can not stake buyer token now, waiting for distribution\"\n        );\n        _;\n    }\n\n    /**\n     * @notice Check if admins can distribute at this time, oppsite to \"canStake\"\n     */\n    modifier canDistribute() {\n        require(\n            block.number - lastDistribution > distributionInterval,\n            \"Two distributions need to have an interval \"\n        );\n        _;\n    }\n\n    // ---------------------------------------------------------------------------------------- //\n    // ************************************ View Functions ************************************ //\n    // ---------------------------------------------------------------------------------------- //\n\n    /**\n     * @notice Check a user's pending reward\n     * @param _userAddress Address of the user\n     * @return userRewards Pending degis amount of this user\n     */\n    function pendingReward(address _userAddress) public view returns (uint256) {\n        return userRewards[_userAddress];\n    }\n\n    /**\n     * @notice Check if users can stake buyer tokens now\n     * @dev Used for frontend\n     *      If exceed the interval, can not deposit and need to wait for distribution\n     * @return ifCanStake Whether users can stake now\n     */\n    function checkIfCanStake() external view returns (bool) {\n        if (block.number - lastDistribution <= distributionInterval)\n            return true;\n        else return false;\n    }\n\n    /**\n     * @notice Get the amount of users in _round, used for distribution\n     * @param _round Round number to check\n     * @return totalUsers Total amount of users in _round\n     */\n    function getTotalUsersInRound(uint256 _round)\n        public\n        view\n        returns (uint256)\n    {\n        return usersInRound[_round].length;\n    }\n\n    // ---------------------------------------------------------------------------------------- //\n    // ************************************ Set Functions ************************************* //\n    // ---------------------------------------------------------------------------------------- //\n\n    /**\n     * @notice Transfer the ownership\n     * @param _newOwner Address of the new owner\n     */\n    function transferOwnerShip(address _newOwner) external onlyOwner {\n        address oldOwner = owner;\n        owner = _newOwner;\n        emit OwnershipTransferred(oldOwner, _newOwner);\n    }\n\n    /**\n     * @notice Set degis distribution per round\n     * @param _degisPerRound Degis distribution per round to be set\n     */\n    function setDegisPerRound(uint256 _degisPerRound) external onlyOwner {\n        uint256 oldPerRound = degisPerRound;\n        degisPerRound = _degisPerRound;\n        emit ChangeDegisPerRound(oldPerRound, _degisPerRound);\n    }\n\n    /**\n     * @notice Set a new distribution interval\n     * @param _newInterval The new interval\n     */\n    function setDistributionInterval(uint256 _newInterval) external onlyOwner {\n        uint256 oldInterval = distributionInterval;\n        distributionInterval = _newInterval;\n        emit ChangeDistributionInterval(oldInterval, _newInterval);\n    }\n\n    // ---------------------------------------------------------------------------------------- //\n    // ************************************ Main Functions ************************************ //\n    // ---------------------------------------------------------------------------------------- //\n\n    /**\n     * @notice Stake buyer token into this contract\n     * @param _amount Amount of buyer tokens to stake\n     */\n    function stakeBuyerToken(uint256 _amount) public canStake {\n        require(\n            buyerToken.balanceOf(msg.sender) > 0,\n            \"You do not have any buyer token to deposit\"\n        );\n\n        buyerToken.burn(msg.sender, _amount);\n\n        if (userSharesInRound[msg.sender][currentRound] == 0) {\n            usersInRound[currentRound].push(msg.sender);\n        }\n\n        userSharesInRound[msg.sender][currentRound] += _amount;\n        sharesInRound[currentRound] += _amount;\n    }\n\n    /**\n     * @notice Distribute the reward in this round, the total number depends on the blocks during this period\n     * @param _startIndex Distribution start index\n     * @param _stopIndex Distribution stop index\n     */\n    function distributeReward(uint256 _startIndex, uint256 _stopIndex)\n        public\n        onlyOwner\n        canDistribute\n    {\n        require(\n            degisPerRound > 0,\n            \"Currently no Degis reward, please set degisPerRound first\"\n        );\n        require(\n            hasDistributed[currentRound] == false,\n            \"Current round has been distributed\"\n        );\n\n        uint256 totalShares = sharesInRound[currentRound];\n        uint256 degisPerShare = (degisPerRound / totalShares) * 1e18;\n\n        uint256 length = getTotalUsersInRound(currentRound);\n\n        // Distribute all at once (maybe not enough gas in one tx)\n        if (_startIndex == 0 && _stopIndex == 0) {\n            _distributeReward(currentRound, 0, length, degisPerShare);\n            currentDistributionIndex = length;\n        }\n        // Distribute in a certain range (need several times distribution)\n        else {\n            // Check if you start from the last check point\n            require(\n                currentDistributionIndex == _startIndex,\n                \"You need to start from the last distribution point\"\n            );\n            // Check if the stopindex exceeds the length\n            _stopIndex = _stopIndex > length ? _stopIndex : length;\n            _distributeReward(\n                currentRound,\n                _startIndex,\n                _stopIndex,\n                degisPerShare\n            );\n            currentDistributionIndex = _stopIndex;\n        }\n\n        if (currentDistributionIndex == usersInRound[currentRound].length) {\n            _finishDistribution();\n        }\n    }\n\n    // ---------------------------------------------------------------------------------------- //\n    // *********************************** Internal Functions ********************************* //\n    // ---------------------------------------------------------------------------------------- //\n\n    /**\n     * @notice Finish the distribution process\n     * @param _round Distribution round\n     * @param _startIndex Start index\n     * @param _stopIndex Stop index\n     * @param _degisPerShare Amount of degis per share\n     */\n    function _distributeReward(\n        uint256 _round,\n        uint256 _startIndex,\n        uint256 _stopIndex,\n        uint256 _degisPerShare\n    ) internal {\n        for (uint256 i = _startIndex; i < _stopIndex; i++) {\n            address userAddress = usersInRound[_round][i];\n            uint256 userShares = userSharesInRound[userAddress][_round];\n\n            if (userShares != 0) {\n                // degis.mint(userAddress, userShares * _degisPerShare);\n                // Update the pending reward of a user\n                userRewards[userAddress] += userShares * _degisPerShare;\n                delete userSharesInRound[userAddress][_round];\n            } else continue;\n        }\n    }\n\n    /**\n     * @notice You can claim your own reward if you want\n     * @dev Can claim reward of the previous rounds\n     * @param _round Which round to claim\n     */\n    function claimReward(uint256 _round) external {\n        uint256 userShares = userSharesInRound[msg.sender][_round];\n\n        require(userShares > 0, \"You do not have enough degis in this round\");\n\n        uint256 totalShares = sharesInRound[_round];\n        uint256 degisPerShare = (degisPerRound / totalShares) * 1e18;\n\n        degis.mint(msg.sender, userShares * degisPerShare);\n\n        delete userSharesInRound[msg.sender][_round];\n    }\n\n    /**\n     * @notice Finish the distribution process and move to next round\n     */\n    function _finishDistribution() internal {\n        currentDistributionIndex = 0;\n        hasDistributed[currentRound] = true;\n        currentRound += 1;\n        lastDistribution = block.number;\n    }\n}\n",
  "sourcePath": "/Volumes/Store/src/Degis-Staking/contracts/PurchaseIncentiveVault.sol",
  "compiler": {
    "name": "solc",
    "version": "0.8.9+commit.e5eed63a.Emscripten.clang"
  },
  "schemaVersion": "3.4.3",
  "updatedAt": "2021-12-02T13:56:56.552Z",
  "networkType": "ethereum",
  "devdoc": {
    "kind": "dev",
    "methods": {
      "checkIfCanStake()": {
        "details": "Used for frontend      If exceed the interval, can not deposit and need to wait for distribution",
        "returns": {
          "_0": "ifCanStake Whether users can stake now"
        }
      },
      "claimReward(uint256)": {
        "details": "Can claim reward of the previous rounds",
        "params": {
          "_round": "Which round to claim"
        }
      },
      "distributeReward(uint256,uint256)": {
        "params": {
          "_startIndex": "Distribution start index",
          "_stopIndex": "Distribution stop index"
        }
      },
      "getTotalUsersInRound(uint256)": {
        "params": {
          "_round": "Round number to check"
        },
        "returns": {
          "_0": "totalUsers Total amount of users in _round"
        }
      },
      "pendingReward(address)": {
        "params": {
          "_userAddress": "Address of the user"
        },
        "returns": {
          "_0": "userRewards Pending degis amount of this user"
        }
      },
      "setDegisPerRound(uint256)": {
        "params": {
          "_degisPerRound": "Degis distribution per round to be set"
        }
      },
      "setDistributionInterval(uint256)": {
        "params": {
          "_newInterval": "The new interval"
        }
      },
      "stakeBuyerToken(uint256)": {
        "params": {
          "_amount": "Amount of buyer tokens to stake"
        }
      },
      "transferOwnerShip(address)": {
        "params": {
          "_newOwner": "Address of the new owner"
        }
      }
    },
    "version": 1
  },
  "userdoc": {
    "kind": "user",
    "methods": {
      "checkIfCanStake()": {
        "notice": "Check if users can stake buyer tokens now"
      },
      "claimReward(uint256)": {
        "notice": "You can claim your own reward if you want"
      },
      "distributeReward(uint256,uint256)": {
        "notice": "Distribute the reward in this round, the total number depends on the blocks during this period"
      },
      "getTotalUsersInRound(uint256)": {
        "notice": "Get the amount of users in _round, used for distribution"
      },
      "pendingReward(address)": {
        "notice": "Check a user's pending reward"
      },
      "setDegisPerRound(uint256)": {
        "notice": "Set degis distribution per round"
      },
      "setDistributionInterval(uint256)": {
        "notice": "Set a new distribution interval"
      },
      "stakeBuyerToken(uint256)": {
        "notice": "Stake buyer token into this contract"
      },
      "transferOwnerShip(address)": {
        "notice": "Transfer the ownership"
      }
    },
    "version": 1
  }
}