{
  "contractName": "RandomNumberGenerator",
  "abi": [
    {
      "inputs": [
        {
          "internalType": "address",
          "name": "_vrfCoordinator",
          "type": "address"
        },
        {
          "internalType": "address",
          "name": "_linkToken",
          "type": "address"
        },
        {
          "internalType": "bytes32",
          "name": "_keyHash",
          "type": "bytes32"
        }
      ],
      "stateMutability": "nonpayable",
      "type": "constructor"
    },
    {
      "anonymous": false,
      "inputs": [
        {
          "indexed": true,
          "internalType": "address",
          "name": "previousOwner",
          "type": "address"
        },
        {
          "indexed": true,
          "internalType": "address",
          "name": "newOwner",
          "type": "address"
        }
      ],
      "name": "OwnershipTransferred",
      "type": "event"
    },
    {
      "inputs": [],
      "name": "DegisLottery",
      "outputs": [
        {
          "internalType": "address",
          "name": "",
          "type": "address"
        }
      ],
      "stateMutability": "view",
      "type": "function",
      "constant": true
    },
    {
      "inputs": [],
      "name": "fee",
      "outputs": [
        {
          "internalType": "uint256",
          "name": "",
          "type": "uint256"
        }
      ],
      "stateMutability": "view",
      "type": "function",
      "constant": true
    },
    {
      "inputs": [],
      "name": "keyHash",
      "outputs": [
        {
          "internalType": "bytes32",
          "name": "",
          "type": "bytes32"
        }
      ],
      "stateMutability": "view",
      "type": "function",
      "constant": true
    },
    {
      "inputs": [],
      "name": "latestLotteryId",
      "outputs": [
        {
          "internalType": "uint256",
          "name": "",
          "type": "uint256"
        }
      ],
      "stateMutability": "view",
      "type": "function",
      "constant": true
    },
    {
      "inputs": [],
      "name": "latestRequestId",
      "outputs": [
        {
          "internalType": "bytes32",
          "name": "",
          "type": "bytes32"
        }
      ],
      "stateMutability": "view",
      "type": "function",
      "constant": true
    },
    {
      "inputs": [],
      "name": "owner",
      "outputs": [
        {
          "internalType": "address",
          "name": "",
          "type": "address"
        }
      ],
      "stateMutability": "view",
      "type": "function",
      "constant": true
    },
    {
      "inputs": [],
      "name": "randomResult",
      "outputs": [
        {
          "internalType": "uint32",
          "name": "",
          "type": "uint32"
        }
      ],
      "stateMutability": "view",
      "type": "function",
      "constant": true
    },
    {
      "inputs": [
        {
          "internalType": "bytes32",
          "name": "requestId",
          "type": "bytes32"
        },
        {
          "internalType": "uint256",
          "name": "randomness",
          "type": "uint256"
        }
      ],
      "name": "rawFulfillRandomness",
      "outputs": [],
      "stateMutability": "nonpayable",
      "type": "function"
    },
    {
      "inputs": [],
      "name": "renounceOwnership",
      "outputs": [],
      "stateMutability": "nonpayable",
      "type": "function"
    },
    {
      "inputs": [
        {
          "internalType": "address",
          "name": "newOwner",
          "type": "address"
        }
      ],
      "name": "transferOwnership",
      "outputs": [],
      "stateMutability": "nonpayable",
      "type": "function"
    },
    {
      "inputs": [],
      "name": "getRandomNumber",
      "outputs": [],
      "stateMutability": "nonpayable",
      "type": "function"
    },
    {
      "inputs": [
        {
          "internalType": "uint256",
          "name": "_fee",
          "type": "uint256"
        }
      ],
      "name": "setFee",
      "outputs": [],
      "stateMutability": "nonpayable",
      "type": "function"
    },
    {
      "inputs": [
        {
          "internalType": "bytes32",
          "name": "_keyHash",
          "type": "bytes32"
        }
      ],
      "name": "setKeyHash",
      "outputs": [],
      "stateMutability": "nonpayable",
      "type": "function"
    },
    {
      "inputs": [
        {
          "internalType": "address",
          "name": "_degisLottery",
          "type": "address"
        }
      ],
      "name": "setLotteryAddress",
      "outputs": [],
      "stateMutability": "nonpayable",
      "type": "function"
    },
    {
      "inputs": [
        {
          "internalType": "address",
          "name": "_tokenAddress",
          "type": "address"
        },
        {
          "internalType": "uint256",
          "name": "_tokenAmount",
          "type": "uint256"
        }
      ],
      "name": "withdrawTokens",
      "outputs": [],
      "stateMutability": "nonpayable",
      "type": "function"
    },
    {
      "inputs": [],
      "name": "viewLatestLotteryId",
      "outputs": [
        {
          "internalType": "uint256",
          "name": "",
          "type": "uint256"
        }
      ],
      "stateMutability": "view",
      "type": "function",
      "constant": true
    },
    {
      "inputs": [],
      "name": "viewRandomResult",
      "outputs": [
        {
          "internalType": "uint32",
          "name": "",
          "type": "uint32"
        }
      ],
      "stateMutability": "view",
      "type": "function",
      "constant": true
    }
  ],
  "bytecode": "0x60c060405234801561001057600080fd5b5060405161111638038061111683398101604081905261002f916100b7565b6001600160a01b0383811660a0528216608052600180546001600160a01b0319163390811790915560405181906000907f8be0079c531659141344cd1fd0a4f28419497f9722a3daafe3b4186f6b6457e0908290a3506003555050670de0b6b3a76400006006556100f3565b80516001600160a01b03811681146100b257600080fd5b919050565b6000806000606084860312156100cc57600080fd5b6100d58461009b565b92506100e36020850161009b565b9150604084015190509250925092565b60805160a051610ff0610126600039600081816104690152610a1301526000818161061901526109e40152610ff06000f3fe608060405234801561001057600080fd5b506004361061011b5760003560e01c806394985ddd116100b2578063dbdff2c111610081578063eed8e1ee11610066578063eed8e1ee1461022a578063f2fde38b14610233578063fbe5d9171461024657600080fd5b8063dbdff2c114610219578063ddca3f431461022157600080fd5b806394985ddd146101d257806398544710146101e5578063a1c4f55a146101f8578063d581b5b61461020657600080fd5b806361728f39116100ee57806361728f391461018957806369fe0e2d14610192578063715018a6146101a55780638da5cb5b146101ad57600080fd5b806306b091f9146101205780631aa46f59146101355780632a332b2a1461015157806342619f6614610164575b600080fd5b61013361012e366004610dfb565b61024e565b005b61013e60045481565b6040519081526020015b60405180910390f35b61013361015f366004610e25565b6102c5565b6005546101749063ffffffff1681565b60405163ffffffff9091168152602001610148565b61013e60035481565b6101336101a0366004610e40565b61034e565b6101336103ad565b6001546001600160a01b03165b6040516001600160a01b039091168152602001610148565b6101336101e0366004610e59565b61045e565b6101336101f3366004610e40565b6104e0565b60055463ffffffff16610174565b6002546101ba906001600160a01b031681565b61013361053f565b61013e60065481565b61013e60075481565b610133610241366004610e25565b6106fc565b60075461013e565b6001546001600160a01b031633146102ad5760405162461bcd60e51b815260206004820181905260248201527f4f776e61626c653a2063616c6c6572206973206e6f7420746865206f776e657260448201526064015b60405180910390fd5b6102c16001600160a01b038316338361083b565b5050565b6001546001600160a01b0316331461031f5760405162461bcd60e51b815260206004820181905260248201527f4f776e61626c653a2063616c6c6572206973206e6f7420746865206f776e657260448201526064016102a4565b6002805473ffffffffffffffffffffffffffffffffffffffff19166001600160a01b0392909216919091179055565b6001546001600160a01b031633146103a85760405162461bcd60e51b815260206004820181905260248201527f4f776e61626c653a2063616c6c6572206973206e6f7420746865206f776e657260448201526064016102a4565b600655565b6001546001600160a01b031633146104075760405162461bcd60e51b815260206004820181905260248201527f4f776e61626c653a2063616c6c6572206973206e6f7420746865206f776e657260448201526064016102a4565b6001546040516000916001600160a01b0316907f8be0079c531659141344cd1fd0a4f28419497f9722a3daafe3b4186f6b6457e0908390a36001805473ffffffffffffffffffffffffffffffffffffffff19169055565b336001600160a01b037f000000000000000000000000000000000000000000000000000000000000000016146104d65760405162461bcd60e51b815260206004820152601f60248201527f4f6e6c7920565246436f6f7264696e61746f722063616e2066756c66696c6c0060448201526064016102a4565b6102c182826108c0565b6001546001600160a01b0316331461053a5760405162461bcd60e51b815260206004820181905260248201527f4f776e61626c653a2063616c6c6572206973206e6f7420746865206f776e657260448201526064016102a4565b600355565b6002546001600160a01b031633146105995760405162461bcd60e51b815260206004820152601160248201527f4f6e6c792044656769734c6f747465727900000000000000000000000000000060448201526064016102a4565b6003546105e85760405162461bcd60e51b815260206004820152601860248201527f4d75737420686176652076616c6964206b65792068617368000000000000000060448201526064016102a4565b6006546040517f70a082310000000000000000000000000000000000000000000000000000000081523060048201527f00000000000000000000000000000000000000000000000000000000000000006001600160a01b0316906370a082319060240160206040518083038186803b15801561066357600080fd5b505afa158015610677573d6000803e3d6000fd5b505050506040513d601f19601f8201168201806040525081019061069b9190610e7b565b10156106e95760405162461bcd60e51b815260206004820152601660248201527f4e6f7420656e6f756768204c494e4b20746f6b656e730000000000000000000060448201526064016102a4565b6106f76003546006546109e0565b600455565b6001546001600160a01b031633146107565760405162461bcd60e51b815260206004820181905260248201527f4f776e61626c653a2063616c6c6572206973206e6f7420746865206f776e657260448201526064016102a4565b6001600160a01b0381166107d25760405162461bcd60e51b815260206004820152602660248201527f4f776e61626c653a206e6577206f776e657220697320746865207a65726f206160448201527f646472657373000000000000000000000000000000000000000000000000000060648201526084016102a4565b6001546040516001600160a01b038084169216907f8be0079c531659141344cd1fd0a4f28419497f9722a3daafe3b4186f6b6457e090600090a36001805473ffffffffffffffffffffffffffffffffffffffff19166001600160a01b0392909216919091179055565b604080516001600160a01b038416602482015260448082018490528251808303909101815260649091019091526020810180517bffffffffffffffffffffffffffffffffffffffffffffffffffffffff167fa9059cbb000000000000000000000000000000000000000000000000000000001790526108bb908490610b69565b505050565b81600454146109115760405162461bcd60e51b815260206004820152600f60248201527f57726f6e6720726571756573744964000000000000000000000000000000000060448201526064016102a4565b61091d61271082610e94565b61092990612710610eb6565b6005805463ffffffff191663ffffffff92909216919091179055600254604080517f80a0616000000000000000000000000000000000000000000000000000000000815290516001600160a01b03909216916380a0616091600480820192602092909190829003018186803b1580156109a157600080fd5b505afa1580156109b5573d6000803e3d6000fd5b505050506040513d601f19601f820116820180604052508101906109d99190610e7b565b6007555050565b60007f00000000000000000000000000000000000000000000000000000000000000006001600160a01b0316634000aea07f000000000000000000000000000000000000000000000000000000000000000084866000604051602001610a50929190918252602082015260400190565b6040516020818303038152906040526040518463ffffffff1660e01b8152600401610a7d93929190610f38565b602060405180830381600087803b158015610a9757600080fd5b505af1158015610aab573d6000803e3d6000fd5b505050506040513d601f19601f82011682018060405250810190610acf9190610f69565b5060008381526020818152604080832054815180840188905280830185905230606082015260808082018390528351808303909101815260a090910190925281519183019190912086845292909152610b29906001610eb6565b6000858152602081815260409182902092909255805180830187905280820184905281518082038301815260609091019091528051910120949350505050565b6000610bbe826040518060400160405280602081526020017f5361666545524332303a206c6f772d6c6576656c2063616c6c206661696c6564815250856001600160a01b0316610c4e9092919063ffffffff16565b8051909150156108bb5780806020019051810190610bdc9190610f69565b6108bb5760405162461bcd60e51b815260206004820152602a60248201527f5361666545524332303a204552433230206f7065726174696f6e20646964206e60448201527f6f7420737563636565640000000000000000000000000000000000000000000060648201526084016102a4565b6060610c5d8484600085610c67565b90505b9392505050565b606082471015610cdf5760405162461bcd60e51b815260206004820152602660248201527f416464726573733a20696e73756666696369656e742062616c616e636520666f60448201527f722063616c6c000000000000000000000000000000000000000000000000000060648201526084016102a4565b843b610d2d5760405162461bcd60e51b815260206004820152601d60248201527f416464726573733a2063616c6c20746f206e6f6e2d636f6e747261637400000060448201526064016102a4565b600080866001600160a01b03168587604051610d499190610f8b565b60006040518083038185875af1925050503d8060008114610d86576040519150601f19603f3d011682016040523d82523d6000602084013e610d8b565b606091505b5091509150610d9b828286610da6565b979650505050505050565b60608315610db5575081610c60565b825115610dc55782518084602001fd5b8160405162461bcd60e51b81526004016102a49190610fa7565b80356001600160a01b0381168114610df657600080fd5b919050565b60008060408385031215610e0e57600080fd5b610e1783610ddf565b946020939093013593505050565b600060208284031215610e3757600080fd5b610c6082610ddf565b600060208284031215610e5257600080fd5b5035919050565b60008060408385031215610e6c57600080fd5b50508035926020909101359150565b600060208284031215610e8d57600080fd5b5051919050565b600082610eb157634e487b7160e01b600052601260045260246000fd5b500690565b60008219821115610ed757634e487b7160e01b600052601160045260246000fd5b500190565b60005b83811015610ef7578181015183820152602001610edf565b83811115610f06576000848401525b50505050565b60008151808452610f24816020860160208601610edc565b601f01601f19169290920160200192915050565b6001600160a01b0384168152826020820152606060408201526000610f606060830184610f0c565b95945050505050565b600060208284031215610f7b57600080fd5b81518015158114610c6057600080fd5b60008251610f9d818460208701610edc565b9190910192915050565b602081526000610c606020830184610f0c56fea26469706673582212203753e5a0d9bd6a27ed04790d7db00516d722731097825e779742cb6c3ffd73aa64736f6c63430008090033",
  "immutableReferences": {
    "73": [
      {
        "length": 32,
        "start": 1561
      },
      {
        "length": 32,
        "start": 2532
      }
    ],
    "75": [
      {
        "length": 32,
        "start": 1129
      },
      {
        "length": 32,
        "start": 2579
      }
    ]
  },
  "source": "// SPDX-License-Identifier: MIT\npragma solidity 0.8.9;\n\nimport \"@openzeppelin/contracts/access/Ownable.sol\";\nimport \"@openzeppelin/contracts/utils/Address.sol\";\nimport \"@chainlink/contracts/src/v0.8/VRFConsumerBase.sol\";\nimport \"./interfaces/IRandomNumberGenerator.sol\";\nimport \"./interfaces/IDegisLottery.sol\";\nimport \"@openzeppelin/contracts/token/ERC20/utils/SafeERC20.sol\";\n\ncontract RandomNumberGenerator is\n    VRFConsumerBase,\n    IRandomNumberGenerator,\n    Ownable\n{\n    using SafeERC20 for IERC20;\n\n    address public DegisLottery;\n    bytes32 public keyHash;\n    bytes32 public latestRequestId;\n    uint32 public randomResult;\n    uint256 public fee;\n    uint256 public latestLotteryId;\n\n    /**\n     * @notice Constructor\n     * @dev RandomNumberGenerator must be deployed before the lottery.\n     * Once the lottery contract is deployed, setLotteryAddress must be called.\n     * https://docs.chain.link/docs/vrf-contracts/\n     * @param _vrfCoordinator: address of the VRF coordinator\n     * @param _linkToken: address of the LINK token\n     */\n    constructor(\n        address _vrfCoordinator,\n        address _linkToken,\n        bytes32 _keyHash\n    ) VRFConsumerBase(_vrfCoordinator, _linkToken) {\n        keyHash = _keyHash;\n        fee = 0.1 * 10e18;\n    }\n\n    /**\n     * @notice Request randomness from Chainlink VRF\n     */\n    function getRandomNumber() external override {\n        require(msg.sender == DegisLottery, \"Only DegisLottery\");\n        require(keyHash != bytes32(0), \"Must have valid key hash\");\n        require(LINK.balanceOf(address(this)) >= fee, \"Not enough LINK tokens\");\n\n        latestRequestId = requestRandomness(keyHash, fee);\n    }\n\n    /**\n     * @notice Change the fee\n     * @param _fee: new fee (in LINK)\n     */\n    function setFee(uint256 _fee) external onlyOwner {\n        fee = _fee;\n    }\n\n    /**\n     * @notice Change the keyHash\n     * @param _keyHash: new keyHash\n     */\n    function setKeyHash(bytes32 _keyHash) external onlyOwner {\n        keyHash = _keyHash;\n    }\n\n    /**\n     * @notice Set the address for the DegisLottery\n     * @param _degisLottery: address of the PancakeSwap lottery\n     */\n    function setLotteryAddress(address _degisLottery) external onlyOwner {\n        DegisLottery = _degisLottery;\n    }\n\n    /**\n     * @notice It allows the admin to withdraw tokens sent to the contract\n     * @param _tokenAddress: the address of the token to withdraw\n     * @param _tokenAmount: the number of token amount to withdraw\n     * @dev Only callable by owner.\n     */\n    function withdrawTokens(address _tokenAddress, uint256 _tokenAmount)\n        external\n        onlyOwner\n    {\n        IERC20(_tokenAddress).safeTransfer(address(msg.sender), _tokenAmount);\n    }\n\n    /**\n     * @notice View latestLotteryId\n     */\n    function viewLatestLotteryId() external view override returns (uint256) {\n        return latestLotteryId;\n    }\n\n    /**\n     * @notice View random result\n     */\n    function viewRandomResult() external view override returns (uint32) {\n        return randomResult;\n    }\n\n    /**\n     * @notice Callback function used by ChainLink's VRF Coordinator\n     */\n    function fulfillRandomness(bytes32 requestId, uint256 randomness)\n        internal\n        override\n    {\n        require(latestRequestId == requestId, \"Wrong requestId\");\n        randomResult = uint32(10000 + (randomness % 10000));\n        latestLotteryId = IDegisLottery(DegisLottery).viewCurrentLotteryId();\n    }\n}\n",
  "sourcePath": "/Volumes/Store/src/Degis-Lucky/contracts/RandomNumberGenerator.sol",
  "compiler": {
    "name": "solc",
    "version": "0.8.9+commit.e5eed63a.Emscripten.clang"
  },
  "schemaVersion": "3.4.3",
  "updatedAt": "2021-11-24T13:47:21.358Z",
  "networkType": "ethereum",
  "devdoc": {
    "kind": "dev",
    "methods": {
      "constructor": {
        "details": "RandomNumberGenerator must be deployed before the lottery. Once the lottery contract is deployed, setLotteryAddress must be called. https://docs.chain.link/docs/vrf-contracts/",
        "params": {
          "_linkToken": ": address of the LINK token",
          "_vrfCoordinator": ": address of the VRF coordinator"
        }
      },
      "owner()": {
        "details": "Returns the address of the current owner."
      },
      "renounceOwnership()": {
        "details": "Leaves the contract without owner. It will not be possible to call `onlyOwner` functions anymore. Can only be called by the current owner. NOTE: Renouncing ownership will leave the contract without an owner, thereby removing any functionality that is only available to the owner."
      },
      "setFee(uint256)": {
        "params": {
          "_fee": ": new fee (in LINK)"
        }
      },
      "setKeyHash(bytes32)": {
        "params": {
          "_keyHash": ": new keyHash"
        }
      },
      "setLotteryAddress(address)": {
        "params": {
          "_degisLottery": ": address of the PancakeSwap lottery"
        }
      },
      "transferOwnership(address)": {
        "details": "Transfers ownership of the contract to a new account (`newOwner`). Can only be called by the current owner."
      },
      "withdrawTokens(address,uint256)": {
        "details": "Only callable by owner.",
        "params": {
          "_tokenAddress": ": the address of the token to withdraw",
          "_tokenAmount": ": the number of token amount to withdraw"
        }
      }
    },
    "version": 1
  },
  "userdoc": {
    "kind": "user",
    "methods": {
      "constructor": {
        "notice": "Constructor"
      },
      "getRandomNumber()": {
        "notice": "Request randomness from Chainlink VRF"
      },
      "setFee(uint256)": {
        "notice": "Change the fee"
      },
      "setKeyHash(bytes32)": {
        "notice": "Change the keyHash"
      },
      "setLotteryAddress(address)": {
        "notice": "Set the address for the DegisLottery"
      },
      "viewLatestLotteryId()": {
        "notice": "View latestLotteryId"
      },
      "viewRandomResult()": {
        "notice": "View random result"
      },
      "withdrawTokens(address,uint256)": {
        "notice": "It allows the admin to withdraw tokens sent to the contract"
      }
    },
    "version": 1
  }
}