{
  "contractName": "RandomNumberGenerator",
  "abi": [
    {
      "inputs": [
        {
          "internalType": "address",
          "name": "_vrfCoordinator",
          "type": "address"
        },
        {
          "internalType": "address",
          "name": "_linkToken",
          "type": "address"
        },
        {
          "internalType": "bytes32",
          "name": "_keyHash",
          "type": "bytes32"
        }
      ],
      "stateMutability": "nonpayable",
      "type": "constructor"
    },
    {
      "anonymous": false,
      "inputs": [
        {
          "indexed": true,
          "internalType": "address",
          "name": "previousOwner",
          "type": "address"
        },
        {
          "indexed": true,
          "internalType": "address",
          "name": "newOwner",
          "type": "address"
        }
      ],
      "name": "OwnershipTransferred",
      "type": "event"
    },
    {
      "inputs": [],
      "name": "DegisLottery",
      "outputs": [
        {
          "internalType": "address",
          "name": "",
          "type": "address"
        }
      ],
      "stateMutability": "view",
      "type": "function",
      "constant": true
    },
    {
      "inputs": [],
      "name": "fee",
      "outputs": [
        {
          "internalType": "uint256",
          "name": "",
          "type": "uint256"
        }
      ],
      "stateMutability": "view",
      "type": "function",
      "constant": true
    },
    {
      "inputs": [],
      "name": "keyHash",
      "outputs": [
        {
          "internalType": "bytes32",
          "name": "",
          "type": "bytes32"
        }
      ],
      "stateMutability": "view",
      "type": "function",
      "constant": true
    },
    {
      "inputs": [],
      "name": "latestLotteryId",
      "outputs": [
        {
          "internalType": "uint256",
          "name": "",
          "type": "uint256"
        }
      ],
      "stateMutability": "view",
      "type": "function",
      "constant": true
    },
    {
      "inputs": [],
      "name": "latestRequestId",
      "outputs": [
        {
          "internalType": "bytes32",
          "name": "",
          "type": "bytes32"
        }
      ],
      "stateMutability": "view",
      "type": "function",
      "constant": true
    },
    {
      "inputs": [],
      "name": "owner",
      "outputs": [
        {
          "internalType": "address",
          "name": "",
          "type": "address"
        }
      ],
      "stateMutability": "view",
      "type": "function",
      "constant": true
    },
    {
      "inputs": [],
      "name": "randomResult",
      "outputs": [
        {
          "internalType": "uint32",
          "name": "",
          "type": "uint32"
        }
      ],
      "stateMutability": "view",
      "type": "function",
      "constant": true
    },
    {
      "inputs": [
        {
          "internalType": "bytes32",
          "name": "requestId",
          "type": "bytes32"
        },
        {
          "internalType": "uint256",
          "name": "randomness",
          "type": "uint256"
        }
      ],
      "name": "rawFulfillRandomness",
      "outputs": [],
      "stateMutability": "nonpayable",
      "type": "function"
    },
    {
      "inputs": [],
      "name": "renounceOwnership",
      "outputs": [],
      "stateMutability": "nonpayable",
      "type": "function"
    },
    {
      "inputs": [
        {
          "internalType": "address",
          "name": "newOwner",
          "type": "address"
        }
      ],
      "name": "transferOwnership",
      "outputs": [],
      "stateMutability": "nonpayable",
      "type": "function"
    },
    {
      "inputs": [],
      "name": "getRandomNumber",
      "outputs": [],
      "stateMutability": "nonpayable",
      "type": "function"
    },
    {
      "inputs": [
        {
          "internalType": "uint256",
          "name": "_fee",
          "type": "uint256"
        }
      ],
      "name": "setFee",
      "outputs": [],
      "stateMutability": "nonpayable",
      "type": "function"
    },
    {
      "inputs": [
        {
          "internalType": "bytes32",
          "name": "_keyHash",
          "type": "bytes32"
        }
      ],
      "name": "setKeyHash",
      "outputs": [],
      "stateMutability": "nonpayable",
      "type": "function"
    },
    {
      "inputs": [
        {
          "internalType": "address",
          "name": "_degisLottery",
          "type": "address"
        }
      ],
      "name": "setLotteryAddress",
      "outputs": [],
      "stateMutability": "nonpayable",
      "type": "function"
    },
    {
      "inputs": [
        {
          "internalType": "address",
          "name": "_tokenAddress",
          "type": "address"
        },
        {
          "internalType": "uint256",
          "name": "_tokenAmount",
          "type": "uint256"
        }
      ],
      "name": "withdrawTokens",
      "outputs": [],
      "stateMutability": "nonpayable",
      "type": "function"
    },
    {
      "inputs": [],
      "name": "viewLatestLotteryId",
      "outputs": [
        {
          "internalType": "uint256",
          "name": "",
          "type": "uint256"
        }
      ],
      "stateMutability": "view",
      "type": "function",
      "constant": true
    },
    {
      "inputs": [],
      "name": "viewRandomResult",
      "outputs": [
        {
          "internalType": "uint32",
          "name": "",
          "type": "uint32"
        }
      ],
      "stateMutability": "view",
      "type": "function",
      "constant": true
    }
  ],
  "bytecode": "0x60c060405234801561001057600080fd5b5060405161112338038061112383398101604081905261002f916100b7565b6001600160a01b0383811660a0528216608052600180546001600160a01b0319163390811790915560405181906000907f8be0079c531659141344cd1fd0a4f28419497f9722a3daafe3b4186f6b6457e0908290a3506003555050670de0b6b3a76400006006556100f3565b80516001600160a01b03811681146100b257600080fd5b919050565b6000806000606084860312156100cc57600080fd5b6100d58461009b565b92506100e36020850161009b565b9150604084015190509250925092565b60805160a05161100e610115600039600061046901526000505061100e6000f3fe608060405234801561001057600080fd5b506004361061011b5760003560e01c806394985ddd116100b2578063dbdff2c111610081578063eed8e1ee11610066578063eed8e1ee1461022a578063f2fde38b14610233578063fbe5d9171461024657600080fd5b8063dbdff2c114610219578063ddca3f431461022157600080fd5b806394985ddd146101d257806398544710146101e5578063a1c4f55a146101f8578063d581b5b61461020657600080fd5b806361728f39116100ee57806361728f391461018957806369fe0e2d14610192578063715018a6146101a55780638da5cb5b146101ad57600080fd5b806306b091f9146101205780631aa46f59146101355780632a332b2a1461015157806342619f6614610164575b600080fd5b61013361012e366004610d9d565b61024e565b005b61013e60045481565b6040519081526020015b60405180910390f35b61013361015f366004610dc7565b6102c5565b6005546101749063ffffffff1681565b60405163ffffffff9091168152602001610148565b61013e60035481565b6101336101a0366004610de2565b61034e565b6101336103ad565b6001546001600160a01b03165b6040516001600160a01b039091168152602001610148565b6101336101e0366004610dfb565b61045e565b6101336101f3366004610de2565b6104e0565b60055463ffffffff16610174565b6002546101ba906001600160a01b031681565b61013361053f565b61013e60065481565b61013e60075481565b610133610241366004610dc7565b6106d5565b60075461013e565b6001546001600160a01b031633146102ad5760405162461bcd60e51b815260206004820181905260248201527f4f776e61626c653a2063616c6c6572206973206e6f7420746865206f776e657260448201526064015b60405180910390fd5b6102c16001600160a01b0383163383610814565b5050565b6001546001600160a01b0316331461031f5760405162461bcd60e51b815260206004820181905260248201527f4f776e61626c653a2063616c6c6572206973206e6f7420746865206f776e657260448201526064016102a4565b6002805473ffffffffffffffffffffffffffffffffffffffff19166001600160a01b0392909216919091179055565b6001546001600160a01b031633146103a85760405162461bcd60e51b815260206004820181905260248201527f4f776e61626c653a2063616c6c6572206973206e6f7420746865206f776e657260448201526064016102a4565b600655565b6001546001600160a01b031633146104075760405162461bcd60e51b815260206004820181905260248201527f4f776e61626c653a2063616c6c6572206973206e6f7420746865206f776e657260448201526064016102a4565b6001546040516000916001600160a01b0316907f8be0079c531659141344cd1fd0a4f28419497f9722a3daafe3b4186f6b6457e0908390a36001805473ffffffffffffffffffffffffffffffffffffffff19169055565b336001600160a01b037f000000000000000000000000000000000000000000000000000000000000000016146104d65760405162461bcd60e51b815260206004820152601f60248201527f4f6e6c7920565246436f6f7264696e61746f722063616e2066756c66696c6c0060448201526064016102a4565b6102c18282610899565b6001546001600160a01b0316331461053a5760405162461bcd60e51b815260206004820181905260248201527f4f776e61626c653a2063616c6c6572206973206e6f7420746865206f776e657260448201526064016102a4565b600355565b6002546001600160a01b031633146105995760405162461bcd60e51b815260206004820152601160248201527f4f6e6c792044656769734c6f747465727900000000000000000000000000000060448201526064016102a4565b6003546105e85760405162461bcd60e51b815260206004820152601860248201527f4d75737420686176652076616c6964206b65792068617368000000000000000060448201526064016102a4565b60006105f3426109a0565b30604051602001610605929190610e4d565b604051602081830303815290604052905061271061062282610ada565b61062c9190610e9a565b61063890612710610ec4565b6005805463ffffffff191663ffffffff9290921691909117905560025460408051630405030b60e51b815290516001600160a01b03909216916380a0616091600480820192602092909190829003018186803b15801561069757600080fd5b505afa1580156106ab573d6000803e3d6000fd5b505050506040513d601f19601f820116820180604052508101906106cf9190610edc565b60075550565b6001546001600160a01b0316331461072f5760405162461bcd60e51b815260206004820181905260248201527f4f776e61626c653a2063616c6c6572206973206e6f7420746865206f776e657260448201526064016102a4565b6001600160a01b0381166107ab5760405162461bcd60e51b815260206004820152602660248201527f4f776e61626c653a206e6577206f776e657220697320746865207a65726f206160448201527f646472657373000000000000000000000000000000000000000000000000000060648201526084016102a4565b6001546040516001600160a01b038084169216907f8be0079c531659141344cd1fd0a4f28419497f9722a3daafe3b4186f6b6457e090600090a36001805473ffffffffffffffffffffffffffffffffffffffff19166001600160a01b0392909216919091179055565b604080516001600160a01b038416602482015260448082018490528251808303909101815260649091019091526020810180517bffffffffffffffffffffffffffffffffffffffffffffffffffffffff167fa9059cbb00000000000000000000000000000000000000000000000000000000179052610894908490610b0b565b505050565b81600454146108ea5760405162461bcd60e51b815260206004820152600f60248201527f57726f6e6720726571756573744964000000000000000000000000000000000060448201526064016102a4565b6108f661271082610e9a565b61090290612710610ec4565b6005805463ffffffff191663ffffffff9290921691909117905560025460408051630405030b60e51b815290516001600160a01b03909216916380a0616091600480820192602092909190829003018186803b15801561096157600080fd5b505afa158015610975573d6000803e3d6000fd5b505050506040513d601f19601f820116820180604052508101906109999190610edc565b6007555050565b6060816109e057505060408051808201909152600181527f3000000000000000000000000000000000000000000000000000000000000000602082015290565b8160005b8115610a0a57806109f481610ef5565b9150610a039050600a83610f10565b91506109e4565b60008167ffffffffffffffff811115610a2557610a25610f24565b6040519080825280601f01601f191660200182016040528015610a4f576020820181803683370190505b5090505b8415610ad257610a64600183610f3a565b9150610a71600a86610e9a565b610a7c906030610ec4565b60f81b818381518110610a9157610a91610f51565b60200101907effffffffffffffffffffffffffffffffffffffffffffffffffffffffffffff1916908160001a905350610acb600a86610f10565b9450610a53565b949350505050565b600081604051602001610aed9190610f67565b60408051601f19818403018152919052805160209091012092915050565b6000610b60826040518060400160405280602081526020017f5361666545524332303a206c6f772d6c6576656c2063616c6c206661696c6564815250856001600160a01b0316610bf09092919063ffffffff16565b8051909150156108945780806020019051810190610b7e9190610f83565b6108945760405162461bcd60e51b815260206004820152602a60248201527f5361666545524332303a204552433230206f7065726174696f6e20646964206e60448201527f6f7420737563636565640000000000000000000000000000000000000000000060648201526084016102a4565b6060610bff8484600085610c09565b90505b9392505050565b606082471015610c815760405162461bcd60e51b815260206004820152602660248201527f416464726573733a20696e73756666696369656e742062616c616e636520666f60448201527f722063616c6c000000000000000000000000000000000000000000000000000060648201526084016102a4565b843b610ccf5760405162461bcd60e51b815260206004820152601d60248201527f416464726573733a2063616c6c20746f206e6f6e2d636f6e747261637400000060448201526064016102a4565b600080866001600160a01b03168587604051610ceb9190610f67565b60006040518083038185875af1925050503d8060008114610d28576040519150601f19603f3d011682016040523d82523d6000602084013e610d2d565b606091505b5091509150610d3d828286610d48565b979650505050505050565b60608315610d57575081610c02565b825115610d675782518084602001fd5b8160405162461bcd60e51b81526004016102a49190610fa5565b80356001600160a01b0381168114610d9857600080fd5b919050565b60008060408385031215610db057600080fd5b610db983610d81565b946020939093013593505050565b600060208284031215610dd957600080fd5b610c0282610d81565b600060208284031215610df457600080fd5b5035919050565b60008060408385031215610e0e57600080fd5b50508035926020909101359150565b60005b83811015610e38578181015183820152602001610e20565b83811115610e47576000848401525b50505050565b60008351610e5f818460208801610e1d565b60609390931b6bffffffffffffffffffffffff19169190920190815260140192915050565b634e487b7160e01b600052601260045260246000fd5b600082610ea957610ea9610e84565b500690565b634e487b7160e01b600052601160045260246000fd5b60008219821115610ed757610ed7610eae565b500190565b600060208284031215610eee57600080fd5b5051919050565b6000600019821415610f0957610f09610eae565b5060010190565b600082610f1f57610f1f610e84565b500490565b634e487b7160e01b600052604160045260246000fd5b600082821015610f4c57610f4c610eae565b500390565b634e487b7160e01b600052603260045260246000fd5b60008251610f79818460208701610e1d565b9190910192915050565b600060208284031215610f9557600080fd5b81518015158114610c0257600080fd5b6020815260008251806020840152610fc4816040850160208701610e1d565b601f01601f1916919091016040019291505056fea264697066735822122000e99efef7d1208ca0c2fdd19c544565eb2a9f64ebd861c322ebb2581c0d99e064736f6c63430008090033",
  "immutableReferences": {
    "75": [
      {
        "length": 32,
        "start": 1129
      }
    ]
  },
  "source": "// SPDX-License-Identifier: MIT\npragma solidity 0.8.9;\n\nimport \"@openzeppelin/contracts/access/Ownable.sol\";\nimport \"@openzeppelin/contracts/utils/Address.sol\";\nimport \"@openzeppelin/contracts/utils/Strings.sol\";\nimport \"@chainlink/contracts/src/v0.8/VRFConsumerBase.sol\";\nimport \"./interfaces/IRandomNumberGenerator.sol\";\nimport \"./interfaces/IDegisLottery.sol\";\nimport \"@openzeppelin/contracts/token/ERC20/utils/SafeERC20.sol\";\n\ncontract RandomNumberGenerator is\n    VRFConsumerBase,\n    IRandomNumberGenerator,\n    Ownable\n{\n    using Strings for uint256;\n    using SafeERC20 for IERC20;\n\n    address public DegisLottery;\n    bytes32 public keyHash;\n    bytes32 public latestRequestId;\n    uint32 public randomResult;\n    uint256 public fee;\n    uint256 public latestLotteryId;\n\n    /**\n     * @notice Constructor\n     * @dev RandomNumberGenerator must be deployed before the lottery.\n     * Once the lottery contract is deployed, setLotteryAddress must be called.\n     * https://docs.chain.link/docs/vrf-contracts/\n     * @param _vrfCoordinator: address of the VRF coordinator\n     * @param _linkToken: address of the LINK token\n     */\n    constructor(\n        address _vrfCoordinator,\n        address _linkToken,\n        bytes32 _keyHash\n    ) VRFConsumerBase(_vrfCoordinator, _linkToken) {\n        keyHash = _keyHash;\n        fee = 0.1 * 10e18;\n    }\n\n    /**\n     * @notice Request randomness from Chainlink VRF\n     */\n    function getRandomNumber() external override {\n        require(msg.sender == DegisLottery, \"Only DegisLottery\");\n        require(keyHash != bytes32(0), \"Must have valid key hash\");\n        // require(LINK.balanceOf(address(this)) >= fee, \"Not enough LINK tokens\");\n\n        //*********************************//\n        // This part is only for test on Fuji Testnet because there is no VRF currently\n        string memory randInput = string(\n            abi.encodePacked((block.timestamp).toString(), address(this))\n        );\n        randomResult = uint32(10000 + (_rand(randInput) % 10000));\n        //*********************************//\n\n        // latestRequestId = requestRandomness(keyHash, fee);\n\n        latestLotteryId = IDegisLottery(DegisLottery).viewCurrentLotteryId();\n    }\n\n    function _rand(string memory input) internal pure returns (uint256) {\n        return uint256(keccak256(abi.encodePacked(input)));\n    }\n\n    /**\n     * @notice Change the fee\n     * @param _fee: new fee (in LINK)\n     */\n    function setFee(uint256 _fee) external onlyOwner {\n        fee = _fee;\n    }\n\n    /**\n     * @notice Change the keyHash\n     * @param _keyHash: new keyHash\n     */\n    function setKeyHash(bytes32 _keyHash) external onlyOwner {\n        keyHash = _keyHash;\n    }\n\n    /**\n     * @notice Set the address for the DegisLottery\n     * @param _degisLottery: address of the PancakeSwap lottery\n     */\n    function setLotteryAddress(address _degisLottery) external onlyOwner {\n        DegisLottery = _degisLottery;\n    }\n\n    /**\n     * @notice It allows the admin to withdraw tokens sent to the contract\n     * @param _tokenAddress: the address of the token to withdraw\n     * @param _tokenAmount: the number of token amount to withdraw\n     * @dev Only callable by owner.\n     */\n    function withdrawTokens(address _tokenAddress, uint256 _tokenAmount)\n        external\n        onlyOwner\n    {\n        IERC20(_tokenAddress).safeTransfer(address(msg.sender), _tokenAmount);\n    }\n\n    /**\n     * @notice View latestLotteryId\n     */\n    function viewLatestLotteryId() external view override returns (uint256) {\n        return latestLotteryId;\n    }\n\n    /**\n     * @notice View random result\n     */\n    function viewRandomResult() external view override returns (uint32) {\n        return randomResult;\n    }\n\n    /**\n     * @notice Callback function used by ChainLink's VRF Coordinator\n     */\n    function fulfillRandomness(bytes32 requestId, uint256 randomness)\n        internal\n        override\n    {\n        require(latestRequestId == requestId, \"Wrong requestId\");\n        randomResult = uint32(10000 + (randomness % 10000));\n        latestLotteryId = IDegisLottery(DegisLottery).viewCurrentLotteryId();\n    }\n}\n",
  "sourcePath": "/Volumes/Store/Degis/Degis-Lucky/contracts/RandomNumberGenerator.sol",
  "compiler": {
    "name": "solc",
    "version": "0.8.9+commit.e5eed63a.Emscripten.clang"
  },
  "schemaVersion": "3.4.3",
  "updatedAt": "2021-12-07T13:42:40.347Z",
  "networkType": "ethereum",
  "devdoc": {
    "kind": "dev",
    "methods": {
      "constructor": {
        "details": "RandomNumberGenerator must be deployed before the lottery. Once the lottery contract is deployed, setLotteryAddress must be called. https://docs.chain.link/docs/vrf-contracts/",
        "params": {
          "_linkToken": ": address of the LINK token",
          "_vrfCoordinator": ": address of the VRF coordinator"
        }
      },
      "owner()": {
        "details": "Returns the address of the current owner."
      },
      "renounceOwnership()": {
        "details": "Leaves the contract without owner. It will not be possible to call `onlyOwner` functions anymore. Can only be called by the current owner. NOTE: Renouncing ownership will leave the contract without an owner, thereby removing any functionality that is only available to the owner."
      },
      "setFee(uint256)": {
        "params": {
          "_fee": ": new fee (in LINK)"
        }
      },
      "setKeyHash(bytes32)": {
        "params": {
          "_keyHash": ": new keyHash"
        }
      },
      "setLotteryAddress(address)": {
        "params": {
          "_degisLottery": ": address of the PancakeSwap lottery"
        }
      },
      "transferOwnership(address)": {
        "details": "Transfers ownership of the contract to a new account (`newOwner`). Can only be called by the current owner."
      },
      "withdrawTokens(address,uint256)": {
        "details": "Only callable by owner.",
        "params": {
          "_tokenAddress": ": the address of the token to withdraw",
          "_tokenAmount": ": the number of token amount to withdraw"
        }
      }
    },
    "version": 1
  },
  "userdoc": {
    "kind": "user",
    "methods": {
      "constructor": {
        "notice": "Constructor"
      },
      "getRandomNumber()": {
        "notice": "Request randomness from Chainlink VRF"
      },
      "setFee(uint256)": {
        "notice": "Change the fee"
      },
      "setKeyHash(bytes32)": {
        "notice": "Change the keyHash"
      },
      "setLotteryAddress(address)": {
        "notice": "Set the address for the DegisLottery"
      },
      "viewLatestLotteryId()": {
        "notice": "View latestLotteryId"
      },
      "viewRandomResult()": {
        "notice": "View random result"
      },
      "withdrawTokens(address,uint256)": {
        "notice": "It allows the admin to withdraw tokens sent to the contract"
      }
    },
    "version": 1
  }
}